{
  "_format": "hh-sol-artifact-1",
  "contractName": "EventTicketingSystem",
  "sourceName": "contracts/EventTicketingSystem.sol",
  "abi": [
    {
      "inputs": [
        {
          "internalType": "string",
          "name": "_name",
          "type": "string"
        },
        {
          "internalType": "string",
          "name": "_symbol",
          "type": "string"
        },
        {
          "internalType": "address",
          "name": "_ticketContract",
          "type": "address"
        }
      ],
      "stateMutability": "nonpayable",
      "type": "constructor"
    },
    {
      "anonymous": false,
      "inputs": [
        {
          "indexed": true,
          "internalType": "address",
          "name": "owner",
          "type": "address"
        },
        {
          "indexed": true,
          "internalType": "address",
          "name": "approved",
          "type": "address"
        },
        {
          "indexed": true,
          "internalType": "uint256",
          "name": "tokenId",
          "type": "uint256"
        }
      ],
      "name": "Approval",
      "type": "event"
    },
    {
      "anonymous": false,
      "inputs": [
        {
          "indexed": true,
          "internalType": "address",
          "name": "owner",
          "type": "address"
        },
        {
          "indexed": true,
          "internalType": "address",
          "name": "operator",
          "type": "address"
        },
        {
          "indexed": false,
          "internalType": "bool",
          "name": "approved",
          "type": "bool"
        }
      ],
      "name": "ApprovalForAll",
      "type": "event"
    },
    {
      "anonymous": false,
      "inputs": [
        {
          "indexed": false,
          "internalType": "uint256",
          "name": "eventId",
          "type": "uint256"
        },
        {
          "indexed": false,
          "internalType": "string",
          "name": "metadataUri",
          "type": "string"
        }
      ],
      "name": "EventCreated",
      "type": "event"
    },
    {
      "anonymous": false,
      "inputs": [
        {
          "indexed": false,
          "internalType": "uint256",
          "name": "eventId",
          "type": "uint256"
        },
        {
          "indexed": false,
          "internalType": "string",
          "name": "metadataUri",
          "type": "string"
        }
      ],
      "name": "EventUpdated",
      "type": "event"
    },
    {
      "anonymous": false,
      "inputs": [
        {
          "indexed": false,
          "internalType": "uint256",
          "name": "eventId",
          "type": "uint256"
        },
        {
          "indexed": true,
          "internalType": "bytes32",
          "name": "role",
          "type": "bytes32"
        },
        {
          "indexed": true,
          "internalType": "bytes32",
          "name": "previousAdminRole",
          "type": "bytes32"
        },
        {
          "indexed": true,
          "internalType": "bytes32",
          "name": "newAdminRole",
          "type": "bytes32"
        }
      ],
      "name": "RoleAdminChanged",
      "type": "event"
    },
    {
      "anonymous": false,
      "inputs": [
        {
          "indexed": false,
          "internalType": "uint256",
          "name": "eventId",
          "type": "uint256"
        },
        {
          "indexed": true,
          "internalType": "bytes32",
          "name": "role",
          "type": "bytes32"
        },
        {
          "indexed": true,
          "internalType": "address",
          "name": "account",
          "type": "address"
        },
        {
          "indexed": true,
          "internalType": "address",
          "name": "sender",
          "type": "address"
        }
      ],
      "name": "RoleGranted",
      "type": "event"
    },
    {
      "anonymous": false,
      "inputs": [
        {
          "indexed": false,
          "internalType": "uint256",
          "name": "eventId",
          "type": "uint256"
        },
        {
          "indexed": true,
          "internalType": "bytes32",
          "name": "role",
          "type": "bytes32"
        },
        {
          "indexed": true,
          "internalType": "address",
          "name": "account",
          "type": "address"
        },
        {
          "indexed": true,
          "internalType": "address",
          "name": "sender",
          "type": "address"
        }
      ],
      "name": "RoleRevoked",
      "type": "event"
    },
    {
      "anonymous": false,
      "inputs": [
        {
          "indexed": true,
          "internalType": "address",
          "name": "from",
          "type": "address"
        },
        {
          "indexed": true,
          "internalType": "address",
          "name": "to",
          "type": "address"
        },
        {
          "indexed": true,
          "internalType": "uint256",
          "name": "tokenId",
          "type": "uint256"
        }
      ],
      "name": "Transfer",
      "type": "event"
    },
    {
      "inputs": [],
      "name": "DEFAULT_ADMIN_ROLE",
      "outputs": [
        {
          "internalType": "bytes32",
          "name": "",
          "type": "bytes32"
        }
      ],
      "stateMutability": "view",
      "type": "function"
    },
    {
      "inputs": [],
      "name": "MODERATOR_ROLE",
      "outputs": [
        {
          "internalType": "bytes32",
          "name": "",
          "type": "bytes32"
        }
      ],
      "stateMutability": "view",
      "type": "function"
    },
    {
      "inputs": [
        {
          "internalType": "uint256",
          "name": "_eventId",
          "type": "uint256"
        },
        {
          "internalType": "bytes32",
          "name": "_role",
          "type": "bytes32"
        },
        {
          "internalType": "address",
          "name": "_account",
          "type": "address"
        }
      ],
      "name": "addTeamMember",
      "outputs": [],
      "stateMutability": "nonpayable",
      "type": "function"
    },
    {
      "inputs": [
        {
          "internalType": "address",
          "name": "to",
          "type": "address"
        },
        {
          "internalType": "uint256",
          "name": "tokenId",
          "type": "uint256"
        }
      ],
      "name": "approve",
      "outputs": [],
      "stateMutability": "nonpayable",
      "type": "function"
    },
    {
      "inputs": [
        {
          "internalType": "address",
          "name": "owner",
          "type": "address"
        }
      ],
      "name": "balanceOf",
      "outputs": [
        {
          "internalType": "uint256",
          "name": "",
          "type": "uint256"
        }
      ],
      "stateMutability": "view",
      "type": "function"
    },
    {
      "inputs": [
        {
          "internalType": "uint256",
          "name": "_eventId",
          "type": "uint256"
        },
        {
          "internalType": "uint256",
          "name": "_categoryId",
          "type": "uint256"
        },
        {
          "internalType": "string",
          "name": "_ticketMetadaURI",
          "type": "string"
        },
        {
          "internalType": "uint256",
          "name": "amount",
          "type": "uint256"
        }
      ],
      "name": "buyTickets",
      "outputs": [],
      "stateMutability": "nonpayable",
      "type": "function"
    },
    {
      "inputs": [
        {
          "internalType": "uint256",
          "name": "_maxTicketsPerClient",
          "type": "uint256"
        },
        {
          "internalType": "string",
          "name": "_metadataURI",
          "type": "string"
        }
      ],
      "name": "createEvent",
      "outputs": [],
      "stateMutability": "nonpayable",
      "type": "function"
    },
    {
      "inputs": [
        {
          "internalType": "uint256",
          "name": "_eventId",
          "type": "uint256"
        },
        {
          "internalType": "string",
          "name": "_categoryCid",
          "type": "string"
        }
      ],
      "name": "createTicketCategory",
      "outputs": [],
      "stateMutability": "nonpayable",
      "type": "function"
    },
    {
      "inputs": [],
      "name": "fetchAllEventIds",
      "outputs": [
        {
          "internalType": "uint256[]",
          "name": "",
          "type": "uint256[]"
        }
      ],
      "stateMutability": "view",
      "type": "function"
    },
    {
      "inputs": [],
      "name": "fetchOwnedEvents",
      "outputs": [
        {
          "internalType": "uint256[]",
          "name": "",
          "type": "uint256[]"
        }
      ],
      "stateMutability": "view",
      "type": "function"
    },
    {
      "inputs": [
        {
          "internalType": "uint256",
          "name": "tokenId",
          "type": "uint256"
        }
      ],
      "name": "getApproved",
      "outputs": [
        {
          "internalType": "address",
          "name": "",
          "type": "address"
        }
      ],
      "stateMutability": "view",
      "type": "function"
    },
    {
      "inputs": [
        {
          "internalType": "uint256",
          "name": "_eventId",
          "type": "uint256"
        }
      ],
      "name": "getCategoriesByEventId",
      "outputs": [
        {
          "components": [
            {
              "internalType": "uint256",
              "name": "id",
              "type": "uint256"
            },
            {
              "internalType": "uint256[]",
              "name": "ticketIds",
              "type": "uint256[]"
            },
            {
              "internalType": "string",
              "name": "cid",
              "type": "string"
            }
          ],
          "internalType": "struct EventTicketingSystem.Category[]",
          "name": "",
          "type": "tuple[]"
        }
      ],
      "stateMutability": "view",
      "type": "function"
    },
    {
      "inputs": [
        {
          "internalType": "uint256",
          "name": "eventId",
          "type": "uint256"
        },
        {
          "internalType": "bytes32",
          "name": "role",
          "type": "bytes32"
        }
      ],
      "name": "getRoleAdmin",
      "outputs": [
        {
          "internalType": "bytes32",
          "name": "",
          "type": "bytes32"
        }
      ],
      "stateMutability": "view",
      "type": "function"
    },
    {
      "inputs": [
        {
          "internalType": "uint256",
          "name": "eventId",
          "type": "uint256"
        },
        {
          "internalType": "bytes32",
          "name": "role",
          "type": "bytes32"
        },
        {
          "internalType": "address",
          "name": "account",
          "type": "address"
        }
      ],
      "name": "grantRole",
      "outputs": [],
      "stateMutability": "nonpayable",
      "type": "function"
    },
    {
      "inputs": [
        {
          "internalType": "uint256",
          "name": "eventId",
          "type": "uint256"
        },
        {
          "internalType": "bytes32",
          "name": "role",
          "type": "bytes32"
        },
        {
          "internalType": "address",
          "name": "account",
          "type": "address"
        }
      ],
      "name": "hasRole",
      "outputs": [
        {
          "internalType": "bool",
          "name": "",
          "type": "bool"
        }
      ],
      "stateMutability": "view",
      "type": "function"
    },
    {
      "inputs": [
        {
          "internalType": "address",
          "name": "owner",
          "type": "address"
        },
        {
          "internalType": "address",
          "name": "operator",
          "type": "address"
        }
      ],
      "name": "isApprovedForAll",
      "outputs": [
        {
          "internalType": "bool",
          "name": "",
          "type": "bool"
        }
      ],
      "stateMutability": "view",
      "type": "function"
    },
    {
      "inputs": [],
      "name": "name",
      "outputs": [
        {
          "internalType": "string",
          "name": "",
          "type": "string"
        }
      ],
      "stateMutability": "view",
      "type": "function"
    },
    {
      "inputs": [
        {
          "internalType": "uint256",
          "name": "tokenId",
          "type": "uint256"
        }
      ],
      "name": "ownerOf",
      "outputs": [
        {
          "internalType": "address",
          "name": "",
          "type": "address"
        }
      ],
      "stateMutability": "view",
      "type": "function"
    },
    {
      "inputs": [
        {
          "internalType": "uint256",
          "name": "_eventId",
          "type": "uint256"
        }
      ],
      "name": "removeEvent",
      "outputs": [],
      "stateMutability": "nonpayable",
      "type": "function"
    },
    {
      "inputs": [
        {
          "internalType": "uint256",
          "name": "_eventId",
          "type": "uint256"
        },
        {
          "internalType": "bytes32",
          "name": "_role",
          "type": "bytes32"
        },
        {
          "internalType": "address",
          "name": "_account",
          "type": "address"
        }
      ],
      "name": "removeTeamMember",
      "outputs": [],
      "stateMutability": "nonpayable",
      "type": "function"
    },
    {
      "inputs": [
        {
          "internalType": "uint256",
          "name": "eventId",
          "type": "uint256"
        },
        {
          "internalType": "bytes32",
          "name": "role",
          "type": "bytes32"
        },
        {
          "internalType": "address",
          "name": "account",
          "type": "address"
        }
      ],
      "name": "renounceRole",
      "outputs": [],
      "stateMutability": "nonpayable",
      "type": "function"
    },
    {
      "inputs": [
        {
          "internalType": "uint256",
          "name": "eventId",
          "type": "uint256"
        },
        {
          "internalType": "bytes32",
          "name": "role",
          "type": "bytes32"
        },
        {
          "internalType": "address",
          "name": "account",
          "type": "address"
        }
      ],
      "name": "revokeRole",
      "outputs": [],
      "stateMutability": "nonpayable",
      "type": "function"
    },
    {
      "inputs": [
        {
          "internalType": "address",
          "name": "from",
          "type": "address"
        },
        {
          "internalType": "address",
          "name": "to",
          "type": "address"
        },
        {
          "internalType": "uint256",
          "name": "tokenId",
          "type": "uint256"
        }
      ],
      "name": "safeTransferFrom",
      "outputs": [],
      "stateMutability": "nonpayable",
      "type": "function"
    },
    {
      "inputs": [
        {
          "internalType": "address",
          "name": "from",
          "type": "address"
        },
        {
          "internalType": "address",
          "name": "to",
          "type": "address"
        },
        {
          "internalType": "uint256",
          "name": "tokenId",
          "type": "uint256"
        },
        {
          "internalType": "bytes",
          "name": "data",
          "type": "bytes"
        }
      ],
      "name": "safeTransferFrom",
      "outputs": [],
      "stateMutability": "nonpayable",
      "type": "function"
    },
    {
      "inputs": [
        {
          "internalType": "address",
          "name": "operator",
          "type": "address"
        },
        {
          "internalType": "bool",
          "name": "approved",
          "type": "bool"
        }
      ],
      "name": "setApprovalForAll",
      "outputs": [],
      "stateMutability": "nonpayable",
      "type": "function"
    },
    {
      "inputs": [
        {
          "internalType": "bytes4",
          "name": "interfaceId",
          "type": "bytes4"
        }
      ],
      "name": "supportsInterface",
      "outputs": [
        {
          "internalType": "bool",
          "name": "",
          "type": "bool"
        }
      ],
      "stateMutability": "view",
      "type": "function"
    },
    {
      "inputs": [],
      "name": "symbol",
      "outputs": [
        {
          "internalType": "string",
          "name": "",
          "type": "string"
        }
      ],
      "stateMutability": "view",
      "type": "function"
    },
    {
      "inputs": [
        {
          "internalType": "uint256",
          "name": "tokenId",
          "type": "uint256"
        }
      ],
      "name": "tokenURI",
      "outputs": [
        {
          "internalType": "string",
          "name": "",
          "type": "string"
        }
      ],
      "stateMutability": "view",
      "type": "function"
    },
    {
      "inputs": [
        {
          "internalType": "address",
          "name": "from",
          "type": "address"
        },
        {
          "internalType": "address",
          "name": "to",
          "type": "address"
        },
        {
          "internalType": "uint256",
          "name": "tokenId",
          "type": "uint256"
        }
      ],
      "name": "transferFrom",
      "outputs": [],
      "stateMutability": "nonpayable",
      "type": "function"
    },
    {
      "inputs": [
        {
          "internalType": "uint256",
          "name": "_eventId",
          "type": "uint256"
        },
        {
          "internalType": "string",
          "name": "_newMetadataURI",
          "type": "string"
        }
      ],
      "name": "updateEventTokenUri",
      "outputs": [],
      "stateMutability": "nonpayable",
      "type": "function"
    }
  ],
  "bytecode": "0x60806040523480156200001157600080fd5b50604051620032a9380380620032a9833981016040819052620000349162000149565b8282600062000044838262000265565b50600162000053828262000265565b5050600160085550600b80546001600160a01b0319166001600160a01b039290921691909117905550620003319050565b634e487b7160e01b600052604160045260246000fd5b600082601f830112620000ac57600080fd5b81516001600160401b0380821115620000c957620000c962000084565b604051601f8301601f19908116603f01168101908282118183101715620000f457620000f462000084565b816040528381526020925086838588010111156200011157600080fd5b600091505b8382101562000135578582018301518183018401529082019062000116565b600093810190920192909252949350505050565b6000806000606084860312156200015f57600080fd5b83516001600160401b03808211156200017757600080fd5b62000185878388016200009a565b945060208601519150808211156200019c57600080fd5b50620001ab868287016200009a565b604086015190935090506001600160a01b0381168114620001cb57600080fd5b809150509250925092565b600181811c90821680620001eb57607f821691505b6020821081036200020c57634e487b7160e01b600052602260045260246000fd5b50919050565b601f8211156200026057600081815260208120601f850160051c810160208610156200023b5750805b601f850160051c820191505b818110156200025c5782815560010162000247565b5050505b505050565b81516001600160401b0381111562000281576200028162000084565b6200029981620002928454620001d6565b8462000212565b602080601f831160018114620002d15760008415620002b85750858301515b600019600386901b1c1916600185901b1785556200025c565b600085815260208120601f198616915b828110156200030257888601518255948401946001909101908401620002e1565b5085821015620003215787850151600019600388901b60f8161c191681555b5050505050600190811b01905550565b612f6880620003416000396000f3fe608060405234801561001057600080fd5b50600436106101da5760003560e01c806373a6393811610104578063abae6af9116100a2578063e985e9c511610071578063e985e9c514610422578063f99c22921461045e578063fb42204d14610466578063fc3291a61461047957600080fd5b8063abae6af9146103d4578063b0155544146103e9578063b88d4fde146103fc578063c87b56dd1461040f57600080fd5b8063a1d255e1116100de578063a1d255e114610386578063a217fddf14610399578063a22cb465146103a1578063a4df4106146103b457600080fd5b806373a6393814610356578063797669c91461036957806395d89b411461037e57600080fd5b8063397d4dbc1161017c5780636352211e1161014b5780636352211e1461030a5780636a4bc7de1461031d57806370a0823114610330578063724bdedf1461034357600080fd5b8063397d4dbc1461029557806342842e0e146102d15780634a120dd7146102e457806356164e1e146102f757600080fd5b8063095ea7b3116101b8578063095ea7b314610247578063119345aa1461025c5780632053d82c1461026f57806323b872dd1461028257600080fd5b806301ffc9a7146101df57806306fdde0314610207578063081812fc1461021c575b600080fd5b6101f26101ed366004612581565b61048c565b60405190151581526020015b60405180910390f35b61020f6104de565b6040516101fe91906125ee565b61022f61022a366004612601565b610570565b6040516001600160a01b0390911681526020016101fe565b61025a61025536600461262f565b610597565b005b6101f261026a36600461265b565b6106b1565b61025a61027d366004612740565b6106e3565b61025a610290366004612787565b6107ee565b6102c36102a33660046127c8565b600091825260076020908152604080842092845291905290206001015490565b6040519081526020016101fe565b61025a6102df366004612787565b61081f565b61025a6102f236600461265b565b61083a565b61025a610305366004612601565b610875565b61022f610318366004612601565b610b46565b61025a61032b36600461265b565b610ba6565b6102c361033e3660046127ea565b610bd9565b61025a61035136600461265b565b610c5f565b61025a610364366004612740565b610cd8565b6102c3600080516020612f1383398151915281565b61020f610dc7565b61025a610394366004612740565b610dd6565b6102c3600081565b61025a6103af366004612807565b610ed5565b6103c76103c2366004612601565b610ee4565b6040516101fe9190612880565b6103dc61104d565b6040516101fe9190612911565b61025a6103f736600461265b565b6111a2565b61025a61040a366004612924565b6111d5565b61020f61041d366004612601565b61120d565b6101f26104303660046129a4565b6001600160a01b03918216600090815260056020908152604080832093909416825291909152205460ff1690565b6103dc61131d565b61025a61047436600461265b565b611429565b61025a6104873660046129d2565b61145d565b60006001600160e01b031982166380ac58cd60e01b14806104bd57506001600160e01b03198216635b5e139f60e01b145b806104d857506301ffc9a760e01b6001600160e01b03198316145b92915050565b6060600080546104ed90612a2a565b80601f016020809104026020016040519081016040528092919081815260200182805461051990612a2a565b80156105665780601f1061053b57610100808354040283529160200191610566565b820191906000526020600020905b81548152906001019060200180831161054957829003601f168201915b5050505050905090565b600061057b826117d2565b506000908152600460205260409020546001600160a01b031690565b60006105a282610b46565b9050806001600160a01b0316836001600160a01b0316036106145760405162461bcd60e51b815260206004820152602160248201527f4552433732313a20617070726f76616c20746f2063757272656e74206f776e656044820152603960f91b60648201526084015b60405180910390fd5b336001600160a01b038216148061063057506106308133610430565b6106a25760405162461bcd60e51b815260206004820152603e60248201527f4552433732313a20617070726f76652063616c6c6572206973206e6f7420746f60448201527f6b656e206f776e6572206e6f7220617070726f76656420666f7220616c6c0000606482015260840161060b565b6106ac8383611825565b505050565b60009283526007602090815260408085209385529281528284206001600160a01b039290921684525290205460ff1690565b816106ed81611893565b6107095760405162461bcd60e51b815260040161060b90612a64565b610715836000336106b1565b80610734575061073483600080516020612f13833981519152336106b1565b6107a65760405162461bcd60e51b815260206004820152603960248201527f4576656e745469636b6574696e6753797374656d3a2043616c6c65722069732060448201527f6e6f7420616e2061646d696e206f72206d6f64657261746f7200000000000000606482015260840161060b565b6107b083836118b0565b7f0c21d47f606573d65eedb6ee084e32d784cfcd5ce32240b22f19de37d6b4096983836040516107e1929190612a94565b60405180910390a1505050565b6107f83382611934565b6108145760405162461bcd60e51b815260040161060b90612aad565b6106ac8383836119b2565b6106ac838383604051806020016040528060008152506111d5565b600083815260076020908152604080832085845290915290206001015483906108638282611b4e565b61086e858585611b59565b5050505050565b8061087f81611893565b61089b5760405162461bcd60e51b815260040161060b90612a64565b6108a7826000336106b1565b6108c35760405162461bcd60e51b815260040161060b90612afb565b6000828152600a6020908152604080832081516060810183528154815260018201546001600160a01b031681850152600282018054845181870281018701865281815292959394860193879084015b82821015610a385783829060005260206000209060030201604051806060016040529081600082015481526020016001820180548060200260200160405190810160405280929190818152602001828054801561098e57602002820191906000526020600020905b81548152602001906001019080831161097a575b505050505081526020016002820180546109a790612a2a565b80601f01602080910402602001604051908101604052809291908181526020018280546109d390612a2a565b8015610a205780601f106109f557610100808354040283529160200191610a20565b820191906000526020600020905b815481529060010190602001808311610a0357829003601f168201915b50505050508152505081526020019060010190610912565b5050509152505060408101519091506000805b8251811015610a9a57828181518110610a6657610a66612b47565b60200260200101516020015151600003610a885781610a8481612b73565b9250505b80610a9281612b73565b915050610a4b565b5080825114610b0a5760405162461bcd60e51b815260206004820152603660248201527f4576656e745469636b6574696e6753797374656d3a204576656e74206d757374604482015275206e6f74206861766520736f6c64207469636b65747360501b606482015260840161060b565b6000858152600a602052604081208181556001810180546001600160a01b031916905590610b3b6002830182612461565b505061086e85611bd8565b6000818152600260205260408120546001600160a01b0316806104d85760405162461bcd60e51b8152602060048201526018602482015277115490cdcc8c4e881a5b9d985b1a59081d1bdad95b88125160421b604482015260640161060b565b610bb2836000336106b1565b610bce5760405162461bcd60e51b815260040161060b90612afb565b6106ac838383611429565b60006001600160a01b038216610c435760405162461bcd60e51b815260206004820152602960248201527f4552433732313a2061646472657373207a65726f206973206e6f7420612076616044820152683634b21037bbb732b960b91b606482015260840161060b565b506001600160a01b031660009081526003602052604090205490565b6001600160a01b0381163314610ccd5760405162461bcd60e51b815260206004820152602d60248201527f526f6c65436f6e74726f6c3a2063616e206f6e6c792072656e6f756e6365207260448201526c37b632b9903337b91039b2b63360991b606482015260840161060b565b6106ac838383611b59565b6000828152600a602052604081206002810154909190610cf9906001612b8c565b9050600a60008581526020019081526020016000206002016040518060600160405280838152602001600067ffffffffffffffff811115610d3c57610d3c612694565b604051908082528060200260200182016040528015610d65578160200160208202803683370190505b5081526020908101869052825460018181018555600094855293829020835160039092020190815582820151805193949193610da993928501929190910190612482565b5060408201516002820190610dbe9082612bed565b50505050505050565b6060600180546104ed90612a2a565b600260085403610e285760405162461bcd60e51b815260206004820152601f60248201527f5265656e7472616e637947756172643a207265656e7472616e742063616c6c00604482015260640161060b565b6002600855610e3b600980546001019055565b6000610e4660095490565b6000818152600a602052604081208581556001810180546001600160a01b0319163390811790915592935091610e7d918491611c18565b610e873383611c23565b610e9182846118b0565b7f9ce3d6db707bca4ba0eabed8fba1e2c013a1c0bc1132a764170a7854d198c73d8284604051610ec2929190612a94565b60405180910390a1505060016008555050565b610ee0338383611d56565b5050565b6060600a6000838152602001908152602001600020600201805480602002602001604051908101604052809291908181526020016000905b8282101561104257838290600052602060002090600302016040518060600160405290816000820154815260200160018201805480602002602001604051908101604052809291908181526020018280548015610f9857602002820191906000526020600020905b815481526020019060010190808311610f84575b50505050508152602001600282018054610fb190612a2a565b80601f0160208091040260200160405190810160405280929190818152602001828054610fdd90612a2a565b801561102a5780601f10610fff5761010080835404028352916020019161102a565b820191906000526020600020905b81548152906001019060200180831161100d57829003601f168201915b50505050508152505081526020019060010190610f1c565b505050509050919050565b6060600061105a60095490565b905060008060015b8381116110c957611075816000336106b1565b80611094575061109481600080516020612f13833981519152336106b1565b80156110a457506110a481611893565b156110b757826110b381612b73565b9350505b806110c181612b73565b915050611062565b5060008267ffffffffffffffff8111156110e5576110e5612694565b60405190808252806020026020018201604052801561110e578160200160208202803683370190505b50905060015b84811161119957611127816000336106b1565b80611146575061114681600080516020612f13833981519152336106b1565b8015611156575061115681611893565b15611187578082848151811061116e5761116e612b47565b60209081029190910101528261118381612b73565b9350505b8061119181612b73565b915050611114565b50949350505050565b6111ae836000336106b1565b6111ca5760405162461bcd60e51b815260040161060b90612afb565b6106ac83838361083a565b6111df3383611934565b6111fb5760405162461bcd60e51b815260040161060b90612aad565b61120784848484611e24565b50505050565b6060611218826117d2565b6000828152600660205260408120805461123190612a2a565b80601f016020809104026020016040519081016040528092919081815260200182805461125d90612a2a565b80156112aa5780601f1061127f576101008083540402835291602001916112aa565b820191906000526020600020905b81548152906001019060200180831161128d57829003601f168201915b5050505050905060006112c860408051602081019091526000815290565b905080516000036112da575092915050565b81511561130c5780826040516020016112f4929190612cad565b60405160208183030381529060405292505050919050565b61131584611e57565b949350505050565b6060600061132a60095490565b905060008060015b838111611379576000818152600a60205260409020600101546001600160a01b031615611367578261136381612b73565b9350505b8061137181612b73565b915050611332565b5060008267ffffffffffffffff81111561139557611395612694565b6040519080825280602002602001820160405280156113be578160200160208202803683370190505b50905060015b848111611199576000818152600a60205260409020600101546001600160a01b03161561141757808284815181106113fe576113fe612b47565b60209081029190910101528261141381612b73565b9350505b8061142181612b73565b9150506113c4565b600083815260076020908152604080832085845290915290206001015483906114528282611b4e565b61086e858585611ecb565b8361146781611893565b6114835760405162461bcd60e51b815260040161060b90612a64565b6000858152600a602090815260408083208151606080820184528582529381018490529182019290925290916002830191819060005b845481101561162357898582815481106114d5576114d5612b47565b90600052602060002090600302016000015403611611578481815481106114fe576114fe612b47565b9060005260206000209060030201604051806060016040529081600082015481526020016001820180548060200260200160405190810160405280929190818152602001828054801561157057602002820191906000526020600020905b81548152602001906001019080831161155c575b5050505050815260200160028201805461158990612a2a565b80601f01602080910402602001604051908101604052809291908181526020018280546115b590612a2a565b80156116025780601f106115d757610100808354040283529160200191611602565b820191906000526020600020905b8154815290600101906020018083116115e557829003601f168201915b50505050508152505091508092505b8061161b81612b73565b9150506114b9565b5060005b8160200151518110156116f557600b546020830151805133926001600160a01b031691636352211e918590811061166057611660612b47565b60200260200101516040518263ffffffff1660e01b815260040161168691815260200190565b602060405180830381865afa1580156116a3573d6000803e3d6000fd5b505050506040513d601f19601f820116820180604052508101906116c79190612cdc565b6001600160a01b0316036116e357836116df81612b73565b9450505b806116ed81612b73565b915050611627565b50600b5460405163f526e59160e01b81526000916001600160a01b03169063f526e5919061172b908c908c903390600401612cf9565b6020604051808303816000875af115801561174a573d6000803e3d6000fd5b505050506040513d601f19601f8201168201806040525081019061176e9190612d2c565b9050805b8881116117c45786600201848154811061178e5761178e612b47565b600091825260208083206001600390930201820180549283018155835290912001819055806117bc81612b73565b915050611772565b505050505050505050505050565b6117db81611893565b6118225760405162461bcd60e51b8152602060048201526018602482015277115490cdcc8c4e881a5b9d985b1a59081d1bdad95b88125160421b604482015260640161060b565b50565b600081815260046020526040902080546001600160a01b0319166001600160a01b038416908117909155819061185a82610b46565b6001600160a01b03167f8c5be1e5ebec7d5bd14f71427d1e84f3dd0314c0f7b2291e5b200ac8c7c3b92560405160405180910390a45050565b6000908152600260205260409020546001600160a01b0316151590565b6118b982611893565b61191c5760405162461bcd60e51b815260206004820152602e60248201527f45524337323155524953746f726167653a2055524920736574206f66206e6f6e60448201526d32bc34b9ba32b73a103a37b5b2b760911b606482015260840161060b565b60008281526006602052604090206106ac8282612bed565b60008061194083610b46565b9050806001600160a01b0316846001600160a01b0316148061198757506001600160a01b0380821660009081526005602090815260408083209388168352929052205460ff165b806113155750836001600160a01b03166119a084610570565b6001600160a01b031614949350505050565b826001600160a01b03166119c582610b46565b6001600160a01b031614611a295760405162461bcd60e51b815260206004820152602560248201527f4552433732313a207472616e736665722066726f6d20696e636f72726563742060448201526437bbb732b960d91b606482015260840161060b565b6001600160a01b038216611a8b5760405162461bcd60e51b8152602060048201526024808201527f4552433732313a207472616e7366657220746f20746865207a65726f206164646044820152637265737360e01b606482015260840161060b565b611a96600082611825565b6001600160a01b0383166000908152600360205260408120805460019290611abf908490612d45565b90915550506001600160a01b0382166000908152600360205260408120805460019290611aed908490612b8c565b909155505060008181526002602052604080822080546001600160a01b0319166001600160a01b0386811691821790925591518493918716917fddf252ad1be2c89b69c2b068fc378daa952ba7f163c4a11628f55a4df523b3ef91a4505050565b610ee0828233611f5b565b611b648383836106b1565b156106ac57600083815260076020908152604080832085845282528083206001600160a01b03851680855290835292819020805460ff191690555185815233929185917f7b00293d63517946aeba2f56c6b4c5dec87b67393ac48520994d3d8ce776335a91015b60405180910390a4505050565b611be181611fbf565b60008181526006602052604090208054611bfa90612a2a565b159050611822576000818152600660205260408120611822916124cd565b6106ac838383611ecb565b6001600160a01b038216611c795760405162461bcd60e51b815260206004820181905260248201527f4552433732313a206d696e7420746f20746865207a65726f2061646472657373604482015260640161060b565b611c8281611893565b15611ccf5760405162461bcd60e51b815260206004820152601c60248201527f4552433732313a20746f6b656e20616c7265616479206d696e74656400000000604482015260640161060b565b6001600160a01b0382166000908152600360205260408120805460019290611cf8908490612b8c565b909155505060008181526002602052604080822080546001600160a01b0319166001600160a01b03861690811790915590518392907fddf252ad1be2c89b69c2b068fc378daa952ba7f163c4a11628f55a4df523b3ef908290a45050565b816001600160a01b0316836001600160a01b031603611db75760405162461bcd60e51b815260206004820152601960248201527f4552433732313a20617070726f766520746f2063616c6c657200000000000000604482015260640161060b565b6001600160a01b03838116600081815260056020908152604080832094871680845294825291829020805460ff191686151590811790915591519182527f17307eab39ab6107e8899845ad3d59bd9653f200f220920489ca2b5937696c31910160405180910390a3505050565b611e2f8484846119b2565b611e3b8484848461205a565b6112075760405162461bcd60e51b815260040161060b90612d58565b6060611e62826117d2565b6000611e7960408051602081019091526000815290565b90506000815111611e995760405180602001604052806000815250611ec4565b80611ea38461215b565b604051602001611eb4929190612cad565b6040516020818303038152906040525b9392505050565b611ed68383836106b1565b6106ac57600083815260076020908152604080832085845282528083206001600160a01b03851684529091529020805460ff19166001179055611f163390565b6001600160a01b0316816001600160a01b0316837fd9dfff7752b7a810e2b646c0c96b76bc9ed817f6c6f7848bbe68163f7e8b437886604051611bcb91815260200190565b611f668383836106b1565b6106ac57611f738161225c565b611f7e83602061226e565b611f878561240a565b604051602001611f9993929190612daa565b60408051601f198184030181529082905262461bcd60e51b825261060b916004016125ee565b6000611fca82610b46565b9050611fd7600083611825565b6001600160a01b0381166000908152600360205260408120805460019290612000908490612d45565b909155505060008281526002602052604080822080546001600160a01b0319169055518391906001600160a01b038416907fddf252ad1be2c89b69c2b068fc378daa952ba7f163c4a11628f55a4df523b3ef908390a45050565b60006001600160a01b0384163b1561215057604051630a85bd0160e11b81526001600160a01b0385169063150b7a029061209e903390899088908890600401612e4c565b6020604051808303816000875af19250505080156120d9575060408051601f3d908101601f191682019092526120d691810190612e89565b60015b612136573d808015612107576040519150601f19603f3d011682016040523d82523d6000602084013e61210c565b606091505b50805160000361212e5760405162461bcd60e51b815260040161060b90612d58565b805181602001fd5b6001600160e01b031916630a85bd0160e11b149050611315565b506001949350505050565b6060816000036121825750506040805180820190915260018152600360fc1b602082015290565b8160005b81156121ac578061219681612b73565b91506121a59050600a83612ebc565b9150612186565b60008167ffffffffffffffff8111156121c7576121c7612694565b6040519080825280601f01601f1916602001820160405280156121f1576020820181803683370190505b5090505b841561131557612206600183612d45565b9150612213600a86612ed0565b61221e906030612b8c565b60f81b81838151811061223357612233612b47565b60200101906001600160f81b031916908160001a905350612255600a86612ebc565b94506121f5565b60606104d86001600160a01b03831660145b6060600061227d836002612ee4565b612288906002612b8c565b67ffffffffffffffff8111156122a0576122a0612694565b6040519080825280601f01601f1916602001820160405280156122ca576020820181803683370190505b509050600360fc1b816000815181106122e5576122e5612b47565b60200101906001600160f81b031916908160001a905350600f60fb1b8160018151811061231457612314612b47565b60200101906001600160f81b031916908160001a9053506000612338846002612ee4565b612343906001612b8c565b90505b60018111156123bb576f181899199a1a9b1b9c1cb0b131b232b360811b85600f166010811061237757612377612b47565b1a60f81b82828151811061238d5761238d612b47565b60200101906001600160f81b031916908160001a90535060049490941c936123b481612efb565b9050612346565b508315611ec45760405162461bcd60e51b815260206004820181905260248201527f537472696e67733a20686578206c656e67746820696e73756666696369656e74604482015260640161060b565b6060816000036124345750506040805180820190915260048152630307830360e41b602082015290565b8160005b8115612457578061244881612b73565b915050600882901c9150612438565b611315848261226e565b50805460008255600302906000526020600020908101906118229190612507565b8280548282559060005260206000209081019282156124bd579160200282015b828111156124bd5782518255916020019190600101906124a2565b506124c9929150612538565b5090565b5080546124d990612a2a565b6000825580601f106124e9575050565b601f0160209004906000526020600020908101906118229190612538565b808211156124c9576000808255612521600183018261254d565b61252f6002830160006124cd565b50600301612507565b5b808211156124c95760008155600101612539565b50805460008255906000526020600020908101906118229190612538565b6001600160e01b03198116811461182257600080fd5b60006020828403121561259357600080fd5b8135611ec48161256b565b60005b838110156125b95781810151838201526020016125a1565b50506000910152565b600081518084526125da81602086016020860161259e565b601f01601f19169290920160200192915050565b602081526000611ec460208301846125c2565b60006020828403121561261357600080fd5b5035919050565b6001600160a01b038116811461182257600080fd5b6000806040838503121561264257600080fd5b823561264d8161261a565b946020939093013593505050565b60008060006060848603121561267057600080fd5b833592506020840135915060408401356126898161261a565b809150509250925092565b634e487b7160e01b600052604160045260246000fd5b600067ffffffffffffffff808411156126c5576126c5612694565b604051601f8501601f19908116603f011681019082821181831017156126ed576126ed612694565b8160405280935085815286868601111561270657600080fd5b858560208301376000602087830101525050509392505050565b600082601f83011261273157600080fd5b611ec4838335602085016126aa565b6000806040838503121561275357600080fd5b82359150602083013567ffffffffffffffff81111561277157600080fd5b61277d85828601612720565b9150509250929050565b60008060006060848603121561279c57600080fd5b83356127a78161261a565b925060208401356127b78161261a565b929592945050506040919091013590565b600080604083850312156127db57600080fd5b50508035926020909101359150565b6000602082840312156127fc57600080fd5b8135611ec48161261a565b6000806040838503121561281a57600080fd5b82356128258161261a565b91506020830135801515811461283a57600080fd5b809150509250929050565b600081518084526020808501945080840160005b8381101561287557815187529582019590820190600101612859565b509495945050505050565b60006020808301818452808551808352604092508286019150828160051b87010184880160005b8381101561290357603f19898403018552815160608151855288820151818a8701526128d582870182612845565b915050878201519150848103888601526128ef81836125c2565b9689019694505050908601906001016128a7565b509098975050505050505050565b602081526000611ec46020830184612845565b6000806000806080858703121561293a57600080fd5b84356129458161261a565b935060208501356129558161261a565b925060408501359150606085013567ffffffffffffffff81111561297857600080fd5b8501601f8101871361298957600080fd5b612998878235602084016126aa565b91505092959194509250565b600080604083850312156129b757600080fd5b82356129c28161261a565b9150602083013561283a8161261a565b600080600080608085870312156129e857600080fd5b8435935060208501359250604085013567ffffffffffffffff811115612a0d57600080fd5b612a1987828801612720565b949793965093946060013593505050565b600181811c90821680612a3e57607f821691505b602082108103612a5e57634e487b7160e01b600052602260045260246000fd5b50919050565b6020808252601690820152756576656e7420646f6573206e6f74206578697374202160501b604082015260600190565b82815260406020820152600061131560408301846125c2565b6020808252602e908201527f4552433732313a2063616c6c6572206973206e6f7420746f6b656e206f776e6560408201526d1c881b9bdc88185c1c1c9bdd995960921b606082015260800190565b6020808252602c908201527f4576656e745469636b6574696e6753797374656d3a2043616c6c65722069732060408201526b3737ba1030b71030b236b4b760a11b606082015260800190565b634e487b7160e01b600052603260045260246000fd5b634e487b7160e01b600052601160045260246000fd5b600060018201612b8557612b85612b5d565b5060010190565b808201808211156104d8576104d8612b5d565b601f8211156106ac57600081815260208120601f850160051c81016020861015612bc65750805b601f850160051c820191505b81811015612be557828155600101612bd2565b505050505050565b815167ffffffffffffffff811115612c0757612c07612694565b612c1b81612c158454612a2a565b84612b9f565b602080601f831160018114612c505760008415612c385750858301515b600019600386901b1c1916600185901b178555612be5565b600085815260208120601f198616915b82811015612c7f57888601518255948401946001909101908401612c60565b5085821015612c9d5787850151600019600388901b60f8161c191681555b5050505050600190811b01905550565b60008351612cbf81846020880161259e565b835190830190612cd381836020880161259e565b01949350505050565b600060208284031215612cee57600080fd5b8151611ec48161261a565b606081526000612d0c60608301866125c2565b6020830194909452506001600160a01b0391909116604090910152919050565b600060208284031215612d3e57600080fd5b5051919050565b818103818111156104d8576104d8612b5d565b60208082526032908201527f4552433732313a207472616e7366657220746f206e6f6e20455243373231526560408201527131b2b4bb32b91034b6b83632b6b2b73a32b960711b606082015260800190565b7402937b632a1b7b73a3937b61d1030b1b1b7bab73a1605d1b815260008451612dda81601585016020890161259e565b7001034b99036b4b9b9b4b733903937b6329607d1b6015918401918201528451612e0b81602684016020890161259e565b720103337b91032bb32b73a103bb4ba341034b21606d1b602692909101918201528351612e3f81603984016020880161259e565b0160390195945050505050565b6001600160a01b0385811682528416602082015260408101839052608060608201819052600090612e7f908301846125c2565b9695505050505050565b600060208284031215612e9b57600080fd5b8151611ec48161256b565b634e487b7160e01b600052601260045260246000fd5b600082612ecb57612ecb612ea6565b500490565b600082612edf57612edf612ea6565b500690565b80820281158282048414176104d8576104d8612b5d565b600081612f0a57612f0a612b5d565b50600019019056fe71f3d55856e4058ed06ee057d79ada615f65cdf5f9ee88181b914225088f834fa2646970667358221220df47292ae6d5d8acd77b7b6551d8c4077bcad7ea4c172a1c96bc40079257c29e64736f6c63430008110033",
  "linkReferences": {},
  "deployedLinkReferences": {}
}