{
  "_format": "hh-sol-artifact-1",
  "contractName": "EventDiamondInit",
  "sourceName": "contracts/EventDiamond/upgradeInitializers/EventDiamondInit.sol",
  "abi": [
    {
      "inputs": [],
      "name": "init",
      "outputs": [],
      "stateMutability": "nonpayable",
      "type": "function"
    }
  ],
  "bytecode": "0x608060405234801561001057600080fd5b506107e3806100206000396000f3fe608060405234801561001057600080fd5b506004361061002b5760003560e01c8063e1c7392a14610030575b600080fd5b61003861003a565b005b6100667f5d2bf121314df98a20eba71ee533212720fdfa2f23840b97f93977518854c22760001b6106c9565b6100927f04c860ee39bffc835c8b9d50df177d97c982b286522d2e74c92f3fceca61299760001b6106c9565b6100be7fb4e82ee9db091df8499279e8b637f5e498e63429ce63ddf295b251db5325e9fd60001b6106c9565b60006100c86106cc565b90506100f67ff812c296290017a169c8536bdc28cc591bd41458d29a1abcd9f2fab0af1a064360001b6106c9565b6101227fee3176a284b297f409d1f282fbc968ba65678f489fa153fe7a5356c232ea902560001b6106c9565b60018160030160007f01ffc9a7000000000000000000000000000000000000000000000000000000007bffffffffffffffffffffffffffffffffffffffffffffffffffffffff19167bffffffffffffffffffffffffffffffffffffffffffffffffffffffff1916815260200190815260200160002060006101000a81548160ff0219169083151502179055506101da7ffccc38e3dcd9fb7605d40485fd5f9823b57b2649791c7345fd412128f868f73160001b6106c9565b6102067f3a574fcd1db99a4f57362853cf372d81d24b6c7ce1c099120c2545a83580846260001b6106c9565b60018160030160007f1f931c1c000000000000000000000000000000000000000000000000000000007bffffffffffffffffffffffffffffffffffffffffffffffffffffffff19167bffffffffffffffffffffffffffffffffffffffffffffffffffffffff1916815260200190815260200160002060006101000a81548160ff0219169083151502179055506102be7f26f763f0c1fcdae618e70948e6c7d72e7e1f9736f777a57236a76e6e8a4e740c60001b6106c9565b6102ea7fc1fc3d03adeb9d16351a5bebf0da65dec7139dbae202f1c4682c8af9000037c760001b6106c9565b60018160030160007f48e2b093000000000000000000000000000000000000000000000000000000007bffffffffffffffffffffffffffffffffffffffffffffffffffffffff19167bffffffffffffffffffffffffffffffffffffffffffffffffffffffff1916815260200190815260200160002060006101000a81548160ff0219169083151502179055506103a27fa2abced321c791e0b96b49f1425c5e8c04085368f05ec77081caa33177bad3dc60001b6106c9565b6103ce7f8b56b985ab9fb6103fe062934cac886cf6a88738453fa55a5cd0868c58c9bc2960001b6106c9565b60018160030160007f7f5828d0000000000000000000000000000000000000000000000000000000007bffffffffffffffffffffffffffffffffffffffffffffffffffffffff19167bffffffffffffffffffffffffffffffffffffffffffffffffffffffff1916815260200190815260200160002060006101000a81548160ff0219169083151502179055506104867f7882a6e837d9bdab3efacf175cdd757d691cf5e44aa16ab7ca42db9d45808fc660001b6106c9565b6104b27f358ba26bf55c147c47f8f1ba02432132729eae902d4ce14f65c5e953238e5efd60001b6106c9565b6001816003016000807bffffffffffffffffffffffffffffffffffffffffffffffffffffffff19167bffffffffffffffffffffffffffffffffffffffffffffffffffffffff1916815260200190815260200160002060006101000a81548160ff02191690831515021790555061054a7f2d247b0fd850fbf0eca9162fce6996635cd40cbdda135ed696d94ea99001c3f660001b6106c9565b6105767fda13c8a08f5cd3f59b60c785cba4fc9ba918070057dc552ab5afbf31a0593ebb60001b6106c9565b6001816003016000807bffffffffffffffffffffffffffffffffffffffffffffffffffffffff19167bffffffffffffffffffffffffffffffffffffffffffffffffffffffff1916815260200190815260200160002060006101000a81548160ff02191690831515021790555061060e7f7a9d74be4740117e98fb6ccfb504c0399197b2d9f12bcafe05ce425b7e5d88a260001b6106c9565b61063a7f5c42f0d028bf4ed8ad41653474ed82b5358cbab6ad7a2479e452b5f96d5274e160001b6106c9565b60018160030160007fc159193f000000000000000000000000000000000000000000000000000000007bffffffffffffffffffffffffffffffffffffffffffffffffffffffff19167bffffffffffffffffffffffffffffffffffffffffffffffffffffffff1916815260200190815260200160002060006101000a81548160ff02191690831515021790555050565b50565b60006106fa7f80adf3fb9f0f2000c36b4fc67be59e4ddf36f9c1e73879fee03d2dfb766c6faa60001b6107aa565b6107267f4c9d6581795a74de81aaa70c8cca8b7eae86b99714923b23d91322118afa819960001b6107aa565b6107527fd4b1e73746ba10208468c89ca288deb66323e47ac74feb6a32b2ecede670d6f760001b6107aa565b60007fc8fcad8db84d3cc18b4c41d551ea0ee66dd599cde068d998e57d5e09332c131c90506107a37f36316a83366a54ed6ba93ae9f381d57ba446c5686acef6152bd6227591ea2deb60001b6107aa565b8091505090565b5056fea2646970667358221220766880fe0d052c35cabe2c8ba0d37b99d09135381be24e6ba1df96361b0fcce764736f6c63430008110033",
  "linkReferences": {},
  "deployedLinkReferences": {}
}