{
  "_format": "hh-sol-artifact-1",
  "contractName": "EventTicketControllerFacet",
  "sourceName": "contracts/EventDiamond/facets/EventTicketControllerFacet.sol",
  "abi": [
    {
      "anonymous": false,
      "inputs": [
        {
          "indexed": true,
          "internalType": "uint256",
          "name": "fromTokenId",
          "type": "uint256"
        },
        {
          "indexed": false,
          "internalType": "uint256",
          "name": "toTokenId",
          "type": "uint256"
        },
        {
          "indexed": true,
          "internalType": "address",
          "name": "fromAddress",
          "type": "address"
        },
        {
          "indexed": true,
          "internalType": "address",
          "name": "toAddress",
          "type": "address"
        }
      ],
      "name": "ConsecutiveTransfer",
      "type": "event"
    },
    {
      "anonymous": false,
      "inputs": [
        {
          "indexed": false,
          "internalType": "uint256",
          "name": "eventId",
          "type": "uint256"
        },
        {
          "indexed": false,
          "internalType": "address[]",
          "name": "accounts",
          "type": "address[]"
        },
        {
          "indexed": false,
          "internalType": "address",
          "name": "staffMember",
          "type": "address"
        }
      ],
      "name": "InvitationSent",
      "type": "event"
    },
    {
      "anonymous": false,
      "inputs": [
        {
          "indexed": false,
          "internalType": "uint256",
          "name": "ticketId",
          "type": "uint256"
        },
        {
          "indexed": false,
          "internalType": "address",
          "name": "account",
          "type": "address"
        }
      ],
      "name": "TicketBought",
      "type": "event"
    },
    {
      "anonymous": false,
      "inputs": [
        {
          "indexed": false,
          "internalType": "uint256",
          "name": "eventId",
          "type": "uint256"
        },
        {
          "indexed": false,
          "internalType": "uint256",
          "name": "categoryId",
          "type": "uint256"
        },
        {
          "indexed": false,
          "internalType": "uint256",
          "name": "ticketId",
          "type": "uint256"
        },
        {
          "indexed": false,
          "internalType": "address",
          "name": "staffMember",
          "type": "address"
        }
      ],
      "name": "TicketClipped",
      "type": "event"
    },
    {
      "anonymous": false,
      "inputs": [
        {
          "indexed": false,
          "internalType": "uint256",
          "name": "eventId",
          "type": "uint256"
        },
        {
          "indexed": false,
          "internalType": "uint256",
          "name": "categoryId",
          "type": "uint256"
        },
        {
          "indexed": false,
          "internalType": "uint256",
          "name": "ticketId",
          "type": "uint256"
        },
        {
          "indexed": false,
          "internalType": "address",
          "name": "account",
          "type": "address"
        },
        {
          "indexed": false,
          "internalType": "address",
          "name": "staffMember",
          "type": "address"
        }
      ],
      "name": "TicketRefunded",
      "type": "event"
    },
    {
      "anonymous": false,
      "inputs": [
        {
          "indexed": false,
          "internalType": "uint256",
          "name": "eventId",
          "type": "uint256"
        },
        {
          "indexed": false,
          "internalType": "uint256",
          "name": "ticketCount",
          "type": "uint256"
        },
        {
          "indexed": false,
          "internalType": "address",
          "name": "staffMember",
          "type": "address"
        }
      ],
      "name": "TicketsBooked",
      "type": "event"
    },
    {
      "inputs": [
        {
          "internalType": "uint256",
          "name": "_eventId",
          "type": "uint256"
        },
        {
          "components": [
            {
              "internalType": "uint256",
              "name": "date",
              "type": "uint256"
            },
            {
              "internalType": "uint8",
              "name": "percentage",
              "type": "uint8"
            }
          ],
          "internalType": "struct RefundData[]",
          "name": "_refundData",
          "type": "tuple[]"
        }
      ],
      "name": "addRefundDeadlines",
      "outputs": [],
      "stateMutability": "nonpayable",
      "type": "function"
    },
    {
      "inputs": [
        {
          "internalType": "uint256",
          "name": "_eventId",
          "type": "uint256"
        },
        {
          "components": [
            {
              "internalType": "uint256",
              "name": "categoryId",
              "type": "uint256"
            },
            {
              "internalType": "uint256",
              "name": "ticketAmount",
              "type": "uint256"
            }
          ],
          "internalType": "struct CategoryTicketAmount[]",
          "name": "_categoryTicketAmount",
          "type": "tuple[]"
        },
        {
          "components": [
            {
              "internalType": "uint256",
              "name": "row",
              "type": "uint256"
            },
            {
              "internalType": "uint256",
              "name": "seat",
              "type": "uint256"
            }
          ],
          "internalType": "struct TicketPlace[]",
          "name": "_place",
          "type": "tuple[]"
        },
        {
          "internalType": "string[]",
          "name": "_ticketMetadataUris",
          "type": "string[]"
        }
      ],
      "name": "bookTickets",
      "outputs": [],
      "stateMutability": "nonpayable",
      "type": "function"
    },
    {
      "inputs": [
        {
          "internalType": "uint256",
          "name": "_eventId",
          "type": "uint256"
        },
        {
          "internalType": "uint256",
          "name": "_categoryId",
          "type": "uint256"
        },
        {
          "components": [
            {
              "internalType": "uint256",
              "name": "amount",
              "type": "uint256"
            },
            {
              "internalType": "uint256",
              "name": "price",
              "type": "uint256"
            }
          ],
          "internalType": "struct TicketPriceData[]",
          "name": "_priceData",
          "type": "tuple[]"
        },
        {
          "components": [
            {
              "internalType": "uint256",
              "name": "row",
              "type": "uint256"
            },
            {
              "internalType": "uint256",
              "name": "seat",
              "type": "uint256"
            }
          ],
          "internalType": "struct TicketPlace[]",
          "name": "_place",
          "type": "tuple[]"
        },
        {
          "internalType": "string[]",
          "name": "_ticketMetadataUris",
          "type": "string[]"
        }
      ],
      "name": "buyTickets",
      "outputs": [],
      "stateMutability": "payable",
      "type": "function"
    },
    {
      "inputs": [
        {
          "components": [
            {
              "internalType": "uint256",
              "name": "eventId",
              "type": "uint256"
            },
            {
              "internalType": "uint256",
              "name": "categoryId",
              "type": "uint256"
            }
          ],
          "internalType": "struct EventCategoryData[]",
          "name": "_eventCategoryData",
          "type": "tuple[]"
        },
        {
          "components": [
            {
              "internalType": "uint256",
              "name": "amount",
              "type": "uint256"
            },
            {
              "internalType": "uint256",
              "name": "price",
              "type": "uint256"
            }
          ],
          "internalType": "struct TicketPriceData[]",
          "name": "_priceData",
          "type": "tuple[]"
        },
        {
          "components": [
            {
              "internalType": "uint256",
              "name": "row",
              "type": "uint256"
            },
            {
              "internalType": "uint256",
              "name": "seat",
              "type": "uint256"
            }
          ],
          "internalType": "struct TicketPlace[]",
          "name": "_place",
          "type": "tuple[]"
        },
        {
          "internalType": "string[]",
          "name": "_ticketMetadataUris",
          "type": "string[]"
        }
      ],
      "name": "buyTickets",
      "outputs": [],
      "stateMutability": "payable",
      "type": "function"
    },
    {
      "inputs": [
        {
          "internalType": "uint256",
          "name": "_eventId",
          "type": "uint256"
        },
        {
          "internalType": "uint256",
          "name": "_categoryId",
          "type": "uint256"
        },
        {
          "internalType": "uint256",
          "name": "_ticketId",
          "type": "uint256"
        }
      ],
      "name": "clipTicket",
      "outputs": [],
      "stateMutability": "nonpayable",
      "type": "function"
    },
    {
      "inputs": [
        {
          "internalType": "uint256",
          "name": "_eventId",
          "type": "uint256"
        },
        {
          "internalType": "uint256",
          "name": "_categoryId",
          "type": "uint256"
        },
        {
          "internalType": "uint256",
          "name": "_ticketId",
          "type": "uint256"
        },
        {
          "internalType": "address",
          "name": "_account",
          "type": "address"
        }
      ],
      "name": "refundTicket",
      "outputs": [],
      "stateMutability": "nonpayable",
      "type": "function"
    },
    {
      "inputs": [
        {
          "internalType": "uint256",
          "name": "_eventId",
          "type": "uint256"
        },
        {
          "internalType": "uint256[]",
          "name": "_ticketIds",
          "type": "uint256[]"
        },
        {
          "internalType": "address[]",
          "name": "_accounts",
          "type": "address[]"
        }
      ],
      "name": "sendInvitation",
      "outputs": [],
      "stateMutability": "nonpayable",
      "type": "function"
    },
    {
      "inputs": [
        {
          "internalType": "uint256",
          "name": "_eventId",
          "type": "uint256"
        },
        {
          "internalType": "uint256",
          "name": "_categoryId",
          "type": "uint256"
        },
        {
          "internalType": "uint256",
          "name": "_ticketId",
          "type": "uint256"
        }
      ],
      "name": "withdrawRefund",
      "outputs": [],
      "stateMutability": "nonpayable",
      "type": "function"
    }
  ],
  "bytecode": "0x608060405234801561001057600080fd5b50612aa3806100206000396000f3fe60806040526004361061007b5760003560e01c8063558e39c41161004e578063558e39c4146100f5578063c928840c14610115578063e145256e14610135578063ef71b78a1461015557600080fd5b806317457e20146100805780632d3bf559146100a25780634f282bea146100c25780634f905e5d146100e2575b600080fd5b34801561008c57600080fd5b506100a061009b3660046121a6565b610168565b005b3480156100ae57600080fd5b506100a06100bd3660046122d7565b6106fb565b3480156100ce57600080fd5b506100a06100dd36600461239a565b610970565b6100a06100f03660046123d9565b610bf3565b34801561010157600080fd5b506100a0610110366004612474565b610eeb565b34801561012157600080fd5b506100a0610130366004612474565b611121565b34801561014157600080fd5b506100a06101503660046124a0565b61128a565b6100a0610163366004612570565b611351565b600084815260026020908152604091829020548251808401909352601b83526000805160206128ea833981519152918301919091528591906001600160a01b03166101cf5760405162461bcd60e51b81526004016101c69190612632565b60405180910390fd5b506101dc8560003361168a565b806101fb57506101fb856000805160206129a78339815191523361168a565b6040518060600160405280602a8152602001612867602a9139906102325760405162461bcd60e51b81526004016101c69190612632565b50835160408051808201909152601f81526000805160206129878339815191526020820152906102755760405162461bcd60e51b81526004016101c69190612632565b5081518351146040518060400160405280601f8152602001600080516020612987833981519152815250906102bd5760405162461bcd60e51b81526004016101c69190612632565b5060008060005b86518110156104de576000600a0160008883815181106102e6576102e6612645565b602002602001015160000151815260200190815260200160002060000154600014156040518060400160405280601e81526020016000805160206129368339815191528152509061034a5760405162461bcd60e51b81526004016101c69190612632565b50876000600a01600089848151811061036557610365612645565b6020026020010151600001518152602001908152602001600020600701541460405180606001604052806029815260200161289160299139906103bb5760405162461bcd60e51b81526004016101c69190612632565b508681815181106103ce576103ce612645565b602002602001015160200151836103e59190612671565b92506000600a01600088838151811061040057610400612645565b602002602001015160000151815260200190815260200160002060040154836000600a0160008a858151811061043857610438612645565b6020026020010151600001518152602001908152602001600020600201805490506104639190612671565b1115604051806060016040528060238152602001612a25602391399061049c5760405162461bcd60e51b81526004016101c69190612632565b50600092508681815181106104b3576104b3612645565b602002602001015160200151826104ca9190612671565b9150806104d68161268a565b9150506102c4565b5060008060005b88518110156106ab5760005b89828151811061050357610503612645565b6020026020010151602001518110156106985760008b8152600c60205260409020895161054d908b908790811061053c5761053c612645565b6020026020010151600001516116bc565b6105738b878151811061056257610562612645565b6020026020010151602001516116bc565b6040516020016105849291906126a3565b60408051601f198184030181529082905261059e916126d2565b90815260408051918290036020908101832054838301909252601583527422bb32b73a1d10283630b1b29034b9903a30b5b2b760591b9083015260ff16156105f95760405162461bcd60e51b81526004016101c69190612632565b506106798b8b848151811061061057610610612645565b602002602001015160000151858c888151811061062f5761062f612645565b6020026020010151600001518d898151811061064d5761064d612645565b6020026020010151602001518d8a8151811061066b5761066b612645565b6020026020010151306117c4565b610684600185612671565b9350806106908161268a565b9150506104f1565b50806106a38161268a565b9150506104e5565b50604080518a81526020810185905233918101919091527f0bf6beb306958fd2b5107d64b133ea297e354c91e8508878a9a4abb9206d8228906060015b60405180910390a1505050505050505050565b600083815260026020908152604091829020548251808401909352601b83526000805160206128ea833981519152918301919091528491906001600160a01b03166107595760405162461bcd60e51b81526004016101c69190612632565b506107668460003361168a565b806107855750610785846000805160206129a78339815191523361168a565b6040518060600160405280602a8152602001612867602a9139906107bc5760405162461bcd60e51b81526004016101c69190612632565b508251158015906107cd5750815115155b6040518060400160405280601f81526020016000805160206129878339815191528152509061080f5760405162461bcd60e51b81526004016101c69190612632565b5081518351146040518060400160405280601f8152602001600080516020612987833981519152815250906108575760405162461bcd60e51b81526004016101c69190612632565b5060005b835181101561092e57600f5483516001600160a01b03909116906323b872dd90309086908590811061088f5761088f612645565b60200260200101518785815181106108a9576108a9612645565b60209081029190910101516040516001600160e01b031960e086901b1681526001600160a01b0393841660048201529290911660248301526044820152606401600060405180830381600087803b15801561090357600080fd5b505af1158015610917573d6000803e3d6000fd5b5050505080806109269061268a565b91505061085b565b507fc47e064bd57c3620a43c1e4ac852f9185e9582f40bdd973a20f4c1bf520f38a5848333604051610962939291906126ee565b60405180910390a150505050565b600084815260026020908152604091829020548251808401909352601b83526000805160206128ea833981519152918301919091528591906001600160a01b03166109ce5760405162461bcd60e51b81526004016101c69190612632565b506000848152600a6020908152604091829020548251808401909352601e835260008051602061293683398151915291830191909152859190610a245760405162461bcd60e51b81526004016101c69190612632565b508585816000600a01600083815260200190815260200160002060070154146040518060600160405280602981526020016128916029913990610a7a5760405162461bcd60e51b81526004016101c69190612632565b508686806000600d01600084815260200190815260200160002054146040518060600160405280602c815260200161290a602c913990610acd5760405162461bcd60e51b81526004016101c69190612632565b506001600160a01b038716610b2e5760405162461bcd60e51b815260206004820152602160248201527f4576656e743a204163636f756e742063616e27742062652030206164647265736044820152607360f81b60648201526084016101c6565b610b3a8a60003361168a565b80610b595750610b598a6000805160206129a78339815191523361168a565b6040518060600160405280602a8152602001612867602a913990610b905760405162461bcd60e51b81526004016101c69190612632565b50604080518b8152602081018b90529081018990526001600160a01b03881660608201523360808201527f46e932e62718185837307db095ce63393945a0c6881343f8d0956044ac2cba529060a00160405180910390a150505050505050505050565b825160408051808201909152601f8152600080516020612987833981519152602082015290610c355760405162461bcd60e51b81526004016101c69190612632565b5080518251146040518060400160405280601f815260200160008051602061298783398151915281525090610c7d5760405162461bcd60e51b81526004016101c69190612632565b50610c888585611958565b60008060005b8551811015610cfc5760009150610cbf87878381518110610cb157610cb1612645565b602002602001015184611c40565b858181518110610cd157610cd1612645565b60200260200101516020015183610ce89190612671565b925080610cf48161268a565b915050610c8e565b503482146040518060600160405280602381526020016128446023913990610d375760405162461bcd60e51b81526004016101c69190612632565b506000805b8651811015610ee05760005b878281518110610d5a57610d5a612645565b602002602001015160000151811015610ecd5760008a8152600c602052604090208751610d939089908690811061053c5761053c612645565b610da889868151811061056257610562612645565b604051602001610db99291906126a3565b60408051601f1981840301815290829052610dd3916126d2565b90815260408051918290036020908101832054838301909252601583527422bb32b73a1d10283630b1b29034b9903a30b5b2b760591b9083015260ff1615610e2e5760405162461bcd60e51b81526004016101c69190612632565b50610eae8a8a8a8581518110610e4657610e46612645565b6020026020010151602001518a8781518110610e6457610e64612645565b6020026020010151600001518b8881518110610e8257610e82612645565b6020026020010151602001518b8981518110610ea057610ea0612645565b6020026020010151336117c4565b610eb9600184612671565b925080610ec58161268a565b915050610d48565b5080610ed88161268a565b915050610d3c565b505050505050505050565b600083815260026020908152604091829020548251808401909352601b83526000805160206128ea833981519152918301919091528491906001600160a01b0316610f495760405162461bcd60e51b81526004016101c69190612632565b506000838152600a6020908152604091829020548251808401909352601e835260008051602061293683398151915291830191909152849190610f9f5760405162461bcd60e51b81526004016101c69190612632565b508484816000600a01600083815260200190815260200160002060070154146040518060600160405280602981526020016128916029913990610ff55760405162461bcd60e51b81526004016101c69190612632565b508585806000600d01600084815260200190815260200160002054146040518060600160405280602c815260200161290a602c9139906110485760405162461bcd60e51b81526004016101c69190612632565b506110558960003361168a565b806110745750611074896000805160206129a78339815191523361168a565b806110a557506110a5897fb5a7f51d0593e853ad0aa6b718ee0bdd10c4966eb62d243b69d538e5823d04013361168a565b6040518060600160405280603881526020016129ed60389139906110dc5760405162461bcd60e51b81526004016101c69190612632565b50604080518a8152602081018a90529081018890523360608201527f2dcc6bceb950de206af8457a1b2083cbb47b6b70918a66be78ab4d128fee79f0906080016106e8565b600083815260026020908152604091829020548251808401909352601b83526000805160206128ea833981519152918301919091528491906001600160a01b031661117f5760405162461bcd60e51b81526004016101c69190612632565b506000838152600a6020908152604091829020548251808401909352601e8352600080516020612936833981519152918301919091528491906111d55760405162461bcd60e51b81526004016101c69190612632565b508484816000600a0160008381526020019081526020016000206007015414604051806060016040528060298152602001612891602991399061122b5760405162461bcd60e51b81526004016101c69190612632565b508585806000600d01600084815260200190815260200160002054146040518060600160405280602c815260200161290a602c91399061127e5760405162461bcd60e51b81526004016101c69190612632565b50505050505050505050565b600082815260026020908152604091829020548251808401909352601b83526000805160206128ea833981519152918301919091528391906001600160a01b03166112e85760405162461bcd60e51b81526004016101c69190612632565b506112f58360003361168a565b806113145750611314836000805160206129a78339815191523361168a565b6040518060600160405280602a8152602001612867602a91399061134b5760405162461bcd60e51b81526004016101c69190612632565b50505050565b82518451146040518060400160405280601f8152602001600080516020612987833981519152815250906113985760405162461bcd60e51b81526004016101c69190612632565b5080518251146040518060400160405280601f8152602001600080516020612987833981519152815250906113e05760405162461bcd60e51b81526004016101c69190612632565b5060008060005b85518110156114a85761143487828151811061140557611405612645565b60200260200101516000015188838151811061142357611423612645565b602002602001015160200151611958565b6000915061146b87828151811061144d5761144d612645565b602002602001015160200151878381518110610cb157610cb1612645565b85818151811061147d5761147d612645565b602002602001015160200151836114949190612671565b9250806114a08161268a565b9150506113e7565b5034821460405180606001604052806023815260200161284460239139906114e35760405162461bcd60e51b81526004016101c69190612632565b506000805b87518110156116805760005b87828151811061150657611506612645565b60200260200101516000015181101561166d576000600c0160008a848151811061153257611532612645565b602002602001015160000151815260200190815260200160002061156188858151811061053c5761053c612645565b61157689868151811061056257610562612645565b6040516020016115879291906126a3565b60408051601f19818403018152908290526115a1916126d2565b90815260408051918290036020908101832054838301909252601583527422bb32b73a1d10283630b1b29034b9903a30b5b2b760591b9083015260ff16156115fc5760405162461bcd60e51b81526004016101c69190612632565b5061164e89838151811061161257611612612645565b6020026020010151600001518a848151811061163057611630612645565b6020026020010151602001518a8581518110610e4657610e46612645565b611659600184612671565b9250806116658161268a565b9150506114f4565b50806116788161268a565b9150506114e8565b5050505050505050565b60009283526010602090815260408085209385529281528284206001600160a01b039290921684525290205460ff1690565b6060816000036116e35750506040805180820190915260018152600360fc1b602082015290565b8160005b811561170d57806116f78161268a565b91506117069050600a83612770565b91506116e7565b6000816001600160401b0381111561172757611727611f75565b6040519080825280601f01601f191660200182016040528015611751576020820181803683370190505b5090505b84156117bc57611766600183612784565b9150611773600a86612797565b61177e906030612671565b60f81b81838151811061179357611793612645565b60200101906001600160f81b031916908160001a9053506117b5600a86612770565b9450611755565b949350505050565b600f546040516328a2e01f60e01b81526000916001600160a01b0316906328a2e01f906117fd90899089908990899089906004016127ab565b6020604051808303816000875af115801561181c573d6000803e3d6000fd5b505050506040513d601f19601f8201168201806040525081019061184091906127ea565b6000888152600a602090815260408220600201805460018101825590835290822001829055909150611871866116bc565b61187a866116bc565b60405160200161188b9291906126a3565b60408051601f1981840301815282825260008c8152600c60205291822090935090916118b89084906126d2565b9081526040805160209281900383019020805460ff19169315159390931790925560008a8152600d82528281208590558b8152600e82528281206001600160a01b0387168252909152908120805460019290611915908490612671565b9091555050604080518381526001600160a01b03851660208201527f6606e4c8a88792ed4fd5159f9be235ca78e87fc1cbdc6158ea92d3ed3be9bf7291016106e8565b6000828152600260205260409020546001600160a01b031615156040518060400160405280601b81526020016000805160206128ea833981519152815250906119b45760405162461bcd60e51b81526004016101c69190612632565b506000818152600a6020908152604091829020548251808401909352601e835260008051602061293683398151915291830191909152611a075760405162461bcd60e51b81526004016101c69190612632565b50816000600a01600083815260200190815260200160002060070154146040518060600160405280602981526020016128916029913990611a5b5760405162461bcd60e51b81526004016101c69190612632565b5060008281526009602090815260409182902060020154825160608101909352603180845260ff909116151560011492916129569083013990611ab15760405162461bcd60e51b81526004016101c69190612632565b506000818152600a6020908152604091829020600c0154825160608101909352603080845260ff909116151560011492916128ba9083013990611b075760405162461bcd60e51b81526004016101c69190612632565b5042611b1283611e61565b6001600160401b031610158015611b3a575042611b2e83611ee7565b6001600160401b031611155b604051806060016040528060268152602001612a486026913990611b715760405162461bcd60e51b81526004016101c69190612632565b506000818152600a60205260409020600501544211801590611ba457506000818152600a60205260409020600601544210155b60405180606001604052806029815260200161281b6029913990611bdb5760405162461bcd60e51b81526004016101c69190612632565b50600082815260096020908152604080832060010154600e83528184203385528352928190205481516060810190925260268083529310159290916129c79083013990611c3b5760405162461bcd60e51b81526004016101c69190612632565b505050565b8151611c4c9082612671565b6000848152600a60205260409020600481015460029091015491925090611c74908390612671565b1115604051806060016040528060238152602001612a256023913990611cad5760405162461bcd60e51b81526004016101c69190612632565b506000838152600a602052604090206008015415611df95760005b6000848152600a602052604090206008015481101561134b5782516000858152600a60205260409020600801805483908110611d0657611d06612645565b906000526020600020015403611de757826020015160646000600a0160008781526020019081526020016000206009018381548110611d4757611d47612645565b9060005260206000200154611d5c9190612770565b6000868152600a6020526040902060030154611d789190612803565b6000868152600a6020526040902060030154611d949190612784565b14604051806040016040528060198152602001784576656e743a2057726f6e67207469636b657420707269636560381b81525090611de55760405162461bcd60e51b81526004016101c69190612632565b505b80611df18161268a565b915050611cc8565b6020808301516000858152600a835260409081902060030154815180830190925260198252784576656e743a2057726f6e67207469636b657420707269636560381b93820193909352911461134b5760405162461bcd60e51b81526004016101c69190612632565b60008181526002602052604081205481906001600160a01b0316611ec25760405162461bcd60e51b8152602060048201526018602482015277115490cd4c0c0dce88125b9d985b1a59081d1bdad95b925960421b60448201526064016101c6565b600092835260090160205250604090206002015461010090046001600160401b031690565b60008181526002602052604081205481906001600160a01b0316611f485760405162461bcd60e51b8152602060048201526018602482015277115490cd4c0c0dce88125b9d985b1a59081d1bdad95b925960421b60448201526064016101c6565b6000928352600901602052506040902060020154690100000000000000000090046001600160401b031690565b634e487b7160e01b600052604160045260246000fd5b604080519081016001600160401b0381118282101715611fad57611fad611f75565b60405290565b604051601f8201601f191681016001600160401b0381118282101715611fdb57611fdb611f75565b604052919050565b60006001600160401b03821115611ffc57611ffc611f75565b5060051b60200190565b600061201961201484611fe3565b611fb3565b8381529050602080820190600685901b84018681111561203857600080fd5b845b8181101561209157604080828a0312156120545760008081fd5b80518181018181106001600160401b038211171561207457612074611f75565b90915281358152838201358482015284529282019260400161203a565b505050509392505050565b600082601f8301126120ad57600080fd5b6120bc83833560208501612006565b9392505050565b6000601f83818401126120d557600080fd5b823560206120e561201483611fe3565b82815260059290921b8501810191818101908784111561210457600080fd5b8287015b8481101561219a5780356001600160401b03808211156121285760008081fd5b818a0191508a603f83011261213d5760008081fd5b8582013560408282111561215357612153611f75565b612164828b01601f19168901611fb3565b92508183528c8183860101111561217b5760008081fd5b8181850189850137506000908201870152845250918301918301612108565b50979650505050505050565b600080600080608085870312156121bc57600080fd5b8435935060208501356001600160401b03808211156121da57600080fd5b818701915087601f8301126121ee57600080fd5b6121fd88833560208501612006565b9450604087013591508082111561221357600080fd5b61221f8883890161209c565b9350606087013591508082111561223557600080fd5b50612242878288016120c3565b91505092959194509250565b80356001600160a01b038116811461226557600080fd5b919050565b600082601f83011261227b57600080fd5b8135602061228b61201483611fe3565b82815260059290921b840181019181810190868411156122aa57600080fd5b8286015b848110156122cc576122bf8161224e565b83529183019183016122ae565b509695505050505050565b6000806000606084860312156122ec57600080fd5b833592506020808501356001600160401b038082111561230b57600080fd5b818701915087601f83011261231f57600080fd5b813561232d61201482611fe3565b81815260059190911b8301840190848101908a83111561234c57600080fd5b938501935b8285101561236a57843582529385019390850190612351565b96505050604087013592508083111561238257600080fd5b50506123908682870161226a565b9150509250925092565b600080600080608085870312156123b057600080fd5b8435935060208501359250604085013591506123ce6060860161224e565b905092959194509250565b600080600080600060a086880312156123f157600080fd5b853594506020860135935060408601356001600160401b038082111561241657600080fd5b61242289838a0161209c565b9450606088013591508082111561243857600080fd5b61244489838a0161209c565b9350608088013591508082111561245a57600080fd5b50612467888289016120c3565b9150509295509295909350565b60008060006060848603121561248957600080fd5b505081359360208301359350604090920135919050565b60008060408084860312156124b457600080fd5b833592506020808501356001600160401b038111156124d257600080fd5b8501601f810187136124e357600080fd5b80356124f161201482611fe3565b81815260069190911b8201830190838101908983111561251057600080fd5b928401925b828410156125605785848b03121561252d5760008081fd5b612535611f8b565b843581528585013560ff8116811461254d5760008081fd5b8187015282529285019290840190612515565b8096505050505050509250929050565b6000806000806080858703121561258657600080fd5b84356001600160401b038082111561259d57600080fd5b818701915087601f8301126125b157600080fd5b6125c088833560208501612006565b955060208701359150808211156125d657600080fd5b6121fd8883890161209c565b60005b838110156125fd5781810151838201526020016125e5565b50506000910152565b6000815180845261261e8160208601602086016125e2565b601f01601f19169290920160200192915050565b6020815260006120bc6020830184612606565b634e487b7160e01b600052603260045260246000fd5b634e487b7160e01b600052601160045260246000fd5b808201808211156126845761268461265b565b92915050565b60006001820161269c5761269c61265b565b5060010190565b600083516126b58184602088016125e2565b8351908301906126c98183602088016125e2565b01949350505050565b600082516126e48184602087016125e2565b9190910192915050565b6000606082018583526020606081850152818651808452608086019150828801935060005b818110156127385784516001600160a01b031683529383019391830191600101612713565b50506001600160a01b0395909516604094909401939093525091949350505050565b634e487b7160e01b600052601260045260246000fd5b60008261277f5761277f61275a565b500490565b818103818111156126845761268461265b565b6000826127a6576127a661275a565b500690565b85815284602082015283604082015260a0606082015260006127d060a0830185612606565b905060018060a01b03831660808301529695505050505050565b6000602082840312156127fc57600080fd5b5051919050565b80820281158282048414176126845761268461265b56fe4576656e743a2043616e277420627579207469636b65747320666f722063617465676f7279207965744576656e743a204d73672076616c7565206e6f7420657120746f74616c2070726963654576656e743a2043616c6c6572206973206e6f7420616e2061646d696e206f72206d6f64657261746f724576656e743a20546869732063617465676f727920697320666f7220616e6f74686572206576656e744576656e743a205469636b65747320666f7220746869732063617465676f727920617265206e6f742062757961626c654576656e743a204576656e7420646f6573206e6f7420657869737400000000004576656e743a205469636b657420646f65736e277420657869737420696e20746869732063617465676f72794576656e743a2043617465676f727920646f6573206e6f7420657869737400004576656e743a205469636b65747320666f7220616c6c2063617465676f7269657320617265206e6f742062757961626c654576656e743a20506172616d6574657273206c656e677468206e6f742065710071f3d55856e4058ed06ee057d79ada615f65cdf5f9ee88181b914225088f834f4576656e743a204d6178207469636b65747320666f72206163636f756e7420726561636865644576656e743a2043616c6c6572206973206e6f7420616e2061646d696e2c206d6f64657261746f72206f7220726563657074696f6e6973744576656e743a204d6178207469636b65747320636f756e7420697320726561636865644576656e743a2043616e277420627579207469636b65747320666f72206576656e7420796574a2646970667358221220d142514a3005d4951b8ba35d8a63960d60074112e7edeb3bf25070a1535d8b0d64736f6c63430008110033",
  "linkReferences": {},
  "deployedLinkReferences": {}
}