{
  "_format": "hh-sol-artifact-1",
  "contractName": "EventFacet",
  "sourceName": "contracts/EventDiamond/facets/EventFacet.sol",
  "abi": [
    {
      "inputs": [
        {
          "internalType": "string",
          "name": "_name",
          "type": "string"
        },
        {
          "internalType": "string",
          "name": "_symbol",
          "type": "string"
        },
        {
          "internalType": "address",
          "name": "_ticketContract",
          "type": "address"
        }
      ],
      "stateMutability": "nonpayable",
      "type": "constructor"
    },
    {
      "anonymous": false,
      "inputs": [
        {
          "indexed": false,
          "internalType": "uint256",
          "name": "eventId",
          "type": "uint256"
        }
      ],
      "name": "AllCategorySellStarted",
      "type": "event"
    },
    {
      "anonymous": false,
      "inputs": [
        {
          "indexed": false,
          "internalType": "uint256",
          "name": "eventId",
          "type": "uint256"
        }
      ],
      "name": "AllCategorySellStopped",
      "type": "event"
    },
    {
      "anonymous": false,
      "inputs": [
        {
          "indexed": true,
          "internalType": "address",
          "name": "owner",
          "type": "address"
        },
        {
          "indexed": true,
          "internalType": "address",
          "name": "approved",
          "type": "address"
        },
        {
          "indexed": true,
          "internalType": "uint256",
          "name": "tokenId",
          "type": "uint256"
        }
      ],
      "name": "Approval",
      "type": "event"
    },
    {
      "anonymous": false,
      "inputs": [
        {
          "indexed": true,
          "internalType": "address",
          "name": "owner",
          "type": "address"
        },
        {
          "indexed": true,
          "internalType": "address",
          "name": "operator",
          "type": "address"
        },
        {
          "indexed": false,
          "internalType": "bool",
          "name": "approved",
          "type": "bool"
        }
      ],
      "name": "ApprovalForAll",
      "type": "event"
    },
    {
      "anonymous": false,
      "inputs": [
        {
          "indexed": false,
          "internalType": "uint256",
          "name": "_fromTokenId",
          "type": "uint256"
        },
        {
          "indexed": false,
          "internalType": "uint256",
          "name": "_toTokenId",
          "type": "uint256"
        }
      ],
      "name": "BatchMetadataUpdate",
      "type": "event"
    },
    {
      "anonymous": false,
      "inputs": [
        {
          "indexed": false,
          "internalType": "uint256",
          "name": "eventId",
          "type": "uint256"
        },
        {
          "indexed": false,
          "internalType": "uint256",
          "name": "categoryId",
          "type": "uint256"
        },
        {
          "indexed": false,
          "internalType": "string",
          "name": "categoryCid",
          "type": "string"
        }
      ],
      "name": "CategoryCreated",
      "type": "event"
    },
    {
      "anonymous": false,
      "inputs": [
        {
          "indexed": false,
          "internalType": "uint256",
          "name": "eventId",
          "type": "uint256"
        },
        {
          "indexed": false,
          "internalType": "uint256",
          "name": "categoryId",
          "type": "uint256"
        }
      ],
      "name": "CategoryDeleted",
      "type": "event"
    },
    {
      "anonymous": false,
      "inputs": [
        {
          "indexed": false,
          "internalType": "uint256",
          "name": "eventId",
          "type": "uint256"
        },
        {
          "indexed": false,
          "internalType": "uint256",
          "name": "categoryId",
          "type": "uint256"
        },
        {
          "indexed": false,
          "internalType": "address",
          "name": "staffMember",
          "type": "address"
        }
      ],
      "name": "CategorySaleDatesUpdated",
      "type": "event"
    },
    {
      "anonymous": false,
      "inputs": [
        {
          "indexed": false,
          "internalType": "uint256",
          "name": "eventId",
          "type": "uint256"
        },
        {
          "indexed": false,
          "internalType": "uint256",
          "name": "categoryId",
          "type": "uint256"
        }
      ],
      "name": "CategorySellStarted",
      "type": "event"
    },
    {
      "anonymous": false,
      "inputs": [
        {
          "indexed": false,
          "internalType": "uint256",
          "name": "eventId",
          "type": "uint256"
        },
        {
          "indexed": false,
          "internalType": "uint256",
          "name": "categoryId",
          "type": "uint256"
        }
      ],
      "name": "CategorySellStopped",
      "type": "event"
    },
    {
      "anonymous": false,
      "inputs": [
        {
          "indexed": false,
          "internalType": "uint256",
          "name": "eventId",
          "type": "uint256"
        },
        {
          "indexed": false,
          "internalType": "uint256",
          "name": "categoryId",
          "type": "uint256"
        },
        {
          "indexed": false,
          "internalType": "uint256",
          "name": "ticketsCount",
          "type": "uint256"
        }
      ],
      "name": "CategoryTicketsAdded",
      "type": "event"
    },
    {
      "anonymous": false,
      "inputs": [
        {
          "indexed": false,
          "internalType": "uint256",
          "name": "eventId",
          "type": "uint256"
        },
        {
          "indexed": false,
          "internalType": "uint256",
          "name": "categoryId",
          "type": "uint256"
        },
        {
          "indexed": false,
          "internalType": "uint256",
          "name": "ticketsCount",
          "type": "uint256"
        }
      ],
      "name": "CategoryTicketsRemoved",
      "type": "event"
    },
    {
      "anonymous": false,
      "inputs": [
        {
          "indexed": false,
          "internalType": "uint256",
          "name": "eventId",
          "type": "uint256"
        },
        {
          "indexed": false,
          "internalType": "uint256",
          "name": "categoryId",
          "type": "uint256"
        }
      ],
      "name": "CategoryUpdated",
      "type": "event"
    },
    {
      "anonymous": false,
      "inputs": [
        {
          "indexed": true,
          "internalType": "uint256",
          "name": "fromTokenId",
          "type": "uint256"
        },
        {
          "indexed": false,
          "internalType": "uint256",
          "name": "toTokenId",
          "type": "uint256"
        },
        {
          "indexed": true,
          "internalType": "address",
          "name": "fromAddress",
          "type": "address"
        },
        {
          "indexed": true,
          "internalType": "address",
          "name": "toAddress",
          "type": "address"
        }
      ],
      "name": "ConsecutiveTransfer",
      "type": "event"
    },
    {
      "anonymous": false,
      "inputs": [
        {
          "indexed": false,
          "internalType": "uint256",
          "name": "eventId",
          "type": "uint256"
        },
        {
          "indexed": false,
          "internalType": "address",
          "name": "account",
          "type": "address"
        },
        {
          "indexed": false,
          "internalType": "address",
          "name": "setter",
          "type": "address"
        }
      ],
      "name": "EventCashierSet",
      "type": "event"
    },
    {
      "anonymous": false,
      "inputs": [
        {
          "indexed": false,
          "internalType": "uint256",
          "name": "eventId",
          "type": "uint256"
        },
        {
          "indexed": false,
          "internalType": "string",
          "name": "metadataUri",
          "type": "string"
        }
      ],
      "name": "EventCreated",
      "type": "event"
    },
    {
      "anonymous": false,
      "inputs": [
        {
          "indexed": false,
          "internalType": "uint256",
          "name": "_tokenId",
          "type": "uint256"
        }
      ],
      "name": "MetadataUpdate",
      "type": "event"
    },
    {
      "anonymous": false,
      "inputs": [
        {
          "indexed": false,
          "internalType": "uint256",
          "name": "eventId",
          "type": "uint256"
        },
        {
          "indexed": true,
          "internalType": "bytes32",
          "name": "role",
          "type": "bytes32"
        },
        {
          "indexed": true,
          "internalType": "bytes32",
          "name": "previousAdminRole",
          "type": "bytes32"
        },
        {
          "indexed": true,
          "internalType": "bytes32",
          "name": "newAdminRole",
          "type": "bytes32"
        }
      ],
      "name": "RoleAdminChanged",
      "type": "event"
    },
    {
      "anonymous": false,
      "inputs": [
        {
          "indexed": false,
          "internalType": "uint256",
          "name": "eventId",
          "type": "uint256"
        },
        {
          "indexed": true,
          "internalType": "bytes32",
          "name": "role",
          "type": "bytes32"
        },
        {
          "indexed": true,
          "internalType": "address",
          "name": "account",
          "type": "address"
        },
        {
          "indexed": true,
          "internalType": "address",
          "name": "sender",
          "type": "address"
        }
      ],
      "name": "RoleGranted",
      "type": "event"
    },
    {
      "anonymous": false,
      "inputs": [
        {
          "indexed": false,
          "internalType": "uint256",
          "name": "eventId",
          "type": "uint256"
        },
        {
          "indexed": true,
          "internalType": "bytes32",
          "name": "role",
          "type": "bytes32"
        },
        {
          "indexed": true,
          "internalType": "address",
          "name": "account",
          "type": "address"
        },
        {
          "indexed": true,
          "internalType": "address",
          "name": "sender",
          "type": "address"
        }
      ],
      "name": "RoleRevoked",
      "type": "event"
    },
    {
      "anonymous": false,
      "inputs": [
        {
          "indexed": false,
          "internalType": "uint256",
          "name": "eventId",
          "type": "uint256"
        },
        {
          "indexed": false,
          "internalType": "uint256",
          "name": "categoryId",
          "type": "uint256"
        },
        {
          "indexed": false,
          "internalType": "uint256",
          "name": "ticketId",
          "type": "uint256"
        },
        {
          "indexed": false,
          "internalType": "address",
          "name": "staffMember",
          "type": "address"
        }
      ],
      "name": "TicketClipped",
      "type": "event"
    },
    {
      "anonymous": false,
      "inputs": [
        {
          "indexed": false,
          "internalType": "uint256",
          "name": "eventId",
          "type": "uint256"
        },
        {
          "indexed": false,
          "internalType": "uint256",
          "name": "categoryId",
          "type": "uint256"
        },
        {
          "indexed": false,
          "internalType": "uint256",
          "name": "ticketCount",
          "type": "uint256"
        },
        {
          "indexed": false,
          "internalType": "address[]",
          "name": "accounts",
          "type": "address[]"
        },
        {
          "indexed": false,
          "internalType": "address",
          "name": "staffMember",
          "type": "address"
        }
      ],
      "name": "TicketsBooked",
      "type": "event"
    },
    {
      "anonymous": false,
      "inputs": [
        {
          "indexed": true,
          "internalType": "address",
          "name": "from",
          "type": "address"
        },
        {
          "indexed": true,
          "internalType": "address",
          "name": "to",
          "type": "address"
        },
        {
          "indexed": true,
          "internalType": "uint256",
          "name": "tokenId",
          "type": "uint256"
        }
      ],
      "name": "Transfer",
      "type": "event"
    },
    {
      "inputs": [],
      "name": "CASHIER_ROLE",
      "outputs": [
        {
          "internalType": "bytes32",
          "name": "",
          "type": "bytes32"
        }
      ],
      "stateMutability": "view",
      "type": "function"
    },
    {
      "inputs": [],
      "name": "DEFAULT_ADMIN_ROLE",
      "outputs": [
        {
          "internalType": "bytes32",
          "name": "",
          "type": "bytes32"
        }
      ],
      "stateMutability": "view",
      "type": "function"
    },
    {
      "inputs": [],
      "name": "MODERATOR_ROLE",
      "outputs": [
        {
          "internalType": "bytes32",
          "name": "",
          "type": "bytes32"
        }
      ],
      "stateMutability": "view",
      "type": "function"
    },
    {
      "inputs": [],
      "name": "RECEPTIONIST_ROLE",
      "outputs": [
        {
          "internalType": "bytes32",
          "name": "",
          "type": "bytes32"
        }
      ],
      "stateMutability": "view",
      "type": "function"
    },
    {
      "inputs": [],
      "name": "VALIDATOR_ROLE",
      "outputs": [
        {
          "internalType": "bytes32",
          "name": "",
          "type": "bytes32"
        }
      ],
      "stateMutability": "view",
      "type": "function"
    },
    {
      "inputs": [
        {
          "internalType": "uint256",
          "name": "_eventId",
          "type": "uint256"
        },
        {
          "internalType": "uint256",
          "name": "_categoryId",
          "type": "uint256"
        },
        {
          "internalType": "uint256",
          "name": "_ticketsCount",
          "type": "uint256"
        }
      ],
      "name": "addCategoryTicketsCount",
      "outputs": [],
      "stateMutability": "nonpayable",
      "type": "function"
    },
    {
      "inputs": [
        {
          "internalType": "uint256",
          "name": "_eventId",
          "type": "uint256"
        },
        {
          "internalType": "bytes32",
          "name": "_role",
          "type": "bytes32"
        },
        {
          "internalType": "address",
          "name": "_account",
          "type": "address"
        }
      ],
      "name": "addTeamMember",
      "outputs": [],
      "stateMutability": "nonpayable",
      "type": "function"
    },
    {
      "inputs": [
        {
          "internalType": "address",
          "name": "to",
          "type": "address"
        },
        {
          "internalType": "uint256",
          "name": "tokenId",
          "type": "uint256"
        }
      ],
      "name": "approve",
      "outputs": [],
      "stateMutability": "nonpayable",
      "type": "function"
    },
    {
      "inputs": [
        {
          "internalType": "address",
          "name": "owner",
          "type": "address"
        }
      ],
      "name": "balanceOf",
      "outputs": [
        {
          "internalType": "uint256",
          "name": "",
          "type": "uint256"
        }
      ],
      "stateMutability": "view",
      "type": "function"
    },
    {
      "inputs": [
        {
          "internalType": "uint256",
          "name": "_eventId",
          "type": "uint256"
        },
        {
          "internalType": "uint256",
          "name": "_categoryId",
          "type": "uint256"
        },
        {
          "internalType": "uint256",
          "name": "_ticketCount",
          "type": "uint256"
        },
        {
          "internalType": "address[]",
          "name": "_accounts",
          "type": "address[]"
        }
      ],
      "name": "bookTickets",
      "outputs": [],
      "stateMutability": "nonpayable",
      "type": "function"
    },
    {
      "inputs": [
        {
          "internalType": "uint256",
          "name": "_eventId",
          "type": "uint256"
        },
        {
          "internalType": "uint256",
          "name": "_categoryId",
          "type": "uint256"
        },
        {
          "internalType": "string",
          "name": "_ticketMetadataURI",
          "type": "string"
        },
        {
          "internalType": "uint256",
          "name": "amount",
          "type": "uint256"
        }
      ],
      "name": "buyTickets",
      "outputs": [],
      "stateMutability": "nonpayable",
      "type": "function"
    },
    {
      "inputs": [
        {
          "internalType": "uint256",
          "name": "_eventId",
          "type": "uint256"
        },
        {
          "internalType": "uint256",
          "name": "_categoryId",
          "type": "uint256"
        },
        {
          "internalType": "uint256",
          "name": "_ticketId",
          "type": "uint256"
        }
      ],
      "name": "clipTicket",
      "outputs": [],
      "stateMutability": "nonpayable",
      "type": "function"
    },
    {
      "inputs": [
        {
          "internalType": "uint256",
          "name": "_maxTicketsPerClient",
          "type": "uint256"
        },
        {
          "internalType": "uint256",
          "name": "_startDate",
          "type": "uint256"
        },
        {
          "internalType": "uint256",
          "name": "_endDate",
          "type": "uint256"
        },
        {
          "internalType": "string",
          "name": "_metadataURI",
          "type": "string"
        }
      ],
      "name": "createEvent",
      "outputs": [],
      "stateMutability": "nonpayable",
      "type": "function"
    },
    {
      "inputs": [
        {
          "internalType": "uint256",
          "name": "_eventId",
          "type": "uint256"
        },
        {
          "internalType": "string",
          "name": "_categoryCid",
          "type": "string"
        },
        {
          "internalType": "uint256",
          "name": "_saleStartDate",
          "type": "uint256"
        },
        {
          "internalType": "uint256",
          "name": "_saleEndDate",
          "type": "uint256"
        },
        {
          "internalType": "uint256",
          "name": "_ticketsCount",
          "type": "uint256"
        }
      ],
      "name": "createTicketCategory",
      "outputs": [],
      "stateMutability": "nonpayable",
      "type": "function"
    },
    {
      "inputs": [],
      "name": "fetchAllEventIds",
      "outputs": [
        {
          "internalType": "uint256[]",
          "name": "",
          "type": "uint256[]"
        }
      ],
      "stateMutability": "view",
      "type": "function"
    },
    {
      "inputs": [],
      "name": "fetchAllEvents",
      "outputs": [
        {
          "components": [
            {
              "internalType": "address",
              "name": "organizer",
              "type": "address"
            },
            {
              "internalType": "uint256",
              "name": "maxTicketsPerClient",
              "type": "uint256"
            },
            {
              "internalType": "uint256",
              "name": "startDate",
              "type": "uint256"
            },
            {
              "internalType": "uint256",
              "name": "endDate",
              "type": "uint256"
            },
            {
              "internalType": "bool",
              "name": "areAllCategoryTicketsBuyable",
              "type": "bool"
            }
          ],
          "internalType": "struct IEvent.Event[]",
          "name": "",
          "type": "tuple[]"
        }
      ],
      "stateMutability": "view",
      "type": "function"
    },
    {
      "inputs": [
        {
          "internalType": "uint256",
          "name": "_eventId",
          "type": "uint256"
        }
      ],
      "name": "fetchCategoriesByEventId",
      "outputs": [
        {
          "components": [
            {
              "internalType": "uint256",
              "name": "id",
              "type": "uint256"
            },
            {
              "internalType": "string",
              "name": "cid",
              "type": "string"
            },
            {
              "internalType": "uint256[]",
              "name": "ticketIds",
              "type": "uint256[]"
            },
            {
              "internalType": "uint256",
              "name": "ticketsCount",
              "type": "uint256"
            },
            {
              "internalType": "uint256",
              "name": "saleStartDate",
              "type": "uint256"
            },
            {
              "internalType": "uint256",
              "name": "saleEndDate",
              "type": "uint256"
            },
            {
              "internalType": "uint256",
              "name": "eventId",
              "type": "uint256"
            },
            {
              "internalType": "bool",
              "name": "areTicketsBuyable",
              "type": "bool"
            }
          ],
          "internalType": "struct IEvent.Category[]",
          "name": "",
          "type": "tuple[]"
        }
      ],
      "stateMutability": "view",
      "type": "function"
    },
    {
      "inputs": [],
      "name": "fetchOwnedEvents",
      "outputs": [
        {
          "internalType": "uint256[]",
          "name": "",
          "type": "uint256[]"
        }
      ],
      "stateMutability": "view",
      "type": "function"
    },
    {
      "inputs": [
        {
          "internalType": "uint256",
          "name": "tokenId",
          "type": "uint256"
        }
      ],
      "name": "getApproved",
      "outputs": [
        {
          "internalType": "address",
          "name": "",
          "type": "address"
        }
      ],
      "stateMutability": "view",
      "type": "function"
    },
    {
      "inputs": [
        {
          "internalType": "uint256",
          "name": "eventId",
          "type": "uint256"
        }
      ],
      "name": "getEventMembers",
      "outputs": [
        {
          "components": [
            {
              "internalType": "address",
              "name": "account",
              "type": "address"
            },
            {
              "internalType": "bytes32",
              "name": "role",
              "type": "bytes32"
            }
          ],
          "internalType": "struct RoleControl.MemberData[]",
          "name": "",
          "type": "tuple[]"
        }
      ],
      "stateMutability": "view",
      "type": "function"
    },
    {
      "inputs": [
        {
          "internalType": "uint256",
          "name": "eventId",
          "type": "uint256"
        },
        {
          "internalType": "bytes32",
          "name": "role",
          "type": "bytes32"
        }
      ],
      "name": "getRoleAdmin",
      "outputs": [
        {
          "internalType": "bytes32",
          "name": "",
          "type": "bytes32"
        }
      ],
      "stateMutability": "view",
      "type": "function"
    },
    {
      "inputs": [
        {
          "internalType": "uint256",
          "name": "eventId",
          "type": "uint256"
        },
        {
          "internalType": "bytes32",
          "name": "role",
          "type": "bytes32"
        },
        {
          "internalType": "address",
          "name": "account",
          "type": "address"
        }
      ],
      "name": "grantRole",
      "outputs": [],
      "stateMutability": "nonpayable",
      "type": "function"
    },
    {
      "inputs": [
        {
          "internalType": "uint256",
          "name": "eventId",
          "type": "uint256"
        },
        {
          "internalType": "bytes32",
          "name": "role",
          "type": "bytes32"
        },
        {
          "internalType": "address",
          "name": "account",
          "type": "address"
        }
      ],
      "name": "hasRole",
      "outputs": [
        {
          "internalType": "bool",
          "name": "",
          "type": "bool"
        }
      ],
      "stateMutability": "view",
      "type": "function"
    },
    {
      "inputs": [
        {
          "internalType": "address",
          "name": "owner",
          "type": "address"
        },
        {
          "internalType": "address",
          "name": "operator",
          "type": "address"
        }
      ],
      "name": "isApprovedForAll",
      "outputs": [
        {
          "internalType": "bool",
          "name": "",
          "type": "bool"
        }
      ],
      "stateMutability": "view",
      "type": "function"
    },
    {
      "inputs": [],
      "name": "name",
      "outputs": [
        {
          "internalType": "string",
          "name": "",
          "type": "string"
        }
      ],
      "stateMutability": "view",
      "type": "function"
    },
    {
      "inputs": [
        {
          "internalType": "uint256",
          "name": "tokenId",
          "type": "uint256"
        }
      ],
      "name": "ownerOf",
      "outputs": [
        {
          "internalType": "address",
          "name": "",
          "type": "address"
        }
      ],
      "stateMutability": "view",
      "type": "function"
    },
    {
      "inputs": [
        {
          "internalType": "uint256",
          "name": "_eventId",
          "type": "uint256"
        },
        {
          "internalType": "uint256",
          "name": "_categoryId",
          "type": "uint256"
        }
      ],
      "name": "removeCategory",
      "outputs": [],
      "stateMutability": "nonpayable",
      "type": "function"
    },
    {
      "inputs": [
        {
          "internalType": "uint256",
          "name": "_eventId",
          "type": "uint256"
        },
        {
          "internalType": "uint256",
          "name": "_categoryId",
          "type": "uint256"
        },
        {
          "internalType": "uint256",
          "name": "_ticketsCount",
          "type": "uint256"
        }
      ],
      "name": "removeCategoryTicketsCount",
      "outputs": [],
      "stateMutability": "nonpayable",
      "type": "function"
    },
    {
      "inputs": [
        {
          "internalType": "uint256",
          "name": "_eventId",
          "type": "uint256"
        }
      ],
      "name": "removeEvent",
      "outputs": [],
      "stateMutability": "nonpayable",
      "type": "function"
    },
    {
      "inputs": [
        {
          "internalType": "uint256",
          "name": "_eventId",
          "type": "uint256"
        },
        {
          "internalType": "bytes32",
          "name": "_role",
          "type": "bytes32"
        },
        {
          "internalType": "address",
          "name": "_account",
          "type": "address"
        }
      ],
      "name": "removeTeamMember",
      "outputs": [],
      "stateMutability": "nonpayable",
      "type": "function"
    },
    {
      "inputs": [
        {
          "internalType": "uint256",
          "name": "eventId",
          "type": "uint256"
        },
        {
          "internalType": "bytes32",
          "name": "role",
          "type": "bytes32"
        },
        {
          "internalType": "address",
          "name": "account",
          "type": "address"
        }
      ],
      "name": "renounceRole",
      "outputs": [],
      "stateMutability": "nonpayable",
      "type": "function"
    },
    {
      "inputs": [
        {
          "internalType": "uint256",
          "name": "eventId",
          "type": "uint256"
        },
        {
          "internalType": "bytes32",
          "name": "role",
          "type": "bytes32"
        },
        {
          "internalType": "address",
          "name": "account",
          "type": "address"
        }
      ],
      "name": "revokeRole",
      "outputs": [],
      "stateMutability": "nonpayable",
      "type": "function"
    },
    {
      "inputs": [
        {
          "internalType": "address",
          "name": "from",
          "type": "address"
        },
        {
          "internalType": "address",
          "name": "to",
          "type": "address"
        },
        {
          "internalType": "uint256",
          "name": "tokenId",
          "type": "uint256"
        }
      ],
      "name": "safeTransferFrom",
      "outputs": [],
      "stateMutability": "nonpayable",
      "type": "function"
    },
    {
      "inputs": [
        {
          "internalType": "address",
          "name": "from",
          "type": "address"
        },
        {
          "internalType": "address",
          "name": "to",
          "type": "address"
        },
        {
          "internalType": "uint256",
          "name": "tokenId",
          "type": "uint256"
        },
        {
          "internalType": "bytes",
          "name": "data",
          "type": "bytes"
        }
      ],
      "name": "safeTransferFrom",
      "outputs": [],
      "stateMutability": "nonpayable",
      "type": "function"
    },
    {
      "inputs": [
        {
          "internalType": "address",
          "name": "operator",
          "type": "address"
        },
        {
          "internalType": "bool",
          "name": "approved",
          "type": "bool"
        }
      ],
      "name": "setApprovalForAll",
      "outputs": [],
      "stateMutability": "nonpayable",
      "type": "function"
    },
    {
      "inputs": [
        {
          "internalType": "uint256",
          "name": "_eventId",
          "type": "uint256"
        },
        {
          "internalType": "address",
          "name": "_account",
          "type": "address"
        }
      ],
      "name": "setEventCashier",
      "outputs": [],
      "stateMutability": "nonpayable",
      "type": "function"
    },
    {
      "inputs": [
        {
          "internalType": "uint256",
          "name": "_eventId",
          "type": "uint256"
        }
      ],
      "name": "startAllCategorySelling",
      "outputs": [],
      "stateMutability": "nonpayable",
      "type": "function"
    },
    {
      "inputs": [
        {
          "internalType": "uint256",
          "name": "_eventId",
          "type": "uint256"
        },
        {
          "internalType": "uint256",
          "name": "_categoryId",
          "type": "uint256"
        }
      ],
      "name": "startCategorySelling",
      "outputs": [],
      "stateMutability": "nonpayable",
      "type": "function"
    },
    {
      "inputs": [
        {
          "internalType": "uint256",
          "name": "_eventId",
          "type": "uint256"
        }
      ],
      "name": "stopAllCategorySelling",
      "outputs": [],
      "stateMutability": "nonpayable",
      "type": "function"
    },
    {
      "inputs": [
        {
          "internalType": "uint256",
          "name": "_eventId",
          "type": "uint256"
        },
        {
          "internalType": "uint256",
          "name": "_categoryId",
          "type": "uint256"
        }
      ],
      "name": "stopCategorySelling",
      "outputs": [],
      "stateMutability": "nonpayable",
      "type": "function"
    },
    {
      "inputs": [
        {
          "internalType": "bytes4",
          "name": "interfaceId",
          "type": "bytes4"
        }
      ],
      "name": "supportsInterface",
      "outputs": [
        {
          "internalType": "bool",
          "name": "",
          "type": "bool"
        }
      ],
      "stateMutability": "view",
      "type": "function"
    },
    {
      "inputs": [],
      "name": "symbol",
      "outputs": [
        {
          "internalType": "string",
          "name": "",
          "type": "string"
        }
      ],
      "stateMutability": "view",
      "type": "function"
    },
    {
      "inputs": [
        {
          "internalType": "uint256",
          "name": "tokenId",
          "type": "uint256"
        }
      ],
      "name": "tokenURI",
      "outputs": [
        {
          "internalType": "string",
          "name": "",
          "type": "string"
        }
      ],
      "stateMutability": "view",
      "type": "function"
    },
    {
      "inputs": [
        {
          "internalType": "address",
          "name": "from",
          "type": "address"
        },
        {
          "internalType": "address",
          "name": "to",
          "type": "address"
        },
        {
          "internalType": "uint256",
          "name": "tokenId",
          "type": "uint256"
        }
      ],
      "name": "transferFrom",
      "outputs": [],
      "stateMutability": "nonpayable",
      "type": "function"
    },
    {
      "inputs": [
        {
          "internalType": "uint256",
          "name": "_eventId",
          "type": "uint256"
        },
        {
          "internalType": "uint256",
          "name": "_categoryId",
          "type": "uint256"
        },
        {
          "internalType": "uint256",
          "name": "_saleStartDate",
          "type": "uint256"
        },
        {
          "internalType": "uint256",
          "name": "_saleEndDate",
          "type": "uint256"
        }
      ],
      "name": "updateCategorySaleDates",
      "outputs": [],
      "stateMutability": "nonpayable",
      "type": "function"
    },
    {
      "inputs": [
        {
          "internalType": "uint256",
          "name": "_eventId",
          "type": "uint256"
        },
        {
          "internalType": "uint256",
          "name": "_categoryId",
          "type": "uint256"
        },
        {
          "internalType": "string",
          "name": "_categoryCid",
          "type": "string"
        }
      ],
      "name": "updateCategoryUri",
      "outputs": [],
      "stateMutability": "nonpayable",
      "type": "function"
    },
    {
      "inputs": [
        {
          "internalType": "uint256",
          "name": "_eventId",
          "type": "uint256"
        },
        {
          "internalType": "string",
          "name": "_newMetadataURI",
          "type": "string"
        }
      ],
      "name": "updateEventTokenUri",
      "outputs": [],
      "stateMutability": "nonpayable",
      "type": "function"
    }
  ],
  "bytecode": "0x60806040523480156200001157600080fd5b5060405162004dbf38038062004dbf833981016040819052620000349162000149565b8282600062000044838262000265565b50600162000053828262000265565b5050600160115550600d80546001600160a01b0319166001600160a01b039290921691909117905550620003319050565b634e487b7160e01b600052604160045260246000fd5b600082601f830112620000ac57600080fd5b81516001600160401b0380821115620000c957620000c962000084565b604051601f8301601f19908116603f01168101908282118183101715620000f457620000f462000084565b816040528381526020925086838588010111156200011157600080fd5b600091505b8382101562000135578582018301518183018401529082019062000116565b600093810190920192909252949350505050565b6000806000606084860312156200015f57600080fd5b83516001600160401b03808211156200017757600080fd5b62000185878388016200009a565b945060208601519150808211156200019c57600080fd5b50620001ab868287016200009a565b604086015190935090506001600160a01b0381168114620001cb57600080fd5b809150509250925092565b600181811c90821680620001eb57607f821691505b6020821081036200020c57634e487b7160e01b600052602260045260246000fd5b50919050565b601f8211156200026057600081815260208120601f850160051c810160208610156200023b5750805b601f850160051c820191505b818110156200025c5782815560010162000247565b5050505b505050565b81516001600160401b0381111562000281576200028162000084565b6200029981620002928454620001d6565b8462000212565b602080601f831160018114620002d15760008415620002b85750858301515b600019600386901b1c1916600185901b1785556200025c565b600085815260208120601f198616915b828110156200030257888601518255948401946001909101908401620002e1565b5085821015620003215787850151600019600388901b60f8161c191681555b5050505050600190811b01905550565b614a7e80620003416000396000f3fe608060405234801561001057600080fd5b50600436106102955760003560e01c806370a0823111610167578063b7fd9684116100ce578063e985e9c511610087578063e985e9c514610619578063f20dddf71461062c578063f354159b1461063f578063f99c229214610652578063fb42204d1461065a578063fc3291a61461066d57600080fd5b8063b7fd968414610591578063b88d4fde146105a6578063b926bd6e146105b9578063c49baebe146105cc578063c87b56dd146105f3578063d5533da01461060657600080fd5b8063a217fddf11610120578063a217fddf1461051b578063a22cb46514610523578063a3bdc7c714610536578063a4371bd714610556578063abae6af914610569578063b01555441461057e57600080fd5b806370a08231146104b2578063724bdedf146104c55780637283d742146104d8578063754d0e51146104eb578063797669c9146104fe57806395d89b411461051357600080fd5b806333a477bd1161020b5780634a120dd7116101c45780634a120dd71461042c578063558e39c41461043f57806356164e1e146104525780635ba16138146104655780636352211e1461048c5780636a4bc7de1461049f57600080fd5b806333a477bd146103aa578063362795f8146103bd5780633660ff83146103d0578063397d4dbc146103e55780633d378bb01461040657806342842e0e1461041957600080fd5b80630e1b943d1161025d5780630e1b943d1461032b578063119345aa1461034b5780631c6f92711461035e5780631cdf29c7146103715780632053d82c1461038457806323b872dd1461039757600080fd5b806301ffc9a71461029a57806306a5bcd2146102c357806306fdde03146102d8578063081812fc146102ed578063095ea7b314610318575b600080fd5b6102ae6102a8366004613be6565b50600090565b60405190151581526020015b60405180910390f35b6102d66102d1366004613c65565b610680565b005b6102e06107a1565b6040516102ba9190613d7e565b6103006102fb366004613d91565b610835565b6040516001600160a01b0390911681526020016102ba565b6102d6610326366004613daa565b61085c565b61033e610339366004613d91565b610971565b6040516102ba9190613dd4565b6102ae610359366004613e2c565b6109f9565b6102d661036c366004613e61565b610a2b565b6102d661037f366004613e93565b610b56565b6102d6610392366004613f36565b610c0e565b6102d66103a5366004613f7c565b610cb5565b6102d66103b8366004613d91565b610ce6565b6102d66103cb366004613fb8565b610daa565b6103d8611106565b6040516102ba919061404a565b6103f86103f33660046140b6565b6112b4565b6040519081526020016102ba565b6102d66104143660046140b6565b6112d8565b6102d6610427366004613f7c565b611607565b6102d661043a366004613e2c565b611622565b6102d661044d3660046140d8565b611649565b6102d6610460366004613d91565b61178d565b6103f87fb5a7f51d0593e853ad0aa6b718ee0bdd10c4966eb62d243b69d538e5823d040181565b61030061049a366004613d91565b611995565b6102d66104ad366004613e2c565b6119f5565b6103f86104c0366004614104565b611a85565b6102d66104d3366004613e2c565b611b0b565b6102d66104e63660046140b6565b611b84565b6102d66104f936600461411f565b611cba565b6103f8600080516020614a2983398151915281565b6102e0611dd9565b6103f8600081565b6102d6610531366004614178565b611deb565b610549610544366004613d91565b611dfa565b6040516102ba91906141ef565b6102d66105643660046142b5565b612086565b6105716121a7565b6040516102ba9190614304565b6102d661058c366004613e2c565b6122f2565b6103f8600080516020614a0983398151915281565b6102d66105b4366004614317565b612382565b6102d66105c7366004613d91565b6123ba565b6103f87f21702c8af46127c7fa207f89d0b0a8441bb32959a0ac7df790e9ab1a25c9892681565b6102e0610601366004613d91565b612475565b6102d66106143660046140d8565b6125b5565b6102ae610627366004614386565b6126e8565b6102d661063a3660046140b6565b612716565b6102d661064d3660046140d8565b612835565b610571612a70565b6102d6610668366004613e2c565b612b75565b6102d661067b3660046143b0565b612b95565b8361068a81612d49565b6106af5760405162461bcd60e51b81526004016106a690614407565b60405180910390fd5b6000848152600b60205260408120548591036106dd5760405162461bcd60e51b81526004016106a69061443e565b6000858152600b60205260409020600601548690869082146107115760405162461bcd60e51b81526004016106a690614475565b61071d886000336109f9565b8061073c575061073c88600080516020614a29833981519152336109f9565b6107585760405162461bcd60e51b81526004016106a6906144be565b7f5f183d9cf5454d6fc91379ef5dce8b6a4543ec2c03a1d6376579c9a6949b2cb3888888883360405161078f959493929190614508565b60405180910390a15050505050505050565b60606000800180546107b290614582565b80601f01602080910402602001604051908101604052809291908181526020018280546107de90614582565b801561082b5780601f106108005761010080835404028352916020019161082b565b820191906000526020600020905b81548152906001019060200180831161080e57829003601f168201915b5050505050905090565b600061084082612d66565b506000908152600460205260409020546001600160a01b031690565b600061086782611995565b9050806001600160a01b0316836001600160a01b0316036108d45760405162461bcd60e51b815260206004820152602160248201527f4552433732313a20617070726f76616c20746f2063757272656e74206f776e656044820152603960f91b60648201526084016106a6565b336001600160a01b03821614806108f057506108f081336126e8565b6109625760405162461bcd60e51b815260206004820152603e60248201527f4552433732313a20617070726f76652063616c6c6572206973206e6f7420746f60448201527f6b656e206f776e6572206e6f7220617070726f76656420666f7220616c6c000060648201526084016106a6565b61096c8383612db9565b505050565b6060600f6000838152602001908152602001600020805480602002602001604051908101604052809291908181526020016000905b828210156109ee576000848152602090819020604080518082019091526002850290910180546001600160a01b031682526001908101548284015290835290920191016109a6565b505050509050919050565b6000928352600e602090815260408085209385529281528284206001600160a01b039290921684525290205460ff1690565b83610a3581612d49565b610a515760405162461bcd60e51b81526004016106a690614407565b6000848152600b6020526040812054859103610a7f5760405162461bcd60e51b81526004016106a69061443e565b6000858152600b6020526040902060060154869086908214610ab35760405162461bcd60e51b81526004016106a690614475565b610abf886000336109f9565b80610ade5750610ade88600080516020614a29833981519152336109f9565b610afa5760405162461bcd60e51b81526004016106a6906144be565b6000878152600b60209081526040918290206004810189905560050187905581518a815290810189905233918101919091527f4192182acd964db32b1197a6483d5694cf6e678e7202565c44cc961078eb2c8f9060600161078f565b81610b6081612d49565b610b7c5760405162461bcd60e51b81526004016106a690614407565b610b88836000336109f9565b610ba45760405162461bcd60e51b81526004016106a6906145b6565b610bbd83600080516020614a0983398151915284612b75565b604080518481526001600160a01b038416602082015233918101919091527f9f54db3c6775e8717da6972b09a7ed552d62f5fd63696a1a75e58f61bd240193906060015b60405180910390a1505050565b81610c1881612d49565b610c345760405162461bcd60e51b81526004016106a690614407565b610c40836000336109f9565b80610c5f5750610c5f83600080516020614a29833981519152336109f9565b610c7b5760405162461bcd60e51b81526004016106a6906144be565b610c858383612e27565b6040518381527ff8e1a15aba9398e019f0b49df1a4fde98ee17ae345cb5f6b5e2c27f5033e8ce790602001610c01565b610cbf3382612eab565b610cdb5760405162461bcd60e51b81526004016106a6906145ed565b61096c838383612f09565b80610cf081612d49565b610d0c5760405162461bcd60e51b81526004016106a690614407565b610d18826000336109f9565b80610d375750610d3782600080516020614a29833981519152336109f9565b610d535760405162461bcd60e51b81526004016106a6906144be565b60008281526009602052604090819020600401805460ff19169055517fa4f54158d64aad2b971e0553dae4ee675d344a6878feb2e498aae9fed2fa5a2f90610d9e9084815260200190565b60405180910390a15050565b85610db481612d49565b610dd05760405162461bcd60e51b81526004016106a690614407565b610ddc876000336109f9565b80610dfb5750610dfb87600080516020614a29833981519152336109f9565b610e175760405162461bcd60e51b81526004016106a6906144be565b610e25600880546001019055565b6000610e3060085490565b9050610e3a613ad5565b818152604080516020601f8a018190048102820181019092528881529089908990819084018382808284376000920182905250602086019490945250610e7e915050565b604051908082528060200260200182016040528015610ea7578160200160208202803683370190505b5060408201526060810184905260c0810189905285158015610ec7575084155b15610ee6576080810186905260a08101859052600060e0820152610ffd565b85600003610ef957426080820152610f6e565b600089815260096020526040902060020154861015610f665760405162461bcd60e51b8152602060048201526024808201527f4576656e743a204576656e74207374617274206461746520697320696e636f726044820152631c9958dd60e21b60648201526084016106a6565b608081018690525b84600003610f81574260a0820152610ff5565b600089815260096020526040902060030154851115610fed5760405162461bcd60e51b815260206004820152602260248201527f4576656e743a204576656e7420656e64206461746520697320696e636f72726560448201526118dd60f21b60648201526084016106a6565b60a081018590525b600160e08201525b6000828152600b60209081526040909120825181559082015182919060018201906110289082614689565b5060408201518051611044916002840191602090910190613b1c565b50606082015160038201556080820151600482015560a0820151600582015560c0820151600682015560e0909101516007909101805491151560ff199283161790556000838152600a60209081526040808320805490941660019081179094558c8352600c82528083208054948501815583529120909101839055517f2a94cd6b8e4219d087c43453e983d276c11f9ba16e547f01adb19edb60ae3c7d906110f3908b9085908c908c90614748565b60405180910390a1505050505050505050565b6060600061111360075490565b905060008060015b83811161115f576000818152600960205260409020546001600160a01b03161561114d57826111498161479b565b9350505b806111578161479b565b91505061111b565b506000826001600160401b0381111561117a5761117a613c03565b6040519080825280602002602001820160405280156111e857816020015b6111d56040518060a0016040528060006001600160a01b031681526020016000815260200160008152602001600081526020016000151581525090565b8152602001906001900390816111985790505b50905060015b8481116112ab576000818152600960205260409020546001600160a01b03161561129957600081815260096020908152604091829020825160a08101845281546001600160a01b031681526001820154928101929092526002810154928201929092526003820154606082015260049091015460ff1615156080820152825183908590811061127f5761127f6147b4565b602002602001018190525082806112959061479b565b9350505b806112a38161479b565b9150506111ee565b50949350505050565b6000828152600e602090815260408083208484529091529020600101545b92915050565b816112e281612d49565b6112fe5760405162461bcd60e51b81526004016106a690614407565b6000828152600b602052604081205483910361132c5760405162461bcd60e51b81526004016106a69061443e565b6000838152600b60205260409020600601548490849082146113605760405162461bcd60e51b81526004016106a690614475565b61136c866000336109f9565b8061138b575061138b86600080516020614a29833981519152336109f9565b6113a75760405162461bcd60e51b81526004016106a6906144be565b6000858152600b60205260409020600201541561141a5760405162461bcd60e51b815260206004820152602b60248201527f4576656e743a2054686572652061726520626f75676874207469636b6574732060448201526a696e2063617465676f727960a81b60648201526084016106a6565b6000858152600a60209081526040808320805460ff19169055600b90915281208181559061144b6001830182613b67565b611459600283016000613ba1565b506000600382018190556004820181905560058201819055600682018190556007909101805460ff19169055868152600c60209081526040808320805482518185028101850190935280835291929091908301828280156114d957602002820191906000526020600020905b8154815260200190600101908083116114c5575b5050505050905060005b81518110156115c357868282815181106114ff576114ff6147b4565b6020026020010151036115b1576000888152600c602052604090208251611528906001906147ca565b81548110611538576115386147b4565b90600052602060002001546000600c0160008a8152602001908152602001600020828154811061156a5761156a6147b4565b6000918252602080832090910192909255898152600c90915260409020805480611596576115966147dd565b600190038181906000526020600020016000905590556115c3565b806115bb8161479b565b9150506114e3565b5060408051888152602081018890527ff67e86d3ffc2c26729aac7f4e3e07e009ad076ace7cd9e9fc184fd452ac0cc8591015b60405180910390a150505050505050565b61096c83838360405180602001604052806000815250612382565b8261162d84846112b4565b61163782826130a5565b6116428585856130b0565b5050505050565b8261165381612d49565b61166f5760405162461bcd60e51b81526004016106a690614407565b6000838152600b602052604081205484910361169d5760405162461bcd60e51b81526004016106a69061443e565b6000848152600b60205260409020600601548590859082146116d15760405162461bcd60e51b81526004016106a690614475565b6116dd876000336109f9565b806116fc57506116fc87600080516020614a29833981519152336109f9565b8061172d575061172d877fb5a7f51d0593e853ad0aa6b718ee0bdd10c4966eb62d243b69d538e5823d0401336109f9565b6117495760405162461bcd60e51b81526004016106a6906144be565b60408051888152602081018890529081018690523360608201527f2dcc6bceb950de206af8457a1b2083cbb47b6b70918a66be78ab4d128fee79f0906080016115f6565b8061179781612d49565b6117b35760405162461bcd60e51b81526004016106a690614407565b6117bf826000336109f9565b6117db5760405162461bcd60e51b81526004016106a6906145b6565b6000828152600960209081526040808320815160a08101835281546001600160a01b031681526001820154818501526002820154818401526003820154606082015260049091015460ff1615156080820152858452600c8352818420805483518186028101860190945280845291949390919083018282801561187d57602002820191906000526020600020905b815481526020019060010190808311611869575b505050505090506000805b82518110156118ee576000600b0160008483815181106118aa576118aa6147b4565b60200260200101518152602001908152602001600020600201805490506000036118dc57816118d88161479b565b9250505b806118e68161479b565b915050611888565b508082511461194f5760405162461bcd60e51b815260206004820152602760248201527f4576656e743a204576656e74206d757374206e6f74206861766520736f6c64206044820152667469636b65747360c81b60648201526084016106a6565b600085815260096020526040812080546001600160a01b031916815560018101829055600281018290556003810191909155600401805460ff1916905561164285613171565b6000818152600260205260408120546001600160a01b0316806112d25760405162461bcd60e51b8152602060048201526018602482015277115490cdcc8c4e881a5b9d985b1a59081d1bdad95b88125160421b60448201526064016106a6565b611a01836000336109f9565b611a1d5760405162461bcd60e51b81526004016106a6906145b6565b600080516020614a098339815191528203611a7a5760405162461bcd60e51b815260206004820152601d60248201527f4576656e743a2043616e2774207365742063617368696572206865726500000060448201526064016106a6565b61096c838383612b75565b60006001600160a01b038216611aef5760405162461bcd60e51b815260206004820152602960248201527f4552433732313a2061646472657373207a65726f206973206e6f7420612076616044820152683634b21037bbb732b960b91b60648201526084016106a6565b506001600160a01b031660009081526003602052604090205490565b6001600160a01b0381163314611b795760405162461bcd60e51b815260206004820152602d60248201527f526f6c65436f6e74726f6c3a2063616e206f6e6c792072656e6f756e6365207260448201526c37b632b9903337b91039b2b63360991b60648201526084016106a6565b61096c8383836130b0565b81611b8e81612d49565b611baa5760405162461bcd60e51b81526004016106a690614407565b6000828152600b6020526040812054839103611bd85760405162461bcd60e51b81526004016106a69061443e565b6000838152600b6020526040902060060154849084908214611c0c5760405162461bcd60e51b81526004016106a690614475565b611c18866000336109f9565b80611c375750611c3786600080516020614a29833981519152336109f9565b611c535760405162461bcd60e51b81526004016106a6906144be565b6000858152600b602052604090819020600701805460ff19166001179055517fbaa4fa805691a368b152481f5d9c567760b5459268d3429f9892ec43b5c5953590611caa9088908890918252602082015260400190565b60405180910390a1505050505050565b600260115403611d0c5760405162461bcd60e51b815260206004820152601f60248201527f5265656e7472616e637947756172643a207265656e7472616e742063616c6c0060448201526064016106a6565b6002601155611d1f600780546001019055565b6000611d2a60075490565b6000818152600960205260409081902080546001600160a01b031916331781556001808201899055600282018890556003820187905560048201805460ff191690911790559051919250907f9ce3d6db707bca4ba0eabed8fba1e2c013a1c0bc1132a764170a7854d198c73d90611da490849086906147f3565b60405180910390a1611db88260003361323f565b611dc2338361324a565b611dcc8284612e27565b5050600160115550505050565b6060600060010180546107b290614582565b611df633838361337d565b5050565b606081611e0681612d49565b611e225760405162461bcd60e51b81526004016106a690614407565b6000838152600c6020908152604080832080548251818502810185019093528083529192909190830182828015611e7857602002820191906000526020600020905b815481526020019060010190808311611e64575b50505050509050600081516001600160401b03811115611e9a57611e9a613c03565b604051908082528060200260200182016040528015611ed357816020015b611ec0613ad5565b815260200190600190039081611eb85790505b50905060005b825181101561207b576000600b016000848381518110611efb57611efb6147b4565b602002602001015181526020019081526020016000206040518061010001604052908160008201548152602001600182018054611f3790614582565b80601f0160208091040260200160405190810160405280929190818152602001828054611f6390614582565b8015611fb05780601f10611f8557610100808354040283529160200191611fb0565b820191906000526020600020905b815481529060010190602001808311611f9357829003601f168201915b505050505081526020016002820180548060200260200160405190810160405280929190818152602001828054801561200857602002820191906000526020600020905b815481526020019060010190808311611ff4575b50505091835250506003820154602082015260048201546040820152600582015460608201526006820154608082015260079091015460ff16151560a090910152825183908390811061205d5761205d6147b4565b602002602001018190525080806120739061479b565b915050611ed9565b509250505b50919050565b8261209081612d49565b6120ac5760405162461bcd60e51b81526004016106a690614407565b6000838152600b60205260408120548491036120da5760405162461bcd60e51b81526004016106a69061443e565b6000848152600b602052604090206006015485908590821461210e5760405162461bcd60e51b81526004016106a690614475565b61211a876000336109f9565b80612139575061213987600080516020614a29833981519152336109f9565b6121555760405162461bcd60e51b81526004016106a6906144be565b6000868152600b602052604090206001016121708682614689565b5060408051888152602081018890527f44df894581249b9c6cda25b6fe8239320be1641adde53f17479b4153cadfcc6091016115f6565b606060006121b460075490565b905060008060015b838111612223576121cf816000336109f9565b806121ee57506121ee81600080516020614a29833981519152336109f9565b80156121fe57506121fe81612d49565b15612211578261220d8161479b565b9350505b8061221b8161479b565b9150506121bc565b506000826001600160401b0381111561223e5761223e613c03565b604051908082528060200260200182016040528015612267578160200160208202803683370190505b50905060015b8481116112ab57612280816000336109f9565b8061229f575061229f81600080516020614a29833981519152336109f9565b80156122af57506122af81612d49565b156122e057808284815181106122c7576122c76147b4565b6020908102919091010152826122dc8161479b565b9350505b806122ea8161479b565b91505061226d565b6122fe836000336109f9565b61231a5760405162461bcd60e51b81526004016106a6906145b6565b600080516020614a0983398151915282036123775760405162461bcd60e51b815260206004820181905260248201527f4576656e743a2043616e27742072656d6f76652063617368696572206865726560448201526064016106a6565b61096c838383611622565b61238c3383612eab565b6123a85760405162461bcd60e51b81526004016106a6906145ed565b6123b48484848461344b565b50505050565b806123c481612d49565b6123e05760405162461bcd60e51b81526004016106a690614407565b6123ec826000336109f9565b8061240b575061240b82600080516020614a29833981519152336109f9565b6124275760405162461bcd60e51b81526004016106a6906144be565b60008281526009602052604090819020600401805460ff19166001179055517f5137e27888fb7f8000a76dda6b1f0c6365f53378d64dd9676d82a6888a50811090610d9e9084815260200190565b606061248082612d66565b6000828152600660205260408120805461249990614582565b80601f01602080910402602001604051908101604052809291908181526020018280546124c590614582565b80156125125780601f106124e757610100808354040283529160200191612512565b820191906000526020600020905b8154815290600101906020018083116124f557829003601f168201915b50505050509050600061253060408051602081019091526000815290565b90508051600003612542575092915050565b81511561257457808260405160200161255c92919061480c565b60405160208183030381529060405292505050919050565b600081511161259257604051806020016040528060008152506125ad565b8061259c8561347e565b60405160200161255c92919061480c565b949350505050565b826125bf81612d49565b6125db5760405162461bcd60e51b81526004016106a690614407565b6000838152600b60205260408120548491036126095760405162461bcd60e51b81526004016106a69061443e565b6000848152600b602052604090206006015485908590821461263d5760405162461bcd60e51b81526004016106a690614475565b612649876000336109f9565b80612668575061266887600080516020614a29833981519152336109f9565b6126845760405162461bcd60e51b81526004016106a6906144be565b6000868152600b6020526040812060030180548792906126a590849061483b565b909155505060408051888152602081018890529081018690527f3a50fbe2fa0bdf2022fcd8fe2132970519fcf4df5cf97d78e86c510eb0805b6a906060016115f6565b6001600160a01b03918216600090815260056020908152604080832093909416825291909152205460ff1690565b8161272081612d49565b61273c5760405162461bcd60e51b81526004016106a690614407565b6000828152600b602052604081205483910361276a5760405162461bcd60e51b81526004016106a69061443e565b6000838152600b602052604090206006015484908490821461279e5760405162461bcd60e51b81526004016106a690614475565b6127aa866000336109f9565b806127c957506127c986600080516020614a29833981519152336109f9565b6127e55760405162461bcd60e51b81526004016106a6906144be565b6000858152600b6020908152604091829020600701805460ff1916905581518881529081018790527f7e40298160ac4a60b736c63fec6ed6fe71621205604304b21bcfa9d48d660be89101611caa565b8261283f81612d49565b61285b5760405162461bcd60e51b81526004016106a690614407565b6000838152600b60205260408120548491036128895760405162461bcd60e51b81526004016106a69061443e565b6000848152600b60205260409020600601548590859082146128bd5760405162461bcd60e51b81526004016106a690614475565b6128c9876000336109f9565b806128e857506128e887600080516020614a29833981519152336109f9565b6129045760405162461bcd60e51b81526004016106a6906144be565b6000868152600b60205260409020600301548511156129715760405162461bcd60e51b815260206004820152602360248201527f4576656e743a20446563726561736564207469636b6574732062656c6f77207a60448201526265726f60e81b60648201526084016106a6565b6000868152600b602052604090206003015461298e9086906147ca565b6000878152600b60205260409020600201541115612a0c5760405162461bcd60e51b815260206004820152603560248201527f4576656e743a205469636b65747320616d6f756e742063616e2774206265206c604482015274657373207468616e20736f6c64207469636b65747360581b60648201526084016106a6565b6000868152600b602052604081206003018054879290612a2d9084906147ca565b909155505060408051888152602081018890529081018690527fb39ecd9af22a3fec10ec63455a79d572fdcfadf6a9005d5cd232b2829f958c70906060016115f6565b60606000612a7d60075490565b905060008060015b838111612ac9576000818152600960205260409020546001600160a01b031615612ab75782612ab38161479b565b9350505b80612ac18161479b565b915050612a85565b506000826001600160401b03811115612ae457612ae4613c03565b604051908082528060200260200182016040528015612b0d578160200160208202803683370190505b50905060015b8481116112ab576000818152600960205260409020546001600160a01b031615612b635780828481518110612b4a57612b4a6147b4565b602090810291909101015282612b5f8161479b565b9350505b80612b6d8161479b565b915050612b13565b82612b8084846112b4565b612b8a82826130a5565b61164285858561357e565b83612b9f81612d49565b612bbb5760405162461bcd60e51b81526004016106a690614407565b60008581526009602052604090206004015460ff161515600114612c3b5760405162461bcd60e51b815260206004820152603160248201527f4576656e743a205469636b65747320666f7220616c6c2063617465676f7269656044820152707320617265206e6f742062757961626c6560781b60648201526084016106a6565b6000848152600b602052604090206007015460ff161515600114612cba5760405162461bcd60e51b815260206004820152603060248201527f4576656e743a205469636b65747320666f7220746869732063617465676f727960448201526f20617265206e6f742062757961626c6560801b60648201526084016106a6565b6000848152600b60205260409020600401544211801590612cec57506000848152600b60205260409020600501544210155b6116425760405162461bcd60e51b815260206004820152602860248201527f4576656e743a2053656c6c20706572696f64206e6f742072656163686564206f6044820152671c881c185cdcd95960c21b60648201526084016106a6565b6000908152600260205260409020546001600160a01b0316151590565b612d6f81612d49565b612db65760405162461bcd60e51b8152602060048201526018602482015277115490cdcc8c4e881a5b9d985b1a59081d1bdad95b88125160421b60448201526064016106a6565b50565b600081815260046020526040902080546001600160a01b0319166001600160a01b0384169081179091558190612dee82611995565b6001600160a01b03167f8c5be1e5ebec7d5bd14f71427d1e84f3dd0314c0f7b2291e5b200ac8c7c3b92560405160405180910390a45050565b612e3082612d49565b612e935760405162461bcd60e51b815260206004820152602e60248201527f45524337323155524953746f726167653a2055524920736574206f66206e6f6e60448201526d32bc34b9ba32b73a103a37b5b2b760911b60648201526084016106a6565b600082815260066020526040902061096c8282614689565b600080612eb783611995565b9050806001600160a01b0316846001600160a01b03161480612ede5750612ede81856126e8565b806125ad5750836001600160a01b0316612ef784610835565b6001600160a01b031614949350505050565b826001600160a01b0316612f1c82611995565b6001600160a01b031614612f805760405162461bcd60e51b815260206004820152602560248201527f4552433732313a207472616e736665722066726f6d20696e636f72726563742060448201526437bbb732b960d91b60648201526084016106a6565b6001600160a01b038216612fe25760405162461bcd60e51b8152602060048201526024808201527f4552433732313a207472616e7366657220746f20746865207a65726f206164646044820152637265737360e01b60648201526084016106a6565b612fed600082612db9565b6001600160a01b03831660009081526003602052604081208054600192906130169084906147ca565b90915550506001600160a01b038216600090815260036020526040812080546001929061304490849061483b565b909155505060008181526002602052604080822080546001600160a01b0319166001600160a01b0386811691821790925591518493918716917fddf252ad1be2c89b69c2b068fc378daa952ba7f163c4a11628f55a4df523b3ef91a4505050565b611df6828233613682565b6130bb8383836109f9565b1561096c576000838152600e6020908152604080832085845282528083206001600160a01b03851684528252808320805460ff19169055601090915290205461310484826136e6565b6001600160a01b038216600090815260106020526040812055336001600160a01b0316826001600160a01b0316847f7b00293d63517946aeba2f56c6b4c5dec87b67393ac48520994d3d8ce776335a8760405161316391815260200190565b60405180910390a450505050565b600061317c82611995565b9050613189600083612db9565b6001600160a01b03811660009081526003602052604081208054600192906131b29084906147ca565b909155505060008281526002602052604080822080546001600160a01b0319169055518391906001600160a01b038416907fddf252ad1be2c89b69c2b068fc378daa952ba7f163c4a11628f55a4df523b3ef908390a46000828152600660205260409020805461322190614582565b159050611df6576000828152600660205260408120611df691613b67565b61096c83838361357e565b6001600160a01b0382166132a05760405162461bcd60e51b815260206004820181905260248201527f4552433732313a206d696e7420746f20746865207a65726f206164647265737360448201526064016106a6565b6132a981612d49565b156132f65760405162461bcd60e51b815260206004820152601c60248201527f4552433732313a20746f6b656e20616c7265616479206d696e7465640000000060448201526064016106a6565b6001600160a01b038216600090815260036020526040812080546001929061331f90849061483b565b909155505060008181526002602052604080822080546001600160a01b0319166001600160a01b03861690811790915590518392907fddf252ad1be2c89b69c2b068fc378daa952ba7f163c4a11628f55a4df523b3ef908290a45050565b816001600160a01b0316836001600160a01b0316036133de5760405162461bcd60e51b815260206004820152601960248201527f4552433732313a20617070726f766520746f2063616c6c65720000000000000060448201526064016106a6565b6001600160a01b03838116600081815260056020908152604080832094871680845294825291829020805460ff191686151590811790915591519182527f17307eab39ab6107e8899845ad3d59bd9653f200f220920489ca2b5937696c31910160405180910390a3505050565b613456848484612f09565b613462848484846137c9565b6123b45760405162461bcd60e51b81526004016106a69061484e565b6060816000036134a55750506040805180820190915260018152600360fc1b602082015290565b8160005b81156134cf57806134b98161479b565b91506134c89050600a836148b6565b91506134a9565b6000816001600160401b038111156134e9576134e9613c03565b6040519080825280601f01601f191660200182016040528015613513576020820181803683370190505b5090505b84156125ad576135286001836147ca565b9150613535600a866148ca565b61354090603061483b565b60f81b818381518110613555576135556147b4565b60200101906001600160f81b031916908160001a905350613577600a866148b6565b9450613517565b6135898383836109f9565b61096c576000838152600e6020908152604080832085845282528083206001600160a01b03858116808652918452828520805460ff1916600190811790915583518085018552928352828501888152898752600f865293862080548083018255818852958720845160029097020180546001600160a01b0319169690931695909517825592519083015592869052905461362391906147ca565b6001600160a01b038316600090815260106020526040902055336001600160a01b0316826001600160a01b0316847fd9dfff7752b7a810e2b646c0c96b76bc9ed817f6c6f7848bbe68163f7e8b43788760405161316391815260200190565b61368d8383836109f9565b61096c5761369a816138ca565b6136a58360206138dc565b6136ae85613a7e565b6040516020016136c0939291906148de565b60408051601f198184030181529082905262461bcd60e51b82526106a691600401613d7e565b6000828152600f602052604090208054613702906001906147ca565b81548110613712576137126147b4565b9060005260206000209060020201600f60008481526020019081526020016000208281548110613744576137446147b4565b60009182526020808320845460029093020180546001600160a01b0319166001600160a01b039093169290921782556001938401549390910192909255838152600f9091526040902080548061379c5761379c6147dd565b60008281526020812060026000199093019283020180546001600160a01b03191681556001015590555050565b60006001600160a01b0384163b156138bf57604051630a85bd0160e11b81526001600160a01b0385169063150b7a029061380d903390899088908890600401614980565b6020604051808303816000875af1925050508015613848575060408051601f3d908101601f19168201909252613845918101906149bd565b60015b6138a5573d808015613876576040519150601f19603f3d011682016040523d82523d6000602084013e61387b565b606091505b50805160000361389d5760405162461bcd60e51b81526004016106a69061484e565b805181602001fd5b6001600160e01b031916630a85bd0160e11b1490506125ad565b506001949350505050565b60606112d26001600160a01b03831660145b606060006138eb8360026149da565b6138f690600261483b565b6001600160401b0381111561390d5761390d613c03565b6040519080825280601f01601f191660200182016040528015613937576020820181803683370190505b509050600360fc1b81600081518110613952576139526147b4565b60200101906001600160f81b031916908160001a905350600f60fb1b81600181518110613981576139816147b4565b60200101906001600160f81b031916908160001a90535060006139a58460026149da565b6139b090600161483b565b90505b6001811115613a28576f181899199a1a9b1b9c1cb0b131b232b360811b85600f16601081106139e4576139e46147b4565b1a60f81b8282815181106139fa576139fa6147b4565b60200101906001600160f81b031916908160001a90535060049490941c93613a21816149f1565b90506139b3565b508315613a775760405162461bcd60e51b815260206004820181905260248201527f537472696e67733a20686578206c656e67746820696e73756666696369656e7460448201526064016106a6565b9392505050565b606081600003613aa85750506040805180820190915260048152630307830360e41b602082015290565b8160005b8115613acb5780613abc8161479b565b915050600882901c9150613aac565b6125ad84826138dc565b604051806101000160405280600081526020016060815260200160608152602001600081526020016000815260200160008152602001600081526020016000151581525090565b828054828255906000526020600020908101928215613b57579160200282015b82811115613b57578251825591602001919060010190613b3c565b50613b63929150613bbb565b5090565b508054613b7390614582565b6000825580601f10613b83575050565b601f016020900490600052602060002090810190612db69190613bbb565b5080546000825590600052602060002090810190612db691905b5b80821115613b635760008155600101613bbc565b6001600160e01b031981168114612db657600080fd5b600060208284031215613bf857600080fd5b8135613a7781613bd0565b634e487b7160e01b600052604160045260246000fd5b604051601f8201601f191681016001600160401b0381118282101715613c4157613c41613c03565b604052919050565b80356001600160a01b0381168114613c6057600080fd5b919050565b60008060008060808587031215613c7b57600080fd5b8435935060208086013593506040860135925060608601356001600160401b0380821115613ca857600080fd5b818801915088601f830112613cbc57600080fd5b813581811115613cce57613cce613c03565b8060051b9150613cdf848301613c19565b818152918301840191848101908b841115613cf957600080fd5b938501935b83851015613d1e57613d0f85613c49565b82529385019390850190613cfe565b989b979a50959850505050505050565b60005b83811015613d49578181015183820152602001613d31565b50506000910152565b60008151808452613d6a816020860160208601613d2e565b601f01601f19169290920160200192915050565b602081526000613a776020830184613d52565b600060208284031215613da357600080fd5b5035919050565b60008060408385031215613dbd57600080fd5b613dc683613c49565b946020939093013593505050565b602080825282518282018190526000919060409081850190868401855b82811015613e1f57815180516001600160a01b03168552860151868501529284019290850190600101613df1565b5091979650505050505050565b600080600060608486031215613e4157600080fd5b8335925060208401359150613e5860408501613c49565b90509250925092565b60008060008060808587031215613e7757600080fd5b5050823594602084013594506040840135936060013592509050565b60008060408385031215613ea657600080fd5b82359150613eb660208401613c49565b90509250929050565b60006001600160401b03831115613ed857613ed8613c03565b613eeb601f8401601f1916602001613c19565b9050828152838383011115613eff57600080fd5b828260208301376000602084830101529392505050565b600082601f830112613f2757600080fd5b613a7783833560208501613ebf565b60008060408385031215613f4957600080fd5b8235915060208301356001600160401b03811115613f6657600080fd5b613f7285828601613f16565b9150509250929050565b600080600060608486031215613f9157600080fd5b613f9a84613c49565b9250613fa860208501613c49565b9150604084013590509250925092565b60008060008060008060a08789031215613fd157600080fd5b8635955060208701356001600160401b0380821115613fef57600080fd5b818901915089601f83011261400357600080fd5b81358181111561401257600080fd5b8a602082850101111561402457600080fd5b979a60209290920199509697604081013597506060810135965060800135945092505050565b602080825282518282018190526000919060409081850190868401855b82811015613e1f57815180516001600160a01b03168552868101518786015285810151868601526060808201519086015260809081015115159085015260a09093019290850190600101614067565b600080604083850312156140c957600080fd5b50508035926020909101359150565b6000806000606084860312156140ed57600080fd5b505081359360208301359350604090920135919050565b60006020828403121561411657600080fd5b613a7782613c49565b6000806000806080858703121561413557600080fd5b84359350602085013592506040850135915060608501356001600160401b0381111561416057600080fd5b61416c87828801613f16565b91505092959194509250565b6000806040838503121561418b57600080fd5b61419483613c49565b9150602083013580151581146141a957600080fd5b809150509250929050565b600081518084526020808501945080840160005b838110156141e4578151875295820195908201906001016141c8565b509495945050505050565b60006020808301818452808551808352604092508286019150828160051b87010184880160005b838110156142a757603f1989840301855281516101008151855288820151818a87015261424582870182613d52565b915050878201518582038987015261425d82826141b4565b606084810151908801526080808501519088015260a0808501519088015260c0808501519088015260e0938401511515939096019290925250509386019390860190600101614216565b509098975050505050505050565b6000806000606084860312156142ca57600080fd5b833592506020840135915060408401356001600160401b038111156142ee57600080fd5b6142fa86828701613f16565b9150509250925092565b602081526000613a7760208301846141b4565b6000806000806080858703121561432d57600080fd5b61433685613c49565b935061434460208601613c49565b92506040850135915060608501356001600160401b0381111561436657600080fd5b8501601f8101871361437757600080fd5b61416c87823560208401613ebf565b6000806040838503121561439957600080fd5b6143a283613c49565b9150613eb660208401613c49565b600080600080608085870312156143c657600080fd5b843593506020850135925060408501356001600160401b038111156143ea57600080fd5b6143f687828801613f16565b949793965093946060013593505050565b6020808252601c908201527f4576656e743a204576656e7420646f6573206e6f742065786973742100000000604082015260600190565b6020808252601f908201527f4576656e743a2043617465676f727920646f6573206e6f742065786973742100604082015260600190565b60208082526029908201527f4576656e743a20546869732063617465676f727920697320666f7220616e6f746040820152681a195c88195d995b9d60ba1b606082015260800190565b6020808252602a908201527f4576656e743a2043616c6c6572206973206e6f7420616e2061646d696e206f726040820152691036b7b232b930ba37b960b11b606082015260800190565b600060a082018783526020878185015286604085015260a0606085015281865180845260c086019150828801935060005b8181101561455e5784516001600160a01b031683529383019391830191600101614539565b50506001600160a01b03959095166080949094019390935250919695505050505050565b600181811c9082168061459657607f821691505b60208210810361208057634e487b7160e01b600052602260045260246000fd5b6020808252601d908201527f4576656e743a2043616c6c6572206973206e6f7420616e2061646d696e000000604082015260600190565b6020808252602e908201527f4552433732313a2063616c6c6572206973206e6f7420746f6b656e206f776e6560408201526d1c881b9bdc88185c1c1c9bdd995960921b606082015260800190565b601f82111561096c57600081815260208120601f850160051c810160208610156146625750805b601f850160051c820191505b818110156146815782815560010161466e565b505050505050565b81516001600160401b038111156146a2576146a2613c03565b6146b6816146b08454614582565b8461463b565b602080601f8311600181146146eb57600084156146d35750858301515b600019600386901b1c1916600185901b178555614681565b600085815260208120601f198616915b8281101561471a578886015182559484019460019091019084016146fb565b50858210156147385787850151600019600388901b60f8161c191681555b5050505050600190811b01905550565b84815283602082015260606040820152816060820152818360808301376000818301608090810191909152601f909201601f191601019392505050565b634e487b7160e01b600052601160045260246000fd5b6000600182016147ad576147ad614785565b5060010190565b634e487b7160e01b600052603260045260246000fd5b818103818111156112d2576112d2614785565b634e487b7160e01b600052603160045260246000fd5b8281526040602082015260006125ad6040830184613d52565b6000835161481e818460208801613d2e565b835190830190614832818360208801613d2e565b01949350505050565b808201808211156112d2576112d2614785565b60208082526032908201527f4552433732313a207472616e7366657220746f206e6f6e20455243373231526560408201527131b2b4bb32b91034b6b83632b6b2b73a32b960711b606082015260800190565b634e487b7160e01b600052601260045260246000fd5b6000826148c5576148c56148a0565b500490565b6000826148d9576148d96148a0565b500690565b7402937b632a1b7b73a3937b61d1030b1b1b7bab73a1605d1b81526000845161490e816015850160208901613d2e565b7001034b99036b4b9b9b4b733903937b6329607d1b601591840191820152845161493f816026840160208901613d2e565b720103337b91032bb32b73a103bb4ba341034b21606d1b602692909101918201528351614973816039840160208801613d2e565b0160390195945050505050565b6001600160a01b03858116825284166020820152604081018390526080606082018190526000906149b390830184613d52565b9695505050505050565b6000602082840312156149cf57600080fd5b8151613a7781613bd0565b80820281158282048414176112d2576112d2614785565b600081614a0057614a00614785565b50600019019056feff3317e1e0e8c784290b957ee9b65ea8fe96420c4819db463283b95ecbe4a3fe71f3d55856e4058ed06ee057d79ada615f65cdf5f9ee88181b914225088f834fa26469706673582212201a52ce37f83ec9c3b334e5d41be3822c6bdd7bb35060de0fe89102cfb3f2be3664736f6c63430008110033",
  "linkReferences": {},
  "deployedLinkReferences": {}
}