{
  "_format": "hh-sol-artifact-1",
  "contractName": "EventFacet",
  "sourceName": "contracts/EventDiamond/facets/EventFacet.sol",
  "abi": [
    {
      "inputs": [
        {
          "internalType": "string",
          "name": "_name",
          "type": "string"
        },
        {
          "internalType": "string",
          "name": "_symbol",
          "type": "string"
        },
        {
          "internalType": "address",
          "name": "_ticketContract",
          "type": "address"
        }
      ],
      "stateMutability": "nonpayable",
      "type": "constructor"
    },
    {
      "anonymous": false,
      "inputs": [
        {
          "indexed": false,
          "internalType": "uint256",
          "name": "eventId",
          "type": "uint256"
        }
      ],
      "name": "AllCategorySellStarted",
      "type": "event"
    },
    {
      "anonymous": false,
      "inputs": [
        {
          "indexed": false,
          "internalType": "uint256",
          "name": "eventId",
          "type": "uint256"
        }
      ],
      "name": "AllCategorySellStopped",
      "type": "event"
    },
    {
      "anonymous": false,
      "inputs": [
        {
          "indexed": true,
          "internalType": "address",
          "name": "owner",
          "type": "address"
        },
        {
          "indexed": true,
          "internalType": "address",
          "name": "approved",
          "type": "address"
        },
        {
          "indexed": true,
          "internalType": "uint256",
          "name": "tokenId",
          "type": "uint256"
        }
      ],
      "name": "Approval",
      "type": "event"
    },
    {
      "anonymous": false,
      "inputs": [
        {
          "indexed": true,
          "internalType": "address",
          "name": "owner",
          "type": "address"
        },
        {
          "indexed": true,
          "internalType": "address",
          "name": "operator",
          "type": "address"
        },
        {
          "indexed": false,
          "internalType": "bool",
          "name": "approved",
          "type": "bool"
        }
      ],
      "name": "ApprovalForAll",
      "type": "event"
    },
    {
      "anonymous": false,
      "inputs": [
        {
          "indexed": false,
          "internalType": "uint256",
          "name": "_fromTokenId",
          "type": "uint256"
        },
        {
          "indexed": false,
          "internalType": "uint256",
          "name": "_toTokenId",
          "type": "uint256"
        }
      ],
      "name": "BatchMetadataUpdate",
      "type": "event"
    },
    {
      "anonymous": false,
      "inputs": [
        {
          "indexed": false,
          "internalType": "uint256",
          "name": "eventId",
          "type": "uint256"
        },
        {
          "indexed": false,
          "internalType": "uint256",
          "name": "categoryId",
          "type": "uint256"
        },
        {
          "indexed": false,
          "internalType": "string",
          "name": "categoryCid",
          "type": "string"
        }
      ],
      "name": "CategoryCreated",
      "type": "event"
    },
    {
      "anonymous": false,
      "inputs": [
        {
          "indexed": false,
          "internalType": "uint256",
          "name": "eventId",
          "type": "uint256"
        },
        {
          "indexed": false,
          "internalType": "uint256",
          "name": "categoryId",
          "type": "uint256"
        }
      ],
      "name": "CategoryDeleted",
      "type": "event"
    },
    {
      "anonymous": false,
      "inputs": [
        {
          "indexed": false,
          "internalType": "uint256",
          "name": "eventId",
          "type": "uint256"
        },
        {
          "indexed": false,
          "internalType": "uint256",
          "name": "categoryId",
          "type": "uint256"
        },
        {
          "indexed": false,
          "internalType": "address",
          "name": "staffMember",
          "type": "address"
        }
      ],
      "name": "CategorySaleDatesUpdated",
      "type": "event"
    },
    {
      "anonymous": false,
      "inputs": [
        {
          "indexed": false,
          "internalType": "uint256",
          "name": "eventId",
          "type": "uint256"
        },
        {
          "indexed": false,
          "internalType": "uint256",
          "name": "categoryId",
          "type": "uint256"
        }
      ],
      "name": "CategorySellStarted",
      "type": "event"
    },
    {
      "anonymous": false,
      "inputs": [
        {
          "indexed": false,
          "internalType": "uint256",
          "name": "eventId",
          "type": "uint256"
        },
        {
          "indexed": false,
          "internalType": "uint256",
          "name": "categoryId",
          "type": "uint256"
        }
      ],
      "name": "CategorySellStopped",
      "type": "event"
    },
    {
      "anonymous": false,
      "inputs": [
        {
          "indexed": false,
          "internalType": "uint256",
          "name": "eventId",
          "type": "uint256"
        },
        {
          "indexed": false,
          "internalType": "uint256",
          "name": "categoryId",
          "type": "uint256"
        },
        {
          "indexed": false,
          "internalType": "uint256",
          "name": "ticketsCount",
          "type": "uint256"
        }
      ],
      "name": "CategoryTicketsAdded",
      "type": "event"
    },
    {
      "anonymous": false,
      "inputs": [
        {
          "indexed": false,
          "internalType": "uint256",
          "name": "eventId",
          "type": "uint256"
        },
        {
          "indexed": false,
          "internalType": "uint256",
          "name": "categoryId",
          "type": "uint256"
        },
        {
          "indexed": false,
          "internalType": "uint256",
          "name": "ticketsCount",
          "type": "uint256"
        }
      ],
      "name": "CategoryTicketsRemoved",
      "type": "event"
    },
    {
      "anonymous": false,
      "inputs": [
        {
          "indexed": false,
          "internalType": "uint256",
          "name": "eventId",
          "type": "uint256"
        },
        {
          "indexed": false,
          "internalType": "uint256",
          "name": "categoryId",
          "type": "uint256"
        }
      ],
      "name": "CategoryUpdated",
      "type": "event"
    },
    {
      "anonymous": false,
      "inputs": [
        {
          "indexed": true,
          "internalType": "uint256",
          "name": "fromTokenId",
          "type": "uint256"
        },
        {
          "indexed": false,
          "internalType": "uint256",
          "name": "toTokenId",
          "type": "uint256"
        },
        {
          "indexed": true,
          "internalType": "address",
          "name": "fromAddress",
          "type": "address"
        },
        {
          "indexed": true,
          "internalType": "address",
          "name": "toAddress",
          "type": "address"
        }
      ],
      "name": "ConsecutiveTransfer",
      "type": "event"
    },
    {
      "anonymous": false,
      "inputs": [
        {
          "indexed": false,
          "internalType": "uint256",
          "name": "eventId",
          "type": "uint256"
        },
        {
          "indexed": false,
          "internalType": "address",
          "name": "account",
          "type": "address"
        },
        {
          "indexed": false,
          "internalType": "address",
          "name": "setter",
          "type": "address"
        }
      ],
      "name": "EventCashierSet",
      "type": "event"
    },
    {
      "anonymous": false,
      "inputs": [
        {
          "indexed": false,
          "internalType": "uint256",
          "name": "eventId",
          "type": "uint256"
        },
        {
          "indexed": false,
          "internalType": "string",
          "name": "metadataUri",
          "type": "string"
        }
      ],
      "name": "EventCreated",
      "type": "event"
    },
    {
      "anonymous": false,
      "inputs": [
        {
          "indexed": false,
          "internalType": "uint256",
          "name": "_tokenId",
          "type": "uint256"
        }
      ],
      "name": "MetadataUpdate",
      "type": "event"
    },
    {
      "anonymous": false,
      "inputs": [
        {
          "indexed": false,
          "internalType": "uint256",
          "name": "eventId",
          "type": "uint256"
        },
        {
          "indexed": true,
          "internalType": "bytes32",
          "name": "role",
          "type": "bytes32"
        },
        {
          "indexed": true,
          "internalType": "bytes32",
          "name": "previousAdminRole",
          "type": "bytes32"
        },
        {
          "indexed": true,
          "internalType": "bytes32",
          "name": "newAdminRole",
          "type": "bytes32"
        }
      ],
      "name": "RoleAdminChanged",
      "type": "event"
    },
    {
      "anonymous": false,
      "inputs": [
        {
          "indexed": false,
          "internalType": "uint256",
          "name": "eventId",
          "type": "uint256"
        },
        {
          "indexed": true,
          "internalType": "bytes32",
          "name": "role",
          "type": "bytes32"
        },
        {
          "indexed": true,
          "internalType": "address",
          "name": "account",
          "type": "address"
        },
        {
          "indexed": true,
          "internalType": "address",
          "name": "sender",
          "type": "address"
        }
      ],
      "name": "RoleGranted",
      "type": "event"
    },
    {
      "anonymous": false,
      "inputs": [
        {
          "indexed": false,
          "internalType": "uint256",
          "name": "eventId",
          "type": "uint256"
        },
        {
          "indexed": true,
          "internalType": "bytes32",
          "name": "role",
          "type": "bytes32"
        },
        {
          "indexed": true,
          "internalType": "address",
          "name": "account",
          "type": "address"
        },
        {
          "indexed": true,
          "internalType": "address",
          "name": "sender",
          "type": "address"
        }
      ],
      "name": "RoleRevoked",
      "type": "event"
    },
    {
      "anonymous": false,
      "inputs": [
        {
          "indexed": false,
          "internalType": "uint256",
          "name": "eventId",
          "type": "uint256"
        },
        {
          "indexed": false,
          "internalType": "uint256",
          "name": "categoryId",
          "type": "uint256"
        },
        {
          "indexed": false,
          "internalType": "uint256",
          "name": "ticketId",
          "type": "uint256"
        },
        {
          "indexed": false,
          "internalType": "address",
          "name": "staffMember",
          "type": "address"
        }
      ],
      "name": "TicketClipped",
      "type": "event"
    },
    {
      "anonymous": false,
      "inputs": [
        {
          "indexed": false,
          "internalType": "uint256",
          "name": "eventId",
          "type": "uint256"
        },
        {
          "indexed": false,
          "internalType": "uint256",
          "name": "categoryId",
          "type": "uint256"
        },
        {
          "indexed": false,
          "internalType": "uint256",
          "name": "ticketCount",
          "type": "uint256"
        },
        {
          "indexed": false,
          "internalType": "address[]",
          "name": "accounts",
          "type": "address[]"
        },
        {
          "indexed": false,
          "internalType": "address",
          "name": "staffMember",
          "type": "address"
        }
      ],
      "name": "TicketsBooked",
      "type": "event"
    },
    {
      "anonymous": false,
      "inputs": [
        {
          "indexed": true,
          "internalType": "address",
          "name": "from",
          "type": "address"
        },
        {
          "indexed": true,
          "internalType": "address",
          "name": "to",
          "type": "address"
        },
        {
          "indexed": true,
          "internalType": "uint256",
          "name": "tokenId",
          "type": "uint256"
        }
      ],
      "name": "Transfer",
      "type": "event"
    },
    {
      "inputs": [],
      "name": "CASHIER_ROLE",
      "outputs": [
        {
          "internalType": "bytes32",
          "name": "",
          "type": "bytes32"
        }
      ],
      "stateMutability": "view",
      "type": "function"
    },
    {
      "inputs": [],
      "name": "DEFAULT_ADMIN_ROLE",
      "outputs": [
        {
          "internalType": "bytes32",
          "name": "",
          "type": "bytes32"
        }
      ],
      "stateMutability": "view",
      "type": "function"
    },
    {
      "inputs": [],
      "name": "MODERATOR_ROLE",
      "outputs": [
        {
          "internalType": "bytes32",
          "name": "",
          "type": "bytes32"
        }
      ],
      "stateMutability": "view",
      "type": "function"
    },
    {
      "inputs": [],
      "name": "RECEPTIONIST_ROLE",
      "outputs": [
        {
          "internalType": "bytes32",
          "name": "",
          "type": "bytes32"
        }
      ],
      "stateMutability": "view",
      "type": "function"
    },
    {
      "inputs": [],
      "name": "VALIDATOR_ROLE",
      "outputs": [
        {
          "internalType": "bytes32",
          "name": "",
          "type": "bytes32"
        }
      ],
      "stateMutability": "view",
      "type": "function"
    },
    {
      "inputs": [
        {
          "internalType": "uint256",
          "name": "_eventId",
          "type": "uint256"
        },
        {
          "internalType": "uint256",
          "name": "_categoryId",
          "type": "uint256"
        },
        {
          "internalType": "uint256",
          "name": "_ticketsCount",
          "type": "uint256"
        }
      ],
      "name": "addCategoryTicketsCount",
      "outputs": [],
      "stateMutability": "nonpayable",
      "type": "function"
    },
    {
      "inputs": [
        {
          "internalType": "uint256",
          "name": "_eventId",
          "type": "uint256"
        },
        {
          "internalType": "bytes32",
          "name": "_role",
          "type": "bytes32"
        },
        {
          "internalType": "address",
          "name": "_account",
          "type": "address"
        }
      ],
      "name": "addTeamMember",
      "outputs": [],
      "stateMutability": "nonpayable",
      "type": "function"
    },
    {
      "inputs": [
        {
          "internalType": "address",
          "name": "to",
          "type": "address"
        },
        {
          "internalType": "uint256",
          "name": "tokenId",
          "type": "uint256"
        }
      ],
      "name": "approve",
      "outputs": [],
      "stateMutability": "nonpayable",
      "type": "function"
    },
    {
      "inputs": [
        {
          "internalType": "address",
          "name": "owner",
          "type": "address"
        }
      ],
      "name": "balanceOf",
      "outputs": [
        {
          "internalType": "uint256",
          "name": "",
          "type": "uint256"
        }
      ],
      "stateMutability": "view",
      "type": "function"
    },
    {
      "inputs": [
        {
          "internalType": "uint256",
          "name": "_eventId",
          "type": "uint256"
        },
        {
          "internalType": "uint256",
          "name": "_categoryId",
          "type": "uint256"
        },
        {
          "internalType": "uint256",
          "name": "_ticketCount",
          "type": "uint256"
        },
        {
          "internalType": "address[]",
          "name": "_accounts",
          "type": "address[]"
        }
      ],
      "name": "bookTickets",
      "outputs": [],
      "stateMutability": "nonpayable",
      "type": "function"
    },
    {
      "inputs": [
        {
          "internalType": "uint256",
          "name": "_eventId",
          "type": "uint256"
        },
        {
          "internalType": "uint256",
          "name": "_categoryId",
          "type": "uint256"
        },
        {
          "internalType": "string",
          "name": "_ticketMetadataURI",
          "type": "string"
        },
        {
          "internalType": "uint256",
          "name": "amount",
          "type": "uint256"
        }
      ],
      "name": "buyTickets",
      "outputs": [],
      "stateMutability": "nonpayable",
      "type": "function"
    },
    {
      "inputs": [
        {
          "internalType": "uint256",
          "name": "_eventId",
          "type": "uint256"
        },
        {
          "internalType": "uint256",
          "name": "_categoryId",
          "type": "uint256"
        },
        {
          "internalType": "uint256",
          "name": "_ticketId",
          "type": "uint256"
        }
      ],
      "name": "clipTicket",
      "outputs": [],
      "stateMutability": "nonpayable",
      "type": "function"
    },
    {
      "inputs": [
        {
          "internalType": "uint256",
          "name": "_maxTicketsPerClient",
          "type": "uint256"
        },
        {
          "internalType": "uint256",
          "name": "_startDate",
          "type": "uint256"
        },
        {
          "internalType": "uint256",
          "name": "_endDate",
          "type": "uint256"
        },
        {
          "internalType": "string",
          "name": "_metadataURI",
          "type": "string"
        }
      ],
      "name": "createEvent",
      "outputs": [],
      "stateMutability": "nonpayable",
      "type": "function"
    },
    {
      "inputs": [
        {
          "internalType": "uint256",
          "name": "_eventId",
          "type": "uint256"
        },
        {
          "internalType": "string",
          "name": "_categoryCid",
          "type": "string"
        },
        {
          "internalType": "uint256",
          "name": "_saleStartDate",
          "type": "uint256"
        },
        {
          "internalType": "uint256",
          "name": "_saleEndDate",
          "type": "uint256"
        },
        {
          "internalType": "uint256",
          "name": "_ticketsCount",
          "type": "uint256"
        }
      ],
      "name": "createTicketCategory",
      "outputs": [],
      "stateMutability": "nonpayable",
      "type": "function"
    },
    {
      "inputs": [],
      "name": "fetchAllEventIds",
      "outputs": [
        {
          "internalType": "uint256[]",
          "name": "",
          "type": "uint256[]"
        }
      ],
      "stateMutability": "view",
      "type": "function"
    },
    {
      "inputs": [],
      "name": "fetchAllEvents",
      "outputs": [
        {
          "components": [
            {
              "internalType": "address",
              "name": "organizer",
              "type": "address"
            },
            {
              "internalType": "uint256",
              "name": "maxTicketsPerClient",
              "type": "uint256"
            },
            {
              "internalType": "uint256",
              "name": "startDate",
              "type": "uint256"
            },
            {
              "internalType": "uint256",
              "name": "endDate",
              "type": "uint256"
            },
            {
              "components": [
                {
                  "internalType": "uint256",
                  "name": "id",
                  "type": "uint256"
                },
                {
                  "internalType": "string",
                  "name": "cid",
                  "type": "string"
                },
                {
                  "internalType": "uint256[]",
                  "name": "ticketIds",
                  "type": "uint256[]"
                },
                {
                  "internalType": "uint256",
                  "name": "ticketsCount",
                  "type": "uint256"
                },
                {
                  "internalType": "uint256",
                  "name": "saleStartDate",
                  "type": "uint256"
                },
                {
                  "internalType": "uint256",
                  "name": "saleEndDate",
                  "type": "uint256"
                },
                {
                  "internalType": "bool",
                  "name": "areTicketsBuyable",
                  "type": "bool"
                }
              ],
              "internalType": "struct IEvent.Category[]",
              "name": "categories",
              "type": "tuple[]"
            },
            {
              "internalType": "bool",
              "name": "areAllCategoryTicketsBuyable",
              "type": "bool"
            }
          ],
          "internalType": "struct IEvent.Event[]",
          "name": "",
          "type": "tuple[]"
        }
      ],
      "stateMutability": "view",
      "type": "function"
    },
    {
      "inputs": [
        {
          "internalType": "uint256",
          "name": "_eventId",
          "type": "uint256"
        }
      ],
      "name": "fetchCategoriesByEventId",
      "outputs": [
        {
          "components": [
            {
              "internalType": "uint256",
              "name": "id",
              "type": "uint256"
            },
            {
              "internalType": "string",
              "name": "cid",
              "type": "string"
            },
            {
              "internalType": "uint256[]",
              "name": "ticketIds",
              "type": "uint256[]"
            },
            {
              "internalType": "uint256",
              "name": "ticketsCount",
              "type": "uint256"
            },
            {
              "internalType": "uint256",
              "name": "saleStartDate",
              "type": "uint256"
            },
            {
              "internalType": "uint256",
              "name": "saleEndDate",
              "type": "uint256"
            },
            {
              "internalType": "bool",
              "name": "areTicketsBuyable",
              "type": "bool"
            }
          ],
          "internalType": "struct IEvent.Category[]",
          "name": "",
          "type": "tuple[]"
        }
      ],
      "stateMutability": "view",
      "type": "function"
    },
    {
      "inputs": [],
      "name": "fetchOwnedEvents",
      "outputs": [
        {
          "internalType": "uint256[]",
          "name": "",
          "type": "uint256[]"
        }
      ],
      "stateMutability": "view",
      "type": "function"
    },
    {
      "inputs": [
        {
          "internalType": "uint256",
          "name": "tokenId",
          "type": "uint256"
        }
      ],
      "name": "getApproved",
      "outputs": [
        {
          "internalType": "address",
          "name": "",
          "type": "address"
        }
      ],
      "stateMutability": "view",
      "type": "function"
    },
    {
      "inputs": [
        {
          "internalType": "uint256",
          "name": "eventId",
          "type": "uint256"
        }
      ],
      "name": "getEventMembers",
      "outputs": [
        {
          "components": [
            {
              "internalType": "address",
              "name": "account",
              "type": "address"
            },
            {
              "internalType": "bytes32",
              "name": "role",
              "type": "bytes32"
            }
          ],
          "internalType": "struct RoleControl.MemberData[]",
          "name": "",
          "type": "tuple[]"
        }
      ],
      "stateMutability": "view",
      "type": "function"
    },
    {
      "inputs": [
        {
          "internalType": "uint256",
          "name": "eventId",
          "type": "uint256"
        },
        {
          "internalType": "bytes32",
          "name": "role",
          "type": "bytes32"
        }
      ],
      "name": "getRoleAdmin",
      "outputs": [
        {
          "internalType": "bytes32",
          "name": "",
          "type": "bytes32"
        }
      ],
      "stateMutability": "view",
      "type": "function"
    },
    {
      "inputs": [
        {
          "internalType": "uint256",
          "name": "eventId",
          "type": "uint256"
        },
        {
          "internalType": "bytes32",
          "name": "role",
          "type": "bytes32"
        },
        {
          "internalType": "address",
          "name": "account",
          "type": "address"
        }
      ],
      "name": "grantRole",
      "outputs": [],
      "stateMutability": "nonpayable",
      "type": "function"
    },
    {
      "inputs": [
        {
          "internalType": "uint256",
          "name": "eventId",
          "type": "uint256"
        },
        {
          "internalType": "bytes32",
          "name": "role",
          "type": "bytes32"
        },
        {
          "internalType": "address",
          "name": "account",
          "type": "address"
        }
      ],
      "name": "hasRole",
      "outputs": [
        {
          "internalType": "bool",
          "name": "",
          "type": "bool"
        }
      ],
      "stateMutability": "view",
      "type": "function"
    },
    {
      "inputs": [
        {
          "internalType": "address",
          "name": "owner",
          "type": "address"
        },
        {
          "internalType": "address",
          "name": "operator",
          "type": "address"
        }
      ],
      "name": "isApprovedForAll",
      "outputs": [
        {
          "internalType": "bool",
          "name": "",
          "type": "bool"
        }
      ],
      "stateMutability": "view",
      "type": "function"
    },
    {
      "inputs": [],
      "name": "name",
      "outputs": [
        {
          "internalType": "string",
          "name": "",
          "type": "string"
        }
      ],
      "stateMutability": "view",
      "type": "function"
    },
    {
      "inputs": [
        {
          "internalType": "uint256",
          "name": "tokenId",
          "type": "uint256"
        }
      ],
      "name": "ownerOf",
      "outputs": [
        {
          "internalType": "address",
          "name": "",
          "type": "address"
        }
      ],
      "stateMutability": "view",
      "type": "function"
    },
    {
      "inputs": [
        {
          "internalType": "uint256",
          "name": "_eventId",
          "type": "uint256"
        },
        {
          "internalType": "uint256",
          "name": "_categoryId",
          "type": "uint256"
        }
      ],
      "name": "removeCategory",
      "outputs": [],
      "stateMutability": "nonpayable",
      "type": "function"
    },
    {
      "inputs": [
        {
          "internalType": "uint256",
          "name": "_eventId",
          "type": "uint256"
        },
        {
          "internalType": "uint256",
          "name": "_categoryId",
          "type": "uint256"
        },
        {
          "internalType": "uint256",
          "name": "_ticketsCount",
          "type": "uint256"
        }
      ],
      "name": "removeCategoryTicketsCount",
      "outputs": [],
      "stateMutability": "nonpayable",
      "type": "function"
    },
    {
      "inputs": [
        {
          "internalType": "uint256",
          "name": "_eventId",
          "type": "uint256"
        }
      ],
      "name": "removeEvent",
      "outputs": [],
      "stateMutability": "nonpayable",
      "type": "function"
    },
    {
      "inputs": [
        {
          "internalType": "uint256",
          "name": "_eventId",
          "type": "uint256"
        },
        {
          "internalType": "bytes32",
          "name": "_role",
          "type": "bytes32"
        },
        {
          "internalType": "address",
          "name": "_account",
          "type": "address"
        }
      ],
      "name": "removeTeamMember",
      "outputs": [],
      "stateMutability": "nonpayable",
      "type": "function"
    },
    {
      "inputs": [
        {
          "internalType": "uint256",
          "name": "eventId",
          "type": "uint256"
        },
        {
          "internalType": "bytes32",
          "name": "role",
          "type": "bytes32"
        },
        {
          "internalType": "address",
          "name": "account",
          "type": "address"
        }
      ],
      "name": "renounceRole",
      "outputs": [],
      "stateMutability": "nonpayable",
      "type": "function"
    },
    {
      "inputs": [
        {
          "internalType": "uint256",
          "name": "eventId",
          "type": "uint256"
        },
        {
          "internalType": "bytes32",
          "name": "role",
          "type": "bytes32"
        },
        {
          "internalType": "address",
          "name": "account",
          "type": "address"
        }
      ],
      "name": "revokeRole",
      "outputs": [],
      "stateMutability": "nonpayable",
      "type": "function"
    },
    {
      "inputs": [
        {
          "internalType": "address",
          "name": "from",
          "type": "address"
        },
        {
          "internalType": "address",
          "name": "to",
          "type": "address"
        },
        {
          "internalType": "uint256",
          "name": "tokenId",
          "type": "uint256"
        }
      ],
      "name": "safeTransferFrom",
      "outputs": [],
      "stateMutability": "nonpayable",
      "type": "function"
    },
    {
      "inputs": [
        {
          "internalType": "address",
          "name": "from",
          "type": "address"
        },
        {
          "internalType": "address",
          "name": "to",
          "type": "address"
        },
        {
          "internalType": "uint256",
          "name": "tokenId",
          "type": "uint256"
        },
        {
          "internalType": "bytes",
          "name": "data",
          "type": "bytes"
        }
      ],
      "name": "safeTransferFrom",
      "outputs": [],
      "stateMutability": "nonpayable",
      "type": "function"
    },
    {
      "inputs": [
        {
          "internalType": "address",
          "name": "operator",
          "type": "address"
        },
        {
          "internalType": "bool",
          "name": "approved",
          "type": "bool"
        }
      ],
      "name": "setApprovalForAll",
      "outputs": [],
      "stateMutability": "nonpayable",
      "type": "function"
    },
    {
      "inputs": [
        {
          "internalType": "uint256",
          "name": "_eventId",
          "type": "uint256"
        },
        {
          "internalType": "address",
          "name": "_account",
          "type": "address"
        }
      ],
      "name": "setEventCashier",
      "outputs": [],
      "stateMutability": "nonpayable",
      "type": "function"
    },
    {
      "inputs": [
        {
          "internalType": "uint256",
          "name": "_eventId",
          "type": "uint256"
        }
      ],
      "name": "startAllCategorySelling",
      "outputs": [],
      "stateMutability": "nonpayable",
      "type": "function"
    },
    {
      "inputs": [
        {
          "internalType": "uint256",
          "name": "_eventId",
          "type": "uint256"
        },
        {
          "internalType": "uint256",
          "name": "_categoryId",
          "type": "uint256"
        }
      ],
      "name": "startCategorySelling",
      "outputs": [],
      "stateMutability": "nonpayable",
      "type": "function"
    },
    {
      "inputs": [
        {
          "internalType": "uint256",
          "name": "_eventId",
          "type": "uint256"
        }
      ],
      "name": "stopAllCategorySelling",
      "outputs": [],
      "stateMutability": "nonpayable",
      "type": "function"
    },
    {
      "inputs": [
        {
          "internalType": "uint256",
          "name": "_eventId",
          "type": "uint256"
        },
        {
          "internalType": "uint256",
          "name": "_categoryId",
          "type": "uint256"
        }
      ],
      "name": "stopCategorySelling",
      "outputs": [],
      "stateMutability": "nonpayable",
      "type": "function"
    },
    {
      "inputs": [
        {
          "internalType": "bytes4",
          "name": "interfaceId",
          "type": "bytes4"
        }
      ],
      "name": "supportsInterface",
      "outputs": [
        {
          "internalType": "bool",
          "name": "",
          "type": "bool"
        }
      ],
      "stateMutability": "view",
      "type": "function"
    },
    {
      "inputs": [],
      "name": "symbol",
      "outputs": [
        {
          "internalType": "string",
          "name": "",
          "type": "string"
        }
      ],
      "stateMutability": "view",
      "type": "function"
    },
    {
      "inputs": [
        {
          "internalType": "uint256",
          "name": "tokenId",
          "type": "uint256"
        }
      ],
      "name": "tokenURI",
      "outputs": [
        {
          "internalType": "string",
          "name": "",
          "type": "string"
        }
      ],
      "stateMutability": "view",
      "type": "function"
    },
    {
      "inputs": [
        {
          "internalType": "address",
          "name": "from",
          "type": "address"
        },
        {
          "internalType": "address",
          "name": "to",
          "type": "address"
        },
        {
          "internalType": "uint256",
          "name": "tokenId",
          "type": "uint256"
        }
      ],
      "name": "transferFrom",
      "outputs": [],
      "stateMutability": "nonpayable",
      "type": "function"
    },
    {
      "inputs": [
        {
          "internalType": "uint256",
          "name": "_eventId",
          "type": "uint256"
        },
        {
          "internalType": "uint256",
          "name": "_categoryId",
          "type": "uint256"
        },
        {
          "internalType": "uint256",
          "name": "_saleStartDate",
          "type": "uint256"
        },
        {
          "internalType": "uint256",
          "name": "_saleEndDate",
          "type": "uint256"
        }
      ],
      "name": "updateCategorySaleDates",
      "outputs": [],
      "stateMutability": "nonpayable",
      "type": "function"
    },
    {
      "inputs": [
        {
          "internalType": "uint256",
          "name": "_eventId",
          "type": "uint256"
        },
        {
          "internalType": "uint256",
          "name": "_categoryId",
          "type": "uint256"
        },
        {
          "internalType": "string",
          "name": "_categoryCid",
          "type": "string"
        }
      ],
      "name": "updateCategoryUri",
      "outputs": [],
      "stateMutability": "nonpayable",
      "type": "function"
    },
    {
      "inputs": [
        {
          "internalType": "uint256",
          "name": "_eventId",
          "type": "uint256"
        },
        {
          "internalType": "string",
          "name": "_newMetadataURI",
          "type": "string"
        }
      ],
      "name": "updateEventTokenUri",
      "outputs": [],
      "stateMutability": "nonpayable",
      "type": "function"
    }
  ],
  "bytecode": "0x60806040523480156200001157600080fd5b506040516200525d3803806200525d833981016040819052620000349162000149565b8282600062000044838262000265565b50600162000053828262000265565b50506001600f5550600b80546001600160a01b0319166001600160a01b039290921691909117905550620003319050565b634e487b7160e01b600052604160045260246000fd5b600082601f830112620000ac57600080fd5b81516001600160401b0380821115620000c957620000c962000084565b604051601f8301601f19908116603f01168101908282118183101715620000f457620000f462000084565b816040528381526020925086838588010111156200011157600080fd5b600091505b8382101562000135578582018301518183018401529082019062000116565b600093810190920192909252949350505050565b6000806000606084860312156200015f57600080fd5b83516001600160401b03808211156200017757600080fd5b62000185878388016200009a565b945060208601519150808211156200019c57600080fd5b50620001ab868287016200009a565b604086015190935090506001600160a01b0381168114620001cb57600080fd5b809150509250925092565b600181811c90821680620001eb57607f821691505b6020821081036200020c57634e487b7160e01b600052602260045260246000fd5b50919050565b601f8211156200026057600081815260208120601f850160051c810160208610156200023b5750805b601f850160051c820191505b818110156200025c5782815560010162000247565b5050505b505050565b81516001600160401b0381111562000281576200028162000084565b6200029981620002928454620001d6565b8462000212565b602080601f831160018114620002d15760008415620002b85750858301515b600019600386901b1c1916600185901b1785556200025c565b600085815260208120601f198616915b828110156200030257888601518255948401946001909101908401620002e1565b5085821015620003215787850151600019600388901b60f8161c191681555b5050505050600190811b01905550565b614f1c80620003416000396000f3fe608060405234801561001057600080fd5b50600436106102955760003560e01c806370a0823111610167578063b7fd9684116100ce578063e985e9c511610087578063e985e9c514610619578063f20dddf71461062c578063f354159b1461063f578063f99c229214610652578063fb42204d1461065a578063fc3291a61461066d57600080fd5b8063b7fd968414610591578063b88d4fde146105a6578063b926bd6e146105b9578063c49baebe146105cc578063c87b56dd146105f3578063d5533da01461060657600080fd5b8063a217fddf11610120578063a217fddf1461051b578063a22cb46514610523578063a3bdc7c714610536578063a4371bd714610556578063abae6af914610569578063b01555441461057e57600080fd5b806370a08231146104b2578063724bdedf146104c55780637283d742146104d8578063754d0e51146104eb578063797669c9146104fe57806395d89b411461051357600080fd5b806333a477bd1161020b5780634a120dd7116101c45780634a120dd71461042c578063558e39c41461043f57806356164e1e146104525780635ba16138146104655780636352211e1461048c5780636a4bc7de1461049f57600080fd5b806333a477bd146103aa578063362795f8146103bd5780633660ff83146103d0578063397d4dbc146103e55780633d378bb01461040657806342842e0e1461041957600080fd5b80630e1b943d1161025d5780630e1b943d1461032b578063119345aa1461034b5780631c6f92711461035e5780631cdf29c7146103715780632053d82c1461038457806323b872dd1461039757600080fd5b806301ffc9a71461029a57806306a5bcd2146102c357806306fdde03146102d8578063081812fc146102ed578063095ea7b314610318575b600080fd5b6102ae6102a836600461401d565b50600090565b60405190151581526020015b60405180910390f35b6102d66102d1366004614095565b610680565b005b6102e0610771565b6040516102ba91906141b3565b6103006102fb3660046141c6565b610805565b6040516001600160a01b0390911681526020016102ba565b6102d66103263660046141df565b61082c565b61033e6103393660046141c6565b610941565b6040516102ba919061420b565b6102ae610359366004614263565b6109c9565b6102d661036c36600461429c565b6109fb565b6102d661037f3660046142ce565b610b56565b6102d6610392366004614375565b610c0e565b6102d66103a53660046143bb565b610cb5565b6102d66103b83660046141c6565b610ce6565b6102d66103cb3660046143fc565b610daa565b6103d86110cf565b6040516102ba919061456c565b6103f86103f336600461461b565b611405565b6040519081526020016102ba565b6102d661041436600461461b565b611429565b6102d66104273660046143bb565b6115b9565b6102d661043a366004614263565b6115d4565b6102d661044d36600461463d565b6115fb565b6102d66104603660046141c6565b61171c565b6103f87fb5a7f51d0593e853ad0aa6b718ee0bdd10c4966eb62d243b69d538e5823d040181565b61030061049a3660046141c6565b611a54565b6102d66104ad366004614263565b611ab4565b6103f86104c0366004614669565b611b44565b6102d66104d3366004614263565b611bca565b6102d66104e636600461461b565b611c43565b6102d66104f9366004614686565b611d65565b6103f8600080516020614ec783398151915281565b6102e0611e84565b6103f8600081565b6102d66105313660046146df565b611e96565b6105496105443660046141c6565b611ea5565b6040516102ba9190614712565b6102d6610564366004614725565b61202f565b61057161214a565b6040516102ba9190614774565b6102d661058c366004614263565b612295565b6103f8600080516020614ea783398151915281565b6102d66105b4366004614787565b612325565b6102d66105c73660046141c6565b61235d565b6103f87f21702c8af46127c7fa207f89d0b0a8441bb32959a0ac7df790e9ab1a25c9892681565b6102e06106013660046141c6565b612418565b6102d661061436600461463d565b612558565b6102ae6106273660046147fa565b612682565b6102d661063a36600461461b565b6126b0565b6102d661064d36600461463d565b6127ce565b610571612a70565b6102d6610668366004614263565b612b75565b6102d661067b366004614828565b612b95565b838361068b82613154565b6106b05760405162461bcd60e51b81526004016106a79061487f565b60405180910390fd5b6000818152600a602052604090205460ff1615156001146106e35760405162461bcd60e51b81526004016106a7906148b6565b6106ef866000336109c9565b8061070e575061070e86600080516020614ec7833981519152336109c9565b61072a5760405162461bcd60e51b81526004016106a7906148ed565b7f5f183d9cf5454d6fc91379ef5dce8b6a4543ec2c03a1d6376579c9a6949b2cb38686868633604051610761959493929190614937565b60405180910390a1505050505050565b6060600080018054610782906149b1565b80601f01602080910402602001604051908101604052809291908181526020018280546107ae906149b1565b80156107fb5780601f106107d0576101008083540402835291602001916107fb565b820191906000526020600020905b8154815290600101906020018083116107de57829003601f168201915b5050505050905090565b600061081082613171565b506000908152600460205260409020546001600160a01b031690565b600061083782611a54565b9050806001600160a01b0316836001600160a01b0316036108a45760405162461bcd60e51b815260206004820152602160248201527f4552433732313a20617070726f76616c20746f2063757272656e74206f776e656044820152603960f91b60648201526084016106a7565b336001600160a01b03821614806108c057506108c08133612682565b6109325760405162461bcd60e51b815260206004820152603e60248201527f4552433732313a20617070726f76652063616c6c6572206973206e6f7420746f60448201527f6b656e206f776e6572206e6f7220617070726f76656420666f7220616c6c000060648201526084016106a7565b61093c83836131c4565b505050565b6060600d6000838152602001908152602001600020805480602002602001604051908101604052809291908181526020016000905b828210156109be576000848152602090819020604080518082019091526002850290910180546001600160a01b03168252600190810154828401529083529092019101610976565b505050509050919050565b6000928352600c602090815260408085209385529281528284206001600160a01b039290921684525290205460ff1690565b8383610a0682613154565b610a225760405162461bcd60e51b81526004016106a79061487f565b6000818152600a602052604090205460ff161515600114610a555760405162461bcd60e51b81526004016106a7906148b6565b610a61866000336109c9565b80610a805750610a8086600080516020614ec7833981519152336109c9565b610a9c5760405162461bcd60e51b81526004016106a7906148ed565b6000868152600960205260409020600401805485919087908110610ac257610ac26149eb565b90600052602060002090600702016004018190555082600060090160008881526020019081526020016000206004018681548110610b0257610b026149eb565b6000918252602091829020600560079092020101919091556040805188815291820187905233908201527f4192182acd964db32b1197a6483d5694cf6e678e7202565c44cc961078eb2c8f90606001610761565b81610b6081613154565b610b7c5760405162461bcd60e51b81526004016106a79061487f565b610b88836000336109c9565b610ba45760405162461bcd60e51b81526004016106a790614a01565b610bbd83600080516020614ea783398151915284612b75565b604080518481526001600160a01b038416602082015233918101919091527f9f54db3c6775e8717da6972b09a7ed552d62f5fd63696a1a75e58f61bd240193906060015b60405180910390a1505050565b81610c1881613154565b610c345760405162461bcd60e51b81526004016106a79061487f565b610c40836000336109c9565b80610c5f5750610c5f83600080516020614ec7833981519152336109c9565b610c7b5760405162461bcd60e51b81526004016106a7906148ed565b610c858383613232565b6040518381527ff8e1a15aba9398e019f0b49df1a4fde98ee17ae345cb5f6b5e2c27f5033e8ce790602001610c01565b610cbf33826132b6565b610cdb5760405162461bcd60e51b81526004016106a790614a38565b61093c838383613314565b80610cf081613154565b610d0c5760405162461bcd60e51b81526004016106a79061487f565b610d18826000336109c9565b80610d375750610d3782600080516020614ec7833981519152336109c9565b610d535760405162461bcd60e51b81526004016106a7906148ed565b60008281526009602052604090819020600501805460ff19169055517fa4f54158d64aad2b971e0553dae4ee675d344a6878feb2e498aae9fed2fa5a2f90610d9e9084815260200190565b60405180910390a15050565b85610db481613154565b610dd05760405162461bcd60e51b81526004016106a79061487f565b610ddc876000336109c9565b80610dfb5750610dfb87600080516020614ec7833981519152336109c9565b610e175760405162461bcd60e51b81526004016106a7906148ed565b6000878152600960205260409020600201548410801590610e4957506000878152600960205260409020600301548311155b610ea75760405162461bcd60e51b815260206004820152602960248201527f4576656e743a204461746573206172656e277420696e206576656e74277320646044820152686174652072616e676560b81b60648201526084016106a7565b610eb5600880546001019055565b6000610ec060085490565b9050610f046040518060e001604052806000815260200160608152602001606081526020016000815260200160008152602001600081526020016000151581525090565b818152604080516020601f8a018190048102820181019092528881529089908990819084018382808284376000920182905250602086019490945250610f48915050565b604051908082528060200260200182016040528015610f71578160200160208202803683370190505b5060408201526060810184905285158015610f8a575084155b15610fa9576080810186905260a08101859052600060c0820152610fd7565b8515610fb55785610fb7565b425b60808201528415610fc85784610fca565b425b60a0820152600160c08201525b60008981526009602090815260408220600401805460018181018355918452928290208451600790940201928355908301518392918201906110199082614ad4565b5060408201518051611035916002840191602090910190613ee0565b50606082015160038201556080820151600482015560a0820151600582015560c0909101516006909101805491151560ff199283161790556000838152600a6020526040908190208054909216600117909155517f2a94cd6b8e4219d087c43453e983d276c11f9ba16e547f01adb19edb60ae3c7d906110bc908b9085908c908c90614b93565b60405180910390a1505050505050505050565b606060006110dc60075490565b905060008060015b838111611128576000818152600960205260409020546001600160a01b031615611116578261111281614be6565b9350505b8061112081614be6565b9150506110e4565b506000826001600160401b038111156111435761114361403a565b6040519080825280602002602001820160405280156111b857816020015b6111a56040518060c0016040528060006001600160a01b03168152602001600081526020016000815260200160008152602001606081526020016000151581525090565b8152602001906001900390816111615790505b50905060015b8481116113fc576000818152600960205260409020546001600160a01b0316156113ea576000818152600960209081526040808320815160c08101835281546001600160a01b0316815260018201548185015260028201548184015260038201546060820152600482018054845181870281018701909552808552919592946080870194939192919084015b828210156113a357838290600052602060002090600702016040518060e001604052908160008201548152602001600182018054611287906149b1565b80601f01602080910402602001604051908101604052809291908181526020018280546112b3906149b1565b80156113005780601f106112d557610100808354040283529160200191611300565b820191906000526020600020905b8154815290600101906020018083116112e357829003601f168201915b505050505081526020016002820180548060200260200160405190810160405280929190818152602001828054801561135857602002820191906000526020600020905b815481526020019060010190808311611344575b50505091835250506003820154602080830191909152600483015460408301526005830154606083015260069092015460ff161515608090910152908252600192909201910161124a565b505050908252506005919091015460ff16151560209091015282518390859081106113d0576113d06149eb565b602002602001018190525082806113e690614be6565b9350505b806113f481614be6565b9150506111be565b50949350505050565b6000828152600c602090815260408083208484529091529020600101545b92915050565b818161143482613154565b6114505760405162461bcd60e51b81526004016106a79061487f565b6000818152600a602052604090205460ff1615156001146114835760405162461bcd60e51b81526004016106a7906148b6565b61148f846000336109c9565b806114ae57506114ae84600080516020614ec7833981519152336109c9565b6114ca5760405162461bcd60e51b81526004016106a7906148ed565b60008481526009602052604090206004018054849081106114ed576114ed6149eb565b6000918252602082206002600790920201015490036115625760405162461bcd60e51b815260206004820152602b60248201527f4576656e743a2054686572652061726520626f75676874207469636b6574732060448201526a696e2063617465676f727960a81b60648201526084016106a7565b6000838152600a6020908152604091829020805460ff1916905581518681529081018590527ff67e86d3ffc2c26729aac7f4e3e07e009ad076ace7cd9e9fc184fd452ac0cc8591015b60405180910390a150505050565b61093c83838360405180602001604052806000815250612325565b826115df8484611405565b6115e982826134b0565b6115f48585856134bb565b5050505050565b828261160682613154565b6116225760405162461bcd60e51b81526004016106a79061487f565b6000818152600a602052604090205460ff1615156001146116555760405162461bcd60e51b81526004016106a7906148b6565b611661856000336109c9565b80611680575061168085600080516020614ec7833981519152336109c9565b806116b157506116b1857fb5a7f51d0593e853ad0aa6b718ee0bdd10c4966eb62d243b69d538e5823d0401336109c9565b6116cd5760405162461bcd60e51b81526004016106a7906148ed565b60408051868152602081018690529081018490523360608201527f2dcc6bceb950de206af8457a1b2083cbb47b6b70918a66be78ab4d128fee79f0906080015b60405180910390a15050505050565b8061172681613154565b6117425760405162461bcd60e51b81526004016106a79061487f565b61174e826000336109c9565b61176a5760405162461bcd60e51b81526004016106a790614a01565b6000828152600960209081526040808320815160c08101835281546001600160a01b0316815260018201548185015260028201548184015260038201546060820152600482018054845181870281018701909552808552919492936080860193909290879084015b8282101561192b57838290600052602060002090600702016040518060e00160405290816000820154815260200160018201805461180f906149b1565b80601f016020809104026020016040519081016040528092919081815260200182805461183b906149b1565b80156118885780601f1061185d57610100808354040283529160200191611888565b820191906000526020600020905b81548152906001019060200180831161186b57829003601f168201915b50505050508152602001600282018054806020026020016040519081016040528092919081815260200182805480156118e057602002820191906000526020600020905b8154815260200190600101908083116118cc575b50505091835250506003820154602080830191909152600483015460408301526005830154606083015260069092015460ff16151560809091015290825260019290920191016117d2565b505050908252506005919091015460ff16151560209091015260808101519091506000805b825181101561199f5782818151811061196b5761196b6149eb565b6020026020010151604001515160000361198d578161198981614be6565b9250505b8061199781614be6565b915050611950565b5080825114611a005760405162461bcd60e51b815260206004820152602760248201527f4576656e743a204576656e74206d757374206e6f74206861766520736f6c64206044820152667469636b65747360c81b60648201526084016106a7565b600085815260096020526040812080546001600160a01b031916815560018101829055600281018290556003810182905590611a3f6004830182613f2b565b50600501805460ff191690556115f48561357c565b6000818152600260205260408120546001600160a01b0316806114235760405162461bcd60e51b8152602060048201526018602482015277115490cdcc8c4e881a5b9d985b1a59081d1bdad95b88125160421b60448201526064016106a7565b611ac0836000336109c9565b611adc5760405162461bcd60e51b81526004016106a790614a01565b600080516020614ea78339815191528203611b395760405162461bcd60e51b815260206004820152601d60248201527f4576656e743a2043616e2774207365742063617368696572206865726500000060448201526064016106a7565b61093c838383612b75565b60006001600160a01b038216611bae5760405162461bcd60e51b815260206004820152602960248201527f4552433732313a2061646472657373207a65726f206973206e6f7420612076616044820152683634b21037bbb732b960b91b60648201526084016106a7565b506001600160a01b031660009081526003602052604090205490565b6001600160a01b0381163314611c385760405162461bcd60e51b815260206004820152602d60248201527f526f6c65436f6e74726f6c3a2063616e206f6e6c792072656e6f756e6365207260448201526c37b632b9903337b91039b2b63360991b60648201526084016106a7565b61093c8383836134bb565b8181611c4e82613154565b611c6a5760405162461bcd60e51b81526004016106a79061487f565b6000818152600a602052604090205460ff161515600114611c9d5760405162461bcd60e51b81526004016106a7906148b6565b611ca9846000336109c9565b80611cc85750611cc884600080516020614ec7833981519152336109c9565b611ce45760405162461bcd60e51b81526004016106a7906148ed565b600084815260096020526040902060040180546001919085908110611d0b57611d0b6149eb565b600091825260209182902060079190910201600601805460ff191692151592909217909155604080518681529182018590527fbaa4fa805691a368b152481f5d9c567760b5459268d3429f9892ec43b5c5953591016115ab565b6002600f5403611db75760405162461bcd60e51b815260206004820152601f60248201527f5265656e7472616e637947756172643a207265656e7472616e742063616c6c0060448201526064016106a7565b6002600f55611dca600780546001019055565b6000611dd560075490565b6000818152600960205260409081902080546001600160a01b031916331781556001808201899055600282018890556003820187905560058201805460ff191690911790559051919250907f9ce3d6db707bca4ba0eabed8fba1e2c013a1c0bc1132a764170a7854d198c73d90611e4f9084908690614bff565b60405180910390a1611e638260003361364a565b611e6d3383613655565b611e778284613232565b50506001600f5550505050565b606060006001018054610782906149b1565b611ea1338383613788565b5050565b6000818152600960209081526040808320600401805482518185028101850190935280835260609492939192909184015b828210156109be57838290600052602060002090600702016040518060e001604052908160008201548152602001600182018054611f13906149b1565b80601f0160208091040260200160405190810160405280929190818152602001828054611f3f906149b1565b8015611f8c5780601f10611f6157610100808354040283529160200191611f8c565b820191906000526020600020905b815481529060010190602001808311611f6f57829003601f168201915b5050505050815260200160028201805480602002602001604051908101604052809291908181526020018280548015611fe457602002820191906000526020600020905b815481526020019060010190808311611fd0575b50505091835250506003820154602080830191909152600483015460408301526005830154606083015260069092015460ff1615156080909101529082526001929092019101611ed6565b828261203a82613154565b6120565760405162461bcd60e51b81526004016106a79061487f565b6000818152600a602052604090205460ff1615156001146120895760405162461bcd60e51b81526004016106a7906148b6565b612095856000336109c9565b806120b457506120b485600080516020614ec7833981519152336109c9565b6120d05760405162461bcd60e51b81526004016106a7906148ed565b60008581526009602052604090206004018054849190869081106120f6576120f66149eb565b906000526020600020906007020160010190816121139190614ad4565b5060408051868152602081018690527f44df894581249b9c6cda25b6fe8239320be1641adde53f17479b4153cadfcc60910161170d565b6060600061215760075490565b905060008060015b8381116121c657612172816000336109c9565b80612191575061219181600080516020614ec7833981519152336109c9565b80156121a157506121a181613154565b156121b457826121b081614be6565b9350505b806121be81614be6565b91505061215f565b506000826001600160401b038111156121e1576121e161403a565b60405190808252806020026020018201604052801561220a578160200160208202803683370190505b50905060015b8481116113fc57612223816000336109c9565b80612242575061224281600080516020614ec7833981519152336109c9565b8015612252575061225281613154565b15612283578082848151811061226a5761226a6149eb565b60209081029190910101528261227f81614be6565b9350505b8061228d81614be6565b915050612210565b6122a1836000336109c9565b6122bd5760405162461bcd60e51b81526004016106a790614a01565b600080516020614ea7833981519152820361231a5760405162461bcd60e51b815260206004820181905260248201527f4576656e743a2043616e27742072656d6f76652063617368696572206865726560448201526064016106a7565b61093c8383836115d4565b61232f33836132b6565b61234b5760405162461bcd60e51b81526004016106a790614a38565b61235784848484613856565b50505050565b8061236781613154565b6123835760405162461bcd60e51b81526004016106a79061487f565b61238f826000336109c9565b806123ae57506123ae82600080516020614ec7833981519152336109c9565b6123ca5760405162461bcd60e51b81526004016106a7906148ed565b60008281526009602052604090819020600501805460ff19166001179055517f5137e27888fb7f8000a76dda6b1f0c6365f53378d64dd9676d82a6888a50811090610d9e9084815260200190565b606061242382613171565b6000828152600660205260408120805461243c906149b1565b80601f0160208091040260200160405190810160405280929190818152602001828054612468906149b1565b80156124b55780601f1061248a576101008083540402835291602001916124b5565b820191906000526020600020905b81548152906001019060200180831161249857829003601f168201915b5050505050905060006124d360408051602081019091526000815290565b905080516000036124e5575092915050565b8151156125175780826040516020016124ff929190614c18565b60405160208183030381529060405292505050919050565b60008151116125355760405180602001604052806000815250612550565b8061253f85613889565b6040516020016124ff929190614c18565b949350505050565b828261256382613154565b61257f5760405162461bcd60e51b81526004016106a79061487f565b6000818152600a602052604090205460ff1615156001146125b25760405162461bcd60e51b81526004016106a7906148b6565b6125be856000336109c9565b806125dd57506125dd85600080516020614ec7833981519152336109c9565b6125f95760405162461bcd60e51b81526004016106a7906148ed565b600085815260096020526040902060040180548491908690811061261f5761261f6149eb565b9060005260206000209060070201600301600082825461263f9190614c47565b909155505060408051868152602081018690529081018490527f3a50fbe2fa0bdf2022fcd8fe2132970519fcf4df5cf97d78e86c510eb0805b6a9060600161170d565b6001600160a01b03918216600090815260056020908152604080832093909416825291909152205460ff1690565b81816126bb82613154565b6126d75760405162461bcd60e51b81526004016106a79061487f565b6000818152600a602052604090205460ff16151560011461270a5760405162461bcd60e51b81526004016106a7906148b6565b612716846000336109c9565b80612735575061273584600080516020614ec7833981519152336109c9565b6127515760405162461bcd60e51b81526004016106a7906148ed565b6000848152600960205260408120600401805485908110612774576127746149eb565b600091825260209182902060079190910201600601805460ff191692151592909217909155604080518681529182018590527f7e40298160ac4a60b736c63fec6ed6fe71621205604304b21bcfa9d48d660be891016115ab565b82826127d982613154565b6127f55760405162461bcd60e51b81526004016106a79061487f565b6000818152600a602052604090205460ff1615156001146128285760405162461bcd60e51b81526004016106a7906148b6565b612834856000336109c9565b80612853575061285385600080516020614ec7833981519152336109c9565b61286f5760405162461bcd60e51b81526004016106a7906148ed565b6000858152600960205260409020600401805484919086908110612895576128956149eb565b90600052602060002090600702016003015410156129015760405162461bcd60e51b815260206004820152602360248201527f4576656e743a20446563726561736564207469636b6574732062656c6f77207a60448201526265726f60e81b60648201526084016106a7565b6000858152600960205260409020600401805484919086908110612927576129276149eb565b9060005260206000209060070201600301546129439190614c5a565b6000868152600960205260409020600401805486908110612966576129666149eb565b90600052602060002090600702016002018054905010156129e75760405162461bcd60e51b815260206004820152603560248201527f4576656e743a205469636b65747320616d6f756e742063616e2774206265206c604482015274657373207468616e20736f6c64207469636b65747360581b60648201526084016106a7565b6000858152600960205260409020600401805484919086908110612a0d57612a0d6149eb565b90600052602060002090600702016003016000828254612a2d9190614c5a565b909155505060408051868152602081018690529081018490527fb39ecd9af22a3fec10ec63455a79d572fdcfadf6a9005d5cd232b2829f958c709060600161170d565b60606000612a7d60075490565b905060008060015b838111612ac9576000818152600960205260409020546001600160a01b031615612ab75782612ab381614be6565b9350505b80612ac181614be6565b915050612a85565b506000826001600160401b03811115612ae457612ae461403a565b604051908082528060200260200182016040528015612b0d578160200160208202803683370190505b50905060015b8481116113fc576000818152600960205260409020546001600160a01b031615612b635780828481518110612b4a57612b4a6149eb565b602090810291909101015282612b5f81614be6565b9350505b80612b6d81614be6565b915050612b13565b82612b808484611405565b612b8a82826134b0565b6115f4858585613989565b83612b9f81613154565b612bbb5760405162461bcd60e51b81526004016106a79061487f565b60008581526009602052604090206005015460ff161515600114612c3b5760405162461bcd60e51b815260206004820152603160248201527f4576656e743a205469636b65747320666f7220616c6c2063617465676f7269656044820152707320617265206e6f742062757961626c6560781b60648201526084016106a7565b6000858152600960205260409020600401805485908110612c5e57612c5e6149eb565b600091825260209091206006600790920201015460ff161515600114612cdf5760405162461bcd60e51b815260206004820152603060248201527f4576656e743a205469636b65747320666f7220746869732063617465676f727960448201526f20617265206e6f742062757961626c6560801b60648201526084016106a7565b6000858152600960205260409020600401805442919086908110612d0557612d056149eb565b90600052602060002090600702016004015410158015612d5b57506000858152600960205260409020600401805442919086908110612d4657612d466149eb565b90600052602060002090600702016005015411155b612db85760405162461bcd60e51b815260206004820152602860248201527f4576656e743a2053656c6c20706572696f64206e6f742072656163686564206f6044820152671c881c185cdcd95960c21b60648201526084016106a7565b6000858152600960209081526040808320815160e08101835284815260609381018490529182018390529181018390526080810183905260a0810183905260c0810183905290916004830191819060005b8454811015612fa25789858281548110612e2557612e256149eb565b90600052602060002090600702016000015403612f9057848181548110612e4e57612e4e6149eb565b90600052602060002090600702016040518060e001604052908160008201548152602001600182018054612e81906149b1565b80601f0160208091040260200160405190810160405280929190818152602001828054612ead906149b1565b8015612efa5780601f10612ecf57610100808354040283529160200191612efa565b820191906000526020600020905b815481529060010190602001808311612edd57829003601f168201915b5050505050815260200160028201805480602002602001604051908101604052809291908181526020018280548015612f5257602002820191906000526020600020905b815481526020019060010190808311612f3e575b505050918352505060038201546020820152600482015460408201526005820154606082015260069091015460ff1615156080909101529092509050815b80612f9a81614be6565b915050612e09565b5060005b81604001515181101561307457600b546040830151805133926001600160a01b031691636352211e9185908110612fdf57612fdf6149eb565b60200260200101516040518263ffffffff1660e01b815260040161300591815260200190565b602060405180830381865afa158015613022573d6000803e3d6000fd5b505050506040513d601f19601f820116820180604052508101906130469190614c6d565b6001600160a01b031603613062578361305e81614be6565b9450505b8061306c81614be6565b915050612fa6565b50600b546040516306a2c74f60e21b81526000916001600160a01b031690631a8b1d3c906130aa908c908c903390600401614c8a565b6020604051808303816000875af11580156130c9573d6000803e3d6000fd5b505050506040513d601f19601f820116820180604052508101906130ed9190614cbd565b9050805b8881116131465786600401848154811061310d5761310d6149eb565b6000918252602080832060026007909302019190910180546001810182559083529120018190558061313e81614be6565b9150506130f1565b505050505050505050505050565b6000908152600260205260409020546001600160a01b0316151590565b61317a81613154565b6131c15760405162461bcd60e51b8152602060048201526018602482015277115490cdcc8c4e881a5b9d985b1a59081d1bdad95b88125160421b60448201526064016106a7565b50565b600081815260046020526040902080546001600160a01b0319166001600160a01b03841690811790915581906131f982611a54565b6001600160a01b03167f8c5be1e5ebec7d5bd14f71427d1e84f3dd0314c0f7b2291e5b200ac8c7c3b92560405160405180910390a45050565b61323b82613154565b61329e5760405162461bcd60e51b815260206004820152602e60248201527f45524337323155524953746f726167653a2055524920736574206f66206e6f6e60448201526d32bc34b9ba32b73a103a37b5b2b760911b60648201526084016106a7565b600082815260066020526040902061093c8282614ad4565b6000806132c283611a54565b9050806001600160a01b0316846001600160a01b031614806132e957506132e98185612682565b806125505750836001600160a01b031661330284610805565b6001600160a01b031614949350505050565b826001600160a01b031661332782611a54565b6001600160a01b03161461338b5760405162461bcd60e51b815260206004820152602560248201527f4552433732313a207472616e736665722066726f6d20696e636f72726563742060448201526437bbb732b960d91b60648201526084016106a7565b6001600160a01b0382166133ed5760405162461bcd60e51b8152602060048201526024808201527f4552433732313a207472616e7366657220746f20746865207a65726f206164646044820152637265737360e01b60648201526084016106a7565b6133f86000826131c4565b6001600160a01b0383166000908152600360205260408120805460019290613421908490614c5a565b90915550506001600160a01b038216600090815260036020526040812080546001929061344f908490614c47565b909155505060008181526002602052604080822080546001600160a01b0319166001600160a01b0386811691821790925591518493918716917fddf252ad1be2c89b69c2b068fc378daa952ba7f163c4a11628f55a4df523b3ef91a4505050565b611ea1828233613a8d565b6134c68383836109c9565b1561093c576000838152600c6020908152604080832085845282528083206001600160a01b03851684528252808320805460ff19169055600e90915290205461350f8482613af1565b6001600160a01b0382166000908152600e6020526040812055336001600160a01b0316826001600160a01b0316847f7b00293d63517946aeba2f56c6b4c5dec87b67393ac48520994d3d8ce776335a8760405161356e91815260200190565b60405180910390a450505050565b600061358782611a54565b90506135946000836131c4565b6001600160a01b03811660009081526003602052604081208054600192906135bd908490614c5a565b909155505060008281526002602052604080822080546001600160a01b0319169055518391906001600160a01b038416907fddf252ad1be2c89b69c2b068fc378daa952ba7f163c4a11628f55a4df523b3ef908390a46000828152600660205260409020805461362c906149b1565b159050611ea1576000828152600660205260408120611ea191613f4c565b61093c838383613989565b6001600160a01b0382166136ab5760405162461bcd60e51b815260206004820181905260248201527f4552433732313a206d696e7420746f20746865207a65726f206164647265737360448201526064016106a7565b6136b481613154565b156137015760405162461bcd60e51b815260206004820152601c60248201527f4552433732313a20746f6b656e20616c7265616479206d696e7465640000000060448201526064016106a7565b6001600160a01b038216600090815260036020526040812080546001929061372a908490614c47565b909155505060008181526002602052604080822080546001600160a01b0319166001600160a01b03861690811790915590518392907fddf252ad1be2c89b69c2b068fc378daa952ba7f163c4a11628f55a4df523b3ef908290a45050565b816001600160a01b0316836001600160a01b0316036137e95760405162461bcd60e51b815260206004820152601960248201527f4552433732313a20617070726f766520746f2063616c6c65720000000000000060448201526064016106a7565b6001600160a01b03838116600081815260056020908152604080832094871680845294825291829020805460ff191686151590811790915591519182527f17307eab39ab6107e8899845ad3d59bd9653f200f220920489ca2b5937696c31910160405180910390a3505050565b613861848484613314565b61386d84848484613bd4565b6123575760405162461bcd60e51b81526004016106a790614cd6565b6060816000036138b05750506040805180820190915260018152600360fc1b602082015290565b8160005b81156138da57806138c481614be6565b91506138d39050600a83614d3e565b91506138b4565b6000816001600160401b038111156138f4576138f461403a565b6040519080825280601f01601f19166020018201604052801561391e576020820181803683370190505b5090505b841561255057613933600183614c5a565b9150613940600a86614d52565b61394b906030614c47565b60f81b818381518110613960576139606149eb565b60200101906001600160f81b031916908160001a905350613982600a86614d3e565b9450613922565b6139948383836109c9565b61093c576000838152600c6020908152604080832085845282528083206001600160a01b03858116808652918452828520805460ff1916600190811790915583518085018552928352828501888152898752600d865293862080548083018255818852958720845160029097020180546001600160a01b03191696909316959095178255925190830155928690529054613a2e9190614c5a565b6001600160a01b0383166000908152600e6020526040902055336001600160a01b0316826001600160a01b0316847fd9dfff7752b7a810e2b646c0c96b76bc9ed817f6c6f7848bbe68163f7e8b43788760405161356e91815260200190565b613a988383836109c9565b61093c57613aa581613cd5565b613ab0836020613ce7565b613ab985613e89565b604051602001613acb93929190614d66565b60408051601f198184030181529082905262461bcd60e51b82526106a7916004016141b3565b6000828152600d602052604090208054613b0d90600190614c5a565b81548110613b1d57613b1d6149eb565b9060005260206000209060020201600d60008481526020019081526020016000208281548110613b4f57613b4f6149eb565b60009182526020808320845460029093020180546001600160a01b0319166001600160a01b039093169290921782556001938401549390910192909255838152600d90915260409020805480613ba757613ba7614e08565b60008281526020812060026000199093019283020180546001600160a01b03191681556001015590555050565b60006001600160a01b0384163b15613cca57604051630a85bd0160e11b81526001600160a01b0385169063150b7a0290613c18903390899088908890600401614e1e565b6020604051808303816000875af1925050508015613c53575060408051601f3d908101601f19168201909252613c5091810190614e5b565b60015b613cb0573d808015613c81576040519150601f19603f3d011682016040523d82523d6000602084013e613c86565b606091505b508051600003613ca85760405162461bcd60e51b81526004016106a790614cd6565b805181602001fd5b6001600160e01b031916630a85bd0160e11b149050612550565b506001949350505050565b60606114236001600160a01b03831660145b60606000613cf6836002614e78565b613d01906002614c47565b6001600160401b03811115613d1857613d1861403a565b6040519080825280601f01601f191660200182016040528015613d42576020820181803683370190505b509050600360fc1b81600081518110613d5d57613d5d6149eb565b60200101906001600160f81b031916908160001a905350600f60fb1b81600181518110613d8c57613d8c6149eb565b60200101906001600160f81b031916908160001a9053506000613db0846002614e78565b613dbb906001614c47565b90505b6001811115613e33576f181899199a1a9b1b9c1cb0b131b232b360811b85600f1660108110613def57613def6149eb565b1a60f81b828281518110613e0557613e056149eb565b60200101906001600160f81b031916908160001a90535060049490941c93613e2c81614e8f565b9050613dbe565b508315613e825760405162461bcd60e51b815260206004820181905260248201527f537472696e67733a20686578206c656e67746820696e73756666696369656e7460448201526064016106a7565b9392505050565b606081600003613eb35750506040805180820190915260048152630307830360e41b602082015290565b8160005b8115613ed65780613ec781614be6565b915050600882901c9150613eb7565b6125508482613ce7565b828054828255906000526020600020908101928215613f1b579160200282015b82811115613f1b578251825591602001919060010190613f00565b50613f27929150613f82565b5090565b50805460008255600702906000526020600020908101906131c19190613f97565b508054613f58906149b1565b6000825580601f10613f68575050565b601f0160209004906000526020600020908101906131c191905b5b80821115613f275760008155600101613f83565b80821115613f27576000808255613fb16001830182613f4c565b613fbf600283016000613fe9565b5060006003820181905560048201819055600582015560068101805460ff19169055600701613f97565b50805460008255906000526020600020908101906131c19190613f82565b6001600160e01b0319811681146131c157600080fd5b60006020828403121561402f57600080fd5b8135613e8281614007565b634e487b7160e01b600052604160045260246000fd5b604051601f8201601f191681016001600160401b03811182821017156140785761407861403a565b604052919050565b6001600160a01b03811681146131c157600080fd5b600080600080608085870312156140ab57600080fd5b8435935060208086013593506040860135925060608601356001600160401b03808211156140d857600080fd5b818801915088601f8301126140ec57600080fd5b8135818111156140fe576140fe61403a565b8060051b915061410f848301614050565b818152918301840191848101908b84111561412957600080fd5b938501935b83851015614153578435925061414383614080565b828252938501939085019061412e565b989b979a50959850505050505050565b60005b8381101561417e578181015183820152602001614166565b50506000910152565b6000815180845261419f816020860160208601614163565b601f01601f19169290920160200192915050565b602081526000613e826020830184614187565b6000602082840312156141d857600080fd5b5035919050565b600080604083850312156141f257600080fd5b82356141fd81614080565b946020939093013593505050565b602080825282518282018190526000919060409081850190868401855b8281101561425657815180516001600160a01b03168552860151868501529284019290850190600101614228565b5091979650505050505050565b60008060006060848603121561427857600080fd5b8335925060208401359150604084013561429181614080565b809150509250925092565b600080600080608085870312156142b257600080fd5b5050823594602084013594506040840135936060013592509050565b600080604083850312156142e157600080fd5b8235915060208301356142f381614080565b809150509250929050565b60006001600160401b038311156143175761431761403a565b61432a601f8401601f1916602001614050565b905082815283838301111561433e57600080fd5b828260208301376000602084830101529392505050565b600082601f83011261436657600080fd5b613e82838335602085016142fe565b6000806040838503121561438857600080fd5b8235915060208301356001600160401b038111156143a557600080fd5b6143b185828601614355565b9150509250929050565b6000806000606084860312156143d057600080fd5b83356143db81614080565b925060208401356143eb81614080565b929592945050506040919091013590565b60008060008060008060a0878903121561441557600080fd5b8635955060208701356001600160401b038082111561443357600080fd5b818901915089601f83011261444757600080fd5b81358181111561445657600080fd5b8a602082850101111561446857600080fd5b979a60209290920199509697604081013597506060810135965060800135945092505050565b600081518084526020808501945080840160005b838110156144be578151875295820195908201906001016144a2565b509495945050505050565b600081518084526020808501808196508360051b8101915082860160005b85811015614256578284038952815160e08151865286820151818888015261451182880182614187565b9150506040808301518783038289015261452b838261448e565b606085810151908a0152608080860151908a015260a080860151908a015260c0948501511515949098019390935250505097840197908401906001016144e7565b60006020808301818452808551808352604092508286019150828160051b87010184880160005b8381101561460d57888303603f19018552815180516001600160a01b03168452878101518885015286810151878501526060808201519085015260808082015160c082870181905291906145e9838801826144c9565b60a09485015115159790940196909652505094870194925090860190600101614593565b509098975050505050505050565b6000806040838503121561462e57600080fd5b50508035926020909101359150565b60008060006060848603121561465257600080fd5b505081359360208301359350604090920135919050565b60006020828403121561467b57600080fd5b8135613e8281614080565b6000806000806080858703121561469c57600080fd5b84359350602085013592506040850135915060608501356001600160401b038111156146c757600080fd5b6146d387828801614355565b91505092959194509250565b600080604083850312156146f257600080fd5b82356146fd81614080565b9150602083013580151581146142f357600080fd5b602081526000613e8260208301846144c9565b60008060006060848603121561473a57600080fd5b833592506020840135915060408401356001600160401b0381111561475e57600080fd5b61476a86828701614355565b9150509250925092565b602081526000613e82602083018461448e565b6000806000806080858703121561479d57600080fd5b84356147a881614080565b935060208501356147b881614080565b92506040850135915060608501356001600160401b038111156147da57600080fd5b8501601f810187136147eb57600080fd5b6146d3878235602084016142fe565b6000806040838503121561480d57600080fd5b823561481881614080565b915060208301356142f381614080565b6000806000806080858703121561483e57600080fd5b843593506020850135925060408501356001600160401b0381111561486257600080fd5b61486e87828801614355565b949793965093946060013593505050565b6020808252601c908201527f4576656e743a204576656e7420646f6573206e6f742065786973742100000000604082015260600190565b6020808252601f908201527f4576656e743a2043617465676f727920646f6573206e6f742065786973742100604082015260600190565b6020808252602a908201527f4576656e743a2043616c6c6572206973206e6f7420616e2061646d696e206f726040820152691036b7b232b930ba37b960b11b606082015260800190565b600060a082018783526020878185015286604085015260a0606085015281865180845260c086019150828801935060005b8181101561498d5784516001600160a01b031683529383019391830191600101614968565b50506001600160a01b03959095166080949094019390935250919695505050505050565b600181811c908216806149c557607f821691505b6020821081036149e557634e487b7160e01b600052602260045260246000fd5b50919050565b634e487b7160e01b600052603260045260246000fd5b6020808252601d908201527f4576656e743a2043616c6c6572206973206e6f7420616e2061646d696e000000604082015260600190565b6020808252602e908201527f4552433732313a2063616c6c6572206973206e6f7420746f6b656e206f776e6560408201526d1c881b9bdc88185c1c1c9bdd995960921b606082015260800190565b601f82111561093c57600081815260208120601f850160051c81016020861015614aad5750805b601f850160051c820191505b81811015614acc57828155600101614ab9565b505050505050565b81516001600160401b03811115614aed57614aed61403a565b614b0181614afb84546149b1565b84614a86565b602080601f831160018114614b365760008415614b1e5750858301515b600019600386901b1c1916600185901b178555614acc565b600085815260208120601f198616915b82811015614b6557888601518255948401946001909101908401614b46565b5085821015614b835787850151600019600388901b60f8161c191681555b5050505050600190811b01905550565b84815283602082015260606040820152816060820152818360808301376000818301608090810191909152601f909201601f191601019392505050565b634e487b7160e01b600052601160045260246000fd5b600060018201614bf857614bf8614bd0565b5060010190565b8281526040602082015260006125506040830184614187565b60008351614c2a818460208801614163565b835190830190614c3e818360208801614163565b01949350505050565b8082018082111561142357611423614bd0565b8181038181111561142357611423614bd0565b600060208284031215614c7f57600080fd5b8151613e8281614080565b606081526000614c9d6060830186614187565b6020830194909452506001600160a01b0391909116604090910152919050565b600060208284031215614ccf57600080fd5b5051919050565b60208082526032908201527f4552433732313a207472616e7366657220746f206e6f6e20455243373231526560408201527131b2b4bb32b91034b6b83632b6b2b73a32b960711b606082015260800190565b634e487b7160e01b600052601260045260246000fd5b600082614d4d57614d4d614d28565b500490565b600082614d6157614d61614d28565b500690565b7402937b632a1b7b73a3937b61d1030b1b1b7bab73a1605d1b815260008451614d96816015850160208901614163565b7001034b99036b4b9b9b4b733903937b6329607d1b6015918401918201528451614dc7816026840160208901614163565b720103337b91032bb32b73a103bb4ba341034b21606d1b602692909101918201528351614dfb816039840160208801614163565b0160390195945050505050565b634e487b7160e01b600052603160045260246000fd5b6001600160a01b0385811682528416602082015260408101839052608060608201819052600090614e5190830184614187565b9695505050505050565b600060208284031215614e6d57600080fd5b8151613e8281614007565b808202811582820484141761142357611423614bd0565b600081614e9e57614e9e614bd0565b50600019019056feff3317e1e0e8c784290b957ee9b65ea8fe96420c4819db463283b95ecbe4a3fe71f3d55856e4058ed06ee057d79ada615f65cdf5f9ee88181b914225088f834fa2646970667358221220359d264f86b3864b575760f2d58fa99c26f227d6e43ea42e1c869e55fefec62e64736f6c63430008110033",
  "linkReferences": {},
  "deployedLinkReferences": {}
}