{
  "_format": "hh-sol-artifact-1",
  "contractName": "EventFacet",
  "sourceName": "contracts/EventDiamond/facets/EventFacet.sol",
  "abi": [
    {
      "inputs": [
        {
          "internalType": "string",
          "name": "_name",
          "type": "string"
        },
        {
          "internalType": "string",
          "name": "_symbol",
          "type": "string"
        },
        {
          "internalType": "address",
          "name": "_ticketContract",
          "type": "address"
        }
      ],
      "stateMutability": "nonpayable",
      "type": "constructor"
    },
    {
      "anonymous": false,
      "inputs": [
        {
          "indexed": false,
          "internalType": "uint256",
          "name": "eventId",
          "type": "uint256"
        }
      ],
      "name": "AllCategorySellStarted",
      "type": "event"
    },
    {
      "anonymous": false,
      "inputs": [
        {
          "indexed": false,
          "internalType": "uint256",
          "name": "eventId",
          "type": "uint256"
        }
      ],
      "name": "AllCategorySellStopped",
      "type": "event"
    },
    {
      "anonymous": false,
      "inputs": [
        {
          "indexed": true,
          "internalType": "address",
          "name": "owner",
          "type": "address"
        },
        {
          "indexed": true,
          "internalType": "address",
          "name": "approved",
          "type": "address"
        },
        {
          "indexed": true,
          "internalType": "uint256",
          "name": "tokenId",
          "type": "uint256"
        }
      ],
      "name": "Approval",
      "type": "event"
    },
    {
      "anonymous": false,
      "inputs": [
        {
          "indexed": true,
          "internalType": "address",
          "name": "owner",
          "type": "address"
        },
        {
          "indexed": true,
          "internalType": "address",
          "name": "operator",
          "type": "address"
        },
        {
          "indexed": false,
          "internalType": "bool",
          "name": "approved",
          "type": "bool"
        }
      ],
      "name": "ApprovalForAll",
      "type": "event"
    },
    {
      "anonymous": false,
      "inputs": [
        {
          "indexed": false,
          "internalType": "uint256",
          "name": "_fromTokenId",
          "type": "uint256"
        },
        {
          "indexed": false,
          "internalType": "uint256",
          "name": "_toTokenId",
          "type": "uint256"
        }
      ],
      "name": "BatchMetadataUpdate",
      "type": "event"
    },
    {
      "anonymous": false,
      "inputs": [
        {
          "indexed": false,
          "internalType": "uint256",
          "name": "eventId",
          "type": "uint256"
        },
        {
          "indexed": false,
          "internalType": "uint256",
          "name": "categoryId",
          "type": "uint256"
        },
        {
          "indexed": false,
          "internalType": "string",
          "name": "categoryCid",
          "type": "string"
        }
      ],
      "name": "CategoryCreated",
      "type": "event"
    },
    {
      "anonymous": false,
      "inputs": [
        {
          "indexed": false,
          "internalType": "uint256",
          "name": "eventId",
          "type": "uint256"
        },
        {
          "indexed": false,
          "internalType": "uint256",
          "name": "categoryId",
          "type": "uint256"
        }
      ],
      "name": "CategoryDeleted",
      "type": "event"
    },
    {
      "anonymous": false,
      "inputs": [
        {
          "indexed": false,
          "internalType": "uint256",
          "name": "eventId",
          "type": "uint256"
        },
        {
          "indexed": false,
          "internalType": "uint256",
          "name": "categoryId",
          "type": "uint256"
        }
      ],
      "name": "CategorySellStarted",
      "type": "event"
    },
    {
      "anonymous": false,
      "inputs": [
        {
          "indexed": false,
          "internalType": "uint256",
          "name": "eventId",
          "type": "uint256"
        },
        {
          "indexed": false,
          "internalType": "uint256",
          "name": "categoryId",
          "type": "uint256"
        }
      ],
      "name": "CategorySellStopped",
      "type": "event"
    },
    {
      "anonymous": false,
      "inputs": [
        {
          "indexed": false,
          "internalType": "uint256",
          "name": "eventId",
          "type": "uint256"
        },
        {
          "indexed": false,
          "internalType": "uint256",
          "name": "categoryId",
          "type": "uint256"
        },
        {
          "indexed": false,
          "internalType": "uint256",
          "name": "ticketsCount",
          "type": "uint256"
        }
      ],
      "name": "CategoryTicketsAdded",
      "type": "event"
    },
    {
      "anonymous": false,
      "inputs": [
        {
          "indexed": false,
          "internalType": "uint256",
          "name": "eventId",
          "type": "uint256"
        },
        {
          "indexed": false,
          "internalType": "uint256",
          "name": "categoryId",
          "type": "uint256"
        },
        {
          "indexed": false,
          "internalType": "uint256",
          "name": "ticketsCount",
          "type": "uint256"
        }
      ],
      "name": "CategoryTicketsRemoved",
      "type": "event"
    },
    {
      "anonymous": false,
      "inputs": [
        {
          "indexed": false,
          "internalType": "uint256",
          "name": "eventId",
          "type": "uint256"
        },
        {
          "indexed": false,
          "internalType": "uint256",
          "name": "categoryId",
          "type": "uint256"
        }
      ],
      "name": "CategoryUpdated",
      "type": "event"
    },
    {
      "anonymous": false,
      "inputs": [
        {
          "indexed": true,
          "internalType": "uint256",
          "name": "fromTokenId",
          "type": "uint256"
        },
        {
          "indexed": false,
          "internalType": "uint256",
          "name": "toTokenId",
          "type": "uint256"
        },
        {
          "indexed": true,
          "internalType": "address",
          "name": "fromAddress",
          "type": "address"
        },
        {
          "indexed": true,
          "internalType": "address",
          "name": "toAddress",
          "type": "address"
        }
      ],
      "name": "ConsecutiveTransfer",
      "type": "event"
    },
    {
      "anonymous": false,
      "inputs": [
        {
          "indexed": false,
          "internalType": "uint256",
          "name": "eventId",
          "type": "uint256"
        },
        {
          "indexed": false,
          "internalType": "address",
          "name": "account",
          "type": "address"
        },
        {
          "indexed": false,
          "internalType": "address",
          "name": "setter",
          "type": "address"
        }
      ],
      "name": "EventCashierSet",
      "type": "event"
    },
    {
      "anonymous": false,
      "inputs": [
        {
          "indexed": false,
          "internalType": "uint256",
          "name": "eventId",
          "type": "uint256"
        },
        {
          "indexed": false,
          "internalType": "string",
          "name": "metadataUri",
          "type": "string"
        }
      ],
      "name": "EventCreated",
      "type": "event"
    },
    {
      "anonymous": false,
      "inputs": [
        {
          "indexed": false,
          "internalType": "uint256",
          "name": "_tokenId",
          "type": "uint256"
        }
      ],
      "name": "MetadataUpdate",
      "type": "event"
    },
    {
      "anonymous": false,
      "inputs": [
        {
          "indexed": false,
          "internalType": "uint256",
          "name": "eventId",
          "type": "uint256"
        },
        {
          "indexed": true,
          "internalType": "bytes32",
          "name": "role",
          "type": "bytes32"
        },
        {
          "indexed": true,
          "internalType": "bytes32",
          "name": "previousAdminRole",
          "type": "bytes32"
        },
        {
          "indexed": true,
          "internalType": "bytes32",
          "name": "newAdminRole",
          "type": "bytes32"
        }
      ],
      "name": "RoleAdminChanged",
      "type": "event"
    },
    {
      "anonymous": false,
      "inputs": [
        {
          "indexed": false,
          "internalType": "uint256",
          "name": "eventId",
          "type": "uint256"
        },
        {
          "indexed": true,
          "internalType": "bytes32",
          "name": "role",
          "type": "bytes32"
        },
        {
          "indexed": true,
          "internalType": "address",
          "name": "account",
          "type": "address"
        },
        {
          "indexed": true,
          "internalType": "address",
          "name": "sender",
          "type": "address"
        }
      ],
      "name": "RoleGranted",
      "type": "event"
    },
    {
      "anonymous": false,
      "inputs": [
        {
          "indexed": false,
          "internalType": "uint256",
          "name": "eventId",
          "type": "uint256"
        },
        {
          "indexed": true,
          "internalType": "bytes32",
          "name": "role",
          "type": "bytes32"
        },
        {
          "indexed": true,
          "internalType": "address",
          "name": "account",
          "type": "address"
        },
        {
          "indexed": true,
          "internalType": "address",
          "name": "sender",
          "type": "address"
        }
      ],
      "name": "RoleRevoked",
      "type": "event"
    },
    {
      "anonymous": false,
      "inputs": [
        {
          "indexed": false,
          "internalType": "uint256",
          "name": "eventId",
          "type": "uint256"
        },
        {
          "indexed": false,
          "internalType": "uint256",
          "name": "categoryId",
          "type": "uint256"
        },
        {
          "indexed": false,
          "internalType": "uint256",
          "name": "ticketId",
          "type": "uint256"
        },
        {
          "indexed": false,
          "internalType": "address",
          "name": "staffMember",
          "type": "address"
        }
      ],
      "name": "TicketClipped",
      "type": "event"
    },
    {
      "anonymous": false,
      "inputs": [
        {
          "indexed": false,
          "internalType": "uint256",
          "name": "eventId",
          "type": "uint256"
        },
        {
          "indexed": false,
          "internalType": "uint256",
          "name": "categoryId",
          "type": "uint256"
        },
        {
          "indexed": false,
          "internalType": "uint256",
          "name": "ticketCount",
          "type": "uint256"
        },
        {
          "indexed": false,
          "internalType": "address[]",
          "name": "accounts",
          "type": "address[]"
        },
        {
          "indexed": false,
          "internalType": "address",
          "name": "staffMember",
          "type": "address"
        }
      ],
      "name": "TicketsBooked",
      "type": "event"
    },
    {
      "anonymous": false,
      "inputs": [
        {
          "indexed": true,
          "internalType": "address",
          "name": "from",
          "type": "address"
        },
        {
          "indexed": true,
          "internalType": "address",
          "name": "to",
          "type": "address"
        },
        {
          "indexed": true,
          "internalType": "uint256",
          "name": "tokenId",
          "type": "uint256"
        }
      ],
      "name": "Transfer",
      "type": "event"
    },
    {
      "inputs": [],
      "name": "DEFAULT_ADMIN_ROLE",
      "outputs": [
        {
          "internalType": "bytes32",
          "name": "",
          "type": "bytes32"
        }
      ],
      "stateMutability": "view",
      "type": "function"
    },
    {
      "inputs": [],
      "name": "MODERATOR_ROLE",
      "outputs": [
        {
          "internalType": "bytes32",
          "name": "",
          "type": "bytes32"
        }
      ],
      "stateMutability": "view",
      "type": "function"
    },
    {
      "inputs": [],
      "name": "VALIDATOR_ROLE",
      "outputs": [
        {
          "internalType": "bytes32",
          "name": "",
          "type": "bytes32"
        }
      ],
      "stateMutability": "view",
      "type": "function"
    },
    {
      "inputs": [
        {
          "internalType": "uint256",
          "name": "_eventId",
          "type": "uint256"
        },
        {
          "internalType": "uint256",
          "name": "_categoryId",
          "type": "uint256"
        },
        {
          "internalType": "uint256",
          "name": "_ticketsCount",
          "type": "uint256"
        }
      ],
      "name": "addCategoryTicketsCount",
      "outputs": [],
      "stateMutability": "nonpayable",
      "type": "function"
    },
    {
      "inputs": [
        {
          "internalType": "uint256",
          "name": "_eventId",
          "type": "uint256"
        },
        {
          "internalType": "bytes32",
          "name": "_role",
          "type": "bytes32"
        },
        {
          "internalType": "address",
          "name": "_account",
          "type": "address"
        }
      ],
      "name": "addTeamMember",
      "outputs": [],
      "stateMutability": "nonpayable",
      "type": "function"
    },
    {
      "inputs": [
        {
          "internalType": "address",
          "name": "to",
          "type": "address"
        },
        {
          "internalType": "uint256",
          "name": "tokenId",
          "type": "uint256"
        }
      ],
      "name": "approve",
      "outputs": [],
      "stateMutability": "nonpayable",
      "type": "function"
    },
    {
      "inputs": [
        {
          "internalType": "address",
          "name": "owner",
          "type": "address"
        }
      ],
      "name": "balanceOf",
      "outputs": [
        {
          "internalType": "uint256",
          "name": "",
          "type": "uint256"
        }
      ],
      "stateMutability": "view",
      "type": "function"
    },
    {
      "inputs": [
        {
          "internalType": "uint256",
          "name": "_eventId",
          "type": "uint256"
        },
        {
          "internalType": "uint256",
          "name": "_categoryId",
          "type": "uint256"
        },
        {
          "internalType": "uint256",
          "name": "_ticketCount",
          "type": "uint256"
        },
        {
          "internalType": "address[]",
          "name": "_accounts",
          "type": "address[]"
        }
      ],
      "name": "bookTickets",
      "outputs": [],
      "stateMutability": "nonpayable",
      "type": "function"
    },
    {
      "inputs": [
        {
          "internalType": "uint256",
          "name": "_eventId",
          "type": "uint256"
        },
        {
          "internalType": "uint256",
          "name": "_categoryId",
          "type": "uint256"
        },
        {
          "internalType": "string",
          "name": "_ticketMetadataURI",
          "type": "string"
        },
        {
          "internalType": "uint256",
          "name": "amount",
          "type": "uint256"
        }
      ],
      "name": "buyTickets",
      "outputs": [],
      "stateMutability": "nonpayable",
      "type": "function"
    },
    {
      "inputs": [
        {
          "internalType": "uint256",
          "name": "_eventId",
          "type": "uint256"
        },
        {
          "internalType": "uint256",
          "name": "_categoryId",
          "type": "uint256"
        },
        {
          "internalType": "uint256",
          "name": "_ticketId",
          "type": "uint256"
        }
      ],
      "name": "clipTicket",
      "outputs": [],
      "stateMutability": "nonpayable",
      "type": "function"
    },
    {
      "inputs": [
        {
          "internalType": "uint256",
          "name": "_maxTicketsPerClient",
          "type": "uint256"
        },
        {
          "internalType": "string",
          "name": "_metadataURI",
          "type": "string"
        }
      ],
      "name": "createEvent",
      "outputs": [],
      "stateMutability": "nonpayable",
      "type": "function"
    },
    {
      "inputs": [
        {
          "internalType": "uint256",
          "name": "_eventId",
          "type": "uint256"
        },
        {
          "internalType": "string",
          "name": "_categoryCid",
          "type": "string"
        }
      ],
      "name": "createTicketCategory",
      "outputs": [],
      "stateMutability": "nonpayable",
      "type": "function"
    },
    {
      "inputs": [],
      "name": "fetchAllEventIds",
      "outputs": [
        {
          "internalType": "uint256[]",
          "name": "",
          "type": "uint256[]"
        }
      ],
      "stateMutability": "view",
      "type": "function"
    },
    {
      "inputs": [
        {
          "internalType": "uint256",
          "name": "_eventId",
          "type": "uint256"
        }
      ],
      "name": "fetchCategoriesByEventId",
      "outputs": [
        {
          "components": [
            {
              "internalType": "uint256",
              "name": "id",
              "type": "uint256"
            },
            {
              "internalType": "uint256[]",
              "name": "ticketIds",
              "type": "uint256[]"
            },
            {
              "internalType": "string",
              "name": "cid",
              "type": "string"
            }
          ],
          "internalType": "struct IEvent.Category[]",
          "name": "",
          "type": "tuple[]"
        }
      ],
      "stateMutability": "view",
      "type": "function"
    },
    {
      "inputs": [],
      "name": "fetchOwnedEvents",
      "outputs": [
        {
          "internalType": "uint256[]",
          "name": "",
          "type": "uint256[]"
        }
      ],
      "stateMutability": "view",
      "type": "function"
    },
    {
      "inputs": [
        {
          "internalType": "uint256",
          "name": "tokenId",
          "type": "uint256"
        }
      ],
      "name": "getApproved",
      "outputs": [
        {
          "internalType": "address",
          "name": "",
          "type": "address"
        }
      ],
      "stateMutability": "view",
      "type": "function"
    },
    {
      "inputs": [
        {
          "internalType": "uint256",
          "name": "eventId",
          "type": "uint256"
        }
      ],
      "name": "getEventMembers",
      "outputs": [
        {
          "components": [
            {
              "internalType": "address",
              "name": "account",
              "type": "address"
            },
            {
              "internalType": "bytes32",
              "name": "role",
              "type": "bytes32"
            }
          ],
          "internalType": "struct RoleControl.MemberData[]",
          "name": "",
          "type": "tuple[]"
        }
      ],
      "stateMutability": "view",
      "type": "function"
    },
    {
      "inputs": [
        {
          "internalType": "uint256",
          "name": "eventId",
          "type": "uint256"
        },
        {
          "internalType": "bytes32",
          "name": "role",
          "type": "bytes32"
        }
      ],
      "name": "getRoleAdmin",
      "outputs": [
        {
          "internalType": "bytes32",
          "name": "",
          "type": "bytes32"
        }
      ],
      "stateMutability": "view",
      "type": "function"
    },
    {
      "inputs": [
        {
          "internalType": "uint256",
          "name": "eventId",
          "type": "uint256"
        },
        {
          "internalType": "bytes32",
          "name": "role",
          "type": "bytes32"
        },
        {
          "internalType": "address",
          "name": "account",
          "type": "address"
        }
      ],
      "name": "grantRole",
      "outputs": [],
      "stateMutability": "nonpayable",
      "type": "function"
    },
    {
      "inputs": [
        {
          "internalType": "uint256",
          "name": "eventId",
          "type": "uint256"
        },
        {
          "internalType": "bytes32",
          "name": "role",
          "type": "bytes32"
        },
        {
          "internalType": "address",
          "name": "account",
          "type": "address"
        }
      ],
      "name": "hasRole",
      "outputs": [
        {
          "internalType": "bool",
          "name": "",
          "type": "bool"
        }
      ],
      "stateMutability": "view",
      "type": "function"
    },
    {
      "inputs": [
        {
          "internalType": "address",
          "name": "owner",
          "type": "address"
        },
        {
          "internalType": "address",
          "name": "operator",
          "type": "address"
        }
      ],
      "name": "isApprovedForAll",
      "outputs": [
        {
          "internalType": "bool",
          "name": "",
          "type": "bool"
        }
      ],
      "stateMutability": "view",
      "type": "function"
    },
    {
      "inputs": [],
      "name": "name",
      "outputs": [
        {
          "internalType": "string",
          "name": "",
          "type": "string"
        }
      ],
      "stateMutability": "view",
      "type": "function"
    },
    {
      "inputs": [
        {
          "internalType": "uint256",
          "name": "tokenId",
          "type": "uint256"
        }
      ],
      "name": "ownerOf",
      "outputs": [
        {
          "internalType": "address",
          "name": "",
          "type": "address"
        }
      ],
      "stateMutability": "view",
      "type": "function"
    },
    {
      "inputs": [
        {
          "internalType": "uint256",
          "name": "_eventId",
          "type": "uint256"
        },
        {
          "internalType": "uint256",
          "name": "_categoryId",
          "type": "uint256"
        }
      ],
      "name": "removeCategory",
      "outputs": [],
      "stateMutability": "nonpayable",
      "type": "function"
    },
    {
      "inputs": [
        {
          "internalType": "uint256",
          "name": "_eventId",
          "type": "uint256"
        },
        {
          "internalType": "uint256",
          "name": "_categoryId",
          "type": "uint256"
        },
        {
          "internalType": "uint256",
          "name": "_ticketsCount",
          "type": "uint256"
        }
      ],
      "name": "removeCategoryTicketsCount",
      "outputs": [],
      "stateMutability": "nonpayable",
      "type": "function"
    },
    {
      "inputs": [
        {
          "internalType": "uint256",
          "name": "_eventId",
          "type": "uint256"
        }
      ],
      "name": "removeEvent",
      "outputs": [],
      "stateMutability": "nonpayable",
      "type": "function"
    },
    {
      "inputs": [
        {
          "internalType": "uint256",
          "name": "_eventId",
          "type": "uint256"
        },
        {
          "internalType": "bytes32",
          "name": "_role",
          "type": "bytes32"
        },
        {
          "internalType": "address",
          "name": "_account",
          "type": "address"
        }
      ],
      "name": "removeTeamMember",
      "outputs": [],
      "stateMutability": "nonpayable",
      "type": "function"
    },
    {
      "inputs": [
        {
          "internalType": "uint256",
          "name": "eventId",
          "type": "uint256"
        },
        {
          "internalType": "bytes32",
          "name": "role",
          "type": "bytes32"
        },
        {
          "internalType": "address",
          "name": "account",
          "type": "address"
        }
      ],
      "name": "renounceRole",
      "outputs": [],
      "stateMutability": "nonpayable",
      "type": "function"
    },
    {
      "inputs": [
        {
          "internalType": "uint256",
          "name": "eventId",
          "type": "uint256"
        },
        {
          "internalType": "bytes32",
          "name": "role",
          "type": "bytes32"
        },
        {
          "internalType": "address",
          "name": "account",
          "type": "address"
        }
      ],
      "name": "revokeRole",
      "outputs": [],
      "stateMutability": "nonpayable",
      "type": "function"
    },
    {
      "inputs": [
        {
          "internalType": "address",
          "name": "from",
          "type": "address"
        },
        {
          "internalType": "address",
          "name": "to",
          "type": "address"
        },
        {
          "internalType": "uint256",
          "name": "tokenId",
          "type": "uint256"
        }
      ],
      "name": "safeTransferFrom",
      "outputs": [],
      "stateMutability": "nonpayable",
      "type": "function"
    },
    {
      "inputs": [
        {
          "internalType": "address",
          "name": "from",
          "type": "address"
        },
        {
          "internalType": "address",
          "name": "to",
          "type": "address"
        },
        {
          "internalType": "uint256",
          "name": "tokenId",
          "type": "uint256"
        },
        {
          "internalType": "bytes",
          "name": "data",
          "type": "bytes"
        }
      ],
      "name": "safeTransferFrom",
      "outputs": [],
      "stateMutability": "nonpayable",
      "type": "function"
    },
    {
      "inputs": [
        {
          "internalType": "address",
          "name": "operator",
          "type": "address"
        },
        {
          "internalType": "bool",
          "name": "approved",
          "type": "bool"
        }
      ],
      "name": "setApprovalForAll",
      "outputs": [],
      "stateMutability": "nonpayable",
      "type": "function"
    },
    {
      "inputs": [
        {
          "internalType": "uint256",
          "name": "_eventId",
          "type": "uint256"
        },
        {
          "internalType": "address",
          "name": "_account",
          "type": "address"
        }
      ],
      "name": "setEventCashier",
      "outputs": [],
      "stateMutability": "nonpayable",
      "type": "function"
    },
    {
      "inputs": [
        {
          "internalType": "uint256",
          "name": "_eventId",
          "type": "uint256"
        }
      ],
      "name": "startAllCategorySelling",
      "outputs": [],
      "stateMutability": "nonpayable",
      "type": "function"
    },
    {
      "inputs": [
        {
          "internalType": "uint256",
          "name": "_eventId",
          "type": "uint256"
        },
        {
          "internalType": "uint256",
          "name": "_categoryId",
          "type": "uint256"
        }
      ],
      "name": "startCategorySelling",
      "outputs": [],
      "stateMutability": "nonpayable",
      "type": "function"
    },
    {
      "inputs": [
        {
          "internalType": "uint256",
          "name": "_eventId",
          "type": "uint256"
        }
      ],
      "name": "stopAllCategorySelling",
      "outputs": [],
      "stateMutability": "nonpayable",
      "type": "function"
    },
    {
      "inputs": [
        {
          "internalType": "uint256",
          "name": "_eventId",
          "type": "uint256"
        },
        {
          "internalType": "uint256",
          "name": "_categoryId",
          "type": "uint256"
        }
      ],
      "name": "stopCategorySelling",
      "outputs": [],
      "stateMutability": "nonpayable",
      "type": "function"
    },
    {
      "inputs": [
        {
          "internalType": "bytes4",
          "name": "interfaceId",
          "type": "bytes4"
        }
      ],
      "name": "supportsInterface",
      "outputs": [
        {
          "internalType": "bool",
          "name": "",
          "type": "bool"
        }
      ],
      "stateMutability": "view",
      "type": "function"
    },
    {
      "inputs": [],
      "name": "symbol",
      "outputs": [
        {
          "internalType": "string",
          "name": "",
          "type": "string"
        }
      ],
      "stateMutability": "view",
      "type": "function"
    },
    {
      "inputs": [
        {
          "internalType": "uint256",
          "name": "tokenId",
          "type": "uint256"
        }
      ],
      "name": "tokenURI",
      "outputs": [
        {
          "internalType": "string",
          "name": "",
          "type": "string"
        }
      ],
      "stateMutability": "view",
      "type": "function"
    },
    {
      "inputs": [
        {
          "internalType": "address",
          "name": "from",
          "type": "address"
        },
        {
          "internalType": "address",
          "name": "to",
          "type": "address"
        },
        {
          "internalType": "uint256",
          "name": "tokenId",
          "type": "uint256"
        }
      ],
      "name": "transferFrom",
      "outputs": [],
      "stateMutability": "nonpayable",
      "type": "function"
    },
    {
      "inputs": [
        {
          "internalType": "uint256",
          "name": "_eventId",
          "type": "uint256"
        },
        {
          "internalType": "uint256",
          "name": "_categoryId",
          "type": "uint256"
        },
        {
          "internalType": "string",
          "name": "_categoryCid",
          "type": "string"
        }
      ],
      "name": "updateCategoryUri",
      "outputs": [],
      "stateMutability": "nonpayable",
      "type": "function"
    },
    {
      "inputs": [
        {
          "internalType": "uint256",
          "name": "_eventId",
          "type": "uint256"
        },
        {
          "internalType": "string",
          "name": "_newMetadataURI",
          "type": "string"
        }
      ],
      "name": "updateEventTokenUri",
      "outputs": [],
      "stateMutability": "nonpayable",
      "type": "function"
    }
  ],
  "bytecode": "0x60806040523480156200001157600080fd5b5060405162003fb338038062003fb3833981016040819052620000349162000149565b8282600062000044838262000265565b50600162000053828262000265565b50506001600e5550600a80546001600160a01b0319166001600160a01b039290921691909117905550620003319050565b634e487b7160e01b600052604160045260246000fd5b600082601f830112620000ac57600080fd5b81516001600160401b0380821115620000c957620000c962000084565b604051601f8301601f19908116603f01168101908282118183101715620000f457620000f462000084565b816040528381526020925086838588010111156200011157600080fd5b600091505b8382101562000135578582018301518183018401529082019062000116565b600093810190920192909252949350505050565b6000806000606084860312156200015f57600080fd5b83516001600160401b03808211156200017757600080fd5b62000185878388016200009a565b945060208601519150808211156200019c57600080fd5b50620001ab868287016200009a565b604086015190935090506001600160a01b0381168114620001cb57600080fd5b809150509250925092565b600181811c90821680620001eb57607f821691505b6020821081036200020c57634e487b7160e01b600052602260045260246000fd5b50919050565b601f8211156200026057600081815260208120601f850160051c810160208610156200023b5750805b601f850160051c820191505b818110156200025c5782815560010162000247565b5050505b505050565b81516001600160401b0381111562000281576200028162000084565b6200029981620002928454620001d6565b8462000212565b602080601f831160018114620002d15760008415620002b85750858301515b600019600386901b1c1916600185901b1785556200025c565b600085815260208120601f198616915b828110156200030257888601518255948401946001909101908401620002e1565b5085821015620003215787850151600019600388901b60f8161c191681555b5050505050600190811b01905550565b613c7280620003416000396000f3fe608060405234801561001057600080fd5b50600436106102695760003560e01c80637283d74211610151578063b88d4fde116100c3578063e985e9c511610087578063e985e9c514610589578063f20dddf71461059c578063f354159b146105af578063f99c2292146105c2578063fb42204d146105ca578063fc3291a6146105dd57600080fd5b8063b88d4fde14610516578063b926bd6e14610529578063c49baebe1461053c578063c87b56dd14610563578063d5533da01461057657600080fd5b8063a217fddf11610115578063a217fddf146104a0578063a22cb465146104a8578063a3bdc7c7146104bb578063a4371bd7146104db578063abae6af9146104ee578063b01555441461050357600080fd5b80637283d7421461044a57806373a639381461045d578063797669c91461047057806395d89b4114610485578063a1d255e11461048d57600080fd5b806333a477bd116101ea578063558e39c4116101ae578063558e39c4146103d857806356164e1e146103eb5780636352211e146103fe5780636a4bc7de1461041157806370a0823114610424578063724bdedf1461043757600080fd5b806333a477bd1461036b578063397d4dbc1461037e5780633d378bb01461039f57806342842e0e146103b25780634a120dd7146103c557600080fd5b80630e1b943d116102315780630e1b943d146102ff578063119345aa1461031f5780631cdf29c7146103325780632053d82c1461034557806323b872dd1461035857600080fd5b806301ffc9a71461026e57806306a5bcd21461029757806306fdde03146102ac578063081812fc146102c1578063095ea7b3146102ec575b600080fd5b61028261027c366004612fbc565b50600090565b60405190151581526020015b60405180910390f35b6102aa6102a5366004613035565b6105f0565b005b6102b46106ac565b60405161028e9190613154565b6102d46102cf366004613167565b610740565b6040516001600160a01b03909116815260200161028e565b6102aa6102fa366004613180565b610767565b61031261030d366004613167565b61087c565b60405161028e91906131ac565b61028261032d366004613204565b610904565b6102aa61034036600461323d565b610936565b6102aa6103533660046132e5565b6109d5565b6102aa61036636600461332c565b610a7c565b6102aa610379366004613167565b610aad565b61039161038c36600461336d565b610b52565b60405190815260200161028e565b6102aa6103ad36600461336d565b610b76565b6102aa6103c036600461332c565b610c19565b6102aa6103d3366004613204565b610c34565b6102aa6103e636600461338f565b610c5b565b6102aa6103f9366004613167565b610d16565b6102d461040c366004613167565b610fd8565b6102aa61041f366004613204565b611038565b6103916104323660046133bb565b61106b565b6102aa610445366004613204565b6110f1565b6102aa61045836600461336d565b61116a565b6102aa61046b3660046132e5565b61120d565b610391600080516020613c1d83398151915281565b6102b461134b565b6102aa61049b3660046132e5565b61135d565b610391600081565b6102aa6104b63660046133d8565b61145c565b6104ce6104c9366004613167565b61146b565b60405161028e9190613446565b6102aa6104e93660046134d7565b6115c2565b6104f66116a9565b60405161028e9190613527565b6102aa610511366004613204565b6117fe565b6102aa61052436600461353a565b611831565b6102aa610537366004613167565b611869565b6103917f21702c8af46127c7fa207f89d0b0a8441bb32959a0ac7df790e9ab1a25c9892681565b6102b4610571366004613167565b611906565b6102aa61058436600461338f565b611a46565b6102826105973660046135ba565b611af1565b6102aa6105aa36600461336d565b611b1f565b6102aa6105bd36600461338f565b611bc2565b6104f6611c6d565b6102aa6105d8366004613204565b611d79565b6102aa6105eb3660046135e8565b611d99565b836105fa8161210e565b61061f5760405162461bcd60e51b815260040161061690613640565b60405180910390fd5b61062b85600033610904565b8061064a575061064a85600080516020613c1d83398151915233610904565b6106665760405162461bcd60e51b815260040161061690613677565b7f5f183d9cf5454d6fc91379ef5dce8b6a4543ec2c03a1d6376579c9a6949b2cb3858585853360405161069d9594939291906136c1565b60405180910390a15050505050565b60606000800180546106bd9061373b565b80601f01602080910402602001604051908101604052809291908181526020018280546106e99061373b565b80156107365780601f1061070b57610100808354040283529160200191610736565b820191906000526020600020905b81548152906001019060200180831161071957829003601f168201915b5050505050905090565b600061074b8261212b565b506000908152600460205260409020546001600160a01b031690565b600061077282610fd8565b9050806001600160a01b0316836001600160a01b0316036107df5760405162461bcd60e51b815260206004820152602160248201527f4552433732313a20617070726f76616c20746f2063757272656e74206f776e656044820152603960f91b6064820152608401610616565b336001600160a01b03821614806107fb57506107fb8133611af1565b61086d5760405162461bcd60e51b815260206004820152603e60248201527f4552433732313a20617070726f76652063616c6c6572206973206e6f7420746f60448201527f6b656e206f776e6572206e6f7220617070726f76656420666f7220616c6c00006064820152608401610616565b610877838361217e565b505050565b6060600c6000838152602001908152602001600020805480602002602001604051908101604052809291908181526020016000905b828210156108f9576000848152602090819020604080518082019091526002850290910180546001600160a01b031682526001908101548284015290835290920191016108b1565b505050509050919050565b6000928352600b602090815260408085209385529281528284206001600160a01b039290921684525290205460ff1690565b816109408161210e565b61095c5760405162461bcd60e51b815260040161061690613640565b61096883600033610904565b6109845760405162461bcd60e51b815260040161061690613775565b604080518481526001600160a01b038416602082015233918101919091527f9f54db3c6775e8717da6972b09a7ed552d62f5fd63696a1a75e58f61bd240193906060015b60405180910390a1505050565b816109df8161210e565b6109fb5760405162461bcd60e51b815260040161061690613640565b610a0783600033610904565b80610a265750610a2683600080516020613c1d83398151915233610904565b610a425760405162461bcd60e51b815260040161061690613677565b610a4c83836121ec565b6040518381527ff8e1a15aba9398e019f0b49df1a4fde98ee17ae345cb5f6b5e2c27f5033e8ce7906020016109c8565b610a863382612270565b610aa25760405162461bcd60e51b8152600401610616906137ac565b6108778383836122ce565b80610ab78161210e565b610ad35760405162461bcd60e51b815260040161061690613640565b610adf82600033610904565b80610afe5750610afe82600080516020613c1d83398151915233610904565b610b1a5760405162461bcd60e51b815260040161061690613677565b6040518281527fa4f54158d64aad2b971e0553dae4ee675d344a6878feb2e498aae9fed2fa5a2f906020015b60405180910390a15050565b6000828152600b602090815260408083208484529091529020600101545b92915050565b81610b808161210e565b610b9c5760405162461bcd60e51b815260040161061690613640565b610ba883600033610904565b80610bc75750610bc783600080516020613c1d83398151915233610904565b610be35760405162461bcd60e51b815260040161061690613677565b60408051848152602081018490527ff67e86d3ffc2c26729aac7f4e3e07e009ad076ace7cd9e9fc184fd452ac0cc8591016109c8565b61087783838360405180602001604052806000815250611831565b82610c3f8484610b52565b610c49828261246a565b610c54858585612475565b5050505050565b82610c658161210e565b610c815760405162461bcd60e51b815260040161061690613640565b610c8d84600033610904565b80610cac5750610cac84600080516020613c1d83398151915233610904565b610cc85760405162461bcd60e51b815260040161061690613677565b60408051858152602081018590529081018390523360608201527f2dcc6bceb950de206af8457a1b2083cbb47b6b70918a66be78ab4d128fee79f0906080015b60405180910390a150505050565b80610d208161210e565b610d3c5760405162461bcd60e51b815260040161061690613640565b610d4882600033610904565b610d645760405162461bcd60e51b815260040161061690613775565b600082815260096020908152604080832081516060810183528154815260018201546001600160a01b031681850152600282018054845181870281018701865281815292959394860193879084015b82821015610ed957838290600052602060002090600302016040518060600160405290816000820154815260200160018201805480602002602001604051908101604052809291908181526020018280548015610e2f57602002820191906000526020600020905b815481526020019060010190808311610e1b575b50505050508152602001600282018054610e489061373b565b80601f0160208091040260200160405190810160405280929190818152602001828054610e749061373b565b8015610ec15780601f10610e9657610100808354040283529160200191610ec1565b820191906000526020600020905b815481529060010190602001808311610ea457829003601f168201915b50505050508152505081526020019060010190610db3565b5050509152505060408101519091506000805b8251811015610f3b57828181518110610f0757610f076137fa565b60200260200101516020015151600003610f295781610f2581613826565b9250505b80610f3381613826565b915050610eec565b5080825114610f9c5760405162461bcd60e51b815260206004820152602760248201527f4576656e743a204576656e74206d757374206e6f74206861766520736f6c64206044820152667469636b65747360c81b6064820152608401610616565b60008581526009602052604081208181556001810180546001600160a01b031916905590610fcd6002830182612e9c565b5050610c5485612536565b6000818152600260205260408120546001600160a01b031680610b705760405162461bcd60e51b8152602060048201526018602482015277115490cdcc8c4e881a5b9d985b1a59081d1bdad95b88125160421b6044820152606401610616565b61104483600033610904565b6110605760405162461bcd60e51b815260040161061690613775565b610877838383611d79565b60006001600160a01b0382166110d55760405162461bcd60e51b815260206004820152602960248201527f4552433732313a2061646472657373207a65726f206973206e6f7420612076616044820152683634b21037bbb732b960b91b6064820152608401610616565b506001600160a01b031660009081526003602052604090205490565b6001600160a01b038116331461115f5760405162461bcd60e51b815260206004820152602d60248201527f526f6c65436f6e74726f6c3a2063616e206f6e6c792072656e6f756e6365207260448201526c37b632b9903337b91039b2b63360991b6064820152608401610616565b610877838383612475565b816111748161210e565b6111905760405162461bcd60e51b815260040161061690613640565b61119c83600033610904565b806111bb57506111bb83600080516020613c1d83398151915233610904565b6111d75760405162461bcd60e51b815260040161061690613677565b60408051848152602081018490527fbaa4fa805691a368b152481f5d9c567760b5459268d3429f9892ec43b5c5953591016109c8565b816112178161210e565b6112335760405162461bcd60e51b815260040161061690613640565b61123f83600033610904565b8061125e575061125e83600080516020613c1d83398151915233610904565b61127a5760405162461bcd60e51b815260040161061690613677565b611288600880546001019055565b600061129360085490565b6000858152600960209081526040808320815160608101835285815282518581528085018452818501908152928101899052600290910180546001808201835591865294849020825160039096020194855591518051959650909461130093928501929190910190612ebd565b5060408201516002820190611315908261388d565b5050507f2a94cd6b8e4219d087c43453e983d276c11f9ba16e547f01adb19edb60ae3c7d848285604051610d089392919061394d565b6060600060010180546106bd9061373b565b6002600e54036113af5760405162461bcd60e51b815260206004820152601f60248201527f5265656e7472616e637947756172643a207265656e7472616e742063616c6c006044820152606401610616565b6002600e556113c2600780546001019055565b60006113cd60075490565b600081815260096020526040908190208581556001810180546001600160a01b031916331790559051919250907f9ce3d6db707bca4ba0eabed8fba1e2c013a1c0bc1132a764170a7854d198c73d906114299084908690613975565b60405180910390a161143d82600033612604565b611447338361260f565b61145182846121ec565b50506001600e555050565b611467338383612742565b5050565b6000818152600960209081526040808320600201805482518185028101850190935280835260609492939192909184015b828210156108f95783829060005260206000209060030201604051806060016040529081600082015481526020016001820180548060200260200160405190810160405280929190818152602001828054801561151857602002820191906000526020600020905b815481526020019060010190808311611504575b505050505081526020016002820180546115319061373b565b80601f016020809104026020016040519081016040528092919081815260200182805461155d9061373b565b80156115aa5780601f1061157f576101008083540402835291602001916115aa565b820191906000526020600020905b81548152906001019060200180831161158d57829003601f168201915b5050505050815250508152602001906001019061149c565b826115cc8161210e565b6115e85760405162461bcd60e51b815260040161061690613640565b6115f484600033610904565b80611613575061161384600080516020613c1d83398151915233610904565b61162f5760405162461bcd60e51b815260040161061690613677565b6000848152600960205260409020600201805483919085908110611655576116556137fa565b90600052602060002090600302016002019081611672919061388d565b5060408051858152602081018590527f44df894581249b9c6cda25b6fe8239320be1641adde53f17479b4153cadfcc609101610d08565b606060006116b660075490565b905060008060015b838111611725576116d181600033610904565b806116f057506116f081600080516020613c1d83398151915233610904565b801561170057506117008161210e565b15611713578261170f81613826565b9350505b8061171d81613826565b9150506116be565b5060008267ffffffffffffffff81111561174157611741612fd9565b60405190808252806020026020018201604052801561176a578160200160208202803683370190505b50905060015b8481116117f55761178381600033610904565b806117a257506117a281600080516020613c1d83398151915233610904565b80156117b257506117b28161210e565b156117e357808284815181106117ca576117ca6137fa565b6020908102919091010152826117df81613826565b9350505b806117ed81613826565b915050611770565b50949350505050565b61180a83600033610904565b6118265760405162461bcd60e51b815260040161061690613775565b610877838383610c34565b61183b3383612270565b6118575760405162461bcd60e51b8152600401610616906137ac565b61186384848484612810565b50505050565b806118738161210e565b61188f5760405162461bcd60e51b815260040161061690613640565b61189b82600033610904565b806118ba57506118ba82600080516020613c1d83398151915233610904565b6118d65760405162461bcd60e51b815260040161061690613677565b6040518281527f5137e27888fb7f8000a76dda6b1f0c6365f53378d64dd9676d82a6888a50811090602001610b46565b60606119118261212b565b6000828152600660205260408120805461192a9061373b565b80601f01602080910402602001604051908101604052809291908181526020018280546119569061373b565b80156119a35780601f10611978576101008083540402835291602001916119a3565b820191906000526020600020905b81548152906001019060200180831161198657829003601f168201915b5050505050905060006119c160408051602081019091526000815290565b905080516000036119d3575092915050565b815115611a055780826040516020016119ed92919061398e565b60405160208183030381529060405292505050919050565b6000815111611a235760405180602001604052806000815250611a3e565b80611a2d85612843565b6040516020016119ed92919061398e565b949350505050565b82611a508161210e565b611a6c5760405162461bcd60e51b815260040161061690613640565b611a7884600033610904565b80611a975750611a9784600080516020613c1d83398151915233610904565b611ab35760405162461bcd60e51b815260040161061690613677565b60408051858152602081018590529081018390527f3a50fbe2fa0bdf2022fcd8fe2132970519fcf4df5cf97d78e86c510eb0805b6a90606001610d08565b6001600160a01b03918216600090815260056020908152604080832093909416825291909152205460ff1690565b81611b298161210e565b611b455760405162461bcd60e51b815260040161061690613640565b611b5183600033610904565b80611b705750611b7083600080516020613c1d83398151915233610904565b611b8c5760405162461bcd60e51b815260040161061690613677565b60408051848152602081018490527f7e40298160ac4a60b736c63fec6ed6fe71621205604304b21bcfa9d48d660be891016109c8565b82611bcc8161210e565b611be85760405162461bcd60e51b815260040161061690613640565b611bf484600033610904565b80611c135750611c1384600080516020613c1d83398151915233610904565b611c2f5760405162461bcd60e51b815260040161061690613677565b60408051858152602081018590529081018390527fb39ecd9af22a3fec10ec63455a79d572fdcfadf6a9005d5cd232b2829f958c7090606001610d08565b60606000611c7a60075490565b905060008060015b838111611cc9576000818152600960205260409020600101546001600160a01b031615611cb75782611cb381613826565b9350505b80611cc181613826565b915050611c82565b5060008267ffffffffffffffff811115611ce557611ce5612fd9565b604051908082528060200260200182016040528015611d0e578160200160208202803683370190505b50905060015b8481116117f5576000818152600960205260409020600101546001600160a01b031615611d675780828481518110611d4e57611d4e6137fa565b602090810291909101015282611d6381613826565b9350505b80611d7181613826565b915050611d14565b82611d848484610b52565b611d8e828261246a565b610c54858585612944565b83611da38161210e565b611dbf5760405162461bcd60e51b815260040161061690613640565b60008581526009602090815260408083208151606080820184528582529381018490529182019290925290916002830191819060005b8454811015611f5f5789858281548110611e1157611e116137fa565b90600052602060002090600302016000015403611f4d57848181548110611e3a57611e3a6137fa565b90600052602060002090600302016040518060600160405290816000820154815260200160018201805480602002602001604051908101604052809291908181526020018280548015611eac57602002820191906000526020600020905b815481526020019060010190808311611e98575b50505050508152602001600282018054611ec59061373b565b80601f0160208091040260200160405190810160405280929190818152602001828054611ef19061373b565b8015611f3e5780601f10611f1357610100808354040283529160200191611f3e565b820191906000526020600020905b815481529060010190602001808311611f2157829003601f168201915b50505050508152505091508092505b80611f5781613826565b915050611df5565b5060005b81602001515181101561203157600a546020830151805133926001600160a01b031691636352211e9185908110611f9c57611f9c6137fa565b60200260200101516040518263ffffffff1660e01b8152600401611fc291815260200190565b602060405180830381865afa158015611fdf573d6000803e3d6000fd5b505050506040513d601f19601f8201168201806040525081019061200391906139bd565b6001600160a01b03160361201f578361201b81613826565b9450505b8061202981613826565b915050611f63565b50600a546040516306a2c74f60e21b81526000916001600160a01b031690631a8b1d3c90612067908c908c9033906004016139da565b6020604051808303816000875af1158015612086573d6000803e3d6000fd5b505050506040513d601f19601f820116820180604052508101906120aa9190613a0d565b9050805b888111612100578660020184815481106120ca576120ca6137fa565b600091825260208083206001600390930201820180549283018155835290912001819055806120f881613826565b9150506120ae565b505050505050505050505050565b6000908152600260205260409020546001600160a01b0316151590565b6121348161210e565b61217b5760405162461bcd60e51b8152602060048201526018602482015277115490cdcc8c4e881a5b9d985b1a59081d1bdad95b88125160421b6044820152606401610616565b50565b600081815260046020526040902080546001600160a01b0319166001600160a01b03841690811790915581906121b382610fd8565b6001600160a01b03167f8c5be1e5ebec7d5bd14f71427d1e84f3dd0314c0f7b2291e5b200ac8c7c3b92560405160405180910390a45050565b6121f58261210e565b6122585760405162461bcd60e51b815260206004820152602e60248201527f45524337323155524953746f726167653a2055524920736574206f66206e6f6e60448201526d32bc34b9ba32b73a103a37b5b2b760911b6064820152608401610616565b6000828152600660205260409020610877828261388d565b60008061227c83610fd8565b9050806001600160a01b0316846001600160a01b031614806122a357506122a38185611af1565b80611a3e5750836001600160a01b03166122bc84610740565b6001600160a01b031614949350505050565b826001600160a01b03166122e182610fd8565b6001600160a01b0316146123455760405162461bcd60e51b815260206004820152602560248201527f4552433732313a207472616e736665722066726f6d20696e636f72726563742060448201526437bbb732b960d91b6064820152608401610616565b6001600160a01b0382166123a75760405162461bcd60e51b8152602060048201526024808201527f4552433732313a207472616e7366657220746f20746865207a65726f206164646044820152637265737360e01b6064820152608401610616565b6123b260008261217e565b6001600160a01b03831660009081526003602052604081208054600192906123db908490613a26565b90915550506001600160a01b0382166000908152600360205260408120805460019290612409908490613a39565b909155505060008181526002602052604080822080546001600160a01b0319166001600160a01b0386811691821790925591518493918716917fddf252ad1be2c89b69c2b068fc378daa952ba7f163c4a11628f55a4df523b3ef91a4505050565b611467828233612a48565b612480838383610904565b15610877576000838152600b6020908152604080832085845282528083206001600160a01b03851684528252808320805460ff19169055600d9091529020546124c98482612aac565b6001600160a01b0382166000908152600d6020526040812055336001600160a01b0316826001600160a01b0316847f7b00293d63517946aeba2f56c6b4c5dec87b67393ac48520994d3d8ce776335a8760405161252891815260200190565b60405180910390a450505050565b600061254182610fd8565b905061254e60008361217e565b6001600160a01b0381166000908152600360205260408120805460019290612577908490613a26565b909155505060008281526002602052604080822080546001600160a01b0319169055518391906001600160a01b038416907fddf252ad1be2c89b69c2b068fc378daa952ba7f163c4a11628f55a4df523b3ef908390a4600082815260066020526040902080546125e69061373b565b15905061146757600082815260066020526040812061146791612f08565b610877838383612944565b6001600160a01b0382166126655760405162461bcd60e51b815260206004820181905260248201527f4552433732313a206d696e7420746f20746865207a65726f20616464726573736044820152606401610616565b61266e8161210e565b156126bb5760405162461bcd60e51b815260206004820152601c60248201527f4552433732313a20746f6b656e20616c7265616479206d696e746564000000006044820152606401610616565b6001600160a01b03821660009081526003602052604081208054600192906126e4908490613a39565b909155505060008181526002602052604080822080546001600160a01b0319166001600160a01b03861690811790915590518392907fddf252ad1be2c89b69c2b068fc378daa952ba7f163c4a11628f55a4df523b3ef908290a45050565b816001600160a01b0316836001600160a01b0316036127a35760405162461bcd60e51b815260206004820152601960248201527f4552433732313a20617070726f766520746f2063616c6c6572000000000000006044820152606401610616565b6001600160a01b03838116600081815260056020908152604080832094871680845294825291829020805460ff191686151590811790915591519182527f17307eab39ab6107e8899845ad3d59bd9653f200f220920489ca2b5937696c31910160405180910390a3505050565b61281b8484846122ce565b61282784848484612b8f565b6118635760405162461bcd60e51b815260040161061690613a4c565b60608160000361286a5750506040805180820190915260018152600360fc1b602082015290565b8160005b8115612894578061287e81613826565b915061288d9050600a83613ab4565b915061286e565b60008167ffffffffffffffff8111156128af576128af612fd9565b6040519080825280601f01601f1916602001820160405280156128d9576020820181803683370190505b5090505b8415611a3e576128ee600183613a26565b91506128fb600a86613ac8565b612906906030613a39565b60f81b81838151811061291b5761291b6137fa565b60200101906001600160f81b031916908160001a90535061293d600a86613ab4565b94506128dd565b61294f838383610904565b610877576000838152600b6020908152604080832085845282528083206001600160a01b03858116808652918452828520805460ff1916600190811790915583518085018552928352828501888152898752600c865293862080548083018255818852958720845160029097020180546001600160a01b031916969093169590951782559251908301559286905290546129e99190613a26565b6001600160a01b0383166000908152600d6020526040902055336001600160a01b0316826001600160a01b0316847fd9dfff7752b7a810e2b646c0c96b76bc9ed817f6c6f7848bbe68163f7e8b43788760405161252891815260200190565b612a53838383610904565b61087757612a6081612c90565b612a6b836020612ca2565b612a7485612e45565b604051602001612a8693929190613adc565b60408051601f198184030181529082905262461bcd60e51b825261061691600401613154565b6000828152600c602052604090208054612ac890600190613a26565b81548110612ad857612ad86137fa565b9060005260206000209060020201600c60008481526020019081526020016000208281548110612b0a57612b0a6137fa565b60009182526020808320845460029093020180546001600160a01b0319166001600160a01b039093169290921782556001938401549390910192909255838152600c90915260409020805480612b6257612b62613b7e565b60008281526020812060026000199093019283020180546001600160a01b03191681556001015590555050565b60006001600160a01b0384163b15612c8557604051630a85bd0160e11b81526001600160a01b0385169063150b7a0290612bd3903390899088908890600401613b94565b6020604051808303816000875af1925050508015612c0e575060408051601f3d908101601f19168201909252612c0b91810190613bd1565b60015b612c6b573d808015612c3c576040519150601f19603f3d011682016040523d82523d6000602084013e612c41565b606091505b508051600003612c635760405162461bcd60e51b815260040161061690613a4c565b805181602001fd5b6001600160e01b031916630a85bd0160e11b149050611a3e565b506001949350505050565b6060610b706001600160a01b03831660145b60606000612cb1836002613bee565b612cbc906002613a39565b67ffffffffffffffff811115612cd457612cd4612fd9565b6040519080825280601f01601f191660200182016040528015612cfe576020820181803683370190505b509050600360fc1b81600081518110612d1957612d196137fa565b60200101906001600160f81b031916908160001a905350600f60fb1b81600181518110612d4857612d486137fa565b60200101906001600160f81b031916908160001a9053506000612d6c846002613bee565b612d77906001613a39565b90505b6001811115612def576f181899199a1a9b1b9c1cb0b131b232b360811b85600f1660108110612dab57612dab6137fa565b1a60f81b828281518110612dc157612dc16137fa565b60200101906001600160f81b031916908160001a90535060049490941c93612de881613c05565b9050612d7a565b508315612e3e5760405162461bcd60e51b815260206004820181905260248201527f537472696e67733a20686578206c656e67746820696e73756666696369656e746044820152606401610616565b9392505050565b606081600003612e6f5750506040805180820190915260048152630307830360e41b602082015290565b8160005b8115612e925780612e8381613826565b915050600882901c9150612e73565b611a3e8482612ca2565b508054600082556003029060005260206000209081019061217b9190612f42565b828054828255906000526020600020908101928215612ef8579160200282015b82811115612ef8578251825591602001919060010190612edd565b50612f04929150612f73565b5090565b508054612f149061373b565b6000825580601f10612f24575050565b601f01602090049060005260206000209081019061217b9190612f73565b80821115612f04576000808255612f5c6001830182612f88565b612f6a600283016000612f08565b50600301612f42565b5b80821115612f045760008155600101612f74565b508054600082559060005260206000209081019061217b9190612f73565b6001600160e01b03198116811461217b57600080fd5b600060208284031215612fce57600080fd5b8135612e3e81612fa6565b634e487b7160e01b600052604160045260246000fd5b604051601f8201601f1916810167ffffffffffffffff8111828210171561301857613018612fd9565b604052919050565b6001600160a01b038116811461217b57600080fd5b6000806000806080858703121561304b57600080fd5b84359350602080860135935060408601359250606086013567ffffffffffffffff8082111561307957600080fd5b818801915088601f83011261308d57600080fd5b81358181111561309f5761309f612fd9565b8060051b91506130b0848301612fef565b818152918301840191848101908b8411156130ca57600080fd5b938501935b838510156130f457843592506130e483613020565b82825293850193908501906130cf565b989b979a50959850505050505050565b60005b8381101561311f578181015183820152602001613107565b50506000910152565b60008151808452613140816020860160208601613104565b601f01601f19169290920160200192915050565b602081526000612e3e6020830184613128565b60006020828403121561317957600080fd5b5035919050565b6000806040838503121561319357600080fd5b823561319e81613020565b946020939093013593505050565b602080825282518282018190526000919060409081850190868401855b828110156131f757815180516001600160a01b031685528601518685015292840192908501906001016131c9565b5091979650505050505050565b60008060006060848603121561321957600080fd5b8335925060208401359150604084013561323281613020565b809150509250925092565b6000806040838503121561325057600080fd5b82359150602083013561326281613020565b809150509250929050565b600067ffffffffffffffff83111561328757613287612fd9565b61329a601f8401601f1916602001612fef565b90508281528383830111156132ae57600080fd5b828260208301376000602084830101529392505050565b600082601f8301126132d657600080fd5b612e3e8383356020850161326d565b600080604083850312156132f857600080fd5b82359150602083013567ffffffffffffffff81111561331657600080fd5b613322858286016132c5565b9150509250929050565b60008060006060848603121561334157600080fd5b833561334c81613020565b9250602084013561335c81613020565b929592945050506040919091013590565b6000806040838503121561338057600080fd5b50508035926020909101359150565b6000806000606084860312156133a457600080fd5b505081359360208301359350604090920135919050565b6000602082840312156133cd57600080fd5b8135612e3e81613020565b600080604083850312156133eb57600080fd5b82356133f681613020565b91506020830135801515811461326257600080fd5b600081518084526020808501945080840160005b8381101561343b5781518752958201959082019060010161341f565b509495945050505050565b60006020808301818452808551808352604092508286019150828160051b87010184880160005b838110156134c957603f19898403018552815160608151855288820151818a87015261349b8287018261340b565b915050878201519150848103888601526134b58183613128565b96890196945050509086019060010161346d565b509098975050505050505050565b6000806000606084860312156134ec57600080fd5b8335925060208401359150604084013567ffffffffffffffff81111561351157600080fd5b61351d868287016132c5565b9150509250925092565b602081526000612e3e602083018461340b565b6000806000806080858703121561355057600080fd5b843561355b81613020565b9350602085013561356b81613020565b925060408501359150606085013567ffffffffffffffff81111561358e57600080fd5b8501601f8101871361359f57600080fd5b6135ae8782356020840161326d565b91505092959194509250565b600080604083850312156135cd57600080fd5b82356135d881613020565b9150602083013561326281613020565b600080600080608085870312156135fe57600080fd5b8435935060208501359250604085013567ffffffffffffffff81111561362357600080fd5b61362f878288016132c5565b949793965093946060013593505050565b6020808252601c908201527f4576656e743a204576656e7420646f6573206e6f742065786973742100000000604082015260600190565b6020808252602a908201527f4576656e743a2043616c6c6572206973206e6f7420616e2061646d696e206f726040820152691036b7b232b930ba37b960b11b606082015260800190565b600060a082018783526020878185015286604085015260a0606085015281865180845260c086019150828801935060005b818110156137175784516001600160a01b0316835293830193918301916001016136f2565b50506001600160a01b03959095166080949094019390935250919695505050505050565b600181811c9082168061374f57607f821691505b60208210810361376f57634e487b7160e01b600052602260045260246000fd5b50919050565b6020808252601d908201527f4576656e743a2043616c6c6572206973206e6f7420616e2061646d696e000000604082015260600190565b6020808252602e908201527f4552433732313a2063616c6c6572206973206e6f7420746f6b656e206f776e6560408201526d1c881b9bdc88185c1c1c9bdd995960921b606082015260800190565b634e487b7160e01b600052603260045260246000fd5b634e487b7160e01b600052601160045260246000fd5b60006001820161383857613838613810565b5060010190565b601f82111561087757600081815260208120601f850160051c810160208610156138665750805b601f850160051c820191505b8181101561388557828155600101613872565b505050505050565b815167ffffffffffffffff8111156138a7576138a7612fd9565b6138bb816138b5845461373b565b8461383f565b602080601f8311600181146138f057600084156138d85750858301515b600019600386901b1c1916600185901b178555613885565b600085815260208120601f198616915b8281101561391f57888601518255948401946001909101908401613900565b508582101561393d5787850151600019600388901b60f8161c191681555b5050505050600190811b01905550565b83815282602082015260606040820152600061396c6060830184613128565b95945050505050565b828152604060208201526000611a3e6040830184613128565b600083516139a0818460208801613104565b8351908301906139b4818360208801613104565b01949350505050565b6000602082840312156139cf57600080fd5b8151612e3e81613020565b6060815260006139ed6060830186613128565b6020830194909452506001600160a01b0391909116604090910152919050565b600060208284031215613a1f57600080fd5b5051919050565b81810381811115610b7057610b70613810565b80820180821115610b7057610b70613810565b60208082526032908201527f4552433732313a207472616e7366657220746f206e6f6e20455243373231526560408201527131b2b4bb32b91034b6b83632b6b2b73a32b960711b606082015260800190565b634e487b7160e01b600052601260045260246000fd5b600082613ac357613ac3613a9e565b500490565b600082613ad757613ad7613a9e565b500690565b7402937b632a1b7b73a3937b61d1030b1b1b7bab73a1605d1b815260008451613b0c816015850160208901613104565b7001034b99036b4b9b9b4b733903937b6329607d1b6015918401918201528451613b3d816026840160208901613104565b720103337b91032bb32b73a103bb4ba341034b21606d1b602692909101918201528351613b71816039840160208801613104565b0160390195945050505050565b634e487b7160e01b600052603160045260246000fd5b6001600160a01b0385811682528416602082015260408101839052608060608201819052600090613bc790830184613128565b9695505050505050565b600060208284031215613be357600080fd5b8151612e3e81612fa6565b8082028115828204841417610b7057610b70613810565b600081613c1457613c14613810565b50600019019056fe71f3d55856e4058ed06ee057d79ada615f65cdf5f9ee88181b914225088f834fa2646970667358221220aa9d8a9e302d900a9db1eebfb04c210e0857810184bae1f91fcb8ba76a11995e64736f6c63430008110033",
  "linkReferences": {},
  "deployedLinkReferences": {}
}