{
  "_format": "hh-sol-artifact-1",
  "contractName": "EventFacet",
  "sourceName": "contracts/EventDiamond/facets/EventFacet.sol",
  "abi": [
    {
      "inputs": [
        {
          "internalType": "string",
          "name": "_name",
          "type": "string"
        },
        {
          "internalType": "string",
          "name": "_symbol",
          "type": "string"
        },
        {
          "internalType": "address",
          "name": "_ticketContract",
          "type": "address"
        }
      ],
      "stateMutability": "nonpayable",
      "type": "constructor"
    },
    {
      "anonymous": false,
      "inputs": [
        {
          "indexed": true,
          "internalType": "address",
          "name": "owner",
          "type": "address"
        },
        {
          "indexed": true,
          "internalType": "address",
          "name": "approved",
          "type": "address"
        },
        {
          "indexed": true,
          "internalType": "uint256",
          "name": "tokenId",
          "type": "uint256"
        }
      ],
      "name": "Approval",
      "type": "event"
    },
    {
      "anonymous": false,
      "inputs": [
        {
          "indexed": true,
          "internalType": "address",
          "name": "owner",
          "type": "address"
        },
        {
          "indexed": true,
          "internalType": "address",
          "name": "operator",
          "type": "address"
        },
        {
          "indexed": false,
          "internalType": "bool",
          "name": "approved",
          "type": "bool"
        }
      ],
      "name": "ApprovalForAll",
      "type": "event"
    },
    {
      "anonymous": false,
      "inputs": [
        {
          "indexed": false,
          "internalType": "uint256",
          "name": "_fromTokenId",
          "type": "uint256"
        },
        {
          "indexed": false,
          "internalType": "uint256",
          "name": "_toTokenId",
          "type": "uint256"
        }
      ],
      "name": "BatchMetadataUpdate",
      "type": "event"
    },
    {
      "anonymous": false,
      "inputs": [
        {
          "indexed": true,
          "internalType": "uint256",
          "name": "fromTokenId",
          "type": "uint256"
        },
        {
          "indexed": false,
          "internalType": "uint256",
          "name": "toTokenId",
          "type": "uint256"
        },
        {
          "indexed": true,
          "internalType": "address",
          "name": "fromAddress",
          "type": "address"
        },
        {
          "indexed": true,
          "internalType": "address",
          "name": "toAddress",
          "type": "address"
        }
      ],
      "name": "ConsecutiveTransfer",
      "type": "event"
    },
    {
      "anonymous": false,
      "inputs": [
        {
          "indexed": false,
          "internalType": "uint256",
          "name": "eventId",
          "type": "uint256"
        },
        {
          "indexed": false,
          "internalType": "string",
          "name": "metadataUri",
          "type": "string"
        }
      ],
      "name": "EventCreated",
      "type": "event"
    },
    {
      "anonymous": false,
      "inputs": [
        {
          "indexed": false,
          "internalType": "uint256",
          "name": "_tokenId",
          "type": "uint256"
        }
      ],
      "name": "MetadataUpdate",
      "type": "event"
    },
    {
      "anonymous": false,
      "inputs": [
        {
          "indexed": false,
          "internalType": "uint256",
          "name": "eventId",
          "type": "uint256"
        },
        {
          "indexed": true,
          "internalType": "bytes32",
          "name": "role",
          "type": "bytes32"
        },
        {
          "indexed": true,
          "internalType": "bytes32",
          "name": "previousAdminRole",
          "type": "bytes32"
        },
        {
          "indexed": true,
          "internalType": "bytes32",
          "name": "newAdminRole",
          "type": "bytes32"
        }
      ],
      "name": "RoleAdminChanged",
      "type": "event"
    },
    {
      "anonymous": false,
      "inputs": [
        {
          "indexed": false,
          "internalType": "uint256",
          "name": "eventId",
          "type": "uint256"
        },
        {
          "indexed": true,
          "internalType": "bytes32",
          "name": "role",
          "type": "bytes32"
        },
        {
          "indexed": true,
          "internalType": "address",
          "name": "account",
          "type": "address"
        },
        {
          "indexed": true,
          "internalType": "address",
          "name": "sender",
          "type": "address"
        }
      ],
      "name": "RoleGranted",
      "type": "event"
    },
    {
      "anonymous": false,
      "inputs": [
        {
          "indexed": false,
          "internalType": "uint256",
          "name": "eventId",
          "type": "uint256"
        },
        {
          "indexed": true,
          "internalType": "bytes32",
          "name": "role",
          "type": "bytes32"
        },
        {
          "indexed": true,
          "internalType": "address",
          "name": "account",
          "type": "address"
        },
        {
          "indexed": true,
          "internalType": "address",
          "name": "sender",
          "type": "address"
        }
      ],
      "name": "RoleRevoked",
      "type": "event"
    },
    {
      "anonymous": false,
      "inputs": [
        {
          "indexed": true,
          "internalType": "address",
          "name": "from",
          "type": "address"
        },
        {
          "indexed": true,
          "internalType": "address",
          "name": "to",
          "type": "address"
        },
        {
          "indexed": true,
          "internalType": "uint256",
          "name": "tokenId",
          "type": "uint256"
        }
      ],
      "name": "Transfer",
      "type": "event"
    },
    {
      "inputs": [],
      "name": "DEFAULT_ADMIN_ROLE",
      "outputs": [
        {
          "internalType": "bytes32",
          "name": "",
          "type": "bytes32"
        }
      ],
      "stateMutability": "view",
      "type": "function"
    },
    {
      "inputs": [],
      "name": "MODERATOR_ROLE",
      "outputs": [
        {
          "internalType": "bytes32",
          "name": "",
          "type": "bytes32"
        }
      ],
      "stateMutability": "view",
      "type": "function"
    },
    {
      "inputs": [],
      "name": "VALIDATOR_ROLE",
      "outputs": [
        {
          "internalType": "bytes32",
          "name": "",
          "type": "bytes32"
        }
      ],
      "stateMutability": "view",
      "type": "function"
    },
    {
      "inputs": [
        {
          "internalType": "uint256",
          "name": "_eventId",
          "type": "uint256"
        },
        {
          "internalType": "bytes32",
          "name": "_role",
          "type": "bytes32"
        },
        {
          "internalType": "address",
          "name": "_account",
          "type": "address"
        }
      ],
      "name": "addTeamMember",
      "outputs": [],
      "stateMutability": "nonpayable",
      "type": "function"
    },
    {
      "inputs": [
        {
          "internalType": "address",
          "name": "to",
          "type": "address"
        },
        {
          "internalType": "uint256",
          "name": "tokenId",
          "type": "uint256"
        }
      ],
      "name": "approve",
      "outputs": [],
      "stateMutability": "nonpayable",
      "type": "function"
    },
    {
      "inputs": [
        {
          "internalType": "address",
          "name": "owner",
          "type": "address"
        }
      ],
      "name": "balanceOf",
      "outputs": [
        {
          "internalType": "uint256",
          "name": "",
          "type": "uint256"
        }
      ],
      "stateMutability": "view",
      "type": "function"
    },
    {
      "inputs": [
        {
          "internalType": "uint256",
          "name": "_eventId",
          "type": "uint256"
        },
        {
          "internalType": "uint256",
          "name": "_categoryId",
          "type": "uint256"
        },
        {
          "internalType": "string",
          "name": "_ticketMetadataURI",
          "type": "string"
        },
        {
          "internalType": "uint256",
          "name": "amount",
          "type": "uint256"
        }
      ],
      "name": "buyTickets",
      "outputs": [],
      "stateMutability": "nonpayable",
      "type": "function"
    },
    {
      "inputs": [
        {
          "internalType": "uint256",
          "name": "_maxTicketsPerClient",
          "type": "uint256"
        },
        {
          "internalType": "string",
          "name": "_metadataURI",
          "type": "string"
        }
      ],
      "name": "createEvent",
      "outputs": [],
      "stateMutability": "nonpayable",
      "type": "function"
    },
    {
      "inputs": [
        {
          "internalType": "uint256",
          "name": "_eventId",
          "type": "uint256"
        },
        {
          "internalType": "string",
          "name": "_categoryCid",
          "type": "string"
        }
      ],
      "name": "createTicketCategory",
      "outputs": [],
      "stateMutability": "nonpayable",
      "type": "function"
    },
    {
      "inputs": [],
      "name": "fetchAllEventIds",
      "outputs": [
        {
          "internalType": "uint256[]",
          "name": "",
          "type": "uint256[]"
        }
      ],
      "stateMutability": "view",
      "type": "function"
    },
    {
      "inputs": [],
      "name": "fetchOwnedEvents",
      "outputs": [
        {
          "internalType": "uint256[]",
          "name": "",
          "type": "uint256[]"
        }
      ],
      "stateMutability": "view",
      "type": "function"
    },
    {
      "inputs": [
        {
          "internalType": "uint256",
          "name": "tokenId",
          "type": "uint256"
        }
      ],
      "name": "getApproved",
      "outputs": [
        {
          "internalType": "address",
          "name": "",
          "type": "address"
        }
      ],
      "stateMutability": "view",
      "type": "function"
    },
    {
      "inputs": [
        {
          "internalType": "uint256",
          "name": "_eventId",
          "type": "uint256"
        }
      ],
      "name": "getCategoriesByEventId",
      "outputs": [
        {
          "components": [
            {
              "internalType": "uint256",
              "name": "id",
              "type": "uint256"
            },
            {
              "internalType": "uint256[]",
              "name": "ticketIds",
              "type": "uint256[]"
            },
            {
              "internalType": "string",
              "name": "cid",
              "type": "string"
            }
          ],
          "internalType": "struct IEventTicketingSystem.Category[]",
          "name": "",
          "type": "tuple[]"
        }
      ],
      "stateMutability": "view",
      "type": "function"
    },
    {
      "inputs": [
        {
          "internalType": "uint256",
          "name": "eventId",
          "type": "uint256"
        }
      ],
      "name": "getEventMembers",
      "outputs": [
        {
          "components": [
            {
              "internalType": "address",
              "name": "account",
              "type": "address"
            },
            {
              "internalType": "bytes32",
              "name": "role",
              "type": "bytes32"
            }
          ],
          "internalType": "struct RoleControl.MemberData[]",
          "name": "",
          "type": "tuple[]"
        }
      ],
      "stateMutability": "view",
      "type": "function"
    },
    {
      "inputs": [
        {
          "internalType": "uint256",
          "name": "eventId",
          "type": "uint256"
        },
        {
          "internalType": "bytes32",
          "name": "role",
          "type": "bytes32"
        }
      ],
      "name": "getRoleAdmin",
      "outputs": [
        {
          "internalType": "bytes32",
          "name": "",
          "type": "bytes32"
        }
      ],
      "stateMutability": "view",
      "type": "function"
    },
    {
      "inputs": [
        {
          "internalType": "uint256",
          "name": "eventId",
          "type": "uint256"
        },
        {
          "internalType": "bytes32",
          "name": "role",
          "type": "bytes32"
        },
        {
          "internalType": "address",
          "name": "account",
          "type": "address"
        }
      ],
      "name": "grantRole",
      "outputs": [],
      "stateMutability": "nonpayable",
      "type": "function"
    },
    {
      "inputs": [
        {
          "internalType": "uint256",
          "name": "eventId",
          "type": "uint256"
        },
        {
          "internalType": "bytes32",
          "name": "role",
          "type": "bytes32"
        },
        {
          "internalType": "address",
          "name": "account",
          "type": "address"
        }
      ],
      "name": "hasRole",
      "outputs": [
        {
          "internalType": "bool",
          "name": "",
          "type": "bool"
        }
      ],
      "stateMutability": "view",
      "type": "function"
    },
    {
      "inputs": [
        {
          "internalType": "address",
          "name": "owner",
          "type": "address"
        },
        {
          "internalType": "address",
          "name": "operator",
          "type": "address"
        }
      ],
      "name": "isApprovedForAll",
      "outputs": [
        {
          "internalType": "bool",
          "name": "",
          "type": "bool"
        }
      ],
      "stateMutability": "view",
      "type": "function"
    },
    {
      "inputs": [],
      "name": "name",
      "outputs": [
        {
          "internalType": "string",
          "name": "",
          "type": "string"
        }
      ],
      "stateMutability": "view",
      "type": "function"
    },
    {
      "inputs": [
        {
          "internalType": "uint256",
          "name": "tokenId",
          "type": "uint256"
        }
      ],
      "name": "ownerOf",
      "outputs": [
        {
          "internalType": "address",
          "name": "",
          "type": "address"
        }
      ],
      "stateMutability": "view",
      "type": "function"
    },
    {
      "inputs": [
        {
          "internalType": "uint256",
          "name": "_eventId",
          "type": "uint256"
        }
      ],
      "name": "removeEvent",
      "outputs": [],
      "stateMutability": "nonpayable",
      "type": "function"
    },
    {
      "inputs": [
        {
          "internalType": "uint256",
          "name": "_eventId",
          "type": "uint256"
        },
        {
          "internalType": "bytes32",
          "name": "_role",
          "type": "bytes32"
        },
        {
          "internalType": "address",
          "name": "_account",
          "type": "address"
        }
      ],
      "name": "removeTeamMember",
      "outputs": [],
      "stateMutability": "nonpayable",
      "type": "function"
    },
    {
      "inputs": [
        {
          "internalType": "uint256",
          "name": "eventId",
          "type": "uint256"
        },
        {
          "internalType": "bytes32",
          "name": "role",
          "type": "bytes32"
        },
        {
          "internalType": "address",
          "name": "account",
          "type": "address"
        }
      ],
      "name": "renounceRole",
      "outputs": [],
      "stateMutability": "nonpayable",
      "type": "function"
    },
    {
      "inputs": [
        {
          "internalType": "uint256",
          "name": "eventId",
          "type": "uint256"
        },
        {
          "internalType": "bytes32",
          "name": "role",
          "type": "bytes32"
        },
        {
          "internalType": "address",
          "name": "account",
          "type": "address"
        }
      ],
      "name": "revokeRole",
      "outputs": [],
      "stateMutability": "nonpayable",
      "type": "function"
    },
    {
      "inputs": [
        {
          "internalType": "address",
          "name": "from",
          "type": "address"
        },
        {
          "internalType": "address",
          "name": "to",
          "type": "address"
        },
        {
          "internalType": "uint256",
          "name": "tokenId",
          "type": "uint256"
        }
      ],
      "name": "safeTransferFrom",
      "outputs": [],
      "stateMutability": "nonpayable",
      "type": "function"
    },
    {
      "inputs": [
        {
          "internalType": "address",
          "name": "from",
          "type": "address"
        },
        {
          "internalType": "address",
          "name": "to",
          "type": "address"
        },
        {
          "internalType": "uint256",
          "name": "tokenId",
          "type": "uint256"
        },
        {
          "internalType": "bytes",
          "name": "data",
          "type": "bytes"
        }
      ],
      "name": "safeTransferFrom",
      "outputs": [],
      "stateMutability": "nonpayable",
      "type": "function"
    },
    {
      "inputs": [
        {
          "internalType": "address",
          "name": "operator",
          "type": "address"
        },
        {
          "internalType": "bool",
          "name": "approved",
          "type": "bool"
        }
      ],
      "name": "setApprovalForAll",
      "outputs": [],
      "stateMutability": "nonpayable",
      "type": "function"
    },
    {
      "inputs": [
        {
          "internalType": "bytes4",
          "name": "interfaceId",
          "type": "bytes4"
        }
      ],
      "name": "supportsInterface",
      "outputs": [
        {
          "internalType": "bool",
          "name": "",
          "type": "bool"
        }
      ],
      "stateMutability": "view",
      "type": "function"
    },
    {
      "inputs": [],
      "name": "symbol",
      "outputs": [
        {
          "internalType": "string",
          "name": "",
          "type": "string"
        }
      ],
      "stateMutability": "view",
      "type": "function"
    },
    {
      "inputs": [
        {
          "internalType": "uint256",
          "name": "tokenId",
          "type": "uint256"
        }
      ],
      "name": "tokenURI",
      "outputs": [
        {
          "internalType": "string",
          "name": "",
          "type": "string"
        }
      ],
      "stateMutability": "view",
      "type": "function"
    },
    {
      "inputs": [
        {
          "internalType": "address",
          "name": "from",
          "type": "address"
        },
        {
          "internalType": "address",
          "name": "to",
          "type": "address"
        },
        {
          "internalType": "uint256",
          "name": "tokenId",
          "type": "uint256"
        }
      ],
      "name": "transferFrom",
      "outputs": [],
      "stateMutability": "nonpayable",
      "type": "function"
    },
    {
      "inputs": [
        {
          "internalType": "uint256",
          "name": "_eventId",
          "type": "uint256"
        },
        {
          "internalType": "string",
          "name": "_newMetadataURI",
          "type": "string"
        }
      ],
      "name": "updateEventTokenUri",
      "outputs": [],
      "stateMutability": "nonpayable",
      "type": "function"
    }
  ],
  "bytecode": "0x60806040523480156200001157600080fd5b50604051620034cf380380620034cf833981016040819052620000349162000149565b8282600062000044838262000265565b50600162000053828262000265565b50506001600a5550600d80546001600160a01b0319166001600160a01b039290921691909117905550620003319050565b634e487b7160e01b600052604160045260246000fd5b600082601f830112620000ac57600080fd5b81516001600160401b0380821115620000c957620000c962000084565b604051601f8301601f19908116603f01168101908282118183101715620000f457620000f462000084565b816040528381526020925086838588010111156200011157600080fd5b600091505b8382101562000135578582018301518183018401529082019062000116565b600093810190920192909252949350505050565b6000806000606084860312156200015f57600080fd5b83516001600160401b03808211156200017757600080fd5b62000185878388016200009a565b945060208601519150808211156200019c57600080fd5b50620001ab868287016200009a565b604086015190935090506001600160a01b0381168114620001cb57600080fd5b809150509250925092565b600181811c90821680620001eb57607f821691505b6020821081036200020c57634e487b7160e01b600052602260045260246000fd5b50919050565b601f8211156200026057600081815260208120601f850160051c810160208610156200023b5750805b601f850160051c820191505b818110156200025c5782815560010162000247565b5050505b505050565b81516001600160401b0381111562000281576200028162000084565b6200029981620002928454620001d6565b8462000212565b602080601f831160018114620002d15760008415620002b85750858301515b600019600386901b1c1916600185901b1785556200025c565b600085815260208120601f198616915b828110156200030257888601518255948401946001909101908401620002e1565b5085821015620003215787850151600019600388901b60f8161c191681555b5050505050600190811b01905550565b61318e80620003416000396000f3fe608060405234801561001057600080fd5b50600436106101f05760003560e01c806373a639381161010f578063b0155544116100a2578063e985e9c511610071578063e985e9c514610465578063f99c229214610478578063fb42204d14610480578063fc3291a61461049357600080fd5b8063b015554414610405578063b88d4fde14610418578063c49baebe1461042b578063c87b56dd1461045257600080fd5b8063a217fddf116100de578063a217fddf146103b5578063a22cb465146103bd578063a4df4106146103d0578063abae6af9146103f057600080fd5b806373a6393814610372578063797669c91461038557806395d89b411461039a578063a1d255e1146103a257600080fd5b8063397d4dbc116101875780636352211e116101565780636352211e146103265780636a4bc7de1461033957806370a082311461034c578063724bdedf1461035f57600080fd5b8063397d4dbc146102cc57806342842e0e146102ed5780634a120dd71461030057806356164e1e1461031357600080fd5b80630e1b943d116101c35780630e1b943d14610273578063119345aa146102935780632053d82c146102a657806323b872dd146102b957600080fd5b806301ffc9a7146101f557806306fdde031461021e578063081812fc14610233578063095ea7b31461025e575b600080fd5b61020961020336600461271e565b50600090565b60405190151581526020015b60405180910390f35b6102266104a6565b604051610215919061278b565b61024661024136600461279e565b61053a565b6040516001600160a01b039091168152602001610215565b61027161026c3660046127cc565b610561565b005b61028661028136600461279e565b61067b565b60405161021591906127f8565b6102096102a1366004612850565b610703565b6102716102b4366004612935565b610735565b6102716102c736600461297c565b61083a565b6102df6102da3660046129bd565b61086b565b604051908152602001610215565b6102716102fb36600461297c565b61088f565b61027161030e366004612850565b6108aa565b61027161032136600461279e565b6108d1565b61024661033436600461279e565b610ba2565b610271610347366004612850565b610c02565b6102df61035a3660046129df565b610c35565b61027161036d366004612850565b610cbb565b610271610380366004612935565b610d34565b6102df60008051602061313983398151915281565b610226610e23565b6102716103b0366004612935565b610e35565b6102df600081565b6102716103cb3660046129fc565b610f34565b6103e36103de36600461279e565b610f43565b6040516102159190612a75565b6103f86110a1565b6040516102159190612b06565b610271610413366004612850565b6111f6565b610271610426366004612b19565b611229565b6102df7f21702c8af46127c7fa207f89d0b0a8441bb32959a0ac7df790e9ab1a25c9892681565b61022661046036600461279e565b611261565b610209610473366004612b99565b6113a1565b6103f86113cf565b61027161048e366004612850565b6114db565b6102716104a1366004612bc7565b6114fb565b60606000800180546104b790612c1f565b80601f01602080910402602001604051908101604052809291908181526020018280546104e390612c1f565b80156105305780601f1061050557610100808354040283529160200191610530565b820191906000526020600020905b81548152906001019060200180831161051357829003601f168201915b5050505050905090565b600061054582611870565b506000908152600460205260409020546001600160a01b031690565b600061056c82610ba2565b9050806001600160a01b0316836001600160a01b0316036105de5760405162461bcd60e51b815260206004820152602160248201527f4552433732313a20617070726f76616c20746f2063757272656e74206f776e656044820152603960f91b60648201526084015b60405180910390fd5b336001600160a01b03821614806105fa57506105fa81336113a1565b61066c5760405162461bcd60e51b815260206004820152603e60248201527f4552433732313a20617070726f76652063616c6c6572206973206e6f7420746f60448201527f6b656e206f776e6572206e6f7220617070726f76656420666f7220616c6c000060648201526084016105d5565b61067683836118c3565b505050565b606060086000838152602001908152602001600020805480602002602001604051908101604052809291908181526020016000905b828210156106f8576000848152602090819020604080518082019091526002850290910180546001600160a01b031682526001908101548284015290835290920191016106b0565b505050509050919050565b60009283526007602090815260408085209385529281528284206001600160a01b039290921684525290205460ff1690565b8161073f81611931565b61075b5760405162461bcd60e51b81526004016105d590612c59565b61076783600033610703565b8061078657506107868360008051602061313983398151915233610703565b6107f85760405162461bcd60e51b815260206004820152603960248201527f4576656e745469636b6574696e6753797374656d3a2043616c6c65722069732060448201527f6e6f7420616e2061646d696e206f72206d6f64657261746f720000000000000060648201526084016105d5565b610802838361194e565b6040518381527ff8e1a15aba9398e019f0b49df1a4fde98ee17ae345cb5f6b5e2c27f5033e8ce79060200160405180910390a1505050565b61084433826119d2565b6108605760405162461bcd60e51b81526004016105d590612ca4565b610676838383611a30565b60008281526007602090815260408083208484529091529020600101545b92915050565b61067683838360405180602001604052806000815250611229565b826108b5848461086b565b6108bf8282611bcc565b6108ca858585611bd7565b5050505050565b806108db81611931565b6108f75760405162461bcd60e51b81526004016105d590612c59565b61090382600033610703565b61091f5760405162461bcd60e51b81526004016105d590612cf2565b6000828152600c6020908152604080832081516060810183528154815260018201546001600160a01b031681850152600282018054845181870281018701865281815292959394860193879084015b82821015610a94578382906000526020600020906003020160405180606001604052908160008201548152602001600182018054806020026020016040519081016040528092919081815260200182805480156109ea57602002820191906000526020600020905b8154815260200190600101908083116109d6575b50505050508152602001600282018054610a0390612c1f565b80601f0160208091040260200160405190810160405280929190818152602001828054610a2f90612c1f565b8015610a7c5780601f10610a5157610100808354040283529160200191610a7c565b820191906000526020600020905b815481529060010190602001808311610a5f57829003601f168201915b5050505050815250508152602001906001019061096e565b5050509152505060408101519091506000805b8251811015610af657828181518110610ac257610ac2612d3e565b60200260200101516020015151600003610ae45781610ae081612d6a565b9250505b80610aee81612d6a565b915050610aa7565b5080825114610b665760405162461bcd60e51b815260206004820152603660248201527f4576656e745469636b6574696e6753797374656d3a204576656e74206d757374604482015275206e6f74206861766520736f6c64207469636b65747360501b60648201526084016105d5565b6000858152600c602052604081208181556001810180546001600160a01b031916905590610b9760028301826125fe565b50506108ca85611c98565b6000818152600260205260408120546001600160a01b0316806108895760405162461bcd60e51b8152602060048201526018602482015277115490cdcc8c4e881a5b9d985b1a59081d1bdad95b88125160421b60448201526064016105d5565b610c0e83600033610703565b610c2a5760405162461bcd60e51b81526004016105d590612cf2565b6106768383836114db565b60006001600160a01b038216610c9f5760405162461bcd60e51b815260206004820152602960248201527f4552433732313a2061646472657373207a65726f206973206e6f7420612076616044820152683634b21037bbb732b960b91b60648201526084016105d5565b506001600160a01b031660009081526003602052604090205490565b6001600160a01b0381163314610d295760405162461bcd60e51b815260206004820152602d60248201527f526f6c65436f6e74726f6c3a2063616e206f6e6c792072656e6f756e6365207260448201526c37b632b9903337b91039b2b63360991b60648201526084016105d5565b610676838383611bd7565b6000828152600c602052604081206002810154909190610d55906001612d83565b9050600c60008581526020019081526020016000206002016040518060600160405280838152602001600067ffffffffffffffff811115610d9857610d98612889565b604051908082528060200260200182016040528015610dc1578160200160208202803683370190505b5081526020908101869052825460018181018555600094855293829020835160039092020190815582820151805193949193610e059392850192919091019061261f565b5060408201516002820190610e1a9082612de4565b50505050505050565b6060600060010180546104b790612c1f565b6002600a5403610e875760405162461bcd60e51b815260206004820152601f60248201527f5265656e7472616e637947756172643a207265656e7472616e742063616c6c0060448201526064016105d5565b6002600a55610e9a600b80546001019055565b6000610ea5600b5490565b6000818152600c602052604081208581556001810180546001600160a01b0319163390811790915592935091610edc918491611d66565b610ee63383611d71565b610ef0828461194e565b7f9ce3d6db707bca4ba0eabed8fba1e2c013a1c0bc1132a764170a7854d198c73d8284604051610f21929190612ea4565b60405180910390a150506001600a555050565b610f3f338383611ea4565b5050565b6060600c6000838152602001908152602001600020600201805480602002602001604051908101604052809291908181526020016000905b828210156106f857838290600052602060002090600302016040518060600160405290816000820154815260200160018201805480602002602001604051908101604052809291908181526020018280548015610ff757602002820191906000526020600020905b815481526020019060010190808311610fe3575b5050505050815260200160028201805461101090612c1f565b80601f016020809104026020016040519081016040528092919081815260200182805461103c90612c1f565b80156110895780601f1061105e57610100808354040283529160200191611089565b820191906000526020600020905b81548152906001019060200180831161106c57829003601f168201915b50505050508152505081526020019060010190610f7b565b606060006110ae600b5490565b905060008060015b83811161111d576110c981600033610703565b806110e857506110e88160008051602061313983398151915233610703565b80156110f857506110f881611931565b1561110b578261110781612d6a565b9350505b8061111581612d6a565b9150506110b6565b5060008267ffffffffffffffff81111561113957611139612889565b604051908082528060200260200182016040528015611162578160200160208202803683370190505b50905060015b8481116111ed5761117b81600033610703565b8061119a575061119a8160008051602061313983398151915233610703565b80156111aa57506111aa81611931565b156111db57808284815181106111c2576111c2612d3e565b6020908102919091010152826111d781612d6a565b9350505b806111e581612d6a565b915050611168565b50949350505050565b61120283600033610703565b61121e5760405162461bcd60e51b81526004016105d590612cf2565b6106768383836108aa565b61123333836119d2565b61124f5760405162461bcd60e51b81526004016105d590612ca4565b61125b84848484611f72565b50505050565b606061126c82611870565b6000828152600660205260408120805461128590612c1f565b80601f01602080910402602001604051908101604052809291908181526020018280546112b190612c1f565b80156112fe5780601f106112d3576101008083540402835291602001916112fe565b820191906000526020600020905b8154815290600101906020018083116112e157829003601f168201915b50505050509050600061131c60408051602081019091526000815290565b9050805160000361132e575092915050565b815115611360578082604051602001611348929190612ebd565b60405160208183030381529060405292505050919050565b600081511161137e5760405180602001604052806000815250611399565b8061138885611fa5565b604051602001611348929190612ebd565b949350505050565b6001600160a01b03918216600090815260056020908152604080832093909416825291909152205460ff1690565b606060006113dc600b5490565b905060008060015b83811161142b576000818152600c60205260409020600101546001600160a01b031615611419578261141581612d6a565b9350505b8061142381612d6a565b9150506113e4565b5060008267ffffffffffffffff81111561144757611447612889565b604051908082528060200260200182016040528015611470578160200160208202803683370190505b50905060015b8481116111ed576000818152600c60205260409020600101546001600160a01b0316156114c957808284815181106114b0576114b0612d3e565b6020908102919091010152826114c581612d6a565b9350505b806114d381612d6a565b915050611476565b826114e6848461086b565b6114f08282611bcc565b6108ca8585856120a6565b8361150581611931565b6115215760405162461bcd60e51b81526004016105d590612c59565b6000858152600c602090815260408083208151606080820184528582529381018490529182019290925290916002830191819060005b84548110156116c1578985828154811061157357611573612d3e565b906000526020600020906003020160000154036116af5784818154811061159c5761159c612d3e565b9060005260206000209060030201604051806060016040529081600082015481526020016001820180548060200260200160405190810160405280929190818152602001828054801561160e57602002820191906000526020600020905b8154815260200190600101908083116115fa575b5050505050815260200160028201805461162790612c1f565b80601f016020809104026020016040519081016040528092919081815260200182805461165390612c1f565b80156116a05780601f10611675576101008083540402835291602001916116a0565b820191906000526020600020905b81548152906001019060200180831161168357829003601f168201915b50505050508152505091508092505b806116b981612d6a565b915050611557565b5060005b81602001515181101561179357600d546020830151805133926001600160a01b031691636352211e91859081106116fe576116fe612d3e565b60200260200101516040518263ffffffff1660e01b815260040161172491815260200190565b602060405180830381865afa158015611741573d6000803e3d6000fd5b505050506040513d601f19601f820116820180604052508101906117659190612eec565b6001600160a01b031603611781578361177d81612d6a565b9450505b8061178b81612d6a565b9150506116c5565b50600d546040516306a2c74f60e21b81526000916001600160a01b031690631a8b1d3c906117c9908c908c903390600401612f09565b6020604051808303816000875af11580156117e8573d6000803e3d6000fd5b505050506040513d601f19601f8201168201806040525081019061180c9190612f3c565b9050805b8881116118625786600201848154811061182c5761182c612d3e565b6000918252602080832060016003909302018201805492830181558352909120018190558061185a81612d6a565b915050611810565b505050505050505050505050565b61187981611931565b6118c05760405162461bcd60e51b8152602060048201526018602482015277115490cdcc8c4e881a5b9d985b1a59081d1bdad95b88125160421b60448201526064016105d5565b50565b600081815260046020526040902080546001600160a01b0319166001600160a01b03841690811790915581906118f882610ba2565b6001600160a01b03167f8c5be1e5ebec7d5bd14f71427d1e84f3dd0314c0f7b2291e5b200ac8c7c3b92560405160405180910390a45050565b6000908152600260205260409020546001600160a01b0316151590565b61195782611931565b6119ba5760405162461bcd60e51b815260206004820152602e60248201527f45524337323155524953746f726167653a2055524920736574206f66206e6f6e60448201526d32bc34b9ba32b73a103a37b5b2b760911b60648201526084016105d5565b60008281526006602052604090206106768282612de4565b6000806119de83610ba2565b9050806001600160a01b0316846001600160a01b03161480611a055750611a0581856113a1565b806113995750836001600160a01b0316611a1e8461053a565b6001600160a01b031614949350505050565b826001600160a01b0316611a4382610ba2565b6001600160a01b031614611aa75760405162461bcd60e51b815260206004820152602560248201527f4552433732313a207472616e736665722066726f6d20696e636f72726563742060448201526437bbb732b960d91b60648201526084016105d5565b6001600160a01b038216611b095760405162461bcd60e51b8152602060048201526024808201527f4552433732313a207472616e7366657220746f20746865207a65726f206164646044820152637265737360e01b60648201526084016105d5565b611b146000826118c3565b6001600160a01b0383166000908152600360205260408120805460019290611b3d908490612f55565b90915550506001600160a01b0382166000908152600360205260408120805460019290611b6b908490612d83565b909155505060008181526002602052604080822080546001600160a01b0319166001600160a01b0386811691821790925591518493918716917fddf252ad1be2c89b69c2b068fc378daa952ba7f163c4a11628f55a4df523b3ef91a4505050565b610f3f8282336121aa565b611be2838383610703565b1561067657600083815260076020908152604080832085845282528083206001600160a01b03851684528252808320805460ff191690556009909152902054611c2b848261220e565b6001600160a01b038216600090815260096020526040812055336001600160a01b0316826001600160a01b0316847f7b00293d63517946aeba2f56c6b4c5dec87b67393ac48520994d3d8ce776335a87604051611c8a91815260200190565b60405180910390a450505050565b6000611ca382610ba2565b9050611cb06000836118c3565b6001600160a01b0381166000908152600360205260408120805460019290611cd9908490612f55565b909155505060008281526002602052604080822080546001600160a01b0319169055518391906001600160a01b038416907fddf252ad1be2c89b69c2b068fc378daa952ba7f163c4a11628f55a4df523b3ef908390a460008281526006602052604090208054611d4890612c1f565b159050610f3f576000828152600660205260408120610f3f9161266a565b6106768383836120a6565b6001600160a01b038216611dc75760405162461bcd60e51b815260206004820181905260248201527f4552433732313a206d696e7420746f20746865207a65726f206164647265737360448201526064016105d5565b611dd081611931565b15611e1d5760405162461bcd60e51b815260206004820152601c60248201527f4552433732313a20746f6b656e20616c7265616479206d696e7465640000000060448201526064016105d5565b6001600160a01b0382166000908152600360205260408120805460019290611e46908490612d83565b909155505060008181526002602052604080822080546001600160a01b0319166001600160a01b03861690811790915590518392907fddf252ad1be2c89b69c2b068fc378daa952ba7f163c4a11628f55a4df523b3ef908290a45050565b816001600160a01b0316836001600160a01b031603611f055760405162461bcd60e51b815260206004820152601960248201527f4552433732313a20617070726f766520746f2063616c6c65720000000000000060448201526064016105d5565b6001600160a01b03838116600081815260056020908152604080832094871680845294825291829020805460ff191686151590811790915591519182527f17307eab39ab6107e8899845ad3d59bd9653f200f220920489ca2b5937696c31910160405180910390a3505050565b611f7d848484611a30565b611f89848484846122f1565b61125b5760405162461bcd60e51b81526004016105d590612f68565b606081600003611fcc5750506040805180820190915260018152600360fc1b602082015290565b8160005b8115611ff65780611fe081612d6a565b9150611fef9050600a83612fd0565b9150611fd0565b60008167ffffffffffffffff81111561201157612011612889565b6040519080825280601f01601f19166020018201604052801561203b576020820181803683370190505b5090505b841561139957612050600183612f55565b915061205d600a86612fe4565b612068906030612d83565b60f81b81838151811061207d5761207d612d3e565b60200101906001600160f81b031916908160001a90535061209f600a86612fd0565b945061203f565b6120b1838383610703565b61067657600083815260076020908152604080832085845282528083206001600160a01b03858116808652918452828520805460ff19166001908117909155835180850185529283528285018881528987526008865293862080548083018255818852958720845160029097020180546001600160a01b0319169690931695909517825592519083015592869052905461214b9190612f55565b6001600160a01b038316600090815260096020526040902055336001600160a01b0316826001600160a01b0316847fd9dfff7752b7a810e2b646c0c96b76bc9ed817f6c6f7848bbe68163f7e8b437887604051611c8a91815260200190565b6121b5838383610703565b610676576121c2816123f2565b6121cd836020612404565b6121d6856125a7565b6040516020016121e893929190612ff8565b60408051601f198184030181529082905262461bcd60e51b82526105d59160040161278b565b6000828152600860205260409020805461222a90600190612f55565b8154811061223a5761223a612d3e565b906000526020600020906002020160086000848152602001908152602001600020828154811061226c5761226c612d3e565b60009182526020808320845460029093020180546001600160a01b0319166001600160a01b0390931692909217825560019384015493909101929092558381526008909152604090208054806122c4576122c461309a565b60008281526020812060026000199093019283020180546001600160a01b03191681556001015590555050565b60006001600160a01b0384163b156123e757604051630a85bd0160e11b81526001600160a01b0385169063150b7a02906123359033908990889088906004016130b0565b6020604051808303816000875af1925050508015612370575060408051601f3d908101601f1916820190925261236d918101906130ed565b60015b6123cd573d80801561239e576040519150601f19603f3d011682016040523d82523d6000602084013e6123a3565b606091505b5080516000036123c55760405162461bcd60e51b81526004016105d590612f68565b805181602001fd5b6001600160e01b031916630a85bd0160e11b149050611399565b506001949350505050565b60606108896001600160a01b03831660145b6060600061241383600261310a565b61241e906002612d83565b67ffffffffffffffff81111561243657612436612889565b6040519080825280601f01601f191660200182016040528015612460576020820181803683370190505b509050600360fc1b8160008151811061247b5761247b612d3e565b60200101906001600160f81b031916908160001a905350600f60fb1b816001815181106124aa576124aa612d3e565b60200101906001600160f81b031916908160001a90535060006124ce84600261310a565b6124d9906001612d83565b90505b6001811115612551576f181899199a1a9b1b9c1cb0b131b232b360811b85600f166010811061250d5761250d612d3e565b1a60f81b82828151811061252357612523612d3e565b60200101906001600160f81b031916908160001a90535060049490941c9361254a81613121565b90506124dc565b5083156125a05760405162461bcd60e51b815260206004820181905260248201527f537472696e67733a20686578206c656e67746820696e73756666696369656e7460448201526064016105d5565b9392505050565b6060816000036125d15750506040805180820190915260048152630307830360e41b602082015290565b8160005b81156125f457806125e581612d6a565b915050600882901c91506125d5565b6113998482612404565b50805460008255600302906000526020600020908101906118c091906126a4565b82805482825590600052602060002090810192821561265a579160200282015b8281111561265a57825182559160200191906001019061263f565b506126669291506126d5565b5090565b50805461267690612c1f565b6000825580601f10612686575050565b601f0160209004906000526020600020908101906118c091906126d5565b808211156126665760008082556126be60018301826126ea565b6126cc60028301600061266a565b506003016126a4565b5b8082111561266657600081556001016126d6565b50805460008255906000526020600020908101906118c091906126d5565b6001600160e01b0319811681146118c057600080fd5b60006020828403121561273057600080fd5b81356125a081612708565b60005b8381101561275657818101518382015260200161273e565b50506000910152565b6000815180845261277781602086016020860161273b565b601f01601f19169290920160200192915050565b6020815260006125a0602083018461275f565b6000602082840312156127b057600080fd5b5035919050565b6001600160a01b03811681146118c057600080fd5b600080604083850312156127df57600080fd5b82356127ea816127b7565b946020939093013593505050565b602080825282518282018190526000919060409081850190868401855b8281101561284357815180516001600160a01b03168552860151868501529284019290850190600101612815565b5091979650505050505050565b60008060006060848603121561286557600080fd5b8335925060208401359150604084013561287e816127b7565b809150509250925092565b634e487b7160e01b600052604160045260246000fd5b600067ffffffffffffffff808411156128ba576128ba612889565b604051601f8501601f19908116603f011681019082821181831017156128e2576128e2612889565b816040528093508581528686860111156128fb57600080fd5b858560208301376000602087830101525050509392505050565b600082601f83011261292657600080fd5b6125a08383356020850161289f565b6000806040838503121561294857600080fd5b82359150602083013567ffffffffffffffff81111561296657600080fd5b61297285828601612915565b9150509250929050565b60008060006060848603121561299157600080fd5b833561299c816127b7565b925060208401356129ac816127b7565b929592945050506040919091013590565b600080604083850312156129d057600080fd5b50508035926020909101359150565b6000602082840312156129f157600080fd5b81356125a0816127b7565b60008060408385031215612a0f57600080fd5b8235612a1a816127b7565b915060208301358015158114612a2f57600080fd5b809150509250929050565b600081518084526020808501945080840160005b83811015612a6a57815187529582019590820190600101612a4e565b509495945050505050565b60006020808301818452808551808352604092508286019150828160051b87010184880160005b83811015612af857603f19898403018552815160608151855288820151818a870152612aca82870182612a3a565b91505087820151915084810388860152612ae4818361275f565b968901969450505090860190600101612a9c565b509098975050505050505050565b6020815260006125a06020830184612a3a565b60008060008060808587031215612b2f57600080fd5b8435612b3a816127b7565b93506020850135612b4a816127b7565b925060408501359150606085013567ffffffffffffffff811115612b6d57600080fd5b8501601f81018713612b7e57600080fd5b612b8d8782356020840161289f565b91505092959194509250565b60008060408385031215612bac57600080fd5b8235612bb7816127b7565b91506020830135612a2f816127b7565b60008060008060808587031215612bdd57600080fd5b8435935060208501359250604085013567ffffffffffffffff811115612c0257600080fd5b612c0e87828801612915565b949793965093946060013593505050565b600181811c90821680612c3357607f821691505b602082108103612c5357634e487b7160e01b600052602260045260246000fd5b50919050565b6020808252602b908201527f4576656e745469636b6574696e6753797374656d3a204576656e7420646f657360408201526a206e6f742065786973742160a81b606082015260800190565b6020808252602e908201527f4552433732313a2063616c6c6572206973206e6f7420746f6b656e206f776e6560408201526d1c881b9bdc88185c1c1c9bdd995960921b606082015260800190565b6020808252602c908201527f4576656e745469636b6574696e6753797374656d3a2043616c6c65722069732060408201526b3737ba1030b71030b236b4b760a11b606082015260800190565b634e487b7160e01b600052603260045260246000fd5b634e487b7160e01b600052601160045260246000fd5b600060018201612d7c57612d7c612d54565b5060010190565b8082018082111561088957610889612d54565b601f82111561067657600081815260208120601f850160051c81016020861015612dbd5750805b601f850160051c820191505b81811015612ddc57828155600101612dc9565b505050505050565b815167ffffffffffffffff811115612dfe57612dfe612889565b612e1281612e0c8454612c1f565b84612d96565b602080601f831160018114612e475760008415612e2f5750858301515b600019600386901b1c1916600185901b178555612ddc565b600085815260208120601f198616915b82811015612e7657888601518255948401946001909101908401612e57565b5085821015612e945787850151600019600388901b60f8161c191681555b5050505050600190811b01905550565b828152604060208201526000611399604083018461275f565b60008351612ecf81846020880161273b565b835190830190612ee381836020880161273b565b01949350505050565b600060208284031215612efe57600080fd5b81516125a0816127b7565b606081526000612f1c606083018661275f565b6020830194909452506001600160a01b0391909116604090910152919050565b600060208284031215612f4e57600080fd5b5051919050565b8181038181111561088957610889612d54565b60208082526032908201527f4552433732313a207472616e7366657220746f206e6f6e20455243373231526560408201527131b2b4bb32b91034b6b83632b6b2b73a32b960711b606082015260800190565b634e487b7160e01b600052601260045260246000fd5b600082612fdf57612fdf612fba565b500490565b600082612ff357612ff3612fba565b500690565b7402937b632a1b7b73a3937b61d1030b1b1b7bab73a1605d1b81526000845161302881601585016020890161273b565b7001034b99036b4b9b9b4b733903937b6329607d1b601591840191820152845161305981602684016020890161273b565b720103337b91032bb32b73a103bb4ba341034b21606d1b60269290910191820152835161308d81603984016020880161273b565b0160390195945050505050565b634e487b7160e01b600052603160045260246000fd5b6001600160a01b03858116825284166020820152604081018390526080606082018190526000906130e39083018461275f565b9695505050505050565b6000602082840312156130ff57600080fd5b81516125a081612708565b808202811582820484141761088957610889612d54565b60008161313057613130612d54565b50600019019056fe71f3d55856e4058ed06ee057d79ada615f65cdf5f9ee88181b914225088f834fa2646970667358221220dac90673269a7a7d4d26842c5f06d4516f719dee5b6288fc1c44ccb0fe56e17c64736f6c63430008110033",
  "linkReferences": {},
  "deployedLinkReferences": {}
}