{
  "_format": "hh-sol-artifact-1",
  "contractName": "EventFacet",
  "sourceName": "contracts/EventDiamond/facets/EventFacet.sol",
  "abi": [
    {
      "anonymous": false,
      "inputs": [
        {
          "indexed": false,
          "internalType": "uint256",
          "name": "eventId",
          "type": "uint256"
        },
        {
          "indexed": false,
          "internalType": "bool",
          "name": "value",
          "type": "bool"
        }
      ],
      "name": "AllCategorySellChanged",
      "type": "event"
    },
    {
      "anonymous": false,
      "inputs": [
        {
          "indexed": true,
          "internalType": "address",
          "name": "owner",
          "type": "address"
        },
        {
          "indexed": true,
          "internalType": "address",
          "name": "approved",
          "type": "address"
        },
        {
          "indexed": true,
          "internalType": "uint256",
          "name": "tokenId",
          "type": "uint256"
        }
      ],
      "name": "Approval",
      "type": "event"
    },
    {
      "anonymous": false,
      "inputs": [
        {
          "indexed": true,
          "internalType": "address",
          "name": "owner",
          "type": "address"
        },
        {
          "indexed": true,
          "internalType": "address",
          "name": "operator",
          "type": "address"
        },
        {
          "indexed": false,
          "internalType": "bool",
          "name": "approved",
          "type": "bool"
        }
      ],
      "name": "ApprovalForAll",
      "type": "event"
    },
    {
      "anonymous": false,
      "inputs": [
        {
          "indexed": false,
          "internalType": "uint256",
          "name": "_fromTokenId",
          "type": "uint256"
        },
        {
          "indexed": false,
          "internalType": "uint256",
          "name": "_toTokenId",
          "type": "uint256"
        }
      ],
      "name": "BatchMetadataUpdate",
      "type": "event"
    },
    {
      "anonymous": false,
      "inputs": [
        {
          "indexed": false,
          "internalType": "uint256",
          "name": "eventId",
          "type": "uint256"
        },
        {
          "indexed": false,
          "internalType": "uint256",
          "name": "categoryId",
          "type": "uint256"
        },
        {
          "indexed": false,
          "internalType": "string",
          "name": "categoryCid",
          "type": "string"
        }
      ],
      "name": "CategoryCreated",
      "type": "event"
    },
    {
      "anonymous": false,
      "inputs": [
        {
          "indexed": false,
          "internalType": "uint256",
          "name": "eventId",
          "type": "uint256"
        },
        {
          "indexed": false,
          "internalType": "uint256",
          "name": "categoryId",
          "type": "uint256"
        }
      ],
      "name": "CategoryDeleted",
      "type": "event"
    },
    {
      "anonymous": false,
      "inputs": [
        {
          "indexed": false,
          "internalType": "uint256",
          "name": "eventId",
          "type": "uint256"
        },
        {
          "indexed": false,
          "internalType": "uint256",
          "name": "categoryId",
          "type": "uint256"
        },
        {
          "indexed": false,
          "internalType": "address",
          "name": "staffMember",
          "type": "address"
        }
      ],
      "name": "CategorySaleDatesUpdated",
      "type": "event"
    },
    {
      "anonymous": false,
      "inputs": [
        {
          "indexed": false,
          "internalType": "uint256",
          "name": "eventId",
          "type": "uint256"
        },
        {
          "indexed": false,
          "internalType": "uint256",
          "name": "categoryId",
          "type": "uint256"
        },
        {
          "indexed": false,
          "internalType": "bool",
          "name": "value",
          "type": "bool"
        }
      ],
      "name": "CategorySellChanged",
      "type": "event"
    },
    {
      "anonymous": false,
      "inputs": [
        {
          "indexed": false,
          "internalType": "uint256",
          "name": "eventId",
          "type": "uint256"
        },
        {
          "indexed": false,
          "internalType": "uint256",
          "name": "categoryId",
          "type": "uint256"
        },
        {
          "indexed": false,
          "internalType": "uint256",
          "name": "ticketsCount",
          "type": "uint256"
        }
      ],
      "name": "CategoryTicketsAdded",
      "type": "event"
    },
    {
      "anonymous": false,
      "inputs": [
        {
          "indexed": false,
          "internalType": "uint256",
          "name": "eventId",
          "type": "uint256"
        },
        {
          "indexed": false,
          "internalType": "uint256",
          "name": "categoryId",
          "type": "uint256"
        },
        {
          "indexed": false,
          "internalType": "uint256",
          "name": "ticketsCount",
          "type": "uint256"
        }
      ],
      "name": "CategoryTicketsRemoved",
      "type": "event"
    },
    {
      "anonymous": false,
      "inputs": [
        {
          "indexed": false,
          "internalType": "uint256",
          "name": "eventId",
          "type": "uint256"
        },
        {
          "indexed": false,
          "internalType": "uint256",
          "name": "categoryId",
          "type": "uint256"
        }
      ],
      "name": "CategoryUpdated",
      "type": "event"
    },
    {
      "anonymous": false,
      "inputs": [
        {
          "indexed": true,
          "internalType": "uint256",
          "name": "fromTokenId",
          "type": "uint256"
        },
        {
          "indexed": false,
          "internalType": "uint256",
          "name": "toTokenId",
          "type": "uint256"
        },
        {
          "indexed": true,
          "internalType": "address",
          "name": "fromAddress",
          "type": "address"
        },
        {
          "indexed": true,
          "internalType": "address",
          "name": "toAddress",
          "type": "address"
        }
      ],
      "name": "ConsecutiveTransfer",
      "type": "event"
    },
    {
      "anonymous": false,
      "inputs": [
        {
          "indexed": false,
          "internalType": "uint256",
          "name": "eventId",
          "type": "uint256"
        },
        {
          "indexed": false,
          "internalType": "address",
          "name": "account",
          "type": "address"
        },
        {
          "indexed": false,
          "internalType": "address",
          "name": "setter",
          "type": "address"
        }
      ],
      "name": "EventCashierSet",
      "type": "event"
    },
    {
      "anonymous": false,
      "inputs": [
        {
          "indexed": false,
          "internalType": "uint256",
          "name": "eventId",
          "type": "uint256"
        },
        {
          "indexed": false,
          "internalType": "string",
          "name": "metadataUri",
          "type": "string"
        }
      ],
      "name": "EventCreated",
      "type": "event"
    },
    {
      "anonymous": false,
      "inputs": [
        {
          "indexed": false,
          "internalType": "uint256",
          "name": "_tokenId",
          "type": "uint256"
        }
      ],
      "name": "MetadataUpdate",
      "type": "event"
    },
    {
      "anonymous": false,
      "inputs": [
        {
          "indexed": false,
          "internalType": "uint256",
          "name": "eventId",
          "type": "uint256"
        },
        {
          "indexed": true,
          "internalType": "bytes32",
          "name": "role",
          "type": "bytes32"
        },
        {
          "indexed": true,
          "internalType": "bytes32",
          "name": "previousAdminRole",
          "type": "bytes32"
        },
        {
          "indexed": true,
          "internalType": "bytes32",
          "name": "newAdminRole",
          "type": "bytes32"
        }
      ],
      "name": "RoleAdminChanged",
      "type": "event"
    },
    {
      "anonymous": false,
      "inputs": [
        {
          "indexed": false,
          "internalType": "uint256",
          "name": "eventId",
          "type": "uint256"
        },
        {
          "indexed": true,
          "internalType": "bytes32",
          "name": "role",
          "type": "bytes32"
        },
        {
          "indexed": true,
          "internalType": "address",
          "name": "account",
          "type": "address"
        },
        {
          "indexed": true,
          "internalType": "address",
          "name": "sender",
          "type": "address"
        }
      ],
      "name": "RoleGranted",
      "type": "event"
    },
    {
      "anonymous": false,
      "inputs": [
        {
          "indexed": false,
          "internalType": "uint256",
          "name": "eventId",
          "type": "uint256"
        },
        {
          "indexed": true,
          "internalType": "bytes32",
          "name": "role",
          "type": "bytes32"
        },
        {
          "indexed": true,
          "internalType": "address",
          "name": "account",
          "type": "address"
        },
        {
          "indexed": true,
          "internalType": "address",
          "name": "sender",
          "type": "address"
        }
      ],
      "name": "RoleRevoked",
      "type": "event"
    },
    {
      "anonymous": false,
      "inputs": [
        {
          "indexed": false,
          "internalType": "uint256",
          "name": "eventId",
          "type": "uint256"
        },
        {
          "indexed": false,
          "internalType": "uint256",
          "name": "categoryId",
          "type": "uint256"
        },
        {
          "indexed": false,
          "internalType": "uint256",
          "name": "ticketId",
          "type": "uint256"
        },
        {
          "indexed": false,
          "internalType": "address",
          "name": "staffMember",
          "type": "address"
        }
      ],
      "name": "TicketClipped",
      "type": "event"
    },
    {
      "anonymous": false,
      "inputs": [
        {
          "indexed": false,
          "internalType": "uint256",
          "name": "eventId",
          "type": "uint256"
        },
        {
          "indexed": false,
          "internalType": "uint256",
          "name": "categoryId",
          "type": "uint256"
        },
        {
          "indexed": false,
          "internalType": "uint256",
          "name": "ticketCount",
          "type": "uint256"
        },
        {
          "indexed": false,
          "internalType": "address[]",
          "name": "accounts",
          "type": "address[]"
        },
        {
          "indexed": false,
          "internalType": "address",
          "name": "staffMember",
          "type": "address"
        }
      ],
      "name": "TicketsBooked",
      "type": "event"
    },
    {
      "anonymous": false,
      "inputs": [
        {
          "indexed": true,
          "internalType": "address",
          "name": "from",
          "type": "address"
        },
        {
          "indexed": true,
          "internalType": "address",
          "name": "to",
          "type": "address"
        },
        {
          "indexed": true,
          "internalType": "uint256",
          "name": "tokenId",
          "type": "uint256"
        }
      ],
      "name": "Transfer",
      "type": "event"
    },
    {
      "inputs": [],
      "name": "CASHIER_ROLE",
      "outputs": [
        {
          "internalType": "bytes32",
          "name": "",
          "type": "bytes32"
        }
      ],
      "stateMutability": "view",
      "type": "function"
    },
    {
      "inputs": [],
      "name": "DEFAULT_ADMIN_ROLE",
      "outputs": [
        {
          "internalType": "bytes32",
          "name": "",
          "type": "bytes32"
        }
      ],
      "stateMutability": "view",
      "type": "function"
    },
    {
      "inputs": [],
      "name": "MODERATOR_ROLE",
      "outputs": [
        {
          "internalType": "bytes32",
          "name": "",
          "type": "bytes32"
        }
      ],
      "stateMutability": "view",
      "type": "function"
    },
    {
      "inputs": [],
      "name": "RECEPTIONIST_ROLE",
      "outputs": [
        {
          "internalType": "bytes32",
          "name": "",
          "type": "bytes32"
        }
      ],
      "stateMutability": "view",
      "type": "function"
    },
    {
      "inputs": [],
      "name": "VALIDATOR_ROLE",
      "outputs": [
        {
          "internalType": "bytes32",
          "name": "",
          "type": "bytes32"
        }
      ],
      "stateMutability": "view",
      "type": "function"
    },
    {
      "inputs": [
        {
          "internalType": "uint256",
          "name": "_eventId",
          "type": "uint256"
        },
        {
          "internalType": "uint256",
          "name": "_categoryId",
          "type": "uint256"
        },
        {
          "internalType": "uint256",
          "name": "_ticketsCount",
          "type": "uint256"
        }
      ],
      "name": "addCategoryTicketsCount",
      "outputs": [],
      "stateMutability": "nonpayable",
      "type": "function"
    },
    {
      "inputs": [
        {
          "internalType": "uint256",
          "name": "_eventId",
          "type": "uint256"
        },
        {
          "internalType": "bytes32",
          "name": "_role",
          "type": "bytes32"
        },
        {
          "internalType": "address",
          "name": "_account",
          "type": "address"
        }
      ],
      "name": "addTeamMember",
      "outputs": [],
      "stateMutability": "nonpayable",
      "type": "function"
    },
    {
      "inputs": [
        {
          "internalType": "address",
          "name": "to",
          "type": "address"
        },
        {
          "internalType": "uint256",
          "name": "tokenId",
          "type": "uint256"
        }
      ],
      "name": "approve",
      "outputs": [],
      "stateMutability": "nonpayable",
      "type": "function"
    },
    {
      "inputs": [
        {
          "internalType": "address",
          "name": "owner",
          "type": "address"
        }
      ],
      "name": "balanceOf",
      "outputs": [
        {
          "internalType": "uint256",
          "name": "",
          "type": "uint256"
        }
      ],
      "stateMutability": "view",
      "type": "function"
    },
    {
      "inputs": [
        {
          "internalType": "uint256",
          "name": "_eventId",
          "type": "uint256"
        },
        {
          "internalType": "uint256",
          "name": "_categoryId",
          "type": "uint256"
        },
        {
          "internalType": "uint256",
          "name": "_ticketCount",
          "type": "uint256"
        },
        {
          "internalType": "address[]",
          "name": "_accounts",
          "type": "address[]"
        }
      ],
      "name": "bookTickets",
      "outputs": [],
      "stateMutability": "nonpayable",
      "type": "function"
    },
    {
      "inputs": [
        {
          "internalType": "uint256",
          "name": "_eventId",
          "type": "uint256"
        },
        {
          "internalType": "uint256",
          "name": "_categoryId",
          "type": "uint256"
        },
        {
          "internalType": "string",
          "name": "_ticketMetadataURI",
          "type": "string"
        },
        {
          "internalType": "uint256",
          "name": "amount",
          "type": "uint256"
        }
      ],
      "name": "buyTickets",
      "outputs": [],
      "stateMutability": "nonpayable",
      "type": "function"
    },
    {
      "inputs": [
        {
          "internalType": "uint256",
          "name": "_eventId",
          "type": "uint256"
        },
        {
          "internalType": "uint256",
          "name": "_categoryId",
          "type": "uint256"
        },
        {
          "internalType": "uint256",
          "name": "_ticketId",
          "type": "uint256"
        }
      ],
      "name": "clipTicket",
      "outputs": [],
      "stateMutability": "nonpayable",
      "type": "function"
    },
    {
      "inputs": [
        {
          "internalType": "uint256",
          "name": "_maxTicketsPerClient",
          "type": "uint256"
        },
        {
          "internalType": "uint256",
          "name": "_startDate",
          "type": "uint256"
        },
        {
          "internalType": "uint256",
          "name": "_endDate",
          "type": "uint256"
        },
        {
          "internalType": "string",
          "name": "_metadataURI",
          "type": "string"
        }
      ],
      "name": "createEvent",
      "outputs": [],
      "stateMutability": "nonpayable",
      "type": "function"
    },
    {
      "inputs": [
        {
          "internalType": "uint256",
          "name": "_eventId",
          "type": "uint256"
        },
        {
          "internalType": "string",
          "name": "_categoryCid",
          "type": "string"
        },
        {
          "internalType": "uint256",
          "name": "_saleStartDate",
          "type": "uint256"
        },
        {
          "internalType": "uint256",
          "name": "_saleEndDate",
          "type": "uint256"
        },
        {
          "internalType": "uint256",
          "name": "_ticketsCount",
          "type": "uint256"
        },
        {
          "internalType": "uint256",
          "name": "_ticketPrice",
          "type": "uint256"
        },
        {
          "internalType": "uint256[]",
          "name": "_discountsTicketsCount",
          "type": "uint256[]"
        },
        {
          "internalType": "uint256[]",
          "name": "_discountsPercentage",
          "type": "uint256[]"
        },
        {
          "components": [
            {
              "internalType": "uint256",
              "name": "price",
              "type": "uint256"
            },
            {
              "internalType": "uint256",
              "name": "finalAmountDate",
              "type": "uint256"
            }
          ],
          "internalType": "struct IEvent.DownPayment",
          "name": "_downPayment",
          "type": "tuple"
        }
      ],
      "name": "createTicketCategory",
      "outputs": [],
      "stateMutability": "nonpayable",
      "type": "function"
    },
    {
      "inputs": [],
      "name": "fetchAllEventIds",
      "outputs": [
        {
          "internalType": "uint256[]",
          "name": "",
          "type": "uint256[]"
        }
      ],
      "stateMutability": "view",
      "type": "function"
    },
    {
      "inputs": [],
      "name": "fetchAllEvents",
      "outputs": [
        {
          "components": [
            {
              "internalType": "address",
              "name": "organizer",
              "type": "address"
            },
            {
              "internalType": "uint256",
              "name": "maxTicketsPerClient",
              "type": "uint256"
            },
            {
              "internalType": "uint256",
              "name": "startDate",
              "type": "uint256"
            },
            {
              "internalType": "uint256",
              "name": "endDate",
              "type": "uint256"
            },
            {
              "internalType": "bool",
              "name": "areAllCategoryTicketsBuyable",
              "type": "bool"
            }
          ],
          "internalType": "struct IEvent.Event[]",
          "name": "",
          "type": "tuple[]"
        }
      ],
      "stateMutability": "view",
      "type": "function"
    },
    {
      "inputs": [
        {
          "internalType": "uint256",
          "name": "_eventId",
          "type": "uint256"
        }
      ],
      "name": "fetchCategoriesByEventId",
      "outputs": [
        {
          "components": [
            {
              "internalType": "uint256",
              "name": "id",
              "type": "uint256"
            },
            {
              "internalType": "string",
              "name": "cid",
              "type": "string"
            },
            {
              "internalType": "uint256[]",
              "name": "ticketIds",
              "type": "uint256[]"
            },
            {
              "internalType": "uint256",
              "name": "ticketPrice",
              "type": "uint256"
            },
            {
              "internalType": "uint256",
              "name": "ticketsCount",
              "type": "uint256"
            },
            {
              "internalType": "uint256",
              "name": "saleStartDate",
              "type": "uint256"
            },
            {
              "internalType": "uint256",
              "name": "saleEndDate",
              "type": "uint256"
            },
            {
              "internalType": "uint256",
              "name": "eventId",
              "type": "uint256"
            },
            {
              "internalType": "uint256[]",
              "name": "discountsTicketsCount",
              "type": "uint256[]"
            },
            {
              "internalType": "uint256[]",
              "name": "discountsPercentage",
              "type": "uint256[]"
            },
            {
              "components": [
                {
                  "internalType": "uint256",
                  "name": "price",
                  "type": "uint256"
                },
                {
                  "internalType": "uint256",
                  "name": "finalAmountDate",
                  "type": "uint256"
                }
              ],
              "internalType": "struct IEvent.DownPayment",
              "name": "downPayment",
              "type": "tuple"
            },
            {
              "internalType": "bool",
              "name": "areTicketsBuyable",
              "type": "bool"
            }
          ],
          "internalType": "struct IEvent.Category[]",
          "name": "",
          "type": "tuple[]"
        }
      ],
      "stateMutability": "view",
      "type": "function"
    },
    {
      "inputs": [
        {
          "internalType": "uint256",
          "name": "_eventId",
          "type": "uint256"
        }
      ],
      "name": "fetchEventById",
      "outputs": [
        {
          "components": [
            {
              "internalType": "address",
              "name": "organizer",
              "type": "address"
            },
            {
              "internalType": "uint256",
              "name": "maxTicketsPerClient",
              "type": "uint256"
            },
            {
              "internalType": "uint256",
              "name": "startDate",
              "type": "uint256"
            },
            {
              "internalType": "uint256",
              "name": "endDate",
              "type": "uint256"
            },
            {
              "internalType": "bool",
              "name": "areAllCategoryTicketsBuyable",
              "type": "bool"
            }
          ],
          "internalType": "struct IEvent.Event",
          "name": "eventObj",
          "type": "tuple"
        }
      ],
      "stateMutability": "view",
      "type": "function"
    },
    {
      "inputs": [],
      "name": "fetchOwnedEvents",
      "outputs": [
        {
          "internalType": "uint256[]",
          "name": "",
          "type": "uint256[]"
        }
      ],
      "stateMutability": "view",
      "type": "function"
    },
    {
      "inputs": [
        {
          "internalType": "uint256",
          "name": "tokenId",
          "type": "uint256"
        }
      ],
      "name": "getApproved",
      "outputs": [
        {
          "internalType": "address",
          "name": "",
          "type": "address"
        }
      ],
      "stateMutability": "view",
      "type": "function"
    },
    {
      "inputs": [
        {
          "internalType": "uint256",
          "name": "eventId",
          "type": "uint256"
        }
      ],
      "name": "getEventMembers",
      "outputs": [
        {
          "components": [
            {
              "internalType": "address",
              "name": "account",
              "type": "address"
            },
            {
              "internalType": "bytes32",
              "name": "role",
              "type": "bytes32"
            }
          ],
          "internalType": "struct RoleControl.MemberData[]",
          "name": "",
          "type": "tuple[]"
        }
      ],
      "stateMutability": "view",
      "type": "function"
    },
    {
      "inputs": [
        {
          "internalType": "uint256",
          "name": "eventId",
          "type": "uint256"
        },
        {
          "internalType": "bytes32",
          "name": "role",
          "type": "bytes32"
        }
      ],
      "name": "getRoleAdmin",
      "outputs": [
        {
          "internalType": "bytes32",
          "name": "",
          "type": "bytes32"
        }
      ],
      "stateMutability": "view",
      "type": "function"
    },
    {
      "inputs": [
        {
          "internalType": "uint256",
          "name": "eventId",
          "type": "uint256"
        },
        {
          "internalType": "bytes32",
          "name": "role",
          "type": "bytes32"
        },
        {
          "internalType": "address",
          "name": "account",
          "type": "address"
        }
      ],
      "name": "grantRole",
      "outputs": [],
      "stateMutability": "nonpayable",
      "type": "function"
    },
    {
      "inputs": [
        {
          "internalType": "uint256",
          "name": "eventId",
          "type": "uint256"
        },
        {
          "internalType": "bytes32",
          "name": "role",
          "type": "bytes32"
        },
        {
          "internalType": "address",
          "name": "account",
          "type": "address"
        }
      ],
      "name": "hasRole",
      "outputs": [
        {
          "internalType": "bool",
          "name": "",
          "type": "bool"
        }
      ],
      "stateMutability": "view",
      "type": "function"
    },
    {
      "inputs": [
        {
          "internalType": "address",
          "name": "owner",
          "type": "address"
        },
        {
          "internalType": "address",
          "name": "operator",
          "type": "address"
        }
      ],
      "name": "isApprovedForAll",
      "outputs": [
        {
          "internalType": "bool",
          "name": "",
          "type": "bool"
        }
      ],
      "stateMutability": "view",
      "type": "function"
    },
    {
      "inputs": [
        {
          "internalType": "uint256",
          "name": "_eventId",
          "type": "uint256"
        },
        {
          "internalType": "bool",
          "name": "_value",
          "type": "bool"
        }
      ],
      "name": "manageAllCategorySelling",
      "outputs": [],
      "stateMutability": "nonpayable",
      "type": "function"
    },
    {
      "inputs": [
        {
          "internalType": "uint256",
          "name": "_eventId",
          "type": "uint256"
        },
        {
          "internalType": "uint256",
          "name": "_categoryId",
          "type": "uint256"
        },
        {
          "internalType": "bool",
          "name": "_value",
          "type": "bool"
        }
      ],
      "name": "manageCategorySelling",
      "outputs": [],
      "stateMutability": "nonpayable",
      "type": "function"
    },
    {
      "inputs": [],
      "name": "name",
      "outputs": [
        {
          "internalType": "string",
          "name": "",
          "type": "string"
        }
      ],
      "stateMutability": "view",
      "type": "function"
    },
    {
      "inputs": [
        {
          "internalType": "uint256",
          "name": "tokenId",
          "type": "uint256"
        }
      ],
      "name": "ownerOf",
      "outputs": [
        {
          "internalType": "address",
          "name": "",
          "type": "address"
        }
      ],
      "stateMutability": "view",
      "type": "function"
    },
    {
      "inputs": [
        {
          "internalType": "uint256",
          "name": "_eventId",
          "type": "uint256"
        },
        {
          "internalType": "uint256",
          "name": "_categoryId",
          "type": "uint256"
        }
      ],
      "name": "removeCategory",
      "outputs": [],
      "stateMutability": "nonpayable",
      "type": "function"
    },
    {
      "inputs": [
        {
          "internalType": "uint256",
          "name": "_eventId",
          "type": "uint256"
        },
        {
          "internalType": "uint256",
          "name": "_categoryId",
          "type": "uint256"
        },
        {
          "internalType": "uint256",
          "name": "_ticketsCount",
          "type": "uint256"
        }
      ],
      "name": "removeCategoryTicketsCount",
      "outputs": [],
      "stateMutability": "nonpayable",
      "type": "function"
    },
    {
      "inputs": [
        {
          "internalType": "uint256",
          "name": "_eventId",
          "type": "uint256"
        }
      ],
      "name": "removeEvent",
      "outputs": [],
      "stateMutability": "nonpayable",
      "type": "function"
    },
    {
      "inputs": [
        {
          "internalType": "uint256",
          "name": "_eventId",
          "type": "uint256"
        },
        {
          "internalType": "bytes32",
          "name": "_role",
          "type": "bytes32"
        },
        {
          "internalType": "address",
          "name": "_account",
          "type": "address"
        }
      ],
      "name": "removeTeamMember",
      "outputs": [],
      "stateMutability": "nonpayable",
      "type": "function"
    },
    {
      "inputs": [
        {
          "internalType": "uint256",
          "name": "eventId",
          "type": "uint256"
        },
        {
          "internalType": "bytes32",
          "name": "role",
          "type": "bytes32"
        },
        {
          "internalType": "address",
          "name": "account",
          "type": "address"
        }
      ],
      "name": "renounceRole",
      "outputs": [],
      "stateMutability": "nonpayable",
      "type": "function"
    },
    {
      "inputs": [
        {
          "internalType": "uint256",
          "name": "eventId",
          "type": "uint256"
        },
        {
          "internalType": "bytes32",
          "name": "role",
          "type": "bytes32"
        },
        {
          "internalType": "address",
          "name": "account",
          "type": "address"
        }
      ],
      "name": "revokeRole",
      "outputs": [],
      "stateMutability": "nonpayable",
      "type": "function"
    },
    {
      "inputs": [
        {
          "internalType": "address",
          "name": "from",
          "type": "address"
        },
        {
          "internalType": "address",
          "name": "to",
          "type": "address"
        },
        {
          "internalType": "uint256",
          "name": "tokenId",
          "type": "uint256"
        }
      ],
      "name": "safeTransferFrom",
      "outputs": [],
      "stateMutability": "nonpayable",
      "type": "function"
    },
    {
      "inputs": [
        {
          "internalType": "address",
          "name": "from",
          "type": "address"
        },
        {
          "internalType": "address",
          "name": "to",
          "type": "address"
        },
        {
          "internalType": "uint256",
          "name": "tokenId",
          "type": "uint256"
        },
        {
          "internalType": "bytes",
          "name": "data",
          "type": "bytes"
        }
      ],
      "name": "safeTransferFrom",
      "outputs": [],
      "stateMutability": "nonpayable",
      "type": "function"
    },
    {
      "inputs": [
        {
          "internalType": "address",
          "name": "operator",
          "type": "address"
        },
        {
          "internalType": "bool",
          "name": "approved",
          "type": "bool"
        }
      ],
      "name": "setApprovalForAll",
      "outputs": [],
      "stateMutability": "nonpayable",
      "type": "function"
    },
    {
      "inputs": [
        {
          "internalType": "uint256",
          "name": "_eventId",
          "type": "uint256"
        },
        {
          "internalType": "address",
          "name": "_account",
          "type": "address"
        }
      ],
      "name": "setEventCashier",
      "outputs": [],
      "stateMutability": "nonpayable",
      "type": "function"
    },
    {
      "inputs": [
        {
          "internalType": "bytes4",
          "name": "interfaceId",
          "type": "bytes4"
        }
      ],
      "name": "supportsInterface",
      "outputs": [
        {
          "internalType": "bool",
          "name": "",
          "type": "bool"
        }
      ],
      "stateMutability": "view",
      "type": "function"
    },
    {
      "inputs": [],
      "name": "symbol",
      "outputs": [
        {
          "internalType": "string",
          "name": "",
          "type": "string"
        }
      ],
      "stateMutability": "view",
      "type": "function"
    },
    {
      "inputs": [
        {
          "internalType": "uint256",
          "name": "tokenId",
          "type": "uint256"
        }
      ],
      "name": "tokenURI",
      "outputs": [
        {
          "internalType": "string",
          "name": "",
          "type": "string"
        }
      ],
      "stateMutability": "view",
      "type": "function"
    },
    {
      "inputs": [
        {
          "internalType": "address",
          "name": "from",
          "type": "address"
        },
        {
          "internalType": "address",
          "name": "to",
          "type": "address"
        },
        {
          "internalType": "uint256",
          "name": "tokenId",
          "type": "uint256"
        }
      ],
      "name": "transferFrom",
      "outputs": [],
      "stateMutability": "nonpayable",
      "type": "function"
    },
    {
      "inputs": [
        {
          "internalType": "uint256",
          "name": "_eventId",
          "type": "uint256"
        },
        {
          "internalType": "uint256",
          "name": "_categoryId",
          "type": "uint256"
        },
        {
          "internalType": "string",
          "name": "_categoryCid",
          "type": "string"
        },
        {
          "internalType": "uint256",
          "name": "_ticketPrice",
          "type": "uint256"
        },
        {
          "internalType": "uint256[]",
          "name": "_discountsTicketsCount",
          "type": "uint256[]"
        },
        {
          "internalType": "uint256[]",
          "name": "_discountsPercentage",
          "type": "uint256[]"
        },
        {
          "components": [
            {
              "internalType": "uint256",
              "name": "price",
              "type": "uint256"
            },
            {
              "internalType": "uint256",
              "name": "finalAmountDate",
              "type": "uint256"
            }
          ],
          "internalType": "struct IEvent.DownPayment",
          "name": "_downPayment",
          "type": "tuple"
        }
      ],
      "name": "updateCategory",
      "outputs": [],
      "stateMutability": "nonpayable",
      "type": "function"
    },
    {
      "inputs": [
        {
          "internalType": "uint256",
          "name": "_eventId",
          "type": "uint256"
        },
        {
          "internalType": "uint256",
          "name": "_categoryId",
          "type": "uint256"
        },
        {
          "internalType": "uint256",
          "name": "_saleStartDate",
          "type": "uint256"
        },
        {
          "internalType": "uint256",
          "name": "_saleEndDate",
          "type": "uint256"
        }
      ],
      "name": "updateCategorySaleDates",
      "outputs": [],
      "stateMutability": "nonpayable",
      "type": "function"
    },
    {
      "inputs": [
        {
          "internalType": "uint256",
          "name": "_eventId",
          "type": "uint256"
        },
        {
          "internalType": "string",
          "name": "_newMetadataURI",
          "type": "string"
        }
      ],
      "name": "updateEventTokenUri",
      "outputs": [],
      "stateMutability": "nonpayable",
      "type": "function"
    }
  ],
  "bytecode": "0x608060405234801561001057600080fd5b506001601055614f06806100256000396000f3fe608060405234801561001057600080fd5b506004361061021a5760003560e01c806301ffc9a71461021f5780630309a5391461024857806306a5bcd21461025d57806306fdde0314610270578063081812fc14610285578063095ea7b3146102b05780630d517286146102c35780630e1b943d146102e3578063119345aa146103035780631c6f9271146103165780631cdf29c7146103295780632053d82c1461033c57806323b872dd1461034f5780632761f33b146103625780633660ff8314610375578063397d4dbc1461038a5780633d378bb0146103ab57806342842e0e146103be5780634a120dd7146103d1578063558e39c4146103e457806356164e1e146103f75780635ba161381461040a5780636352211e1461041f5780636a4bc7de1461043257806370a0823114610445578063724bdedf14610458578063754d0e511461046b578063797669c91461047e578063959a1b581461049357806395d89b41146104a6578063a217fddf146104ae578063a22cb465146104b6578063a310d9bf146104c9578063a3bdc7c7146104dc578063abae6af9146104fc578063b015554414610511578063b7fd968414610524578063b88d4fde14610539578063c49baebe1461054c578063c87b56dd14610573578063d5533da014610586578063e985e9c514610599578063f354159b146105ac578063f99c2292146105bf578063fb42204d146105c7578063fc3291a6146105da575b600080fd5b61023361022d366004613c8b565b50600090565b60405190151581526020015b60405180910390f35b61025b610256366004613cbd565b6105ed565b005b61025b61026b366004613d46565b6106c1565b6102786107d9565b60405161023f9190613e5f565b610298610293366004613e72565b61086d565b6040516001600160a01b03909116815260200161023f565b61025b6102be366004613e8b565b610894565b6102d66102d1366004613e72565b6109a9565b60405161023f9190613eed565b6102f66102f1366004613e72565b610a35565b60405161023f9190613efb565b610233610311366004613f53565b610abd565b61025b610324366004613f88565b610aef565b61025b610337366004613fba565b610c1a565b61025b61034a366004614054565b610cc9565b61025b61035d36600461409a565b610d70565b61025b610370366004614133565b610da1565b61037d610f61565b60405161023f91906141f5565b61039d610398366004614243565b6110da565b60405190815260200161023f565b61025b6103b9366004614243565b6110fe565b61025b6103cc36600461409a565b611453565b61025b6103df366004613f53565b61146e565b61025b6103f2366004614265565b611495565b61025b610405366004613e72565b6115c7565b61039d600080516020614e7183398151915281565b61029861042d366004613e72565b611870565b61025b610440366004613f53565b6118a5565b61039d610453366004614291565b61195b565b61025b610466366004613f53565b6119e1565b61025b6104793660046142ac565b611a5a565b61039d600080516020614e9183398151915281565b61025b6104a1366004614346565b611b79565b610278611f1e565b61039d600081565b61025b6104c4366004614430565b611f30565b61025b6104d736600461445a565b611f3f565b6104ef6104ea366004613e72565b61206e565b60405161023f91906144c1565b6105046123d2565b60405161023f91906145f5565b61025b61051f366004613f53565b61251d565b61039d600080516020614e5183398151915281565b61025b610547366004614608565b6125d3565b61039d7f21702c8af46127c7fa207f89d0b0a8441bb32959a0ac7df790e9ab1a25c9892681565b610278610581366004613e72565b612605565b61025b610594366004614265565b612745565b6102336105a7366004614677565b61286e565b61025b6105ba366004614265565b61289c565b610504612acd565b61025b6105d5366004613f53565b612bd2565b61025b6105e83660046146a1565b612bf2565b816105f781612da6565b61061c5760405162461bcd60e51b8152600401610613906146f8565b60405180910390fd5b61062883600033610abd565b80610647575061064783600080516020614e9183398151915233610abd565b6106635760405162461bcd60e51b81526004016106139061472e565b600083815260096020908152604091829020600401805460ff19168515159081179091558251868152918201527f578eeefe0b8083fcd939e8d547da4c0ba6b26ed213c13de65ab08a52f9f26a5291015b60405180910390a1505050565b836106cb81612da6565b6106e75760405162461bcd60e51b8152600401610613906146f8565b6000848152600a60205260408120548591036107155760405162461bcd60e51b815260040161061390614778565b6000858152600a60205260409020600701548690869082146107495760405162461bcd60e51b8152600401610613906147af565b61075588600033610abd565b80610774575061077488600080516020614e9183398151915233610abd565b6107905760405162461bcd60e51b81526004016106139061472e565b7f5f183d9cf5454d6fc91379ef5dce8b6a4543ec2c03a1d6376579c9a6949b2cb388888888336040516107c79594939291906147f8565b60405180910390a15050505050505050565b60606000800180546107ea90614872565b80601f016020809104026020016040519081016040528092919081815260200182805461081690614872565b80156108635780601f1061083857610100808354040283529160200191610863565b820191906000526020600020905b81548152906001019060200180831161084657829003601f168201915b5050505050905090565b600061087882612dc3565b506000908152600460205260409020546001600160a01b031690565b600061089f82611870565b9050806001600160a01b0316836001600160a01b03160361090c5760405162461bcd60e51b815260206004820152602160248201527f4552433732313a20617070726f76616c20746f2063757272656e74206f776e656044820152603960f91b6064820152608401610613565b336001600160a01b03821614806109285750610928813361286e565b61099a5760405162461bcd60e51b815260206004820152603e60248201527f4552433732313a20617070726f76652063616c6c6572206973206e6f7420746f60448201527f6b656e206f776e6572206e6f7220617070726f76656420666f7220616c6c00006064820152608401610613565b6109a48383612deb565b505050565b6109b1613acc565b816109bb81612da6565b6109d75760405162461bcd60e51b8152600401610613906146f8565b5050600090815260096020908152604091829020825160a08101845281546001600160a01b031681526001820154928101929092526002810154928201929092526003820154606082015260049091015460ff161515608082015290565b6060600e6000838152602001908152602001600020805480602002602001604051908101604052809291908181526020016000905b82821015610ab2576000848152602090819020604080518082019091526002850290910180546001600160a01b03168252600190810154828401529083529092019101610a6a565b505050509050919050565b6000928352600d602090815260408085209385529281528284206001600160a01b039290921684525290205460ff1690565b83610af981612da6565b610b155760405162461bcd60e51b8152600401610613906146f8565b6000848152600a6020526040812054859103610b435760405162461bcd60e51b815260040161061390614778565b6000858152600a6020526040902060070154869086908214610b775760405162461bcd60e51b8152600401610613906147af565b610b8388600033610abd565b80610ba25750610ba288600080516020614e9183398151915233610abd565b610bbe5760405162461bcd60e51b81526004016106139061472e565b6000878152600a60209081526040918290206005810189905560060187905581518a815290810189905233918101919091527f4192182acd964db32b1197a6483d5694cf6e678e7202565c44cc961078eb2c8f906060016107c7565b81610c2481612da6565b610c405760405162461bcd60e51b8152600401610613906146f8565b610c4c83600033610abd565b610c685760405162461bcd60e51b8152600401610613906148a6565b610c8183600080516020614e5183398151915284612bd2565b604080518481526001600160a01b038416602082015233918101919091527f9f54db3c6775e8717da6972b09a7ed552d62f5fd63696a1a75e58f61bd240193906060016106b4565b81610cd381612da6565b610cef5760405162461bcd60e51b8152600401610613906146f8565b610cfb83600033610abd565b80610d1a5750610d1a83600080516020614e9183398151915233610abd565b610d365760405162461bcd60e51b81526004016106139061472e565b610d408383612e59565b6040518381527ff8e1a15aba9398e019f0b49df1a4fde98ee17ae345cb5f6b5e2c27f5033e8ce7906020016106b4565b610d7a3382612edd565b610d965760405162461bcd60e51b8152600401610613906148dd565b6109a4838383612f3b565b88610dab81612da6565b610dc75760405162461bcd60e51b8152600401610613906146f8565b6000898152600a60205260408120548a9103610df55760405162461bcd60e51b815260040161061390614778565b60008a8152600a60205260409020600701548b908b908214610e295760405162461bcd60e51b8152600401610613906147af565b610e358d600033610abd565b80610e545750610e548d600080516020614e9183398151915233610abd565b610e705760405162461bcd60e51b81526004016106139061472e565b878614610e8f5760405162461bcd60e51b81526004016106139061492b565b60008c8152600a60205260409020600101610eaa8c826149d6565b5060008c8152600a60205260409020600381018b9055610ece906008018a8a613b06565b5060008c8152600a60205260409020610eeb906009018888613b06565b5060008c8152600a60208190526040909120869101610f17828281358155602082013560018201555050565b5050604080518e8152602081018e90527f44df894581249b9c6cda25b6fe8239320be1641adde53f17479b4153cadfcc60910160405180910390a150505050505050505050505050565b60606000610f6e60075490565b905060008060015b838111610fba576000818152600960205260409020546001600160a01b031615610fa85782610fa481614aa5565b9350505b80610fb281614aa5565b915050610f76565b506000826001600160401b03811115610fd557610fd5613ce9565b60405190808252806020026020018201604052801561100e57816020015b610ffb613acc565b815260200190600190039081610ff35790505b50905060015b8481116110d1576000818152600960205260409020546001600160a01b0316156110bf57600081815260096020908152604091829020825160a08101845281546001600160a01b031681526001820154928101929092526002810154928201929092526003820154606082015260049091015460ff161515608082015282518390859081106110a5576110a5614abe565b602002602001018190525082806110bb90614aa5565b9350505b806110c981614aa5565b915050611014565b50949350505050565b6000828152600d602090815260408083208484529091529020600101545b92915050565b8161110881612da6565b6111245760405162461bcd60e51b8152600401610613906146f8565b6000828152600a60205260408120548391036111525760405162461bcd60e51b815260040161061390614778565b6000838152600a60205260409020600701548490849082146111865760405162461bcd60e51b8152600401610613906147af565b61119286600033610abd565b806111b157506111b186600080516020614e9183398151915233610abd565b6111cd5760405162461bcd60e51b81526004016106139061472e565b6000858152600a6020526040902060020154156112405760405162461bcd60e51b815260206004820152602b60248201527f4576656e743a2054686572652061726520626f75676874207469636b6574732060448201526a696e2063617465676f727960a81b6064820152608401610613565b6000858152600a602052604081208181559061125f6001830182613b51565b61126d600283016000613b8b565b600382016000905560048201600090556005820160009055600682016000905560078201600090556008820160006112a59190613b8b565b6112b3600983016000613b8b565b506000600a8201819055600b808301829055600c909201805460ff1916905587815260209182526040808220805482518186028101860190935280835292939192909183018282801561132557602002820191906000526020600020905b815481526020019060010190808311611311575b5050505050905060005b815181101561140f578682828151811061134b5761134b614abe565b6020026020010151036113fd576000888152600b60205260409020825161137490600190614ad4565b8154811061138457611384614abe565b90600052602060002001546000600b0160008a815260200190815260200160002082815481106113b6576113b6614abe565b6000918252602080832090910192909255898152600b909152604090208054806113e2576113e2614ae7565b6001900381819060005260206000200160009055905561140f565b8061140781614aa5565b91505061132f565b5060408051888152602081018890527ff67e86d3ffc2c26729aac7f4e3e07e009ad076ace7cd9e9fc184fd452ac0cc8591015b60405180910390a150505050505050565b6109a4838383604051806020016040528060008152506125d3565b8261147984846110da565b61148382826130c5565b61148e8585856130d0565b5050505050565b8261149f81612da6565b6114bb5760405162461bcd60e51b8152600401610613906146f8565b6000838152600a60205260408120548491036114e95760405162461bcd60e51b815260040161061390614778565b6000848152600a602052604090206007015485908590821461151d5760405162461bcd60e51b8152600401610613906147af565b61152987600033610abd565b80611548575061154887600080516020614e9183398151915233610abd565b80611567575061156787600080516020614e7183398151915233610abd565b6115835760405162461bcd60e51b81526004016106139061472e565b60408051888152602081018890529081018690523360608201527f2dcc6bceb950de206af8457a1b2083cbb47b6b70918a66be78ab4d128fee79f090608001611442565b806115d181612da6565b6115ed5760405162461bcd60e51b8152600401610613906146f8565b6115f982600033610abd565b6116155760405162461bcd60e51b8152600401610613906148a6565b6000828152600b602090815260408083208054825181850281018501909352808352919290919083018282801561166b57602002820191906000526020600020905b815481526020019060010190808311611657575b505050505090506000805b82518110156116dc576000600a01600084838151811061169857611698614abe565b60200260200101518152602001908152602001600020600201805490506000036116ca57816116c681614aa5565b9250505b806116d481614aa5565b915050611676565b508082511461173d5760405162461bcd60e51b815260206004820152602760248201527f4576656e743a204576656e74206d757374206e6f74206861766520736f6c64206044820152667469636b65747360c81b6064820152608401610613565b600084815260096020908152604080832080546001600160a01b0319168155600181018490556002810184905560038101849055600401805460ff19169055600b909152812061178c91613b8b565b60005b8251811015611860576000600a0160008483815181106117b1576117b1614abe565b602002602001015181526020019081526020016000206000808201600090556001820160006117e09190613b51565b6117ee600283016000613b8b565b600382016000905560048201600090556005820160009055600682016000905560078201600090556008820160006118269190613b8b565b611834600983016000613b8b565b506000600a8201819055600b820155600c01805460ff191690558061185881614aa5565b91505061178f565b5061186a84613191565b50505050565b6000818152600260205260408120546001600160a01b0316806110f85760405162461bcd60e51b815260040161061390614afd565b826118af81612da6565b6118cb5760405162461bcd60e51b8152600401610613906146f8565b6118d784600033610abd565b6118f35760405162461bcd60e51b8152600401610613906148a6565b600080516020614e5183398151915283036119505760405162461bcd60e51b815260206004820152601d60248201527f4576656e743a2043616e277420736574206361736869657220686572650000006044820152606401610613565b61186a848484612bd2565b60006001600160a01b0382166119c55760405162461bcd60e51b815260206004820152602960248201527f4552433732313a2061646472657373207a65726f206973206e6f7420612076616044820152683634b21037bbb732b960b91b6064820152608401610613565b506001600160a01b031660009081526003602052604090205490565b6001600160a01b0381163314611a4f5760405162461bcd60e51b815260206004820152602d60248201527f526f6c65436f6e74726f6c3a2063616e206f6e6c792072656e6f756e6365207260448201526c37b632b9903337b91039b2b63360991b6064820152608401610613565b6109a48383836130d0565b600260105403611aac5760405162461bcd60e51b815260206004820152601f60248201527f5265656e7472616e637947756172643a207265656e7472616e742063616c6c006044820152606401610613565b6002601055611abf600780546001019055565b6000611aca60075490565b6000818152600960205260409081902080546001600160a01b031916331781556001808201899055600282018890556003820187905560048201805460ff191690911790559051919250907f9ce3d6db707bca4ba0eabed8fba1e2c013a1c0bc1132a764170a7854d198c73d90611b449084908690614b2f565b60405180910390a1611b588260003361324d565b611b623383613258565b611b6c8284612e59565b5050600160105550505050565b8b611b8381612da6565b611b9f5760405162461bcd60e51b8152600401610613906146f8565b611bab8d600033610abd565b80611bca5750611bca8d600080516020614e9183398151915233610abd565b611be65760405162461bcd60e51b81526004016106139061472e565b848314611c055760405162461bcd60e51b81526004016106139061492b565b611c13600880546001019055565b6000611c1e60085490565b6000818152600a60205260409020818155909150600101611c408d8f83614b48565b506040805160008082526020808301808552858352600a9091529290209051611c6f9260029092019190613ba9565b506000818152600a60205260409020600481018a9055600781018f905560038101899055611ca1906008018888613b06565b506000818152600a60205260409020611cbe906009018686613b06565b506000818152600a60208190526040909120849101611cea828281358155602082013560018201555050565b50508a158015611cf8575089155b15611d29576000818152600a60205260409020600581018c9055600681018b9055600c01805460ff19169055611e94565b8a600003611d4b576000818152600a6020526040902042600590910155611dd1565b60008e8152600960205260409020600201548b1015611dbc5760405162461bcd60e51b815260206004820152602760248201527f4576656e743a2043617465676f7279207374617274206461746520697320696e60448201526618dbdc9c9958dd60ca1b6064820152608401610613565b6000818152600a602052604090206005018b90555b89600003611df3576000818152600a6020526040902042600690910155611e77565b60008e8152600960205260409020600301548a1115611e625760405162461bcd60e51b815260206004820152602560248201527f4576656e743a2043617465676f727920656e64206461746520697320696e636f6044820152641c9c9958dd60da1b6064820152608401610613565b6000818152600a602052604090206006018a90555b6000818152600a60205260409020600c01805460ff191660011790555b6000600b0160008f81526020019081526020016000208190806001815401808255809150506001900390600052602060002001600090919091909150557f2a94cd6b8e4219d087c43453e983d276c11f9ba16e547f01adb19edb60ae3c7d8e828f8f604051611f069493929190614c01565b60405180910390a15050505050505050505050505050565b6060600060010180546107ea90614872565b611f3b338383613378565b5050565b82611f4981612da6565b611f655760405162461bcd60e51b8152600401610613906146f8565b6000838152600a6020526040812054849103611f935760405162461bcd60e51b815260040161061390614778565b6000848152600a6020526040902060070154859085908214611fc75760405162461bcd60e51b8152600401610613906147af565b611fd387600033610abd565b80611ff25750611ff287600080516020614e9183398151915233610abd565b61200e5760405162461bcd60e51b81526004016106139061472e565b6000868152600a6020908152604091829020600c01805460ff191688151590811790915582518a8152918201899052918101919091527f15fa4fe87d07b2a02e02cc0fac2981a3fd8653661340b9b26feae8ffefaade8a90606001611442565b60608161207a81612da6565b6120965760405162461bcd60e51b8152600401610613906146f8565b6000838152600b60209081526040808320805482518185028101850190935280835291929091908301828280156120ec57602002820191906000526020600020905b8154815260200190600101908083116120d8575b50505050509050600081516001600160401b0381111561210e5761210e613ce9565b60405190808252806020026020018201604052801561214757816020015b612134613be4565b81526020019060019003908161212c5790505b50905060005b82518110156123c7576000600a01600084838151811061216f5761216f614abe565b6020026020010151815260200190815260200160002060405180610180016040529081600082015481526020016001820180546121ab90614872565b80601f01602080910402602001604051908101604052809291908181526020018280546121d790614872565b80156122245780601f106121f957610100808354040283529160200191612224565b820191906000526020600020905b81548152906001019060200180831161220757829003601f168201915b505050505081526020016002820180548060200260200160405190810160405280929190818152602001828054801561227c57602002820191906000526020600020905b815481526020019060010190808311612268575b5050505050815260200160038201548152602001600482015481526020016005820154815260200160068201548152602001600782015481526020016008820180548060200260200160405190810160405280929190818152602001828054801561230657602002820191906000526020600020905b8154815260200190600101908083116122f2575b505050505081526020016009820180548060200260200160405190810160405280929190818152602001828054801561235e57602002820191906000526020600020905b81548152602001906001019080831161234a575b5050509183525050604080518082018252600a8401548152600b840154602082810191909152830152600c9092015460ff16151591015282518390839081106123a9576123a9614abe565b602002602001018190525080806123bf90614aa5565b91505061214d565b509250505b50919050565b606060006123df60075490565b905060008060015b83811161244e576123fa81600033610abd565b80612419575061241981600080516020614e9183398151915233610abd565b8015612429575061242981612da6565b1561243c578261243881614aa5565b9350505b8061244681614aa5565b9150506123e7565b506000826001600160401b0381111561246957612469613ce9565b604051908082528060200260200182016040528015612492578160200160208202803683370190505b50905060015b8481116110d1576124ab81600033610abd565b806124ca57506124ca81600080516020614e9183398151915233610abd565b80156124da57506124da81612da6565b1561250b57808284815181106124f2576124f2614abe565b60209081029190910101528261250781614aa5565b9350505b8061251581614aa5565b915050612498565b8261252781612da6565b6125435760405162461bcd60e51b8152600401610613906146f8565b61254f84600033610abd565b61256b5760405162461bcd60e51b8152600401610613906148a6565b600080516020614e5183398151915283036125c85760405162461bcd60e51b815260206004820181905260248201527f4576656e743a2043616e27742072656d6f7665206361736869657220686572656044820152606401610613565b61186a84848461146e565b6125dd3383612edd565b6125f95760405162461bcd60e51b8152600401610613906148dd565b61186a84848484613442565b606061261082612dc3565b6000828152600660205260408120805461262990614872565b80601f016020809104026020016040519081016040528092919081815260200182805461265590614872565b80156126a25780601f10612677576101008083540402835291602001916126a2565b820191906000526020600020905b81548152906001019060200180831161268557829003601f168201915b5050505050905060006126c060408051602081019091526000815290565b905080516000036126d2575092915050565b8151156127045780826040516020016126ec929190614c3e565b60405160208183030381529060405292505050919050565b6000815111612722576040518060200160405280600081525061273d565b8061272c85613475565b6040516020016126ec929190614c3e565b949350505050565b8261274f81612da6565b61276b5760405162461bcd60e51b8152600401610613906146f8565b6000838152600a60205260408120548491036127995760405162461bcd60e51b815260040161061390614778565b6000848152600a60205260409020600701548590859082146127cd5760405162461bcd60e51b8152600401610613906147af565b6127d987600033610abd565b806127f857506127f887600080516020614e9183398151915233610abd565b6128145760405162461bcd60e51b81526004016106139061472e565b6000868152600a602052604081206004018054879290612835908490614c6d565b90915550506040517f3a50fbe2fa0bdf2022fcd8fe2132970519fcf4df5cf97d78e86c510eb0805b6a9061144290899089908990614c80565b6001600160a01b03918216600090815260056020908152604080832093909416825291909152205460ff1690565b826128a681612da6565b6128c25760405162461bcd60e51b8152600401610613906146f8565b6000838152600a60205260408120548491036128f05760405162461bcd60e51b815260040161061390614778565b6000848152600a60205260409020600701548590859082146129245760405162461bcd60e51b8152600401610613906147af565b61293087600033610abd565b8061294f575061294f87600080516020614e9183398151915233610abd565b61296b5760405162461bcd60e51b81526004016106139061472e565b6000868152600a60205260409020600401548511156129d85760405162461bcd60e51b815260206004820152602360248201527f4576656e743a20446563726561736564207469636b6574732062656c6f77207a60448201526265726f60e81b6064820152608401610613565b6000868152600a60205260409020600401546129f5908690614ad4565b6000878152600a60205260409020600201541115612a735760405162461bcd60e51b815260206004820152603560248201527f4576656e743a205469636b65747320616d6f756e742063616e2774206265206c604482015274657373207468616e20736f6c64207469636b65747360581b6064820152608401610613565b6000868152600a602052604081206004018054879290612a94908490614ad4565b90915550506040517fb39ecd9af22a3fec10ec63455a79d572fdcfadf6a9005d5cd232b2829f958c709061144290899089908990614c80565b60606000612ada60075490565b905060008060015b838111612b26576000818152600960205260409020546001600160a01b031615612b145782612b1081614aa5565b9350505b80612b1e81614aa5565b915050612ae2565b506000826001600160401b03811115612b4157612b41613ce9565b604051908082528060200260200182016040528015612b6a578160200160208202803683370190505b50905060015b8481116110d1576000818152600960205260409020546001600160a01b031615612bc05780828481518110612ba757612ba7614abe565b602090810291909101015282612bbc81614aa5565b9350505b80612bca81614aa5565b915050612b70565b82612bdd84846110da565b612be782826130c5565b61148e858585613575565b83612bfc81612da6565b612c185760405162461bcd60e51b8152600401610613906146f8565b60008581526009602052604090206004015460ff161515600114612c985760405162461bcd60e51b815260206004820152603160248201527f4576656e743a205469636b65747320666f7220616c6c2063617465676f7269656044820152707320617265206e6f742062757961626c6560781b6064820152608401610613565b6000848152600a60205260409020600c015460ff161515600114612d175760405162461bcd60e51b815260206004820152603060248201527f4576656e743a205469636b65747320666f7220746869732063617465676f727960448201526f20617265206e6f742062757961626c6560801b6064820152608401610613565b6000848152600a60205260409020600501544211801590612d4957506000848152600a60205260409020600601544210155b61148e5760405162461bcd60e51b815260206004820152602860248201527f4576656e743a2053656c6c20706572696f64206e6f742072656163686564206f6044820152671c881c185cdcd95960c21b6064820152608401610613565b6000908152600260205260409020546001600160a01b0316151590565b612dcc81612da6565b612de85760405162461bcd60e51b815260040161061390614afd565b50565b600081815260046020526040902080546001600160a01b0319166001600160a01b0384169081179091558190612e2082611870565b6001600160a01b03167f8c5be1e5ebec7d5bd14f71427d1e84f3dd0314c0f7b2291e5b200ac8c7c3b92560405160405180910390a45050565b612e6282612da6565b612ec55760405162461bcd60e51b815260206004820152602e60248201527f45524337323155524953746f726167653a2055524920736574206f66206e6f6e60448201526d32bc34b9ba32b73a103a37b5b2b760911b6064820152608401610613565b60008281526006602052604090206109a482826149d6565b600080612ee983611870565b9050806001600160a01b0316846001600160a01b03161480612f105750612f10818561286e565b8061273d5750836001600160a01b0316612f298461086d565b6001600160a01b031614949350505050565b826001600160a01b0316612f4e82611870565b6001600160a01b031614612fb25760405162461bcd60e51b815260206004820152602560248201527f4552433732313a207472616e736665722066726f6d20696e636f72726563742060448201526437bbb732b960d91b6064820152608401610613565b6001600160a01b0382166130145760405162461bcd60e51b8152602060048201526024808201527f4552433732313a207472616e7366657220746f20746865207a65726f206164646044820152637265737360e01b6064820152608401610613565b61301f600082612deb565b6001600160a01b0383166000908152600360205260408120805460019290613048908490614ad4565b90915550506001600160a01b0382166000908152600360205260408120805460019290613076908490614c6d565b909155505060008181526002602052604080822080546001600160a01b0319166001600160a01b038681169182179092559151849391871691600080516020614eb183398151915291a4505050565b611f3b828233613679565b6130db838383610abd565b156109a4576000838152600d6020908152604080832085845282528083206001600160a01b03851684528252808320805460ff19169055600f90915290205461312484826136dd565b6001600160a01b0382166000908152600f6020526040812055336001600160a01b0316826001600160a01b0316847f7b00293d63517946aeba2f56c6b4c5dec87b67393ac48520994d3d8ce776335a8760405161318391815260200190565b60405180910390a450505050565b600061319c82611870565b90506131a9600083612deb565b6001600160a01b03811660009081526003602052604081208054600192906131d2908490614ad4565b909155505060008281526002602052604080822080546001600160a01b0319169055518391906001600160a01b03841690600080516020614eb1833981519152908390a46000828152600660205260409020805461322f90614872565b159050611f3b576000828152600660205260408120611f3b91613b51565b6109a4838383613575565b6001600160a01b0382166132ae5760405162461bcd60e51b815260206004820181905260248201527f4552433732313a206d696e7420746f20746865207a65726f20616464726573736044820152606401610613565b6132b781612da6565b156133035760405162461bcd60e51b815260206004820152601c60248201527b115490cdcc8c4e881d1bdad95b88185b1c9958591e481b5a5b9d195960221b6044820152606401610613565b6001600160a01b038216600090815260036020526040812080546001929061332c908490614c6d565b909155505060008181526002602052604080822080546001600160a01b0319166001600160a01b0386169081179091559051839290600080516020614eb1833981519152908290a45050565b816001600160a01b0316836001600160a01b0316036133d55760405162461bcd60e51b815260206004820152601960248201527822a9219b99189d1030b8383937bb32903a379031b0b63632b960391b6044820152606401610613565b6001600160a01b03838116600081815260056020908152604080832094871680845294825291829020805460ff191686151590811790915591519182527f17307eab39ab6107e8899845ad3d59bd9653f200f220920489ca2b5937696c31910160405180910390a3505050565b61344d848484612f3b565b613459848484846137c0565b61186a5760405162461bcd60e51b815260040161061390614c96565b60608160000361349c5750506040805180820190915260018152600360fc1b602082015290565b8160005b81156134c657806134b081614aa5565b91506134bf9050600a83614cfe565b91506134a0565b6000816001600160401b038111156134e0576134e0613ce9565b6040519080825280601f01601f19166020018201604052801561350a576020820181803683370190505b5090505b841561273d5761351f600183614ad4565b915061352c600a86614d12565b613537906030614c6d565b60f81b81838151811061354c5761354c614abe565b60200101906001600160f81b031916908160001a90535061356e600a86614cfe565b945061350e565b613580838383610abd565b6109a4576000838152600d6020908152604080832085845282528083206001600160a01b03858116808652918452828520805460ff1916600190811790915583518085018552928352828501888152898752600e865293862080548083018255818852958720845160029097020180546001600160a01b0319169690931695909517825592519083015592869052905461361a9190614ad4565b6001600160a01b0383166000908152600f6020526040902055336001600160a01b0316826001600160a01b0316847fd9dfff7752b7a810e2b646c0c96b76bc9ed817f6c6f7848bbe68163f7e8b43788760405161318391815260200190565b613684838383610abd565b6109a457613691816138c1565b61369c8360206138d3565b6136a585613a75565b6040516020016136b793929190614d26565b60408051601f198184030181529082905262461bcd60e51b825261061391600401613e5f565b6000828152600e6020526040902080546136f990600190614ad4565b8154811061370957613709614abe565b9060005260206000209060020201600e6000848152602001908152602001600020828154811061373b5761373b614abe565b60009182526020808320845460029093020180546001600160a01b0319166001600160a01b039093169290921782556001938401549390910192909255838152600e9091526040902080548061379357613793614ae7565b60008281526020812060026000199093019283020180546001600160a01b03191681556001015590555050565b60006001600160a01b0384163b156138b657604051630a85bd0160e11b81526001600160a01b0385169063150b7a0290613804903390899088908890600401614dc8565b6020604051808303816000875af192505050801561383f575060408051601f3d908101601f1916820190925261383c91810190614e05565b60015b61389c573d80801561386d576040519150601f19603f3d011682016040523d82523d6000602084013e613872565b606091505b5080516000036138945760405162461bcd60e51b815260040161061390614c96565b805181602001fd5b6001600160e01b031916630a85bd0160e11b14905061273d565b506001949350505050565b60606110f86001600160a01b03831660145b606060006138e2836002614e22565b6138ed906002614c6d565b6001600160401b0381111561390457613904613ce9565b6040519080825280601f01601f19166020018201604052801561392e576020820181803683370190505b509050600360fc1b8160008151811061394957613949614abe565b60200101906001600160f81b031916908160001a905350600f60fb1b8160018151811061397857613978614abe565b60200101906001600160f81b031916908160001a905350600061399c846002614e22565b6139a7906001614c6d565b90505b6001811115613a1f576f181899199a1a9b1b9c1cb0b131b232b360811b85600f16601081106139db576139db614abe565b1a60f81b8282815181106139f1576139f1614abe565b60200101906001600160f81b031916908160001a90535060049490941c93613a1881614e39565b90506139aa565b508315613a6e5760405162461bcd60e51b815260206004820181905260248201527f537472696e67733a20686578206c656e67746820696e73756666696369656e746044820152606401610613565b9392505050565b606081600003613a9f5750506040805180820190915260048152630307830360e41b602082015290565b8160005b8115613ac25780613ab381614aa5565b915050600882901c9150613aa3565b61273d84826138d3565b6040518060a0016040528060006001600160a01b031681526020016000815260200160008152602001600081526020016000151581525090565b828054828255906000526020600020908101928215613b41579160200282015b82811115613b41578235825591602001919060010190613b26565b50613b4d929150613c60565b5090565b508054613b5d90614872565b6000825580601f10613b6d575050565b601f016020900490600052602060002090810190612de89190613c60565b5080546000825590600052602060002090810190612de89190613c60565b828054828255906000526020600020908101928215613b41579160200282015b82811115613b41578251825591602001919060010190613bc9565b60405180610180016040528060008152602001606081526020016060815260200160008152602001600081526020016000815260200160008152602001600081526020016060815260200160608152602001613c53604051806040016040528060008152602001600081525090565b8152600060209091015290565b5b80821115613b4d5760008155600101613c61565b6001600160e01b031981168114612de857600080fd5b600060208284031215613c9d57600080fd5b8135613a6e81613c75565b80358015158114613cb857600080fd5b919050565b60008060408385031215613cd057600080fd5b82359150613ce060208401613ca8565b90509250929050565b634e487b7160e01b600052604160045260246000fd5b604051601f8201601f191681016001600160401b0381118282101715613d2757613d27613ce9565b604052919050565b80356001600160a01b0381168114613cb857600080fd5b60008060008060808587031215613d5c57600080fd5b8435935060208086013593506040860135925060608601356001600160401b0380821115613d8957600080fd5b818801915088601f830112613d9d57600080fd5b813581811115613daf57613daf613ce9565b8060051b9150613dc0848301613cff565b818152918301840191848101908b841115613dda57600080fd5b938501935b83851015613dff57613df085613d2f565b82529385019390850190613ddf565b989b979a50959850505050505050565b60005b83811015613e2a578181015183820152602001613e12565b50506000910152565b60008151808452613e4b816020860160208601613e0f565b601f01601f19169290920160200192915050565b602081526000613a6e6020830184613e33565b600060208284031215613e8457600080fd5b5035919050565b60008060408385031215613e9e57600080fd5b613ea783613d2f565b946020939093013593505050565b80516001600160a01b031682526020808201519083015260408082015190830152606080820151908301526080908101511515910152565b60a081016110f88284613eb5565b602080825282518282018190526000919060409081850190868401855b82811015613f4657815180516001600160a01b03168552860151868501529284019290850190600101613f18565b5091979650505050505050565b600080600060608486031215613f6857600080fd5b8335925060208401359150613f7f60408501613d2f565b90509250925092565b60008060008060808587031215613f9e57600080fd5b5050823594602084013594506040840135936060013592509050565b60008060408385031215613fcd57600080fd5b82359150613ce060208401613d2f565b60006001600160401b03831115613ff657613ff6613ce9565b614009601f8401601f1916602001613cff565b905082815283838301111561401d57600080fd5b828260208301376000602084830101529392505050565b600082601f83011261404557600080fd5b613a6e83833560208501613fdd565b6000806040838503121561406757600080fd5b8235915060208301356001600160401b0381111561408457600080fd5b61409085828601614034565b9150509250929050565b6000806000606084860312156140af57600080fd5b6140b884613d2f565b92506140c660208501613d2f565b9150604084013590509250925092565b60008083601f8401126140e857600080fd5b5081356001600160401b038111156140ff57600080fd5b6020830191508360208260051b850101111561411a57600080fd5b9250929050565b6000604082840312156123cc57600080fd5b60008060008060008060008060006101008a8c03121561415257600080fd5b8935985060208a0135975060408a01356001600160401b038082111561417757600080fd5b6141838d838e01614034565b985060608c0135975060808c01359150808211156141a057600080fd5b6141ac8d838e016140d6565b909750955060a08c01359150808211156141c557600080fd5b506141d28c828d016140d6565b90945092506141e690508b60c08c01614121565b90509295985092959850929598565b6020808252825182820181905260009190848201906040850190845b8181101561423757614224838551613eb5565b9284019260a09290920191600101614211565b50909695505050505050565b6000806040838503121561425657600080fd5b50508035926020909101359150565b60008060006060848603121561427a57600080fd5b505081359360208301359350604090920135919050565b6000602082840312156142a357600080fd5b613a6e82613d2f565b600080600080608085870312156142c257600080fd5b84359350602085013592506040850135915060608501356001600160401b038111156142ed57600080fd5b6142f987828801614034565b91505092959194509250565b60008083601f84011261431757600080fd5b5081356001600160401b0381111561432e57600080fd5b60208301915083602082850101111561411a57600080fd5b6000806000806000806000806000806000806101408d8f03121561436957600080fd5b8c359b506001600160401b0360208e0135111561438557600080fd5b6143958e60208f01358f01614305565b909b50995060408d0135985060608d0135975060808d0135965060a08d013595506001600160401b0360c08e013511156143ce57600080fd5b6143de8e60c08f01358f016140d6565b90955093506001600160401b0360e08e013511156143fb57600080fd5b61440b8e60e08f01358f016140d6565b909350915061441e8e6101008f01614121565b90509295989b509295989b509295989b565b6000806040838503121561444357600080fd5b61444c83613d2f565b9150613ce060208401613ca8565b60008060006060848603121561446f57600080fd5b8335925060208401359150613f7f60408501613ca8565b600081518084526020808501945080840160005b838110156144b65781518752958201959082019060010161449a565b509495945050505050565b60006020808301818452808551808352604092508286019150828160051b87010184880160005b838110156145e757603f1989840301855281516101a08151855288820151818a87015261451782870182613e33565b915050878201518582038987015261452f8282614486565b606084810151908801526080808501519088015260a0808501519088015260c0808501519088015260e0808501519088015261010080850151888303828a0152919350915061457e8382614486565b92505050610120808301518683038288015261459a8382614486565b92505050610140808301516145bb8288018280518252602090810151910152565b505061016082015191506145d461018086018315159052565b95880195935050908601906001016144e8565b509098975050505050505050565b602081526000613a6e6020830184614486565b6000806000806080858703121561461e57600080fd5b61462785613d2f565b935061463560208601613d2f565b92506040850135915060608501356001600160401b0381111561465757600080fd5b8501601f8101871361466857600080fd5b6142f987823560208401613fdd565b6000806040838503121561468a57600080fd5b61469383613d2f565b9150613ce060208401613d2f565b600080600080608085870312156146b757600080fd5b843593506020850135925060408501356001600160401b038111156146db57600080fd5b6146e787828801614034565b949793965093946060013593505050565b6020808252601c908201527b4576656e743a204576656e7420646f6573206e6f742065786973742160201b604082015260600190565b6020808252602a908201527f4576656e743a2043616c6c6572206973206e6f7420616e2061646d696e206f726040820152691036b7b232b930ba37b960b11b606082015260800190565b6020808252601f908201527f4576656e743a2043617465676f727920646f6573206e6f742065786973742100604082015260600190565b60208082526029908201527f4576656e743a20546869732063617465676f727920697320666f7220616e6f746040820152681a195c88195d995b9d60ba1b606082015260800190565b600060a082018783526020878185015286604085015260a0606085015281865180845260c086019150828801935060005b8181101561484e5784516001600160a01b031683529383019391830191600101614829565b50506001600160a01b03959095166080949094019390935250919695505050505050565b600181811c9082168061488657607f821691505b6020821081036123cc57634e487b7160e01b600052602260045260246000fd5b6020808252601d908201527f4576656e743a2043616c6c6572206973206e6f7420616e2061646d696e000000604082015260600190565b6020808252602e908201527f4552433732313a2063616c6c6572206973206e6f7420746f6b656e206f776e6560408201526d1c881b9bdc88185c1c1c9bdd995960921b606082015260800190565b60208082526028908201527f4576656e743a20446973636f756e7420706172616d6574657273206c656e677460408201526768206e6f7420657160c01b606082015260800190565b601f8211156109a457600081815260208120601f850160051c8101602086101561499a5750805b601f850160051c820191505b818110156149b9578281556001016149a6565b505050505050565b600019600383901b1c191660019190911b1790565b81516001600160401b038111156149ef576149ef613ce9565b614a03816149fd8454614872565b84614973565b602080601f831160018114614a325760008415614a205750858301515b614a2a85826149c1565b8655506149b9565b600085815260208120601f198616915b82811015614a6157888601518255948401946001909101908401614a42565b5085821015614a7f5787850151600019600388901b60f8161c191681555b5050505050600190811b01905550565b634e487b7160e01b600052601160045260246000fd5b600060018201614ab757614ab7614a8f565b5060010190565b634e487b7160e01b600052603260045260246000fd5b818103818111156110f8576110f8614a8f565b634e487b7160e01b600052603160045260246000fd5b602080825260189082015277115490cdcc8c4e881a5b9d985b1a59081d1bdad95b88125160421b604082015260600190565b82815260406020820152600061273d6040830184613e33565b6001600160401b03831115614b5f57614b5f613ce9565b614b7383614b6d8354614872565b83614973565b6000601f841160018114614ba15760008515614b8f5750838201355b614b9986826149c1565b84555061148e565b600083815260209020601f19861690835b82811015614bd25786850135825560209485019460019092019101614bb2565b5086821015614bef5760001960f88860031b161c19848701351681555b505060018560011b0183555050505050565b84815283602082015260606040820152816060820152818360808301376000818301608090810191909152601f909201601f191601019392505050565b60008351614c50818460208801613e0f565b835190830190614c64818360208801613e0f565b01949350505050565b808201808211156110f8576110f8614a8f565b9283526020830191909152604082015260600190565b60208082526032908201527f4552433732313a207472616e7366657220746f206e6f6e20455243373231526560408201527131b2b4bb32b91034b6b83632b6b2b73a32b960711b606082015260800190565b634e487b7160e01b600052601260045260246000fd5b600082614d0d57614d0d614ce8565b500490565b600082614d2157614d21614ce8565b500690565b7402937b632a1b7b73a3937b61d1030b1b1b7bab73a1605d1b815260008451614d56816015850160208901613e0f565b7001034b99036b4b9b9b4b733903937b6329607d1b6015918401918201528451614d87816026840160208901613e0f565b720103337b91032bb32b73a103bb4ba341034b21606d1b602692909101918201528351614dbb816039840160208801613e0f565b0160390195945050505050565b6001600160a01b0385811682528416602082015260408101839052608060608201819052600090614dfb90830184613e33565b9695505050505050565b600060208284031215614e1757600080fd5b8151613a6e81613c75565b80820281158282048414176110f8576110f8614a8f565b600081614e4857614e48614a8f565b50600019019056feff3317e1e0e8c784290b957ee9b65ea8fe96420c4819db463283b95ecbe4a3feb5a7f51d0593e853ad0aa6b718ee0bdd10c4966eb62d243b69d538e5823d040171f3d55856e4058ed06ee057d79ada615f65cdf5f9ee88181b914225088f834fddf252ad1be2c89b69c2b068fc378daa952ba7f163c4a11628f55a4df523b3efa2646970667358221220fc68781d4e80c35493129b0a6d6eb6112aec5fd7cd44b6f77a6ccb1811af8e9664736f6c63430008110033",
  "linkReferences": {},
  "deployedLinkReferences": {}
}