{
  "_format": "hh-sol-artifact-1",
  "contractName": "EventFacet",
  "sourceName": "contracts/EventDiamond/facets/EventFacet.sol",
  "abi": [
    {
      "anonymous": false,
      "inputs": [
        {
          "indexed": false,
          "internalType": "uint256",
          "name": "eventId",
          "type": "uint256"
        },
        {
          "indexed": false,
          "internalType": "bool",
          "name": "value",
          "type": "bool"
        }
      ],
      "name": "AllCategorySellChanged",
      "type": "event"
    },
    {
      "anonymous": false,
      "inputs": [
        {
          "indexed": true,
          "internalType": "address",
          "name": "owner",
          "type": "address"
        },
        {
          "indexed": true,
          "internalType": "address",
          "name": "approved",
          "type": "address"
        },
        {
          "indexed": true,
          "internalType": "uint256",
          "name": "tokenId",
          "type": "uint256"
        }
      ],
      "name": "Approval",
      "type": "event"
    },
    {
      "anonymous": false,
      "inputs": [
        {
          "indexed": true,
          "internalType": "address",
          "name": "owner",
          "type": "address"
        },
        {
          "indexed": true,
          "internalType": "address",
          "name": "operator",
          "type": "address"
        },
        {
          "indexed": false,
          "internalType": "bool",
          "name": "approved",
          "type": "bool"
        }
      ],
      "name": "ApprovalForAll",
      "type": "event"
    },
    {
      "anonymous": false,
      "inputs": [
        {
          "indexed": false,
          "internalType": "uint256",
          "name": "_fromTokenId",
          "type": "uint256"
        },
        {
          "indexed": false,
          "internalType": "uint256",
          "name": "_toTokenId",
          "type": "uint256"
        }
      ],
      "name": "BatchMetadataUpdate",
      "type": "event"
    },
    {
      "anonymous": false,
      "inputs": [
        {
          "indexed": false,
          "internalType": "uint256",
          "name": "eventId",
          "type": "uint256"
        },
        {
          "indexed": false,
          "internalType": "uint256",
          "name": "categoryId",
          "type": "uint256"
        },
        {
          "indexed": false,
          "internalType": "string",
          "name": "categoryCid",
          "type": "string"
        }
      ],
      "name": "CategoryCreated",
      "type": "event"
    },
    {
      "anonymous": false,
      "inputs": [
        {
          "indexed": false,
          "internalType": "uint256",
          "name": "eventId",
          "type": "uint256"
        },
        {
          "indexed": false,
          "internalType": "uint256",
          "name": "categoryId",
          "type": "uint256"
        }
      ],
      "name": "CategoryDeleted",
      "type": "event"
    },
    {
      "anonymous": false,
      "inputs": [
        {
          "indexed": false,
          "internalType": "uint256",
          "name": "eventId",
          "type": "uint256"
        },
        {
          "indexed": false,
          "internalType": "uint256",
          "name": "categoryId",
          "type": "uint256"
        },
        {
          "indexed": false,
          "internalType": "address",
          "name": "staffMember",
          "type": "address"
        }
      ],
      "name": "CategorySaleDatesUpdated",
      "type": "event"
    },
    {
      "anonymous": false,
      "inputs": [
        {
          "indexed": false,
          "internalType": "uint256",
          "name": "eventId",
          "type": "uint256"
        },
        {
          "indexed": false,
          "internalType": "uint256",
          "name": "categoryId",
          "type": "uint256"
        },
        {
          "indexed": false,
          "internalType": "bool",
          "name": "value",
          "type": "bool"
        }
      ],
      "name": "CategorySellChanged",
      "type": "event"
    },
    {
      "anonymous": false,
      "inputs": [
        {
          "indexed": false,
          "internalType": "uint256",
          "name": "eventId",
          "type": "uint256"
        },
        {
          "indexed": false,
          "internalType": "uint256",
          "name": "categoryId",
          "type": "uint256"
        },
        {
          "indexed": false,
          "internalType": "uint256",
          "name": "ticketsCount",
          "type": "uint256"
        }
      ],
      "name": "CategoryTicketsAdded",
      "type": "event"
    },
    {
      "anonymous": false,
      "inputs": [
        {
          "indexed": false,
          "internalType": "uint256",
          "name": "eventId",
          "type": "uint256"
        },
        {
          "indexed": false,
          "internalType": "uint256",
          "name": "categoryId",
          "type": "uint256"
        },
        {
          "indexed": false,
          "internalType": "uint256",
          "name": "ticketsCount",
          "type": "uint256"
        }
      ],
      "name": "CategoryTicketsRemoved",
      "type": "event"
    },
    {
      "anonymous": false,
      "inputs": [
        {
          "indexed": false,
          "internalType": "uint256",
          "name": "eventId",
          "type": "uint256"
        },
        {
          "indexed": false,
          "internalType": "uint256",
          "name": "categoryId",
          "type": "uint256"
        }
      ],
      "name": "CategoryUpdated",
      "type": "event"
    },
    {
      "anonymous": false,
      "inputs": [
        {
          "indexed": false,
          "internalType": "uint256",
          "name": "eventId",
          "type": "uint256"
        },
        {
          "indexed": false,
          "internalType": "address",
          "name": "account",
          "type": "address"
        },
        {
          "indexed": false,
          "internalType": "address",
          "name": "setter",
          "type": "address"
        }
      ],
      "name": "EventCashierSet",
      "type": "event"
    },
    {
      "anonymous": false,
      "inputs": [
        {
          "indexed": false,
          "internalType": "uint256",
          "name": "eventId",
          "type": "uint256"
        },
        {
          "indexed": false,
          "internalType": "string",
          "name": "metadataUri",
          "type": "string"
        }
      ],
      "name": "EventCreated",
      "type": "event"
    },
    {
      "anonymous": false,
      "inputs": [
        {
          "indexed": false,
          "internalType": "uint256",
          "name": "eventId",
          "type": "uint256"
        },
        {
          "indexed": false,
          "internalType": "uint256",
          "name": "date",
          "type": "uint256"
        },
        {
          "indexed": false,
          "internalType": "uint8",
          "name": "percentage",
          "type": "uint8"
        }
      ],
      "name": "EventRefundDateAdded",
      "type": "event"
    },
    {
      "anonymous": false,
      "inputs": [
        {
          "indexed": false,
          "internalType": "uint256",
          "name": "_tokenId",
          "type": "uint256"
        }
      ],
      "name": "MetadataUpdate",
      "type": "event"
    },
    {
      "anonymous": false,
      "inputs": [
        {
          "indexed": false,
          "internalType": "uint256",
          "name": "eventId",
          "type": "uint256"
        },
        {
          "indexed": true,
          "internalType": "bytes32",
          "name": "role",
          "type": "bytes32"
        },
        {
          "indexed": true,
          "internalType": "bytes32",
          "name": "previousAdminRole",
          "type": "bytes32"
        },
        {
          "indexed": true,
          "internalType": "bytes32",
          "name": "newAdminRole",
          "type": "bytes32"
        }
      ],
      "name": "RoleAdminChanged",
      "type": "event"
    },
    {
      "anonymous": false,
      "inputs": [
        {
          "indexed": false,
          "internalType": "uint256",
          "name": "eventId",
          "type": "uint256"
        },
        {
          "indexed": true,
          "internalType": "bytes32",
          "name": "role",
          "type": "bytes32"
        },
        {
          "indexed": true,
          "internalType": "address",
          "name": "account",
          "type": "address"
        },
        {
          "indexed": true,
          "internalType": "address",
          "name": "sender",
          "type": "address"
        }
      ],
      "name": "RoleGranted",
      "type": "event"
    },
    {
      "anonymous": false,
      "inputs": [
        {
          "indexed": false,
          "internalType": "uint256",
          "name": "eventId",
          "type": "uint256"
        },
        {
          "indexed": true,
          "internalType": "bytes32",
          "name": "role",
          "type": "bytes32"
        },
        {
          "indexed": true,
          "internalType": "address",
          "name": "account",
          "type": "address"
        },
        {
          "indexed": true,
          "internalType": "address",
          "name": "sender",
          "type": "address"
        }
      ],
      "name": "RoleRevoked",
      "type": "event"
    },
    {
      "anonymous": false,
      "inputs": [
        {
          "indexed": true,
          "internalType": "address",
          "name": "from",
          "type": "address"
        },
        {
          "indexed": true,
          "internalType": "address",
          "name": "to",
          "type": "address"
        },
        {
          "indexed": true,
          "internalType": "uint256",
          "name": "tokenId",
          "type": "uint256"
        }
      ],
      "name": "Transfer",
      "type": "event"
    },
    {
      "inputs": [
        {
          "internalType": "uint256",
          "name": "_eventId",
          "type": "uint256"
        },
        {
          "internalType": "uint256",
          "name": "_categoryId",
          "type": "uint256"
        },
        {
          "internalType": "uint256",
          "name": "_ticketsCount",
          "type": "uint256"
        }
      ],
      "name": "addCategoryTicketsCount",
      "outputs": [],
      "stateMutability": "nonpayable",
      "type": "function"
    },
    {
      "inputs": [
        {
          "internalType": "uint256",
          "name": "_eventId",
          "type": "uint256"
        },
        {
          "internalType": "bytes32",
          "name": "_role",
          "type": "bytes32"
        },
        {
          "internalType": "address",
          "name": "_account",
          "type": "address"
        }
      ],
      "name": "addTeamMember",
      "outputs": [],
      "stateMutability": "nonpayable",
      "type": "function"
    },
    {
      "inputs": [
        {
          "internalType": "address",
          "name": "to",
          "type": "address"
        },
        {
          "internalType": "uint256",
          "name": "tokenId",
          "type": "uint256"
        }
      ],
      "name": "approve",
      "outputs": [],
      "stateMutability": "nonpayable",
      "type": "function"
    },
    {
      "inputs": [
        {
          "internalType": "address",
          "name": "owner",
          "type": "address"
        }
      ],
      "name": "balanceOf",
      "outputs": [
        {
          "internalType": "uint256",
          "name": "",
          "type": "uint256"
        }
      ],
      "stateMutability": "view",
      "type": "function"
    },
    {
      "inputs": [
        {
          "internalType": "uint256",
          "name": "_maxTicketsPerClient",
          "type": "uint256"
        },
        {
          "internalType": "uint64",
          "name": "_startDate",
          "type": "uint64"
        },
        {
          "internalType": "uint64",
          "name": "_endDate",
          "type": "uint64"
        },
        {
          "internalType": "string",
          "name": "_metadataURI",
          "type": "string"
        }
      ],
      "name": "createEvent",
      "outputs": [],
      "stateMutability": "nonpayable",
      "type": "function"
    },
    {
      "inputs": [
        {
          "internalType": "uint256",
          "name": "_eventId",
          "type": "uint256"
        },
        {
          "internalType": "string",
          "name": "_categoryCid",
          "type": "string"
        },
        {
          "internalType": "uint256",
          "name": "_saleStartDate",
          "type": "uint256"
        },
        {
          "internalType": "uint256",
          "name": "_saleEndDate",
          "type": "uint256"
        },
        {
          "internalType": "uint256",
          "name": "_ticketsCount",
          "type": "uint256"
        },
        {
          "internalType": "uint256",
          "name": "_ticketPrice",
          "type": "uint256"
        },
        {
          "internalType": "uint256[]",
          "name": "_discountsTicketsCount",
          "type": "uint256[]"
        },
        {
          "internalType": "uint256[]",
          "name": "_discountsPercentage",
          "type": "uint256[]"
        },
        {
          "components": [
            {
              "internalType": "uint256",
              "name": "price",
              "type": "uint256"
            },
            {
              "internalType": "uint256",
              "name": "finalAmountDate",
              "type": "uint256"
            }
          ],
          "internalType": "struct DownPayment",
          "name": "_downPayment",
          "type": "tuple"
        }
      ],
      "name": "createTicketCategory",
      "outputs": [],
      "stateMutability": "nonpayable",
      "type": "function"
    },
    {
      "inputs": [
        {
          "internalType": "uint256",
          "name": "tokenId",
          "type": "uint256"
        }
      ],
      "name": "endTime",
      "outputs": [
        {
          "internalType": "uint64",
          "name": "",
          "type": "uint64"
        }
      ],
      "stateMutability": "view",
      "type": "function"
    },
    {
      "inputs": [],
      "name": "fetchAllEventIds",
      "outputs": [
        {
          "internalType": "uint256[]",
          "name": "",
          "type": "uint256[]"
        }
      ],
      "stateMutability": "view",
      "type": "function"
    },
    {
      "inputs": [],
      "name": "fetchAllEvents",
      "outputs": [
        {
          "components": [
            {
              "internalType": "address",
              "name": "organizer",
              "type": "address"
            },
            {
              "internalType": "uint256",
              "name": "maxTicketsPerClient",
              "type": "uint256"
            },
            {
              "internalType": "bool",
              "name": "areAllCategoryTicketsBuyable",
              "type": "bool"
            },
            {
              "internalType": "uint64",
              "name": "startTime",
              "type": "uint64"
            },
            {
              "internalType": "uint64",
              "name": "endTime",
              "type": "uint64"
            }
          ],
          "internalType": "struct Event[]",
          "name": "",
          "type": "tuple[]"
        }
      ],
      "stateMutability": "view",
      "type": "function"
    },
    {
      "inputs": [
        {
          "internalType": "uint256",
          "name": "_eventId",
          "type": "uint256"
        }
      ],
      "name": "fetchCategoriesByEventId",
      "outputs": [
        {
          "components": [
            {
              "internalType": "uint256",
              "name": "id",
              "type": "uint256"
            },
            {
              "internalType": "string",
              "name": "cid",
              "type": "string"
            },
            {
              "internalType": "uint256[]",
              "name": "ticketIds",
              "type": "uint256[]"
            },
            {
              "internalType": "uint256",
              "name": "ticketPrice",
              "type": "uint256"
            },
            {
              "internalType": "uint256",
              "name": "ticketsCount",
              "type": "uint256"
            },
            {
              "internalType": "uint256",
              "name": "saleStartDate",
              "type": "uint256"
            },
            {
              "internalType": "uint256",
              "name": "saleEndDate",
              "type": "uint256"
            },
            {
              "internalType": "uint256",
              "name": "eventId",
              "type": "uint256"
            },
            {
              "internalType": "uint256[]",
              "name": "discountsTicketsCount",
              "type": "uint256[]"
            },
            {
              "internalType": "uint256[]",
              "name": "discountsPercentage",
              "type": "uint256[]"
            },
            {
              "components": [
                {
                  "internalType": "uint256",
                  "name": "price",
                  "type": "uint256"
                },
                {
                  "internalType": "uint256",
                  "name": "finalAmountDate",
                  "type": "uint256"
                }
              ],
              "internalType": "struct DownPayment",
              "name": "downPayment",
              "type": "tuple"
            },
            {
              "internalType": "bool",
              "name": "areTicketsBuyable",
              "type": "bool"
            }
          ],
          "internalType": "struct Category[]",
          "name": "",
          "type": "tuple[]"
        }
      ],
      "stateMutability": "view",
      "type": "function"
    },
    {
      "inputs": [
        {
          "internalType": "uint256",
          "name": "_eventId",
          "type": "uint256"
        }
      ],
      "name": "fetchEventById",
      "outputs": [
        {
          "components": [
            {
              "internalType": "address",
              "name": "organizer",
              "type": "address"
            },
            {
              "internalType": "uint256",
              "name": "maxTicketsPerClient",
              "type": "uint256"
            },
            {
              "internalType": "bool",
              "name": "areAllCategoryTicketsBuyable",
              "type": "bool"
            },
            {
              "internalType": "uint64",
              "name": "startTime",
              "type": "uint64"
            },
            {
              "internalType": "uint64",
              "name": "endTime",
              "type": "uint64"
            }
          ],
          "internalType": "struct Event",
          "name": "eventObj",
          "type": "tuple"
        }
      ],
      "stateMutability": "view",
      "type": "function"
    },
    {
      "inputs": [],
      "name": "fetchOwnedEvents",
      "outputs": [
        {
          "internalType": "uint256[]",
          "name": "",
          "type": "uint256[]"
        }
      ],
      "stateMutability": "view",
      "type": "function"
    },
    {
      "inputs": [
        {
          "internalType": "uint256",
          "name": "tokenId",
          "type": "uint256"
        }
      ],
      "name": "getApproved",
      "outputs": [
        {
          "internalType": "address",
          "name": "",
          "type": "address"
        }
      ],
      "stateMutability": "view",
      "type": "function"
    },
    {
      "inputs": [
        {
          "internalType": "uint256",
          "name": "eventId",
          "type": "uint256"
        }
      ],
      "name": "getEventMembers",
      "outputs": [
        {
          "components": [
            {
              "internalType": "address",
              "name": "account",
              "type": "address"
            },
            {
              "internalType": "bytes32",
              "name": "role",
              "type": "bytes32"
            }
          ],
          "internalType": "struct MemberData[]",
          "name": "",
          "type": "tuple[]"
        }
      ],
      "stateMutability": "view",
      "type": "function"
    },
    {
      "inputs": [
        {
          "internalType": "uint256",
          "name": "eventId",
          "type": "uint256"
        },
        {
          "internalType": "bytes32",
          "name": "role",
          "type": "bytes32"
        }
      ],
      "name": "getRoleAdmin",
      "outputs": [
        {
          "internalType": "bytes32",
          "name": "",
          "type": "bytes32"
        }
      ],
      "stateMutability": "view",
      "type": "function"
    },
    {
      "inputs": [
        {
          "internalType": "uint256",
          "name": "eventId",
          "type": "uint256"
        },
        {
          "internalType": "bytes32",
          "name": "role",
          "type": "bytes32"
        },
        {
          "internalType": "address",
          "name": "account",
          "type": "address"
        }
      ],
      "name": "grantRole",
      "outputs": [],
      "stateMutability": "nonpayable",
      "type": "function"
    },
    {
      "inputs": [
        {
          "internalType": "uint256",
          "name": "eventId",
          "type": "uint256"
        },
        {
          "internalType": "bytes32",
          "name": "role",
          "type": "bytes32"
        },
        {
          "internalType": "address",
          "name": "account",
          "type": "address"
        }
      ],
      "name": "hasRole",
      "outputs": [
        {
          "internalType": "bool",
          "name": "",
          "type": "bool"
        }
      ],
      "stateMutability": "view",
      "type": "function"
    },
    {
      "inputs": [
        {
          "internalType": "address",
          "name": "owner",
          "type": "address"
        },
        {
          "internalType": "address",
          "name": "operator",
          "type": "address"
        }
      ],
      "name": "isApprovedForAll",
      "outputs": [
        {
          "internalType": "bool",
          "name": "",
          "type": "bool"
        }
      ],
      "stateMutability": "view",
      "type": "function"
    },
    {
      "inputs": [
        {
          "internalType": "uint256",
          "name": "_eventId",
          "type": "uint256"
        },
        {
          "internalType": "bool",
          "name": "_value",
          "type": "bool"
        }
      ],
      "name": "manageAllCategorySelling",
      "outputs": [],
      "stateMutability": "nonpayable",
      "type": "function"
    },
    {
      "inputs": [
        {
          "internalType": "uint256",
          "name": "_eventId",
          "type": "uint256"
        },
        {
          "internalType": "uint256",
          "name": "_categoryId",
          "type": "uint256"
        },
        {
          "internalType": "bool",
          "name": "_value",
          "type": "bool"
        }
      ],
      "name": "manageCategorySelling",
      "outputs": [],
      "stateMutability": "nonpayable",
      "type": "function"
    },
    {
      "inputs": [],
      "name": "name",
      "outputs": [
        {
          "internalType": "string",
          "name": "",
          "type": "string"
        }
      ],
      "stateMutability": "view",
      "type": "function"
    },
    {
      "inputs": [
        {
          "internalType": "uint256",
          "name": "tokenId",
          "type": "uint256"
        }
      ],
      "name": "ownerOf",
      "outputs": [
        {
          "internalType": "address",
          "name": "",
          "type": "address"
        }
      ],
      "stateMutability": "view",
      "type": "function"
    },
    {
      "inputs": [
        {
          "internalType": "uint256",
          "name": "_eventId",
          "type": "uint256"
        },
        {
          "internalType": "uint256",
          "name": "_categoryId",
          "type": "uint256"
        }
      ],
      "name": "removeCategory",
      "outputs": [],
      "stateMutability": "nonpayable",
      "type": "function"
    },
    {
      "inputs": [
        {
          "internalType": "uint256",
          "name": "_eventId",
          "type": "uint256"
        },
        {
          "internalType": "uint256",
          "name": "_categoryId",
          "type": "uint256"
        },
        {
          "internalType": "uint256",
          "name": "_ticketsCount",
          "type": "uint256"
        }
      ],
      "name": "removeCategoryTicketsCount",
      "outputs": [],
      "stateMutability": "nonpayable",
      "type": "function"
    },
    {
      "inputs": [
        {
          "internalType": "uint256",
          "name": "_eventId",
          "type": "uint256"
        }
      ],
      "name": "removeEvent",
      "outputs": [],
      "stateMutability": "nonpayable",
      "type": "function"
    },
    {
      "inputs": [
        {
          "internalType": "uint256",
          "name": "_eventId",
          "type": "uint256"
        },
        {
          "internalType": "bytes32",
          "name": "_role",
          "type": "bytes32"
        },
        {
          "internalType": "address",
          "name": "_account",
          "type": "address"
        }
      ],
      "name": "removeTeamMember",
      "outputs": [],
      "stateMutability": "nonpayable",
      "type": "function"
    },
    {
      "inputs": [
        {
          "internalType": "uint256",
          "name": "eventId",
          "type": "uint256"
        },
        {
          "internalType": "bytes32",
          "name": "role",
          "type": "bytes32"
        },
        {
          "internalType": "address",
          "name": "account",
          "type": "address"
        }
      ],
      "name": "renounceRole",
      "outputs": [],
      "stateMutability": "nonpayable",
      "type": "function"
    },
    {
      "inputs": [
        {
          "internalType": "uint256",
          "name": "eventId",
          "type": "uint256"
        },
        {
          "internalType": "bytes32",
          "name": "role",
          "type": "bytes32"
        },
        {
          "internalType": "address",
          "name": "account",
          "type": "address"
        }
      ],
      "name": "revokeRole",
      "outputs": [],
      "stateMutability": "nonpayable",
      "type": "function"
    },
    {
      "inputs": [
        {
          "internalType": "address",
          "name": "from",
          "type": "address"
        },
        {
          "internalType": "address",
          "name": "to",
          "type": "address"
        },
        {
          "internalType": "uint256",
          "name": "tokenId",
          "type": "uint256"
        }
      ],
      "name": "safeTransferFrom",
      "outputs": [],
      "stateMutability": "nonpayable",
      "type": "function"
    },
    {
      "inputs": [
        {
          "internalType": "address",
          "name": "from",
          "type": "address"
        },
        {
          "internalType": "address",
          "name": "to",
          "type": "address"
        },
        {
          "internalType": "uint256",
          "name": "tokenId",
          "type": "uint256"
        },
        {
          "internalType": "bytes",
          "name": "data",
          "type": "bytes"
        }
      ],
      "name": "safeTransferFrom",
      "outputs": [],
      "stateMutability": "nonpayable",
      "type": "function"
    },
    {
      "inputs": [
        {
          "internalType": "address",
          "name": "operator",
          "type": "address"
        },
        {
          "internalType": "bool",
          "name": "approved",
          "type": "bool"
        }
      ],
      "name": "setApprovalForAll",
      "outputs": [],
      "stateMutability": "nonpayable",
      "type": "function"
    },
    {
      "inputs": [
        {
          "internalType": "uint256",
          "name": "_eventId",
          "type": "uint256"
        },
        {
          "internalType": "address",
          "name": "_account",
          "type": "address"
        }
      ],
      "name": "setEventCashier",
      "outputs": [],
      "stateMutability": "nonpayable",
      "type": "function"
    },
    {
      "inputs": [
        {
          "internalType": "uint256",
          "name": "tokenId",
          "type": "uint256"
        }
      ],
      "name": "startTime",
      "outputs": [
        {
          "internalType": "uint64",
          "name": "",
          "type": "uint64"
        }
      ],
      "stateMutability": "view",
      "type": "function"
    },
    {
      "inputs": [
        {
          "internalType": "bytes4",
          "name": "interfaceId",
          "type": "bytes4"
        }
      ],
      "name": "supportsInterface",
      "outputs": [
        {
          "internalType": "bool",
          "name": "",
          "type": "bool"
        }
      ],
      "stateMutability": "view",
      "type": "function"
    },
    {
      "inputs": [],
      "name": "symbol",
      "outputs": [
        {
          "internalType": "string",
          "name": "",
          "type": "string"
        }
      ],
      "stateMutability": "view",
      "type": "function"
    },
    {
      "inputs": [
        {
          "internalType": "uint256",
          "name": "tokenId",
          "type": "uint256"
        }
      ],
      "name": "tokenURI",
      "outputs": [
        {
          "internalType": "string",
          "name": "",
          "type": "string"
        }
      ],
      "stateMutability": "view",
      "type": "function"
    },
    {
      "inputs": [
        {
          "internalType": "address",
          "name": "from",
          "type": "address"
        },
        {
          "internalType": "address",
          "name": "to",
          "type": "address"
        },
        {
          "internalType": "uint256",
          "name": "tokenId",
          "type": "uint256"
        }
      ],
      "name": "transferFrom",
      "outputs": [],
      "stateMutability": "nonpayable",
      "type": "function"
    },
    {
      "inputs": [
        {
          "internalType": "uint256",
          "name": "_eventId",
          "type": "uint256"
        },
        {
          "internalType": "uint256",
          "name": "_categoryId",
          "type": "uint256"
        },
        {
          "internalType": "string",
          "name": "_categoryCid",
          "type": "string"
        },
        {
          "internalType": "uint256",
          "name": "_ticketPrice",
          "type": "uint256"
        },
        {
          "internalType": "uint256[]",
          "name": "_discountsTicketsCount",
          "type": "uint256[]"
        },
        {
          "internalType": "uint256[]",
          "name": "_discountsPercentage",
          "type": "uint256[]"
        },
        {
          "components": [
            {
              "internalType": "uint256",
              "name": "price",
              "type": "uint256"
            },
            {
              "internalType": "uint256",
              "name": "finalAmountDate",
              "type": "uint256"
            }
          ],
          "internalType": "struct DownPayment",
          "name": "_downPayment",
          "type": "tuple"
        }
      ],
      "name": "updateCategory",
      "outputs": [],
      "stateMutability": "nonpayable",
      "type": "function"
    },
    {
      "inputs": [
        {
          "internalType": "uint256",
          "name": "_eventId",
          "type": "uint256"
        },
        {
          "internalType": "uint256",
          "name": "_categoryId",
          "type": "uint256"
        },
        {
          "internalType": "uint256",
          "name": "_saleStartDate",
          "type": "uint256"
        },
        {
          "internalType": "uint256",
          "name": "_saleEndDate",
          "type": "uint256"
        }
      ],
      "name": "updateCategorySaleDates",
      "outputs": [],
      "stateMutability": "nonpayable",
      "type": "function"
    },
    {
      "inputs": [
        {
          "internalType": "uint256",
          "name": "_eventId",
          "type": "uint256"
        },
        {
          "internalType": "string",
          "name": "_newMetadataURI",
          "type": "string"
        }
      ],
      "name": "updateEventTokenUri",
      "outputs": [],
      "stateMutability": "nonpayable",
      "type": "function"
    }
  ],
  "bytecode": "0x608060405234801561001057600080fd5b50615221806100206000396000f3fe608060405234801561001057600080fd5b50600436106102485760003560e01c806356164e1e1161013b578063a3cfe160116100b8578063d5533da01161007c578063d5533da01461055e578063e985e9c514610571578063f354159b14610584578063f99c229214610597578063fb42204d1461059f57600080fd5b8063a3cfe160146104fd578063abae6af914610510578063b015554414610525578063b88d4fde14610538578063c87b56dd1461054b57600080fd5b8063959a1b58116100ff578063959a1b581461049c57806395d89b41146104af578063a22cb465146104b7578063a310d9bf146104ca578063a3bdc7c7146104dd57600080fd5b806356164e1e1461043d5780636352211e146104505780636a4bc7de1461046357806370a0823114610476578063724bdedf1461048957600080fd5b80632053d82c116101c95780633d378bb01161018d5780633d378bb0146103c65780633ec4c968146103d957806342842e0e1461040457806344c816fa146104175780634a120dd71461042a57600080fd5b80632053d82c1461035757806323b872dd1461036a5780632761f33b1461037d5780633660ff8314610390578063397d4dbc146103a557600080fd5b80630d517286116102105780630d517286146102de5780630e1b943d146102fe578063119345aa1461031e5780631c6f9271146103315780631cdf29c71461034457600080fd5b806301ffc9a71461024d5780630309a5391461027657806306fdde031461028b578063081812fc146102a0578063095ea7b3146102cb575b600080fd5b61026161025b3660046141ac565b50600090565b60405190151581526020015b60405180910390f35b6102896102843660046141de565b6105b2565b005b6102936106db565b60405161026d919061425a565b6102b36102ae36600461426d565b610772565b6040516001600160a01b03909116815260200161026d565b6102896102d936600461429d565b61079b565b6102f16102ec36600461426d565b6108b0565b60405161026d919061430e565b61031161030c36600461426d565b6109a1565b60405161026d919061431c565b61026161032c366004614374565b610a20565b61028961033f3660046143a9565b610a57565b6102896103523660046143db565b610c2a565b6102896103653660046144a9565b610d39565b6102896103783660046144ef565b610e35565b61028961038b366004614588565b610e66565b6103986110e2565b60405161026d919061464a565b6103b86103b3366004614698565b61128a565b60405190815260200161026d565b6102896103d4366004614698565b6112ae565b6103ec6103e736600461426d565b611698565b6040516001600160401b03909116815260200161026d565b6102896104123660046144ef565b6116a3565b6103ec61042536600461426d565b6116be565b610289610438366004614374565b6116c9565b61028961044b36600461426d565b6116f0565b6102b361045e36600461426d565b6119ed565b610289610471366004614374565b611a56565b6103b86104843660046146ba565b611b78565b610289610497366004614374565b611c04565b6102896104aa366004614716565b611c7d565b610293612072565b6102896104c5366004614800565b612085565b6102896104d836600461482a565b612094565b6104f06104eb36600461426d565b612262565b60405161026d9190614891565b61028961050b3660046149dc565b6125ff565b6105186127e7565b60405161026d9190614a43565b610289610533366004614374565b612932565b610289610546366004614a56565b612a52565b61029361055936600461426d565b612a84565b61028961056c366004614ac5565b612bcb565b61026161057f366004614af1565b612d9d565b610289610592366004614ac5565b612dcb565b61051861305e565b6102896105ad366004614374565b613163565b600082815260026020908152604091829020548251808401909352601b83526000805160206150c1833981519152918301919091528391906001600160a01b03166106195760405162461bcd60e51b8152600401610610919061425a565b60405180910390fd5b5061062683600033610a20565b8061064557506106458360008051602061516983398151915233610a20565b6040518060600160405280602a8152602001615022602a91399061067c5760405162461bcd60e51b8152600401610610919061425a565b50600083815260096020908152604091829020600201805460ff19168515159081179091558251868152918201527f578eeefe0b8083fcd939e8d547da4c0ba6b26ed213c13de65ab08a52f9f26a5291015b60405180910390a1505050565b606060008060000180546106ee90614b1b565b80601f016020809104026020016040519081016040528092919081815260200182805461071a90614b1b565b80156107675780601f1061073c57610100808354040283529160200191610767565b820191906000526020600020905b81548152906001019060200180831161074a57829003601f168201915b505050505091505090565b60008061077e83613183565b60009283526004016020525060409020546001600160a01b031690565b60006107a6826119ed565b9050806001600160a01b0316836001600160a01b0316036108135760405162461bcd60e51b815260206004820152602160248201527f4552433732313a20617070726f76616c20746f2063757272656e74206f776e656044820152603960f91b6064820152608401610610565b336001600160a01b038216148061082f575061082f8133612d9d565b6108a15760405162461bcd60e51b815260206004820152603e60248201527f4552433732313a20617070726f76652063616c6c6572206973206e6f7420746f60448201527f6b656e206f776e6572206e6f7220617070726f76656420666f7220616c6c00006064820152608401610610565b6108ab83836131d6565b505050565b6040805160a0810182526000808252602080830182905282840182905260608301829052608083018290528482526002815290839020548351808501909452601b84526000805160206150c183398151915291840191909152909183916001600160a01b03166109335760405162461bcd60e51b8152600401610610919061425a565b505050600090815260096020908152604091829020825160a08101845281546001600160a01b031681526001820154928101929092526002015460ff81161515928201929092526001600160401b03610100830481166060830152600160481b909204909116608082015290565b6000818152601160209081526040808320805482518185028101850190935280835260609493849084015b82821015610a14576000848152602090819020604080518082019091526002850290910180546001600160a01b031682526001908101548284015290835290920191016109cc565b50505050915050919050565b600083815260106020908152604080832085845282528083206001600160a01b038516845290915281205460ff165b949350505050565b600084815260026020908152604091829020548251808401909352601b83526000805160206150c1833981519152918301919091528591906001600160a01b0316610ab55760405162461bcd60e51b8152600401610610919061425a565b506000848152600a6020908152604091829020548251808401909352601e83526000805160206150e183398151915291830191909152859190610b0b5760405162461bcd60e51b8152600401610610919061425a565b508585816000600a016000838152602001908152602001600020600701541460405180606001604052806029815260200161504c6029913990610b615760405162461bcd60e51b8152600401610610919061425a565b50610b6e88600033610a20565b80610b8d5750610b8d8860008051602061516983398151915233610a20565b6040518060600160405280602a8152602001615022602a913990610bc45760405162461bcd60e51b8152600401610610919061425a565b506000878152600a60209081526040918290206005810189905560060187905581518a8152908101899052338183015290517f4192182acd964db32b1197a6483d5694cf6e678e7202565c44cc961078eb2c8f9181900360600190a15050505050505050565b600082815260026020908152604091829020548251808401909352601b83526000805160206150c1833981519152918301919091528391906001600160a01b0316610c885760405162461bcd60e51b8152600401610610919061425a565b50610c9583600033610a20565b6040518060400160405280601d815260200160008051602061514983398151915281525090610cd75760405162461bcd60e51b8152600401610610919061425a565b50610cf18360008051602061512983398151915284613163565b604080518481526001600160a01b038416602082015233918101919091527f9f54db3c6775e8717da6972b09a7ed552d62f5fd63696a1a75e58f61bd240193906060016106ce565b600082815260026020908152604091829020548251808401909352601b83526000805160206150c1833981519152918301919091528391906001600160a01b0316610d975760405162461bcd60e51b8152600401610610919061425a565b50610da483600033610a20565b80610dc35750610dc38360008051602061516983398151915233610a20565b6040518060600160405280602a8152602001615022602a913990610dfa5760405162461bcd60e51b8152600401610610919061425a565b50610e058383613245565b6040518381527ff8e1a15aba9398e019f0b49df1a4fde98ee17ae345cb5f6b5e2c27f5033e8ce7906020016106ce565b610e3f33826132cd565b610e5b5760405162461bcd60e51b815260040161061090614b4f565b6108ab83838361332b565b600089815260026020908152604091829020548251808401909352601b83526000805160206150c1833981519152918301919091528a91906001600160a01b0316610ec45760405162461bcd60e51b8152600401610610919061425a565b506000898152600a6020908152604091829020548251808401909352601e83526000805160206150e1833981519152918301919091528a9190610f1a5760405162461bcd60e51b8152600401610610919061425a565b508a8a816000600a016000838152602001908152602001600020600701541460405180606001604052806029815260200161504c6029913990610f705760405162461bcd60e51b8152600401610610919061425a565b50610f7d8d600033610a20565b80610f9c5750610f9c8d60008051602061516983398151915233610a20565b6040518060600160405280602a8152602001615022602a913990610fd35760405162461bcd60e51b8152600401610610919061425a565b5060408051606081019091526028808252898814919061510160208301399061100f5760405162461bcd60e51b8152600401610610919061425a565b5060008c8152600a6020526040902060010161102b8c82614be3565b5060008c8152600a60205260409020600381018b905561104f906008018a8a614027565b5060008c8152600a6020526040902061106c906009018888614027565b5060008c8152600a60208190526040909120869101611098828281358155602082013560018201555050565b5050604080518e8152602081018e90527f44df894581249b9c6cda25b6fe8239320be1641adde53f17479b4153cadfcc60910160405180910390a150505050505050505050505050565b606060006110ef60075490565b905060008060015b83811161113b576000818152600960205260409020546001600160a01b031615611129578261112581614cb8565b9350505b8061113381614cb8565b9150506110f7565b506000826001600160401b03811115611156576111566143fe565b6040519080825280602002602001820160405280156111af57816020015b6040805160a0810182526000808252602080830182905292820181905260608201819052608082015282526000199092019101816111745790505b50905060015b848111611281576000818152600960205260409020546001600160a01b03161561126f57600081815260096020908152604091829020825160a08101845281546001600160a01b031681526001820154928101929092526002015460ff81161515928201929092526001600160401b03610100830481166060830152600160481b9092049091166080820152825183908590811061125557611255614cd1565b6020026020010181905250828061126b90614cb8565b9350505b8061127981614cb8565b9150506111b5565b50949350505050565b60008281526010602090815260408083208484529091529020600101545b92915050565b600082815260026020908152604091829020548251808401909352601b83526000805160206150c1833981519152918301919091528391906001600160a01b031661130c5760405162461bcd60e51b8152600401610610919061425a565b506000828152600a6020908152604091829020548251808401909352601e83526000805160206150e1833981519152918301919091528391906113625760405162461bcd60e51b8152600401610610919061425a565b508383816000600a016000838152602001908152602001600020600701541460405180606001604052806029815260200161504c60299139906113b85760405162461bcd60e51b8152600401610610919061425a565b506113c586600033610a20565b806113e457506113e48660008051602061516983398151915233610a20565b6040518060600160405280602a8152602001615022602a91399061141b5760405162461bcd60e51b8152600401610610919061425a565b506000858152600a6020908152604091829020600201548251808401909352601d83527f4576656e743a2054686572652061726520736f6c64207469636b65747300000091830191909152156114845760405162461bcd60e51b8152600401610610919061425a565b506000858152600a60205260408120818155906114a46001830182614072565b6114b26002830160006140ac565b600382016000905560048201600090556005820160009055600682016000905560078201600090556008820160006114ea91906140ac565b6114f86009830160006140ac565b506000600a8201819055600b808301829055600c909201805460ff1916905587815260209182526040808220805482518186028101860190935280835292939192909183018282801561156a57602002820191906000526020600020905b815481526020019060010190808311611556575b5050505050905060005b8151811015611654578682828151811061159057611590614cd1565b602002602001015103611642576000888152600b6020526040902082516115b990600190614ce7565b815481106115c9576115c9614cd1565b90600052602060002001546000600b0160008a815260200190815260200160002082815481106115fb576115fb614cd1565b6000918252602080832090910192909255898152600b9091526040902080548061162757611627614cfa565b60019003818190600052602060002001600090559055611654565b8061164c81614cb8565b915050611574565b5060408051888152602081018890527ff67e86d3ffc2c26729aac7f4e3e07e009ad076ace7cd9e9fc184fd452ac0cc8591015b60405180910390a150505050505050565b60006112a8826134cf565b6108ab83838360405180602001604052806000815250612a52565b60006112a882613547565b826116d4848461128a565b6116de82826135c1565b6116e98585856135cc565b5050505050565b600081815260026020908152604091829020548251808401909352601b83526000805160206150c1833981519152918301919091528291906001600160a01b031661174e5760405162461bcd60e51b8152600401610610919061425a565b5061175b82600033610a20565b6040518060400160405280601d81526020016000805160206151498339815191528152509061179d5760405162461bcd60e51b8152600401610610919061425a565b506000828152600b60209081526040808320805482518185028101850190935280835291929091908301828280156117f457602002820191906000526020600020905b8154815260200190600101908083116117e0575b505050505090506000805b8251811015611865576000600a01600084838151811061182157611821614cd1565b6020026020010151815260200190815260200160002060020180549050600003611853578161184f81614cb8565b9250505b8061185d81614cb8565b9150506117ff565b50808251146040518060400160405280601d81526020017f4576656e743a2054686572652061726520736f6c64207469636b657473000000815250906118be5760405162461bcd60e51b8152600401610610919061425a565b506118c884613696565b600084815260096020908152604080832080546001600160a01b031916815560018101849055600201805470ffffffffffffffffffffffffffffffffff19169055600b9091528120611919916140ac565b60005b82518110156116e9576000600a01600084838151811061193e5761193e614cd1565b6020026020010151815260200190815260200160002060008082016000905560018201600061196d9190614072565b61197b6002830160006140ac565b600382016000905560048201600090556005820160009055600682016000905560078201600090556008820160006119b391906140ac565b6119c16009830160006140ac565b506000600a8201819055600b820155600c01805460ff19169055806119e581614cb8565b91505061191c565b60008181526002602052604081205481906001600160a01b031680611a4f5760405162461bcd60e51b8152602060048201526018602482015277115490cdcc8c4e881a5b9d985b1a59081d1bdad95b88125160421b6044820152606401610610565b9392505050565b600083815260026020908152604091829020548251808401909352601b83526000805160206150c1833981519152918301919091528491906001600160a01b0316611ab45760405162461bcd60e51b8152600401610610919061425a565b50611ac184600033610a20565b6040518060400160405280601d815260200160008051602061514983398151915281525090611b035760405162461bcd60e51b8152600401610610919061425a565b5060408051808201909152601d81527f4576656e743a2043616e2774207365742063617368696572206865726500000060208201526000805160206151298339815191528403611b665760405162461bcd60e51b8152600401610610919061425a565b50611b72848484613163565b50505050565b6000806001600160a01b038316611be35760405162461bcd60e51b815260206004820152602960248201527f4552433732313a2061646472657373207a65726f206973206e6f7420612076616044820152683634b21037bbb732b960b91b6064820152608401610610565b6001600160a01b039092166000908152600390920160205250604090205490565b6001600160a01b0381163314611c725760405162461bcd60e51b815260206004820152602d60248201527f526f6c65436f6e74726f6c3a2063616e206f6e6c792072656e6f756e6365207260448201526c37b632b9903337b91039b2b63360991b6064820152608401610610565b6108ab8383836135cc565b60008c815260026020908152604091829020548251808401909352601b83526000805160206150c1833981519152918301919091528d91906001600160a01b0316611cdb5760405162461bcd60e51b8152600401610610919061425a565b50611ce88d600033610a20565b80611d075750611d078d60008051602061516983398151915233610a20565b6040518060600160405280602a8152602001615022602a913990611d3e5760405162461bcd60e51b8152600401610610919061425a565b50604080516060810190915260288082528685149190615101602083013990611d7a5760405162461bcd60e51b8152600401610610919061425a565b50611d89600880546001019055565b6000611d9460085490565b6000818152600a60205260409020818155909150600101611db68d8f83614d10565b506040805160008082526020808301808552858352600a9091529290209051611de592600290920191906140ca565b506000818152600a60205260409020600481018a9055600781018f905560038101899055611e17906008018888614027565b506000818152600a60205260409020611e34906009018686614027565b506000818152600a60208190526040909120849101611e60828281358155602082013560018201555050565b50508a158015611e6e575089155b15611e9f576000818152600a60205260409020600581018c9055600681018b9055600c01805460ff19169055611fe8565b8a600003611ec1576000818152600a6020526040902042600590910155611f34565b60008e8152600960209081526040918290206002015482516060810190935260278084526101009091046001600160401b03168e1015929161509a9083013990611f1e5760405162461bcd60e51b8152600401610610919061425a565b506000818152600a602052604090206005018b90555b89600003611f56576000818152600a6020526040902042600690910155611fcb565b60008e815260096020908152604091829020600201548251606081019093526025808452600160481b9091046001600160401b03168d111592916150759083013990611fb55760405162461bcd60e51b8152600401610610919061425a565b506000818152600a602052604090206006018a90555b6000818152600a60205260409020600c01805460ff191660011790555b6000600b0160008f81526020019081526020016000208190806001815401808255809150506001900390600052602060002001600090919091909150557f2a94cd6b8e4219d087c43453e983d276c11f9ba16e547f01adb19edb60ae3c7d8e828f8f60405161205a9493929190614dcf565b60405180910390a15050505050505050505050505050565b606060008060010180546106ee90614b1b565b61209033838361376d565b5050565b600083815260026020908152604091829020548251808401909352601b83526000805160206150c1833981519152918301919091528491906001600160a01b03166120f25760405162461bcd60e51b8152600401610610919061425a565b506000838152600a6020908152604091829020548251808401909352601e83526000805160206150e1833981519152918301919091528491906121485760405162461bcd60e51b8152600401610610919061425a565b508484816000600a016000838152602001908152602001600020600701541460405180606001604052806029815260200161504c602991399061219e5760405162461bcd60e51b8152600401610610919061425a565b506121ab87600033610a20565b806121ca57506121ca8760008051602061516983398151915233610a20565b6040518060600160405280602a8152602001615022602a9139906122015760405162461bcd60e51b8152600401610610919061425a565b506000868152600a6020908152604091829020600c01805460ff191688151590811790915582518a8152918201899052918101919091527f15fa4fe87d07b2a02e02cc0fac2981a3fd8653661340b9b26feae8ffefaade8a90606001611687565b600081815260026020908152604091829020548251808401909352601b83526000805160206150c18339815191529183019190915260609183916001600160a01b03166122c25760405162461bcd60e51b8152600401610610919061425a565b506000838152600b602090815260408083208054825181850281018501909352808352919290919083018282801561231957602002820191906000526020600020905b815481526020019060010190808311612305575b50505050509050600081516001600160401b0381111561233b5761233b6143fe565b60405190808252806020026020018201604052801561237457816020015b612361614105565b8152602001906001900390816123595790505b50905060005b82518110156125f4576000600a01600084838151811061239c5761239c614cd1565b6020026020010151815260200190815260200160002060405180610180016040529081600082015481526020016001820180546123d890614b1b565b80601f016020809104026020016040519081016040528092919081815260200182805461240490614b1b565b80156124515780601f1061242657610100808354040283529160200191612451565b820191906000526020600020905b81548152906001019060200180831161243457829003601f168201915b50505050508152602001600282018054806020026020016040519081016040528092919081815260200182805480156124a957602002820191906000526020600020905b815481526020019060010190808311612495575b5050505050815260200160038201548152602001600482015481526020016005820154815260200160068201548152602001600782015481526020016008820180548060200260200160405190810160405280929190818152602001828054801561253357602002820191906000526020600020905b81548152602001906001019080831161251f575b505050505081526020016009820180548060200260200160405190810160405280929190818152602001828054801561258b57602002820191906000526020600020905b815481526020019060010190808311612577575b5050509183525050604080518082018252600a8401548152600b840154602082810191909152830152600c9092015460ff16151591015282518390839081106125d6576125d6614cd1565b602002602001018190525080806125ec90614cb8565b91505061237a565b509250505b50919050565b826001600160401b0316826001600160401b0316116040518060400160405280601881526020017f455243353030373a20496e76616c696420656e6454696d650000000000000000815250906126685760405162461bcd60e51b8152600401610610919061425a565b50612677600780546001019055565b600061268260075490565b6000818152600960205260409081902080546001600160a01b0319163317815560018082018990556002820180546001600160401b03898116600160481b0270ffffffffffffffff00000000000000000019918c166101000268ffffffffffffffffff1990931692909217909317929092169190911790559051919250907f9ce3d6db707bca4ba0eabed8fba1e2c013a1c0bc1132a764170a7854d198c73d9061272f9084908690614e0c565b60405180910390a161274382600033613840565b61275c8260008051602061516983398151915233613840565b612787827f21702c8af46127c7fa207f89d0b0a8441bb32959a0ac7df790e9ab1a25c9892633613840565b6127b2827fb5a7f51d0593e853ad0aa6b718ee0bdd10c4966eb62d243b69d538e5823d040133613840565b6127cb8260008051602061512983398151915233613840565b6127d5338361394c565b6127df8284613245565b505050505050565b606060006127f460075490565b905060008060015b8381116128635761280f81600033610a20565b8061282e575061282e8160008051602061516983398151915233610a20565b801561283e575061283e81613a86565b15612851578261284d81614cb8565b9350505b8061285b81614cb8565b9150506127fc565b506000826001600160401b0381111561287e5761287e6143fe565b6040519080825280602002602001820160405280156128a7578160200160208202803683370190505b50905060015b848111611281576128c081600033610a20565b806128df57506128df8160008051602061516983398151915233610a20565b80156128ef57506128ef81613a86565b15612920578082848151811061290757612907614cd1565b60209081029190910101528261291c81614cb8565b9350505b8061292a81614cb8565b9150506128ad565b600083815260026020908152604091829020548251808401909352601b83526000805160206150c1833981519152918301919091528491906001600160a01b03166129905760405162461bcd60e51b8152600401610610919061425a565b5061299d84600033610a20565b6040518060400160405280601d8152602001600080516020615149833981519152815250906129df5760405162461bcd60e51b8152600401610610919061425a565b506000805160206151298339815191528314156040518060400160405280602081526020017f4576656e743a2043616e27742072656d6f76652063617368696572206865726581525090612a465760405162461bcd60e51b8152600401610610919061425a565b50611b728484846116c9565b612a5c33836132cd565b612a785760405162461bcd60e51b815260040161061090614b4f565b611b7284848484613aa3565b60606000612a9183613183565b600083815260068201602052604081208054612aac90614b1b565b80601f0160208091040260200160405190810160405280929190818152602001828054612ad890614b1b565b8015612b255780601f10612afa57610100808354040283529160200191612b25565b820191906000526020600020905b815481529060010190602001808311612b0857829003601f168201915b505050505090506000612b4360408051602081019091526000815290565b90508051600003612b5657509392505050565b815115612b89578082604051602001612b70929190614e25565b6040516020818303038152906040529350505050919050565b6000815111612ba75760405180602001604052806000815250612bc2565b80612bb186613ad6565b604051602001612b70929190614e25565b95945050505050565b600083815260026020908152604091829020548251808401909352601b83526000805160206150c1833981519152918301919091528491906001600160a01b0316612c295760405162461bcd60e51b8152600401610610919061425a565b506000838152600a6020908152604091829020548251808401909352601e83526000805160206150e183398151915291830191909152849190612c7f5760405162461bcd60e51b8152600401610610919061425a565b508484816000600a016000838152602001908152602001600020600701541460405180606001604052806029815260200161504c6029913990612cd55760405162461bcd60e51b8152600401610610919061425a565b50612ce287600033610a20565b80612d015750612d018760008051602061516983398151915233610a20565b6040518060600160405280602a8152602001615022602a913990612d385760405162461bcd60e51b8152600401610610919061425a565b506000868152600a602052604081206004018054879290612d5a908490614e54565b909155505060408051888152602081018890529081018690527f3a50fbe2fa0bdf2022fcd8fe2132970519fcf4df5cf97d78e86c510eb0805b6a90606001611687565b6001600160a01b03918216600090815260056020908152604080832093909416825291909152205460ff1690565b600083815260026020908152604091829020548251808401909352601b83526000805160206150c1833981519152918301919091528491906001600160a01b0316612e295760405162461bcd60e51b8152600401610610919061425a565b506000838152600a6020908152604091829020548251808401909352601e83526000805160206150e183398151915291830191909152849190612e7f5760405162461bcd60e51b8152600401610610919061425a565b508484816000600a016000838152602001908152602001600020600701541460405180606001604052806029815260200161504c6029913990612ed55760405162461bcd60e51b8152600401610610919061425a565b50612ee287600033610a20565b80612f015750612f018760008051602061516983398151915233610a20565b6040518060600160405280602a8152602001615022602a913990612f385760405162461bcd60e51b8152600401610610919061425a565b50846000600a0160008881526020019081526020016000206004015410156040518060600160405280602e8152602001615189602e913990612f8d5760405162461bcd60e51b8152600401610610919061425a565b506000868152600a6020526040902060040154612fab908690614ce7565b6000878152600a602090815260409182902060020154825160608101909352603580845293101592906151b79083013990612ff95760405162461bcd60e51b8152600401610610919061425a565b506000868152600a60205260408120600401805487929061301b908490614ce7565b909155505060408051888152602081018890529081018690527fb39ecd9af22a3fec10ec63455a79d572fdcfadf6a9005d5cd232b2829f958c7090606001611687565b6060600061306b60075490565b905060008060015b8381116130b7576000818152600960205260409020546001600160a01b0316156130a557826130a181614cb8565b9350505b806130af81614cb8565b915050613073565b506000826001600160401b038111156130d2576130d26143fe565b6040519080825280602002602001820160405280156130fb578160200160208202803683370190505b50905060015b848111611281576000818152600960205260409020546001600160a01b031615613151578082848151811061313857613138614cd1565b60209081029190910101528261314d81614cb8565b9350505b8061315b81614cb8565b915050613101565b8261316e848461128a565b61317882826135c1565b6116e9858585613840565b61318c81613a86565b6131d35760405162461bcd60e51b8152602060048201526018602482015277115490cdcc8c4e881a5b9d985b1a59081d1bdad95b88125160421b6044820152606401610610565b50565b600081815260046020526040812080546001600160a01b0319166001600160a01b038516908117909155829061320b826119ed565b6001600160a01b03167f8c5be1e5ebec7d5bd14f71427d1e84f3dd0314c0f7b2291e5b200ac8c7c3b92560405160405180910390a4505050565b600061325083613a86565b6132b35760405162461bcd60e51b815260206004820152602e60248201527f45524337323155524953746f726167653a2055524920736574206f66206e6f6e60448201526d32bc34b9ba32b73a103a37b5b2b760911b6064820152608401610610565b60008381526006820160205260409020611b728382614be3565b6000806132d9836119ed565b9050806001600160a01b0316846001600160a01b0316148061330057506133008185612d9d565b80610a4f5750836001600160a01b031661331984610772565b6001600160a01b031614949350505050565b6000836001600160a01b0316613340836119ed565b6001600160a01b0316146133a45760405162461bcd60e51b815260206004820152602560248201527f4552433732313a207472616e736665722066726f6d20696e636f72726563742060448201526437bbb732b960d91b6064820152608401610610565b6001600160a01b0383166134065760405162461bcd60e51b8152602060048201526024808201527f4552433732313a207472616e7366657220746f20746865207a65726f206164646044820152637265737360e01b6064820152608401610610565b6134116000836131d6565b6001600160a01b0384166000908152600382016020526040812080546001929061343c908490614ce7565b90915550506001600160a01b0383166000908152600382016020526040812080546001929061346c908490614e54565b9091555050600082815260028201602052604080822080546001600160a01b0319166001600160a01b0387811691821790925591518593918816917fddf252ad1be2c89b69c2b068fc378daa952ba7f163c4a11628f55a4df523b3ef91a4611b72565b6000806134db83613a86565b6135225760405162461bcd60e51b8152602060048201526018602482015277115490cd4c0c0dce88125b9d985b1a59081d1bdad95b925960421b6044820152606401610610565b600092835260090160205250604090206002015461010090046001600160401b031690565b60008061355383613a86565b61359a5760405162461bcd60e51b8152602060048201526018602482015277115490cd4c0c0dce88125b9d985b1a59081d1bdad95b925960421b6044820152606401610610565b6000928352600901602052506040902060020154600160481b90046001600160401b031690565b612090828233613bd6565b60006135d9848484610a20565b15611b72576000848152601082016020908152604080832086845282528083206001600160a01b03861684528252808320805460ff19169055601284019091529020546136268582613c3a565b6001600160a01b0383166000908152601283016020526040812055336001600160a01b0316836001600160a01b0316857f7b00293d63517946aeba2f56c6b4c5dec87b67393ac48520994d3d8ce776335a8860405161368791815260200190565b60405180910390a45050505050565b6000806136a2836119ed565b90506136af6000846131d6565b6001600160a01b038116600090815260038301602052604081208054600192906136da908490614ce7565b9091555050600083815260028301602052604080822080546001600160a01b0319169055518491906001600160a01b038416907fddf252ad1be2c89b69c2b068fc378daa952ba7f163c4a11628f55a4df523b3ef908390a460008381526006830160205260409020805461374d90614b1b565b1590506108ab57600083815260068301602052604081206108ab91614072565b6000826001600160a01b0316846001600160a01b0316036137d05760405162461bcd60e51b815260206004820152601960248201527f4552433732313a20617070726f766520746f2063616c6c6572000000000000006044820152606401610610565b6001600160a01b038481166000818152600584016020908152604080832094881680845294825291829020805460ff191687151590811790915591519182527f17307eab39ab6107e8899845ad3d59bd9653f200f220920489ca2b5937696c31910160405180910390a350505050565b600061384d848484610a20565b611b72576000848152601082016020908152604080832086845282528083206001600160a01b03868116808652918452828520805460ff19166001908117909155835180850185529283528285018981528a875260118801865293862080548083018255818852958720845160029097020180546001600160a01b031916969093169590951782559251908301559287905290546138eb9190614ce7565b6001600160a01b0384166000908152601284016020526040902055336001600160a01b0316836001600160a01b0316857fd9dfff7752b7a810e2b646c0c96b76bc9ed817f6c6f7848bbe68163f7e8b43788860405161368791815260200190565b60006001600160a01b0383166139a45760405162461bcd60e51b815260206004820181905260248201527f4552433732313a206d696e7420746f20746865207a65726f20616464726573736044820152606401610610565b6139ad82613a86565b156139fa5760405162461bcd60e51b815260206004820152601c60248201527f4552433732313a20746f6b656e20616c7265616479206d696e746564000000006044820152606401610610565b6001600160a01b03831660009081526003820160205260408120805460019290613a25908490614e54565b9091555050600082815260028201602052604080822080546001600160a01b0319166001600160a01b03871690811790915590518492907fddf252ad1be2c89b69c2b068fc378daa952ba7f163c4a11628f55a4df523b3ef908290a4505050565b6000908152600260205260409020546001600160a01b0316151590565b613aae84848461332b565b613aba84848484613d22565b611b725760405162461bcd60e51b815260040161061090614e67565b606081600003613afd5750506040805180820190915260018152600360fc1b602082015290565b8160005b8115613b275780613b1181614cb8565b9150613b209050600a83614ecf565b9150613b01565b6000816001600160401b03811115613b4157613b416143fe565b6040519080825280601f01601f191660200182016040528015613b6b576020820181803683370190505b5090505b8415610a4f57613b80600183614ce7565b9150613b8d600a86614ee3565b613b98906030614e54565b60f81b818381518110613bad57613bad614cd1565b60200101906001600160f81b031916908160001a905350613bcf600a86614ecf565b9450613b6f565b613be1838383610a20565b6108ab57613bee81613e23565b613bf9836020613e35565b613c0285613fd0565b604051602001613c1493929190614ef7565b60408051601f198184030181529082905262461bcd60e51b82526106109160040161425a565b60008281526011602052604081208054613c5690600190614ce7565b81548110613c6657613c66614cd1565b90600052602060002090600202018160110160008581526020019081526020016000208381548110613c9a57613c9a614cd1565b60009182526020808320845460029093020180546001600160a01b0319166001600160a01b0390931692909217825560019384015493909101929092558481526011830190915260409020805480613cf457613cf4614cfa565b60008281526020812060026000199093019283020180546001600160a01b0319168155600101559055505050565b60006001600160a01b0384163b15613e1857604051630a85bd0160e11b81526001600160a01b0385169063150b7a0290613d66903390899088908890600401614f99565b6020604051808303816000875af1925050508015613da1575060408051601f3d908101601f19168201909252613d9e91810190614fd6565b60015b613dfe573d808015613dcf576040519150601f19603f3d011682016040523d82523d6000602084013e613dd4565b606091505b508051600003613df65760405162461bcd60e51b815260040161061090614e67565b805181602001fd5b6001600160e01b031916630a85bd0160e11b149050610a4f565b506001949350505050565b60606112a86001600160a01b03831660145b60606000613e44836002614ff3565b613e4f906002614e54565b6001600160401b03811115613e6657613e666143fe565b6040519080825280601f01601f191660200182016040528015613e90576020820181803683370190505b509050600360fc1b81600081518110613eab57613eab614cd1565b60200101906001600160f81b031916908160001a905350600f60fb1b81600181518110613eda57613eda614cd1565b60200101906001600160f81b031916908160001a9053506000613efe846002614ff3565b613f09906001614e54565b90505b6001811115613f81576f181899199a1a9b1b9c1cb0b131b232b360811b85600f1660108110613f3d57613f3d614cd1565b1a60f81b828281518110613f5357613f53614cd1565b60200101906001600160f81b031916908160001a90535060049490941c93613f7a8161500a565b9050613f0c565b508315611a4f5760405162461bcd60e51b815260206004820181905260248201527f537472696e67733a20686578206c656e67746820696e73756666696369656e746044820152606401610610565b606081600003613ffa5750506040805180820190915260048152630307830360e41b602082015290565b8160005b811561401d578061400e81614cb8565b915050600882901c9150613ffe565b610a4f8482613e35565b828054828255906000526020600020908101928215614062579160200282015b82811115614062578235825591602001919060010190614047565b5061406e929150614181565b5090565b50805461407e90614b1b565b6000825580601f1061408e575050565b601f0160209004906000526020600020908101906131d39190614181565b50805460008255906000526020600020908101906131d39190614181565b828054828255906000526020600020908101928215614062579160200282015b828111156140625782518255916020019190600101906140ea565b60405180610180016040528060008152602001606081526020016060815260200160008152602001600081526020016000815260200160008152602001600081526020016060815260200160608152602001614174604051806040016040528060008152602001600081525090565b8152600060209091015290565b5b8082111561406e5760008155600101614182565b6001600160e01b0319811681146131d357600080fd5b6000602082840312156141be57600080fd5b8135611a4f81614196565b803580151581146141d957600080fd5b919050565b600080604083850312156141f157600080fd5b82359150614201602084016141c9565b90509250929050565b60005b8381101561422557818101518382015260200161420d565b50506000910152565b6000815180845261424681602086016020860161420a565b601f01601f19169290920160200192915050565b602081526000611a4f602083018461422e565b60006020828403121561427f57600080fd5b5035919050565b80356001600160a01b03811681146141d957600080fd5b600080604083850312156142b057600080fd5b6142b983614286565b946020939093013593505050565b80516001600160a01b03168252602080820151908301526040808201511515908301526060808201516001600160401b039081169184019190915260809182015116910152565b60a081016112a882846142c7565b602080825282518282018190526000919060409081850190868401855b8281101561436757815180516001600160a01b03168552860151868501529284019290850190600101614339565b5091979650505050505050565b60008060006060848603121561438957600080fd5b83359250602084013591506143a060408501614286565b90509250925092565b600080600080608085870312156143bf57600080fd5b5050823594602084013594506040840135936060013592509050565b600080604083850312156143ee57600080fd5b8235915061420160208401614286565b634e487b7160e01b600052604160045260246000fd5b60006001600160401b038084111561442e5761442e6143fe565b604051601f8501601f19908116603f01168101908282118183101715614456576144566143fe565b8160405280935085815286868601111561446f57600080fd5b858560208301376000602087830101525050509392505050565b600082601f83011261449a57600080fd5b611a4f83833560208501614414565b600080604083850312156144bc57600080fd5b8235915060208301356001600160401b038111156144d957600080fd5b6144e585828601614489565b9150509250929050565b60008060006060848603121561450457600080fd5b61450d84614286565b925061451b60208501614286565b9150604084013590509250925092565b60008083601f84011261453d57600080fd5b5081356001600160401b0381111561455457600080fd5b6020830191508360208260051b850101111561456f57600080fd5b9250929050565b6000604082840312156125f957600080fd5b60008060008060008060008060006101008a8c0312156145a757600080fd5b8935985060208a0135975060408a01356001600160401b03808211156145cc57600080fd5b6145d88d838e01614489565b985060608c0135975060808c01359150808211156145f557600080fd5b6146018d838e0161452b565b909750955060a08c013591508082111561461a57600080fd5b506146278c828d0161452b565b909450925061463b90508b60c08c01614576565b90509295985092959850929598565b6020808252825182820181905260009190848201906040850190845b8181101561468c576146798385516142c7565b9284019260a09290920191600101614666565b50909695505050505050565b600080604083850312156146ab57600080fd5b50508035926020909101359150565b6000602082840312156146cc57600080fd5b611a4f82614286565b60008083601f8401126146e757600080fd5b5081356001600160401b038111156146fe57600080fd5b60208301915083602082850101111561456f57600080fd5b6000806000806000806000806000806000806101408d8f03121561473957600080fd5b8c359b506001600160401b0360208e0135111561475557600080fd5b6147658e60208f01358f016146d5565b909b50995060408d0135985060608d0135975060808d0135965060a08d013595506001600160401b0360c08e0135111561479e57600080fd5b6147ae8e60c08f01358f0161452b565b90955093506001600160401b0360e08e013511156147cb57600080fd5b6147db8e60e08f01358f0161452b565b90935091506147ee8e6101008f01614576565b90509295989b509295989b509295989b565b6000806040838503121561481357600080fd5b61481c83614286565b9150614201602084016141c9565b60008060006060848603121561483f57600080fd5b83359250602084013591506143a0604085016141c9565b600081518084526020808501945080840160005b838110156148865781518752958201959082019060010161486a565b509495945050505050565b60006020808301818452808551808352604092508286019150828160051b87010184880160005b838110156149b757603f1989840301855281516101a08151855288820151818a8701526148e78287018261422e565b91505087820151858203898701526148ff8282614856565b606084810151908801526080808501519088015260a0808501519088015260c0808501519088015260e0808501519088015261010080850151888303828a0152919350915061494e8382614856565b92505050610120808301518683038288015261496a8382614856565b925050506101408083015161498b8288018280518252602090810151910152565b505061016082015191506149a461018086018315159052565b95880195935050908601906001016148b8565b509098975050505050505050565b80356001600160401b03811681146141d957600080fd5b600080600080608085870312156149f257600080fd5b84359350614a02602086016149c5565b9250614a10604086016149c5565b915060608501356001600160401b03811115614a2b57600080fd5b614a3787828801614489565b91505092959194509250565b602081526000611a4f6020830184614856565b60008060008060808587031215614a6c57600080fd5b614a7585614286565b9350614a8360208601614286565b92506040850135915060608501356001600160401b03811115614aa557600080fd5b8501601f81018713614ab657600080fd5b614a3787823560208401614414565b600080600060608486031215614ada57600080fd5b505081359360208301359350604090920135919050565b60008060408385031215614b0457600080fd5b614b0d83614286565b915061420160208401614286565b600181811c90821680614b2f57607f821691505b6020821081036125f957634e487b7160e01b600052602260045260246000fd5b6020808252602e908201527f4552433732313a2063616c6c6572206973206e6f7420746f6b656e206f776e6560408201526d1c881b9bdc88185c1c1c9bdd995960921b606082015260800190565b601f8211156108ab57600081815260208120601f850160051c81016020861015614bc45750805b601f850160051c820191505b818110156127df57828155600101614bd0565b81516001600160401b03811115614bfc57614bfc6143fe565b614c1081614c0a8454614b1b565b84614b9d565b602080601f831160018114614c455760008415614c2d5750858301515b600019600386901b1c1916600185901b1785556127df565b600085815260208120601f198616915b82811015614c7457888601518255948401946001909101908401614c55565b5085821015614c925787850151600019600388901b60f8161c191681555b5050505050600190811b01905550565b634e487b7160e01b600052601160045260246000fd5b600060018201614cca57614cca614ca2565b5060010190565b634e487b7160e01b600052603260045260246000fd5b818103818111156112a8576112a8614ca2565b634e487b7160e01b600052603160045260246000fd5b6001600160401b03831115614d2757614d276143fe565b614d3b83614d358354614b1b565b83614b9d565b6000601f841160018114614d6f5760008515614d575750838201355b600019600387901b1c1916600186901b1783556116e9565b600083815260209020601f19861690835b82811015614da05786850135825560209485019460019092019101614d80565b5086821015614dbd5760001960f88860031b161c19848701351681555b505060018560011b0183555050505050565b84815283602082015260606040820152816060820152818360808301376000818301608090810191909152601f909201601f191601019392505050565b828152604060208201526000610a4f604083018461422e565b60008351614e3781846020880161420a565b835190830190614e4b81836020880161420a565b01949350505050565b808201808211156112a8576112a8614ca2565b60208082526032908201527f4552433732313a207472616e7366657220746f206e6f6e20455243373231526560408201527131b2b4bb32b91034b6b83632b6b2b73a32b960711b606082015260800190565b634e487b7160e01b600052601260045260246000fd5b600082614ede57614ede614eb9565b500490565b600082614ef257614ef2614eb9565b500690565b7402937b632a1b7b73a3937b61d1030b1b1b7bab73a1605d1b815260008451614f2781601585016020890161420a565b7001034b99036b4b9b9b4b733903937b6329607d1b6015918401918201528451614f5881602684016020890161420a565b720103337b91032bb32b73a103bb4ba341034b21606d1b602692909101918201528351614f8c81603984016020880161420a565b0160390195945050505050565b6001600160a01b0385811682528416602082015260408101839052608060608201819052600090614fcc9083018461422e565b9695505050505050565b600060208284031215614fe857600080fd5b8151611a4f81614196565b80820281158282048414176112a8576112a8614ca2565b60008161501957615019614ca2565b50600019019056fe4576656e743a2043616c6c6572206973206e6f7420616e2061646d696e206f72206d6f64657261746f724576656e743a20546869732063617465676f727920697320666f7220616e6f74686572206576656e744576656e743a2043617465676f727920656e64206461746520697320696e636f72726563744576656e743a2043617465676f7279207374617274206461746520697320696e636f72726563744576656e743a204576656e7420646f6573206e6f7420657869737400000000004576656e743a2043617465676f727920646f6573206e6f7420657869737400004576656e743a20446973636f756e7420706172616d6574657273206c656e677468206e6f74206571ff3317e1e0e8c784290b957ee9b65ea8fe96420c4819db463283b95ecbe4a3fe4576656e743a2043616c6c6572206973206e6f7420616e2061646d696e00000071f3d55856e4058ed06ee057d79ada615f65cdf5f9ee88181b914225088f834f4576656e743a2043616e2774206465637265617365207469636b65747320636f756e742062656c6f77207a65726f4576656e743a205469636b65747320616d6f756e742063616e2774206265206c657373207468616e20736f6c64207469636b657473a264697066735822122015b750dd0e905ff24a75427157b132e5fdea3f148d382ab5bcbca9990a957a2364736f6c63430008110033",
  "linkReferences": {},
  "deployedLinkReferences": {}
}