{
  "_format": "hh-sol-artifact-1",
  "contractName": "EventTicketControllerFacet",
  "sourceName": "contracts/EventDiamond/facets/EventTicketControllerFacet.sol",
  "abi": [
    {
      "anonymous": false,
      "inputs": [
        {
          "indexed": true,
          "internalType": "uint256",
          "name": "fromTokenId",
          "type": "uint256"
        },
        {
          "indexed": false,
          "internalType": "uint256",
          "name": "toTokenId",
          "type": "uint256"
        },
        {
          "indexed": true,
          "internalType": "address",
          "name": "fromAddress",
          "type": "address"
        },
        {
          "indexed": true,
          "internalType": "address",
          "name": "toAddress",
          "type": "address"
        }
      ],
      "name": "ConsecutiveTransfer",
      "type": "event"
    },
    {
      "anonymous": false,
      "inputs": [
        {
          "indexed": false,
          "internalType": "uint256",
          "name": "eventId",
          "type": "uint256"
        },
        {
          "indexed": false,
          "internalType": "uint256",
          "name": "date",
          "type": "uint256"
        },
        {
          "indexed": false,
          "internalType": "uint8",
          "name": "percentage",
          "type": "uint8"
        }
      ],
      "name": "EventRefundDateAdded",
      "type": "event"
    },
    {
      "anonymous": false,
      "inputs": [
        {
          "indexed": false,
          "internalType": "uint256",
          "name": "eventId",
          "type": "uint256"
        }
      ],
      "name": "EventWithdraw",
      "type": "event"
    },
    {
      "anonymous": false,
      "inputs": [
        {
          "indexed": false,
          "internalType": "uint256",
          "name": "eventId",
          "type": "uint256"
        },
        {
          "indexed": false,
          "internalType": "address[]",
          "name": "accounts",
          "type": "address[]"
        },
        {
          "indexed": false,
          "internalType": "address",
          "name": "staffMember",
          "type": "address"
        }
      ],
      "name": "InvitationSent",
      "type": "event"
    },
    {
      "anonymous": false,
      "inputs": [
        {
          "indexed": false,
          "internalType": "uint256",
          "name": "ticketId",
          "type": "uint256"
        },
        {
          "indexed": false,
          "internalType": "address",
          "name": "account",
          "type": "address"
        }
      ],
      "name": "RefundWithdraw",
      "type": "event"
    },
    {
      "anonymous": false,
      "inputs": [
        {
          "indexed": false,
          "internalType": "uint256",
          "name": "ticketId",
          "type": "uint256"
        },
        {
          "indexed": false,
          "internalType": "address",
          "name": "account",
          "type": "address"
        }
      ],
      "name": "TicketBought",
      "type": "event"
    },
    {
      "anonymous": false,
      "inputs": [
        {
          "indexed": false,
          "internalType": "uint256",
          "name": "eventId",
          "type": "uint256"
        },
        {
          "indexed": false,
          "internalType": "uint256",
          "name": "ticketId",
          "type": "uint256"
        },
        {
          "indexed": false,
          "internalType": "address",
          "name": "staffMember",
          "type": "address"
        }
      ],
      "name": "TicketClipped",
      "type": "event"
    },
    {
      "anonymous": false,
      "inputs": [
        {
          "indexed": false,
          "internalType": "uint256",
          "name": "eventId",
          "type": "uint256"
        },
        {
          "indexed": false,
          "internalType": "uint256",
          "name": "categoryId",
          "type": "uint256"
        },
        {
          "indexed": false,
          "internalType": "uint256",
          "name": "ticketId",
          "type": "uint256"
        },
        {
          "indexed": false,
          "internalType": "address",
          "name": "account",
          "type": "address"
        }
      ],
      "name": "TicketRefunded",
      "type": "event"
    },
    {
      "anonymous": false,
      "inputs": [
        {
          "indexed": false,
          "internalType": "uint256",
          "name": "eventId",
          "type": "uint256"
        },
        {
          "indexed": false,
          "internalType": "uint256",
          "name": "ticketCount",
          "type": "uint256"
        },
        {
          "indexed": false,
          "internalType": "address",
          "name": "staffMember",
          "type": "address"
        }
      ],
      "name": "TicketsBooked",
      "type": "event"
    },
    {
      "inputs": [
        {
          "internalType": "uint256",
          "name": "_eventId",
          "type": "uint256"
        },
        {
          "components": [
            {
              "internalType": "uint256",
              "name": "date",
              "type": "uint256"
            },
            {
              "internalType": "uint8",
              "name": "percentage",
              "type": "uint8"
            }
          ],
          "internalType": "struct RefundData",
          "name": "_refundData",
          "type": "tuple"
        }
      ],
      "name": "addRefundDeadline",
      "outputs": [],
      "stateMutability": "nonpayable",
      "type": "function"
    },
    {
      "inputs": [
        {
          "internalType": "uint256",
          "name": "_eventId",
          "type": "uint256"
        },
        {
          "components": [
            {
              "internalType": "uint256",
              "name": "categoryId",
              "type": "uint256"
            },
            {
              "internalType": "uint256",
              "name": "ticketAmount",
              "type": "uint256"
            }
          ],
          "internalType": "struct CategoryTicketAmount[]",
          "name": "_categoryTicketAmount",
          "type": "tuple[]"
        },
        {
          "components": [
            {
              "internalType": "uint256",
              "name": "row",
              "type": "uint256"
            },
            {
              "internalType": "uint256",
              "name": "seat",
              "type": "uint256"
            },
            {
              "internalType": "address",
              "name": "account",
              "type": "address"
            }
          ],
          "internalType": "struct TicketPlaceAddress[]",
          "name": "_place",
          "type": "tuple[]"
        },
        {
          "internalType": "string[]",
          "name": "_ticketMetadataUris",
          "type": "string[]"
        }
      ],
      "name": "bookTickets",
      "outputs": [],
      "stateMutability": "nonpayable",
      "type": "function"
    },
    {
      "inputs": [
        {
          "internalType": "uint256",
          "name": "_eventId",
          "type": "uint256"
        },
        {
          "internalType": "uint256",
          "name": "_categoryId",
          "type": "uint256"
        },
        {
          "components": [
            {
              "internalType": "uint256",
              "name": "amount",
              "type": "uint256"
            },
            {
              "internalType": "uint256",
              "name": "price",
              "type": "uint256"
            }
          ],
          "internalType": "struct TicketPriceData[]",
          "name": "_priceData",
          "type": "tuple[]"
        },
        {
          "components": [
            {
              "internalType": "uint256",
              "name": "row",
              "type": "uint256"
            },
            {
              "internalType": "uint256",
              "name": "seat",
              "type": "uint256"
            }
          ],
          "internalType": "struct TicketPlace[]",
          "name": "_place",
          "type": "tuple[]"
        },
        {
          "internalType": "string[]",
          "name": "_ticketMetadataUris",
          "type": "string[]"
        }
      ],
      "name": "buyTickets",
      "outputs": [],
      "stateMutability": "payable",
      "type": "function"
    },
    {
      "inputs": [
        {
          "components": [
            {
              "internalType": "uint256",
              "name": "eventId",
              "type": "uint256"
            },
            {
              "internalType": "uint256",
              "name": "categoryId",
              "type": "uint256"
            }
          ],
          "internalType": "struct EventCategoryData[]",
          "name": "_eventCategoryData",
          "type": "tuple[]"
        },
        {
          "components": [
            {
              "internalType": "uint256",
              "name": "amount",
              "type": "uint256"
            },
            {
              "internalType": "uint256",
              "name": "price",
              "type": "uint256"
            }
          ],
          "internalType": "struct TicketPriceData[]",
          "name": "_priceData",
          "type": "tuple[]"
        },
        {
          "components": [
            {
              "internalType": "uint256",
              "name": "row",
              "type": "uint256"
            },
            {
              "internalType": "uint256",
              "name": "seat",
              "type": "uint256"
            }
          ],
          "internalType": "struct TicketPlace[]",
          "name": "_place",
          "type": "tuple[]"
        },
        {
          "internalType": "string[]",
          "name": "_ticketMetadataUris",
          "type": "string[]"
        }
      ],
      "name": "buyTickets",
      "outputs": [],
      "stateMutability": "payable",
      "type": "function"
    },
    {
      "inputs": [
        {
          "internalType": "uint256",
          "name": "_eventId",
          "type": "uint256"
        },
        {
          "internalType": "uint256",
          "name": "_ticketId",
          "type": "uint256"
        }
      ],
      "name": "clipTicket",
      "outputs": [],
      "stateMutability": "nonpayable",
      "type": "function"
    },
    {
      "inputs": [
        {
          "internalType": "uint256",
          "name": "_eventId",
          "type": "uint256"
        }
      ],
      "name": "getAddressTicketIdsByEvent",
      "outputs": [
        {
          "internalType": "uint256[]",
          "name": "",
          "type": "uint256[]"
        }
      ],
      "stateMutability": "view",
      "type": "function"
    },
    {
      "inputs": [
        {
          "components": [
            {
              "internalType": "uint256",
              "name": "eventId",
              "type": "uint256"
            },
            {
              "internalType": "uint256",
              "name": "categoryId",
              "type": "uint256"
            },
            {
              "internalType": "uint256",
              "name": "ticketId",
              "type": "uint256"
            }
          ],
          "internalType": "struct ReturnTicketParams",
          "name": "_returnTicketParams",
          "type": "tuple"
        }
      ],
      "name": "returnTicket",
      "outputs": [],
      "stateMutability": "nonpayable",
      "type": "function"
    },
    {
      "inputs": [
        {
          "internalType": "uint256",
          "name": "_eventId",
          "type": "uint256"
        },
        {
          "internalType": "uint256[]",
          "name": "_ticketIds",
          "type": "uint256[]"
        },
        {
          "internalType": "address[]",
          "name": "_accounts",
          "type": "address[]"
        }
      ],
      "name": "sendInvitation",
      "outputs": [],
      "stateMutability": "nonpayable",
      "type": "function"
    },
    {
      "inputs": [
        {
          "internalType": "uint256",
          "name": "_eventId",
          "type": "uint256"
        }
      ],
      "name": "withdrawContractBalance",
      "outputs": [],
      "stateMutability": "nonpayable",
      "type": "function"
    },
    {
      "inputs": [
        {
          "internalType": "uint256",
          "name": "_eventId",
          "type": "uint256"
        },
        {
          "internalType": "uint256",
          "name": "_ticketId",
          "type": "uint256"
        }
      ],
      "name": "withdrawRefund",
      "outputs": [],
      "stateMutability": "nonpayable",
      "type": "function"
    }
  ],
  "bytecode": "0x608060405234801561001057600080fd5b50613d78806100206000396000f3fe6080604052600436106100915760003560e01c8063b5abe85a11610059578063b5abe85a1461012b578063d90e6dd71461014b578063ddb7d5df1461016b578063e3bccc0f1461018b578063ef71b78a146101c157600080fd5b806328e13a9e146100965780632d3bf559146100b85780634f905e5d146100d85780637ce8b341146100eb578063ab6a8d6a1461010b575b600080fd5b3480156100a257600080fd5b506100b66100b136600461314f565b6101d4565b005b3480156100c457600080fd5b506100b66100d33660046132e2565b6107dd565b6100b66100e63660046133c5565b610ac8565b3480156100f757600080fd5b506100b6610106366004613460565b610de4565b34801561011757600080fd5b506100b66101263660046134be565b610f37565b34801561013757600080fd5b506100b6610146366004613519565b611878565b34801561015757600080fd5b506100b6610166366004613532565b611b47565b34801561017757600080fd5b506100b6610186366004613532565b611e4a565b34801561019757600080fd5b506101ab6101a6366004613519565b611f8f565b6040516101b89190613554565b60405180910390f35b6100b66101cf366004613598565b611ff9565b600084815260026020908152604091829020548251808401909352601b8352600080516020613b53833981519152918301919091528591906001600160a01b031661023b5760405162461bcd60e51b8152600401610232919061369f565b60405180910390fd5b5061024885600033612359565b80610267575061026785600080516020613bf083398151915233612359565b6040518060600160405280602a8152602001613a53602a91399061029e5760405162461bcd60e51b8152600401610232919061369f565b50835160001415604051806060016040528060258152602001613cb060259139906102dc5760405162461bcd60e51b8152600401610232919061369f565b5081518351146040518060400160405280601f8152602001600080516020613bd0833981519152815250906103245760405162461bcd60e51b8152600401610232919061369f565b5060008060005b8651811015610557576000600a01600088838151811061034d5761034d6136b2565b602002602001015160000151815260200190815260200160002060000154600014156040518060400160405280601e81526020017f4576656e743a2043617465676f727920646f6573206e6f742065786973740000815250906103c35760405162461bcd60e51b8152600401610232919061369f565b50876000600a0160008984815181106103de576103de6136b2565b60200260200101516000015181526020019081526020016000206007015414604051806060016040528060298152602001613a7d60299139906104345760405162461bcd60e51b8152600401610232919061369f565b50868181518110610447576104476136b2565b6020026020010151602001518361045e91906136de565b92506000600a016000888381518110610479576104796136b2565b602002602001015160000151815260200190815260200160002060040154836000600a0160008a85815181106104b1576104b16136b2565b6020026020010151600001518152602001908152602001600020600201805490506104dc91906136de565b1115604051806060016040528060238152602001613cfa60239139906105155760405162461bcd60e51b8152600401610232919061369f565b506000925086818151811061052c5761052c6136b2565b6020026020010151602001518261054391906136de565b91508061054f816136f1565b91505061032b565b5060008060008060005b8a518110156107905760005b8b828151811061057f5761057f6136b2565b60200260200101516020015181101561077d5760008d8152600c602052604090208b516105c9908d90899081106105b8576105b86136b2565b60200260200101516000015161238b565b6105ef8d89815181106105de576105de6136b2565b60200260200101516020015161238b565b60405160200161060092919061370a565b60408051601f198184030181529082905261061a91613739565b90815260408051918290036020908101832054838301909252601583527422bb32b73a1d10283630b1b29034b9903a30b5b2b760591b9083015260ff16156106755760405162461bcd60e51b8152600401610232919061369f565b5060006001600160a01b03168b8781518110610693576106936136b2565b6020026020010151604001516001600160a01b0316146106d6578a86815181106106bf576106bf6136b2565b6020026020010151604001519350600192506106de565b309350600092505b61075e8d8d84815181106106f4576106f46136b2565b602002602001015160000151878e8a81518110610713576107136136b2565b6020026020010151600001518f8b81518110610731576107316136b2565b6020026020010151602001518f8c8151811061074f5761074f6136b2565b6020026020010151898b612493565b6107696001876136de565b955080610775816136f1565b91505061056d565b5080610788816136f1565b915050610561565b50604080518c815260208101879052338183015290517f0bf6beb306958fd2b5107d64b133ea297e354c91e8508878a9a4abb9206d82289181900360600190a15050505050505050505050565b600083815260026020908152604091829020548251808401909352601b8352600080516020613b53833981519152918301919091528491906001600160a01b031661083b5760405162461bcd60e51b8152600401610232919061369f565b5061084884600033612359565b80610867575061086784600080516020613bf083398151915233612359565b6040518060600160405280602a8152602001613a53602a91399061089e5760405162461bcd60e51b8152600401610232919061369f565b508251158015906108af5750815115155b604051806060016040528060258152602001613cb060259139906108e65760405162461bcd60e51b8152600401610232919061369f565b5081518351146040518060400160405280601f8152602001600080516020613bd08339815191528152509061092e5760405162461bcd60e51b8152600401610232919061369f565b5060005b8351811015610a865760115483516001600160a01b03909116906323b872dd903090869085908110610966576109666136b2565b6020026020010151878581518110610980576109806136b2565b60209081029190910101516040516001600160e01b031960e086901b1681526001600160a01b0393841660048201529290911660248301526044820152606401600060405180830381600087803b1580156109da57600080fd5b505af11580156109ee573d6000803e3d6000fd5b505060115486516001600160a01b03909116925063dd4670649150869084908110610a1b57610a1b6136b2565b60200260200101516040518263ffffffff1660e01b8152600401610a4191815260200190565b600060405180830381600087803b158015610a5b57600080fd5b505af1158015610a6f573d6000803e3d6000fd5b505050508080610a7e906136f1565b915050610932565b507fc47e064bd57c3620a43c1e4ac852f9185e9582f40bdd973a20f4c1bf520f38a5848333604051610aba93929190613755565b60405180910390a150505050565b825160001415604051806060016040528060258152602001613cb06025913990610b055760405162461bcd60e51b8152600401610232919061369f565b5080518251146040518060400160405280601f8152602001600080516020613bd083398151915281525090610b4d5760405162461bcd60e51b8152600401610232919061369f565b50610b588585612684565b60008060005b8551811015610bf35760009150610b8f87878381518110610b8157610b816136b2565b60200260200101518461297d565b858181518110610ba157610ba16136b2565b602002602001015160000151868281518110610bbf57610bbf6136b2565b602002602001015160200151610bd591906137c1565b610bdf90846136de565b925080610beb816136f1565b915050610b5e565b50348214604051806060016040528060238152602001613a306023913990610c2e5760405162461bcd60e51b8152600401610232919061369f565b506000805b8651811015610dd95760005b878281518110610c5157610c516136b2565b602002602001015160000151811015610dc65760008a8152600c602052604090208751610c8a908990869081106105b8576105b86136b2565b610c9f8986815181106105de576105de6136b2565b604051602001610cb092919061370a565b60408051601f1981840301815290829052610cca91613739565b90815260408051918290036020908101832054838301909252601583527422bb32b73a1d10283630b1b29034b9903a30b5b2b760591b9083015260ff1615610d255760405162461bcd60e51b8152600401610232919061369f565b50610da78a8a8a8581518110610d3d57610d3d6136b2565b6020026020010151602001518a8781518110610d5b57610d5b6136b2565b6020026020010151600001518b8881518110610d7957610d796136b2565b6020026020010151602001518b8981518110610d9757610d976136b2565b6020026020010151600033612493565b610db26001846136de565b925080610dbe816136f1565b915050610c3f565b5080610dd1816136f1565b915050610c33565b505050505050505050565b600082815260026020908152604091829020548251808401909352601b8352600080516020613b53833981519152918301919091528391906001600160a01b0316610e425760405162461bcd60e51b8152600401610232919061369f565b50610e4f83600033612359565b80610e6e5750610e6e83600080516020613bf083398151915233612359565b6040518060600160405280602a8152602001613a53602a913990610ea55760405162461bcd60e51b8152600401610232919061369f565b506000838152600960209081526040808320600401805460018181018355918552938390208651600290950201848155928601519201805460ff841660ff19909116179055517f6acb6edf217693871c0a1b4dc7f139e64435ab88c84cdc94a85daf36cd06849c92610f2a92878352602083019190915260ff16604082015260600190565b60405180910390a1505050565b8051600081815260026020908152604091829020548251808401909352601b8352600080516020613b53833981519152918301919091526001600160a01b0316610f945760405162461bcd60e51b8152600401610232919061369f565b506020808301516000818152600a8352604090819020548151808301909252601e82527f4576656e743a2043617465676f727920646f6573206e6f742065786973740000938201939093529091610ffe5760405162461bcd60e51b8152600401610232919061369f565b5082600001518360200151816000600a0160008381526020019081526020016000206007015414604051806060016040528060298152602001613a7d602991399061105c5760405162461bcd60e51b8152600401610232919061369f565b5084602001518560400151806000600d01600084815260200190815260200160002054146040518060600160405280602c8152602001613b73602c9139906110b75760405162461bcd60e51b8152600401610232919061369f565b5086516000908152600960209081526040918290206004015482516060810190935260228084529015159291613c8e90830139906111085760405162461bcd60e51b8152600401610232919061369f565b5060008061111e89600001518a60400151612baa565b91509150816040518060400160405280601a81526020017f4576656e743a20526566756e642064617465206973206f766572000000000000815250906111775760405162461bcd60e51b8152600401610232919061369f565b506040898101805160009081526010602090815283822033835290528281208490556011549151925160248101939093529182916001600160a01b03169060440160408051601f198184030181529181526020820180516001600160e01b03166331a9108f60e11b179052516111ed9190613739565b6000604051808303816000865af19150503d806000811461122a576040519150601f19603f3d011682016040523d82523d6000602084013e61122f565b606091505b5091509150336001600160a01b03168180602001905181019061125291906137d8565b6001600160a01b03161480156112655750815b6040518060400160405280601d8152602001600080516020613c6e833981519152815250906112a75760405162461bcd60e51b8152600401610232919061369f565b505089516000908152600c6020526040808220601154828e01519251633ee1bcfd60e11b8152600481019390935292935091611340916001600160a01b0390911690637dc379fa90602401600060405180830381865afa15801561130f573d6000803e3d6000fd5b505050506040513d6000823e601f3d908101601f1916820160405261133791908101906137fc565b6060015161238b565b60115460408d8101519051633ee1bcfd60e11b815260048101919091526113c2916001600160a01b031690637dc379fa90602401600060405180830381865afa158015611391573d6000803e3d6000fd5b505050506040513d6000823e601f3d908101601f191682016040526113b991908101906137fc565b6080015161238b565b6040516020016113d392919061370a565b60408051601f19818403018152908290526113ed91613739565b90815260408051918290036020018220805493151560ff1990941693909317909255601154918b015160248201523360448201523060648201526000916001600160a01b03169060840160408051601f198184030181529181526020820180516001600160e01b031663025ba0e960e61b1790525161146c9190613739565b6000604051808303816000865af19150503d80600081146114a9576040519150601f19603f3d011682016040523d82523d6000602084013e6114ae565b606091505b50509050806040518060400160405280601d8152602001600080516020613c6e833981519152815250906114f55760405162461bcd60e51b8152600401610232919061369f565b506000805b6020808d01516000908152600a9091526040902060020154811015611572578b604001516000600a0160008e602001518152602001908152602001600020600201828154811061154c5761154c6136b2565b906000526020600020015403611560578091505b8061156a816136f1565b9150506114fa565b506020808c0180516000908152600a9092526040808320915183529091206002908101549101906115a5906001906138d5565b815481106115b5576115b56136b2565b90600052602060002001546000600a0160008d60200151815260200190815260200160002060020182815481106115ee576115ee6136b2565b60009182526020808320909101929092558c8201518152600a90915260409020600201805480611620576116206138e8565b6000828152602080822083016000199081018390559092019092558c518252600e8152604080832033845290915281208054600193509091906116649084906138d5565b9091555060009050805b8b516000908152600f602090815260408083203384529091529020548110156116e9576040808d01518d516000908152600f60209081528382203383529052919091208054839081106116c3576116c36136b2565b9060005260206000200154036116d7578091505b806116e1816136f1565b91505061166e565b506000600f0160008c6000015181526020019081526020016000206000336001600160a01b03166001600160a01b0316815260200190815260200160002060016000600f0160008e6000015181526020019081526020016000206000336001600160a01b03166001600160a01b031681526020019081526020016000208054905061177491906138d5565b81548110611784576117846136b2565b60009182526020808320909101548d518352600f8252604080842033855290925291208054839081106117b9576117b96136b2565b60009182526020808320909101929092558c518152600f82526040808220338352909252208054806117ed576117ed6138e8565b60019003818190600052602060002001600090559055507f87ff245f55dca5f20f12247f39f781d5710eda96984e49512daad7b675e414798a600001518b602001518c60400151336040516118649493929190938452602084019290925260408301526001600160a01b0316606082015260800190565b60405180910390a150505050505050505050565b600081815260026020908152604091829020548251808401909352601b8352600080516020613b53833981519152918301919091528291906001600160a01b03166118d65760405162461bcd60e51b8152600401610232919061369f565b50611902827fff3317e1e0e8c784290b957ee9b65ea8fe96420c4819db463283b95ecbe4a3fe33612359565b604051806060016040528060318152602001613ad660319139906119395760405162461bcd60e51b8152600401610232919061369f565b5060008281526009602052604081206004015481908190810361196f576000858152600960205260409020600201549250611a62565b60005b600086815260096020526040902060040154811015611a605760008681526009602052604090206004018054829081106119ae576119ae6136b2565b9060005260206000209060020201600001544211611a4e5760008681526009602052604090206004018054829081106119e9576119e96136b2565b600091825260208083206002928302016001015489845260099091526040909220015460ff9091169350611a2790611a228560646137c1565b612d67565b600087815260096020526040902060020154909250611a479083906138d5565b9350611a60565b80611a58816136f1565b915050611972565b505b60008581526009602052604081206002018054859290611a839084906138d5565b9091555050604051600090339085908381818185875af1925050503d8060008114611aca576040519150601f19603f3d011682016040523d82523d6000602084013e611acf565b606091505b5050905080604051806060016040528060298152602001613b076029913990611b0b5760405162461bcd60e51b8152600401610232919061369f565b506040518681527feea9f2e0c73d19e23063194ae9ba8512a252b6c0bd44e31315f611c5efaa8f0b9060200160405180910390a1505050505050565b600082815260026020908152604091829020548251808401909352601b8352600080516020613b53833981519152918301919091528391906001600160a01b0316611ba55760405162461bcd60e51b8152600401610232919061369f565b50611bb283600033612359565b80611bd15750611bd183600080516020613bf083398151915233612359565b80611c025750611c02837fb5a7f51d0593e853ad0aa6b718ee0bdd10c4966eb62d243b69d538e5823d040133612359565b604051806060016040528060388152602001613c366038913990611c395760405162461bcd60e51b8152600401610232919061369f565b5042611c4484612de4565b6001600160401b031611158015611c6c575042611c6084612e6a565b6001600160401b031610155b604051806060016040528060258152602001613cd56025913990611ca35760405162461bcd60e51b8152600401610232919061369f565b50601154604051600091600191606091849182916001600160a01b031690611cd59030908a90889088906024016138fe565b60408051601f198184030181529181526020820180516001600160e01b0316631e27140560e01b17905251611d0a9190613739565b6000604051808303816000865af19150503d8060008114611d47576040519150601f19603f3d011682016040523d82523d6000602084013e611d4c565b606091505b5091509150816040518060400160405280601d8152602001600080516020613c6e83398151915281525090611d945760405162461bcd60e51b8152600401610232919061369f565b5080806020019051810190611da99190613935565b9450846040518060400160405280601881526020017f4576656e743a20436c6970207469636b6574206572726f72000000000000000081525090611e005760405162461bcd60e51b8152600401610232919061369f565b506040805189815260208101899052338183015290517f73b94823b249d530a2b7223a82b4ae3a07a452eb37749ebe162f8bba7fb01f559181900360600190a15050505050505050565b6000828152600960209081526040918290206004015482516060810190935260228084529015159291613c8e9083013990611e985760405162461bcd60e51b8152600401610232919061369f565b50600081815260106020908152604080832033845282528083205485845260099092528220600201805491928392611ed19084906138d5565b9091555050604051600090339083908381818185875af1925050503d8060008114611f18576040519150601f19603f3d011682016040523d82523d6000602084013e611f1d565b606091505b5050905080604051806060016040528060238152602001613b306023913990611f595760405162461bcd60e51b8152600401610232919061369f565b50604080518481523360208201527fa454a872564530477ec0ade23bb2eadb5f61aeb76fb1f727d3f6c3a770f83da49101610aba565b6000818152600f60209081526040808320338452825291829020805483518184028101840190945280845260609392830182828015611fed57602002820191906000526020600020905b815481526020019060010190808311611fd9575b50505050509050919050565b82518451146040518060400160405280601f8152602001600080516020613bd0833981519152815250906120405760405162461bcd60e51b8152600401610232919061369f565b5080518251146040518060400160405280601f8152602001600080516020613bd0833981519152815250906120885760405162461bcd60e51b8152600401610232919061369f565b5060008060005b8551811015612177576120dc8782815181106120ad576120ad6136b2565b6020026020010151600001518883815181106120cb576120cb6136b2565b602002602001015160200151612684565b600091506121138782815181106120f5576120f56136b2565b602002602001015160200151878381518110610b8157610b816136b2565b858181518110612125576121256136b2565b602002602001015160000151868281518110612143576121436136b2565b60200260200101516020015161215991906137c1565b61216390846136de565b92508061216f816136f1565b91505061208f565b50348214604051806060016040528060238152602001613a3060239139906121b25760405162461bcd60e51b8152600401610232919061369f565b506000805b875181101561234f5760005b8782815181106121d5576121d56136b2565b60200260200101516000015181101561233c576000600c0160008a8481518110612201576122016136b2565b60200260200101516000015181526020019081526020016000206122308885815181106105b8576105b86136b2565b6122458986815181106105de576105de6136b2565b60405160200161225692919061370a565b60408051601f198184030181529082905261227091613739565b90815260408051918290036020908101832054838301909252601583527422bb32b73a1d10283630b1b29034b9903a30b5b2b760591b9083015260ff16156122cb5760405162461bcd60e51b8152600401610232919061369f565b5061231d8983815181106122e1576122e16136b2565b6020026020010151600001518a84815181106122ff576122ff6136b2565b6020026020010151602001518a8581518110610d3d57610d3d6136b2565b6123286001846136de565b925080612334816136f1565b9150506121c3565b5080612347816136f1565b9150506121b7565b5050505050505050565b60009283526012602090815260408085209385529281528284206001600160a01b039290921684525290205460ff1690565b6060816000036123b25750506040805180820190915260018152600360fc1b602082015290565b8160005b81156123dc57806123c6816136f1565b91506123d59050600a8361396d565b91506123b6565b6000816001600160401b038111156123f6576123f6612ef8565b6040519080825280601f01601f191660200182016040528015612420576020820181803683370190505b5090505b841561248b576124356001836138d5565b9150612442600a86613981565b61244d9060306136de565b60f81b818381518110612462576124626136b2565b60200101906001600160f81b031916908160001a905350612484600a8661396d565b9450612424565b949350505050565b600088815260096020526040812060020180548892906124b49084906136de565b9091555050601154604051639b69ff0960e01b81526000916001600160a01b031690639b69ff09906124f8908c908c908c908c908c908c908c908c90600401613995565b6020604051808303816000875af1158015612517573d6000803e3d6000fd5b505050506040513d601f19601f8201168201806040525081019061253b91906139ed565b6000898152600a60209081526040822060020180546001810182559083529082200182905590915061256c8761238b565b6125758761238b565b60405160200161258692919061370a565b60408051601f1981840301815282825260008d8152600c602052919091209092506001916125b5908490613739565b9081526040805160209281900383019020805460ff19169315159390931790925560008b8152600d82528281208590558c8152600e82528281206001600160a01b03871682529091529081208054600192906126129084906136de565b909155505060008a8152600f602090815260408083206001600160a01b0387168085529083528184208054600181018255908552938390209093018590558051858152918201929092527f6606e4c8a88792ed4fd5159f9be235ca78e87fc1cbdc6158ea92d3ed3be9bf729101611864565b6000828152600260205260409020546001600160a01b031615156040518060400160405280601b8152602001600080516020613b53833981519152815250906126e05760405162461bcd60e51b8152600401610232919061369f565b506000818152600a6020908152604091829020548251808401909352601e83527f4576656e743a2043617465676f727920646f6573206e6f742065786973740000918301919091526127455760405162461bcd60e51b8152600401610232919061369f565b50816000600a0160008381526020019081526020016000206007015414604051806060016040528060298152602001613a7d60299139906127995760405162461bcd60e51b8152600401610232919061369f565b5060008281526009602090815260409182902060030154825160608101909352603180845260ff90911615156001149291613b9f90830139906127ef5760405162461bcd60e51b8152600401610232919061369f565b506000818152600a6020908152604091829020600c0154825160608101909352603080845260ff90911615156001149291613aa690830139906128455760405162461bcd60e51b8152600401610232919061369f565b504261285083612de4565b6001600160401b03161115801561287857504261286c83612e6a565b6001600160401b031610155b604051806060016040528060268152602001613d1d60269139906128af5760405162461bcd60e51b8152600401610232919061369f565b506000818152600a602052604090206005015442108015906128e257506000818152600a60205260409020600601544211155b604051806060016040528060298152602001613a0760299139906129195760405162461bcd60e51b8152600401610232919061369f565b50600082815260096020908152604080832060010154600e83528184203385528352928190205481516060810190925260268083529311929091613c1090830139906129785760405162461bcd60e51b8152600401610232919061369f565b505050565b815161298990826136de565b6000848152600a602052604090206004810154600290910154919250906129b19083906136de565b1115604051806060016040528060238152602001613cfa60239139906129ea5760405162461bcd60e51b8152600401610232919061369f565b506000838152600a602052604090206008015415612b425760005b6000848152600a6020526040902060080154811015612b3c5782516000858152600a60205260409020600801805483908110612a4357612a436136b2565b906000526020600020015403612b2a576000848152600a60205260408120600901805483908110612a7657612a766136b2565b90600052602060002001546064612a8d91906137c1565b6000868152600a602052604081206003015491925090612aad9083612d67565b6020808701516000898152600a90925260409091206003015491925090612ad59083906138d5565b14604051806040016040528060198152602001784576656e743a2057726f6e67207469636b657420707269636560381b81525090612b265760405162461bcd60e51b8152600401610232919061369f565b5050505b80612b34816136f1565b915050612a05565b50505050565b6020808301516000858152600a835260409081902060030154815180830190925260198252784576656e743a2057726f6e67207469636b657420707269636560381b938201939093529114612b3c5760405162461bcd60e51b8152600401610232919061369f565b60008060008060005b600087815260096020526040902060040154811015612d5c576000878152600960205260409020600401805482908110612bef57612bef6136b2565b9060005260206000209060020201600001544211612d4a5760115460008881526009602052604081206004018054919283926001600160a01b03909116918a9186908110612c3f57612c3f6136b2565b6000918252602090912060029091020160010154604051602481019290925260ff16604482015260640160408051601f198184030181529181526020820180516001600160e01b03166375c8c9bd60e11b17905251612c9e9190613739565b6000604051808303816000865af19150503d8060008114612cdb576040519150601f19603f3d011682016040523d82523d6000602084013e612ce0565b606091505b5091509150816040518060400160405280601d8152602001600080516020613c6e83398151915281525090612d285760405162461bcd60e51b8152600401610232919061369f565b506001935080806020019051810190612d4191906139ed565b94505050612d5c565b80612d54816136f1565b915050612bb3565b509590945092505050565b6000612710612d7683856137c1565b1015612dc45760405162461bcd60e51b815260206004820152601760248201527f50657263656e746167653a20526f756e647320746f20300000000000000000006044820152606401610232565b612710612dd183856137c1565b612ddb919061396d565b90505b92915050565b60008181526002602052604081205481906001600160a01b0316612e455760405162461bcd60e51b8152602060048201526018602482015277115490cd4c0c0dce88125b9d985b1a59081d1bdad95b925960421b6044820152606401610232565b600092835260090160205250604090206003015461010090046001600160401b031690565b60008181526002602052604081205481906001600160a01b0316612ecb5760405162461bcd60e51b8152602060048201526018602482015277115490cd4c0c0dce88125b9d985b1a59081d1bdad95b925960421b6044820152606401610232565b6000928352600901602052506040902060030154690100000000000000000090046001600160401b031690565b634e487b7160e01b600052604160045260246000fd5b604080519081016001600160401b0381118282101715612f3057612f30612ef8565b60405290565b604051606081016001600160401b0381118282101715612f3057612f30612ef8565b60405160c081016001600160401b0381118282101715612f3057612f30612ef8565b604051601f8201601f191681016001600160401b0381118282101715612fa257612fa2612ef8565b604052919050565b60006001600160401b03821115612fc357612fc3612ef8565b5060051b60200190565b6000612fe0612fdb84612faa565b612f7a565b8381529050602080820190600685901b840186811115612fff57600080fd5b845b8181101561303c576040818903121561301a5760008081fd5b613022612f0e565b813581528382013584820152845292820192604001613001565b505050509392505050565b6001600160a01b038116811461305c57600080fd5b50565b60006001600160401b0382111561307857613078612ef8565b50601f01601f191660200190565b600082601f83011261309757600080fd5b813560206130a7612fdb83612faa565b82815260059290921b840181019181810190868411156130c657600080fd5b8286015b848110156131445780356001600160401b038111156130e95760008081fd5b8701603f810189136130fb5760008081fd5b84810135604061310d612fdb8361305f565b8281528b828486010111156131225760008081fd5b82828501898301376000928101880192909252508452509183019183016130ca565b509695505050505050565b6000806000806080858703121561316557600080fd5b843593506020808601356001600160401b038082111561318457600080fd5b818801915088601f83011261319857600080fd5b6131a6898335858501612fcd565b95506040915081880135818111156131bd57600080fd5b8801601f81018a136131ce57600080fd5b80356131dc612fdb82612faa565b8181526060918202830186019186820191908d8411156131fb57600080fd5b938701935b8385101561324c5780858f0312156132185760008081fd5b613220612f36565b8535815288860135898201528786013561323981613047565b8189015283529384019391870191613200565b9098508b013595505050508083111561326457600080fd5b505061327287828801613086565b91505092959194509250565b600082601f83011261328f57600080fd5b8135602061329f612fdb83612faa565b82815260059290921b840181019181810190868411156132be57600080fd5b8286015b848110156131445780356132d581613047565b83529183019183016132c2565b6000806000606084860312156132f757600080fd5b833592506020808501356001600160401b038082111561331657600080fd5b818701915087601f83011261332a57600080fd5b8135613338612fdb82612faa565b81815260059190911b8301840190848101908a83111561335757600080fd5b938501935b828510156133755784358252938501939085019061335c565b96505050604087013592508083111561338d57600080fd5b505061339b8682870161327e565b9150509250925092565b600082601f8301126133b657600080fd5b612ddb83833560208501612fcd565b600080600080600060a086880312156133dd57600080fd5b853594506020860135935060408601356001600160401b038082111561340257600080fd5b61340e89838a016133a5565b9450606088013591508082111561342457600080fd5b61343089838a016133a5565b9350608088013591508082111561344657600080fd5b5061345388828901613086565b9150509295509295909350565b600080828403606081121561347457600080fd5b833592506040601f198201121561348a57600080fd5b50613493612f0e565b60208401358152604084013560ff811681146134ae57600080fd5b6020820152919491935090915050565b6000606082840312156134d057600080fd5b604051606081018181106001600160401b03821117156134f2576134f2612ef8565b80604052508235815260208301356020820152604083013560408201528091505092915050565b60006020828403121561352b57600080fd5b5035919050565b6000806040838503121561354557600080fd5b50508035926020909101359150565b6020808252825182820181905260009190848201906040850190845b8181101561358c57835183529284019291840191600101613570565b50909695505050505050565b600080600080608085870312156135ae57600080fd5b84356001600160401b03808211156135c557600080fd5b818701915087601f8301126135d957600080fd5b6135e888833560208501612fcd565b955060208701359150808211156135fe57600080fd5b61360a888389016133a5565b9450604087013591508082111561362057600080fd5b61362c888389016133a5565b9350606087013591508082111561364257600080fd5b5061327287828801613086565b60005b8381101561366a578181015183820152602001613652565b50506000910152565b6000815180845261368b81602086016020860161364f565b601f01601f19169290920160200192915050565b602081526000612ddb6020830184613673565b634e487b7160e01b600052603260045260246000fd5b634e487b7160e01b600052601160045260246000fd5b80820180821115612dde57612dde6136c8565b600060018201613703576137036136c8565b5060010190565b6000835161371c81846020880161364f565b83519083019061373081836020880161364f565b01949350505050565b6000825161374b81846020870161364f565b9190910192915050565b6000606082018583526020606081850152818651808452608086019150828801935060005b8181101561379f5784516001600160a01b03168352938301939183019160010161377a565b50506001600160a01b0395909516604094909401939093525091949350505050565b8082028115828204841417612dde57612dde6136c8565b6000602082840312156137ea57600080fd5b81516137f581613047565b9392505050565b6000602080838503121561380f57600080fd5b82516001600160401b038082111561382657600080fd5b9084019060c0828703121561383a57600080fd5b613842612f58565b82518152838301518482015260408301516040820152606083015160608201526080830151608082015260a08301518281111561387e57600080fd5b80840193505086601f84011261389357600080fd5b825191506138a3612fdb8361305f565b82815287858486010111156138b757600080fd5b6138c68386830187870161364f565b60a08201529695505050505050565b81810381811115612dde57612dde6136c8565b634e487b7160e01b600052603160045260246000fd5b60018060a01b038516815283602082015282604082015260806060820152600061392b6080830184613673565b9695505050505050565b60006020828403121561394757600080fd5b815180151581146137f557600080fd5b634e487b7160e01b600052601260045260246000fd5b60008261397c5761397c613957565b500490565b60008261399057613990613957565b500690565b60006101008a83528960208401528860408401528760608401528660808401528060a08401526139c781840187613673565b94151560c084015250506001600160a01b039190911660e0909101529695505050505050565b6000602082840312156139ff57600080fd5b505191905056fe4576656e743a2043616e277420627579207469636b65747320666f722063617465676f7279207965744576656e743a204d73672076616c7565206e6f7420657120746f74616c2070726963654576656e743a2043616c6c6572206973206e6f7420616e2061646d696e206f72206d6f64657261746f724576656e743a20546869732063617465676f727920697320666f7220616e6f74686572206576656e744576656e743a205469636b65747320666f7220746869732063617465676f727920617265206e6f742062757961626c654576656e743a204f6e6c7920636173686965722063616e20776974686472617720636f6e74726163742062616c616e63654576656e743a20436f6e74726163742062616c616e63652077697468647261772072657665727465644576656e743a2041636320726566756e642077697468647261772072657665727465644576656e743a204576656e7420646f6573206e6f7420657869737400000000004576656e743a205469636b657420646f65736e277420657869737420696e20746869732063617465676f72794576656e743a205469636b65747320666f7220616c6c2063617465676f7269657320617265206e6f742062757961626c654576656e743a20506172616d6574657273206c656e677468206e6f742065710071f3d55856e4058ed06ee057d79ada615f65cdf5f9ee88181b914225088f834f4576656e743a204d6178207469636b65747320666f72206163636f756e7420726561636865644576656e743a2043616c6c6572206973206e6f7420616e2061646d696e2c206d6f64657261746f72206f7220726563657074696f6e6973744576656e743a20436f6e74726163742063616c6c2072657665727465640000004576656e743a2043616e277420726566756e6420666f722074686973206576656e744576656e743a20506172616d657465722061727261792063616e277420626520656d7074794576656e743a2057726f6e67206461746520666f72207469636b657420636c697070696e674576656e743a204d6178207469636b65747320636f756e7420697320726561636865644576656e743a2043616e277420627579207469636b65747320666f72206576656e7420796574a2646970667358221220000f34effe8c3816302ea703ab32d9d9bdcb0f7c102c49b77e744c9359a86df564736f6c63430008110033",
  "linkReferences": {},
  "deployedLinkReferences": {}
}