{
  "_format": "hh-sol-artifact-1",
  "contractName": "EventFacet",
  "sourceName": "contracts/EventDiamond/facets/EventFacet.sol",
  "abi": [
    {
      "anonymous": false,
      "inputs": [
        {
          "indexed": false,
          "internalType": "uint256",
          "name": "eventId",
          "type": "uint256"
        },
        {
          "indexed": false,
          "internalType": "bool",
          "name": "value",
          "type": "bool"
        }
      ],
      "name": "AllCategorySellChanged",
      "type": "event"
    },
    {
      "anonymous": false,
      "inputs": [
        {
          "indexed": true,
          "internalType": "address",
          "name": "owner",
          "type": "address"
        },
        {
          "indexed": true,
          "internalType": "address",
          "name": "approved",
          "type": "address"
        },
        {
          "indexed": true,
          "internalType": "uint256",
          "name": "tokenId",
          "type": "uint256"
        }
      ],
      "name": "Approval",
      "type": "event"
    },
    {
      "anonymous": false,
      "inputs": [
        {
          "indexed": true,
          "internalType": "address",
          "name": "owner",
          "type": "address"
        },
        {
          "indexed": true,
          "internalType": "address",
          "name": "operator",
          "type": "address"
        },
        {
          "indexed": false,
          "internalType": "bool",
          "name": "approved",
          "type": "bool"
        }
      ],
      "name": "ApprovalForAll",
      "type": "event"
    },
    {
      "anonymous": false,
      "inputs": [
        {
          "indexed": false,
          "internalType": "uint256",
          "name": "_fromTokenId",
          "type": "uint256"
        },
        {
          "indexed": false,
          "internalType": "uint256",
          "name": "_toTokenId",
          "type": "uint256"
        }
      ],
      "name": "BatchMetadataUpdate",
      "type": "event"
    },
    {
      "anonymous": false,
      "inputs": [
        {
          "indexed": false,
          "internalType": "uint256",
          "name": "eventId",
          "type": "uint256"
        },
        {
          "indexed": false,
          "internalType": "uint256",
          "name": "categoryId",
          "type": "uint256"
        },
        {
          "indexed": false,
          "internalType": "string",
          "name": "categoryCid",
          "type": "string"
        }
      ],
      "name": "CategoryCreated",
      "type": "event"
    },
    {
      "anonymous": false,
      "inputs": [
        {
          "indexed": false,
          "internalType": "uint256",
          "name": "eventId",
          "type": "uint256"
        },
        {
          "indexed": false,
          "internalType": "uint256",
          "name": "categoryId",
          "type": "uint256"
        }
      ],
      "name": "CategoryDeleted",
      "type": "event"
    },
    {
      "anonymous": false,
      "inputs": [
        {
          "indexed": false,
          "internalType": "uint256",
          "name": "eventId",
          "type": "uint256"
        },
        {
          "indexed": false,
          "internalType": "uint256",
          "name": "categoryId",
          "type": "uint256"
        },
        {
          "indexed": false,
          "internalType": "address",
          "name": "staffMember",
          "type": "address"
        }
      ],
      "name": "CategorySaleDatesUpdated",
      "type": "event"
    },
    {
      "anonymous": false,
      "inputs": [
        {
          "indexed": false,
          "internalType": "uint256",
          "name": "eventId",
          "type": "uint256"
        },
        {
          "indexed": false,
          "internalType": "uint256",
          "name": "categoryId",
          "type": "uint256"
        },
        {
          "indexed": false,
          "internalType": "bool",
          "name": "value",
          "type": "bool"
        }
      ],
      "name": "CategorySellChanged",
      "type": "event"
    },
    {
      "anonymous": false,
      "inputs": [
        {
          "indexed": false,
          "internalType": "uint256",
          "name": "eventId",
          "type": "uint256"
        },
        {
          "indexed": false,
          "internalType": "uint256",
          "name": "categoryId",
          "type": "uint256"
        },
        {
          "indexed": false,
          "internalType": "uint256",
          "name": "ticketsCount",
          "type": "uint256"
        }
      ],
      "name": "CategoryTicketsAdded",
      "type": "event"
    },
    {
      "anonymous": false,
      "inputs": [
        {
          "indexed": false,
          "internalType": "uint256",
          "name": "eventId",
          "type": "uint256"
        },
        {
          "indexed": false,
          "internalType": "uint256",
          "name": "categoryId",
          "type": "uint256"
        },
        {
          "indexed": false,
          "internalType": "uint256",
          "name": "ticketsCount",
          "type": "uint256"
        }
      ],
      "name": "CategoryTicketsRemoved",
      "type": "event"
    },
    {
      "anonymous": false,
      "inputs": [
        {
          "indexed": false,
          "internalType": "uint256",
          "name": "eventId",
          "type": "uint256"
        },
        {
          "indexed": false,
          "internalType": "uint256",
          "name": "categoryId",
          "type": "uint256"
        }
      ],
      "name": "CategoryUpdated",
      "type": "event"
    },
    {
      "anonymous": false,
      "inputs": [
        {
          "indexed": true,
          "internalType": "uint256",
          "name": "fromTokenId",
          "type": "uint256"
        },
        {
          "indexed": false,
          "internalType": "uint256",
          "name": "toTokenId",
          "type": "uint256"
        },
        {
          "indexed": true,
          "internalType": "address",
          "name": "fromAddress",
          "type": "address"
        },
        {
          "indexed": true,
          "internalType": "address",
          "name": "toAddress",
          "type": "address"
        }
      ],
      "name": "ConsecutiveTransfer",
      "type": "event"
    },
    {
      "anonymous": false,
      "inputs": [
        {
          "indexed": false,
          "internalType": "uint256",
          "name": "eventId",
          "type": "uint256"
        },
        {
          "indexed": false,
          "internalType": "address",
          "name": "account",
          "type": "address"
        },
        {
          "indexed": false,
          "internalType": "address",
          "name": "setter",
          "type": "address"
        }
      ],
      "name": "EventCashierSet",
      "type": "event"
    },
    {
      "anonymous": false,
      "inputs": [
        {
          "indexed": false,
          "internalType": "uint256",
          "name": "eventId",
          "type": "uint256"
        },
        {
          "indexed": false,
          "internalType": "string",
          "name": "metadataUri",
          "type": "string"
        }
      ],
      "name": "EventCreated",
      "type": "event"
    },
    {
      "anonymous": false,
      "inputs": [
        {
          "indexed": false,
          "internalType": "uint256",
          "name": "_tokenId",
          "type": "uint256"
        }
      ],
      "name": "MetadataUpdate",
      "type": "event"
    },
    {
      "anonymous": false,
      "inputs": [
        {
          "indexed": false,
          "internalType": "uint256",
          "name": "eventId",
          "type": "uint256"
        },
        {
          "indexed": true,
          "internalType": "bytes32",
          "name": "role",
          "type": "bytes32"
        },
        {
          "indexed": true,
          "internalType": "bytes32",
          "name": "previousAdminRole",
          "type": "bytes32"
        },
        {
          "indexed": true,
          "internalType": "bytes32",
          "name": "newAdminRole",
          "type": "bytes32"
        }
      ],
      "name": "RoleAdminChanged",
      "type": "event"
    },
    {
      "anonymous": false,
      "inputs": [
        {
          "indexed": false,
          "internalType": "uint256",
          "name": "eventId",
          "type": "uint256"
        },
        {
          "indexed": true,
          "internalType": "bytes32",
          "name": "role",
          "type": "bytes32"
        },
        {
          "indexed": true,
          "internalType": "address",
          "name": "account",
          "type": "address"
        },
        {
          "indexed": true,
          "internalType": "address",
          "name": "sender",
          "type": "address"
        }
      ],
      "name": "RoleGranted",
      "type": "event"
    },
    {
      "anonymous": false,
      "inputs": [
        {
          "indexed": false,
          "internalType": "uint256",
          "name": "eventId",
          "type": "uint256"
        },
        {
          "indexed": true,
          "internalType": "bytes32",
          "name": "role",
          "type": "bytes32"
        },
        {
          "indexed": true,
          "internalType": "address",
          "name": "account",
          "type": "address"
        },
        {
          "indexed": true,
          "internalType": "address",
          "name": "sender",
          "type": "address"
        }
      ],
      "name": "RoleRevoked",
      "type": "event"
    },
    {
      "anonymous": false,
      "inputs": [
        {
          "indexed": false,
          "internalType": "uint256",
          "name": "eventId",
          "type": "uint256"
        },
        {
          "indexed": false,
          "internalType": "uint256",
          "name": "categoryId",
          "type": "uint256"
        },
        {
          "indexed": false,
          "internalType": "uint256",
          "name": "ticketId",
          "type": "uint256"
        },
        {
          "indexed": false,
          "internalType": "address",
          "name": "staffMember",
          "type": "address"
        }
      ],
      "name": "TicketClipped",
      "type": "event"
    },
    {
      "anonymous": false,
      "inputs": [
        {
          "indexed": false,
          "internalType": "uint256",
          "name": "eventId",
          "type": "uint256"
        },
        {
          "indexed": false,
          "internalType": "uint256",
          "name": "categoryId",
          "type": "uint256"
        },
        {
          "indexed": false,
          "internalType": "uint256",
          "name": "ticketCount",
          "type": "uint256"
        },
        {
          "indexed": false,
          "internalType": "address[]",
          "name": "accounts",
          "type": "address[]"
        },
        {
          "indexed": false,
          "internalType": "address",
          "name": "staffMember",
          "type": "address"
        }
      ],
      "name": "TicketsBooked",
      "type": "event"
    },
    {
      "anonymous": false,
      "inputs": [
        {
          "indexed": true,
          "internalType": "address",
          "name": "from",
          "type": "address"
        },
        {
          "indexed": true,
          "internalType": "address",
          "name": "to",
          "type": "address"
        },
        {
          "indexed": true,
          "internalType": "uint256",
          "name": "tokenId",
          "type": "uint256"
        }
      ],
      "name": "Transfer",
      "type": "event"
    },
    {
      "inputs": [],
      "name": "CASHIER_ROLE",
      "outputs": [
        {
          "internalType": "bytes32",
          "name": "",
          "type": "bytes32"
        }
      ],
      "stateMutability": "view",
      "type": "function"
    },
    {
      "inputs": [],
      "name": "DEFAULT_ADMIN_ROLE",
      "outputs": [
        {
          "internalType": "bytes32",
          "name": "",
          "type": "bytes32"
        }
      ],
      "stateMutability": "view",
      "type": "function"
    },
    {
      "inputs": [],
      "name": "MODERATOR_ROLE",
      "outputs": [
        {
          "internalType": "bytes32",
          "name": "",
          "type": "bytes32"
        }
      ],
      "stateMutability": "view",
      "type": "function"
    },
    {
      "inputs": [],
      "name": "RECEPTIONIST_ROLE",
      "outputs": [
        {
          "internalType": "bytes32",
          "name": "",
          "type": "bytes32"
        }
      ],
      "stateMutability": "view",
      "type": "function"
    },
    {
      "inputs": [],
      "name": "VALIDATOR_ROLE",
      "outputs": [
        {
          "internalType": "bytes32",
          "name": "",
          "type": "bytes32"
        }
      ],
      "stateMutability": "view",
      "type": "function"
    },
    {
      "inputs": [
        {
          "internalType": "uint256",
          "name": "_eventId",
          "type": "uint256"
        },
        {
          "internalType": "uint256",
          "name": "_categoryId",
          "type": "uint256"
        },
        {
          "internalType": "uint256",
          "name": "_ticketsCount",
          "type": "uint256"
        }
      ],
      "name": "addCategoryTicketsCount",
      "outputs": [],
      "stateMutability": "nonpayable",
      "type": "function"
    },
    {
      "inputs": [
        {
          "internalType": "uint256",
          "name": "_eventId",
          "type": "uint256"
        },
        {
          "internalType": "bytes32",
          "name": "_role",
          "type": "bytes32"
        },
        {
          "internalType": "address",
          "name": "_account",
          "type": "address"
        }
      ],
      "name": "addTeamMember",
      "outputs": [],
      "stateMutability": "nonpayable",
      "type": "function"
    },
    {
      "inputs": [
        {
          "internalType": "address",
          "name": "to",
          "type": "address"
        },
        {
          "internalType": "uint256",
          "name": "tokenId",
          "type": "uint256"
        }
      ],
      "name": "approve",
      "outputs": [],
      "stateMutability": "nonpayable",
      "type": "function"
    },
    {
      "inputs": [
        {
          "internalType": "address",
          "name": "owner",
          "type": "address"
        }
      ],
      "name": "balanceOf",
      "outputs": [
        {
          "internalType": "uint256",
          "name": "",
          "type": "uint256"
        }
      ],
      "stateMutability": "view",
      "type": "function"
    },
    {
      "inputs": [
        {
          "internalType": "uint256",
          "name": "_eventId",
          "type": "uint256"
        },
        {
          "internalType": "uint256",
          "name": "_categoryId",
          "type": "uint256"
        },
        {
          "internalType": "uint256",
          "name": "_ticketCount",
          "type": "uint256"
        },
        {
          "internalType": "address[]",
          "name": "_accounts",
          "type": "address[]"
        }
      ],
      "name": "bookTickets",
      "outputs": [],
      "stateMutability": "nonpayable",
      "type": "function"
    },
    {
      "inputs": [
        {
          "internalType": "uint256",
          "name": "_eventId",
          "type": "uint256"
        },
        {
          "internalType": "uint256",
          "name": "_categoryId",
          "type": "uint256"
        },
        {
          "internalType": "string",
          "name": "_ticketMetadataURI",
          "type": "string"
        },
        {
          "internalType": "uint256",
          "name": "amount",
          "type": "uint256"
        }
      ],
      "name": "buyTickets",
      "outputs": [],
      "stateMutability": "nonpayable",
      "type": "function"
    },
    {
      "inputs": [
        {
          "internalType": "uint256",
          "name": "_eventId",
          "type": "uint256"
        },
        {
          "internalType": "uint256",
          "name": "_categoryId",
          "type": "uint256"
        },
        {
          "internalType": "uint256",
          "name": "_ticketId",
          "type": "uint256"
        }
      ],
      "name": "clipTicket",
      "outputs": [],
      "stateMutability": "nonpayable",
      "type": "function"
    },
    {
      "inputs": [
        {
          "internalType": "uint256",
          "name": "_maxTicketsPerClient",
          "type": "uint256"
        },
        {
          "internalType": "uint64",
          "name": "_startDate",
          "type": "uint64"
        },
        {
          "internalType": "uint64",
          "name": "_endDate",
          "type": "uint64"
        },
        {
          "internalType": "string",
          "name": "_metadataURI",
          "type": "string"
        }
      ],
      "name": "createEvent",
      "outputs": [],
      "stateMutability": "nonpayable",
      "type": "function"
    },
    {
      "inputs": [
        {
          "internalType": "uint256",
          "name": "_eventId",
          "type": "uint256"
        },
        {
          "internalType": "string",
          "name": "_categoryCid",
          "type": "string"
        },
        {
          "internalType": "uint256",
          "name": "_saleStartDate",
          "type": "uint256"
        },
        {
          "internalType": "uint256",
          "name": "_saleEndDate",
          "type": "uint256"
        },
        {
          "internalType": "uint256",
          "name": "_ticketsCount",
          "type": "uint256"
        },
        {
          "internalType": "uint256",
          "name": "_ticketPrice",
          "type": "uint256"
        },
        {
          "internalType": "uint256[]",
          "name": "_discountsTicketsCount",
          "type": "uint256[]"
        },
        {
          "internalType": "uint256[]",
          "name": "_discountsPercentage",
          "type": "uint256[]"
        },
        {
          "components": [
            {
              "internalType": "uint256",
              "name": "price",
              "type": "uint256"
            },
            {
              "internalType": "uint256",
              "name": "finalAmountDate",
              "type": "uint256"
            }
          ],
          "internalType": "struct IEvent.DownPayment",
          "name": "_downPayment",
          "type": "tuple"
        }
      ],
      "name": "createTicketCategory",
      "outputs": [],
      "stateMutability": "nonpayable",
      "type": "function"
    },
    {
      "inputs": [
        {
          "internalType": "uint256",
          "name": "tokenId",
          "type": "uint256"
        }
      ],
      "name": "endTime",
      "outputs": [
        {
          "internalType": "uint64",
          "name": "",
          "type": "uint64"
        }
      ],
      "stateMutability": "view",
      "type": "function"
    },
    {
      "inputs": [],
      "name": "fetchAllEventIds",
      "outputs": [
        {
          "internalType": "uint256[]",
          "name": "",
          "type": "uint256[]"
        }
      ],
      "stateMutability": "view",
      "type": "function"
    },
    {
      "inputs": [],
      "name": "fetchAllEvents",
      "outputs": [
        {
          "components": [
            {
              "internalType": "address",
              "name": "organizer",
              "type": "address"
            },
            {
              "internalType": "uint256",
              "name": "maxTicketsPerClient",
              "type": "uint256"
            },
            {
              "internalType": "bool",
              "name": "areAllCategoryTicketsBuyable",
              "type": "bool"
            }
          ],
          "internalType": "struct IEvent.Event[]",
          "name": "",
          "type": "tuple[]"
        }
      ],
      "stateMutability": "view",
      "type": "function"
    },
    {
      "inputs": [
        {
          "internalType": "uint256",
          "name": "_eventId",
          "type": "uint256"
        }
      ],
      "name": "fetchCategoriesByEventId",
      "outputs": [
        {
          "components": [
            {
              "internalType": "uint256",
              "name": "id",
              "type": "uint256"
            },
            {
              "internalType": "string",
              "name": "cid",
              "type": "string"
            },
            {
              "internalType": "uint256[]",
              "name": "ticketIds",
              "type": "uint256[]"
            },
            {
              "internalType": "uint256",
              "name": "ticketPrice",
              "type": "uint256"
            },
            {
              "internalType": "uint256",
              "name": "ticketsCount",
              "type": "uint256"
            },
            {
              "internalType": "uint256",
              "name": "saleStartDate",
              "type": "uint256"
            },
            {
              "internalType": "uint256",
              "name": "saleEndDate",
              "type": "uint256"
            },
            {
              "internalType": "uint256",
              "name": "eventId",
              "type": "uint256"
            },
            {
              "internalType": "uint256[]",
              "name": "discountsTicketsCount",
              "type": "uint256[]"
            },
            {
              "internalType": "uint256[]",
              "name": "discountsPercentage",
              "type": "uint256[]"
            },
            {
              "components": [
                {
                  "internalType": "uint256",
                  "name": "price",
                  "type": "uint256"
                },
                {
                  "internalType": "uint256",
                  "name": "finalAmountDate",
                  "type": "uint256"
                }
              ],
              "internalType": "struct IEvent.DownPayment",
              "name": "downPayment",
              "type": "tuple"
            },
            {
              "internalType": "bool",
              "name": "areTicketsBuyable",
              "type": "bool"
            }
          ],
          "internalType": "struct IEvent.Category[]",
          "name": "",
          "type": "tuple[]"
        }
      ],
      "stateMutability": "view",
      "type": "function"
    },
    {
      "inputs": [
        {
          "internalType": "uint256",
          "name": "_eventId",
          "type": "uint256"
        }
      ],
      "name": "fetchEventById",
      "outputs": [
        {
          "components": [
            {
              "internalType": "address",
              "name": "organizer",
              "type": "address"
            },
            {
              "internalType": "uint256",
              "name": "maxTicketsPerClient",
              "type": "uint256"
            },
            {
              "internalType": "bool",
              "name": "areAllCategoryTicketsBuyable",
              "type": "bool"
            }
          ],
          "internalType": "struct IEvent.Event",
          "name": "eventObj",
          "type": "tuple"
        }
      ],
      "stateMutability": "view",
      "type": "function"
    },
    {
      "inputs": [],
      "name": "fetchOwnedEvents",
      "outputs": [
        {
          "internalType": "uint256[]",
          "name": "",
          "type": "uint256[]"
        }
      ],
      "stateMutability": "view",
      "type": "function"
    },
    {
      "inputs": [
        {
          "internalType": "uint256",
          "name": "tokenId",
          "type": "uint256"
        }
      ],
      "name": "getApproved",
      "outputs": [
        {
          "internalType": "address",
          "name": "",
          "type": "address"
        }
      ],
      "stateMutability": "view",
      "type": "function"
    },
    {
      "inputs": [
        {
          "internalType": "uint256",
          "name": "eventId",
          "type": "uint256"
        }
      ],
      "name": "getEventMembers",
      "outputs": [
        {
          "components": [
            {
              "internalType": "address",
              "name": "account",
              "type": "address"
            },
            {
              "internalType": "bytes32",
              "name": "role",
              "type": "bytes32"
            }
          ],
          "internalType": "struct RoleControl.MemberData[]",
          "name": "",
          "type": "tuple[]"
        }
      ],
      "stateMutability": "view",
      "type": "function"
    },
    {
      "inputs": [
        {
          "internalType": "uint256",
          "name": "eventId",
          "type": "uint256"
        },
        {
          "internalType": "bytes32",
          "name": "role",
          "type": "bytes32"
        }
      ],
      "name": "getRoleAdmin",
      "outputs": [
        {
          "internalType": "bytes32",
          "name": "",
          "type": "bytes32"
        }
      ],
      "stateMutability": "view",
      "type": "function"
    },
    {
      "inputs": [
        {
          "internalType": "uint256",
          "name": "eventId",
          "type": "uint256"
        },
        {
          "internalType": "bytes32",
          "name": "role",
          "type": "bytes32"
        },
        {
          "internalType": "address",
          "name": "account",
          "type": "address"
        }
      ],
      "name": "grantRole",
      "outputs": [],
      "stateMutability": "nonpayable",
      "type": "function"
    },
    {
      "inputs": [
        {
          "internalType": "uint256",
          "name": "eventId",
          "type": "uint256"
        },
        {
          "internalType": "bytes32",
          "name": "role",
          "type": "bytes32"
        },
        {
          "internalType": "address",
          "name": "account",
          "type": "address"
        }
      ],
      "name": "hasRole",
      "outputs": [
        {
          "internalType": "bool",
          "name": "",
          "type": "bool"
        }
      ],
      "stateMutability": "view",
      "type": "function"
    },
    {
      "inputs": [
        {
          "internalType": "address",
          "name": "owner",
          "type": "address"
        },
        {
          "internalType": "address",
          "name": "operator",
          "type": "address"
        }
      ],
      "name": "isApprovedForAll",
      "outputs": [
        {
          "internalType": "bool",
          "name": "",
          "type": "bool"
        }
      ],
      "stateMutability": "view",
      "type": "function"
    },
    {
      "inputs": [
        {
          "internalType": "uint256",
          "name": "_eventId",
          "type": "uint256"
        },
        {
          "internalType": "bool",
          "name": "_value",
          "type": "bool"
        }
      ],
      "name": "manageAllCategorySelling",
      "outputs": [],
      "stateMutability": "nonpayable",
      "type": "function"
    },
    {
      "inputs": [
        {
          "internalType": "uint256",
          "name": "_eventId",
          "type": "uint256"
        },
        {
          "internalType": "uint256",
          "name": "_categoryId",
          "type": "uint256"
        },
        {
          "internalType": "bool",
          "name": "_value",
          "type": "bool"
        }
      ],
      "name": "manageCategorySelling",
      "outputs": [],
      "stateMutability": "nonpayable",
      "type": "function"
    },
    {
      "inputs": [],
      "name": "name",
      "outputs": [
        {
          "internalType": "string",
          "name": "",
          "type": "string"
        }
      ],
      "stateMutability": "view",
      "type": "function"
    },
    {
      "inputs": [
        {
          "internalType": "uint256",
          "name": "tokenId",
          "type": "uint256"
        }
      ],
      "name": "ownerOf",
      "outputs": [
        {
          "internalType": "address",
          "name": "",
          "type": "address"
        }
      ],
      "stateMutability": "view",
      "type": "function"
    },
    {
      "inputs": [
        {
          "internalType": "uint256",
          "name": "_eventId",
          "type": "uint256"
        },
        {
          "internalType": "uint256",
          "name": "_categoryId",
          "type": "uint256"
        }
      ],
      "name": "removeCategory",
      "outputs": [],
      "stateMutability": "nonpayable",
      "type": "function"
    },
    {
      "inputs": [
        {
          "internalType": "uint256",
          "name": "_eventId",
          "type": "uint256"
        },
        {
          "internalType": "uint256",
          "name": "_categoryId",
          "type": "uint256"
        },
        {
          "internalType": "uint256",
          "name": "_ticketsCount",
          "type": "uint256"
        }
      ],
      "name": "removeCategoryTicketsCount",
      "outputs": [],
      "stateMutability": "nonpayable",
      "type": "function"
    },
    {
      "inputs": [
        {
          "internalType": "uint256",
          "name": "_eventId",
          "type": "uint256"
        }
      ],
      "name": "removeEvent",
      "outputs": [],
      "stateMutability": "nonpayable",
      "type": "function"
    },
    {
      "inputs": [
        {
          "internalType": "uint256",
          "name": "_eventId",
          "type": "uint256"
        },
        {
          "internalType": "bytes32",
          "name": "_role",
          "type": "bytes32"
        },
        {
          "internalType": "address",
          "name": "_account",
          "type": "address"
        }
      ],
      "name": "removeTeamMember",
      "outputs": [],
      "stateMutability": "nonpayable",
      "type": "function"
    },
    {
      "inputs": [
        {
          "internalType": "uint256",
          "name": "eventId",
          "type": "uint256"
        },
        {
          "internalType": "bytes32",
          "name": "role",
          "type": "bytes32"
        },
        {
          "internalType": "address",
          "name": "account",
          "type": "address"
        }
      ],
      "name": "renounceRole",
      "outputs": [],
      "stateMutability": "nonpayable",
      "type": "function"
    },
    {
      "inputs": [
        {
          "internalType": "uint256",
          "name": "eventId",
          "type": "uint256"
        },
        {
          "internalType": "bytes32",
          "name": "role",
          "type": "bytes32"
        },
        {
          "internalType": "address",
          "name": "account",
          "type": "address"
        }
      ],
      "name": "revokeRole",
      "outputs": [],
      "stateMutability": "nonpayable",
      "type": "function"
    },
    {
      "inputs": [
        {
          "internalType": "address",
          "name": "from",
          "type": "address"
        },
        {
          "internalType": "address",
          "name": "to",
          "type": "address"
        },
        {
          "internalType": "uint256",
          "name": "tokenId",
          "type": "uint256"
        }
      ],
      "name": "safeTransferFrom",
      "outputs": [],
      "stateMutability": "nonpayable",
      "type": "function"
    },
    {
      "inputs": [
        {
          "internalType": "address",
          "name": "from",
          "type": "address"
        },
        {
          "internalType": "address",
          "name": "to",
          "type": "address"
        },
        {
          "internalType": "uint256",
          "name": "tokenId",
          "type": "uint256"
        },
        {
          "internalType": "bytes",
          "name": "data",
          "type": "bytes"
        }
      ],
      "name": "safeTransferFrom",
      "outputs": [],
      "stateMutability": "nonpayable",
      "type": "function"
    },
    {
      "inputs": [
        {
          "internalType": "address",
          "name": "operator",
          "type": "address"
        },
        {
          "internalType": "bool",
          "name": "approved",
          "type": "bool"
        }
      ],
      "name": "setApprovalForAll",
      "outputs": [],
      "stateMutability": "nonpayable",
      "type": "function"
    },
    {
      "inputs": [
        {
          "internalType": "uint256",
          "name": "_eventId",
          "type": "uint256"
        },
        {
          "internalType": "address",
          "name": "_account",
          "type": "address"
        }
      ],
      "name": "setEventCashier",
      "outputs": [],
      "stateMutability": "nonpayable",
      "type": "function"
    },
    {
      "inputs": [
        {
          "internalType": "uint256",
          "name": "tokenId",
          "type": "uint256"
        }
      ],
      "name": "startTime",
      "outputs": [
        {
          "internalType": "uint64",
          "name": "",
          "type": "uint64"
        }
      ],
      "stateMutability": "view",
      "type": "function"
    },
    {
      "inputs": [
        {
          "internalType": "bytes4",
          "name": "interfaceId",
          "type": "bytes4"
        }
      ],
      "name": "supportsInterface",
      "outputs": [
        {
          "internalType": "bool",
          "name": "",
          "type": "bool"
        }
      ],
      "stateMutability": "view",
      "type": "function"
    },
    {
      "inputs": [],
      "name": "symbol",
      "outputs": [
        {
          "internalType": "string",
          "name": "",
          "type": "string"
        }
      ],
      "stateMutability": "view",
      "type": "function"
    },
    {
      "inputs": [
        {
          "internalType": "uint256",
          "name": "tokenId",
          "type": "uint256"
        }
      ],
      "name": "tokenURI",
      "outputs": [
        {
          "internalType": "string",
          "name": "",
          "type": "string"
        }
      ],
      "stateMutability": "view",
      "type": "function"
    },
    {
      "inputs": [
        {
          "internalType": "address",
          "name": "from",
          "type": "address"
        },
        {
          "internalType": "address",
          "name": "to",
          "type": "address"
        },
        {
          "internalType": "uint256",
          "name": "tokenId",
          "type": "uint256"
        }
      ],
      "name": "transferFrom",
      "outputs": [],
      "stateMutability": "nonpayable",
      "type": "function"
    },
    {
      "inputs": [
        {
          "internalType": "uint256",
          "name": "_eventId",
          "type": "uint256"
        },
        {
          "internalType": "uint256",
          "name": "_categoryId",
          "type": "uint256"
        },
        {
          "internalType": "string",
          "name": "_categoryCid",
          "type": "string"
        },
        {
          "internalType": "uint256",
          "name": "_ticketPrice",
          "type": "uint256"
        },
        {
          "internalType": "uint256[]",
          "name": "_discountsTicketsCount",
          "type": "uint256[]"
        },
        {
          "internalType": "uint256[]",
          "name": "_discountsPercentage",
          "type": "uint256[]"
        },
        {
          "components": [
            {
              "internalType": "uint256",
              "name": "price",
              "type": "uint256"
            },
            {
              "internalType": "uint256",
              "name": "finalAmountDate",
              "type": "uint256"
            }
          ],
          "internalType": "struct IEvent.DownPayment",
          "name": "_downPayment",
          "type": "tuple"
        }
      ],
      "name": "updateCategory",
      "outputs": [],
      "stateMutability": "nonpayable",
      "type": "function"
    },
    {
      "inputs": [
        {
          "internalType": "uint256",
          "name": "_eventId",
          "type": "uint256"
        },
        {
          "internalType": "uint256",
          "name": "_categoryId",
          "type": "uint256"
        },
        {
          "internalType": "uint256",
          "name": "_saleStartDate",
          "type": "uint256"
        },
        {
          "internalType": "uint256",
          "name": "_saleEndDate",
          "type": "uint256"
        }
      ],
      "name": "updateCategorySaleDates",
      "outputs": [],
      "stateMutability": "nonpayable",
      "type": "function"
    },
    {
      "inputs": [
        {
          "internalType": "uint256",
          "name": "_eventId",
          "type": "uint256"
        },
        {
          "internalType": "string",
          "name": "_newMetadataURI",
          "type": "string"
        }
      ],
      "name": "updateEventTokenUri",
      "outputs": [],
      "stateMutability": "nonpayable",
      "type": "function"
    }
  ],
  "bytecode": "0x608060405234801561001057600080fd5b506001601155615108806100256000396000f3fe608060405234801561001057600080fd5b50600436106102305760003560e01c806301ffc9a7146102355780630309a5391461025e57806306a5bcd21461027357806306fdde0314610286578063081812fc1461029b578063095ea7b3146102c65780630d517286146102d95780630e1b943d146102f9578063119345aa146103195780631c6f92711461032c5780631cdf29c71461033f5780632053d82c1461035257806323b872dd146103655780632761f33b146103785780633660ff831461038b578063397d4dbc146103a05780633d378bb0146103c15780633ec4c968146103d457806342842e0e146103ff57806344c816fa146104125780634a120dd714610425578063558e39c41461043857806356164e1e1461044b5780635ba161381461045e5780636352211e146104735780636a4bc7de1461048657806370a0823114610499578063724bdedf146104ac578063797669c9146104bf578063959a1b58146104d457806395d89b41146104e7578063a217fddf146104ef578063a22cb465146104f7578063a310d9bf1461050a578063a3bdc7c71461051d578063a3cfe1601461053d578063abae6af914610550578063b015554414610565578063b7fd968414610578578063b88d4fde1461058d578063c49baebe146105a0578063c87b56dd146105b5578063d5533da0146105c8578063e985e9c5146105db578063f354159b146105ee578063f99c229214610601578063fb42204d14610609578063fc3291a61461061c575b600080fd5b610249610243366004613e2a565b50600090565b60405190151581526020015b60405180910390f35b61027161026c366004613e5c565b61062f565b005b610271610281366004613ee5565b610703565b61028e61081b565b6040516102559190613ffe565b6102ae6102a9366004614011565b6108af565b6040516001600160a01b039091168152602001610255565b6102716102d436600461402a565b6108d6565b6102ec6102e7366004614011565b6109eb565b6040516102559190614078565b61030c610307366004614011565b610a61565b6040516102559190614086565b6102496103273660046140de565b610ae9565b61027161033a366004614113565b610b1b565b61027161034d366004614145565b610c46565b6102716103603660046141df565b610cf5565b610271610373366004614225565b610d9c565b6102716103863660046142be565b610dcd565b610393610f8d565b6040516102559190614380565b6103b36103ae3660046143ce565b6110f0565b604051908152602001610255565b6102716103cf3660046143ce565b611114565b6103e76103e2366004614011565b611469565b6040516001600160401b039091168152602001610255565b61027161040d366004614225565b6114ac565b6103e7610420366004614011565b6114c7565b6102716104333660046140de565b611511565b6102716104463660046143f0565b611538565b610271610459366004614011565b61166a565b6103b360008051602061507383398151915281565b6102ae610481366004614011565b611920565b6102716104943660046140de565b611955565b6103b36104a736600461441c565b611a11565b6102716104ba3660046140de565b611a97565b6103b360008051602061509383398151915281565b6102716104e2366004614478565b611b10565b61028e611ec8565b6103b3600081565b610271610505366004614562565b611eda565b61027161051836600461458c565b611ee9565b61053061052b366004614011565b612018565b60405161025591906145f3565b61027161054b36600461473e565b61237c565b6105586124f3565b60405161025591906147a5565b6102716105733660046140de565b61263e565b6103b360008051602061505383398151915281565b61027161059b3660046147b8565b6126f4565b6103b360008051602061503383398151915281565b61028e6105c3366004614011565b612726565b6102716105d63660046143f0565b612866565b6102496105e9366004614827565b61298f565b6102716105fc3660046143f0565b6129bd565b610558612bee565b6102716106173660046140de565b612cf3565b61027161062a366004614851565b612d13565b8161063981612ec7565b61065e5760405162461bcd60e51b8152600401610655906148a8565b60405180910390fd5b61066a83600033610ae9565b8061068957506106898360008051602061509383398151915233610ae9565b6106a55760405162461bcd60e51b8152600401610655906148de565b600083815260096020908152604091829020600201805460ff19168515159081179091558251868152918201527f578eeefe0b8083fcd939e8d547da4c0ba6b26ed213c13de65ab08a52f9f26a5291015b60405180910390a1505050565b8361070d81612ec7565b6107295760405162461bcd60e51b8152600401610655906148a8565b6000848152600a60205260408120548591036107575760405162461bcd60e51b815260040161065590614928565b6000858152600a602052604090206007015486908690821461078b5760405162461bcd60e51b81526004016106559061495f565b61079788600033610ae9565b806107b657506107b68860008051602061509383398151915233610ae9565b6107d25760405162461bcd60e51b8152600401610655906148de565b7f5f183d9cf5454d6fc91379ef5dce8b6a4543ec2c03a1d6376579c9a6949b2cb388888888336040516108099594939291906149a8565b60405180910390a15050505050505050565b606060008001805461082c90614a22565b80601f016020809104026020016040519081016040528092919081815260200182805461085890614a22565b80156108a55780601f1061087a576101008083540402835291602001916108a5565b820191906000526020600020905b81548152906001019060200180831161088857829003601f168201915b5050505050905090565b60006108ba82612ee4565b506000908152600460205260409020546001600160a01b031690565b60006108e182611920565b9050806001600160a01b0316836001600160a01b03160361094e5760405162461bcd60e51b815260206004820152602160248201527f4552433732313a20617070726f76616c20746f2063757272656e74206f776e656044820152603960f91b6064820152608401610655565b336001600160a01b038216148061096a575061096a813361298f565b6109dc5760405162461bcd60e51b815260206004820152603e60248201527f4552433732313a20617070726f76652063616c6c6572206973206e6f7420746f60448201527f6b656e206f776e6572206e6f7220617070726f76656420666f7220616c6c00006064820152608401610655565b6109e68383612f0c565b505050565b6109f3613c85565b816109fd81612ec7565b610a195760405162461bcd60e51b8152600401610655906148a8565b5050600090815260096020908152604091829020825160608101845281546001600160a01b031681526001820154928101929092526002015460ff1615159181019190915290565b6060600f6000838152602001908152602001600020805480602002602001604051908101604052809291908181526020016000905b82821015610ade576000848152602090819020604080518082019091526002850290910180546001600160a01b03168252600190810154828401529083529092019101610a96565b505050509050919050565b6000928352600e602090815260408085209385529281528284206001600160a01b039290921684525290205460ff1690565b83610b2581612ec7565b610b415760405162461bcd60e51b8152600401610655906148a8565b6000848152600a6020526040812054859103610b6f5760405162461bcd60e51b815260040161065590614928565b6000858152600a6020526040902060070154869086908214610ba35760405162461bcd60e51b81526004016106559061495f565b610baf88600033610ae9565b80610bce5750610bce8860008051602061509383398151915233610ae9565b610bea5760405162461bcd60e51b8152600401610655906148de565b6000878152600a60209081526040918290206005810189905560060187905581518a815290810189905233918101919091527f4192182acd964db32b1197a6483d5694cf6e678e7202565c44cc961078eb2c8f90606001610809565b81610c5081612ec7565b610c6c5760405162461bcd60e51b8152600401610655906148a8565b610c7883600033610ae9565b610c945760405162461bcd60e51b815260040161065590614a56565b610cad8360008051602061505383398151915284612cf3565b604080518481526001600160a01b038416602082015233918101919091527f9f54db3c6775e8717da6972b09a7ed552d62f5fd63696a1a75e58f61bd240193906060016106f6565b81610cff81612ec7565b610d1b5760405162461bcd60e51b8152600401610655906148a8565b610d2783600033610ae9565b80610d465750610d468360008051602061509383398151915233610ae9565b610d625760405162461bcd60e51b8152600401610655906148de565b610d6c8383612f7a565b6040518381527ff8e1a15aba9398e019f0b49df1a4fde98ee17ae345cb5f6b5e2c27f5033e8ce7906020016106f6565b610da63382612ffe565b610dc25760405162461bcd60e51b815260040161065590614a8d565b6109e683838361305c565b88610dd781612ec7565b610df35760405162461bcd60e51b8152600401610655906148a8565b6000898152600a60205260408120548a9103610e215760405162461bcd60e51b815260040161065590614928565b60008a8152600a60205260409020600701548b908b908214610e555760405162461bcd60e51b81526004016106559061495f565b610e618d600033610ae9565b80610e805750610e808d60008051602061509383398151915233610ae9565b610e9c5760405162461bcd60e51b8152600401610655906148de565b878614610ebb5760405162461bcd60e51b815260040161065590614adb565b60008c8152600a60205260409020600101610ed68c82614b86565b5060008c8152600a60205260409020600381018b9055610efa906008018a8a613ca5565b5060008c8152600a60205260409020610f17906009018888613ca5565b5060008c8152600a60208190526040909120869101610f43828281358155602082013560018201555050565b5050604080518e8152602081018e90527f44df894581249b9c6cda25b6fe8239320be1641adde53f17479b4153cadfcc60910160405180910390a150505050505050505050505050565b60606000610f9a60075490565b905060008060015b838111610fe6576000818152600960205260409020546001600160a01b031615610fd45782610fd081614c55565b9350505b80610fde81614c55565b915050610fa2565b506000826001600160401b0381111561100157611001613e88565b60405190808252806020026020018201604052801561103a57816020015b611027613c85565b81526020019060019003908161101f5790505b50905060015b8481116110e7576000818152600960205260409020546001600160a01b0316156110d557600081815260096020908152604091829020825160608101845281546001600160a01b031681526001820154928101929092526002015460ff1615159181019190915282518390859081106110bb576110bb614c6e565b602002602001018190525082806110d190614c55565b9350505b806110df81614c55565b915050611040565b50949350505050565b6000828152600e602090815260408083208484529091529020600101545b92915050565b8161111e81612ec7565b61113a5760405162461bcd60e51b8152600401610655906148a8565b6000828152600a60205260408120548391036111685760405162461bcd60e51b815260040161065590614928565b6000838152600a602052604090206007015484908490821461119c5760405162461bcd60e51b81526004016106559061495f565b6111a886600033610ae9565b806111c757506111c78660008051602061509383398151915233610ae9565b6111e35760405162461bcd60e51b8152600401610655906148de565b6000858152600a6020526040902060020154156112565760405162461bcd60e51b815260206004820152602b60248201527f4576656e743a2054686572652061726520626f75676874207469636b6574732060448201526a696e2063617465676f727960a81b6064820152608401610655565b6000858152600a60205260408120818155906112756001830182613cf0565b611283600283016000613d2a565b600382016000905560048201600090556005820160009055600682016000905560078201600090556008820160006112bb9190613d2a565b6112c9600983016000613d2a565b506000600a8201819055600b808301829055600c909201805460ff1916905587815260209182526040808220805482518186028101860190935280835292939192909183018282801561133b57602002820191906000526020600020905b815481526020019060010190808311611327575b5050505050905060005b8151811015611425578682828151811061136157611361614c6e565b602002602001015103611413576000888152600b60205260409020825161138a90600190614c84565b8154811061139a5761139a614c6e565b90600052602060002001546000600b0160008a815260200190815260200160002082815481106113cc576113cc614c6e565b6000918252602080832090910192909255898152600b909152604090208054806113f8576113f8614c97565b60019003818190600052602060002001600090559055611425565b8061141d81614c55565b915050611345565b5060408051888152602081018890527ff67e86d3ffc2c26729aac7f4e3e07e009ad076ace7cd9e9fc184fd452ac0cc8591015b60405180910390a150505050505050565b600061147482612ec7565b6114905760405162461bcd60e51b815260040161065590614cad565b506000908152600c60205260409020546001600160401b031690565b6109e6838383604051806020016040528060008152506126f4565b60006114d282612ec7565b6114ee5760405162461bcd60e51b815260040161065590614cad565b506000908152600c6020526040902054600160401b90046001600160401b031690565b8261151c84846110f0565b61152682826131e6565b6115318585856131f1565b5050505050565b8261154281612ec7565b61155e5760405162461bcd60e51b8152600401610655906148a8565b6000838152600a602052604081205484910361158c5760405162461bcd60e51b815260040161065590614928565b6000848152600a60205260409020600701548590859082146115c05760405162461bcd60e51b81526004016106559061495f565b6115cc87600033610ae9565b806115eb57506115eb8760008051602061509383398151915233610ae9565b8061160a575061160a8760008051602061507383398151915233610ae9565b6116265760405162461bcd60e51b8152600401610655906148de565b60408051888152602081018890529081018690523360608201527f2dcc6bceb950de206af8457a1b2083cbb47b6b70918a66be78ab4d128fee79f090608001611458565b8061167481612ec7565b6116905760405162461bcd60e51b8152600401610655906148a8565b61169c82600033610ae9565b6116b85760405162461bcd60e51b815260040161065590614a56565b6000828152600b602090815260408083208054825181850281018501909352808352919290919083018282801561170e57602002820191906000526020600020905b8154815260200190600101908083116116fa575b505050505090506000805b825181101561177f576000600a01600084838151811061173b5761173b614c6e565b602002602001015181526020019081526020016000206002018054905060000361176d578161176981614c55565b9250505b8061177781614c55565b915050611719565b50808251146117e05760405162461bcd60e51b815260206004820152602760248201527f4576656e743a204576656e74206d757374206e6f74206861766520736f6c64206044820152667469636b65747360c81b6064820152608401610655565b6117e9846132b2565b600084815260096020908152604080832080546001600160a01b031916815560018101849055600201805460ff19169055600b909152812061182a91613d2a565b60005b82518110156118fe576000600a01600084838151811061184f5761184f614c6e565b6020026020010151815260200190815260200160002060008082016000905560018201600061187e9190613cf0565b61188c600283016000613d2a565b600382016000905560048201600090556005820160009055600682016000905560078201600090556008820160006118c49190613d2a565b6118d2600983016000613d2a565b506000600a8201819055600b820155600c01805460ff19169055806118f681614c55565b91505061182d565b505050600091825250600c6020526040902080546001600160801b0319169055565b6000818152600260205260408120546001600160a01b03168061110e5760405162461bcd60e51b815260040161065590614cdf565b8261195f81612ec7565b61197b5760405162461bcd60e51b8152600401610655906148a8565b61198784600033610ae9565b6119a35760405162461bcd60e51b815260040161065590614a56565b6000805160206150538339815191528303611a005760405162461bcd60e51b815260206004820152601d60248201527f4576656e743a2043616e277420736574206361736869657220686572650000006044820152606401610655565b611a0b848484612cf3565b50505050565b60006001600160a01b038216611a7b5760405162461bcd60e51b815260206004820152602960248201527f4552433732313a2061646472657373207a65726f206973206e6f7420612076616044820152683634b21037bbb732b960b91b6064820152608401610655565b506001600160a01b031660009081526003602052604090205490565b6001600160a01b0381163314611b055760405162461bcd60e51b815260206004820152602d60248201527f526f6c65436f6e74726f6c3a2063616e206f6e6c792072656e6f756e6365207260448201526c37b632b9903337b91039b2b63360991b6064820152608401610655565b6109e68383836131f1565b8b611b1a81612ec7565b611b365760405162461bcd60e51b8152600401610655906148a8565b611b428d600033610ae9565b80611b615750611b618d60008051602061509383398151915233610ae9565b611b7d5760405162461bcd60e51b8152600401610655906148de565b848314611b9c5760405162461bcd60e51b815260040161065590614adb565b611baa600880546001019055565b6000611bb560085490565b6000818152600a60205260409020818155909150600101611bd78d8f83614d11565b506040805160008082526020808301808552858352600a9091529290209051611c069260029092019190613d48565b506000818152600a60205260409020600481018a9055600781018f905560038101899055611c38906008018888613ca5565b506000818152600a60205260409020611c55906009018686613ca5565b506000818152600a60208190526040909120849101611c81828281358155602082013560018201555050565b50508a158015611c8f575089155b15611cc0576000818152600a60205260409020600581018c9055600681018b9055600c01805460ff19169055611e3e565b8a600003611ce2576000818152600a6020526040902042600590910155611d6e565b60008e8152600c60205260409020546001600160401b03168b1015611d595760405162461bcd60e51b815260206004820152602760248201527f4576656e743a2043617465676f7279207374617274206461746520697320696e60448201526618dbdc9c9958dd60ca1b6064820152608401610655565b6000818152600a602052604090206005018b90555b89600003611d90576000818152600a6020526040902042600690910155611e21565b60008e8152600c6020526040902054600160401b90046001600160401b03168a1115611e0c5760405162461bcd60e51b815260206004820152602560248201527f4576656e743a2043617465676f727920656e64206461746520697320696e636f6044820152641c9c9958dd60da1b6064820152608401610655565b6000818152600a602052604090206006018a90555b6000818152600a60205260409020600c01805460ff191660011790555b6000600b0160008f81526020019081526020016000208190806001815401808255809150506001900390600052602060002001600090919091909150557f2a94cd6b8e4219d087c43453e983d276c11f9ba16e547f01adb19edb60ae3c7d8e828f8f604051611eb09493929190614dca565b60405180910390a15050505050505050505050505050565b60606000600101805461082c90614a22565b611ee533838361336e565b5050565b82611ef381612ec7565b611f0f5760405162461bcd60e51b8152600401610655906148a8565b6000838152600a6020526040812054849103611f3d5760405162461bcd60e51b815260040161065590614928565b6000848152600a6020526040902060070154859085908214611f715760405162461bcd60e51b81526004016106559061495f565b611f7d87600033610ae9565b80611f9c5750611f9c8760008051602061509383398151915233610ae9565b611fb85760405162461bcd60e51b8152600401610655906148de565b6000868152600a6020908152604091829020600c01805460ff191688151590811790915582518a8152918201899052918101919091527f15fa4fe87d07b2a02e02cc0fac2981a3fd8653661340b9b26feae8ffefaade8a90606001611458565b60608161202481612ec7565b6120405760405162461bcd60e51b8152600401610655906148a8565b6000838152600b602090815260408083208054825181850281018501909352808352919290919083018282801561209657602002820191906000526020600020905b815481526020019060010190808311612082575b50505050509050600081516001600160401b038111156120b8576120b8613e88565b6040519080825280602002602001820160405280156120f157816020015b6120de613d83565b8152602001906001900390816120d65790505b50905060005b8251811015612371576000600a01600084838151811061211957612119614c6e565b60200260200101518152602001908152602001600020604051806101800160405290816000820154815260200160018201805461215590614a22565b80601f016020809104026020016040519081016040528092919081815260200182805461218190614a22565b80156121ce5780601f106121a3576101008083540402835291602001916121ce565b820191906000526020600020905b8154815290600101906020018083116121b157829003601f168201915b505050505081526020016002820180548060200260200160405190810160405280929190818152602001828054801561222657602002820191906000526020600020905b815481526020019060010190808311612212575b505050505081526020016003820154815260200160048201548152602001600582015481526020016006820154815260200160078201548152602001600882018054806020026020016040519081016040528092919081815260200182805480156122b057602002820191906000526020600020905b81548152602001906001019080831161229c575b505050505081526020016009820180548060200260200160405190810160405280929190818152602001828054801561230857602002820191906000526020600020905b8154815260200190600101908083116122f4575b5050509183525050604080518082018252600a8401548152600b840154602082810191909152830152600c9092015460ff161515910152825183908390811061235357612353614c6e565b6020026020010181905250808061236990614c55565b9150506120f7565b509250505b50919050565b6002601154036123ce5760405162461bcd60e51b815260206004820152601f60248201527f5265656e7472616e637947756172643a207265656e7472616e742063616c6c006044820152606401610655565b60026011556123e1600780546001019055565b60006123ec60075490565b6000818152600960205260409081902080546001600160a01b03191633178155600180820189905560028201805460ff191690911790559051919250907f9ce3d6db707bca4ba0eabed8fba1e2c013a1c0bc1132a764170a7854d198c73d906124589084908690614e07565b60405180910390a161246c82600033613438565b6124858260008051602061509383398151915233613438565b61249e8260008051602061503383398151915233613438565b6124b78260008051602061507383398151915233613438565b6124d08260008051602061505383398151915233613438565b6124dc3383878761353c565b6124e68284612f7a565b5050600160115550505050565b6060600061250060075490565b905060008060015b83811161256f5761251b81600033610ae9565b8061253a575061253a8160008051602061509383398151915233610ae9565b801561254a575061254a81612ec7565b1561255d578261255981614c55565b9350505b8061256781614c55565b915050612508565b506000826001600160401b0381111561258a5761258a613e88565b6040519080825280602002602001820160405280156125b3578160200160208202803683370190505b50905060015b8481116110e7576125cc81600033610ae9565b806125eb57506125eb8160008051602061509383398151915233610ae9565b80156125fb57506125fb81612ec7565b1561262c578082848151811061261357612613614c6e565b60209081029190910101528261262881614c55565b9350505b8061263681614c55565b9150506125b9565b8261264881612ec7565b6126645760405162461bcd60e51b8152600401610655906148a8565b61267084600033610ae9565b61268c5760405162461bcd60e51b815260040161065590614a56565b60008051602061505383398151915283036126e95760405162461bcd60e51b815260206004820181905260248201527f4576656e743a2043616e27742072656d6f7665206361736869657220686572656044820152606401610655565b611a0b848484611511565b6126fe3383612ffe565b61271a5760405162461bcd60e51b815260040161065590614a8d565b611a0b848484846135df565b606061273182612ee4565b6000828152600660205260408120805461274a90614a22565b80601f016020809104026020016040519081016040528092919081815260200182805461277690614a22565b80156127c35780601f10612798576101008083540402835291602001916127c3565b820191906000526020600020905b8154815290600101906020018083116127a657829003601f168201915b5050505050905060006127e160408051602081019091526000815290565b905080516000036127f3575092915050565b81511561282557808260405160200161280d929190614e20565b60405160208183030381529060405292505050919050565b6000815111612843576040518060200160405280600081525061285e565b8061284d85613612565b60405160200161280d929190614e20565b949350505050565b8261287081612ec7565b61288c5760405162461bcd60e51b8152600401610655906148a8565b6000838152600a60205260408120548491036128ba5760405162461bcd60e51b815260040161065590614928565b6000848152600a60205260409020600701548590859082146128ee5760405162461bcd60e51b81526004016106559061495f565b6128fa87600033610ae9565b8061291957506129198760008051602061509383398151915233610ae9565b6129355760405162461bcd60e51b8152600401610655906148de565b6000868152600a602052604081206004018054879290612956908490614e4f565b90915550506040517f3a50fbe2fa0bdf2022fcd8fe2132970519fcf4df5cf97d78e86c510eb0805b6a9061145890899089908990614e62565b6001600160a01b03918216600090815260056020908152604080832093909416825291909152205460ff1690565b826129c781612ec7565b6129e35760405162461bcd60e51b8152600401610655906148a8565b6000838152600a6020526040812054849103612a115760405162461bcd60e51b815260040161065590614928565b6000848152600a6020526040902060070154859085908214612a455760405162461bcd60e51b81526004016106559061495f565b612a5187600033610ae9565b80612a705750612a708760008051602061509383398151915233610ae9565b612a8c5760405162461bcd60e51b8152600401610655906148de565b6000868152600a6020526040902060040154851115612af95760405162461bcd60e51b815260206004820152602360248201527f4576656e743a20446563726561736564207469636b6574732062656c6f77207a60448201526265726f60e81b6064820152608401610655565b6000868152600a6020526040902060040154612b16908690614c84565b6000878152600a60205260409020600201541115612b945760405162461bcd60e51b815260206004820152603560248201527f4576656e743a205469636b65747320616d6f756e742063616e2774206265206c604482015274657373207468616e20736f6c64207469636b65747360581b6064820152608401610655565b6000868152600a602052604081206004018054879290612bb5908490614c84565b90915550506040517fb39ecd9af22a3fec10ec63455a79d572fdcfadf6a9005d5cd232b2829f958c709061145890899089908990614e62565b60606000612bfb60075490565b905060008060015b838111612c47576000818152600960205260409020546001600160a01b031615612c355782612c3181614c55565b9350505b80612c3f81614c55565b915050612c03565b506000826001600160401b03811115612c6257612c62613e88565b604051908082528060200260200182016040528015612c8b578160200160208202803683370190505b50905060015b8481116110e7576000818152600960205260409020546001600160a01b031615612ce15780828481518110612cc857612cc8614c6e565b602090810291909101015282612cdd81614c55565b9350505b80612ceb81614c55565b915050612c91565b82612cfe84846110f0565b612d0882826131e6565b611531858585613438565b83612d1d81612ec7565b612d395760405162461bcd60e51b8152600401610655906148a8565b60008581526009602052604090206002015460ff161515600114612db95760405162461bcd60e51b815260206004820152603160248201527f4576656e743a205469636b65747320666f7220616c6c2063617465676f7269656044820152707320617265206e6f742062757961626c6560781b6064820152608401610655565b6000848152600a60205260409020600c015460ff161515600114612e385760405162461bcd60e51b815260206004820152603060248201527f4576656e743a205469636b65747320666f7220746869732063617465676f727960448201526f20617265206e6f742062757961626c6560801b6064820152608401610655565b6000848152600a60205260409020600501544211801590612e6a57506000848152600a60205260409020600601544210155b6115315760405162461bcd60e51b815260206004820152602860248201527f4576656e743a2053656c6c20706572696f64206e6f742072656163686564206f6044820152671c881c185cdcd95960c21b6064820152608401610655565b6000908152600260205260409020546001600160a01b0316151590565b612eed81612ec7565b612f095760405162461bcd60e51b815260040161065590614cdf565b50565b600081815260046020526040902080546001600160a01b0319166001600160a01b0384169081179091558190612f4182611920565b6001600160a01b03167f8c5be1e5ebec7d5bd14f71427d1e84f3dd0314c0f7b2291e5b200ac8c7c3b92560405160405180910390a45050565b612f8382612ec7565b612fe65760405162461bcd60e51b815260206004820152602e60248201527f45524337323155524953746f726167653a2055524920736574206f66206e6f6e60448201526d32bc34b9ba32b73a103a37b5b2b760911b6064820152608401610655565b60008281526006602052604090206109e68282614b86565b60008061300a83611920565b9050806001600160a01b0316846001600160a01b031614806130315750613031818561298f565b8061285e5750836001600160a01b031661304a846108af565b6001600160a01b031614949350505050565b826001600160a01b031661306f82611920565b6001600160a01b0316146130d35760405162461bcd60e51b815260206004820152602560248201527f4552433732313a207472616e736665722066726f6d20696e636f72726563742060448201526437bbb732b960d91b6064820152608401610655565b6001600160a01b0382166131355760405162461bcd60e51b8152602060048201526024808201527f4552433732313a207472616e7366657220746f20746865207a65726f206164646044820152637265737360e01b6064820152608401610655565b613140600082612f0c565b6001600160a01b0383166000908152600360205260408120805460019290613169908490614c84565b90915550506001600160a01b0382166000908152600360205260408120805460019290613197908490614e4f565b909155505060008181526002602052604080822080546001600160a01b0319166001600160a01b0386811691821790925591518493918716916000805160206150b383398151915291a4505050565b611ee5828233613712565b6131fc838383610ae9565b156109e6576000838152600e6020908152604080832085845282528083206001600160a01b03851684528252808320805460ff1916905560109091529020546132458482613776565b6001600160a01b038216600090815260106020526040812055336001600160a01b0316826001600160a01b0316847f7b00293d63517946aeba2f56c6b4c5dec87b67393ac48520994d3d8ce776335a876040516132a491815260200190565b60405180910390a450505050565b60006132bd82611920565b90506132ca600083612f0c565b6001600160a01b03811660009081526003602052604081208054600192906132f3908490614c84565b909155505060008281526002602052604080822080546001600160a01b0319169055518391906001600160a01b038416906000805160206150b3833981519152908390a46000828152600660205260409020805461335090614a22565b159050611ee5576000828152600660205260408120611ee591613cf0565b816001600160a01b0316836001600160a01b0316036133cb5760405162461bcd60e51b815260206004820152601960248201527822a9219b99189d1030b8383937bb32903a379031b0b63632b960391b6044820152606401610655565b6001600160a01b03838116600081815260056020908152604080832094871680845294825291829020805460ff191686151590811790915591519182527f17307eab39ab6107e8899845ad3d59bd9653f200f220920489ca2b5937696c31910160405180910390a3505050565b613443838383610ae9565b6109e6576000838152600e6020908152604080832085845282528083206001600160a01b03858116808652918452828520805460ff1916600190811790915583518085018552928352828501888152898752600f865293862080548083018255818852958720845160029097020180546001600160a01b031916969093169590951782559251908301559286905290546134dd9190614c84565b6001600160a01b038316600090815260106020526040902055336001600160a01b0316826001600160a01b0316847fd9dfff7752b7a810e2b646c0c96b76bc9ed817f6c6f7848bbe68163f7e8b4378876040516132a491815260200190565b816001600160401b0316816001600160401b031610156135995760405162461bcd60e51b8152602060048201526018602482015277455243353030373a20496e76616c696420656e6454696d6560401b6044820152606401610655565b6135a38484613859565b6000928352600c602052604090922080546001600160401b03938416600160401b026001600160801b0319909116939092169290921717905550565b6135ea84848461305c565b6135f684848484613979565b611a0b5760405162461bcd60e51b815260040161065590614e78565b6060816000036136395750506040805180820190915260018152600360fc1b602082015290565b8160005b8115613663578061364d81614c55565b915061365c9050600a83614ee0565b915061363d565b6000816001600160401b0381111561367d5761367d613e88565b6040519080825280601f01601f1916602001820160405280156136a7576020820181803683370190505b5090505b841561285e576136bc600183614c84565b91506136c9600a86614ef4565b6136d4906030614e4f565b60f81b8183815181106136e9576136e9614c6e565b60200101906001600160f81b031916908160001a90535061370b600a86614ee0565b94506136ab565b61371d838383610ae9565b6109e65761372a81613a7a565b613735836020613a8c565b61373e85613c2e565b60405160200161375093929190614f08565b60408051601f198184030181529082905262461bcd60e51b825261065591600401613ffe565b6000828152600f60205260409020805461379290600190614c84565b815481106137a2576137a2614c6e565b9060005260206000209060020201600f600084815260200190815260200160002082815481106137d4576137d4614c6e565b60009182526020808320845460029093020180546001600160a01b0319166001600160a01b039093169290921782556001938401549390910192909255838152600f9091526040902080548061382c5761382c614c97565b60008281526020812060026000199093019283020180546001600160a01b03191681556001015590555050565b6001600160a01b0382166138af5760405162461bcd60e51b815260206004820181905260248201527f4552433732313a206d696e7420746f20746865207a65726f20616464726573736044820152606401610655565b6138b881612ec7565b156139045760405162461bcd60e51b815260206004820152601c60248201527b115490cdcc8c4e881d1bdad95b88185b1c9958591e481b5a5b9d195960221b6044820152606401610655565b6001600160a01b038216600090815260036020526040812080546001929061392d908490614e4f565b909155505060008181526002602052604080822080546001600160a01b0319166001600160a01b03861690811790915590518392906000805160206150b3833981519152908290a45050565b60006001600160a01b0384163b15613a6f57604051630a85bd0160e11b81526001600160a01b0385169063150b7a02906139bd903390899088908890600401614faa565b6020604051808303816000875af19250505080156139f8575060408051601f3d908101601f191682019092526139f591810190614fe7565b60015b613a55573d808015613a26576040519150601f19603f3d011682016040523d82523d6000602084013e613a2b565b606091505b508051600003613a4d5760405162461bcd60e51b815260040161065590614e78565b805181602001fd5b6001600160e01b031916630a85bd0160e11b14905061285e565b506001949350505050565b606061110e6001600160a01b03831660145b60606000613a9b836002615004565b613aa6906002614e4f565b6001600160401b03811115613abd57613abd613e88565b6040519080825280601f01601f191660200182016040528015613ae7576020820181803683370190505b509050600360fc1b81600081518110613b0257613b02614c6e565b60200101906001600160f81b031916908160001a905350600f60fb1b81600181518110613b3157613b31614c6e565b60200101906001600160f81b031916908160001a9053506000613b55846002615004565b613b60906001614e4f565b90505b6001811115613bd8576f181899199a1a9b1b9c1cb0b131b232b360811b85600f1660108110613b9457613b94614c6e565b1a60f81b828281518110613baa57613baa614c6e565b60200101906001600160f81b031916908160001a90535060049490941c93613bd18161501b565b9050613b63565b508315613c275760405162461bcd60e51b815260206004820181905260248201527f537472696e67733a20686578206c656e67746820696e73756666696369656e746044820152606401610655565b9392505050565b606081600003613c585750506040805180820190915260048152630307830360e41b602082015290565b8160005b8115613c7b5780613c6c81614c55565b915050600882901c9150613c5c565b61285e8482613a8c565b604080516060810182526000808252602082018190529181019190915290565b828054828255906000526020600020908101928215613ce0579160200282015b82811115613ce0578235825591602001919060010190613cc5565b50613cec929150613dff565b5090565b508054613cfc90614a22565b6000825580601f10613d0c575050565b601f016020900490600052602060002090810190612f099190613dff565b5080546000825590600052602060002090810190612f099190613dff565b828054828255906000526020600020908101928215613ce0579160200282015b82811115613ce0578251825591602001919060010190613d68565b60405180610180016040528060008152602001606081526020016060815260200160008152602001600081526020016000815260200160008152602001600081526020016060815260200160608152602001613df2604051806040016040528060008152602001600081525090565b8152600060209091015290565b5b80821115613cec5760008155600101613e00565b6001600160e01b031981168114612f0957600080fd5b600060208284031215613e3c57600080fd5b8135613c2781613e14565b80358015158114613e5757600080fd5b919050565b60008060408385031215613e6f57600080fd5b82359150613e7f60208401613e47565b90509250929050565b634e487b7160e01b600052604160045260246000fd5b604051601f8201601f191681016001600160401b0381118282101715613ec657613ec6613e88565b604052919050565b80356001600160a01b0381168114613e5757600080fd5b60008060008060808587031215613efb57600080fd5b8435935060208086013593506040860135925060608601356001600160401b0380821115613f2857600080fd5b818801915088601f830112613f3c57600080fd5b813581811115613f4e57613f4e613e88565b8060051b9150613f5f848301613e9e565b818152918301840191848101908b841115613f7957600080fd5b938501935b83851015613f9e57613f8f85613ece565b82529385019390850190613f7e565b989b979a50959850505050505050565b60005b83811015613fc9578181015183820152602001613fb1565b50506000910152565b60008151808452613fea816020860160208601613fae565b601f01601f19169290920160200192915050565b602081526000613c276020830184613fd2565b60006020828403121561402357600080fd5b5035919050565b6000806040838503121561403d57600080fd5b61404683613ece565b946020939093013593505050565b80516001600160a01b03168252602080820151908301526040908101511515910152565b6060810161110e8284614054565b602080825282518282018190526000919060409081850190868401855b828110156140d157815180516001600160a01b031685528601518685015292840192908501906001016140a3565b5091979650505050505050565b6000806000606084860312156140f357600080fd5b833592506020840135915061410a60408501613ece565b90509250925092565b6000806000806080858703121561412957600080fd5b5050823594602084013594506040840135936060013592509050565b6000806040838503121561415857600080fd5b82359150613e7f60208401613ece565b60006001600160401b0383111561418157614181613e88565b614194601f8401601f1916602001613e9e565b90508281528383830111156141a857600080fd5b828260208301376000602084830101529392505050565b600082601f8301126141d057600080fd5b613c2783833560208501614168565b600080604083850312156141f257600080fd5b8235915060208301356001600160401b0381111561420f57600080fd5b61421b858286016141bf565b9150509250929050565b60008060006060848603121561423a57600080fd5b61424384613ece565b925061425160208501613ece565b9150604084013590509250925092565b60008083601f84011261427357600080fd5b5081356001600160401b0381111561428a57600080fd5b6020830191508360208260051b85010111156142a557600080fd5b9250929050565b60006040828403121561237657600080fd5b60008060008060008060008060006101008a8c0312156142dd57600080fd5b8935985060208a0135975060408a01356001600160401b038082111561430257600080fd5b61430e8d838e016141bf565b985060608c0135975060808c013591508082111561432b57600080fd5b6143378d838e01614261565b909750955060a08c013591508082111561435057600080fd5b5061435d8c828d01614261565b909450925061437190508b60c08c016142ac565b90509295985092959850929598565b6020808252825182820181905260009190848201906040850190845b818110156143c2576143af838551614054565b928401926060929092019160010161439c565b50909695505050505050565b600080604083850312156143e157600080fd5b50508035926020909101359150565b60008060006060848603121561440557600080fd5b505081359360208301359350604090920135919050565b60006020828403121561442e57600080fd5b613c2782613ece565b60008083601f84011261444957600080fd5b5081356001600160401b0381111561446057600080fd5b6020830191508360208285010111156142a557600080fd5b6000806000806000806000806000806000806101408d8f03121561449b57600080fd5b8c359b506001600160401b0360208e013511156144b757600080fd5b6144c78e60208f01358f01614437565b909b50995060408d0135985060608d0135975060808d0135965060a08d013595506001600160401b0360c08e0135111561450057600080fd5b6145108e60c08f01358f01614261565b90955093506001600160401b0360e08e0135111561452d57600080fd5b61453d8e60e08f01358f01614261565b90935091506145508e6101008f016142ac565b90509295989b509295989b509295989b565b6000806040838503121561457557600080fd5b61457e83613ece565b9150613e7f60208401613e47565b6000806000606084860312156145a157600080fd5b833592506020840135915061410a60408501613e47565b600081518084526020808501945080840160005b838110156145e8578151875295820195908201906001016145cc565b509495945050505050565b60006020808301818452808551808352604092508286019150828160051b87010184880160005b8381101561471957603f1989840301855281516101a08151855288820151818a87015261464982870182613fd2565b915050878201518582038987015261466182826145b8565b606084810151908801526080808501519088015260a0808501519088015260c0808501519088015260e0808501519088015261010080850151888303828a015291935091506146b083826145b8565b9250505061012080830151868303828801526146cc83826145b8565b92505050610140808301516146ed8288018280518252602090810151910152565b5050610160820151915061470661018086018315159052565b958801959350509086019060010161461a565b509098975050505050505050565b80356001600160401b0381168114613e5757600080fd5b6000806000806080858703121561475457600080fd5b8435935061476460208601614727565b925061477260408601614727565b915060608501356001600160401b0381111561478d57600080fd5b614799878288016141bf565b91505092959194509250565b602081526000613c2760208301846145b8565b600080600080608085870312156147ce57600080fd5b6147d785613ece565b93506147e560208601613ece565b92506040850135915060608501356001600160401b0381111561480757600080fd5b8501601f8101871361481857600080fd5b61479987823560208401614168565b6000806040838503121561483a57600080fd5b61484383613ece565b9150613e7f60208401613ece565b6000806000806080858703121561486757600080fd5b843593506020850135925060408501356001600160401b0381111561488b57600080fd5b614897878288016141bf565b949793965093946060013593505050565b6020808252601c908201527b4576656e743a204576656e7420646f6573206e6f742065786973742160201b604082015260600190565b6020808252602a908201527f4576656e743a2043616c6c6572206973206e6f7420616e2061646d696e206f726040820152691036b7b232b930ba37b960b11b606082015260800190565b6020808252601f908201527f4576656e743a2043617465676f727920646f6573206e6f742065786973742100604082015260600190565b60208082526029908201527f4576656e743a20546869732063617465676f727920697320666f7220616e6f746040820152681a195c88195d995b9d60ba1b606082015260800190565b600060a082018783526020878185015286604085015260a0606085015281865180845260c086019150828801935060005b818110156149fe5784516001600160a01b0316835293830193918301916001016149d9565b50506001600160a01b03959095166080949094019390935250919695505050505050565b600181811c90821680614a3657607f821691505b60208210810361237657634e487b7160e01b600052602260045260246000fd5b6020808252601d908201527f4576656e743a2043616c6c6572206973206e6f7420616e2061646d696e000000604082015260600190565b6020808252602e908201527f4552433732313a2063616c6c6572206973206e6f7420746f6b656e206f776e6560408201526d1c881b9bdc88185c1c1c9bdd995960921b606082015260800190565b60208082526028908201527f4576656e743a20446973636f756e7420706172616d6574657273206c656e677460408201526768206e6f7420657160c01b606082015260800190565b601f8211156109e657600081815260208120601f850160051c81016020861015614b4a5750805b601f850160051c820191505b81811015614b6957828155600101614b56565b505050505050565b600019600383901b1c191660019190911b1790565b81516001600160401b03811115614b9f57614b9f613e88565b614bb381614bad8454614a22565b84614b23565b602080601f831160018114614be25760008415614bd05750858301515b614bda8582614b71565b865550614b69565b600085815260208120601f198616915b82811015614c1157888601518255948401946001909101908401614bf2565b5085821015614c2f5787850151600019600388901b60f8161c191681555b5050505050600190811b01905550565b634e487b7160e01b600052601160045260246000fd5b600060018201614c6757614c67614c3f565b5060010190565b634e487b7160e01b600052603260045260246000fd5b8181038181111561110e5761110e614c3f565b634e487b7160e01b600052603160045260246000fd5b602080825260189082015277115490cd4c0c0dce88125b9d985b1a59081d1bdad95b925960421b604082015260600190565b602080825260189082015277115490cdcc8c4e881a5b9d985b1a59081d1bdad95b88125160421b604082015260600190565b6001600160401b03831115614d2857614d28613e88565b614d3c83614d368354614a22565b83614b23565b6000601f841160018114614d6a5760008515614d585750838201355b614d628682614b71565b845550611531565b600083815260209020601f19861690835b82811015614d9b5786850135825560209485019460019092019101614d7b565b5086821015614db85760001960f88860031b161c19848701351681555b505060018560011b0183555050505050565b84815283602082015260606040820152816060820152818360808301376000818301608090810191909152601f909201601f191601019392505050565b82815260406020820152600061285e6040830184613fd2565b60008351614e32818460208801613fae565b835190830190614e46818360208801613fae565b01949350505050565b8082018082111561110e5761110e614c3f565b9283526020830191909152604082015260600190565b60208082526032908201527f4552433732313a207472616e7366657220746f206e6f6e20455243373231526560408201527131b2b4bb32b91034b6b83632b6b2b73a32b960711b606082015260800190565b634e487b7160e01b600052601260045260246000fd5b600082614eef57614eef614eca565b500490565b600082614f0357614f03614eca565b500690565b7402937b632a1b7b73a3937b61d1030b1b1b7bab73a1605d1b815260008451614f38816015850160208901613fae565b7001034b99036b4b9b9b4b733903937b6329607d1b6015918401918201528451614f69816026840160208901613fae565b720103337b91032bb32b73a103bb4ba341034b21606d1b602692909101918201528351614f9d816039840160208801613fae565b0160390195945050505050565b6001600160a01b0385811682528416602082015260408101839052608060608201819052600090614fdd90830184613fd2565b9695505050505050565b600060208284031215614ff957600080fd5b8151613c2781613e14565b808202811582820484141761110e5761110e614c3f565b60008161502a5761502a614c3f565b50600019019056fe21702c8af46127c7fa207f89d0b0a8441bb32959a0ac7df790e9ab1a25c98926ff3317e1e0e8c784290b957ee9b65ea8fe96420c4819db463283b95ecbe4a3feb5a7f51d0593e853ad0aa6b718ee0bdd10c4966eb62d243b69d538e5823d040171f3d55856e4058ed06ee057d79ada615f65cdf5f9ee88181b914225088f834fddf252ad1be2c89b69c2b068fc378daa952ba7f163c4a11628f55a4df523b3efa264697066735822122088d692f342cbaed899484b3d2027c2bc0a03ec55b71096893ad68bf66abe34e164736f6c63430008110033",
  "linkReferences": {},
  "deployedLinkReferences": {}
}