{
  "_format": "hh-sol-artifact-1",
  "contractName": "EventFacet",
  "sourceName": "contracts/EventDiamond/facets/EventFacet.sol",
  "abi": [
    {
      "anonymous": false,
      "inputs": [
        {
          "indexed": false,
          "internalType": "uint256",
          "name": "eventId",
          "type": "uint256"
        },
        {
          "indexed": false,
          "internalType": "bool",
          "name": "value",
          "type": "bool"
        }
      ],
      "name": "AllCategorySellChanged",
      "type": "event"
    },
    {
      "anonymous": false,
      "inputs": [
        {
          "indexed": true,
          "internalType": "address",
          "name": "owner",
          "type": "address"
        },
        {
          "indexed": true,
          "internalType": "address",
          "name": "approved",
          "type": "address"
        },
        {
          "indexed": true,
          "internalType": "uint256",
          "name": "tokenId",
          "type": "uint256"
        }
      ],
      "name": "Approval",
      "type": "event"
    },
    {
      "anonymous": false,
      "inputs": [
        {
          "indexed": true,
          "internalType": "address",
          "name": "owner",
          "type": "address"
        },
        {
          "indexed": true,
          "internalType": "address",
          "name": "operator",
          "type": "address"
        },
        {
          "indexed": false,
          "internalType": "bool",
          "name": "approved",
          "type": "bool"
        }
      ],
      "name": "ApprovalForAll",
      "type": "event"
    },
    {
      "anonymous": false,
      "inputs": [
        {
          "indexed": false,
          "internalType": "uint256",
          "name": "_fromTokenId",
          "type": "uint256"
        },
        {
          "indexed": false,
          "internalType": "uint256",
          "name": "_toTokenId",
          "type": "uint256"
        }
      ],
      "name": "BatchMetadataUpdate",
      "type": "event"
    },
    {
      "anonymous": false,
      "inputs": [
        {
          "indexed": false,
          "internalType": "uint256",
          "name": "eventId",
          "type": "uint256"
        },
        {
          "indexed": false,
          "internalType": "uint256",
          "name": "categoryId",
          "type": "uint256"
        },
        {
          "indexed": false,
          "internalType": "string",
          "name": "categoryCid",
          "type": "string"
        }
      ],
      "name": "CategoryCreated",
      "type": "event"
    },
    {
      "anonymous": false,
      "inputs": [
        {
          "indexed": false,
          "internalType": "uint256",
          "name": "eventId",
          "type": "uint256"
        },
        {
          "indexed": false,
          "internalType": "uint256",
          "name": "categoryId",
          "type": "uint256"
        }
      ],
      "name": "CategoryDeleted",
      "type": "event"
    },
    {
      "anonymous": false,
      "inputs": [
        {
          "indexed": false,
          "internalType": "uint256",
          "name": "eventId",
          "type": "uint256"
        },
        {
          "indexed": false,
          "internalType": "uint256",
          "name": "categoryId",
          "type": "uint256"
        },
        {
          "indexed": false,
          "internalType": "address",
          "name": "staffMember",
          "type": "address"
        }
      ],
      "name": "CategorySaleDatesUpdated",
      "type": "event"
    },
    {
      "anonymous": false,
      "inputs": [
        {
          "indexed": false,
          "internalType": "uint256",
          "name": "eventId",
          "type": "uint256"
        },
        {
          "indexed": false,
          "internalType": "uint256",
          "name": "categoryId",
          "type": "uint256"
        },
        {
          "indexed": false,
          "internalType": "bool",
          "name": "value",
          "type": "bool"
        }
      ],
      "name": "CategorySellChanged",
      "type": "event"
    },
    {
      "anonymous": false,
      "inputs": [
        {
          "indexed": false,
          "internalType": "uint256",
          "name": "eventId",
          "type": "uint256"
        },
        {
          "indexed": false,
          "internalType": "uint256",
          "name": "categoryId",
          "type": "uint256"
        },
        {
          "indexed": false,
          "internalType": "uint256",
          "name": "ticketsCount",
          "type": "uint256"
        }
      ],
      "name": "CategoryTicketsAdded",
      "type": "event"
    },
    {
      "anonymous": false,
      "inputs": [
        {
          "indexed": false,
          "internalType": "uint256",
          "name": "eventId",
          "type": "uint256"
        },
        {
          "indexed": false,
          "internalType": "uint256",
          "name": "categoryId",
          "type": "uint256"
        },
        {
          "indexed": false,
          "internalType": "uint256",
          "name": "ticketsCount",
          "type": "uint256"
        }
      ],
      "name": "CategoryTicketsRemoved",
      "type": "event"
    },
    {
      "anonymous": false,
      "inputs": [
        {
          "indexed": false,
          "internalType": "uint256",
          "name": "eventId",
          "type": "uint256"
        },
        {
          "indexed": false,
          "internalType": "uint256",
          "name": "categoryId",
          "type": "uint256"
        }
      ],
      "name": "CategoryUpdated",
      "type": "event"
    },
    {
      "anonymous": false,
      "inputs": [
        {
          "indexed": true,
          "internalType": "uint256",
          "name": "fromTokenId",
          "type": "uint256"
        },
        {
          "indexed": false,
          "internalType": "uint256",
          "name": "toTokenId",
          "type": "uint256"
        },
        {
          "indexed": true,
          "internalType": "address",
          "name": "fromAddress",
          "type": "address"
        },
        {
          "indexed": true,
          "internalType": "address",
          "name": "toAddress",
          "type": "address"
        }
      ],
      "name": "ConsecutiveTransfer",
      "type": "event"
    },
    {
      "anonymous": false,
      "inputs": [
        {
          "indexed": false,
          "internalType": "uint256",
          "name": "eventId",
          "type": "uint256"
        },
        {
          "indexed": false,
          "internalType": "address",
          "name": "account",
          "type": "address"
        },
        {
          "indexed": false,
          "internalType": "address",
          "name": "setter",
          "type": "address"
        }
      ],
      "name": "EventCashierSet",
      "type": "event"
    },
    {
      "anonymous": false,
      "inputs": [
        {
          "indexed": false,
          "internalType": "uint256",
          "name": "eventId",
          "type": "uint256"
        },
        {
          "indexed": false,
          "internalType": "string",
          "name": "metadataUri",
          "type": "string"
        }
      ],
      "name": "EventCreated",
      "type": "event"
    },
    {
      "anonymous": false,
      "inputs": [
        {
          "indexed": false,
          "internalType": "uint256",
          "name": "_tokenId",
          "type": "uint256"
        }
      ],
      "name": "MetadataUpdate",
      "type": "event"
    },
    {
      "anonymous": false,
      "inputs": [
        {
          "indexed": false,
          "internalType": "uint256",
          "name": "eventId",
          "type": "uint256"
        },
        {
          "indexed": true,
          "internalType": "bytes32",
          "name": "role",
          "type": "bytes32"
        },
        {
          "indexed": true,
          "internalType": "bytes32",
          "name": "previousAdminRole",
          "type": "bytes32"
        },
        {
          "indexed": true,
          "internalType": "bytes32",
          "name": "newAdminRole",
          "type": "bytes32"
        }
      ],
      "name": "RoleAdminChanged",
      "type": "event"
    },
    {
      "anonymous": false,
      "inputs": [
        {
          "indexed": false,
          "internalType": "uint256",
          "name": "eventId",
          "type": "uint256"
        },
        {
          "indexed": true,
          "internalType": "bytes32",
          "name": "role",
          "type": "bytes32"
        },
        {
          "indexed": true,
          "internalType": "address",
          "name": "account",
          "type": "address"
        },
        {
          "indexed": true,
          "internalType": "address",
          "name": "sender",
          "type": "address"
        }
      ],
      "name": "RoleGranted",
      "type": "event"
    },
    {
      "anonymous": false,
      "inputs": [
        {
          "indexed": false,
          "internalType": "uint256",
          "name": "eventId",
          "type": "uint256"
        },
        {
          "indexed": true,
          "internalType": "bytes32",
          "name": "role",
          "type": "bytes32"
        },
        {
          "indexed": true,
          "internalType": "address",
          "name": "account",
          "type": "address"
        },
        {
          "indexed": true,
          "internalType": "address",
          "name": "sender",
          "type": "address"
        }
      ],
      "name": "RoleRevoked",
      "type": "event"
    },
    {
      "anonymous": false,
      "inputs": [
        {
          "indexed": false,
          "internalType": "uint256",
          "name": "eventId",
          "type": "uint256"
        },
        {
          "indexed": false,
          "internalType": "uint256",
          "name": "categoryId",
          "type": "uint256"
        },
        {
          "indexed": false,
          "internalType": "uint256",
          "name": "ticketId",
          "type": "uint256"
        },
        {
          "indexed": false,
          "internalType": "address",
          "name": "staffMember",
          "type": "address"
        }
      ],
      "name": "TicketClipped",
      "type": "event"
    },
    {
      "anonymous": false,
      "inputs": [
        {
          "indexed": false,
          "internalType": "uint256",
          "name": "eventId",
          "type": "uint256"
        },
        {
          "indexed": false,
          "internalType": "uint256",
          "name": "categoryId",
          "type": "uint256"
        },
        {
          "indexed": false,
          "internalType": "uint256",
          "name": "ticketCount",
          "type": "uint256"
        },
        {
          "indexed": false,
          "internalType": "address[]",
          "name": "accounts",
          "type": "address[]"
        },
        {
          "indexed": false,
          "internalType": "address",
          "name": "staffMember",
          "type": "address"
        }
      ],
      "name": "TicketsBooked",
      "type": "event"
    },
    {
      "anonymous": false,
      "inputs": [
        {
          "indexed": true,
          "internalType": "address",
          "name": "from",
          "type": "address"
        },
        {
          "indexed": true,
          "internalType": "address",
          "name": "to",
          "type": "address"
        },
        {
          "indexed": true,
          "internalType": "uint256",
          "name": "tokenId",
          "type": "uint256"
        }
      ],
      "name": "Transfer",
      "type": "event"
    },
    {
      "inputs": [],
      "name": "CASHIER_ROLE",
      "outputs": [
        {
          "internalType": "bytes32",
          "name": "",
          "type": "bytes32"
        }
      ],
      "stateMutability": "view",
      "type": "function"
    },
    {
      "inputs": [],
      "name": "DEFAULT_ADMIN_ROLE",
      "outputs": [
        {
          "internalType": "bytes32",
          "name": "",
          "type": "bytes32"
        }
      ],
      "stateMutability": "view",
      "type": "function"
    },
    {
      "inputs": [],
      "name": "MODERATOR_ROLE",
      "outputs": [
        {
          "internalType": "bytes32",
          "name": "",
          "type": "bytes32"
        }
      ],
      "stateMutability": "view",
      "type": "function"
    },
    {
      "inputs": [],
      "name": "RECEPTIONIST_ROLE",
      "outputs": [
        {
          "internalType": "bytes32",
          "name": "",
          "type": "bytes32"
        }
      ],
      "stateMutability": "view",
      "type": "function"
    },
    {
      "inputs": [],
      "name": "VALIDATOR_ROLE",
      "outputs": [
        {
          "internalType": "bytes32",
          "name": "",
          "type": "bytes32"
        }
      ],
      "stateMutability": "view",
      "type": "function"
    },
    {
      "inputs": [
        {
          "internalType": "uint256",
          "name": "_eventId",
          "type": "uint256"
        },
        {
          "internalType": "uint256",
          "name": "_categoryId",
          "type": "uint256"
        },
        {
          "internalType": "uint256",
          "name": "_ticketsCount",
          "type": "uint256"
        }
      ],
      "name": "addCategoryTicketsCount",
      "outputs": [],
      "stateMutability": "nonpayable",
      "type": "function"
    },
    {
      "inputs": [
        {
          "internalType": "uint256",
          "name": "_eventId",
          "type": "uint256"
        },
        {
          "internalType": "bytes32",
          "name": "_role",
          "type": "bytes32"
        },
        {
          "internalType": "address",
          "name": "_account",
          "type": "address"
        }
      ],
      "name": "addTeamMember",
      "outputs": [],
      "stateMutability": "nonpayable",
      "type": "function"
    },
    {
      "inputs": [
        {
          "internalType": "address",
          "name": "to",
          "type": "address"
        },
        {
          "internalType": "uint256",
          "name": "tokenId",
          "type": "uint256"
        }
      ],
      "name": "approve",
      "outputs": [],
      "stateMutability": "nonpayable",
      "type": "function"
    },
    {
      "inputs": [
        {
          "internalType": "address",
          "name": "owner",
          "type": "address"
        }
      ],
      "name": "balanceOf",
      "outputs": [
        {
          "internalType": "uint256",
          "name": "",
          "type": "uint256"
        }
      ],
      "stateMutability": "view",
      "type": "function"
    },
    {
      "inputs": [
        {
          "internalType": "uint256",
          "name": "_eventId",
          "type": "uint256"
        },
        {
          "internalType": "uint256",
          "name": "_categoryId",
          "type": "uint256"
        },
        {
          "internalType": "uint256",
          "name": "_ticketCount",
          "type": "uint256"
        },
        {
          "internalType": "address[]",
          "name": "_accounts",
          "type": "address[]"
        }
      ],
      "name": "bookTickets",
      "outputs": [],
      "stateMutability": "nonpayable",
      "type": "function"
    },
    {
      "inputs": [
        {
          "internalType": "uint256",
          "name": "_eventId",
          "type": "uint256"
        },
        {
          "internalType": "uint256",
          "name": "_categoryId",
          "type": "uint256"
        },
        {
          "internalType": "string",
          "name": "_ticketMetadataURI",
          "type": "string"
        },
        {
          "internalType": "uint256",
          "name": "amount",
          "type": "uint256"
        }
      ],
      "name": "buyTickets",
      "outputs": [],
      "stateMutability": "nonpayable",
      "type": "function"
    },
    {
      "inputs": [
        {
          "internalType": "uint256",
          "name": "_eventId",
          "type": "uint256"
        },
        {
          "internalType": "uint256",
          "name": "_categoryId",
          "type": "uint256"
        },
        {
          "internalType": "uint256",
          "name": "_ticketId",
          "type": "uint256"
        }
      ],
      "name": "clipTicket",
      "outputs": [],
      "stateMutability": "nonpayable",
      "type": "function"
    },
    {
      "inputs": [
        {
          "internalType": "uint256",
          "name": "_maxTicketsPerClient",
          "type": "uint256"
        },
        {
          "internalType": "uint64",
          "name": "_startDate",
          "type": "uint64"
        },
        {
          "internalType": "uint64",
          "name": "_endDate",
          "type": "uint64"
        },
        {
          "internalType": "string",
          "name": "_metadataURI",
          "type": "string"
        }
      ],
      "name": "createEvent",
      "outputs": [],
      "stateMutability": "nonpayable",
      "type": "function"
    },
    {
      "inputs": [
        {
          "internalType": "uint256",
          "name": "_eventId",
          "type": "uint256"
        },
        {
          "internalType": "string",
          "name": "_categoryCid",
          "type": "string"
        },
        {
          "internalType": "uint256",
          "name": "_saleStartDate",
          "type": "uint256"
        },
        {
          "internalType": "uint256",
          "name": "_saleEndDate",
          "type": "uint256"
        },
        {
          "internalType": "uint256",
          "name": "_ticketsCount",
          "type": "uint256"
        },
        {
          "internalType": "uint256",
          "name": "_ticketPrice",
          "type": "uint256"
        },
        {
          "internalType": "uint256[]",
          "name": "_discountsTicketsCount",
          "type": "uint256[]"
        },
        {
          "internalType": "uint256[]",
          "name": "_discountsPercentage",
          "type": "uint256[]"
        },
        {
          "components": [
            {
              "internalType": "uint256",
              "name": "price",
              "type": "uint256"
            },
            {
              "internalType": "uint256",
              "name": "finalAmountDate",
              "type": "uint256"
            }
          ],
          "internalType": "struct IEvent.DownPayment",
          "name": "_downPayment",
          "type": "tuple"
        }
      ],
      "name": "createTicketCategory",
      "outputs": [],
      "stateMutability": "nonpayable",
      "type": "function"
    },
    {
      "inputs": [
        {
          "internalType": "uint256",
          "name": "tokenId",
          "type": "uint256"
        }
      ],
      "name": "endTime",
      "outputs": [
        {
          "internalType": "uint64",
          "name": "",
          "type": "uint64"
        }
      ],
      "stateMutability": "view",
      "type": "function"
    },
    {
      "inputs": [],
      "name": "fetchAllEventIds",
      "outputs": [
        {
          "internalType": "uint256[]",
          "name": "",
          "type": "uint256[]"
        }
      ],
      "stateMutability": "view",
      "type": "function"
    },
    {
      "inputs": [],
      "name": "fetchAllEvents",
      "outputs": [
        {
          "components": [
            {
              "internalType": "address",
              "name": "organizer",
              "type": "address"
            },
            {
              "internalType": "uint256",
              "name": "maxTicketsPerClient",
              "type": "uint256"
            },
            {
              "internalType": "bool",
              "name": "areAllCategoryTicketsBuyable",
              "type": "bool"
            }
          ],
          "internalType": "struct IEvent.Event[]",
          "name": "",
          "type": "tuple[]"
        }
      ],
      "stateMutability": "view",
      "type": "function"
    },
    {
      "inputs": [
        {
          "internalType": "uint256",
          "name": "_eventId",
          "type": "uint256"
        }
      ],
      "name": "fetchCategoriesByEventId",
      "outputs": [
        {
          "components": [
            {
              "internalType": "uint256",
              "name": "id",
              "type": "uint256"
            },
            {
              "internalType": "string",
              "name": "cid",
              "type": "string"
            },
            {
              "internalType": "uint256[]",
              "name": "ticketIds",
              "type": "uint256[]"
            },
            {
              "internalType": "uint256",
              "name": "ticketPrice",
              "type": "uint256"
            },
            {
              "internalType": "uint256",
              "name": "ticketsCount",
              "type": "uint256"
            },
            {
              "internalType": "uint256",
              "name": "saleStartDate",
              "type": "uint256"
            },
            {
              "internalType": "uint256",
              "name": "saleEndDate",
              "type": "uint256"
            },
            {
              "internalType": "uint256",
              "name": "eventId",
              "type": "uint256"
            },
            {
              "internalType": "uint256[]",
              "name": "discountsTicketsCount",
              "type": "uint256[]"
            },
            {
              "internalType": "uint256[]",
              "name": "discountsPercentage",
              "type": "uint256[]"
            },
            {
              "components": [
                {
                  "internalType": "uint256",
                  "name": "price",
                  "type": "uint256"
                },
                {
                  "internalType": "uint256",
                  "name": "finalAmountDate",
                  "type": "uint256"
                }
              ],
              "internalType": "struct IEvent.DownPayment",
              "name": "downPayment",
              "type": "tuple"
            },
            {
              "internalType": "bool",
              "name": "areTicketsBuyable",
              "type": "bool"
            }
          ],
          "internalType": "struct IEvent.Category[]",
          "name": "",
          "type": "tuple[]"
        }
      ],
      "stateMutability": "view",
      "type": "function"
    },
    {
      "inputs": [
        {
          "internalType": "uint256",
          "name": "_eventId",
          "type": "uint256"
        }
      ],
      "name": "fetchEventById",
      "outputs": [
        {
          "components": [
            {
              "internalType": "address",
              "name": "organizer",
              "type": "address"
            },
            {
              "internalType": "uint256",
              "name": "maxTicketsPerClient",
              "type": "uint256"
            },
            {
              "internalType": "bool",
              "name": "areAllCategoryTicketsBuyable",
              "type": "bool"
            }
          ],
          "internalType": "struct IEvent.Event",
          "name": "eventObj",
          "type": "tuple"
        }
      ],
      "stateMutability": "view",
      "type": "function"
    },
    {
      "inputs": [],
      "name": "fetchOwnedEvents",
      "outputs": [
        {
          "internalType": "uint256[]",
          "name": "",
          "type": "uint256[]"
        }
      ],
      "stateMutability": "view",
      "type": "function"
    },
    {
      "inputs": [
        {
          "internalType": "uint256",
          "name": "tokenId",
          "type": "uint256"
        }
      ],
      "name": "getApproved",
      "outputs": [
        {
          "internalType": "address",
          "name": "",
          "type": "address"
        }
      ],
      "stateMutability": "view",
      "type": "function"
    },
    {
      "inputs": [
        {
          "internalType": "uint256",
          "name": "eventId",
          "type": "uint256"
        }
      ],
      "name": "getEventMembers",
      "outputs": [
        {
          "components": [
            {
              "internalType": "address",
              "name": "account",
              "type": "address"
            },
            {
              "internalType": "bytes32",
              "name": "role",
              "type": "bytes32"
            }
          ],
          "internalType": "struct RoleControl.MemberData[]",
          "name": "",
          "type": "tuple[]"
        }
      ],
      "stateMutability": "view",
      "type": "function"
    },
    {
      "inputs": [
        {
          "internalType": "uint256",
          "name": "eventId",
          "type": "uint256"
        },
        {
          "internalType": "bytes32",
          "name": "role",
          "type": "bytes32"
        }
      ],
      "name": "getRoleAdmin",
      "outputs": [
        {
          "internalType": "bytes32",
          "name": "",
          "type": "bytes32"
        }
      ],
      "stateMutability": "view",
      "type": "function"
    },
    {
      "inputs": [
        {
          "internalType": "uint256",
          "name": "eventId",
          "type": "uint256"
        },
        {
          "internalType": "bytes32",
          "name": "role",
          "type": "bytes32"
        },
        {
          "internalType": "address",
          "name": "account",
          "type": "address"
        }
      ],
      "name": "grantRole",
      "outputs": [],
      "stateMutability": "nonpayable",
      "type": "function"
    },
    {
      "inputs": [
        {
          "internalType": "uint256",
          "name": "eventId",
          "type": "uint256"
        },
        {
          "internalType": "bytes32",
          "name": "role",
          "type": "bytes32"
        },
        {
          "internalType": "address",
          "name": "account",
          "type": "address"
        }
      ],
      "name": "hasRole",
      "outputs": [
        {
          "internalType": "bool",
          "name": "",
          "type": "bool"
        }
      ],
      "stateMutability": "view",
      "type": "function"
    },
    {
      "inputs": [
        {
          "internalType": "address",
          "name": "owner",
          "type": "address"
        },
        {
          "internalType": "address",
          "name": "operator",
          "type": "address"
        }
      ],
      "name": "isApprovedForAll",
      "outputs": [
        {
          "internalType": "bool",
          "name": "",
          "type": "bool"
        }
      ],
      "stateMutability": "view",
      "type": "function"
    },
    {
      "inputs": [
        {
          "internalType": "uint256",
          "name": "_eventId",
          "type": "uint256"
        },
        {
          "internalType": "bool",
          "name": "_value",
          "type": "bool"
        }
      ],
      "name": "manageAllCategorySelling",
      "outputs": [],
      "stateMutability": "nonpayable",
      "type": "function"
    },
    {
      "inputs": [
        {
          "internalType": "uint256",
          "name": "_eventId",
          "type": "uint256"
        },
        {
          "internalType": "uint256",
          "name": "_categoryId",
          "type": "uint256"
        },
        {
          "internalType": "bool",
          "name": "_value",
          "type": "bool"
        }
      ],
      "name": "manageCategorySelling",
      "outputs": [],
      "stateMutability": "nonpayable",
      "type": "function"
    },
    {
      "inputs": [],
      "name": "name",
      "outputs": [
        {
          "internalType": "string",
          "name": "",
          "type": "string"
        }
      ],
      "stateMutability": "view",
      "type": "function"
    },
    {
      "inputs": [
        {
          "internalType": "uint256",
          "name": "tokenId",
          "type": "uint256"
        }
      ],
      "name": "ownerOf",
      "outputs": [
        {
          "internalType": "address",
          "name": "",
          "type": "address"
        }
      ],
      "stateMutability": "view",
      "type": "function"
    },
    {
      "inputs": [
        {
          "internalType": "uint256",
          "name": "_eventId",
          "type": "uint256"
        },
        {
          "internalType": "uint256",
          "name": "_categoryId",
          "type": "uint256"
        }
      ],
      "name": "removeCategory",
      "outputs": [],
      "stateMutability": "nonpayable",
      "type": "function"
    },
    {
      "inputs": [
        {
          "internalType": "uint256",
          "name": "_eventId",
          "type": "uint256"
        },
        {
          "internalType": "uint256",
          "name": "_categoryId",
          "type": "uint256"
        },
        {
          "internalType": "uint256",
          "name": "_ticketsCount",
          "type": "uint256"
        }
      ],
      "name": "removeCategoryTicketsCount",
      "outputs": [],
      "stateMutability": "nonpayable",
      "type": "function"
    },
    {
      "inputs": [
        {
          "internalType": "uint256",
          "name": "_eventId",
          "type": "uint256"
        }
      ],
      "name": "removeEvent",
      "outputs": [],
      "stateMutability": "nonpayable",
      "type": "function"
    },
    {
      "inputs": [
        {
          "internalType": "uint256",
          "name": "_eventId",
          "type": "uint256"
        },
        {
          "internalType": "bytes32",
          "name": "_role",
          "type": "bytes32"
        },
        {
          "internalType": "address",
          "name": "_account",
          "type": "address"
        }
      ],
      "name": "removeTeamMember",
      "outputs": [],
      "stateMutability": "nonpayable",
      "type": "function"
    },
    {
      "inputs": [
        {
          "internalType": "uint256",
          "name": "eventId",
          "type": "uint256"
        },
        {
          "internalType": "bytes32",
          "name": "role",
          "type": "bytes32"
        },
        {
          "internalType": "address",
          "name": "account",
          "type": "address"
        }
      ],
      "name": "renounceRole",
      "outputs": [],
      "stateMutability": "nonpayable",
      "type": "function"
    },
    {
      "inputs": [
        {
          "internalType": "uint256",
          "name": "eventId",
          "type": "uint256"
        },
        {
          "internalType": "bytes32",
          "name": "role",
          "type": "bytes32"
        },
        {
          "internalType": "address",
          "name": "account",
          "type": "address"
        }
      ],
      "name": "revokeRole",
      "outputs": [],
      "stateMutability": "nonpayable",
      "type": "function"
    },
    {
      "inputs": [
        {
          "internalType": "address",
          "name": "from",
          "type": "address"
        },
        {
          "internalType": "address",
          "name": "to",
          "type": "address"
        },
        {
          "internalType": "uint256",
          "name": "tokenId",
          "type": "uint256"
        }
      ],
      "name": "safeTransferFrom",
      "outputs": [],
      "stateMutability": "nonpayable",
      "type": "function"
    },
    {
      "inputs": [
        {
          "internalType": "address",
          "name": "from",
          "type": "address"
        },
        {
          "internalType": "address",
          "name": "to",
          "type": "address"
        },
        {
          "internalType": "uint256",
          "name": "tokenId",
          "type": "uint256"
        },
        {
          "internalType": "bytes",
          "name": "data",
          "type": "bytes"
        }
      ],
      "name": "safeTransferFrom",
      "outputs": [],
      "stateMutability": "nonpayable",
      "type": "function"
    },
    {
      "inputs": [
        {
          "internalType": "address",
          "name": "operator",
          "type": "address"
        },
        {
          "internalType": "bool",
          "name": "approved",
          "type": "bool"
        }
      ],
      "name": "setApprovalForAll",
      "outputs": [],
      "stateMutability": "nonpayable",
      "type": "function"
    },
    {
      "inputs": [
        {
          "internalType": "uint256",
          "name": "_eventId",
          "type": "uint256"
        },
        {
          "internalType": "address",
          "name": "_account",
          "type": "address"
        }
      ],
      "name": "setEventCashier",
      "outputs": [],
      "stateMutability": "nonpayable",
      "type": "function"
    },
    {
      "inputs": [
        {
          "internalType": "uint256",
          "name": "tokenId",
          "type": "uint256"
        }
      ],
      "name": "startTime",
      "outputs": [
        {
          "internalType": "uint64",
          "name": "",
          "type": "uint64"
        }
      ],
      "stateMutability": "view",
      "type": "function"
    },
    {
      "inputs": [
        {
          "internalType": "bytes4",
          "name": "interfaceId",
          "type": "bytes4"
        }
      ],
      "name": "supportsInterface",
      "outputs": [
        {
          "internalType": "bool",
          "name": "",
          "type": "bool"
        }
      ],
      "stateMutability": "view",
      "type": "function"
    },
    {
      "inputs": [],
      "name": "symbol",
      "outputs": [
        {
          "internalType": "string",
          "name": "",
          "type": "string"
        }
      ],
      "stateMutability": "view",
      "type": "function"
    },
    {
      "inputs": [
        {
          "internalType": "uint256",
          "name": "tokenId",
          "type": "uint256"
        }
      ],
      "name": "tokenURI",
      "outputs": [
        {
          "internalType": "string",
          "name": "",
          "type": "string"
        }
      ],
      "stateMutability": "view",
      "type": "function"
    },
    {
      "inputs": [
        {
          "internalType": "address",
          "name": "from",
          "type": "address"
        },
        {
          "internalType": "address",
          "name": "to",
          "type": "address"
        },
        {
          "internalType": "uint256",
          "name": "tokenId",
          "type": "uint256"
        }
      ],
      "name": "transferFrom",
      "outputs": [],
      "stateMutability": "nonpayable",
      "type": "function"
    },
    {
      "inputs": [
        {
          "internalType": "uint256",
          "name": "_eventId",
          "type": "uint256"
        },
        {
          "internalType": "uint256",
          "name": "_categoryId",
          "type": "uint256"
        },
        {
          "internalType": "string",
          "name": "_categoryCid",
          "type": "string"
        },
        {
          "internalType": "uint256",
          "name": "_ticketPrice",
          "type": "uint256"
        },
        {
          "internalType": "uint256[]",
          "name": "_discountsTicketsCount",
          "type": "uint256[]"
        },
        {
          "internalType": "uint256[]",
          "name": "_discountsPercentage",
          "type": "uint256[]"
        },
        {
          "components": [
            {
              "internalType": "uint256",
              "name": "price",
              "type": "uint256"
            },
            {
              "internalType": "uint256",
              "name": "finalAmountDate",
              "type": "uint256"
            }
          ],
          "internalType": "struct IEvent.DownPayment",
          "name": "_downPayment",
          "type": "tuple"
        }
      ],
      "name": "updateCategory",
      "outputs": [],
      "stateMutability": "nonpayable",
      "type": "function"
    },
    {
      "inputs": [
        {
          "internalType": "uint256",
          "name": "_eventId",
          "type": "uint256"
        },
        {
          "internalType": "uint256",
          "name": "_categoryId",
          "type": "uint256"
        },
        {
          "internalType": "uint256",
          "name": "_saleStartDate",
          "type": "uint256"
        },
        {
          "internalType": "uint256",
          "name": "_saleEndDate",
          "type": "uint256"
        }
      ],
      "name": "updateCategorySaleDates",
      "outputs": [],
      "stateMutability": "nonpayable",
      "type": "function"
    },
    {
      "inputs": [
        {
          "internalType": "uint256",
          "name": "_eventId",
          "type": "uint256"
        },
        {
          "internalType": "string",
          "name": "_newMetadataURI",
          "type": "string"
        }
      ],
      "name": "updateEventTokenUri",
      "outputs": [],
      "stateMutability": "nonpayable",
      "type": "function"
    }
  ],
  "bytecode": "0x608060405234801561001057600080fd5b5060016011556150a1806100256000396000f3fe608060405234801561001057600080fd5b50600436106102305760003560e01c806301ffc9a7146102355780630309a5391461025e57806306a5bcd21461027357806306fdde0314610286578063081812fc1461029b578063095ea7b3146102c65780630d517286146102d95780630e1b943d146102f9578063119345aa146103195780631c6f92711461032c5780631cdf29c71461033f5780632053d82c1461035257806323b872dd146103655780632761f33b146103785780633660ff831461038b578063397d4dbc146103a05780633d378bb0146103c15780633ec4c968146103d457806342842e0e146103ff57806344c816fa146104125780634a120dd714610425578063558e39c41461043857806356164e1e1461044b5780635ba161381461045e5780636352211e146104735780636a4bc7de1461048657806370a0823114610499578063724bdedf146104ac578063797669c9146104bf578063959a1b58146104d457806395d89b41146104e7578063a217fddf146104ef578063a22cb465146104f7578063a310d9bf1461050a578063a3bdc7c71461051d578063a3cfe1601461053d578063abae6af914610550578063b015554414610565578063b7fd968414610578578063b88d4fde1461058d578063c49baebe146105a0578063c87b56dd146105c7578063d5533da0146105da578063e985e9c5146105ed578063f354159b14610600578063f99c229214610613578063fb42204d1461061b578063fc3291a61461062e575b600080fd5b610249610243366004613de3565b50600090565b60405190151581526020015b60405180910390f35b61027161026c366004613e15565b610641565b005b610271610281366004613e9e565b610715565b61028e61082d565b6040516102559190613fb7565b6102ae6102a9366004613fca565b6108c1565b6040516001600160a01b039091168152602001610255565b6102716102d4366004613fe3565b6108e8565b6102ec6102e7366004613fca565b6109fd565b6040516102559190614031565b61030c610307366004613fca565b610a73565b604051610255919061403f565b610249610327366004614097565b610afb565b61027161033a3660046140cc565b610b2d565b61027161034d3660046140fe565b610c58565b610271610360366004614198565b610d07565b6102716103733660046141de565b610dae565b610271610386366004614277565b610ddf565b610393610f9f565b6040516102559190614339565b6103b36103ae366004614387565b611102565b604051908152602001610255565b6102716103cf366004614387565b611126565b6103e76103e2366004613fca565b61147b565b6040516001600160401b039091168152602001610255565b61027161040d3660046141de565b6114be565b6103e7610420366004613fca565b6114d9565b610271610433366004614097565b611523565b6102716104463660046143a9565b61154a565b610271610459366004613fca565b61167c565b6103b360008051602061500c83398151915281565b6102ae610481366004613fca565b611932565b610271610494366004614097565b611967565b6103b36104a73660046143d5565b611a23565b6102716104ba366004614097565b611aa9565b6103b360008051602061502c83398151915281565b6102716104e2366004614431565b611b22565b61028e611eda565b6103b3600081565b61027161050536600461451b565b611eec565b610271610518366004614545565b611efb565b61053061052b366004613fca565b61202a565b60405161025591906145ac565b61027161054b3660046146f7565b61238e565b6105586124a1565b604051610255919061475e565b610271610573366004614097565b6125ec565b6103b3600080516020614fec83398151915281565b61027161059b366004614771565b6126a2565b6103b37f21702c8af46127c7fa207f89d0b0a8441bb32959a0ac7df790e9ab1a25c9892681565b61028e6105d5366004613fca565b6126d4565b6102716105e83660046143a9565b612814565b6102496105fb3660046147e0565b61293d565b61027161060e3660046143a9565b61296b565b610558612b9c565b610271610629366004614097565b612ca1565b61027161063c36600461480a565b612cc1565b8161064b81612e75565b6106705760405162461bcd60e51b815260040161066790614861565b60405180910390fd5b61067c83600033610afb565b8061069b575061069b8360008051602061502c83398151915233610afb565b6106b75760405162461bcd60e51b815260040161066790614897565b600083815260096020908152604091829020600201805460ff19168515159081179091558251868152918201527f578eeefe0b8083fcd939e8d547da4c0ba6b26ed213c13de65ab08a52f9f26a5291015b60405180910390a1505050565b8361071f81612e75565b61073b5760405162461bcd60e51b815260040161066790614861565b6000848152600a60205260408120548591036107695760405162461bcd60e51b8152600401610667906148e1565b6000858152600a602052604090206007015486908690821461079d5760405162461bcd60e51b815260040161066790614918565b6107a988600033610afb565b806107c857506107c88860008051602061502c83398151915233610afb565b6107e45760405162461bcd60e51b815260040161066790614897565b7f5f183d9cf5454d6fc91379ef5dce8b6a4543ec2c03a1d6376579c9a6949b2cb3888888883360405161081b959493929190614961565b60405180910390a15050505050505050565b606060008001805461083e906149db565b80601f016020809104026020016040519081016040528092919081815260200182805461086a906149db565b80156108b75780601f1061088c576101008083540402835291602001916108b7565b820191906000526020600020905b81548152906001019060200180831161089a57829003601f168201915b5050505050905090565b60006108cc82612e92565b506000908152600460205260409020546001600160a01b031690565b60006108f382611932565b9050806001600160a01b0316836001600160a01b0316036109605760405162461bcd60e51b815260206004820152602160248201527f4552433732313a20617070726f76616c20746f2063757272656e74206f776e656044820152603960f91b6064820152608401610667565b336001600160a01b038216148061097c575061097c813361293d565b6109ee5760405162461bcd60e51b815260206004820152603e60248201527f4552433732313a20617070726f76652063616c6c6572206973206e6f7420746f60448201527f6b656e206f776e6572206e6f7220617070726f76656420666f7220616c6c00006064820152608401610667565b6109f88383612eba565b505050565b610a05613c3e565b81610a0f81612e75565b610a2b5760405162461bcd60e51b815260040161066790614861565b5050600090815260096020908152604091829020825160608101845281546001600160a01b031681526001820154928101929092526002015460ff1615159181019190915290565b6060600f6000838152602001908152602001600020805480602002602001604051908101604052809291908181526020016000905b82821015610af0576000848152602090819020604080518082019091526002850290910180546001600160a01b03168252600190810154828401529083529092019101610aa8565b505050509050919050565b6000928352600e602090815260408085209385529281528284206001600160a01b039290921684525290205460ff1690565b83610b3781612e75565b610b535760405162461bcd60e51b815260040161066790614861565b6000848152600a6020526040812054859103610b815760405162461bcd60e51b8152600401610667906148e1565b6000858152600a6020526040902060070154869086908214610bb55760405162461bcd60e51b815260040161066790614918565b610bc188600033610afb565b80610be05750610be08860008051602061502c83398151915233610afb565b610bfc5760405162461bcd60e51b815260040161066790614897565b6000878152600a60209081526040918290206005810189905560060187905581518a815290810189905233918101919091527f4192182acd964db32b1197a6483d5694cf6e678e7202565c44cc961078eb2c8f9060600161081b565b81610c6281612e75565b610c7e5760405162461bcd60e51b815260040161066790614861565b610c8a83600033610afb565b610ca65760405162461bcd60e51b815260040161066790614a0f565b610cbf83600080516020614fec83398151915284612ca1565b604080518481526001600160a01b038416602082015233918101919091527f9f54db3c6775e8717da6972b09a7ed552d62f5fd63696a1a75e58f61bd24019390606001610708565b81610d1181612e75565b610d2d5760405162461bcd60e51b815260040161066790614861565b610d3983600033610afb565b80610d585750610d588360008051602061502c83398151915233610afb565b610d745760405162461bcd60e51b815260040161066790614897565b610d7e8383612f28565b6040518381527ff8e1a15aba9398e019f0b49df1a4fde98ee17ae345cb5f6b5e2c27f5033e8ce790602001610708565b610db83382612fac565b610dd45760405162461bcd60e51b815260040161066790614a46565b6109f883838361300a565b88610de981612e75565b610e055760405162461bcd60e51b815260040161066790614861565b6000898152600a60205260408120548a9103610e335760405162461bcd60e51b8152600401610667906148e1565b60008a8152600a60205260409020600701548b908b908214610e675760405162461bcd60e51b815260040161066790614918565b610e738d600033610afb565b80610e925750610e928d60008051602061502c83398151915233610afb565b610eae5760405162461bcd60e51b815260040161066790614897565b878614610ecd5760405162461bcd60e51b815260040161066790614a94565b60008c8152600a60205260409020600101610ee88c82614b3f565b5060008c8152600a60205260409020600381018b9055610f0c906008018a8a613c5e565b5060008c8152600a60205260409020610f29906009018888613c5e565b5060008c8152600a60208190526040909120869101610f55828281358155602082013560018201555050565b5050604080518e8152602081018e90527f44df894581249b9c6cda25b6fe8239320be1641adde53f17479b4153cadfcc60910160405180910390a150505050505050505050505050565b60606000610fac60075490565b905060008060015b838111610ff8576000818152600960205260409020546001600160a01b031615610fe65782610fe281614c0e565b9350505b80610ff081614c0e565b915050610fb4565b506000826001600160401b0381111561101357611013613e41565b60405190808252806020026020018201604052801561104c57816020015b611039613c3e565b8152602001906001900390816110315790505b50905060015b8481116110f9576000818152600960205260409020546001600160a01b0316156110e757600081815260096020908152604091829020825160608101845281546001600160a01b031681526001820154928101929092526002015460ff1615159181019190915282518390859081106110cd576110cd614c27565b602002602001018190525082806110e390614c0e565b9350505b806110f181614c0e565b915050611052565b50949350505050565b6000828152600e602090815260408083208484529091529020600101545b92915050565b8161113081612e75565b61114c5760405162461bcd60e51b815260040161066790614861565b6000828152600a602052604081205483910361117a5760405162461bcd60e51b8152600401610667906148e1565b6000838152600a60205260409020600701548490849082146111ae5760405162461bcd60e51b815260040161066790614918565b6111ba86600033610afb565b806111d957506111d98660008051602061502c83398151915233610afb565b6111f55760405162461bcd60e51b815260040161066790614897565b6000858152600a6020526040902060020154156112685760405162461bcd60e51b815260206004820152602b60248201527f4576656e743a2054686572652061726520626f75676874207469636b6574732060448201526a696e2063617465676f727960a81b6064820152608401610667565b6000858152600a60205260408120818155906112876001830182613ca9565b611295600283016000613ce3565b600382016000905560048201600090556005820160009055600682016000905560078201600090556008820160006112cd9190613ce3565b6112db600983016000613ce3565b506000600a8201819055600b808301829055600c909201805460ff1916905587815260209182526040808220805482518186028101860190935280835292939192909183018282801561134d57602002820191906000526020600020905b815481526020019060010190808311611339575b5050505050905060005b8151811015611437578682828151811061137357611373614c27565b602002602001015103611425576000888152600b60205260409020825161139c90600190614c3d565b815481106113ac576113ac614c27565b90600052602060002001546000600b0160008a815260200190815260200160002082815481106113de576113de614c27565b6000918252602080832090910192909255898152600b9091526040902080548061140a5761140a614c50565b60019003818190600052602060002001600090559055611437565b8061142f81614c0e565b915050611357565b5060408051888152602081018890527ff67e86d3ffc2c26729aac7f4e3e07e009ad076ace7cd9e9fc184fd452ac0cc8591015b60405180910390a150505050505050565b600061148682612e75565b6114a25760405162461bcd60e51b815260040161066790614c66565b506000908152600c60205260409020546001600160401b031690565b6109f8838383604051806020016040528060008152506126a2565b60006114e482612e75565b6115005760405162461bcd60e51b815260040161066790614c66565b506000908152600c6020526040902054600160401b90046001600160401b031690565b8261152e8484611102565b6115388282613194565b61154385858561319f565b5050505050565b8261155481612e75565b6115705760405162461bcd60e51b815260040161066790614861565b6000838152600a602052604081205484910361159e5760405162461bcd60e51b8152600401610667906148e1565b6000848152600a60205260409020600701548590859082146115d25760405162461bcd60e51b815260040161066790614918565b6115de87600033610afb565b806115fd57506115fd8760008051602061502c83398151915233610afb565b8061161c575061161c8760008051602061500c83398151915233610afb565b6116385760405162461bcd60e51b815260040161066790614897565b60408051888152602081018890529081018690523360608201527f2dcc6bceb950de206af8457a1b2083cbb47b6b70918a66be78ab4d128fee79f09060800161146a565b8061168681612e75565b6116a25760405162461bcd60e51b815260040161066790614861565b6116ae82600033610afb565b6116ca5760405162461bcd60e51b815260040161066790614a0f565b6000828152600b602090815260408083208054825181850281018501909352808352919290919083018282801561172057602002820191906000526020600020905b81548152602001906001019080831161170c575b505050505090506000805b8251811015611791576000600a01600084838151811061174d5761174d614c27565b602002602001015181526020019081526020016000206002018054905060000361177f578161177b81614c0e565b9250505b8061178981614c0e565b91505061172b565b50808251146117f25760405162461bcd60e51b815260206004820152602760248201527f4576656e743a204576656e74206d757374206e6f74206861766520736f6c64206044820152667469636b65747360c81b6064820152608401610667565b6117fb84613260565b600084815260096020908152604080832080546001600160a01b031916815560018101849055600201805460ff19169055600b909152812061183c91613ce3565b60005b8251811015611910576000600a01600084838151811061186157611861614c27565b602002602001015181526020019081526020016000206000808201600090556001820160006118909190613ca9565b61189e600283016000613ce3565b600382016000905560048201600090556005820160009055600682016000905560078201600090556008820160006118d69190613ce3565b6118e4600983016000613ce3565b506000600a8201819055600b820155600c01805460ff191690558061190881614c0e565b91505061183f565b505050600091825250600c6020526040902080546001600160801b0319169055565b6000818152600260205260408120546001600160a01b0316806111205760405162461bcd60e51b815260040161066790614c98565b8261197181612e75565b61198d5760405162461bcd60e51b815260040161066790614861565b61199984600033610afb565b6119b55760405162461bcd60e51b815260040161066790614a0f565b600080516020614fec8339815191528303611a125760405162461bcd60e51b815260206004820152601d60248201527f4576656e743a2043616e277420736574206361736869657220686572650000006044820152606401610667565b611a1d848484612ca1565b50505050565b60006001600160a01b038216611a8d5760405162461bcd60e51b815260206004820152602960248201527f4552433732313a2061646472657373207a65726f206973206e6f7420612076616044820152683634b21037bbb732b960b91b6064820152608401610667565b506001600160a01b031660009081526003602052604090205490565b6001600160a01b0381163314611b175760405162461bcd60e51b815260206004820152602d60248201527f526f6c65436f6e74726f6c3a2063616e206f6e6c792072656e6f756e6365207260448201526c37b632b9903337b91039b2b63360991b6064820152608401610667565b6109f883838361319f565b8b611b2c81612e75565b611b485760405162461bcd60e51b815260040161066790614861565b611b548d600033610afb565b80611b735750611b738d60008051602061502c83398151915233610afb565b611b8f5760405162461bcd60e51b815260040161066790614897565b848314611bae5760405162461bcd60e51b815260040161066790614a94565b611bbc600880546001019055565b6000611bc760085490565b6000818152600a60205260409020818155909150600101611be98d8f83614cca565b506040805160008082526020808301808552858352600a9091529290209051611c189260029092019190613d01565b506000818152600a60205260409020600481018a9055600781018f905560038101899055611c4a906008018888613c5e565b506000818152600a60205260409020611c67906009018686613c5e565b506000818152600a60208190526040909120849101611c93828281358155602082013560018201555050565b50508a158015611ca1575089155b15611cd2576000818152600a60205260409020600581018c9055600681018b9055600c01805460ff19169055611e50565b8a600003611cf4576000818152600a6020526040902042600590910155611d80565b60008e8152600c60205260409020546001600160401b03168b1015611d6b5760405162461bcd60e51b815260206004820152602760248201527f4576656e743a2043617465676f7279207374617274206461746520697320696e60448201526618dbdc9c9958dd60ca1b6064820152608401610667565b6000818152600a602052604090206005018b90555b89600003611da2576000818152600a6020526040902042600690910155611e33565b60008e8152600c6020526040902054600160401b90046001600160401b03168a1115611e1e5760405162461bcd60e51b815260206004820152602560248201527f4576656e743a2043617465676f727920656e64206461746520697320696e636f6044820152641c9c9958dd60da1b6064820152608401610667565b6000818152600a602052604090206006018a90555b6000818152600a60205260409020600c01805460ff191660011790555b6000600b0160008f81526020019081526020016000208190806001815401808255809150506001900390600052602060002001600090919091909150557f2a94cd6b8e4219d087c43453e983d276c11f9ba16e547f01adb19edb60ae3c7d8e828f8f604051611ec29493929190614d83565b60405180910390a15050505050505050505050505050565b60606000600101805461083e906149db565b611ef733838361331c565b5050565b82611f0581612e75565b611f215760405162461bcd60e51b815260040161066790614861565b6000838152600a6020526040812054849103611f4f5760405162461bcd60e51b8152600401610667906148e1565b6000848152600a6020526040902060070154859085908214611f835760405162461bcd60e51b815260040161066790614918565b611f8f87600033610afb565b80611fae5750611fae8760008051602061502c83398151915233610afb565b611fca5760405162461bcd60e51b815260040161066790614897565b6000868152600a6020908152604091829020600c01805460ff191688151590811790915582518a8152918201899052918101919091527f15fa4fe87d07b2a02e02cc0fac2981a3fd8653661340b9b26feae8ffefaade8a9060600161146a565b60608161203681612e75565b6120525760405162461bcd60e51b815260040161066790614861565b6000838152600b60209081526040808320805482518185028101850190935280835291929091908301828280156120a857602002820191906000526020600020905b815481526020019060010190808311612094575b50505050509050600081516001600160401b038111156120ca576120ca613e41565b60405190808252806020026020018201604052801561210357816020015b6120f0613d3c565b8152602001906001900390816120e85790505b50905060005b8251811015612383576000600a01600084838151811061212b5761212b614c27565b602002602001015181526020019081526020016000206040518061018001604052908160008201548152602001600182018054612167906149db565b80601f0160208091040260200160405190810160405280929190818152602001828054612193906149db565b80156121e05780601f106121b5576101008083540402835291602001916121e0565b820191906000526020600020905b8154815290600101906020018083116121c357829003601f168201915b505050505081526020016002820180548060200260200160405190810160405280929190818152602001828054801561223857602002820191906000526020600020905b815481526020019060010190808311612224575b505050505081526020016003820154815260200160048201548152602001600582015481526020016006820154815260200160078201548152602001600882018054806020026020016040519081016040528092919081815260200182805480156122c257602002820191906000526020600020905b8154815260200190600101908083116122ae575b505050505081526020016009820180548060200260200160405190810160405280929190818152602001828054801561231a57602002820191906000526020600020905b815481526020019060010190808311612306575b5050509183525050604080518082018252600a8401548152600b840154602082810191909152830152600c9092015460ff161515910152825183908390811061236557612365614c27565b6020026020010181905250808061237b90614c0e565b915050612109565b509250505b50919050565b6002601154036123e05760405162461bcd60e51b815260206004820152601f60248201527f5265656e7472616e637947756172643a207265656e7472616e742063616c6c006044820152606401610667565b60026011556123f3600780546001019055565b60006123fe60075490565b6000818152600960205260409081902080546001600160a01b03191633178155600180820189905560028201805460ff191690911790559051919250907f9ce3d6db707bca4ba0eabed8fba1e2c013a1c0bc1132a764170a7854d198c73d9061246a9084908690614dc0565b60405180910390a161247e826000336133e6565b61248a338387876133f1565b6124948284612f28565b5050600160115550505050565b606060006124ae60075490565b905060008060015b83811161251d576124c981600033610afb565b806124e857506124e88160008051602061502c83398151915233610afb565b80156124f857506124f881612e75565b1561250b578261250781614c0e565b9350505b8061251581614c0e565b9150506124b6565b506000826001600160401b0381111561253857612538613e41565b604051908082528060200260200182016040528015612561578160200160208202803683370190505b50905060015b8481116110f95761257a81600033610afb565b8061259957506125998160008051602061502c83398151915233610afb565b80156125a957506125a981612e75565b156125da57808284815181106125c1576125c1614c27565b6020908102919091010152826125d681614c0e565b9350505b806125e481614c0e565b915050612567565b826125f681612e75565b6126125760405162461bcd60e51b815260040161066790614861565b61261e84600033610afb565b61263a5760405162461bcd60e51b815260040161066790614a0f565b600080516020614fec83398151915283036126975760405162461bcd60e51b815260206004820181905260248201527f4576656e743a2043616e27742072656d6f7665206361736869657220686572656044820152606401610667565b611a1d848484611523565b6126ac3383612fac565b6126c85760405162461bcd60e51b815260040161066790614a46565b611a1d84848484613494565b60606126df82612e92565b600082815260066020526040812080546126f8906149db565b80601f0160208091040260200160405190810160405280929190818152602001828054612724906149db565b80156127715780601f1061274657610100808354040283529160200191612771565b820191906000526020600020905b81548152906001019060200180831161275457829003601f168201915b50505050509050600061278f60408051602081019091526000815290565b905080516000036127a1575092915050565b8151156127d35780826040516020016127bb929190614dd9565b60405160208183030381529060405292505050919050565b60008151116127f1576040518060200160405280600081525061280c565b806127fb856134c7565b6040516020016127bb929190614dd9565b949350505050565b8261281e81612e75565b61283a5760405162461bcd60e51b815260040161066790614861565b6000838152600a60205260408120548491036128685760405162461bcd60e51b8152600401610667906148e1565b6000848152600a602052604090206007015485908590821461289c5760405162461bcd60e51b815260040161066790614918565b6128a887600033610afb565b806128c757506128c78760008051602061502c83398151915233610afb565b6128e35760405162461bcd60e51b815260040161066790614897565b6000868152600a602052604081206004018054879290612904908490614e08565b90915550506040517f3a50fbe2fa0bdf2022fcd8fe2132970519fcf4df5cf97d78e86c510eb0805b6a9061146a90899089908990614e1b565b6001600160a01b03918216600090815260056020908152604080832093909416825291909152205460ff1690565b8261297581612e75565b6129915760405162461bcd60e51b815260040161066790614861565b6000838152600a60205260408120548491036129bf5760405162461bcd60e51b8152600401610667906148e1565b6000848152600a60205260409020600701548590859082146129f35760405162461bcd60e51b815260040161066790614918565b6129ff87600033610afb565b80612a1e5750612a1e8760008051602061502c83398151915233610afb565b612a3a5760405162461bcd60e51b815260040161066790614897565b6000868152600a6020526040902060040154851115612aa75760405162461bcd60e51b815260206004820152602360248201527f4576656e743a20446563726561736564207469636b6574732062656c6f77207a60448201526265726f60e81b6064820152608401610667565b6000868152600a6020526040902060040154612ac4908690614c3d565b6000878152600a60205260409020600201541115612b425760405162461bcd60e51b815260206004820152603560248201527f4576656e743a205469636b65747320616d6f756e742063616e2774206265206c604482015274657373207468616e20736f6c64207469636b65747360581b6064820152608401610667565b6000868152600a602052604081206004018054879290612b63908490614c3d565b90915550506040517fb39ecd9af22a3fec10ec63455a79d572fdcfadf6a9005d5cd232b2829f958c709061146a90899089908990614e1b565b60606000612ba960075490565b905060008060015b838111612bf5576000818152600960205260409020546001600160a01b031615612be35782612bdf81614c0e565b9350505b80612bed81614c0e565b915050612bb1565b506000826001600160401b03811115612c1057612c10613e41565b604051908082528060200260200182016040528015612c39578160200160208202803683370190505b50905060015b8481116110f9576000818152600960205260409020546001600160a01b031615612c8f5780828481518110612c7657612c76614c27565b602090810291909101015282612c8b81614c0e565b9350505b80612c9981614c0e565b915050612c3f565b82612cac8484611102565b612cb68282613194565b6115438585856135c7565b83612ccb81612e75565b612ce75760405162461bcd60e51b815260040161066790614861565b60008581526009602052604090206002015460ff161515600114612d675760405162461bcd60e51b815260206004820152603160248201527f4576656e743a205469636b65747320666f7220616c6c2063617465676f7269656044820152707320617265206e6f742062757961626c6560781b6064820152608401610667565b6000848152600a60205260409020600c015460ff161515600114612de65760405162461bcd60e51b815260206004820152603060248201527f4576656e743a205469636b65747320666f7220746869732063617465676f727960448201526f20617265206e6f742062757961626c6560801b6064820152608401610667565b6000848152600a60205260409020600501544211801590612e1857506000848152600a60205260409020600601544210155b6115435760405162461bcd60e51b815260206004820152602860248201527f4576656e743a2053656c6c20706572696f64206e6f742072656163686564206f6044820152671c881c185cdcd95960c21b6064820152608401610667565b6000908152600260205260409020546001600160a01b0316151590565b612e9b81612e75565b612eb75760405162461bcd60e51b815260040161066790614c98565b50565b600081815260046020526040902080546001600160a01b0319166001600160a01b0384169081179091558190612eef82611932565b6001600160a01b03167f8c5be1e5ebec7d5bd14f71427d1e84f3dd0314c0f7b2291e5b200ac8c7c3b92560405160405180910390a45050565b612f3182612e75565b612f945760405162461bcd60e51b815260206004820152602e60248201527f45524337323155524953746f726167653a2055524920736574206f66206e6f6e60448201526d32bc34b9ba32b73a103a37b5b2b760911b6064820152608401610667565b60008281526006602052604090206109f88282614b3f565b600080612fb883611932565b9050806001600160a01b0316846001600160a01b03161480612fdf5750612fdf818561293d565b8061280c5750836001600160a01b0316612ff8846108c1565b6001600160a01b031614949350505050565b826001600160a01b031661301d82611932565b6001600160a01b0316146130815760405162461bcd60e51b815260206004820152602560248201527f4552433732313a207472616e736665722066726f6d20696e636f72726563742060448201526437bbb732b960d91b6064820152608401610667565b6001600160a01b0382166130e35760405162461bcd60e51b8152602060048201526024808201527f4552433732313a207472616e7366657220746f20746865207a65726f206164646044820152637265737360e01b6064820152608401610667565b6130ee600082612eba565b6001600160a01b0383166000908152600360205260408120805460019290613117908490614c3d565b90915550506001600160a01b0382166000908152600360205260408120805460019290613145908490614e08565b909155505060008181526002602052604080822080546001600160a01b0319166001600160a01b03868116918217909255915184939187169160008051602061504c83398151915291a4505050565b611ef78282336136cb565b6131aa838383610afb565b156109f8576000838152600e6020908152604080832085845282528083206001600160a01b03851684528252808320805460ff1916905560109091529020546131f3848261372f565b6001600160a01b038216600090815260106020526040812055336001600160a01b0316826001600160a01b0316847f7b00293d63517946aeba2f56c6b4c5dec87b67393ac48520994d3d8ce776335a8760405161325291815260200190565b60405180910390a450505050565b600061326b82611932565b9050613278600083612eba565b6001600160a01b03811660009081526003602052604081208054600192906132a1908490614c3d565b909155505060008281526002602052604080822080546001600160a01b0319169055518391906001600160a01b0384169060008051602061504c833981519152908390a4600082815260066020526040902080546132fe906149db565b159050611ef7576000828152600660205260408120611ef791613ca9565b816001600160a01b0316836001600160a01b0316036133795760405162461bcd60e51b815260206004820152601960248201527822a9219b99189d1030b8383937bb32903a379031b0b63632b960391b6044820152606401610667565b6001600160a01b03838116600081815260056020908152604080832094871680845294825291829020805460ff191686151590811790915591519182527f17307eab39ab6107e8899845ad3d59bd9653f200f220920489ca2b5937696c31910160405180910390a3505050565b6109f88383836135c7565b816001600160401b0316816001600160401b0316101561344e5760405162461bcd60e51b8152602060048201526018602482015277455243353030373a20496e76616c696420656e6454696d6560401b6044820152606401610667565b6134588484613812565b6000928352600c602052604090922080546001600160401b03938416600160401b026001600160801b0319909116939092169290921717905550565b61349f84848461300a565b6134ab84848484613932565b611a1d5760405162461bcd60e51b815260040161066790614e31565b6060816000036134ee5750506040805180820190915260018152600360fc1b602082015290565b8160005b8115613518578061350281614c0e565b91506135119050600a83614e99565b91506134f2565b6000816001600160401b0381111561353257613532613e41565b6040519080825280601f01601f19166020018201604052801561355c576020820181803683370190505b5090505b841561280c57613571600183614c3d565b915061357e600a86614ead565b613589906030614e08565b60f81b81838151811061359e5761359e614c27565b60200101906001600160f81b031916908160001a9053506135c0600a86614e99565b9450613560565b6135d2838383610afb565b6109f8576000838152600e6020908152604080832085845282528083206001600160a01b03858116808652918452828520805460ff1916600190811790915583518085018552928352828501888152898752600f865293862080548083018255818852958720845160029097020180546001600160a01b0319169690931695909517825592519083015592869052905461366c9190614c3d565b6001600160a01b038316600090815260106020526040902055336001600160a01b0316826001600160a01b0316847fd9dfff7752b7a810e2b646c0c96b76bc9ed817f6c6f7848bbe68163f7e8b43788760405161325291815260200190565b6136d6838383610afb565b6109f8576136e381613a33565b6136ee836020613a45565b6136f785613be7565b60405160200161370993929190614ec1565b60408051601f198184030181529082905262461bcd60e51b825261066791600401613fb7565b6000828152600f60205260409020805461374b90600190614c3d565b8154811061375b5761375b614c27565b9060005260206000209060020201600f6000848152602001908152602001600020828154811061378d5761378d614c27565b60009182526020808320845460029093020180546001600160a01b0319166001600160a01b039093169290921782556001938401549390910192909255838152600f909152604090208054806137e5576137e5614c50565b60008281526020812060026000199093019283020180546001600160a01b03191681556001015590555050565b6001600160a01b0382166138685760405162461bcd60e51b815260206004820181905260248201527f4552433732313a206d696e7420746f20746865207a65726f20616464726573736044820152606401610667565b61387181612e75565b156138bd5760405162461bcd60e51b815260206004820152601c60248201527b115490cdcc8c4e881d1bdad95b88185b1c9958591e481b5a5b9d195960221b6044820152606401610667565b6001600160a01b03821660009081526003602052604081208054600192906138e6908490614e08565b909155505060008181526002602052604080822080546001600160a01b0319166001600160a01b038616908117909155905183929060008051602061504c833981519152908290a45050565b60006001600160a01b0384163b15613a2857604051630a85bd0160e11b81526001600160a01b0385169063150b7a0290613976903390899088908890600401614f63565b6020604051808303816000875af19250505080156139b1575060408051601f3d908101601f191682019092526139ae91810190614fa0565b60015b613a0e573d8080156139df576040519150601f19603f3d011682016040523d82523d6000602084013e6139e4565b606091505b508051600003613a065760405162461bcd60e51b815260040161066790614e31565b805181602001fd5b6001600160e01b031916630a85bd0160e11b14905061280c565b506001949350505050565b60606111206001600160a01b03831660145b60606000613a54836002614fbd565b613a5f906002614e08565b6001600160401b03811115613a7657613a76613e41565b6040519080825280601f01601f191660200182016040528015613aa0576020820181803683370190505b509050600360fc1b81600081518110613abb57613abb614c27565b60200101906001600160f81b031916908160001a905350600f60fb1b81600181518110613aea57613aea614c27565b60200101906001600160f81b031916908160001a9053506000613b0e846002614fbd565b613b19906001614e08565b90505b6001811115613b91576f181899199a1a9b1b9c1cb0b131b232b360811b85600f1660108110613b4d57613b4d614c27565b1a60f81b828281518110613b6357613b63614c27565b60200101906001600160f81b031916908160001a90535060049490941c93613b8a81614fd4565b9050613b1c565b508315613be05760405162461bcd60e51b815260206004820181905260248201527f537472696e67733a20686578206c656e67746820696e73756666696369656e746044820152606401610667565b9392505050565b606081600003613c115750506040805180820190915260048152630307830360e41b602082015290565b8160005b8115613c345780613c2581614c0e565b915050600882901c9150613c15565b61280c8482613a45565b604080516060810182526000808252602082018190529181019190915290565b828054828255906000526020600020908101928215613c99579160200282015b82811115613c99578235825591602001919060010190613c7e565b50613ca5929150613db8565b5090565b508054613cb5906149db565b6000825580601f10613cc5575050565b601f016020900490600052602060002090810190612eb79190613db8565b5080546000825590600052602060002090810190612eb79190613db8565b828054828255906000526020600020908101928215613c99579160200282015b82811115613c99578251825591602001919060010190613d21565b60405180610180016040528060008152602001606081526020016060815260200160008152602001600081526020016000815260200160008152602001600081526020016060815260200160608152602001613dab604051806040016040528060008152602001600081525090565b8152600060209091015290565b5b80821115613ca55760008155600101613db9565b6001600160e01b031981168114612eb757600080fd5b600060208284031215613df557600080fd5b8135613be081613dcd565b80358015158114613e1057600080fd5b919050565b60008060408385031215613e2857600080fd5b82359150613e3860208401613e00565b90509250929050565b634e487b7160e01b600052604160045260246000fd5b604051601f8201601f191681016001600160401b0381118282101715613e7f57613e7f613e41565b604052919050565b80356001600160a01b0381168114613e1057600080fd5b60008060008060808587031215613eb457600080fd5b8435935060208086013593506040860135925060608601356001600160401b0380821115613ee157600080fd5b818801915088601f830112613ef557600080fd5b813581811115613f0757613f07613e41565b8060051b9150613f18848301613e57565b818152918301840191848101908b841115613f3257600080fd5b938501935b83851015613f5757613f4885613e87565b82529385019390850190613f37565b989b979a50959850505050505050565b60005b83811015613f82578181015183820152602001613f6a565b50506000910152565b60008151808452613fa3816020860160208601613f67565b601f01601f19169290920160200192915050565b602081526000613be06020830184613f8b565b600060208284031215613fdc57600080fd5b5035919050565b60008060408385031215613ff657600080fd5b613fff83613e87565b946020939093013593505050565b80516001600160a01b03168252602080820151908301526040908101511515910152565b60608101611120828461400d565b602080825282518282018190526000919060409081850190868401855b8281101561408a57815180516001600160a01b0316855286015186850152928401929085019060010161405c565b5091979650505050505050565b6000806000606084860312156140ac57600080fd5b83359250602084013591506140c360408501613e87565b90509250925092565b600080600080608085870312156140e257600080fd5b5050823594602084013594506040840135936060013592509050565b6000806040838503121561411157600080fd5b82359150613e3860208401613e87565b60006001600160401b0383111561413a5761413a613e41565b61414d601f8401601f1916602001613e57565b905082815283838301111561416157600080fd5b828260208301376000602084830101529392505050565b600082601f83011261418957600080fd5b613be083833560208501614121565b600080604083850312156141ab57600080fd5b8235915060208301356001600160401b038111156141c857600080fd5b6141d485828601614178565b9150509250929050565b6000806000606084860312156141f357600080fd5b6141fc84613e87565b925061420a60208501613e87565b9150604084013590509250925092565b60008083601f84011261422c57600080fd5b5081356001600160401b0381111561424357600080fd5b6020830191508360208260051b850101111561425e57600080fd5b9250929050565b60006040828403121561238857600080fd5b60008060008060008060008060006101008a8c03121561429657600080fd5b8935985060208a0135975060408a01356001600160401b03808211156142bb57600080fd5b6142c78d838e01614178565b985060608c0135975060808c01359150808211156142e457600080fd5b6142f08d838e0161421a565b909750955060a08c013591508082111561430957600080fd5b506143168c828d0161421a565b909450925061432a90508b60c08c01614265565b90509295985092959850929598565b6020808252825182820181905260009190848201906040850190845b8181101561437b5761436883855161400d565b9284019260609290920191600101614355565b50909695505050505050565b6000806040838503121561439a57600080fd5b50508035926020909101359150565b6000806000606084860312156143be57600080fd5b505081359360208301359350604090920135919050565b6000602082840312156143e757600080fd5b613be082613e87565b60008083601f84011261440257600080fd5b5081356001600160401b0381111561441957600080fd5b60208301915083602082850101111561425e57600080fd5b6000806000806000806000806000806000806101408d8f03121561445457600080fd5b8c359b506001600160401b0360208e0135111561447057600080fd5b6144808e60208f01358f016143f0565b909b50995060408d0135985060608d0135975060808d0135965060a08d013595506001600160401b0360c08e013511156144b957600080fd5b6144c98e60c08f01358f0161421a565b90955093506001600160401b0360e08e013511156144e657600080fd5b6144f68e60e08f01358f0161421a565b90935091506145098e6101008f01614265565b90509295989b509295989b509295989b565b6000806040838503121561452e57600080fd5b61453783613e87565b9150613e3860208401613e00565b60008060006060848603121561455a57600080fd5b83359250602084013591506140c360408501613e00565b600081518084526020808501945080840160005b838110156145a157815187529582019590820190600101614585565b509495945050505050565b60006020808301818452808551808352604092508286019150828160051b87010184880160005b838110156146d257603f1989840301855281516101a08151855288820151818a87015261460282870182613f8b565b915050878201518582038987015261461a8282614571565b606084810151908801526080808501519088015260a0808501519088015260c0808501519088015260e0808501519088015261010080850151888303828a015291935091506146698382614571565b9250505061012080830151868303828801526146858382614571565b92505050610140808301516146a68288018280518252602090810151910152565b505061016082015191506146bf61018086018315159052565b95880195935050908601906001016145d3565b509098975050505050505050565b80356001600160401b0381168114613e1057600080fd5b6000806000806080858703121561470d57600080fd5b8435935061471d602086016146e0565b925061472b604086016146e0565b915060608501356001600160401b0381111561474657600080fd5b61475287828801614178565b91505092959194509250565b602081526000613be06020830184614571565b6000806000806080858703121561478757600080fd5b61479085613e87565b935061479e60208601613e87565b92506040850135915060608501356001600160401b038111156147c057600080fd5b8501601f810187136147d157600080fd5b61475287823560208401614121565b600080604083850312156147f357600080fd5b6147fc83613e87565b9150613e3860208401613e87565b6000806000806080858703121561482057600080fd5b843593506020850135925060408501356001600160401b0381111561484457600080fd5b61485087828801614178565b949793965093946060013593505050565b6020808252601c908201527b4576656e743a204576656e7420646f6573206e6f742065786973742160201b604082015260600190565b6020808252602a908201527f4576656e743a2043616c6c6572206973206e6f7420616e2061646d696e206f726040820152691036b7b232b930ba37b960b11b606082015260800190565b6020808252601f908201527f4576656e743a2043617465676f727920646f6573206e6f742065786973742100604082015260600190565b60208082526029908201527f4576656e743a20546869732063617465676f727920697320666f7220616e6f746040820152681a195c88195d995b9d60ba1b606082015260800190565b600060a082018783526020878185015286604085015260a0606085015281865180845260c086019150828801935060005b818110156149b75784516001600160a01b031683529383019391830191600101614992565b50506001600160a01b03959095166080949094019390935250919695505050505050565b600181811c908216806149ef57607f821691505b60208210810361238857634e487b7160e01b600052602260045260246000fd5b6020808252601d908201527f4576656e743a2043616c6c6572206973206e6f7420616e2061646d696e000000604082015260600190565b6020808252602e908201527f4552433732313a2063616c6c6572206973206e6f7420746f6b656e206f776e6560408201526d1c881b9bdc88185c1c1c9bdd995960921b606082015260800190565b60208082526028908201527f4576656e743a20446973636f756e7420706172616d6574657273206c656e677460408201526768206e6f7420657160c01b606082015260800190565b601f8211156109f857600081815260208120601f850160051c81016020861015614b035750805b601f850160051c820191505b81811015614b2257828155600101614b0f565b505050505050565b600019600383901b1c191660019190911b1790565b81516001600160401b03811115614b5857614b58613e41565b614b6c81614b6684546149db565b84614adc565b602080601f831160018114614b9b5760008415614b895750858301515b614b938582614b2a565b865550614b22565b600085815260208120601f198616915b82811015614bca57888601518255948401946001909101908401614bab565b5085821015614be85787850151600019600388901b60f8161c191681555b5050505050600190811b01905550565b634e487b7160e01b600052601160045260246000fd5b600060018201614c2057614c20614bf8565b5060010190565b634e487b7160e01b600052603260045260246000fd5b8181038181111561112057611120614bf8565b634e487b7160e01b600052603160045260246000fd5b602080825260189082015277115490cd4c0c0dce88125b9d985b1a59081d1bdad95b925960421b604082015260600190565b602080825260189082015277115490cdcc8c4e881a5b9d985b1a59081d1bdad95b88125160421b604082015260600190565b6001600160401b03831115614ce157614ce1613e41565b614cf583614cef83546149db565b83614adc565b6000601f841160018114614d235760008515614d115750838201355b614d1b8682614b2a565b845550611543565b600083815260209020601f19861690835b82811015614d545786850135825560209485019460019092019101614d34565b5086821015614d715760001960f88860031b161c19848701351681555b505060018560011b0183555050505050565b84815283602082015260606040820152816060820152818360808301376000818301608090810191909152601f909201601f191601019392505050565b82815260406020820152600061280c6040830184613f8b565b60008351614deb818460208801613f67565b835190830190614dff818360208801613f67565b01949350505050565b8082018082111561112057611120614bf8565b9283526020830191909152604082015260600190565b60208082526032908201527f4552433732313a207472616e7366657220746f206e6f6e20455243373231526560408201527131b2b4bb32b91034b6b83632b6b2b73a32b960711b606082015260800190565b634e487b7160e01b600052601260045260246000fd5b600082614ea857614ea8614e83565b500490565b600082614ebc57614ebc614e83565b500690565b7402937b632a1b7b73a3937b61d1030b1b1b7bab73a1605d1b815260008451614ef1816015850160208901613f67565b7001034b99036b4b9b9b4b733903937b6329607d1b6015918401918201528451614f22816026840160208901613f67565b720103337b91032bb32b73a103bb4ba341034b21606d1b602692909101918201528351614f56816039840160208801613f67565b0160390195945050505050565b6001600160a01b0385811682528416602082015260408101839052608060608201819052600090614f9690830184613f8b565b9695505050505050565b600060208284031215614fb257600080fd5b8151613be081613dcd565b808202811582820484141761112057611120614bf8565b600081614fe357614fe3614bf8565b50600019019056feff3317e1e0e8c784290b957ee9b65ea8fe96420c4819db463283b95ecbe4a3feb5a7f51d0593e853ad0aa6b718ee0bdd10c4966eb62d243b69d538e5823d040171f3d55856e4058ed06ee057d79ada615f65cdf5f9ee88181b914225088f834fddf252ad1be2c89b69c2b068fc378daa952ba7f163c4a11628f55a4df523b3efa2646970667358221220b347261c6deaefabe6f1a9c6d9bb75ef6eb017820f8879ca4d5428c3fad8de3164736f6c63430008110033",
  "linkReferences": {},
  "deployedLinkReferences": {}
}