{
  "_format": "hh-sol-artifact-1",
  "contractName": "EventERC721",
  "sourceName": "contracts/EventDiamond/facets/EventERC721Facet.sol",
  "abi": [
    {
      "inputs": [
        {
          "internalType": "string",
          "name": "name_",
          "type": "string"
        },
        {
          "internalType": "string",
          "name": "symbol_",
          "type": "string"
        }
      ],
      "stateMutability": "nonpayable",
      "type": "constructor"
    },
    {
      "anonymous": false,
      "inputs": [
        {
          "indexed": true,
          "internalType": "address",
          "name": "owner",
          "type": "address"
        },
        {
          "indexed": true,
          "internalType": "address",
          "name": "approved",
          "type": "address"
        },
        {
          "indexed": true,
          "internalType": "uint256",
          "name": "tokenId",
          "type": "uint256"
        }
      ],
      "name": "Approval",
      "type": "event"
    },
    {
      "anonymous": false,
      "inputs": [
        {
          "indexed": true,
          "internalType": "address",
          "name": "owner",
          "type": "address"
        },
        {
          "indexed": true,
          "internalType": "address",
          "name": "operator",
          "type": "address"
        },
        {
          "indexed": false,
          "internalType": "bool",
          "name": "approved",
          "type": "bool"
        }
      ],
      "name": "ApprovalForAll",
      "type": "event"
    },
    {
      "anonymous": false,
      "inputs": [
        {
          "indexed": true,
          "internalType": "address",
          "name": "from",
          "type": "address"
        },
        {
          "indexed": true,
          "internalType": "address",
          "name": "to",
          "type": "address"
        },
        {
          "indexed": true,
          "internalType": "uint256",
          "name": "tokenId",
          "type": "uint256"
        }
      ],
      "name": "Transfer",
      "type": "event"
    },
    {
      "inputs": [
        {
          "internalType": "address",
          "name": "to",
          "type": "address"
        },
        {
          "internalType": "uint256",
          "name": "tokenId",
          "type": "uint256"
        }
      ],
      "name": "approve",
      "outputs": [],
      "stateMutability": "nonpayable",
      "type": "function"
    },
    {
      "inputs": [
        {
          "internalType": "address",
          "name": "owner",
          "type": "address"
        }
      ],
      "name": "balanceOf",
      "outputs": [
        {
          "internalType": "uint256",
          "name": "",
          "type": "uint256"
        }
      ],
      "stateMutability": "view",
      "type": "function"
    },
    {
      "inputs": [
        {
          "internalType": "uint256",
          "name": "tokenId",
          "type": "uint256"
        }
      ],
      "name": "getApproved",
      "outputs": [
        {
          "internalType": "address",
          "name": "",
          "type": "address"
        }
      ],
      "stateMutability": "view",
      "type": "function"
    },
    {
      "inputs": [
        {
          "internalType": "address",
          "name": "owner",
          "type": "address"
        },
        {
          "internalType": "address",
          "name": "operator",
          "type": "address"
        }
      ],
      "name": "isApprovedForAll",
      "outputs": [
        {
          "internalType": "bool",
          "name": "",
          "type": "bool"
        }
      ],
      "stateMutability": "view",
      "type": "function"
    },
    {
      "inputs": [],
      "name": "name",
      "outputs": [
        {
          "internalType": "string",
          "name": "",
          "type": "string"
        }
      ],
      "stateMutability": "view",
      "type": "function"
    },
    {
      "inputs": [
        {
          "internalType": "uint256",
          "name": "tokenId",
          "type": "uint256"
        }
      ],
      "name": "ownerOf",
      "outputs": [
        {
          "internalType": "address",
          "name": "",
          "type": "address"
        }
      ],
      "stateMutability": "view",
      "type": "function"
    },
    {
      "inputs": [
        {
          "internalType": "address",
          "name": "from",
          "type": "address"
        },
        {
          "internalType": "address",
          "name": "to",
          "type": "address"
        },
        {
          "internalType": "uint256",
          "name": "tokenId",
          "type": "uint256"
        }
      ],
      "name": "safeTransferFrom",
      "outputs": [],
      "stateMutability": "nonpayable",
      "type": "function"
    },
    {
      "inputs": [
        {
          "internalType": "address",
          "name": "from",
          "type": "address"
        },
        {
          "internalType": "address",
          "name": "to",
          "type": "address"
        },
        {
          "internalType": "uint256",
          "name": "tokenId",
          "type": "uint256"
        },
        {
          "internalType": "bytes",
          "name": "data",
          "type": "bytes"
        }
      ],
      "name": "safeTransferFrom",
      "outputs": [],
      "stateMutability": "nonpayable",
      "type": "function"
    },
    {
      "inputs": [
        {
          "internalType": "address",
          "name": "operator",
          "type": "address"
        },
        {
          "internalType": "bool",
          "name": "approved",
          "type": "bool"
        }
      ],
      "name": "setApprovalForAll",
      "outputs": [],
      "stateMutability": "nonpayable",
      "type": "function"
    },
    {
      "inputs": [
        {
          "internalType": "bytes4",
          "name": "interfaceId",
          "type": "bytes4"
        }
      ],
      "name": "supportsInterface",
      "outputs": [
        {
          "internalType": "bool",
          "name": "",
          "type": "bool"
        }
      ],
      "stateMutability": "view",
      "type": "function"
    },
    {
      "inputs": [],
      "name": "symbol",
      "outputs": [
        {
          "internalType": "string",
          "name": "",
          "type": "string"
        }
      ],
      "stateMutability": "view",
      "type": "function"
    },
    {
      "inputs": [
        {
          "internalType": "uint256",
          "name": "tokenId",
          "type": "uint256"
        }
      ],
      "name": "tokenURI",
      "outputs": [
        {
          "internalType": "string",
          "name": "",
          "type": "string"
        }
      ],
      "stateMutability": "view",
      "type": "function"
    },
    {
      "inputs": [
        {
          "internalType": "address",
          "name": "from",
          "type": "address"
        },
        {
          "internalType": "address",
          "name": "to",
          "type": "address"
        },
        {
          "internalType": "uint256",
          "name": "tokenId",
          "type": "uint256"
        }
      ],
      "name": "transferFrom",
      "outputs": [],
      "stateMutability": "nonpayable",
      "type": "function"
    }
  ],
  "bytecode": "0x60806040523480156200001157600080fd5b50604051620014413803806200144183398101604081905262000034916200011f565b600062000042838262000218565b50600162000051828262000218565b505050620002e4565b634e487b7160e01b600052604160045260246000fd5b600082601f8301126200008257600080fd5b81516001600160401b03808211156200009f576200009f6200005a565b604051601f8301601f19908116603f01168101908282118183101715620000ca57620000ca6200005a565b81604052838152602092508683858801011115620000e757600080fd5b600091505b838210156200010b5785820183015181830184015290820190620000ec565b600093810190920192909252949350505050565b600080604083850312156200013357600080fd5b82516001600160401b03808211156200014b57600080fd5b620001598683870162000070565b935060208501519150808211156200017057600080fd5b506200017f8582860162000070565b9150509250929050565b600181811c908216806200019e57607f821691505b602082108103620001bf57634e487b7160e01b600052602260045260246000fd5b50919050565b601f8211156200021357600081815260208120601f850160051c81016020861015620001ee5750805b601f850160051c820191505b818110156200020f57828155600101620001fa565b5050505b505050565b81516001600160401b038111156200023457620002346200005a565b6200024c8162000245845462000189565b84620001c5565b602080601f8311600181146200028457600084156200026b5750858301515b600019600386901b1c1916600185901b1785556200020f565b600085815260208120601f198616915b82811015620002b55788860151825594840194600190910190840162000294565b5085821015620002d45787850151600019600388901b60f8161c191681555b5050505050600190811b01905550565b61114d80620002f46000396000f3fe608060405234801561001057600080fd5b50600436106100af5760003560e01c806301ffc9a7146100b457806306fdde03146100dd578063081812fc146100f2578063095ea7b31461011d57806323b872dd1461013257806342842e0e146101455780636352211e1461015857806370a082311461016b57806395d89b411461018c578063a22cb46514610194578063b88d4fde146101a7578063c87b56dd146101ba578063e985e9c5146101cd575b600080fd5b6100c86100c2366004610c3c565b50600090565b60405190151581526020015b60405180910390f35b6100e56101e0565b6040516100d49190610cb0565b610105610100366004610cc3565b610274565b6040516001600160a01b0390911681526020016100d4565b61013061012b366004610cf8565b61029b565b005b610130610140366004610d22565b6103b5565b610130610153366004610d22565b6103e6565b610105610166366004610cc3565b610401565b61017e610179366004610d5e565b61043c565b6040519081526020016100d4565b6100e56104c2565b6101306101a2366004610d79565b6104d4565b6101306101b5366004610dcb565b6104e3565b6100e56101c8366004610cc3565b61051b565b6100c86101db366004610ea6565b61065b565b60606000800180546101f190610ed9565b80601f016020809104026020016040519081016040528092919081815260200182805461021d90610ed9565b801561026a5780601f1061023f5761010080835404028352916020019161026a565b820191906000526020600020905b81548152906001019060200180831161024d57829003601f168201915b5050505050905090565b600061027f82610689565b506000908152600460205260409020546001600160a01b031690565b60006102a682610401565b9050806001600160a01b0316836001600160a01b0316036103185760405162461bcd60e51b815260206004820152602160248201527f4552433732313a20617070726f76616c20746f2063757272656e74206f776e656044820152603960f91b60648201526084015b60405180910390fd5b336001600160a01b03821614806103345750610334813361065b565b6103a65760405162461bcd60e51b815260206004820152603e60248201527f4552433732313a20617070726f76652063616c6c6572206973206e6f7420746f60448201527f6b656e206f776e6572206e6f7220617070726f76656420666f7220616c6c0000606482015260840161030f565b6103b083836106c0565b505050565b6103bf338261072e565b6103db5760405162461bcd60e51b815260040161030f90610f13565b6103b083838361078c565b6103b0838383604051806020016040528060008152506104e3565b6000818152600260205260408120546001600160a01b0316806104365760405162461bcd60e51b815260040161030f90610f61565b92915050565b60006001600160a01b0382166104a65760405162461bcd60e51b815260206004820152602960248201527f4552433732313a2061646472657373207a65726f206973206e6f7420612076616044820152683634b21037bbb732b960b91b606482015260840161030f565b506001600160a01b031660009081526003602052604090205490565b6060600060010180546101f190610ed9565b6104df338383610928565b5050565b6104ed338361072e565b6105095760405162461bcd60e51b815260040161030f90610f13565b610515848484846109f2565b50505050565b606061052682610689565b6000828152600660205260408120805461053f90610ed9565b80601f016020809104026020016040519081016040528092919081815260200182805461056b90610ed9565b80156105b85780601f1061058d576101008083540402835291602001916105b8565b820191906000526020600020905b81548152906001019060200180831161059b57829003601f168201915b5050505050905060006105d660408051602081019091526000815290565b905080516000036105e8575092915050565b81511561061a578082604051602001610602929190610f93565b60405160208183030381529060405292505050919050565b60008151116106385760405180602001604052806000815250610653565b8061064285610a25565b604051602001610602929190610f93565b949350505050565b6001600160a01b03918216600090815260056020908152604080832093909416825291909152205460ff1690565b6000818152600260205260409020546001600160a01b03166106bd5760405162461bcd60e51b815260040161030f90610f61565b50565b600081815260046020526040902080546001600160a01b0319166001600160a01b03841690811790915581906106f582610401565b6001600160a01b03167f8c5be1e5ebec7d5bd14f71427d1e84f3dd0314c0f7b2291e5b200ac8c7c3b92560405160405180910390a45050565b60008061073a83610401565b9050806001600160a01b0316846001600160a01b031614806107615750610761818561065b565b806106535750836001600160a01b031661077a84610274565b6001600160a01b031614949350505050565b826001600160a01b031661079f82610401565b6001600160a01b0316146108035760405162461bcd60e51b815260206004820152602560248201527f4552433732313a207472616e736665722066726f6d20696e636f72726563742060448201526437bbb732b960d91b606482015260840161030f565b6001600160a01b0382166108655760405162461bcd60e51b8152602060048201526024808201527f4552433732313a207472616e7366657220746f20746865207a65726f206164646044820152637265737360e01b606482015260840161030f565b6108706000826106c0565b6001600160a01b0383166000908152600360205260408120805460019290610899908490610fd8565b90915550506001600160a01b03821660009081526003602052604081208054600192906108c7908490610feb565b909155505060008181526002602052604080822080546001600160a01b0319166001600160a01b0386811691821790925591518493918716917fddf252ad1be2c89b69c2b068fc378daa952ba7f163c4a11628f55a4df523b3ef91a4505050565b816001600160a01b0316836001600160a01b0316036109855760405162461bcd60e51b815260206004820152601960248201527822a9219b99189d1030b8383937bb32903a379031b0b63632b960391b604482015260640161030f565b6001600160a01b03838116600081815260056020908152604080832094871680845294825291829020805460ff191686151590811790915591519182527f17307eab39ab6107e8899845ad3d59bd9653f200f220920489ca2b5937696c31910160405180910390a3505050565b6109fd84848461078c565b610a0984848484610b25565b6105155760405162461bcd60e51b815260040161030f90610ffe565b606081600003610a4c5750506040805180820190915260018152600360fc1b602082015290565b8160005b8115610a765780610a6081611050565b9150610a6f9050600a8361107f565b9150610a50565b6000816001600160401b03811115610a9057610a90610db5565b6040519080825280601f01601f191660200182016040528015610aba576020820181803683370190505b5090505b841561065357610acf600183610fd8565b9150610adc600a86611093565b610ae7906030610feb565b60f81b818381518110610afc57610afc6110a7565b60200101906001600160f81b031916908160001a905350610b1e600a8661107f565b9450610abe565b60006001600160a01b0384163b15610c1b57604051630a85bd0160e11b81526001600160a01b0385169063150b7a0290610b699033908990889088906004016110bd565b6020604051808303816000875af1925050508015610ba4575060408051601f3d908101601f19168201909252610ba1918101906110fa565b60015b610c01573d808015610bd2576040519150601f19603f3d011682016040523d82523d6000602084013e610bd7565b606091505b508051600003610bf95760405162461bcd60e51b815260040161030f90610ffe565b805181602001fd5b6001600160e01b031916630a85bd0160e11b149050610653565b506001949350505050565b6001600160e01b0319811681146106bd57600080fd5b600060208284031215610c4e57600080fd5b8135610c5981610c26565b9392505050565b60005b83811015610c7b578181015183820152602001610c63565b50506000910152565b60008151808452610c9c816020860160208601610c60565b601f01601f19169290920160200192915050565b602081526000610c596020830184610c84565b600060208284031215610cd557600080fd5b5035919050565b80356001600160a01b0381168114610cf357600080fd5b919050565b60008060408385031215610d0b57600080fd5b610d1483610cdc565b946020939093013593505050565b600080600060608486031215610d3757600080fd5b610d4084610cdc565b9250610d4e60208501610cdc565b9150604084013590509250925092565b600060208284031215610d7057600080fd5b610c5982610cdc565b60008060408385031215610d8c57600080fd5b610d9583610cdc565b915060208301358015158114610daa57600080fd5b809150509250929050565b634e487b7160e01b600052604160045260246000fd5b60008060008060808587031215610de157600080fd5b610dea85610cdc565b9350610df860208601610cdc565b92506040850135915060608501356001600160401b0380821115610e1b57600080fd5b818701915087601f830112610e2f57600080fd5b813581811115610e4157610e41610db5565b604051601f8201601f19908116603f01168101908382118183101715610e6957610e69610db5565b816040528281528a6020848701011115610e8257600080fd5b82602086016020830137600060208483010152809550505050505092959194509250565b60008060408385031215610eb957600080fd5b610ec283610cdc565b9150610ed060208401610cdc565b90509250929050565b600181811c90821680610eed57607f821691505b602082108103610f0d57634e487b7160e01b600052602260045260246000fd5b50919050565b6020808252602e908201527f4552433732313a2063616c6c6572206973206e6f7420746f6b656e206f776e6560408201526d1c881b9bdc88185c1c1c9bdd995960921b606082015260800190565b602080825260189082015277115490cdcc8c4e881a5b9d985b1a59081d1bdad95b88125160421b604082015260600190565b60008351610fa5818460208801610c60565b835190830190610fb9818360208801610c60565b01949350505050565b634e487b7160e01b600052601160045260246000fd5b8181038181111561043657610436610fc2565b8082018082111561043657610436610fc2565b60208082526032908201527f4552433732313a207472616e7366657220746f206e6f6e20455243373231526560408201527131b2b4bb32b91034b6b83632b6b2b73a32b960711b606082015260800190565b60006001820161106257611062610fc2565b5060010190565b634e487b7160e01b600052601260045260246000fd5b60008261108e5761108e611069565b500490565b6000826110a2576110a2611069565b500690565b634e487b7160e01b600052603260045260246000fd5b6001600160a01b03858116825284166020820152604081018390526080606082018190526000906110f090830184610c84565b9695505050505050565b60006020828403121561110c57600080fd5b8151610c5981610c2656fea2646970667358221220359d307dc88deabdf103f9f5c363caf3e44aee04ae05418fb94454397eabbfee64736f6c63430008110033",
  "linkReferences": {},
  "deployedLinkReferences": {}
}