{
  "_format": "hh-sol-artifact-1",
  "contractName": "EventTicketControllerFacet",
  "sourceName": "contracts/EventDiamond/facets/EventTicketControllerFacet.sol",
  "abi": [
    {
      "anonymous": false,
      "inputs": [
        {
          "indexed": true,
          "internalType": "uint256",
          "name": "fromTokenId",
          "type": "uint256"
        },
        {
          "indexed": false,
          "internalType": "uint256",
          "name": "toTokenId",
          "type": "uint256"
        },
        {
          "indexed": true,
          "internalType": "address",
          "name": "fromAddress",
          "type": "address"
        },
        {
          "indexed": true,
          "internalType": "address",
          "name": "toAddress",
          "type": "address"
        }
      ],
      "name": "ConsecutiveTransfer",
      "type": "event"
    },
    {
      "anonymous": false,
      "inputs": [
        {
          "indexed": false,
          "internalType": "uint256",
          "name": "eventId",
          "type": "uint256"
        },
        {
          "indexed": false,
          "internalType": "uint256",
          "name": "date",
          "type": "uint256"
        },
        {
          "indexed": false,
          "internalType": "uint8",
          "name": "percentage",
          "type": "uint8"
        }
      ],
      "name": "EventRefundDateAdded",
      "type": "event"
    },
    {
      "anonymous": false,
      "inputs": [
        {
          "indexed": false,
          "internalType": "uint256",
          "name": "eventId",
          "type": "uint256"
        }
      ],
      "name": "EventWithdraw",
      "type": "event"
    },
    {
      "anonymous": false,
      "inputs": [
        {
          "indexed": false,
          "internalType": "uint256",
          "name": "eventId",
          "type": "uint256"
        },
        {
          "indexed": false,
          "internalType": "address[]",
          "name": "accounts",
          "type": "address[]"
        },
        {
          "indexed": false,
          "internalType": "address",
          "name": "staffMember",
          "type": "address"
        }
      ],
      "name": "InvitationSent",
      "type": "event"
    },
    {
      "anonymous": false,
      "inputs": [
        {
          "indexed": false,
          "internalType": "uint256",
          "name": "ticketId",
          "type": "uint256"
        },
        {
          "indexed": false,
          "internalType": "address",
          "name": "account",
          "type": "address"
        }
      ],
      "name": "RefundWithdraw",
      "type": "event"
    },
    {
      "anonymous": false,
      "inputs": [
        {
          "indexed": false,
          "internalType": "uint256",
          "name": "ticketId",
          "type": "uint256"
        },
        {
          "indexed": false,
          "internalType": "address",
          "name": "account",
          "type": "address"
        }
      ],
      "name": "TicketBought",
      "type": "event"
    },
    {
      "anonymous": false,
      "inputs": [
        {
          "indexed": false,
          "internalType": "uint256",
          "name": "eventId",
          "type": "uint256"
        },
        {
          "indexed": false,
          "internalType": "uint256",
          "name": "ticketId",
          "type": "uint256"
        },
        {
          "indexed": false,
          "internalType": "address",
          "name": "staffMember",
          "type": "address"
        }
      ],
      "name": "TicketClipped",
      "type": "event"
    },
    {
      "anonymous": false,
      "inputs": [
        {
          "indexed": false,
          "internalType": "uint256",
          "name": "eventId",
          "type": "uint256"
        },
        {
          "indexed": false,
          "internalType": "uint256",
          "name": "categoryId",
          "type": "uint256"
        },
        {
          "indexed": false,
          "internalType": "uint256",
          "name": "ticketId",
          "type": "uint256"
        },
        {
          "indexed": false,
          "internalType": "address",
          "name": "account",
          "type": "address"
        }
      ],
      "name": "TicketRefunded",
      "type": "event"
    },
    {
      "anonymous": false,
      "inputs": [
        {
          "indexed": false,
          "internalType": "uint256",
          "name": "eventId",
          "type": "uint256"
        },
        {
          "indexed": false,
          "internalType": "uint256",
          "name": "ticketCount",
          "type": "uint256"
        },
        {
          "indexed": false,
          "internalType": "address",
          "name": "staffMember",
          "type": "address"
        }
      ],
      "name": "TicketsBooked",
      "type": "event"
    },
    {
      "inputs": [
        {
          "internalType": "uint256",
          "name": "_eventId",
          "type": "uint256"
        },
        {
          "components": [
            {
              "internalType": "uint256",
              "name": "date",
              "type": "uint256"
            },
            {
              "internalType": "uint8",
              "name": "percentage",
              "type": "uint8"
            }
          ],
          "internalType": "struct RefundData",
          "name": "_refundData",
          "type": "tuple"
        }
      ],
      "name": "addRefundDeadline",
      "outputs": [],
      "stateMutability": "nonpayable",
      "type": "function"
    },
    {
      "inputs": [
        {
          "internalType": "uint256",
          "name": "_eventId",
          "type": "uint256"
        },
        {
          "components": [
            {
              "internalType": "uint256",
              "name": "categoryId",
              "type": "uint256"
            },
            {
              "internalType": "uint256",
              "name": "ticketAmount",
              "type": "uint256"
            }
          ],
          "internalType": "struct CategoryTicketAmount[]",
          "name": "_categoryTicketAmount",
          "type": "tuple[]"
        },
        {
          "components": [
            {
              "internalType": "uint256",
              "name": "row",
              "type": "uint256"
            },
            {
              "internalType": "uint256",
              "name": "seat",
              "type": "uint256"
            },
            {
              "internalType": "address",
              "name": "account",
              "type": "address"
            }
          ],
          "internalType": "struct TicketPlaceAddress[]",
          "name": "_place",
          "type": "tuple[]"
        },
        {
          "internalType": "string[]",
          "name": "_ticketMetadataUris",
          "type": "string[]"
        }
      ],
      "name": "bookTickets",
      "outputs": [],
      "stateMutability": "nonpayable",
      "type": "function"
    },
    {
      "inputs": [
        {
          "internalType": "uint256",
          "name": "_eventId",
          "type": "uint256"
        },
        {
          "internalType": "uint256",
          "name": "_categoryId",
          "type": "uint256"
        },
        {
          "components": [
            {
              "internalType": "uint256",
              "name": "amount",
              "type": "uint256"
            },
            {
              "internalType": "uint256",
              "name": "price",
              "type": "uint256"
            }
          ],
          "internalType": "struct TicketPriceData[]",
          "name": "_priceData",
          "type": "tuple[]"
        },
        {
          "components": [
            {
              "internalType": "uint256",
              "name": "row",
              "type": "uint256"
            },
            {
              "internalType": "uint256",
              "name": "seat",
              "type": "uint256"
            }
          ],
          "internalType": "struct TicketPlace[]",
          "name": "_place",
          "type": "tuple[]"
        },
        {
          "internalType": "string[]",
          "name": "_ticketMetadataUris",
          "type": "string[]"
        }
      ],
      "name": "buyTickets",
      "outputs": [],
      "stateMutability": "payable",
      "type": "function"
    },
    {
      "inputs": [
        {
          "components": [
            {
              "internalType": "uint256",
              "name": "eventId",
              "type": "uint256"
            },
            {
              "internalType": "uint256",
              "name": "categoryId",
              "type": "uint256"
            }
          ],
          "internalType": "struct EventCategoryData[]",
          "name": "_eventCategoryData",
          "type": "tuple[]"
        },
        {
          "components": [
            {
              "internalType": "uint256",
              "name": "amount",
              "type": "uint256"
            },
            {
              "internalType": "uint256",
              "name": "price",
              "type": "uint256"
            }
          ],
          "internalType": "struct TicketPriceData[]",
          "name": "_priceData",
          "type": "tuple[]"
        },
        {
          "components": [
            {
              "internalType": "uint256",
              "name": "row",
              "type": "uint256"
            },
            {
              "internalType": "uint256",
              "name": "seat",
              "type": "uint256"
            }
          ],
          "internalType": "struct TicketPlace[]",
          "name": "_place",
          "type": "tuple[]"
        },
        {
          "internalType": "string[]",
          "name": "_ticketMetadataUris",
          "type": "string[]"
        }
      ],
      "name": "buyTickets",
      "outputs": [],
      "stateMutability": "payable",
      "type": "function"
    },
    {
      "inputs": [
        {
          "internalType": "uint256",
          "name": "_eventId",
          "type": "uint256"
        },
        {
          "internalType": "uint256",
          "name": "_ticketId",
          "type": "uint256"
        }
      ],
      "name": "clipTicket",
      "outputs": [],
      "stateMutability": "nonpayable",
      "type": "function"
    },
    {
      "inputs": [
        {
          "internalType": "uint256",
          "name": "_eventId",
          "type": "uint256"
        }
      ],
      "name": "getAddressTicketIdsByEvent",
      "outputs": [
        {
          "internalType": "uint256[]",
          "name": "",
          "type": "uint256[]"
        }
      ],
      "stateMutability": "view",
      "type": "function"
    },
    {
      "inputs": [
        {
          "components": [
            {
              "internalType": "uint256",
              "name": "eventId",
              "type": "uint256"
            },
            {
              "internalType": "uint256",
              "name": "categoryId",
              "type": "uint256"
            },
            {
              "internalType": "uint256",
              "name": "ticketId",
              "type": "uint256"
            }
          ],
          "internalType": "struct ReturnTicketParams",
          "name": "_returnTicketParams",
          "type": "tuple"
        }
      ],
      "name": "returnTicket",
      "outputs": [],
      "stateMutability": "nonpayable",
      "type": "function"
    },
    {
      "inputs": [
        {
          "internalType": "uint256",
          "name": "_eventId",
          "type": "uint256"
        },
        {
          "internalType": "uint256[]",
          "name": "_ticketIds",
          "type": "uint256[]"
        },
        {
          "internalType": "address[]",
          "name": "_accounts",
          "type": "address[]"
        }
      ],
      "name": "sendInvitation",
      "outputs": [],
      "stateMutability": "nonpayable",
      "type": "function"
    },
    {
      "inputs": [
        {
          "internalType": "uint256",
          "name": "_eventId",
          "type": "uint256"
        }
      ],
      "name": "withdrawContractBalance",
      "outputs": [],
      "stateMutability": "nonpayable",
      "type": "function"
    },
    {
      "inputs": [
        {
          "internalType": "uint256",
          "name": "_eventId",
          "type": "uint256"
        },
        {
          "internalType": "uint256",
          "name": "_ticketId",
          "type": "uint256"
        }
      ],
      "name": "withdrawRefund",
      "outputs": [],
      "stateMutability": "nonpayable",
      "type": "function"
    }
  ],
  "bytecode": "0x608060405234801561001057600080fd5b50613c4a806100206000396000f3fe6080604052600436106100915760003560e01c8063b5abe85a11610059578063b5abe85a1461012b578063d90e6dd71461014b578063ddb7d5df1461016b578063e3bccc0f1461018b578063ef71b78a146101c157600080fd5b806328e13a9e146100965780632d3bf559146100b85780634f905e5d146100d85780637ce8b341146100eb578063ab6a8d6a1461010b575b600080fd5b3480156100a257600080fd5b506100b66100b1366004613062565b6101d4565b005b3480156100c457600080fd5b506100b66100d33660046131f1565b6107dd565b6100b66100e63660046132d4565b610ac8565b3480156100f757600080fd5b506100b661010636600461336f565b610de4565b34801561011757600080fd5b506100b66101263660046133cd565b610f37565b34801561013757600080fd5b506100b6610146366004613428565b61176e565b34801561015757600080fd5b506100b6610166366004613441565b611a33565b34801561017757600080fd5b506100b6610186366004613441565b611d48565b34801561019757600080fd5b506101ab6101a6366004613428565b611e8c565b6040516101b89190613463565b60405180910390f35b6100b66101cf3660046134a7565b611ef6565b600084815260026020908152604091829020548251808401909352601b8352600080516020613a45833981519152918301919091528591906001600160a01b031661023b5760405162461bcd60e51b815260040161023291906135ae565b60405180910390fd5b5061024885600033612256565b80610267575061026785600080516020613ae283398151915233612256565b6040518060600160405280602a8152602001613945602a91399061029e5760405162461bcd60e51b815260040161023291906135ae565b50835160001415604051806060016040528060258152602001613b8260259139906102dc5760405162461bcd60e51b815260040161023291906135ae565b5081518351146040518060400160405280601f8152602001600080516020613ac2833981519152815250906103245760405162461bcd60e51b815260040161023291906135ae565b5060008060005b8651811015610557576000600a01600088838151811061034d5761034d6135c1565b602002602001015160000151815260200190815260200160002060000154600014156040518060400160405280601e81526020017f4576656e743a2043617465676f727920646f6573206e6f742065786973740000815250906103c35760405162461bcd60e51b815260040161023291906135ae565b50876000600a0160008984815181106103de576103de6135c1565b6020026020010151600001518152602001908152602001600020600701541460405180606001604052806029815260200161396f60299139906104345760405162461bcd60e51b815260040161023291906135ae565b50868181518110610447576104476135c1565b6020026020010151602001518361045e91906135ed565b92506000600a016000888381518110610479576104796135c1565b602002602001015160000151815260200190815260200160002060040154836000600a0160008a85815181106104b1576104b16135c1565b6020026020010151600001518152602001908152602001600020600201805490506104dc91906135ed565b1115604051806060016040528060238152602001613bcc60239139906105155760405162461bcd60e51b815260040161023291906135ae565b506000925086818151811061052c5761052c6135c1565b6020026020010151602001518261054391906135ed565b91508061054f81613600565b91505061032b565b5060008060008060005b8a518110156107905760005b8b828151811061057f5761057f6135c1565b60200260200101516020015181101561077d5760008d8152600c602052604090208b516105c9908d90899081106105b8576105b86135c1565b602002602001015160000151612288565b6105ef8d89815181106105de576105de6135c1565b602002602001015160200151612288565b604051602001610600929190613619565b60408051601f198184030181529082905261061a91613648565b90815260408051918290036020908101832054838301909252601583527422bb32b73a1d10283630b1b29034b9903a30b5b2b760591b9083015260ff16156106755760405162461bcd60e51b815260040161023291906135ae565b5060006001600160a01b03168b8781518110610693576106936135c1565b6020026020010151604001516001600160a01b0316146106d6578a86815181106106bf576106bf6135c1565b6020026020010151604001519350600192506106de565b309350600092505b61075e8d8d84815181106106f4576106f46135c1565b602002602001015160000151878e8a81518110610713576107136135c1565b6020026020010151600001518f8b81518110610731576107316135c1565b6020026020010151602001518f8c8151811061074f5761074f6135c1565b6020026020010151898b612390565b6107696001876135ed565b95508061077581613600565b91505061056d565b508061078881613600565b915050610561565b50604080518c815260208101879052338183015290517f0bf6beb306958fd2b5107d64b133ea297e354c91e8508878a9a4abb9206d82289181900360600190a15050505050505050505050565b600083815260026020908152604091829020548251808401909352601b8352600080516020613a45833981519152918301919091528491906001600160a01b031661083b5760405162461bcd60e51b815260040161023291906135ae565b5061084884600033612256565b80610867575061086784600080516020613ae283398151915233612256565b6040518060600160405280602a8152602001613945602a91399061089e5760405162461bcd60e51b815260040161023291906135ae565b508251158015906108af5750815115155b604051806060016040528060258152602001613b8260259139906108e65760405162461bcd60e51b815260040161023291906135ae565b5081518351146040518060400160405280601f8152602001600080516020613ac28339815191528152509061092e5760405162461bcd60e51b815260040161023291906135ae565b5060005b8351811015610a865760115483516001600160a01b03909116906323b872dd903090869085908110610966576109666135c1565b6020026020010151878581518110610980576109806135c1565b60209081029190910101516040516001600160e01b031960e086901b1681526001600160a01b0393841660048201529290911660248301526044820152606401600060405180830381600087803b1580156109da57600080fd5b505af11580156109ee573d6000803e3d6000fd5b505060115486516001600160a01b03909116925063dd4670649150869084908110610a1b57610a1b6135c1565b60200260200101516040518263ffffffff1660e01b8152600401610a4191815260200190565b600060405180830381600087803b158015610a5b57600080fd5b505af1158015610a6f573d6000803e3d6000fd5b505050508080610a7e90613600565b915050610932565b507fc47e064bd57c3620a43c1e4ac852f9185e9582f40bdd973a20f4c1bf520f38a5848333604051610aba93929190613664565b60405180910390a150505050565b825160001415604051806060016040528060258152602001613b826025913990610b055760405162461bcd60e51b815260040161023291906135ae565b5080518251146040518060400160405280601f8152602001600080516020613ac283398151915281525090610b4d5760405162461bcd60e51b815260040161023291906135ae565b50610b588585612581565b60008060005b8551811015610bf35760009150610b8f87878381518110610b8157610b816135c1565b60200260200101518461287a565b858181518110610ba157610ba16135c1565b602002602001015160000151868281518110610bbf57610bbf6135c1565b602002602001015160200151610bd591906136d0565b610bdf90846135ed565b925080610beb81613600565b915050610b5e565b503482146040518060600160405280602381526020016139226023913990610c2e5760405162461bcd60e51b815260040161023291906135ae565b506000805b8651811015610dd95760005b878281518110610c5157610c516135c1565b602002602001015160000151811015610dc65760008a8152600c602052604090208751610c8a908990869081106105b8576105b86135c1565b610c9f8986815181106105de576105de6135c1565b604051602001610cb0929190613619565b60408051601f1981840301815290829052610cca91613648565b90815260408051918290036020908101832054838301909252601583527422bb32b73a1d10283630b1b29034b9903a30b5b2b760591b9083015260ff1615610d255760405162461bcd60e51b815260040161023291906135ae565b50610da78a8a8a8581518110610d3d57610d3d6135c1565b6020026020010151602001518a8781518110610d5b57610d5b6135c1565b6020026020010151600001518b8881518110610d7957610d796135c1565b6020026020010151602001518b8981518110610d9757610d976135c1565b6020026020010151600033612390565b610db26001846135ed565b925080610dbe81613600565b915050610c3f565b5080610dd181613600565b915050610c33565b505050505050505050565b600082815260026020908152604091829020548251808401909352601b8352600080516020613a45833981519152918301919091528391906001600160a01b0316610e425760405162461bcd60e51b815260040161023291906135ae565b50610e4f83600033612256565b80610e6e5750610e6e83600080516020613ae283398151915233612256565b6040518060600160405280602a8152602001613945602a913990610ea55760405162461bcd60e51b815260040161023291906135ae565b506000838152600960209081526040808320600401805460018181018355918552938390208651600290950201848155928601519201805460ff841660ff19909116179055517f6acb6edf217693871c0a1b4dc7f139e64435ab88c84cdc94a85daf36cd06849c92610f2a92878352602083019190915260ff16604082015260600190565b60405180910390a1505050565b8051600081815260026020908152604091829020548251808401909352601b8352600080516020613a45833981519152918301919091526001600160a01b0316610f945760405162461bcd60e51b815260040161023291906135ae565b506020808301516000818152600a8352604090819020548151808301909252601e82527f4576656e743a2043617465676f727920646f6573206e6f742065786973740000938201939093529091610ffe5760405162461bcd60e51b815260040161023291906135ae565b5082600001518360200151816000600a016000838152602001908152602001600020600701541460405180606001604052806029815260200161396f602991399061105c5760405162461bcd60e51b815260040161023291906135ae565b5084602001518560400151806000600d01600084815260200190815260200160002054146040518060600160405280602c8152602001613a65602c9139906110b75760405162461bcd60e51b815260040161023291906135ae565b50865160009081526009602090815260409182902060040154825160608101909352602280845290159291613b6090830139906111075760405162461bcd60e51b815260040161023291906135ae565b5060008061111d89600001518a60400151612aa7565b91509150816040518060400160405280601a81526020017f4576656e743a20526566756e642064617465206973206f766572000000000000815250906111765760405162461bcd60e51b815260040161023291906135ae565b50604089810180516000908152601060209081528382203383529052828120849055601154915192516024810193909352306044840152916001600160a01b039091169060640160408051601f198184030181529181526020820180516001600160e01b031663e64478c160e01b179052516111f29190613648565b600060405180830381855af49150503d806000811461122d576040519150601f19603f3d011682016040523d82523d6000602084013e611232565b606091505b50509050806040518060400160405280601d81526020017f4576656e743a20436f6e74726163742063616c6c2072657665727465640000008152509061128b5760405162461bcd60e51b815260040161023291906135ae565b506000805b6020808d01516000908152600a9091526040902060020154811015611308578b604001516000600a0160008e60200151815260200190815260200160002060020182815481106112e2576112e26135c1565b9060005260206000200154036112f6578091505b8061130081613600565b915050611290565b506020808c0180516000908152600a90925260408083209151835290912060029081015491019061133b906001906136e7565b8154811061134b5761134b6135c1565b90600052602060002001546000600a0160008d6020015181526020019081526020016000206002018281548110611384576113846135c1565b60009182526020808320909101929092558c8201518152600a909152604090206002018054806113b6576113b66136fa565b6000828152602080822060001990840181018390559092019092558c518252600c90526040808220601154828f01519251633ee1bcfd60e11b8152600481019390935292935091611464916001600160a01b0390911690637dc379fa90602401600060405180830381865afa158015611433573d6000803e3d6000fd5b505050506040513d6000823e601f3d908101601f1916820160405261145b9190810190613710565b60600151612288565b60115460408e8101519051633ee1bcfd60e11b815260048101919091526114e6916001600160a01b031690637dc379fa90602401600060405180830381865afa1580156114b5573d6000803e3d6000fd5b505050506040513d6000823e601f3d908101601f191682016040526114dd9190810190613710565b60800151612288565b6040516020016114f7929190613619565b60408051601f198184030181529082905261151191613648565b9081526040805160209281900383019020805460ff1916931515939093179092558b516000908152600e825282812033825290915290812080546001929061155a9084906136e7565b9091555060009050805b8b516000908152600f602090815260408083203384529091529020548110156115df576040808d01518d516000908152600f60209081528382203383529052919091208054839081106115b9576115b96135c1565b9060005260206000200154036115cd578091505b806115d781613600565b915050611564565b506000600f0160008c6000015181526020019081526020016000206000336001600160a01b03166001600160a01b0316815260200190815260200160002060016000600f0160008e6000015181526020019081526020016000206000336001600160a01b03166001600160a01b031681526020019081526020016000208054905061166a91906136e7565b8154811061167a5761167a6135c1565b60009182526020808320909101548d518352600f8252604080842033855290925291208054839081106116af576116af6135c1565b60009182526020808320909101929092558c518152600f82526040808220338352909252208054806116e3576116e36136fa565b60019003818190600052602060002001600090559055507f87ff245f55dca5f20f12247f39f781d5710eda96984e49512daad7b675e414798a600001518b602001518c604001513360405161175a9493929190938452602084019290925260408301526001600160a01b0316606082015260800190565b60405180910390a150505050505050505050565b600081815260026020908152604091829020548251808401909352601b8352600080516020613a45833981519152918301919091528291906001600160a01b03166117cc5760405162461bcd60e51b815260040161023291906135ae565b506117f8827fff3317e1e0e8c784290b957ee9b65ea8fe96420c4819db463283b95ecbe4a3fe33612256565b6040518060600160405280603181526020016139c8603191399061182f5760405162461bcd60e51b815260040161023291906135ae565b5060008281526009602052604081206004015481908190810361186557600085815260096020526040902060020154925061194e565b60005b60008681526009602052604090206004015481101561194c5760008681526009602052604090206004018054829081106118a4576118a46135c1565b906000526020600020906002020160000154421161193a5760008681526009602052604090206004018054829081106118df576118df6135c1565b600091825260208083206002928302016001015489845260099091526040909220015460ff90911693506119139084612c76565b6000878152600960205260409020600201549092506119339083906136e7565b935061194c565b8061194481613600565b915050611868565b505b6000858152600960205260408120600201805485929061196f9084906136e7565b9091555050604051600090339085908381818185875af1925050503d80600081146119b6576040519150601f19603f3d011682016040523d82523d6000602084013e6119bb565b606091505b50509050806040518060600160405280602981526020016139f960299139906119f75760405162461bcd60e51b815260040161023291906135ae565b506040518681527feea9f2e0c73d19e23063194ae9ba8512a252b6c0bd44e31315f611c5efaa8f0b9060200160405180910390a1505050505050565b600082815260026020908152604091829020548251808401909352601b8352600080516020613a45833981519152918301919091528391906001600160a01b0316611a915760405162461bcd60e51b815260040161023291906135ae565b50611a9e83600033612256565b80611abd5750611abd83600080516020613ae283398151915233612256565b80611aee5750611aee837fb5a7f51d0593e853ad0aa6b718ee0bdd10c4966eb62d243b69d538e5823d040133612256565b604051806060016040528060388152602001613b286038913990611b255760405162461bcd60e51b815260040161023291906135ae565b5042611b3084612cf3565b6001600160401b031611158015611b58575042611b4c84612d79565b6001600160401b031610155b604051806060016040528060258152602001613ba76025913990611b8f5760405162461bcd60e51b815260040161023291906135ae565b50601154604051600091600191606091849182916001600160a01b031690611bc19030908a90889088906024016137e9565b60408051601f198184030181529181526020820180516001600160e01b0316631e27140560e01b17905251611bf69190613648565b6000604051808303816000865af19150503d8060008114611c33576040519150601f19603f3d011682016040523d82523d6000602084013e611c38565b606091505b5091509150816040518060400160405280601d81526020017f4576656e743a20436f6e74726163742063616c6c20726576657274656400000081525090611c925760405162461bcd60e51b815260040161023291906135ae565b5080806020019051810190611ca79190613820565b9450846040518060400160405280601881526020017f4576656e743a20436c6970207469636b6574206572726f72000000000000000081525090611cfe5760405162461bcd60e51b815260040161023291906135ae565b506040805189815260208101899052338183015290517f73b94823b249d530a2b7223a82b4ae3a07a452eb37749ebe162f8bba7fb01f559181900360600190a15050505050505050565b60008281526009602090815260409182902060040154825160608101909352602280845290159291613b609083013990611d955760405162461bcd60e51b815260040161023291906135ae565b50600081815260106020908152604080832033845282528083205485845260099092528220600201805491928392611dce9084906136e7565b9091555050604051600090339083908381818185875af1925050503d8060008114611e15576040519150601f19603f3d011682016040523d82523d6000602084013e611e1a565b606091505b5050905080604051806060016040528060238152602001613a226023913990611e565760405162461bcd60e51b815260040161023291906135ae565b50604080518481523360208201527fa454a872564530477ec0ade23bb2eadb5f61aeb76fb1f727d3f6c3a770f83da49101610aba565b6000818152600f60209081526040808320338452825291829020805483518184028101840190945280845260609392830182828015611eea57602002820191906000526020600020905b815481526020019060010190808311611ed6575b50505050509050919050565b82518451146040518060400160405280601f8152602001600080516020613ac283398151915281525090611f3d5760405162461bcd60e51b815260040161023291906135ae565b5080518251146040518060400160405280601f8152602001600080516020613ac283398151915281525090611f855760405162461bcd60e51b815260040161023291906135ae565b5060008060005b855181101561207457611fd9878281518110611faa57611faa6135c1565b602002602001015160000151888381518110611fc857611fc86135c1565b602002602001015160200151612581565b60009150612010878281518110611ff257611ff26135c1565b602002602001015160200151878381518110610b8157610b816135c1565b858181518110612022576120226135c1565b602002602001015160000151868281518110612040576120406135c1565b60200260200101516020015161205691906136d0565b61206090846135ed565b92508061206c81613600565b915050611f8c565b5034821460405180606001604052806023815260200161392260239139906120af5760405162461bcd60e51b815260040161023291906135ae565b506000805b875181101561224c5760005b8782815181106120d2576120d26135c1565b602002602001015160000151811015612239576000600c0160008a84815181106120fe576120fe6135c1565b602002602001015160000151815260200190815260200160002061212d8885815181106105b8576105b86135c1565b6121428986815181106105de576105de6135c1565b604051602001612153929190613619565b60408051601f198184030181529082905261216d91613648565b90815260408051918290036020908101832054838301909252601583527422bb32b73a1d10283630b1b29034b9903a30b5b2b760591b9083015260ff16156121c85760405162461bcd60e51b815260040161023291906135ae565b5061221a8983815181106121de576121de6135c1565b6020026020010151600001518a84815181106121fc576121fc6135c1565b6020026020010151602001518a8581518110610d3d57610d3d6135c1565b6122256001846135ed565b92508061223181613600565b9150506120c0565b508061224481613600565b9150506120b4565b5050505050505050565b60009283526012602090815260408085209385529281528284206001600160a01b039290921684525290205460ff1690565b6060816000036122af5750506040805180820190915260018152600360fc1b602082015290565b8160005b81156122d957806122c381613600565b91506122d29050600a8361385f565b91506122b3565b6000816001600160401b038111156122f3576122f3612e07565b6040519080825280601f01601f19166020018201604052801561231d576020820181803683370190505b5090505b8415612388576123326001836136e7565b915061233f600a86613873565b61234a9060306135ed565b60f81b81838151811061235f5761235f6135c1565b60200101906001600160f81b031916908160001a905350612381600a8661385f565b9450612321565b949350505050565b600088815260096020526040812060020180548892906123b19084906135ed565b9091555050601154604051639b69ff0960e01b81526000916001600160a01b031690639b69ff09906123f5908c908c908c908c908c908c908c908c90600401613887565b6020604051808303816000875af1158015612414573d6000803e3d6000fd5b505050506040513d601f19601f8201168201806040525081019061243891906138df565b6000898152600a60209081526040822060020180546001810182559083529082200182905590915061246987612288565b61247287612288565b604051602001612483929190613619565b60408051601f1981840301815282825260008d8152600c602052919091209092506001916124b2908490613648565b9081526040805160209281900383019020805460ff19169315159390931790925560008b8152600d82528281208590558c8152600e82528281206001600160a01b038716825290915290812080546001929061250f9084906135ed565b909155505060008a8152600f602090815260408083206001600160a01b0387168085529083528184208054600181018255908552938390209093018590558051858152918201929092527f6606e4c8a88792ed4fd5159f9be235ca78e87fc1cbdc6158ea92d3ed3be9bf72910161175a565b6000828152600260205260409020546001600160a01b031615156040518060400160405280601b8152602001600080516020613a45833981519152815250906125dd5760405162461bcd60e51b815260040161023291906135ae565b506000818152600a6020908152604091829020548251808401909352601e83527f4576656e743a2043617465676f727920646f6573206e6f742065786973740000918301919091526126425760405162461bcd60e51b815260040161023291906135ae565b50816000600a016000838152602001908152602001600020600701541460405180606001604052806029815260200161396f60299139906126965760405162461bcd60e51b815260040161023291906135ae565b5060008281526009602090815260409182902060030154825160608101909352603180845260ff90911615156001149291613a9190830139906126ec5760405162461bcd60e51b815260040161023291906135ae565b506000818152600a6020908152604091829020600c0154825160608101909352603080845260ff9091161515600114929161399890830139906127425760405162461bcd60e51b815260040161023291906135ae565b504261274d83612cf3565b6001600160401b03161115801561277557504261276983612d79565b6001600160401b031610155b604051806060016040528060268152602001613bef60269139906127ac5760405162461bcd60e51b815260040161023291906135ae565b506000818152600a602052604090206005015442108015906127df57506000818152600a60205260409020600601544211155b6040518060600160405280602981526020016138f960299139906128165760405162461bcd60e51b815260040161023291906135ae565b50600082815260096020908152604080832060010154600e83528184203385528352928190205481516060810190925260268083529311929091613b0290830139906128755760405162461bcd60e51b815260040161023291906135ae565b505050565b815161288690826135ed565b6000848152600a602052604090206004810154600290910154919250906128ae9083906135ed565b1115604051806060016040528060238152602001613bcc60239139906128e75760405162461bcd60e51b815260040161023291906135ae565b506000838152600a602052604090206008015415612a3f5760005b6000848152600a6020526040902060080154811015612a395782516000858152600a60205260409020600801805483908110612940576129406135c1565b906000526020600020015403612a27576000848152600a60205260408120600901805483908110612973576129736135c1565b9060005260206000200154606461298a91906136d0565b6000868152600a6020526040812060030154919250906129aa9083612c76565b6020808701516000898152600a909252604090912060030154919250906129d29083906136e7565b14604051806040016040528060198152602001784576656e743a2057726f6e67207469636b657420707269636560381b81525090612a235760405162461bcd60e51b815260040161023291906135ae565b5050505b80612a3181613600565b915050612902565b50505050565b6020808301516000858152600a835260409081902060030154815180830190925260198252784576656e743a2057726f6e67207469636b657420707269636560381b938201939093529114612a395760405162461bcd60e51b815260040161023291906135ae565b60008060008060005b600087815260096020526040902060040154811015612c6b576000878152600960205260409020600401805482908110612aec57612aec6135c1565b9060005260206000209060020201600001544211612c595760115460008881526009602052604081206004018054919283926001600160a01b03909116918a9186908110612b3c57612b3c6135c1565b6000918252602090912060029091020160010154604051602481019290925260ff16604482015260640160408051601f198184030181529181526020820180516001600160e01b0316633f376ea560e11b17905251612b9b9190613648565b6000604051808303816000865af19150503d8060008114612bd8576040519150601f19603f3d011682016040523d82523d6000602084013e612bdd565b606091505b5091509150816040518060400160405280601d81526020017f4576656e743a20436f6e74726163742063616c6c20726576657274656400000081525090612c375760405162461bcd60e51b815260040161023291906135ae565b506001935080806020019051810190612c5091906138df565b94505050612c6b565b80612c6381613600565b915050612ab0565b509590945092505050565b6000612710612c8583856136d0565b1015612cd35760405162461bcd60e51b815260206004820152601760248201527f50657263656e746167653a20526f756e647320746f20300000000000000000006044820152606401610232565b612710612ce083856136d0565b612cea919061385f565b90505b92915050565b60008181526002602052604081205481906001600160a01b0316612d545760405162461bcd60e51b8152602060048201526018602482015277115490cd4c0c0dce88125b9d985b1a59081d1bdad95b925960421b6044820152606401610232565b600092835260090160205250604090206003015461010090046001600160401b031690565b60008181526002602052604081205481906001600160a01b0316612dda5760405162461bcd60e51b8152602060048201526018602482015277115490cd4c0c0dce88125b9d985b1a59081d1bdad95b925960421b6044820152606401610232565b6000928352600901602052506040902060030154690100000000000000000090046001600160401b031690565b634e487b7160e01b600052604160045260246000fd5b604080519081016001600160401b0381118282101715612e3f57612e3f612e07565b60405290565b604051606081016001600160401b0381118282101715612e3f57612e3f612e07565b60405160c081016001600160401b0381118282101715612e3f57612e3f612e07565b604051601f8201601f191681016001600160401b0381118282101715612eb157612eb1612e07565b604052919050565b60006001600160401b03821115612ed257612ed2612e07565b5060051b60200190565b6000612eef612eea84612eb9565b612e89565b8381529050602080820190600685901b840186811115612f0e57600080fd5b845b81811015612f4b5760408189031215612f295760008081fd5b612f31612e1d565b813581528382013584820152845292820192604001612f10565b505050509392505050565b80356001600160a01b0381168114612f6d57600080fd5b919050565b60006001600160401b03821115612f8b57612f8b612e07565b50601f01601f191660200190565b600082601f830112612faa57600080fd5b81356020612fba612eea83612eb9565b82815260059290921b84018101918181019086841115612fd957600080fd5b8286015b848110156130575780356001600160401b03811115612ffc5760008081fd5b8701603f8101891361300e5760008081fd5b848101356040613020612eea83612f72565b8281528b828486010111156130355760008081fd5b8282850189830137600092810188019290925250845250918301918301612fdd565b509695505050505050565b6000806000806080858703121561307857600080fd5b843593506020808601356001600160401b038082111561309757600080fd5b818801915088601f8301126130ab57600080fd5b6130b9898335858501612edc565b95506040915081880135818111156130d057600080fd5b8801601f81018a136130e157600080fd5b80356130ef612eea82612eb9565b8181526060918202830186019186820191908d84111561310e57600080fd5b938701935b8385101561315d5780858f03121561312b5760008081fd5b613133612e45565b85358152888601358982015261314a888701612f56565b8189015283529384019391870191613113565b9098508b013595505050508083111561317557600080fd5b505061318387828801612f99565b91505092959194509250565b600082601f8301126131a057600080fd5b813560206131b0612eea83612eb9565b82815260059290921b840181019181810190868411156131cf57600080fd5b8286015b84811015613057576131e481612f56565b83529183019183016131d3565b60008060006060848603121561320657600080fd5b833592506020808501356001600160401b038082111561322557600080fd5b818701915087601f83011261323957600080fd5b8135613247612eea82612eb9565b81815260059190911b8301840190848101908a83111561326657600080fd5b938501935b828510156132845784358252938501939085019061326b565b96505050604087013592508083111561329c57600080fd5b50506132aa8682870161318f565b9150509250925092565b600082601f8301126132c557600080fd5b612cea83833560208501612edc565b600080600080600060a086880312156132ec57600080fd5b853594506020860135935060408601356001600160401b038082111561331157600080fd5b61331d89838a016132b4565b9450606088013591508082111561333357600080fd5b61333f89838a016132b4565b9350608088013591508082111561335557600080fd5b5061336288828901612f99565b9150509295509295909350565b600080828403606081121561338357600080fd5b833592506040601f198201121561339957600080fd5b506133a2612e1d565b60208401358152604084013560ff811681146133bd57600080fd5b6020820152919491935090915050565b6000606082840312156133df57600080fd5b604051606081018181106001600160401b038211171561340157613401612e07565b80604052508235815260208301356020820152604083013560408201528091505092915050565b60006020828403121561343a57600080fd5b5035919050565b6000806040838503121561345457600080fd5b50508035926020909101359150565b6020808252825182820181905260009190848201906040850190845b8181101561349b5783518352928401929184019160010161347f565b50909695505050505050565b600080600080608085870312156134bd57600080fd5b84356001600160401b03808211156134d457600080fd5b818701915087601f8301126134e857600080fd5b6134f788833560208501612edc565b9550602087013591508082111561350d57600080fd5b613519888389016132b4565b9450604087013591508082111561352f57600080fd5b61353b888389016132b4565b9350606087013591508082111561355157600080fd5b5061318387828801612f99565b60005b83811015613579578181015183820152602001613561565b50506000910152565b6000815180845261359a81602086016020860161355e565b601f01601f19169290920160200192915050565b602081526000612cea6020830184613582565b634e487b7160e01b600052603260045260246000fd5b634e487b7160e01b600052601160045260246000fd5b80820180821115612ced57612ced6135d7565b600060018201613612576136126135d7565b5060010190565b6000835161362b81846020880161355e565b83519083019061363f81836020880161355e565b01949350505050565b6000825161365a81846020870161355e565b9190910192915050565b6000606082018583526020606081850152818651808452608086019150828801935060005b818110156136ae5784516001600160a01b031683529383019391830191600101613689565b50506001600160a01b0395909516604094909401939093525091949350505050565b8082028115828204841417612ced57612ced6135d7565b81810381811115612ced57612ced6135d7565b634e487b7160e01b600052603160045260246000fd5b6000602080838503121561372357600080fd5b82516001600160401b038082111561373a57600080fd5b9084019060c0828703121561374e57600080fd5b613756612e67565b82518152838301518482015260408301516040820152606083015160608201526080830151608082015260a08301518281111561379257600080fd5b80840193505086601f8401126137a757600080fd5b825191506137b7612eea83612f72565b82815287858486010111156137cb57600080fd5b6137da8386830187870161355e565b60a08201529695505050505050565b60018060a01b03851681528360208201528260408201526080606082015260006138166080830184613582565b9695505050505050565b60006020828403121561383257600080fd5b8151801515811461384257600080fd5b9392505050565b634e487b7160e01b600052601260045260246000fd5b60008261386e5761386e613849565b500490565b60008261388257613882613849565b500690565b60006101008a83528960208401528860408401528760608401528660808401528060a08401526138b981840187613582565b94151560c084015250506001600160a01b039190911660e0909101529695505050505050565b6000602082840312156138f157600080fd5b505191905056fe4576656e743a2043616e277420627579207469636b65747320666f722063617465676f7279207965744576656e743a204d73672076616c7565206e6f7420657120746f74616c2070726963654576656e743a2043616c6c6572206973206e6f7420616e2061646d696e206f72206d6f64657261746f724576656e743a20546869732063617465676f727920697320666f7220616e6f74686572206576656e744576656e743a205469636b65747320666f7220746869732063617465676f727920617265206e6f742062757961626c654576656e743a204f6e6c7920636173686965722063616e20776974686472617720636f6e74726163742062616c616e63654576656e743a20436f6e74726163742062616c616e63652077697468647261772072657665727465644576656e743a2041636320726566756e642077697468647261772072657665727465644576656e743a204576656e7420646f6573206e6f7420657869737400000000004576656e743a205469636b657420646f65736e277420657869737420696e20746869732063617465676f72794576656e743a205469636b65747320666f7220616c6c2063617465676f7269657320617265206e6f742062757961626c654576656e743a20506172616d6574657273206c656e677468206e6f742065710071f3d55856e4058ed06ee057d79ada615f65cdf5f9ee88181b914225088f834f4576656e743a204d6178207469636b65747320666f72206163636f756e7420726561636865644576656e743a2043616c6c6572206973206e6f7420616e2061646d696e2c206d6f64657261746f72206f7220726563657074696f6e6973744576656e743a2043616e277420726566756e6420666f722074686973206576656e744576656e743a20506172616d657465722061727261792063616e277420626520656d7074794576656e743a2057726f6e67206461746520666f72207469636b657420636c697070696e674576656e743a204d6178207469636b65747320636f756e7420697320726561636865644576656e743a2043616e277420627579207469636b65747320666f72206576656e7420796574a2646970667358221220c5139003c5d55ce80904e8b5ab145f2087ad80de45e45e58d96a445060d2e21664736f6c63430008110033",
  "linkReferences": {},
  "deployedLinkReferences": {}
}