{
  "_format": "hh-sol-artifact-1",
  "contractName": "EventFacet",
  "sourceName": "contracts/EventDiamond/facets/EventFacet.sol",
  "abi": [
    {
      "inputs": [
        {
          "internalType": "string",
          "name": "_name",
          "type": "string"
        },
        {
          "internalType": "string",
          "name": "_symbol",
          "type": "string"
        },
        {
          "internalType": "address",
          "name": "_ticketContract",
          "type": "address"
        }
      ],
      "stateMutability": "nonpayable",
      "type": "constructor"
    },
    {
      "anonymous": false,
      "inputs": [
        {
          "indexed": false,
          "internalType": "uint256",
          "name": "eventId",
          "type": "uint256"
        }
      ],
      "name": "AllCategorySellStarted",
      "type": "event"
    },
    {
      "anonymous": false,
      "inputs": [
        {
          "indexed": false,
          "internalType": "uint256",
          "name": "eventId",
          "type": "uint256"
        }
      ],
      "name": "AllCategorySellStopped",
      "type": "event"
    },
    {
      "anonymous": false,
      "inputs": [
        {
          "indexed": true,
          "internalType": "address",
          "name": "owner",
          "type": "address"
        },
        {
          "indexed": true,
          "internalType": "address",
          "name": "approved",
          "type": "address"
        },
        {
          "indexed": true,
          "internalType": "uint256",
          "name": "tokenId",
          "type": "uint256"
        }
      ],
      "name": "Approval",
      "type": "event"
    },
    {
      "anonymous": false,
      "inputs": [
        {
          "indexed": true,
          "internalType": "address",
          "name": "owner",
          "type": "address"
        },
        {
          "indexed": true,
          "internalType": "address",
          "name": "operator",
          "type": "address"
        },
        {
          "indexed": false,
          "internalType": "bool",
          "name": "approved",
          "type": "bool"
        }
      ],
      "name": "ApprovalForAll",
      "type": "event"
    },
    {
      "anonymous": false,
      "inputs": [
        {
          "indexed": false,
          "internalType": "uint256",
          "name": "_fromTokenId",
          "type": "uint256"
        },
        {
          "indexed": false,
          "internalType": "uint256",
          "name": "_toTokenId",
          "type": "uint256"
        }
      ],
      "name": "BatchMetadataUpdate",
      "type": "event"
    },
    {
      "anonymous": false,
      "inputs": [
        {
          "indexed": false,
          "internalType": "uint256",
          "name": "eventId",
          "type": "uint256"
        },
        {
          "indexed": false,
          "internalType": "uint256",
          "name": "categoryId",
          "type": "uint256"
        },
        {
          "indexed": false,
          "internalType": "string",
          "name": "categoryCid",
          "type": "string"
        }
      ],
      "name": "CategoryCreated",
      "type": "event"
    },
    {
      "anonymous": false,
      "inputs": [
        {
          "indexed": false,
          "internalType": "uint256",
          "name": "eventId",
          "type": "uint256"
        },
        {
          "indexed": false,
          "internalType": "uint256",
          "name": "categoryId",
          "type": "uint256"
        }
      ],
      "name": "CategoryDeleted",
      "type": "event"
    },
    {
      "anonymous": false,
      "inputs": [
        {
          "indexed": false,
          "internalType": "uint256",
          "name": "eventId",
          "type": "uint256"
        },
        {
          "indexed": false,
          "internalType": "uint256",
          "name": "categoryId",
          "type": "uint256"
        },
        {
          "indexed": false,
          "internalType": "address",
          "name": "staffMember",
          "type": "address"
        }
      ],
      "name": "CategorySaleDatesUpdated",
      "type": "event"
    },
    {
      "anonymous": false,
      "inputs": [
        {
          "indexed": false,
          "internalType": "uint256",
          "name": "eventId",
          "type": "uint256"
        },
        {
          "indexed": false,
          "internalType": "uint256",
          "name": "categoryId",
          "type": "uint256"
        }
      ],
      "name": "CategorySellStarted",
      "type": "event"
    },
    {
      "anonymous": false,
      "inputs": [
        {
          "indexed": false,
          "internalType": "uint256",
          "name": "eventId",
          "type": "uint256"
        },
        {
          "indexed": false,
          "internalType": "uint256",
          "name": "categoryId",
          "type": "uint256"
        }
      ],
      "name": "CategorySellStopped",
      "type": "event"
    },
    {
      "anonymous": false,
      "inputs": [
        {
          "indexed": false,
          "internalType": "uint256",
          "name": "eventId",
          "type": "uint256"
        },
        {
          "indexed": false,
          "internalType": "uint256",
          "name": "categoryId",
          "type": "uint256"
        },
        {
          "indexed": false,
          "internalType": "uint256",
          "name": "ticketsCount",
          "type": "uint256"
        }
      ],
      "name": "CategoryTicketsAdded",
      "type": "event"
    },
    {
      "anonymous": false,
      "inputs": [
        {
          "indexed": false,
          "internalType": "uint256",
          "name": "eventId",
          "type": "uint256"
        },
        {
          "indexed": false,
          "internalType": "uint256",
          "name": "categoryId",
          "type": "uint256"
        },
        {
          "indexed": false,
          "internalType": "uint256",
          "name": "ticketsCount",
          "type": "uint256"
        }
      ],
      "name": "CategoryTicketsRemoved",
      "type": "event"
    },
    {
      "anonymous": false,
      "inputs": [
        {
          "indexed": false,
          "internalType": "uint256",
          "name": "eventId",
          "type": "uint256"
        },
        {
          "indexed": false,
          "internalType": "uint256",
          "name": "categoryId",
          "type": "uint256"
        }
      ],
      "name": "CategoryUpdated",
      "type": "event"
    },
    {
      "anonymous": false,
      "inputs": [
        {
          "indexed": true,
          "internalType": "uint256",
          "name": "fromTokenId",
          "type": "uint256"
        },
        {
          "indexed": false,
          "internalType": "uint256",
          "name": "toTokenId",
          "type": "uint256"
        },
        {
          "indexed": true,
          "internalType": "address",
          "name": "fromAddress",
          "type": "address"
        },
        {
          "indexed": true,
          "internalType": "address",
          "name": "toAddress",
          "type": "address"
        }
      ],
      "name": "ConsecutiveTransfer",
      "type": "event"
    },
    {
      "anonymous": false,
      "inputs": [
        {
          "indexed": false,
          "internalType": "uint256",
          "name": "eventId",
          "type": "uint256"
        },
        {
          "indexed": false,
          "internalType": "address",
          "name": "account",
          "type": "address"
        },
        {
          "indexed": false,
          "internalType": "address",
          "name": "setter",
          "type": "address"
        }
      ],
      "name": "EventCashierSet",
      "type": "event"
    },
    {
      "anonymous": false,
      "inputs": [
        {
          "indexed": false,
          "internalType": "uint256",
          "name": "eventId",
          "type": "uint256"
        },
        {
          "indexed": false,
          "internalType": "string",
          "name": "metadataUri",
          "type": "string"
        }
      ],
      "name": "EventCreated",
      "type": "event"
    },
    {
      "anonymous": false,
      "inputs": [
        {
          "indexed": false,
          "internalType": "uint256",
          "name": "_tokenId",
          "type": "uint256"
        }
      ],
      "name": "MetadataUpdate",
      "type": "event"
    },
    {
      "anonymous": false,
      "inputs": [
        {
          "indexed": false,
          "internalType": "uint256",
          "name": "eventId",
          "type": "uint256"
        },
        {
          "indexed": true,
          "internalType": "bytes32",
          "name": "role",
          "type": "bytes32"
        },
        {
          "indexed": true,
          "internalType": "bytes32",
          "name": "previousAdminRole",
          "type": "bytes32"
        },
        {
          "indexed": true,
          "internalType": "bytes32",
          "name": "newAdminRole",
          "type": "bytes32"
        }
      ],
      "name": "RoleAdminChanged",
      "type": "event"
    },
    {
      "anonymous": false,
      "inputs": [
        {
          "indexed": false,
          "internalType": "uint256",
          "name": "eventId",
          "type": "uint256"
        },
        {
          "indexed": true,
          "internalType": "bytes32",
          "name": "role",
          "type": "bytes32"
        },
        {
          "indexed": true,
          "internalType": "address",
          "name": "account",
          "type": "address"
        },
        {
          "indexed": true,
          "internalType": "address",
          "name": "sender",
          "type": "address"
        }
      ],
      "name": "RoleGranted",
      "type": "event"
    },
    {
      "anonymous": false,
      "inputs": [
        {
          "indexed": false,
          "internalType": "uint256",
          "name": "eventId",
          "type": "uint256"
        },
        {
          "indexed": true,
          "internalType": "bytes32",
          "name": "role",
          "type": "bytes32"
        },
        {
          "indexed": true,
          "internalType": "address",
          "name": "account",
          "type": "address"
        },
        {
          "indexed": true,
          "internalType": "address",
          "name": "sender",
          "type": "address"
        }
      ],
      "name": "RoleRevoked",
      "type": "event"
    },
    {
      "anonymous": false,
      "inputs": [
        {
          "indexed": false,
          "internalType": "uint256",
          "name": "eventId",
          "type": "uint256"
        },
        {
          "indexed": false,
          "internalType": "uint256",
          "name": "categoryId",
          "type": "uint256"
        },
        {
          "indexed": false,
          "internalType": "uint256",
          "name": "ticketId",
          "type": "uint256"
        },
        {
          "indexed": false,
          "internalType": "address",
          "name": "staffMember",
          "type": "address"
        }
      ],
      "name": "TicketClipped",
      "type": "event"
    },
    {
      "anonymous": false,
      "inputs": [
        {
          "indexed": false,
          "internalType": "uint256",
          "name": "eventId",
          "type": "uint256"
        },
        {
          "indexed": false,
          "internalType": "uint256",
          "name": "categoryId",
          "type": "uint256"
        },
        {
          "indexed": false,
          "internalType": "uint256",
          "name": "ticketCount",
          "type": "uint256"
        },
        {
          "indexed": false,
          "internalType": "address[]",
          "name": "accounts",
          "type": "address[]"
        },
        {
          "indexed": false,
          "internalType": "address",
          "name": "staffMember",
          "type": "address"
        }
      ],
      "name": "TicketsBooked",
      "type": "event"
    },
    {
      "anonymous": false,
      "inputs": [
        {
          "indexed": true,
          "internalType": "address",
          "name": "from",
          "type": "address"
        },
        {
          "indexed": true,
          "internalType": "address",
          "name": "to",
          "type": "address"
        },
        {
          "indexed": true,
          "internalType": "uint256",
          "name": "tokenId",
          "type": "uint256"
        }
      ],
      "name": "Transfer",
      "type": "event"
    },
    {
      "inputs": [],
      "name": "CASHIER_ROLE",
      "outputs": [
        {
          "internalType": "bytes32",
          "name": "",
          "type": "bytes32"
        }
      ],
      "stateMutability": "view",
      "type": "function"
    },
    {
      "inputs": [],
      "name": "DEFAULT_ADMIN_ROLE",
      "outputs": [
        {
          "internalType": "bytes32",
          "name": "",
          "type": "bytes32"
        }
      ],
      "stateMutability": "view",
      "type": "function"
    },
    {
      "inputs": [],
      "name": "MODERATOR_ROLE",
      "outputs": [
        {
          "internalType": "bytes32",
          "name": "",
          "type": "bytes32"
        }
      ],
      "stateMutability": "view",
      "type": "function"
    },
    {
      "inputs": [],
      "name": "RECEPTIONIST_ROLE",
      "outputs": [
        {
          "internalType": "bytes32",
          "name": "",
          "type": "bytes32"
        }
      ],
      "stateMutability": "view",
      "type": "function"
    },
    {
      "inputs": [],
      "name": "VALIDATOR_ROLE",
      "outputs": [
        {
          "internalType": "bytes32",
          "name": "",
          "type": "bytes32"
        }
      ],
      "stateMutability": "view",
      "type": "function"
    },
    {
      "inputs": [
        {
          "internalType": "uint256",
          "name": "_eventId",
          "type": "uint256"
        },
        {
          "internalType": "uint256",
          "name": "_categoryId",
          "type": "uint256"
        },
        {
          "internalType": "uint256",
          "name": "_ticketsCount",
          "type": "uint256"
        }
      ],
      "name": "addCategoryTicketsCount",
      "outputs": [],
      "stateMutability": "nonpayable",
      "type": "function"
    },
    {
      "inputs": [
        {
          "internalType": "uint256",
          "name": "_eventId",
          "type": "uint256"
        },
        {
          "internalType": "bytes32",
          "name": "_role",
          "type": "bytes32"
        },
        {
          "internalType": "address",
          "name": "_account",
          "type": "address"
        }
      ],
      "name": "addTeamMember",
      "outputs": [],
      "stateMutability": "nonpayable",
      "type": "function"
    },
    {
      "inputs": [
        {
          "internalType": "address",
          "name": "to",
          "type": "address"
        },
        {
          "internalType": "uint256",
          "name": "tokenId",
          "type": "uint256"
        }
      ],
      "name": "approve",
      "outputs": [],
      "stateMutability": "nonpayable",
      "type": "function"
    },
    {
      "inputs": [
        {
          "internalType": "address",
          "name": "owner",
          "type": "address"
        }
      ],
      "name": "balanceOf",
      "outputs": [
        {
          "internalType": "uint256",
          "name": "",
          "type": "uint256"
        }
      ],
      "stateMutability": "view",
      "type": "function"
    },
    {
      "inputs": [
        {
          "internalType": "uint256",
          "name": "_eventId",
          "type": "uint256"
        },
        {
          "internalType": "uint256",
          "name": "_categoryId",
          "type": "uint256"
        },
        {
          "internalType": "uint256",
          "name": "_ticketCount",
          "type": "uint256"
        },
        {
          "internalType": "address[]",
          "name": "_accounts",
          "type": "address[]"
        }
      ],
      "name": "bookTickets",
      "outputs": [],
      "stateMutability": "nonpayable",
      "type": "function"
    },
    {
      "inputs": [
        {
          "internalType": "uint256",
          "name": "_eventId",
          "type": "uint256"
        },
        {
          "internalType": "uint256",
          "name": "_categoryId",
          "type": "uint256"
        },
        {
          "internalType": "string",
          "name": "_ticketMetadataURI",
          "type": "string"
        },
        {
          "internalType": "uint256",
          "name": "amount",
          "type": "uint256"
        }
      ],
      "name": "buyTickets",
      "outputs": [],
      "stateMutability": "nonpayable",
      "type": "function"
    },
    {
      "inputs": [
        {
          "internalType": "uint256",
          "name": "_eventId",
          "type": "uint256"
        },
        {
          "internalType": "uint256",
          "name": "_categoryId",
          "type": "uint256"
        },
        {
          "internalType": "uint256",
          "name": "_ticketId",
          "type": "uint256"
        }
      ],
      "name": "clipTicket",
      "outputs": [],
      "stateMutability": "nonpayable",
      "type": "function"
    },
    {
      "inputs": [
        {
          "internalType": "uint256",
          "name": "_maxTicketsPerClient",
          "type": "uint256"
        },
        {
          "internalType": "string",
          "name": "_metadataURI",
          "type": "string"
        }
      ],
      "name": "createEvent",
      "outputs": [],
      "stateMutability": "nonpayable",
      "type": "function"
    },
    {
      "inputs": [
        {
          "internalType": "uint256",
          "name": "_eventId",
          "type": "uint256"
        },
        {
          "internalType": "string",
          "name": "_categoryCid",
          "type": "string"
        },
        {
          "internalType": "uint256",
          "name": "_saleStartDate",
          "type": "uint256"
        },
        {
          "internalType": "uint256",
          "name": "_saleEndDate",
          "type": "uint256"
        }
      ],
      "name": "createTicketCategory",
      "outputs": [],
      "stateMutability": "nonpayable",
      "type": "function"
    },
    {
      "inputs": [],
      "name": "fetchAllEventIds",
      "outputs": [
        {
          "internalType": "uint256[]",
          "name": "",
          "type": "uint256[]"
        }
      ],
      "stateMutability": "view",
      "type": "function"
    },
    {
      "inputs": [
        {
          "internalType": "uint256",
          "name": "_eventId",
          "type": "uint256"
        }
      ],
      "name": "fetchCategoriesByEventId",
      "outputs": [
        {
          "components": [
            {
              "internalType": "uint256",
              "name": "id",
              "type": "uint256"
            },
            {
              "internalType": "string",
              "name": "cid",
              "type": "string"
            },
            {
              "internalType": "uint256[]",
              "name": "ticketIds",
              "type": "uint256[]"
            },
            {
              "internalType": "uint256",
              "name": "saleStartDate",
              "type": "uint256"
            },
            {
              "internalType": "uint256",
              "name": "saleEndDate",
              "type": "uint256"
            },
            {
              "internalType": "bool",
              "name": "areTicketsBuyable",
              "type": "bool"
            }
          ],
          "internalType": "struct IEvent.Category[]",
          "name": "",
          "type": "tuple[]"
        }
      ],
      "stateMutability": "view",
      "type": "function"
    },
    {
      "inputs": [],
      "name": "fetchOwnedEvents",
      "outputs": [
        {
          "internalType": "uint256[]",
          "name": "",
          "type": "uint256[]"
        }
      ],
      "stateMutability": "view",
      "type": "function"
    },
    {
      "inputs": [
        {
          "internalType": "uint256",
          "name": "tokenId",
          "type": "uint256"
        }
      ],
      "name": "getApproved",
      "outputs": [
        {
          "internalType": "address",
          "name": "",
          "type": "address"
        }
      ],
      "stateMutability": "view",
      "type": "function"
    },
    {
      "inputs": [
        {
          "internalType": "uint256",
          "name": "eventId",
          "type": "uint256"
        }
      ],
      "name": "getEventMembers",
      "outputs": [
        {
          "components": [
            {
              "internalType": "address",
              "name": "account",
              "type": "address"
            },
            {
              "internalType": "bytes32",
              "name": "role",
              "type": "bytes32"
            }
          ],
          "internalType": "struct RoleControl.MemberData[]",
          "name": "",
          "type": "tuple[]"
        }
      ],
      "stateMutability": "view",
      "type": "function"
    },
    {
      "inputs": [
        {
          "internalType": "uint256",
          "name": "eventId",
          "type": "uint256"
        },
        {
          "internalType": "bytes32",
          "name": "role",
          "type": "bytes32"
        }
      ],
      "name": "getRoleAdmin",
      "outputs": [
        {
          "internalType": "bytes32",
          "name": "",
          "type": "bytes32"
        }
      ],
      "stateMutability": "view",
      "type": "function"
    },
    {
      "inputs": [
        {
          "internalType": "uint256",
          "name": "eventId",
          "type": "uint256"
        },
        {
          "internalType": "bytes32",
          "name": "role",
          "type": "bytes32"
        },
        {
          "internalType": "address",
          "name": "account",
          "type": "address"
        }
      ],
      "name": "grantRole",
      "outputs": [],
      "stateMutability": "nonpayable",
      "type": "function"
    },
    {
      "inputs": [
        {
          "internalType": "uint256",
          "name": "eventId",
          "type": "uint256"
        },
        {
          "internalType": "bytes32",
          "name": "role",
          "type": "bytes32"
        },
        {
          "internalType": "address",
          "name": "account",
          "type": "address"
        }
      ],
      "name": "hasRole",
      "outputs": [
        {
          "internalType": "bool",
          "name": "",
          "type": "bool"
        }
      ],
      "stateMutability": "view",
      "type": "function"
    },
    {
      "inputs": [
        {
          "internalType": "address",
          "name": "owner",
          "type": "address"
        },
        {
          "internalType": "address",
          "name": "operator",
          "type": "address"
        }
      ],
      "name": "isApprovedForAll",
      "outputs": [
        {
          "internalType": "bool",
          "name": "",
          "type": "bool"
        }
      ],
      "stateMutability": "view",
      "type": "function"
    },
    {
      "inputs": [],
      "name": "name",
      "outputs": [
        {
          "internalType": "string",
          "name": "",
          "type": "string"
        }
      ],
      "stateMutability": "view",
      "type": "function"
    },
    {
      "inputs": [
        {
          "internalType": "uint256",
          "name": "tokenId",
          "type": "uint256"
        }
      ],
      "name": "ownerOf",
      "outputs": [
        {
          "internalType": "address",
          "name": "",
          "type": "address"
        }
      ],
      "stateMutability": "view",
      "type": "function"
    },
    {
      "inputs": [
        {
          "internalType": "uint256",
          "name": "_eventId",
          "type": "uint256"
        },
        {
          "internalType": "uint256",
          "name": "_categoryId",
          "type": "uint256"
        }
      ],
      "name": "removeCategory",
      "outputs": [],
      "stateMutability": "nonpayable",
      "type": "function"
    },
    {
      "inputs": [
        {
          "internalType": "uint256",
          "name": "_eventId",
          "type": "uint256"
        },
        {
          "internalType": "uint256",
          "name": "_categoryId",
          "type": "uint256"
        },
        {
          "internalType": "uint256",
          "name": "_ticketsCount",
          "type": "uint256"
        }
      ],
      "name": "removeCategoryTicketsCount",
      "outputs": [],
      "stateMutability": "nonpayable",
      "type": "function"
    },
    {
      "inputs": [
        {
          "internalType": "uint256",
          "name": "_eventId",
          "type": "uint256"
        }
      ],
      "name": "removeEvent",
      "outputs": [],
      "stateMutability": "nonpayable",
      "type": "function"
    },
    {
      "inputs": [
        {
          "internalType": "uint256",
          "name": "_eventId",
          "type": "uint256"
        },
        {
          "internalType": "bytes32",
          "name": "_role",
          "type": "bytes32"
        },
        {
          "internalType": "address",
          "name": "_account",
          "type": "address"
        }
      ],
      "name": "removeTeamMember",
      "outputs": [],
      "stateMutability": "nonpayable",
      "type": "function"
    },
    {
      "inputs": [
        {
          "internalType": "uint256",
          "name": "eventId",
          "type": "uint256"
        },
        {
          "internalType": "bytes32",
          "name": "role",
          "type": "bytes32"
        },
        {
          "internalType": "address",
          "name": "account",
          "type": "address"
        }
      ],
      "name": "renounceRole",
      "outputs": [],
      "stateMutability": "nonpayable",
      "type": "function"
    },
    {
      "inputs": [
        {
          "internalType": "uint256",
          "name": "eventId",
          "type": "uint256"
        },
        {
          "internalType": "bytes32",
          "name": "role",
          "type": "bytes32"
        },
        {
          "internalType": "address",
          "name": "account",
          "type": "address"
        }
      ],
      "name": "revokeRole",
      "outputs": [],
      "stateMutability": "nonpayable",
      "type": "function"
    },
    {
      "inputs": [
        {
          "internalType": "address",
          "name": "from",
          "type": "address"
        },
        {
          "internalType": "address",
          "name": "to",
          "type": "address"
        },
        {
          "internalType": "uint256",
          "name": "tokenId",
          "type": "uint256"
        }
      ],
      "name": "safeTransferFrom",
      "outputs": [],
      "stateMutability": "nonpayable",
      "type": "function"
    },
    {
      "inputs": [
        {
          "internalType": "address",
          "name": "from",
          "type": "address"
        },
        {
          "internalType": "address",
          "name": "to",
          "type": "address"
        },
        {
          "internalType": "uint256",
          "name": "tokenId",
          "type": "uint256"
        },
        {
          "internalType": "bytes",
          "name": "data",
          "type": "bytes"
        }
      ],
      "name": "safeTransferFrom",
      "outputs": [],
      "stateMutability": "nonpayable",
      "type": "function"
    },
    {
      "inputs": [
        {
          "internalType": "address",
          "name": "operator",
          "type": "address"
        },
        {
          "internalType": "bool",
          "name": "approved",
          "type": "bool"
        }
      ],
      "name": "setApprovalForAll",
      "outputs": [],
      "stateMutability": "nonpayable",
      "type": "function"
    },
    {
      "inputs": [
        {
          "internalType": "uint256",
          "name": "_eventId",
          "type": "uint256"
        },
        {
          "internalType": "address",
          "name": "_account",
          "type": "address"
        }
      ],
      "name": "setEventCashier",
      "outputs": [],
      "stateMutability": "nonpayable",
      "type": "function"
    },
    {
      "inputs": [
        {
          "internalType": "uint256",
          "name": "_eventId",
          "type": "uint256"
        }
      ],
      "name": "startAllCategorySelling",
      "outputs": [],
      "stateMutability": "nonpayable",
      "type": "function"
    },
    {
      "inputs": [
        {
          "internalType": "uint256",
          "name": "_eventId",
          "type": "uint256"
        },
        {
          "internalType": "uint256",
          "name": "_categoryId",
          "type": "uint256"
        }
      ],
      "name": "startCategorySelling",
      "outputs": [],
      "stateMutability": "nonpayable",
      "type": "function"
    },
    {
      "inputs": [
        {
          "internalType": "uint256",
          "name": "_eventId",
          "type": "uint256"
        }
      ],
      "name": "stopAllCategorySelling",
      "outputs": [],
      "stateMutability": "nonpayable",
      "type": "function"
    },
    {
      "inputs": [
        {
          "internalType": "uint256",
          "name": "_eventId",
          "type": "uint256"
        },
        {
          "internalType": "uint256",
          "name": "_categoryId",
          "type": "uint256"
        }
      ],
      "name": "stopCategorySelling",
      "outputs": [],
      "stateMutability": "nonpayable",
      "type": "function"
    },
    {
      "inputs": [
        {
          "internalType": "bytes4",
          "name": "interfaceId",
          "type": "bytes4"
        }
      ],
      "name": "supportsInterface",
      "outputs": [
        {
          "internalType": "bool",
          "name": "",
          "type": "bool"
        }
      ],
      "stateMutability": "view",
      "type": "function"
    },
    {
      "inputs": [],
      "name": "symbol",
      "outputs": [
        {
          "internalType": "string",
          "name": "",
          "type": "string"
        }
      ],
      "stateMutability": "view",
      "type": "function"
    },
    {
      "inputs": [
        {
          "internalType": "uint256",
          "name": "tokenId",
          "type": "uint256"
        }
      ],
      "name": "tokenURI",
      "outputs": [
        {
          "internalType": "string",
          "name": "",
          "type": "string"
        }
      ],
      "stateMutability": "view",
      "type": "function"
    },
    {
      "inputs": [
        {
          "internalType": "address",
          "name": "from",
          "type": "address"
        },
        {
          "internalType": "address",
          "name": "to",
          "type": "address"
        },
        {
          "internalType": "uint256",
          "name": "tokenId",
          "type": "uint256"
        }
      ],
      "name": "transferFrom",
      "outputs": [],
      "stateMutability": "nonpayable",
      "type": "function"
    },
    {
      "inputs": [
        {
          "internalType": "uint256",
          "name": "_eventId",
          "type": "uint256"
        },
        {
          "internalType": "uint256",
          "name": "_categoryId",
          "type": "uint256"
        },
        {
          "internalType": "uint256",
          "name": "_saleStartDate",
          "type": "uint256"
        },
        {
          "internalType": "uint256",
          "name": "_saleEndDate",
          "type": "uint256"
        }
      ],
      "name": "updateCategorySaleDates",
      "outputs": [],
      "stateMutability": "nonpayable",
      "type": "function"
    },
    {
      "inputs": [
        {
          "internalType": "uint256",
          "name": "_eventId",
          "type": "uint256"
        },
        {
          "internalType": "uint256",
          "name": "_categoryId",
          "type": "uint256"
        },
        {
          "internalType": "string",
          "name": "_categoryCid",
          "type": "string"
        }
      ],
      "name": "updateCategoryUri",
      "outputs": [],
      "stateMutability": "nonpayable",
      "type": "function"
    },
    {
      "inputs": [
        {
          "internalType": "uint256",
          "name": "_eventId",
          "type": "uint256"
        },
        {
          "internalType": "string",
          "name": "_newMetadataURI",
          "type": "string"
        }
      ],
      "name": "updateEventTokenUri",
      "outputs": [],
      "stateMutability": "nonpayable",
      "type": "function"
    }
  ],
  "bytecode": "0x60806040523480156200001157600080fd5b5060405162004af738038062004af7833981016040819052620000349162000149565b8282600062000044838262000265565b50600162000053828262000265565b50506001600f5550600b80546001600160a01b0319166001600160a01b039290921691909117905550620003319050565b634e487b7160e01b600052604160045260246000fd5b600082601f830112620000ac57600080fd5b81516001600160401b0380821115620000c957620000c962000084565b604051601f8301601f19908116603f01168101908282118183101715620000f457620000f462000084565b816040528381526020925086838588010111156200011157600080fd5b600091505b8382101562000135578582018301518183018401529082019062000116565b600093810190920192909252949350505050565b6000806000606084860312156200015f57600080fd5b83516001600160401b03808211156200017757600080fd5b62000185878388016200009a565b945060208601519150808211156200019c57600080fd5b50620001ab868287016200009a565b604086015190935090506001600160a01b0381168114620001cb57600080fd5b809150509250925092565b600181811c90821680620001eb57607f821691505b6020821081036200020c57634e487b7160e01b600052602260045260246000fd5b50919050565b601f8211156200026057600081815260208120601f850160051c810160208610156200023b5750805b601f850160051c820191505b818110156200025c5782815560010162000247565b5050505b505050565b81516001600160401b0381111562000281576200028162000084565b6200029981620002928454620001d6565b8462000212565b602080601f831160018114620002d15760008415620002b85750858301515b600019600386901b1c1916600185901b1785556200025c565b600085815260208120601f198616915b828110156200030257888601518255948401946001909101908401620002e1565b5085821015620003215787850151600019600388901b60f8161c191681555b5050505050600190811b01905550565b6147b680620003416000396000f3fe608060405234801561001057600080fd5b506004361061028a5760003560e01c80637283d7421161015c578063b88d4fde116100ce578063e985e9c511610087578063e985e9c5146105f9578063f20dddf71461060c578063f354159b1461061f578063f99c229214610632578063fb42204d1461063a578063fc3291a61461064d57600080fd5b8063b88d4fde14610573578063b926bd6e14610586578063c49baebe14610599578063c87b56dd146105c0578063d5533da0146105d3578063dd1ea042146105e657600080fd5b8063a22cb46511610120578063a22cb465146104f0578063a3bdc7c714610503578063a4371bd714610523578063abae6af914610536578063b01555441461054b578063b7fd96841461055e57600080fd5b80637283d742146104a5578063797669c9146104b857806395d89b41146104cd578063a1d255e1146104d5578063a217fddf146104e857600080fd5b806333a477bd1161020057806356164e1e116101b957806356164e1e1461041f5780635ba16138146104325780636352211e146104595780636a4bc7de1461046c57806370a082311461047f578063724bdedf1461049257600080fd5b806333a477bd1461039f578063397d4dbc146103b25780633d378bb0146103d357806342842e0e146103e65780634a120dd7146103f9578063558e39c41461040c57600080fd5b80630e1b943d116102525780630e1b943d14610320578063119345aa146103405780631c6f9271146103535780631cdf29c7146103665780632053d82c1461037957806323b872dd1461038c57600080fd5b806301ffc9a71461028f57806306a5bcd2146102b857806306fdde03146102cd578063081812fc146102e2578063095ea7b31461030d575b600080fd5b6102a361029d3660046139c0565b50600090565b60405190151581526020015b60405180910390f35b6102cb6102c6366004613a38565b610660565b005b6102d5610751565b6040516102af9190613b56565b6102f56102f0366004613b69565b6107e5565b6040516001600160a01b0390911681526020016102af565b6102cb61031b366004613b82565b61080c565b61033361032e366004613b69565b610921565b6040516102af9190613bae565b6102a361034e366004613c06565b6109a9565b6102cb610361366004613c3f565b6109db565b6102cb610374366004613c71565b610b36565b6102cb610387366004613d18565b610bee565b6102cb61039a366004613d5e565b610c95565b6102cb6103ad366004613b69565b610cc6565b6103c56103c0366004613d9f565b610d8a565b6040519081526020016102af565b6102cb6103e1366004613d9f565b610dae565b6102cb6103f4366004613d5e565b610f3e565b6102cb610407366004613c06565b610f59565b6102cb61041a366004613dc1565b610f80565b6102cb61042d366004613b69565b6110a1565b6103c57fb5a7f51d0593e853ad0aa6b718ee0bdd10c4966eb62d243b69d538e5823d040181565b6102f5610467366004613b69565b6113a8565b6102cb61047a366004613c06565b611408565b6103c561048d366004613ded565b611498565b6102cb6104a0366004613c06565b61151e565b6102cb6104b3366004613d9f565b611597565b6103c560008051602061476183398151915281565b6102d56116b9565b6102cb6104e3366004613d18565b6116cb565b6103c5600081565b6102cb6104fe366004613e0a565b6117da565b610516610511366004613b69565b6117e9565b6040516102af9190613e78565b6102cb610531366004613f29565b611969565b61053e611a84565b6040516102af9190613f78565b6102cb610559366004613c06565b611bd8565b6103c560008051602061474183398151915281565b6102cb610581366004613f8b565b611c68565b6102cb610594366004613b69565b611ca0565b6103c57f21702c8af46127c7fa207f89d0b0a8441bb32959a0ac7df790e9ab1a25c9892681565b6102d56105ce366004613b69565b611d5b565b6102cb6105e1366004613dc1565b611e9b565b6102cb6105f436600461400a565b611f7a565b6102a3610607366004614094565b6121f6565b6102cb61061a366004613d9f565b612224565b6102cb61062d366004613dc1565b612342565b61053e612421565b6102cb610648366004613c06565b61252c565b6102cb61065b3660046140c2565b61254c565b838361066b82612afa565b6106905760405162461bcd60e51b815260040161068790614119565b60405180910390fd5b6000818152600a602052604090205460ff1615156001146106c35760405162461bcd60e51b815260040161068790614150565b6106cf866000336109a9565b806106ee57506106ee86600080516020614761833981519152336109a9565b61070a5760405162461bcd60e51b815260040161068790614187565b7f5f183d9cf5454d6fc91379ef5dce8b6a4543ec2c03a1d6376579c9a6949b2cb386868686336040516107419594939291906141d1565b60405180910390a1505050505050565b60606000800180546107629061424b565b80601f016020809104026020016040519081016040528092919081815260200182805461078e9061424b565b80156107db5780601f106107b0576101008083540402835291602001916107db565b820191906000526020600020905b8154815290600101906020018083116107be57829003601f168201915b5050505050905090565b60006107f082612b17565b506000908152600460205260409020546001600160a01b031690565b6000610817826113a8565b9050806001600160a01b0316836001600160a01b0316036108845760405162461bcd60e51b815260206004820152602160248201527f4552433732313a20617070726f76616c20746f2063757272656e74206f776e656044820152603960f91b6064820152608401610687565b336001600160a01b03821614806108a057506108a081336121f6565b6109125760405162461bcd60e51b815260206004820152603e60248201527f4552433732313a20617070726f76652063616c6c6572206973206e6f7420746f60448201527f6b656e206f776e6572206e6f7220617070726f76656420666f7220616c6c00006064820152608401610687565b61091c8383612b6a565b505050565b6060600d6000838152602001908152602001600020805480602002602001604051908101604052809291908181526020016000905b8282101561099e576000848152602090819020604080518082019091526002850290910180546001600160a01b03168252600190810154828401529083529092019101610956565b505050509050919050565b6000928352600c602090815260408085209385529281528284206001600160a01b039290921684525290205460ff1690565b83836109e682612afa565b610a025760405162461bcd60e51b815260040161068790614119565b6000818152600a602052604090205460ff161515600114610a355760405162461bcd60e51b815260040161068790614150565b610a41866000336109a9565b80610a605750610a6086600080516020614761833981519152336109a9565b610a7c5760405162461bcd60e51b815260040161068790614187565b6000868152600960205260409020600201805485919087908110610aa257610aa2614285565b90600052602060002090600602016003018190555082600060090160008881526020019081526020016000206002018681548110610ae257610ae2614285565b6000918252602091829020600460069092020101919091556040805188815291820187905233908201527f4192182acd964db32b1197a6483d5694cf6e678e7202565c44cc961078eb2c8f90606001610741565b81610b4081612afa565b610b5c5760405162461bcd60e51b815260040161068790614119565b610b68836000336109a9565b610b845760405162461bcd60e51b81526004016106879061429b565b610b9d836000805160206147418339815191528461252c565b604080518481526001600160a01b038416602082015233918101919091527f9f54db3c6775e8717da6972b09a7ed552d62f5fd63696a1a75e58f61bd240193906060015b60405180910390a1505050565b81610bf881612afa565b610c145760405162461bcd60e51b815260040161068790614119565b610c20836000336109a9565b80610c3f5750610c3f83600080516020614761833981519152336109a9565b610c5b5760405162461bcd60e51b815260040161068790614187565b610c658383612bd8565b6040518381527ff8e1a15aba9398e019f0b49df1a4fde98ee17ae345cb5f6b5e2c27f5033e8ce790602001610be1565b610c9f3382612c5c565b610cbb5760405162461bcd60e51b8152600401610687906142d2565b61091c838383612cba565b80610cd081612afa565b610cec5760405162461bcd60e51b815260040161068790614119565b610cf8826000336109a9565b80610d175750610d1782600080516020614761833981519152336109a9565b610d335760405162461bcd60e51b815260040161068790614187565b60008281526009602052604090819020600301805460ff19169055517fa4f54158d64aad2b971e0553dae4ee675d344a6878feb2e498aae9fed2fa5a2f90610d7e9084815260200190565b60405180910390a15050565b6000828152600c602090815260408083208484529091529020600101545b92915050565b8181610db982612afa565b610dd55760405162461bcd60e51b815260040161068790614119565b6000818152600a602052604090205460ff161515600114610e085760405162461bcd60e51b815260040161068790614150565b610e14846000336109a9565b80610e335750610e3384600080516020614761833981519152336109a9565b610e4f5760405162461bcd60e51b815260040161068790614187565b6000848152600960205260409020600201805484908110610e7257610e72614285565b600091825260208220600260069092020101549003610ee75760405162461bcd60e51b815260206004820152602b60248201527f4576656e743a2054686572652061726520626f75676874207469636b6574732060448201526a696e2063617465676f727960a81b6064820152608401610687565b6000838152600a6020908152604091829020805460ff1916905581518681529081018590527ff67e86d3ffc2c26729aac7f4e3e07e009ad076ace7cd9e9fc184fd452ac0cc8591015b60405180910390a150505050565b61091c83838360405180602001604052806000815250611c68565b82610f648484610d8a565b610f6e8282612e56565b610f79858585612e61565b5050505050565b8282610f8b82612afa565b610fa75760405162461bcd60e51b815260040161068790614119565b6000818152600a602052604090205460ff161515600114610fda5760405162461bcd60e51b815260040161068790614150565b610fe6856000336109a9565b80611005575061100585600080516020614761833981519152336109a9565b806110365750611036857fb5a7f51d0593e853ad0aa6b718ee0bdd10c4966eb62d243b69d538e5823d0401336109a9565b6110525760405162461bcd60e51b815260040161068790614187565b60408051868152602081018690529081018490523360608201527f2dcc6bceb950de206af8457a1b2083cbb47b6b70918a66be78ab4d128fee79f0906080015b60405180910390a15050505050565b806110ab81612afa565b6110c75760405162461bcd60e51b815260040161068790614119565b6110d3826000336109a9565b6110ef5760405162461bcd60e51b81526004016106879061429b565b600082815260096020908152604080832081516080810183528154815260018201546001600160a01b031681850152600282018054845181870281018701865281815292959394860193879084015b8282101561128d57838290600052602060002090600602016040518060c00160405290816000820154815260200160018201805461117b9061424b565b80601f01602080910402602001604051908101604052809291908181526020018280546111a79061424b565b80156111f45780601f106111c9576101008083540402835291602001916111f4565b820191906000526020600020905b8154815290600101906020018083116111d757829003601f168201915b505050505081526020016002820180548060200260200160405190810160405280929190818152602001828054801561124c57602002820191906000526020600020905b815481526020019060010190808311611238575b505050918352505060038201546020808301919091526004830154604083015260059092015460ff161515606090910152908252600192909201910161113e565b505050908252506003919091015460ff16151560209091015260408101519091506000805b8251811015611301578281815181106112cd576112cd614285565b602002602001015160400151516000036112ef57816112eb81614336565b9250505b806112f981614336565b9150506112b2565b50808251146113625760405162461bcd60e51b815260206004820152602760248201527f4576656e743a204576656e74206d757374206e6f74206861766520736f6c64206044820152667469636b65747360c81b6064820152608401610687565b60008581526009602052604081208181556001810180546001600160a01b0319169055906113936002830182613886565b50600301805460ff19169055610f7985612f22565b6000818152600260205260408120546001600160a01b031680610da85760405162461bcd60e51b8152602060048201526018602482015277115490cdcc8c4e881a5b9d985b1a59081d1bdad95b88125160421b6044820152606401610687565b611414836000336109a9565b6114305760405162461bcd60e51b81526004016106879061429b565b600080516020614741833981519152820361148d5760405162461bcd60e51b815260206004820152601d60248201527f4576656e743a2043616e277420736574206361736869657220686572650000006044820152606401610687565b61091c83838361252c565b60006001600160a01b0382166115025760405162461bcd60e51b815260206004820152602960248201527f4552433732313a2061646472657373207a65726f206973206e6f7420612076616044820152683634b21037bbb732b960b91b6064820152608401610687565b506001600160a01b031660009081526003602052604090205490565b6001600160a01b038116331461158c5760405162461bcd60e51b815260206004820152602d60248201527f526f6c65436f6e74726f6c3a2063616e206f6e6c792072656e6f756e6365207260448201526c37b632b9903337b91039b2b63360991b6064820152608401610687565b61091c838383612e61565b81816115a282612afa565b6115be5760405162461bcd60e51b815260040161068790614119565b6000818152600a602052604090205460ff1615156001146115f15760405162461bcd60e51b815260040161068790614150565b6115fd846000336109a9565b8061161c575061161c84600080516020614761833981519152336109a9565b6116385760405162461bcd60e51b815260040161068790614187565b60008481526009602052604090206002018054600191908590811061165f5761165f614285565b600091825260209182902060069190910201600501805460ff191692151592909217909155604080518681529182018590527fbaa4fa805691a368b152481f5d9c567760b5459268d3429f9892ec43b5c595359101610f30565b6060600060010180546107629061424b565b6002600f540361171d5760405162461bcd60e51b815260206004820152601f60248201527f5265656e7472616e637947756172643a207265656e7472616e742063616c6c006044820152606401610687565b6002600f55611730600780546001019055565b600061173b60075490565b60008181526009602052604090819020858155600180820180546001600160a01b0319163317905560038201805460ff191690911790559051919250907f9ce3d6db707bca4ba0eabed8fba1e2c013a1c0bc1132a764170a7854d198c73d906117a7908490869061434f565b60405180910390a16117bb82600033612ff0565b6117c53383612ffb565b6117cf8284612bd8565b50506001600f555050565b6117e533838361312e565b5050565b6000818152600960209081526040808320600201805482518185028101850190935280835260609492939192909184015b8282101561099e57838290600052602060002090600602016040518060c0016040529081600082015481526020016001820180546118579061424b565b80601f01602080910402602001604051908101604052809291908181526020018280546118839061424b565b80156118d05780601f106118a5576101008083540402835291602001916118d0565b820191906000526020600020905b8154815290600101906020018083116118b357829003601f168201915b505050505081526020016002820180548060200260200160405190810160405280929190818152602001828054801561192857602002820191906000526020600020905b815481526020019060010190808311611914575b505050918352505060038201546020808301919091526004830154604083015260059092015460ff161515606090910152908252600192909201910161181a565b828261197482612afa565b6119905760405162461bcd60e51b815260040161068790614119565b6000818152600a602052604090205460ff1615156001146119c35760405162461bcd60e51b815260040161068790614150565b6119cf856000336109a9565b806119ee57506119ee85600080516020614761833981519152336109a9565b611a0a5760405162461bcd60e51b815260040161068790614187565b6000858152600960205260409020600201805484919086908110611a3057611a30614285565b90600052602060002090600602016001019081611a4d91906143b6565b5060408051868152602081018690527f44df894581249b9c6cda25b6fe8239320be1641adde53f17479b4153cadfcc609101611092565b60606000611a9160075490565b905060008060015b838111611b0057611aac816000336109a9565b80611acb5750611acb81600080516020614761833981519152336109a9565b8015611adb5750611adb81612afa565b15611aee5782611aea81614336565b9350505b80611af881614336565b915050611a99565b506000826001600160401b03811115611b1b57611b1b6139dd565b604051908082528060200260200182016040528015611b44578160200160208202803683370190505b50905060015b848111611bcf57611b5d816000336109a9565b80611b7c5750611b7c81600080516020614761833981519152336109a9565b8015611b8c5750611b8c81612afa565b15611bbd5780828481518110611ba457611ba4614285565b602090810291909101015282611bb981614336565b9350505b80611bc781614336565b915050611b4a565b50949350505050565b611be4836000336109a9565b611c005760405162461bcd60e51b81526004016106879061429b565b6000805160206147418339815191528203611c5d5760405162461bcd60e51b815260206004820181905260248201527f4576656e743a2043616e27742072656d6f7665206361736869657220686572656044820152606401610687565b61091c838383610f59565b611c723383612c5c565b611c8e5760405162461bcd60e51b8152600401610687906142d2565b611c9a848484846131fc565b50505050565b80611caa81612afa565b611cc65760405162461bcd60e51b815260040161068790614119565b611cd2826000336109a9565b80611cf15750611cf182600080516020614761833981519152336109a9565b611d0d5760405162461bcd60e51b815260040161068790614187565b60008281526009602052604090819020600301805460ff19166001179055517f5137e27888fb7f8000a76dda6b1f0c6365f53378d64dd9676d82a6888a50811090610d7e9084815260200190565b6060611d6682612b17565b60008281526006602052604081208054611d7f9061424b565b80601f0160208091040260200160405190810160405280929190818152602001828054611dab9061424b565b8015611df85780601f10611dcd57610100808354040283529160200191611df8565b820191906000526020600020905b815481529060010190602001808311611ddb57829003601f168201915b505050505090506000611e1660408051602081019091526000815290565b90508051600003611e28575092915050565b815115611e5a578082604051602001611e42929190614475565b60405160208183030381529060405292505050919050565b6000815111611e785760405180602001604052806000815250611e93565b80611e828561322f565b604051602001611e42929190614475565b949350505050565b8282611ea682612afa565b611ec25760405162461bcd60e51b815260040161068790614119565b6000818152600a602052604090205460ff161515600114611ef55760405162461bcd60e51b815260040161068790614150565b611f01856000336109a9565b80611f205750611f2085600080516020614761833981519152336109a9565b611f3c5760405162461bcd60e51b815260040161068790614187565b60408051868152602081018690529081018490527f3a50fbe2fa0bdf2022fcd8fe2132970519fcf4df5cf97d78e86c510eb0805b6a90606001611092565b84611f8481612afa565b611fa05760405162461bcd60e51b815260040161068790614119565b611fac866000336109a9565b80611fcb5750611fcb86600080516020614761833981519152336109a9565b611fe75760405162461bcd60e51b815260040161068790614187565b611ff5600880546001019055565b600061200060085490565b905061203d6040518060c0016040528060008152602001606081526020016060815260200160008152602001600081526020016000151581525090565b818152604080516020601f89018190048102820181019092528781529088908890819084018382808284376000920182905250602086019490945250612081915050565b6040519080825280602002602001820160405280156120aa578160200160208202803683370190505b506040820152841580156120bc575083155b156120db576060810185905260808101849052600060a0820152612109565b84156120e757846120e9565b425b606082015283156120fa57836120fc565b425b6080820152600160a08201525b600088815260096020908152604082206002018054600181810183559184529282902084516006909402019283559083015183929182019061214b90826143b6565b50604082015180516121679160028401916020909101906138a7565b50606082015160038201556080820151600482015560a0909101516005909101805491151560ff199283161790556000838152600a6020526040908190208054909216600117909155517f2a94cd6b8e4219d087c43453e983d276c11f9ba16e547f01adb19edb60ae3c7d906121e4908a9085908b908b906144a4565b60405180910390a15050505050505050565b6001600160a01b03918216600090815260056020908152604080832093909416825291909152205460ff1690565b818161222f82612afa565b61224b5760405162461bcd60e51b815260040161068790614119565b6000818152600a602052604090205460ff16151560011461227e5760405162461bcd60e51b815260040161068790614150565b61228a846000336109a9565b806122a957506122a984600080516020614761833981519152336109a9565b6122c55760405162461bcd60e51b815260040161068790614187565b60008481526009602052604081206002018054859081106122e8576122e8614285565b600091825260209182902060069190910201600501805460ff191692151592909217909155604080518681529182018590527f7e40298160ac4a60b736c63fec6ed6fe71621205604304b21bcfa9d48d660be89101610f30565b828261234d82612afa565b6123695760405162461bcd60e51b815260040161068790614119565b6000818152600a602052604090205460ff16151560011461239c5760405162461bcd60e51b815260040161068790614150565b6123a8856000336109a9565b806123c757506123c785600080516020614761833981519152336109a9565b6123e35760405162461bcd60e51b815260040161068790614187565b60408051868152602081018690529081018490527fb39ecd9af22a3fec10ec63455a79d572fdcfadf6a9005d5cd232b2829f958c7090606001611092565b6060600061242e60075490565b905060008060015b83811161247d576000818152600960205260409020600101546001600160a01b03161561246b578261246781614336565b9350505b8061247581614336565b915050612436565b506000826001600160401b03811115612498576124986139dd565b6040519080825280602002602001820160405280156124c1578160200160208202803683370190505b50905060015b848111611bcf576000818152600960205260409020600101546001600160a01b03161561251a578082848151811061250157612501614285565b60209081029190910101528261251681614336565b9350505b8061252481614336565b9150506124c7565b826125378484610d8a565b6125418282612e56565b610f7985858561332f565b8361255681612afa565b6125725760405162461bcd60e51b815260040161068790614119565b60008581526009602052604090206003015460ff1615156001146125f25760405162461bcd60e51b815260206004820152603160248201527f4576656e743a205469636b65747320666f7220616c6c2063617465676f7269656044820152707320617265206e6f742062757961626c6560781b6064820152608401610687565b600085815260096020526040902060020180548590811061261557612615614285565b600091825260209091206005600690920201015460ff1615156001146126965760405162461bcd60e51b815260206004820152603060248201527f4576656e743a205469636b65747320666f7220746869732063617465676f727960448201526f20617265206e6f742062757961626c6560801b6064820152608401610687565b60008581526009602052604090206002018054429190869081106126bc576126bc614285565b90600052602060002090600602016003015410158015612712575060008581526009602052604090206002018054429190869081106126fd576126fd614285565b90600052602060002090600602016004015411155b61276f5760405162461bcd60e51b815260206004820152602860248201527f4576656e743a2053656c6c20706572696f64206e6f742072656163686564206f6044820152671c881c185cdcd95960c21b6064820152608401610687565b6000858152600960209081526040808320815160c08101835284815260609381018490529182018390529181018390526080810183905260a0810183905290916002830191819060005b845481101561294857898582815481106127d5576127d5614285565b90600052602060002090600602016000015403612936578481815481106127fe576127fe614285565b90600052602060002090600602016040518060c0016040529081600082015481526020016001820180546128319061424b565b80601f016020809104026020016040519081016040528092919081815260200182805461285d9061424b565b80156128aa5780601f1061287f576101008083540402835291602001916128aa565b820191906000526020600020905b81548152906001019060200180831161288d57829003601f168201915b505050505081526020016002820180548060200260200160405190810160405280929190818152602001828054801561290257602002820191906000526020600020905b8154815260200190600101908083116128ee575b5050509183525050600382015460208201526004820154604082015260059091015460ff1615156060909101529092509050815b8061294081614336565b9150506127b9565b5060005b816040015151811015612a1a57600b546040830151805133926001600160a01b031691636352211e918590811061298557612985614285565b60200260200101516040518263ffffffff1660e01b81526004016129ab91815260200190565b602060405180830381865afa1580156129c8573d6000803e3d6000fd5b505050506040513d601f19601f820116820180604052508101906129ec91906144e1565b6001600160a01b031603612a085783612a0481614336565b9450505b80612a1281614336565b91505061294c565b50600b546040516306a2c74f60e21b81526000916001600160a01b031690631a8b1d3c90612a50908c908c9033906004016144fe565b6020604051808303816000875af1158015612a6f573d6000803e3d6000fd5b505050506040513d601f19601f82011682018060405250810190612a939190614531565b9050805b888111612aec57866002018481548110612ab357612ab3614285565b60009182526020808320600260069093020191909101805460018101825590835291200181905580612ae481614336565b915050612a97565b505050505050505050505050565b6000908152600260205260409020546001600160a01b0316151590565b612b2081612afa565b612b675760405162461bcd60e51b8152602060048201526018602482015277115490cdcc8c4e881a5b9d985b1a59081d1bdad95b88125160421b6044820152606401610687565b50565b600081815260046020526040902080546001600160a01b0319166001600160a01b0384169081179091558190612b9f826113a8565b6001600160a01b03167f8c5be1e5ebec7d5bd14f71427d1e84f3dd0314c0f7b2291e5b200ac8c7c3b92560405160405180910390a45050565b612be182612afa565b612c445760405162461bcd60e51b815260206004820152602e60248201527f45524337323155524953746f726167653a2055524920736574206f66206e6f6e60448201526d32bc34b9ba32b73a103a37b5b2b760911b6064820152608401610687565b600082815260066020526040902061091c82826143b6565b600080612c68836113a8565b9050806001600160a01b0316846001600160a01b03161480612c8f5750612c8f81856121f6565b80611e935750836001600160a01b0316612ca8846107e5565b6001600160a01b031614949350505050565b826001600160a01b0316612ccd826113a8565b6001600160a01b031614612d315760405162461bcd60e51b815260206004820152602560248201527f4552433732313a207472616e736665722066726f6d20696e636f72726563742060448201526437bbb732b960d91b6064820152608401610687565b6001600160a01b038216612d935760405162461bcd60e51b8152602060048201526024808201527f4552433732313a207472616e7366657220746f20746865207a65726f206164646044820152637265737360e01b6064820152608401610687565b612d9e600082612b6a565b6001600160a01b0383166000908152600360205260408120805460019290612dc790849061454a565b90915550506001600160a01b0382166000908152600360205260408120805460019290612df590849061455d565b909155505060008181526002602052604080822080546001600160a01b0319166001600160a01b0386811691821790925591518493918716917fddf252ad1be2c89b69c2b068fc378daa952ba7f163c4a11628f55a4df523b3ef91a4505050565b6117e5828233613433565b612e6c8383836109a9565b1561091c576000838152600c6020908152604080832085845282528083206001600160a01b03851684528252808320805460ff19169055600e909152902054612eb58482613497565b6001600160a01b0382166000908152600e6020526040812055336001600160a01b0316826001600160a01b0316847f7b00293d63517946aeba2f56c6b4c5dec87b67393ac48520994d3d8ce776335a87604051612f1491815260200190565b60405180910390a450505050565b6000612f2d826113a8565b9050612f3a600083612b6a565b6001600160a01b0381166000908152600360205260408120805460019290612f6390849061454a565b909155505060008281526002602052604080822080546001600160a01b0319169055518391906001600160a01b038416907fddf252ad1be2c89b69c2b068fc378daa952ba7f163c4a11628f55a4df523b3ef908390a460008281526006602052604090208054612fd29061424b565b1590506117e55760008281526006602052604081206117e5916138f2565b61091c83838361332f565b6001600160a01b0382166130515760405162461bcd60e51b815260206004820181905260248201527f4552433732313a206d696e7420746f20746865207a65726f20616464726573736044820152606401610687565b61305a81612afa565b156130a75760405162461bcd60e51b815260206004820152601c60248201527f4552433732313a20746f6b656e20616c7265616479206d696e746564000000006044820152606401610687565b6001600160a01b03821660009081526003602052604081208054600192906130d090849061455d565b909155505060008181526002602052604080822080546001600160a01b0319166001600160a01b03861690811790915590518392907fddf252ad1be2c89b69c2b068fc378daa952ba7f163c4a11628f55a4df523b3ef908290a45050565b816001600160a01b0316836001600160a01b03160361318f5760405162461bcd60e51b815260206004820152601960248201527f4552433732313a20617070726f766520746f2063616c6c6572000000000000006044820152606401610687565b6001600160a01b03838116600081815260056020908152604080832094871680845294825291829020805460ff191686151590811790915591519182527f17307eab39ab6107e8899845ad3d59bd9653f200f220920489ca2b5937696c31910160405180910390a3505050565b613207848484612cba565b6132138484848461357a565b611c9a5760405162461bcd60e51b815260040161068790614570565b6060816000036132565750506040805180820190915260018152600360fc1b602082015290565b8160005b8115613280578061326a81614336565b91506132799050600a836145d8565b915061325a565b6000816001600160401b0381111561329a5761329a6139dd565b6040519080825280601f01601f1916602001820160405280156132c4576020820181803683370190505b5090505b8415611e93576132d960018361454a565b91506132e6600a866145ec565b6132f190603061455d565b60f81b81838151811061330657613306614285565b60200101906001600160f81b031916908160001a905350613328600a866145d8565b94506132c8565b61333a8383836109a9565b61091c576000838152600c6020908152604080832085845282528083206001600160a01b03858116808652918452828520805460ff1916600190811790915583518085018552928352828501888152898752600d865293862080548083018255818852958720845160029097020180546001600160a01b031916969093169590951782559251908301559286905290546133d4919061454a565b6001600160a01b0383166000908152600e6020526040902055336001600160a01b0316826001600160a01b0316847fd9dfff7752b7a810e2b646c0c96b76bc9ed817f6c6f7848bbe68163f7e8b437887604051612f1491815260200190565b61343e8383836109a9565b61091c5761344b8161367b565b61345683602061368d565b61345f8561382f565b60405160200161347193929190614600565b60408051601f198184030181529082905262461bcd60e51b825261068791600401613b56565b6000828152600d6020526040902080546134b39060019061454a565b815481106134c3576134c3614285565b9060005260206000209060020201600d600084815260200190815260200160002082815481106134f5576134f5614285565b60009182526020808320845460029093020180546001600160a01b0319166001600160a01b039093169290921782556001938401549390910192909255838152600d9091526040902080548061354d5761354d6146a2565b60008281526020812060026000199093019283020180546001600160a01b03191681556001015590555050565b60006001600160a01b0384163b1561367057604051630a85bd0160e11b81526001600160a01b0385169063150b7a02906135be9033908990889088906004016146b8565b6020604051808303816000875af19250505080156135f9575060408051601f3d908101601f191682019092526135f6918101906146f5565b60015b613656573d808015613627576040519150601f19603f3d011682016040523d82523d6000602084013e61362c565b606091505b50805160000361364e5760405162461bcd60e51b815260040161068790614570565b805181602001fd5b6001600160e01b031916630a85bd0160e11b149050611e93565b506001949350505050565b6060610da86001600160a01b03831660145b6060600061369c836002614712565b6136a790600261455d565b6001600160401b038111156136be576136be6139dd565b6040519080825280601f01601f1916602001820160405280156136e8576020820181803683370190505b509050600360fc1b8160008151811061370357613703614285565b60200101906001600160f81b031916908160001a905350600f60fb1b8160018151811061373257613732614285565b60200101906001600160f81b031916908160001a9053506000613756846002614712565b61376190600161455d565b90505b60018111156137d9576f181899199a1a9b1b9c1cb0b131b232b360811b85600f166010811061379557613795614285565b1a60f81b8282815181106137ab576137ab614285565b60200101906001600160f81b031916908160001a90535060049490941c936137d281614729565b9050613764565b5083156138285760405162461bcd60e51b815260206004820181905260248201527f537472696e67733a20686578206c656e67746820696e73756666696369656e746044820152606401610687565b9392505050565b6060816000036138595750506040805180820190915260048152630307830360e41b602082015290565b8160005b811561387c578061386d81614336565b915050600882901c915061385d565b611e93848261368d565b5080546000825560060290600052602060002090810190612b67919061392c565b8280548282559060005260206000209081019282156138e2579160200282015b828111156138e25782518255916020019190600101906138c7565b506138ee929150613977565b5090565b5080546138fe9061424b565b6000825580601f1061390e575050565b601f016020900490600052602060002090810190612b679190613977565b808211156138ee57600080825561394660018301826138f2565b61395460028301600061398c565b50600060038201819055600482015560058101805460ff1916905560060161392c565b5b808211156138ee5760008155600101613978565b5080546000825590600052602060002090810190612b679190613977565b6001600160e01b031981168114612b6757600080fd5b6000602082840312156139d257600080fd5b8135613828816139aa565b634e487b7160e01b600052604160045260246000fd5b604051601f8201601f191681016001600160401b0381118282101715613a1b57613a1b6139dd565b604052919050565b6001600160a01b0381168114612b6757600080fd5b60008060008060808587031215613a4e57600080fd5b8435935060208086013593506040860135925060608601356001600160401b0380821115613a7b57600080fd5b818801915088601f830112613a8f57600080fd5b813581811115613aa157613aa16139dd565b8060051b9150613ab28483016139f3565b818152918301840191848101908b841115613acc57600080fd5b938501935b83851015613af65784359250613ae683613a23565b8282529385019390850190613ad1565b989b979a50959850505050505050565b60005b83811015613b21578181015183820152602001613b09565b50506000910152565b60008151808452613b42816020860160208601613b06565b601f01601f19169290920160200192915050565b6020815260006138286020830184613b2a565b600060208284031215613b7b57600080fd5b5035919050565b60008060408385031215613b9557600080fd5b8235613ba081613a23565b946020939093013593505050565b602080825282518282018190526000919060409081850190868401855b82811015613bf957815180516001600160a01b03168552860151868501529284019290850190600101613bcb565b5091979650505050505050565b600080600060608486031215613c1b57600080fd5b83359250602084013591506040840135613c3481613a23565b809150509250925092565b60008060008060808587031215613c5557600080fd5b5050823594602084013594506040840135936060013592509050565b60008060408385031215613c8457600080fd5b823591506020830135613c9681613a23565b809150509250929050565b60006001600160401b03831115613cba57613cba6139dd565b613ccd601f8401601f19166020016139f3565b9050828152838383011115613ce157600080fd5b828260208301376000602084830101529392505050565b600082601f830112613d0957600080fd5b61382883833560208501613ca1565b60008060408385031215613d2b57600080fd5b8235915060208301356001600160401b03811115613d4857600080fd5b613d5485828601613cf8565b9150509250929050565b600080600060608486031215613d7357600080fd5b8335613d7e81613a23565b92506020840135613d8e81613a23565b929592945050506040919091013590565b60008060408385031215613db257600080fd5b50508035926020909101359150565b600080600060608486031215613dd657600080fd5b505081359360208301359350604090920135919050565b600060208284031215613dff57600080fd5b813561382881613a23565b60008060408385031215613e1d57600080fd5b8235613e2881613a23565b915060208301358015158114613c9657600080fd5b600081518084526020808501945080840160005b83811015613e6d57815187529582019590820190600101613e51565b509495945050505050565b60006020808301818452808551808352604092508286019150828160051b87010184880160005b83811015613f1b57603f19898403018552815160c08151855288820151818a870152613ecd82870182613b2a565b9150508782015185820389870152613ee58282613e3d565b606084810151908801526080808501519088015260a0938401511515939096019290925250509386019390860190600101613e9f565b509098975050505050505050565b600080600060608486031215613f3e57600080fd5b833592506020840135915060408401356001600160401b03811115613f6257600080fd5b613f6e86828701613cf8565b9150509250925092565b6020815260006138286020830184613e3d565b60008060008060808587031215613fa157600080fd5b8435613fac81613a23565b93506020850135613fbc81613a23565b92506040850135915060608501356001600160401b03811115613fde57600080fd5b8501601f81018713613fef57600080fd5b613ffe87823560208401613ca1565b91505092959194509250565b60008060008060006080868803121561402257600080fd5b8535945060208601356001600160401b038082111561404057600080fd5b818801915088601f83011261405457600080fd5b81358181111561406357600080fd5b89602082850101111561407557600080fd5b9699602092909201985095966040810135965060600135945092505050565b600080604083850312156140a757600080fd5b82356140b281613a23565b91506020830135613c9681613a23565b600080600080608085870312156140d857600080fd5b843593506020850135925060408501356001600160401b038111156140fc57600080fd5b61410887828801613cf8565b949793965093946060013593505050565b6020808252601c908201527f4576656e743a204576656e7420646f6573206e6f742065786973742100000000604082015260600190565b6020808252601f908201527f4576656e743a2043617465676f727920646f6573206e6f742065786973742100604082015260600190565b6020808252602a908201527f4576656e743a2043616c6c6572206973206e6f7420616e2061646d696e206f726040820152691036b7b232b930ba37b960b11b606082015260800190565b600060a082018783526020878185015286604085015260a0606085015281865180845260c086019150828801935060005b818110156142275784516001600160a01b031683529383019391830191600101614202565b50506001600160a01b03959095166080949094019390935250919695505050505050565b600181811c9082168061425f57607f821691505b60208210810361427f57634e487b7160e01b600052602260045260246000fd5b50919050565b634e487b7160e01b600052603260045260246000fd5b6020808252601d908201527f4576656e743a2043616c6c6572206973206e6f7420616e2061646d696e000000604082015260600190565b6020808252602e908201527f4552433732313a2063616c6c6572206973206e6f7420746f6b656e206f776e6560408201526d1c881b9bdc88185c1c1c9bdd995960921b606082015260800190565b634e487b7160e01b600052601160045260246000fd5b60006001820161434857614348614320565b5060010190565b828152604060208201526000611e936040830184613b2a565b601f82111561091c57600081815260208120601f850160051c8101602086101561438f5750805b601f850160051c820191505b818110156143ae5782815560010161439b565b505050505050565b81516001600160401b038111156143cf576143cf6139dd565b6143e3816143dd845461424b565b84614368565b602080601f83116001811461441857600084156144005750858301515b600019600386901b1c1916600185901b1785556143ae565b600085815260208120601f198616915b8281101561444757888601518255948401946001909101908401614428565b50858210156144655787850151600019600388901b60f8161c191681555b5050505050600190811b01905550565b60008351614487818460208801613b06565b83519083019061449b818360208801613b06565b01949350505050565b84815283602082015260606040820152816060820152818360808301376000818301608090810191909152601f909201601f191601019392505050565b6000602082840312156144f357600080fd5b815161382881613a23565b6060815260006145116060830186613b2a565b6020830194909452506001600160a01b0391909116604090910152919050565b60006020828403121561454357600080fd5b5051919050565b81810381811115610da857610da8614320565b80820180821115610da857610da8614320565b60208082526032908201527f4552433732313a207472616e7366657220746f206e6f6e20455243373231526560408201527131b2b4bb32b91034b6b83632b6b2b73a32b960711b606082015260800190565b634e487b7160e01b600052601260045260246000fd5b6000826145e7576145e76145c2565b500490565b6000826145fb576145fb6145c2565b500690565b7402937b632a1b7b73a3937b61d1030b1b1b7bab73a1605d1b815260008451614630816015850160208901613b06565b7001034b99036b4b9b9b4b733903937b6329607d1b6015918401918201528451614661816026840160208901613b06565b720103337b91032bb32b73a103bb4ba341034b21606d1b602692909101918201528351614695816039840160208801613b06565b0160390195945050505050565b634e487b7160e01b600052603160045260246000fd5b6001600160a01b03858116825284166020820152604081018390526080606082018190526000906146eb90830184613b2a565b9695505050505050565b60006020828403121561470757600080fd5b8151613828816139aa565b8082028115828204841417610da857610da8614320565b60008161473857614738614320565b50600019019056feff3317e1e0e8c784290b957ee9b65ea8fe96420c4819db463283b95ecbe4a3fe71f3d55856e4058ed06ee057d79ada615f65cdf5f9ee88181b914225088f834fa2646970667358221220d38501468a65de00a620ff445e4c046f09d5d0ecd0a3c9bd29f4face4555ce2664736f6c63430008110033",
  "linkReferences": {},
  "deployedLinkReferences": {}
}