{
  "_format": "hh-sol-artifact-1",
  "contractName": "EventERC721",
  "sourceName": "contracts/EventDiamond/facets/EventERC721Facet.sol",
  "abi": [
    {
      "anonymous": false,
      "inputs": [
        {
          "indexed": true,
          "internalType": "address",
          "name": "owner",
          "type": "address"
        },
        {
          "indexed": true,
          "internalType": "address",
          "name": "approved",
          "type": "address"
        },
        {
          "indexed": true,
          "internalType": "uint256",
          "name": "tokenId",
          "type": "uint256"
        }
      ],
      "name": "Approval",
      "type": "event"
    },
    {
      "anonymous": false,
      "inputs": [
        {
          "indexed": true,
          "internalType": "address",
          "name": "owner",
          "type": "address"
        },
        {
          "indexed": true,
          "internalType": "address",
          "name": "operator",
          "type": "address"
        },
        {
          "indexed": false,
          "internalType": "bool",
          "name": "approved",
          "type": "bool"
        }
      ],
      "name": "ApprovalForAll",
      "type": "event"
    },
    {
      "anonymous": false,
      "inputs": [
        {
          "indexed": true,
          "internalType": "address",
          "name": "from",
          "type": "address"
        },
        {
          "indexed": true,
          "internalType": "address",
          "name": "to",
          "type": "address"
        },
        {
          "indexed": true,
          "internalType": "uint256",
          "name": "tokenId",
          "type": "uint256"
        }
      ],
      "name": "Transfer",
      "type": "event"
    },
    {
      "inputs": [
        {
          "internalType": "address",
          "name": "to",
          "type": "address"
        },
        {
          "internalType": "uint256",
          "name": "tokenId",
          "type": "uint256"
        }
      ],
      "name": "approve",
      "outputs": [],
      "stateMutability": "nonpayable",
      "type": "function"
    },
    {
      "inputs": [
        {
          "internalType": "address",
          "name": "owner",
          "type": "address"
        }
      ],
      "name": "balanceOf",
      "outputs": [
        {
          "internalType": "uint256",
          "name": "",
          "type": "uint256"
        }
      ],
      "stateMutability": "view",
      "type": "function"
    },
    {
      "inputs": [
        {
          "internalType": "uint256",
          "name": "tokenId",
          "type": "uint256"
        }
      ],
      "name": "endTime",
      "outputs": [
        {
          "internalType": "uint64",
          "name": "",
          "type": "uint64"
        }
      ],
      "stateMutability": "view",
      "type": "function"
    },
    {
      "inputs": [
        {
          "internalType": "uint256",
          "name": "tokenId",
          "type": "uint256"
        }
      ],
      "name": "getApproved",
      "outputs": [
        {
          "internalType": "address",
          "name": "",
          "type": "address"
        }
      ],
      "stateMutability": "view",
      "type": "function"
    },
    {
      "inputs": [
        {
          "internalType": "address",
          "name": "owner",
          "type": "address"
        },
        {
          "internalType": "address",
          "name": "operator",
          "type": "address"
        }
      ],
      "name": "isApprovedForAll",
      "outputs": [
        {
          "internalType": "bool",
          "name": "",
          "type": "bool"
        }
      ],
      "stateMutability": "view",
      "type": "function"
    },
    {
      "inputs": [],
      "name": "name",
      "outputs": [
        {
          "internalType": "string",
          "name": "",
          "type": "string"
        }
      ],
      "stateMutability": "view",
      "type": "function"
    },
    {
      "inputs": [
        {
          "internalType": "uint256",
          "name": "tokenId",
          "type": "uint256"
        }
      ],
      "name": "ownerOf",
      "outputs": [
        {
          "internalType": "address",
          "name": "",
          "type": "address"
        }
      ],
      "stateMutability": "view",
      "type": "function"
    },
    {
      "inputs": [
        {
          "internalType": "address",
          "name": "from",
          "type": "address"
        },
        {
          "internalType": "address",
          "name": "to",
          "type": "address"
        },
        {
          "internalType": "uint256",
          "name": "tokenId",
          "type": "uint256"
        }
      ],
      "name": "safeTransferFrom",
      "outputs": [],
      "stateMutability": "nonpayable",
      "type": "function"
    },
    {
      "inputs": [
        {
          "internalType": "address",
          "name": "from",
          "type": "address"
        },
        {
          "internalType": "address",
          "name": "to",
          "type": "address"
        },
        {
          "internalType": "uint256",
          "name": "tokenId",
          "type": "uint256"
        },
        {
          "internalType": "bytes",
          "name": "data",
          "type": "bytes"
        }
      ],
      "name": "safeTransferFrom",
      "outputs": [],
      "stateMutability": "nonpayable",
      "type": "function"
    },
    {
      "inputs": [
        {
          "internalType": "address",
          "name": "operator",
          "type": "address"
        },
        {
          "internalType": "bool",
          "name": "approved",
          "type": "bool"
        }
      ],
      "name": "setApprovalForAll",
      "outputs": [],
      "stateMutability": "nonpayable",
      "type": "function"
    },
    {
      "inputs": [
        {
          "internalType": "uint256",
          "name": "tokenId",
          "type": "uint256"
        }
      ],
      "name": "startTime",
      "outputs": [
        {
          "internalType": "uint64",
          "name": "",
          "type": "uint64"
        }
      ],
      "stateMutability": "view",
      "type": "function"
    },
    {
      "inputs": [
        {
          "internalType": "bytes4",
          "name": "interfaceId",
          "type": "bytes4"
        }
      ],
      "name": "supportsInterface",
      "outputs": [
        {
          "internalType": "bool",
          "name": "",
          "type": "bool"
        }
      ],
      "stateMutability": "view",
      "type": "function"
    },
    {
      "inputs": [],
      "name": "symbol",
      "outputs": [
        {
          "internalType": "string",
          "name": "",
          "type": "string"
        }
      ],
      "stateMutability": "view",
      "type": "function"
    },
    {
      "inputs": [
        {
          "internalType": "uint256",
          "name": "tokenId",
          "type": "uint256"
        }
      ],
      "name": "tokenURI",
      "outputs": [
        {
          "internalType": "string",
          "name": "",
          "type": "string"
        }
      ],
      "stateMutability": "view",
      "type": "function"
    },
    {
      "inputs": [
        {
          "internalType": "address",
          "name": "from",
          "type": "address"
        },
        {
          "internalType": "address",
          "name": "to",
          "type": "address"
        },
        {
          "internalType": "uint256",
          "name": "tokenId",
          "type": "uint256"
        }
      ],
      "name": "transferFrom",
      "outputs": [],
      "stateMutability": "nonpayable",
      "type": "function"
    }
  ],
  "bytecode": "0x608060405234801561001057600080fd5b5061126e806100206000396000f3fe608060405234801561001057600080fd5b50600436106100c55760003560e01c806301ffc9a7146100ca57806306fdde03146100f3578063081812fc14610108578063095ea7b31461013357806323b872dd146101485780633ec4c9681461015b57806342842e0e1461018657806344c816fa146101995780636352211e146101ac57806370a08231146101bf57806395d89b41146101e0578063a22cb465146101e8578063b88d4fde146101fb578063c87b56dd1461020e578063e985e9c514610221575b600080fd5b6100de6100d8366004610d2b565b50600090565b60405190151581526020015b60405180910390f35b6100fb610234565b6040516100ea9190610d9f565b61011b610116366004610db2565b6102c8565b6040516001600160a01b0390911681526020016100ea565b610146610141366004610de7565b6102ef565b005b610146610156366004610e11565b610409565b61016e610169366004610db2565b61043a565b6040516001600160401b0390911681526020016100ea565b610146610194366004610e11565b61047d565b61016e6101a7366004610db2565b610498565b61011b6101ba366004610db2565b6104e2565b6101d26101cd366004610e4d565b61051d565b6040519081526020016100ea565b6100fb6105a3565b6101466101f6366004610e68565b6105b5565b610146610209366004610eba565b6105c4565b6100fb61021c366004610db2565b6105fc565b6100de61022f366004610f95565b61073c565b606060008001805461024590610fc8565b80601f016020809104026020016040519081016040528092919081815260200182805461027190610fc8565b80156102be5780601f10610293576101008083540402835291602001916102be565b820191906000526020600020905b8154815290600101906020018083116102a157829003601f168201915b5050505050905090565b60006102d38261076a565b506000908152600460205260409020546001600160a01b031690565b60006102fa826104e2565b9050806001600160a01b0316836001600160a01b03160361036c5760405162461bcd60e51b815260206004820152602160248201527f4552433732313a20617070726f76616c20746f2063757272656e74206f776e656044820152603960f91b60648201526084015b60405180910390fd5b336001600160a01b03821614806103885750610388813361073c565b6103fa5760405162461bcd60e51b815260206004820152603e60248201527f4552433732313a20617070726f76652063616c6c6572206973206e6f7420746f60448201527f6b656e206f776e6572206e6f7220617070726f76656420666f7220616c6c00006064820152608401610363565b6104048383610792565b505050565b6104133382610800565b61042f5760405162461bcd60e51b815260040161036390611002565b61040483838361085e565b6000610445826109fa565b6104615760405162461bcd60e51b815260040161036390611050565b506000908152600c60205260409020546001600160401b031690565b610404838383604051806020016040528060008152506105c4565b60006104a3826109fa565b6104bf5760405162461bcd60e51b815260040161036390611050565b506000908152600c6020526040902054600160401b90046001600160401b031690565b6000818152600260205260408120546001600160a01b0316806105175760405162461bcd60e51b815260040161036390611082565b92915050565b60006001600160a01b0382166105875760405162461bcd60e51b815260206004820152602960248201527f4552433732313a2061646472657373207a65726f206973206e6f7420612076616044820152683634b21037bbb732b960b91b6064820152608401610363565b506001600160a01b031660009081526003602052604090205490565b60606000600101805461024590610fc8565b6105c0338383610a17565b5050565b6105ce3383610800565b6105ea5760405162461bcd60e51b815260040161036390611002565b6105f684848484610ae1565b50505050565b60606106078261076a565b6000828152600660205260408120805461062090610fc8565b80601f016020809104026020016040519081016040528092919081815260200182805461064c90610fc8565b80156106995780601f1061066e57610100808354040283529160200191610699565b820191906000526020600020905b81548152906001019060200180831161067c57829003601f168201915b5050505050905060006106b760408051602081019091526000815290565b905080516000036106c9575092915050565b8151156106fb5780826040516020016106e39291906110b4565b60405160208183030381529060405292505050919050565b60008151116107195760405180602001604052806000815250610734565b8061072385610b14565b6040516020016106e39291906110b4565b949350505050565b6001600160a01b03918216600090815260056020908152604080832093909416825291909152205460ff1690565b610773816109fa565b61078f5760405162461bcd60e51b815260040161036390611082565b50565b600081815260046020526040902080546001600160a01b0319166001600160a01b03841690811790915581906107c7826104e2565b6001600160a01b03167f8c5be1e5ebec7d5bd14f71427d1e84f3dd0314c0f7b2291e5b200ac8c7c3b92560405160405180910390a45050565b60008061080c836104e2565b9050806001600160a01b0316846001600160a01b031614806108335750610833818561073c565b806107345750836001600160a01b031661084c846102c8565b6001600160a01b031614949350505050565b826001600160a01b0316610871826104e2565b6001600160a01b0316146108d55760405162461bcd60e51b815260206004820152602560248201527f4552433732313a207472616e736665722066726f6d20696e636f72726563742060448201526437bbb732b960d91b6064820152608401610363565b6001600160a01b0382166109375760405162461bcd60e51b8152602060048201526024808201527f4552433732313a207472616e7366657220746f20746865207a65726f206164646044820152637265737360e01b6064820152608401610363565b610942600082610792565b6001600160a01b038316600090815260036020526040812080546001929061096b9084906110f9565b90915550506001600160a01b038216600090815260036020526040812080546001929061099990849061110c565b909155505060008181526002602052604080822080546001600160a01b0319166001600160a01b0386811691821790925591518493918716917fddf252ad1be2c89b69c2b068fc378daa952ba7f163c4a11628f55a4df523b3ef91a4505050565b6000908152600260205260409020546001600160a01b0316151590565b816001600160a01b0316836001600160a01b031603610a745760405162461bcd60e51b815260206004820152601960248201527822a9219b99189d1030b8383937bb32903a379031b0b63632b960391b6044820152606401610363565b6001600160a01b03838116600081815260056020908152604080832094871680845294825291829020805460ff191686151590811790915591519182527f17307eab39ab6107e8899845ad3d59bd9653f200f220920489ca2b5937696c31910160405180910390a3505050565b610aec84848461085e565b610af884848484610c14565b6105f65760405162461bcd60e51b81526004016103639061111f565b606081600003610b3b5750506040805180820190915260018152600360fc1b602082015290565b8160005b8115610b655780610b4f81611171565b9150610b5e9050600a836111a0565b9150610b3f565b6000816001600160401b03811115610b7f57610b7f610ea4565b6040519080825280601f01601f191660200182016040528015610ba9576020820181803683370190505b5090505b841561073457610bbe6001836110f9565b9150610bcb600a866111b4565b610bd690603061110c565b60f81b818381518110610beb57610beb6111c8565b60200101906001600160f81b031916908160001a905350610c0d600a866111a0565b9450610bad565b60006001600160a01b0384163b15610d0a57604051630a85bd0160e11b81526001600160a01b0385169063150b7a0290610c589033908990889088906004016111de565b6020604051808303816000875af1925050508015610c93575060408051601f3d908101601f19168201909252610c909181019061121b565b60015b610cf0573d808015610cc1576040519150601f19603f3d011682016040523d82523d6000602084013e610cc6565b606091505b508051600003610ce85760405162461bcd60e51b81526004016103639061111f565b805181602001fd5b6001600160e01b031916630a85bd0160e11b149050610734565b506001949350505050565b6001600160e01b03198116811461078f57600080fd5b600060208284031215610d3d57600080fd5b8135610d4881610d15565b9392505050565b60005b83811015610d6a578181015183820152602001610d52565b50506000910152565b60008151808452610d8b816020860160208601610d4f565b601f01601f19169290920160200192915050565b602081526000610d486020830184610d73565b600060208284031215610dc457600080fd5b5035919050565b80356001600160a01b0381168114610de257600080fd5b919050565b60008060408385031215610dfa57600080fd5b610e0383610dcb565b946020939093013593505050565b600080600060608486031215610e2657600080fd5b610e2f84610dcb565b9250610e3d60208501610dcb565b9150604084013590509250925092565b600060208284031215610e5f57600080fd5b610d4882610dcb565b60008060408385031215610e7b57600080fd5b610e8483610dcb565b915060208301358015158114610e9957600080fd5b809150509250929050565b634e487b7160e01b600052604160045260246000fd5b60008060008060808587031215610ed057600080fd5b610ed985610dcb565b9350610ee760208601610dcb565b92506040850135915060608501356001600160401b0380821115610f0a57600080fd5b818701915087601f830112610f1e57600080fd5b813581811115610f3057610f30610ea4565b604051601f8201601f19908116603f01168101908382118183101715610f5857610f58610ea4565b816040528281528a6020848701011115610f7157600080fd5b82602086016020830137600060208483010152809550505050505092959194509250565b60008060408385031215610fa857600080fd5b610fb183610dcb565b9150610fbf60208401610dcb565b90509250929050565b600181811c90821680610fdc57607f821691505b602082108103610ffc57634e487b7160e01b600052602260045260246000fd5b50919050565b6020808252602e908201527f4552433732313a2063616c6c6572206973206e6f7420746f6b656e206f776e6560408201526d1c881b9bdc88185c1c1c9bdd995960921b606082015260800190565b602080825260189082015277115490cd4c0c0dce88125b9d985b1a59081d1bdad95b925960421b604082015260600190565b602080825260189082015277115490cdcc8c4e881a5b9d985b1a59081d1bdad95b88125160421b604082015260600190565b600083516110c6818460208801610d4f565b8351908301906110da818360208801610d4f565b01949350505050565b634e487b7160e01b600052601160045260246000fd5b81810381811115610517576105176110e3565b80820180821115610517576105176110e3565b60208082526032908201527f4552433732313a207472616e7366657220746f206e6f6e20455243373231526560408201527131b2b4bb32b91034b6b83632b6b2b73a32b960711b606082015260800190565b600060018201611183576111836110e3565b5060010190565b634e487b7160e01b600052601260045260246000fd5b6000826111af576111af61118a565b500490565b6000826111c3576111c361118a565b500690565b634e487b7160e01b600052603260045260246000fd5b6001600160a01b038581168252841660208201526040810183905260806060820181905260009061121190830184610d73565b9695505050505050565b60006020828403121561122d57600080fd5b8151610d4881610d1556fea26469706673582212202ce637565bb8519dc3b5eb348e7b81417912ec17fe327a1c923a9e7e74a4de6764736f6c63430008110033",
  "linkReferences": {},
  "deployedLinkReferences": {}
}