{
  "_format": "hh-sol-artifact-1",
  "contractName": "EventFacet",
  "sourceName": "contracts/EventDiamond/facets/EventFacet.sol",
  "abi": [
    {
      "anonymous": false,
      "inputs": [
        {
          "indexed": false,
          "internalType": "uint256",
          "name": "eventId",
          "type": "uint256"
        },
        {
          "indexed": false,
          "internalType": "bool",
          "name": "value",
          "type": "bool"
        }
      ],
      "name": "AllCategorySellChanged",
      "type": "event"
    },
    {
      "anonymous": false,
      "inputs": [
        {
          "indexed": true,
          "internalType": "address",
          "name": "owner",
          "type": "address"
        },
        {
          "indexed": true,
          "internalType": "address",
          "name": "approved",
          "type": "address"
        },
        {
          "indexed": true,
          "internalType": "uint256",
          "name": "tokenId",
          "type": "uint256"
        }
      ],
      "name": "Approval",
      "type": "event"
    },
    {
      "anonymous": false,
      "inputs": [
        {
          "indexed": true,
          "internalType": "address",
          "name": "owner",
          "type": "address"
        },
        {
          "indexed": true,
          "internalType": "address",
          "name": "operator",
          "type": "address"
        },
        {
          "indexed": false,
          "internalType": "bool",
          "name": "approved",
          "type": "bool"
        }
      ],
      "name": "ApprovalForAll",
      "type": "event"
    },
    {
      "anonymous": false,
      "inputs": [
        {
          "indexed": false,
          "internalType": "uint256",
          "name": "_fromTokenId",
          "type": "uint256"
        },
        {
          "indexed": false,
          "internalType": "uint256",
          "name": "_toTokenId",
          "type": "uint256"
        }
      ],
      "name": "BatchMetadataUpdate",
      "type": "event"
    },
    {
      "anonymous": false,
      "inputs": [
        {
          "indexed": false,
          "internalType": "uint256",
          "name": "eventId",
          "type": "uint256"
        },
        {
          "indexed": false,
          "internalType": "uint256",
          "name": "categoryId",
          "type": "uint256"
        },
        {
          "indexed": false,
          "internalType": "string",
          "name": "categoryCid",
          "type": "string"
        }
      ],
      "name": "CategoryCreated",
      "type": "event"
    },
    {
      "anonymous": false,
      "inputs": [
        {
          "indexed": false,
          "internalType": "uint256",
          "name": "eventId",
          "type": "uint256"
        },
        {
          "indexed": false,
          "internalType": "uint256",
          "name": "categoryId",
          "type": "uint256"
        }
      ],
      "name": "CategoryDeleted",
      "type": "event"
    },
    {
      "anonymous": false,
      "inputs": [
        {
          "indexed": false,
          "internalType": "uint256",
          "name": "eventId",
          "type": "uint256"
        },
        {
          "indexed": false,
          "internalType": "uint256",
          "name": "categoryId",
          "type": "uint256"
        },
        {
          "indexed": false,
          "internalType": "address",
          "name": "staffMember",
          "type": "address"
        }
      ],
      "name": "CategorySaleDatesUpdated",
      "type": "event"
    },
    {
      "anonymous": false,
      "inputs": [
        {
          "indexed": false,
          "internalType": "uint256",
          "name": "eventId",
          "type": "uint256"
        },
        {
          "indexed": false,
          "internalType": "uint256",
          "name": "categoryId",
          "type": "uint256"
        },
        {
          "indexed": false,
          "internalType": "bool",
          "name": "value",
          "type": "bool"
        }
      ],
      "name": "CategorySellChanged",
      "type": "event"
    },
    {
      "anonymous": false,
      "inputs": [
        {
          "indexed": false,
          "internalType": "uint256",
          "name": "eventId",
          "type": "uint256"
        },
        {
          "indexed": false,
          "internalType": "uint256",
          "name": "categoryId",
          "type": "uint256"
        },
        {
          "indexed": false,
          "internalType": "uint256",
          "name": "ticketsCount",
          "type": "uint256"
        }
      ],
      "name": "CategoryTicketsAdded",
      "type": "event"
    },
    {
      "anonymous": false,
      "inputs": [
        {
          "indexed": false,
          "internalType": "uint256",
          "name": "eventId",
          "type": "uint256"
        },
        {
          "indexed": false,
          "internalType": "uint256",
          "name": "categoryId",
          "type": "uint256"
        },
        {
          "indexed": false,
          "internalType": "uint256",
          "name": "ticketsCount",
          "type": "uint256"
        }
      ],
      "name": "CategoryTicketsRemoved",
      "type": "event"
    },
    {
      "anonymous": false,
      "inputs": [
        {
          "indexed": false,
          "internalType": "uint256",
          "name": "eventId",
          "type": "uint256"
        },
        {
          "indexed": false,
          "internalType": "uint256",
          "name": "categoryId",
          "type": "uint256"
        }
      ],
      "name": "CategoryUpdated",
      "type": "event"
    },
    {
      "anonymous": false,
      "inputs": [
        {
          "indexed": false,
          "internalType": "uint256",
          "name": "eventId",
          "type": "uint256"
        },
        {
          "indexed": false,
          "internalType": "address",
          "name": "account",
          "type": "address"
        },
        {
          "indexed": false,
          "internalType": "address",
          "name": "setter",
          "type": "address"
        }
      ],
      "name": "EventCashierSet",
      "type": "event"
    },
    {
      "anonymous": false,
      "inputs": [
        {
          "indexed": false,
          "internalType": "uint256",
          "name": "eventId",
          "type": "uint256"
        },
        {
          "indexed": false,
          "internalType": "string",
          "name": "metadataUri",
          "type": "string"
        }
      ],
      "name": "EventCreated",
      "type": "event"
    },
    {
      "anonymous": false,
      "inputs": [
        {
          "indexed": false,
          "internalType": "uint256",
          "name": "eventId",
          "type": "uint256"
        },
        {
          "indexed": false,
          "internalType": "uint256",
          "name": "date",
          "type": "uint256"
        },
        {
          "indexed": false,
          "internalType": "uint8",
          "name": "percentage",
          "type": "uint8"
        }
      ],
      "name": "EventRefundDateAdded",
      "type": "event"
    },
    {
      "anonymous": false,
      "inputs": [
        {
          "indexed": false,
          "internalType": "uint256",
          "name": "_tokenId",
          "type": "uint256"
        }
      ],
      "name": "MetadataUpdate",
      "type": "event"
    },
    {
      "anonymous": false,
      "inputs": [
        {
          "indexed": false,
          "internalType": "uint256",
          "name": "eventId",
          "type": "uint256"
        },
        {
          "indexed": true,
          "internalType": "bytes32",
          "name": "role",
          "type": "bytes32"
        },
        {
          "indexed": true,
          "internalType": "bytes32",
          "name": "previousAdminRole",
          "type": "bytes32"
        },
        {
          "indexed": true,
          "internalType": "bytes32",
          "name": "newAdminRole",
          "type": "bytes32"
        }
      ],
      "name": "RoleAdminChanged",
      "type": "event"
    },
    {
      "anonymous": false,
      "inputs": [
        {
          "indexed": false,
          "internalType": "uint256",
          "name": "eventId",
          "type": "uint256"
        },
        {
          "indexed": true,
          "internalType": "bytes32",
          "name": "role",
          "type": "bytes32"
        },
        {
          "indexed": true,
          "internalType": "address",
          "name": "account",
          "type": "address"
        },
        {
          "indexed": true,
          "internalType": "address",
          "name": "sender",
          "type": "address"
        }
      ],
      "name": "RoleGranted",
      "type": "event"
    },
    {
      "anonymous": false,
      "inputs": [
        {
          "indexed": false,
          "internalType": "uint256",
          "name": "eventId",
          "type": "uint256"
        },
        {
          "indexed": true,
          "internalType": "bytes32",
          "name": "role",
          "type": "bytes32"
        },
        {
          "indexed": true,
          "internalType": "address",
          "name": "account",
          "type": "address"
        },
        {
          "indexed": true,
          "internalType": "address",
          "name": "sender",
          "type": "address"
        }
      ],
      "name": "RoleRevoked",
      "type": "event"
    },
    {
      "anonymous": false,
      "inputs": [
        {
          "indexed": true,
          "internalType": "address",
          "name": "from",
          "type": "address"
        },
        {
          "indexed": true,
          "internalType": "address",
          "name": "to",
          "type": "address"
        },
        {
          "indexed": true,
          "internalType": "uint256",
          "name": "tokenId",
          "type": "uint256"
        }
      ],
      "name": "Transfer",
      "type": "event"
    },
    {
      "inputs": [
        {
          "internalType": "uint256",
          "name": "_eventId",
          "type": "uint256"
        },
        {
          "internalType": "uint256",
          "name": "_categoryId",
          "type": "uint256"
        },
        {
          "internalType": "uint256",
          "name": "_ticketsCount",
          "type": "uint256"
        }
      ],
      "name": "addCategoryTicketsCount",
      "outputs": [],
      "stateMutability": "nonpayable",
      "type": "function"
    },
    {
      "inputs": [
        {
          "internalType": "uint256",
          "name": "_eventId",
          "type": "uint256"
        },
        {
          "internalType": "bytes32",
          "name": "_role",
          "type": "bytes32"
        },
        {
          "internalType": "address",
          "name": "_account",
          "type": "address"
        }
      ],
      "name": "addTeamMember",
      "outputs": [],
      "stateMutability": "nonpayable",
      "type": "function"
    },
    {
      "inputs": [
        {
          "internalType": "address",
          "name": "to",
          "type": "address"
        },
        {
          "internalType": "uint256",
          "name": "tokenId",
          "type": "uint256"
        }
      ],
      "name": "approve",
      "outputs": [],
      "stateMutability": "nonpayable",
      "type": "function"
    },
    {
      "inputs": [
        {
          "internalType": "address",
          "name": "owner",
          "type": "address"
        }
      ],
      "name": "balanceOf",
      "outputs": [
        {
          "internalType": "uint256",
          "name": "",
          "type": "uint256"
        }
      ],
      "stateMutability": "view",
      "type": "function"
    },
    {
      "inputs": [
        {
          "internalType": "uint256",
          "name": "_maxTicketsPerClient",
          "type": "uint256"
        },
        {
          "internalType": "uint64",
          "name": "_startDate",
          "type": "uint64"
        },
        {
          "internalType": "uint64",
          "name": "_endDate",
          "type": "uint64"
        },
        {
          "internalType": "string",
          "name": "_metadataURI",
          "type": "string"
        }
      ],
      "name": "createEvent",
      "outputs": [],
      "stateMutability": "nonpayable",
      "type": "function"
    },
    {
      "inputs": [
        {
          "internalType": "uint256",
          "name": "_eventId",
          "type": "uint256"
        },
        {
          "internalType": "string",
          "name": "_categoryCid",
          "type": "string"
        },
        {
          "internalType": "uint256",
          "name": "_saleStartDate",
          "type": "uint256"
        },
        {
          "internalType": "uint256",
          "name": "_saleEndDate",
          "type": "uint256"
        },
        {
          "internalType": "uint256",
          "name": "_ticketsCount",
          "type": "uint256"
        },
        {
          "internalType": "uint256",
          "name": "_ticketPrice",
          "type": "uint256"
        },
        {
          "internalType": "uint256[]",
          "name": "_discountsTicketsCount",
          "type": "uint256[]"
        },
        {
          "internalType": "uint256[]",
          "name": "_discountsPercentage",
          "type": "uint256[]"
        },
        {
          "components": [
            {
              "internalType": "uint256",
              "name": "price",
              "type": "uint256"
            },
            {
              "internalType": "uint256",
              "name": "finalAmountDate",
              "type": "uint256"
            }
          ],
          "internalType": "struct DownPayment",
          "name": "_downPayment",
          "type": "tuple"
        }
      ],
      "name": "createTicketCategory",
      "outputs": [],
      "stateMutability": "nonpayable",
      "type": "function"
    },
    {
      "inputs": [
        {
          "internalType": "uint256",
          "name": "tokenId",
          "type": "uint256"
        }
      ],
      "name": "endTime",
      "outputs": [
        {
          "internalType": "uint64",
          "name": "",
          "type": "uint64"
        }
      ],
      "stateMutability": "view",
      "type": "function"
    },
    {
      "inputs": [],
      "name": "fetchAllEventIds",
      "outputs": [
        {
          "internalType": "uint256[]",
          "name": "",
          "type": "uint256[]"
        }
      ],
      "stateMutability": "view",
      "type": "function"
    },
    {
      "inputs": [],
      "name": "fetchAllEvents",
      "outputs": [
        {
          "components": [
            {
              "internalType": "address",
              "name": "organizer",
              "type": "address"
            },
            {
              "internalType": "uint256",
              "name": "maxTicketsPerClient",
              "type": "uint256"
            },
            {
              "internalType": "uint256",
              "name": "balance",
              "type": "uint256"
            },
            {
              "internalType": "bool",
              "name": "areAllCategoryTicketsBuyable",
              "type": "bool"
            },
            {
              "internalType": "uint64",
              "name": "startTime",
              "type": "uint64"
            },
            {
              "internalType": "uint64",
              "name": "endTime",
              "type": "uint64"
            },
            {
              "components": [
                {
                  "internalType": "uint256",
                  "name": "date",
                  "type": "uint256"
                },
                {
                  "internalType": "uint8",
                  "name": "percentage",
                  "type": "uint8"
                }
              ],
              "internalType": "struct RefundData[]",
              "name": "refundData",
              "type": "tuple[]"
            }
          ],
          "internalType": "struct Event[]",
          "name": "",
          "type": "tuple[]"
        }
      ],
      "stateMutability": "view",
      "type": "function"
    },
    {
      "inputs": [
        {
          "internalType": "uint256",
          "name": "_eventId",
          "type": "uint256"
        }
      ],
      "name": "fetchCategoriesByEventId",
      "outputs": [
        {
          "components": [
            {
              "internalType": "uint256",
              "name": "id",
              "type": "uint256"
            },
            {
              "internalType": "string",
              "name": "cid",
              "type": "string"
            },
            {
              "internalType": "uint256[]",
              "name": "ticketIds",
              "type": "uint256[]"
            },
            {
              "internalType": "uint256",
              "name": "ticketPrice",
              "type": "uint256"
            },
            {
              "internalType": "uint256",
              "name": "ticketsCount",
              "type": "uint256"
            },
            {
              "internalType": "uint256",
              "name": "saleStartDate",
              "type": "uint256"
            },
            {
              "internalType": "uint256",
              "name": "saleEndDate",
              "type": "uint256"
            },
            {
              "internalType": "uint256",
              "name": "eventId",
              "type": "uint256"
            },
            {
              "internalType": "uint256[]",
              "name": "discountsTicketsCount",
              "type": "uint256[]"
            },
            {
              "internalType": "uint256[]",
              "name": "discountsPercentage",
              "type": "uint256[]"
            },
            {
              "components": [
                {
                  "internalType": "uint256",
                  "name": "price",
                  "type": "uint256"
                },
                {
                  "internalType": "uint256",
                  "name": "finalAmountDate",
                  "type": "uint256"
                }
              ],
              "internalType": "struct DownPayment",
              "name": "downPayment",
              "type": "tuple"
            },
            {
              "internalType": "bool",
              "name": "areTicketsBuyable",
              "type": "bool"
            }
          ],
          "internalType": "struct Category[]",
          "name": "",
          "type": "tuple[]"
        }
      ],
      "stateMutability": "view",
      "type": "function"
    },
    {
      "inputs": [
        {
          "internalType": "uint256",
          "name": "_eventId",
          "type": "uint256"
        }
      ],
      "name": "fetchEventById",
      "outputs": [
        {
          "components": [
            {
              "internalType": "address",
              "name": "organizer",
              "type": "address"
            },
            {
              "internalType": "uint256",
              "name": "maxTicketsPerClient",
              "type": "uint256"
            },
            {
              "internalType": "uint256",
              "name": "balance",
              "type": "uint256"
            },
            {
              "internalType": "bool",
              "name": "areAllCategoryTicketsBuyable",
              "type": "bool"
            },
            {
              "internalType": "uint64",
              "name": "startTime",
              "type": "uint64"
            },
            {
              "internalType": "uint64",
              "name": "endTime",
              "type": "uint64"
            },
            {
              "components": [
                {
                  "internalType": "uint256",
                  "name": "date",
                  "type": "uint256"
                },
                {
                  "internalType": "uint8",
                  "name": "percentage",
                  "type": "uint8"
                }
              ],
              "internalType": "struct RefundData[]",
              "name": "refundData",
              "type": "tuple[]"
            }
          ],
          "internalType": "struct Event",
          "name": "eventObj",
          "type": "tuple"
        }
      ],
      "stateMutability": "view",
      "type": "function"
    },
    {
      "inputs": [],
      "name": "fetchOwnedEvents",
      "outputs": [
        {
          "internalType": "uint256[]",
          "name": "",
          "type": "uint256[]"
        }
      ],
      "stateMutability": "view",
      "type": "function"
    },
    {
      "inputs": [
        {
          "internalType": "uint256",
          "name": "tokenId",
          "type": "uint256"
        }
      ],
      "name": "getApproved",
      "outputs": [
        {
          "internalType": "address",
          "name": "",
          "type": "address"
        }
      ],
      "stateMutability": "view",
      "type": "function"
    },
    {
      "inputs": [
        {
          "internalType": "uint256",
          "name": "eventId",
          "type": "uint256"
        }
      ],
      "name": "getEventMembers",
      "outputs": [
        {
          "components": [
            {
              "internalType": "address",
              "name": "account",
              "type": "address"
            },
            {
              "internalType": "bytes32",
              "name": "role",
              "type": "bytes32"
            }
          ],
          "internalType": "struct MemberData[]",
          "name": "",
          "type": "tuple[]"
        }
      ],
      "stateMutability": "view",
      "type": "function"
    },
    {
      "inputs": [
        {
          "internalType": "uint256",
          "name": "eventId",
          "type": "uint256"
        },
        {
          "internalType": "bytes32",
          "name": "role",
          "type": "bytes32"
        }
      ],
      "name": "getRoleAdmin",
      "outputs": [
        {
          "internalType": "bytes32",
          "name": "",
          "type": "bytes32"
        }
      ],
      "stateMutability": "view",
      "type": "function"
    },
    {
      "inputs": [
        {
          "internalType": "uint256",
          "name": "eventId",
          "type": "uint256"
        },
        {
          "internalType": "bytes32",
          "name": "role",
          "type": "bytes32"
        },
        {
          "internalType": "address",
          "name": "account",
          "type": "address"
        }
      ],
      "name": "grantRole",
      "outputs": [],
      "stateMutability": "nonpayable",
      "type": "function"
    },
    {
      "inputs": [
        {
          "internalType": "uint256",
          "name": "eventId",
          "type": "uint256"
        },
        {
          "internalType": "bytes32",
          "name": "role",
          "type": "bytes32"
        },
        {
          "internalType": "address",
          "name": "account",
          "type": "address"
        }
      ],
      "name": "hasRole",
      "outputs": [
        {
          "internalType": "bool",
          "name": "",
          "type": "bool"
        }
      ],
      "stateMutability": "view",
      "type": "function"
    },
    {
      "inputs": [
        {
          "internalType": "address",
          "name": "owner",
          "type": "address"
        },
        {
          "internalType": "address",
          "name": "operator",
          "type": "address"
        }
      ],
      "name": "isApprovedForAll",
      "outputs": [
        {
          "internalType": "bool",
          "name": "",
          "type": "bool"
        }
      ],
      "stateMutability": "view",
      "type": "function"
    },
    {
      "inputs": [
        {
          "internalType": "uint256",
          "name": "_eventId",
          "type": "uint256"
        },
        {
          "internalType": "bool",
          "name": "_value",
          "type": "bool"
        }
      ],
      "name": "manageAllCategorySelling",
      "outputs": [],
      "stateMutability": "nonpayable",
      "type": "function"
    },
    {
      "inputs": [
        {
          "internalType": "uint256",
          "name": "_eventId",
          "type": "uint256"
        },
        {
          "internalType": "uint256",
          "name": "_categoryId",
          "type": "uint256"
        },
        {
          "internalType": "bool",
          "name": "_value",
          "type": "bool"
        }
      ],
      "name": "manageCategorySelling",
      "outputs": [],
      "stateMutability": "nonpayable",
      "type": "function"
    },
    {
      "inputs": [],
      "name": "name",
      "outputs": [
        {
          "internalType": "string",
          "name": "",
          "type": "string"
        }
      ],
      "stateMutability": "view",
      "type": "function"
    },
    {
      "inputs": [
        {
          "internalType": "uint256",
          "name": "tokenId",
          "type": "uint256"
        }
      ],
      "name": "ownerOf",
      "outputs": [
        {
          "internalType": "address",
          "name": "",
          "type": "address"
        }
      ],
      "stateMutability": "view",
      "type": "function"
    },
    {
      "inputs": [
        {
          "internalType": "uint256",
          "name": "_eventId",
          "type": "uint256"
        },
        {
          "internalType": "uint256",
          "name": "_categoryId",
          "type": "uint256"
        }
      ],
      "name": "removeCategory",
      "outputs": [],
      "stateMutability": "nonpayable",
      "type": "function"
    },
    {
      "inputs": [
        {
          "internalType": "uint256",
          "name": "_eventId",
          "type": "uint256"
        },
        {
          "internalType": "uint256",
          "name": "_categoryId",
          "type": "uint256"
        },
        {
          "internalType": "uint256",
          "name": "_ticketsCount",
          "type": "uint256"
        }
      ],
      "name": "removeCategoryTicketsCount",
      "outputs": [],
      "stateMutability": "nonpayable",
      "type": "function"
    },
    {
      "inputs": [
        {
          "internalType": "uint256",
          "name": "_eventId",
          "type": "uint256"
        }
      ],
      "name": "removeEvent",
      "outputs": [],
      "stateMutability": "nonpayable",
      "type": "function"
    },
    {
      "inputs": [
        {
          "internalType": "uint256",
          "name": "_eventId",
          "type": "uint256"
        },
        {
          "internalType": "bytes32",
          "name": "_role",
          "type": "bytes32"
        },
        {
          "internalType": "address",
          "name": "_account",
          "type": "address"
        }
      ],
      "name": "removeTeamMember",
      "outputs": [],
      "stateMutability": "nonpayable",
      "type": "function"
    },
    {
      "inputs": [
        {
          "internalType": "uint256",
          "name": "eventId",
          "type": "uint256"
        },
        {
          "internalType": "bytes32",
          "name": "role",
          "type": "bytes32"
        },
        {
          "internalType": "address",
          "name": "account",
          "type": "address"
        }
      ],
      "name": "renounceRole",
      "outputs": [],
      "stateMutability": "nonpayable",
      "type": "function"
    },
    {
      "inputs": [
        {
          "internalType": "uint256",
          "name": "eventId",
          "type": "uint256"
        },
        {
          "internalType": "bytes32",
          "name": "role",
          "type": "bytes32"
        },
        {
          "internalType": "address",
          "name": "account",
          "type": "address"
        }
      ],
      "name": "revokeRole",
      "outputs": [],
      "stateMutability": "nonpayable",
      "type": "function"
    },
    {
      "inputs": [
        {
          "internalType": "address",
          "name": "from",
          "type": "address"
        },
        {
          "internalType": "address",
          "name": "to",
          "type": "address"
        },
        {
          "internalType": "uint256",
          "name": "tokenId",
          "type": "uint256"
        }
      ],
      "name": "safeTransferFrom",
      "outputs": [],
      "stateMutability": "nonpayable",
      "type": "function"
    },
    {
      "inputs": [
        {
          "internalType": "address",
          "name": "from",
          "type": "address"
        },
        {
          "internalType": "address",
          "name": "to",
          "type": "address"
        },
        {
          "internalType": "uint256",
          "name": "tokenId",
          "type": "uint256"
        },
        {
          "internalType": "bytes",
          "name": "data",
          "type": "bytes"
        }
      ],
      "name": "safeTransferFrom",
      "outputs": [],
      "stateMutability": "nonpayable",
      "type": "function"
    },
    {
      "inputs": [
        {
          "internalType": "address",
          "name": "operator",
          "type": "address"
        },
        {
          "internalType": "bool",
          "name": "approved",
          "type": "bool"
        }
      ],
      "name": "setApprovalForAll",
      "outputs": [],
      "stateMutability": "nonpayable",
      "type": "function"
    },
    {
      "inputs": [
        {
          "internalType": "uint256",
          "name": "_eventId",
          "type": "uint256"
        },
        {
          "internalType": "address",
          "name": "_account",
          "type": "address"
        }
      ],
      "name": "setEventCashier",
      "outputs": [],
      "stateMutability": "nonpayable",
      "type": "function"
    },
    {
      "inputs": [
        {
          "internalType": "uint256",
          "name": "tokenId",
          "type": "uint256"
        }
      ],
      "name": "startTime",
      "outputs": [
        {
          "internalType": "uint64",
          "name": "",
          "type": "uint64"
        }
      ],
      "stateMutability": "view",
      "type": "function"
    },
    {
      "inputs": [
        {
          "internalType": "bytes4",
          "name": "interfaceId",
          "type": "bytes4"
        }
      ],
      "name": "supportsInterface",
      "outputs": [
        {
          "internalType": "bool",
          "name": "",
          "type": "bool"
        }
      ],
      "stateMutability": "view",
      "type": "function"
    },
    {
      "inputs": [],
      "name": "symbol",
      "outputs": [
        {
          "internalType": "string",
          "name": "",
          "type": "string"
        }
      ],
      "stateMutability": "view",
      "type": "function"
    },
    {
      "inputs": [
        {
          "internalType": "uint256",
          "name": "tokenId",
          "type": "uint256"
        }
      ],
      "name": "tokenURI",
      "outputs": [
        {
          "internalType": "string",
          "name": "",
          "type": "string"
        }
      ],
      "stateMutability": "view",
      "type": "function"
    },
    {
      "inputs": [
        {
          "internalType": "address",
          "name": "from",
          "type": "address"
        },
        {
          "internalType": "address",
          "name": "to",
          "type": "address"
        },
        {
          "internalType": "uint256",
          "name": "tokenId",
          "type": "uint256"
        }
      ],
      "name": "transferFrom",
      "outputs": [],
      "stateMutability": "nonpayable",
      "type": "function"
    },
    {
      "inputs": [
        {
          "internalType": "uint256",
          "name": "_eventId",
          "type": "uint256"
        },
        {
          "internalType": "uint256",
          "name": "_categoryId",
          "type": "uint256"
        },
        {
          "internalType": "string",
          "name": "_categoryCid",
          "type": "string"
        },
        {
          "internalType": "uint256",
          "name": "_ticketPrice",
          "type": "uint256"
        },
        {
          "internalType": "uint256[]",
          "name": "_discountsTicketsCount",
          "type": "uint256[]"
        },
        {
          "internalType": "uint256[]",
          "name": "_discountsPercentage",
          "type": "uint256[]"
        },
        {
          "components": [
            {
              "internalType": "uint256",
              "name": "price",
              "type": "uint256"
            },
            {
              "internalType": "uint256",
              "name": "finalAmountDate",
              "type": "uint256"
            }
          ],
          "internalType": "struct DownPayment",
          "name": "_downPayment",
          "type": "tuple"
        }
      ],
      "name": "updateCategory",
      "outputs": [],
      "stateMutability": "nonpayable",
      "type": "function"
    },
    {
      "inputs": [
        {
          "internalType": "uint256",
          "name": "_eventId",
          "type": "uint256"
        },
        {
          "internalType": "uint256",
          "name": "_categoryId",
          "type": "uint256"
        },
        {
          "internalType": "uint256",
          "name": "_saleStartDate",
          "type": "uint256"
        },
        {
          "internalType": "uint256",
          "name": "_saleEndDate",
          "type": "uint256"
        }
      ],
      "name": "updateCategorySaleDates",
      "outputs": [],
      "stateMutability": "nonpayable",
      "type": "function"
    },
    {
      "inputs": [
        {
          "internalType": "uint256",
          "name": "_eventId",
          "type": "uint256"
        },
        {
          "internalType": "string",
          "name": "_newMetadataURI",
          "type": "string"
        }
      ],
      "name": "updateEventTokenUri",
      "outputs": [],
      "stateMutability": "nonpayable",
      "type": "function"
    }
  ],
  "bytecode": "0x608060405234801561001057600080fd5b5061549c806100206000396000f3fe608060405234801561001057600080fd5b50600436106102485760003560e01c806356164e1e1161013b578063a3cfe160116100b8578063d5533da01161007c578063d5533da01461055e578063e985e9c514610571578063f354159b14610584578063f99c229214610597578063fb42204d1461059f57600080fd5b8063a3cfe160146104fd578063abae6af914610510578063b015554414610525578063b88d4fde14610538578063c87b56dd1461054b57600080fd5b8063959a1b58116100ff578063959a1b581461049c57806395d89b41146104af578063a22cb465146104b7578063a310d9bf146104ca578063a3bdc7c7146104dd57600080fd5b806356164e1e1461043d5780636352211e146104505780636a4bc7de1461046357806370a0823114610476578063724bdedf1461048957600080fd5b80632053d82c116101c95780633d378bb01161018d5780633d378bb0146103c65780633ec4c968146103d957806342842e0e1461040457806344c816fa146104175780634a120dd71461042a57600080fd5b80632053d82c1461035757806323b872dd1461036a5780632761f33b1461037d5780633660ff8314610390578063397d4dbc146103a557600080fd5b80630d517286116102105780630d517286146102de5780630e1b943d146102fe578063119345aa1461031e5780631c6f9271146103315780631cdf29c71461034457600080fd5b806301ffc9a71461024d5780630309a5391461027657806306fdde031461028b578063081812fc146102a0578063095ea7b3146102cb575b600080fd5b61026161025b3660046143a5565b50600090565b60405190151581526020015b60405180910390f35b6102896102843660046143d7565b6105b2565b005b6102936106db565b60405161026d9190614453565b6102b36102ae366004614466565b610772565b6040516001600160a01b03909116815260200161026d565b6102896102d9366004614496565b61079b565b6102f16102ec366004614466565b6108b0565b60405161026d9190614570565b61031161030c366004614466565b6109f8565b60405161026d9190614583565b61026161032c3660046145db565b610a77565b61028961033f366004614610565b610aae565b610289610352366004614642565b610c81565b610289610365366004614710565b610d90565b610289610378366004614756565b610e8c565b61028961038b3660046147ef565b610ebd565b610398611186565b60405161026d91906148b1565b6103b86103b3366004614913565b61137e565b60405190815260200161026d565b6102896103d4366004614913565b6113a2565b6103ec6103e7366004614466565b61178c565b6040516001600160401b03909116815260200161026d565b610289610412366004614756565b611797565b6103ec610425366004614466565b6117b2565b6102896104383660046145db565b6117bd565b61028961044b366004614466565b6117e4565b6102b361045e366004614466565b611afd565b6102896104713660046145db565b611b66565b6103b8610484366004614935565b611c88565b6102896104973660046145db565b611d14565b6102896104aa366004614991565b611d8d565b6102936121cf565b6102896104c5366004614a7b565b6121e2565b6102896104d8366004614aa5565b6121f1565b6104f06104eb366004614466565b6123bf565b60405161026d9190614b0c565b61028961050b366004614c57565b61275c565b610518612944565b60405161026d9190614cbe565b6102896105333660046145db565b612a8f565b610289610546366004614cd1565b612baf565b610293610559366004614466565b612be1565b61028961056c366004614d40565b612d28565b61026161057f366004614d6c565b612efa565b610289610592366004614d40565b612f28565b6105186131bb565b6102896105ad3660046145db565b6132c0565b600082815260026020908152604091829020548251808401909352601b835260008051602061533c833981519152918301919091528391906001600160a01b03166106195760405162461bcd60e51b81526004016106109190614453565b60405180910390fd5b5061062683600033610a77565b806106455750610645836000805160206153e483398151915233610a77565b6040518060600160405280602a815260200161529d602a91399061067c5760405162461bcd60e51b81526004016106109190614453565b50600083815260096020908152604091829020600301805460ff19168515159081179091558251868152918201527f578eeefe0b8083fcd939e8d547da4c0ba6b26ed213c13de65ab08a52f9f26a5291015b60405180910390a1505050565b606060008060000180546106ee90614d96565b80601f016020809104026020016040519081016040528092919081815260200182805461071a90614d96565b80156107675780601f1061073c57610100808354040283529160200191610767565b820191906000526020600020905b81548152906001019060200180831161074a57829003601f168201915b505050505091505090565b60008061077e836132e0565b60009283526004016020525060409020546001600160a01b031690565b60006107a682611afd565b9050806001600160a01b0316836001600160a01b0316036108135760405162461bcd60e51b815260206004820152602160248201527f4552433732313a20617070726f76616c20746f2063757272656e74206f776e656044820152603960f91b6064820152608401610610565b336001600160a01b038216148061082f575061082f8133612efa565b6108a15760405162461bcd60e51b815260206004820152603e60248201527f4552433732313a20617070726f76652063616c6c6572206973206e6f7420746f60448201527f6b656e206f776e6572206e6f7220617070726f76656420666f7220616c6c00006064820152608401610610565b6108ab8383613333565b505050565b6108b8614184565b600082815260026020908152604091829020548251808401909352601b835260008051602061533c833981519152918301919091528391906001600160a01b03166109165760405162461bcd60e51b81526004016106109190614453565b506000838152600960209081526040808320815160e08101835281546001600160a01b03168152600182015481850152600282015481840152600382015460ff8116151560608301526001600160401b03610100820481166080840152600160481b9091041660a08201526004820180548451818702810187019095528085529195929460c0870194939192919084015b828210156109e957600084815260209081902060408051808201909152600285029091018054825260019081015460ff168284015290835290920191016109a7565b50505091525090949350505050565b6000818152601360209081526040808320805482518185028101850190935280835260609493849084015b82821015610a6b576000848152602090819020604080518082019091526002850290910180546001600160a01b03168252600190810154828401529083529092019101610a23565b50505050915050919050565b600083815260126020908152604080832085845282528083206001600160a01b038516845290915281205460ff165b949350505050565b600084815260026020908152604091829020548251808401909352601b835260008051602061533c833981519152918301919091528591906001600160a01b0316610b0c5760405162461bcd60e51b81526004016106109190614453565b506000848152600a6020908152604091829020548251808401909352601e835260008051602061535c83398151915291830191909152859190610b625760405162461bcd60e51b81526004016106109190614453565b508585816000600a01600083815260200190815260200160002060070154146040518060600160405280602981526020016152c76029913990610bb85760405162461bcd60e51b81526004016106109190614453565b50610bc588600033610a77565b80610be45750610be4886000805160206153e483398151915233610a77565b6040518060600160405280602a815260200161529d602a913990610c1b5760405162461bcd60e51b81526004016106109190614453565b506000878152600a60209081526040918290206005810189905560060187905581518a8152908101899052338183015290517f4192182acd964db32b1197a6483d5694cf6e678e7202565c44cc961078eb2c8f9181900360600190a15050505050505050565b600082815260026020908152604091829020548251808401909352601b835260008051602061533c833981519152918301919091528391906001600160a01b0316610cdf5760405162461bcd60e51b81526004016106109190614453565b50610cec83600033610a77565b6040518060400160405280601d81526020016000805160206153c483398151915281525090610d2e5760405162461bcd60e51b81526004016106109190614453565b50610d48836000805160206153a4833981519152846132c0565b604080518481526001600160a01b038416602082015233918101919091527f9f54db3c6775e8717da6972b09a7ed552d62f5fd63696a1a75e58f61bd240193906060016106ce565b600082815260026020908152604091829020548251808401909352601b835260008051602061533c833981519152918301919091528391906001600160a01b0316610dee5760405162461bcd60e51b81526004016106109190614453565b50610dfb83600033610a77565b80610e1a5750610e1a836000805160206153e483398151915233610a77565b6040518060600160405280602a815260200161529d602a913990610e515760405162461bcd60e51b81526004016106109190614453565b50610e5c83836133a2565b6040518381527ff8e1a15aba9398e019f0b49df1a4fde98ee17ae345cb5f6b5e2c27f5033e8ce7906020016106ce565b610e96338261342a565b610eb25760405162461bcd60e51b815260040161061090614dca565b6108ab838383613488565b600089815260026020908152604091829020548251808401909352601b835260008051602061533c833981519152918301919091528a91906001600160a01b0316610f1b5760405162461bcd60e51b81526004016106109190614453565b506000898152600a6020908152604091829020548251808401909352601e835260008051602061535c833981519152918301919091528a9190610f715760405162461bcd60e51b81526004016106109190614453565b508a8a816000600a01600083815260200190815260200160002060070154146040518060600160405280602981526020016152c76029913990610fc75760405162461bcd60e51b81526004016106109190614453565b50610fd48d600033610a77565b80610ff35750610ff38d6000805160206153e483398151915233610a77565b6040518060600160405280602a815260200161529d602a91399061102a5760405162461bcd60e51b81526004016106109190614453565b5060408051606081019091526028808252898814919061537c6020830139906110665760405162461bcd60e51b81526004016106109190614453565b50896000036110b4578715801561107b575085155b60405180606001604052806028815260200161537c60289139906110b25760405162461bcd60e51b81526004016106109190614453565b505b60008c8152600a602052604090206001016110cf8c82614e5e565b5060008c8152600a60205260409020600381018b90556110f3906008018a8a6141de565b5060008c8152600a602052604090206111109060090188886141de565b5060008c8152600a6020819052604090912086910161113c828281358155602082013560018201555050565b5050604080518e8152602081018e90527f44df894581249b9c6cda25b6fe8239320be1641adde53f17479b4153cadfcc60910160405180910390a150505050505050505050505050565b6060600061119360075490565b905060008060015b8381116111df576000818152600960205260409020546001600160a01b0316156111cd57826111c981614f33565b9350505b806111d781614f33565b91505061119b565b506000826001600160401b038111156111fa576111fa614665565b60405190808252806020026020018201604052801561123357816020015b611220614184565b8152602001906001900390816112185790505b50905060015b848111611375576000818152600960205260409020546001600160a01b031615611363576000818152600960209081526040808320815160e08101835281546001600160a01b03168152600182015481850152600282015481840152600382015460ff8116151560608301526001600160401b03610100820481166080840152600160481b9091041660a08201526004820180548451818702810187019095528085529195929460c0870194939192919084015b8282101561132f57600084815260209081902060408051808201909152600285029091018054825260019081015460ff168284015290835290920191016112ed565b505050508152505082848151811061134957611349614f4c565b6020026020010181905250828061135f90614f33565b9350505b8061136d81614f33565b915050611239565b50949350505050565b60008281526012602090815260408083208484529091529020600101545b92915050565b600082815260026020908152604091829020548251808401909352601b835260008051602061533c833981519152918301919091528391906001600160a01b03166114005760405162461bcd60e51b81526004016106109190614453565b506000828152600a6020908152604091829020548251808401909352601e835260008051602061535c833981519152918301919091528391906114565760405162461bcd60e51b81526004016106109190614453565b508383816000600a01600083815260200190815260200160002060070154146040518060600160405280602981526020016152c760299139906114ac5760405162461bcd60e51b81526004016106109190614453565b506114b986600033610a77565b806114d857506114d8866000805160206153e483398151915233610a77565b6040518060600160405280602a815260200161529d602a91399061150f5760405162461bcd60e51b81526004016106109190614453565b506000858152600a6020908152604091829020600201548251808401909352601d83527f4576656e743a2054686572652061726520736f6c64207469636b65747300000091830191909152156115785760405162461bcd60e51b81526004016106109190614453565b506000858152600a60205260408120818155906115986001830182614229565b6115a6600283016000614263565b600382016000905560048201600090556005820160009055600682016000905560078201600090556008820160006115de9190614263565b6115ec600983016000614263565b506000600a8201819055600b808301829055600c909201805460ff1916905587815260209182526040808220805482518186028101860190935280835292939192909183018282801561165e57602002820191906000526020600020905b81548152602001906001019080831161164a575b5050505050905060005b8151811015611748578682828151811061168457611684614f4c565b602002602001015103611736576000888152600b6020526040902082516116ad90600190614f62565b815481106116bd576116bd614f4c565b90600052602060002001546000600b0160008a815260200190815260200160002082815481106116ef576116ef614f4c565b6000918252602080832090910192909255898152600b9091526040902080548061171b5761171b614f75565b60019003818190600052602060002001600090559055611748565b8061174081614f33565b915050611668565b5060408051888152602081018890527ff67e86d3ffc2c26729aac7f4e3e07e009ad076ace7cd9e9fc184fd452ac0cc8591015b60405180910390a150505050505050565b600061139c8261362c565b6108ab83838360405180602001604052806000815250612baf565b600061139c826136a4565b826117c8848461137e565b6117d2828261371e565b6117dd858585613729565b5050505050565b600081815260026020908152604091829020548251808401909352601b835260008051602061533c833981519152918301919091528291906001600160a01b03166118425760405162461bcd60e51b81526004016106109190614453565b5061184f82600033610a77565b6040518060400160405280601d81526020016000805160206153c4833981519152815250906118915760405162461bcd60e51b81526004016106109190614453565b506000828152600b60209081526040808320805482518185028101850190935280835291929091908301828280156118e857602002820191906000526020600020905b8154815260200190600101908083116118d4575b505050505090506000805b8251811015611959576000600a01600084838151811061191557611915614f4c565b6020026020010151815260200190815260200160002060020180549050600003611947578161194381614f33565b9250505b8061195181614f33565b9150506118f3565b50808251146040518060400160405280601d81526020017f4576656e743a2054686572652061726520736f6c64207469636b657473000000815250906119b25760405162461bcd60e51b81526004016106109190614453565b506119bc846137f3565b600084815260096020526040812080546001600160a01b0319168155600181018290556002810182905560038101805470ffffffffffffffffffffffffffffffffff1916905590611a106004830182614281565b50506000848152600b60205260408120611a2991614263565b60005b82518110156117dd576000600a016000848381518110611a4e57611a4e614f4c565b60200260200101518152602001908152602001600020600080820160009055600182016000611a7d9190614229565b611a8b600283016000614263565b60038201600090556004820160009055600582016000905560068201600090556007820160009055600882016000611ac39190614263565b611ad1600983016000614263565b506000600a8201819055600b820155600c01805460ff1916905580611af581614f33565b915050611a2c565b60008181526002602052604081205481906001600160a01b031680611b5f5760405162461bcd60e51b8152602060048201526018602482015277115490cdcc8c4e881a5b9d985b1a59081d1bdad95b88125160421b6044820152606401610610565b9392505050565b600083815260026020908152604091829020548251808401909352601b835260008051602061533c833981519152918301919091528491906001600160a01b0316611bc45760405162461bcd60e51b81526004016106109190614453565b50611bd184600033610a77565b6040518060400160405280601d81526020016000805160206153c483398151915281525090611c135760405162461bcd60e51b81526004016106109190614453565b5060408051808201909152601d81527f4576656e743a2043616e2774207365742063617368696572206865726500000060208201526000805160206153a48339815191528403611c765760405162461bcd60e51b81526004016106109190614453565b50611c828484846132c0565b50505050565b6000806001600160a01b038316611cf35760405162461bcd60e51b815260206004820152602960248201527f4552433732313a2061646472657373207a65726f206973206e6f7420612076616044820152683634b21037bbb732b960b91b6064820152608401610610565b6001600160a01b039092166000908152600390920160205250604090205490565b6001600160a01b0381163314611d825760405162461bcd60e51b815260206004820152602d60248201527f526f6c65436f6e74726f6c3a2063616e206f6e6c792072656e6f756e6365207260448201526c37b632b9903337b91039b2b63360991b6064820152608401610610565b6108ab838383613729565b60008c815260026020908152604091829020548251808401909352601b835260008051602061533c833981519152918301919091528d91906001600160a01b0316611deb5760405162461bcd60e51b81526004016106109190614453565b50611df88d600033610a77565b80611e175750611e178d6000805160206153e483398151915233610a77565b6040518060600160405280602a815260200161529d602a913990611e4e5760405162461bcd60e51b81526004016106109190614453565b5060408051606081019091526028808252868514919061537c602083013990611e8a5760405162461bcd60e51b81526004016106109190614453565b5086600003611ed85784158015611e9f575082155b60405180606001604052806028815260200161537c6028913990611ed65760405162461bcd60e51b81526004016106109190614453565b505b611ee6600880546001019055565b6000611ef160085490565b6000818152600a60205260409020818155909150600101611f138d8f83614f8b565b506040805160008082526020808301808552858352600a9091529290209051611f4292600290920191906142a2565b506000818152600a60205260409020600481018a9055600781018f905560038101899055611f749060080188886141de565b506000818152600a60205260409020611f919060090186866141de565b506000818152600a60208190526040909120849101611fbd828281358155602082013560018201555050565b50508a158015611fcb575089155b15611ffc576000818152600a60205260409020600581018c9055600681018b9055600c01805460ff19169055612145565b8a60000361201e576000818152600a6020526040902042600590910155612091565b60008e8152600960209081526040918290206003015482516060810190935260278084526101009091046001600160401b03168e10159291615315908301399061207b5760405162461bcd60e51b81526004016106109190614453565b506000818152600a602052604090206005018b90555b896000036120b3576000818152600a6020526040902042600690910155612128565b60008e815260096020908152604091829020600301548251606081019093526025808452600160481b9091046001600160401b03168d111592916152f090830139906121125760405162461bcd60e51b81526004016106109190614453565b506000818152600a602052604090206006018a90555b6000818152600a60205260409020600c01805460ff191660011790555b6000600b0160008f81526020019081526020016000208190806001815401808255809150506001900390600052602060002001600090919091909150557f2a94cd6b8e4219d087c43453e983d276c11f9ba16e547f01adb19edb60ae3c7d8e828f8f6040516121b7949392919061504a565b60405180910390a15050505050505050505050505050565b606060008060010180546106ee90614d96565b6121ed3383836138ca565b5050565b600083815260026020908152604091829020548251808401909352601b835260008051602061533c833981519152918301919091528491906001600160a01b031661224f5760405162461bcd60e51b81526004016106109190614453565b506000838152600a6020908152604091829020548251808401909352601e835260008051602061535c833981519152918301919091528491906122a55760405162461bcd60e51b81526004016106109190614453565b508484816000600a01600083815260200190815260200160002060070154146040518060600160405280602981526020016152c760299139906122fb5760405162461bcd60e51b81526004016106109190614453565b5061230887600033610a77565b806123275750612327876000805160206153e483398151915233610a77565b6040518060600160405280602a815260200161529d602a91399061235e5760405162461bcd60e51b81526004016106109190614453565b506000868152600a6020908152604091829020600c01805460ff191688151590811790915582518a8152918201899052918101919091527f15fa4fe87d07b2a02e02cc0fac2981a3fd8653661340b9b26feae8ffefaade8a9060600161177b565b600081815260026020908152604091829020548251808401909352601b835260008051602061533c8339815191529183019190915260609183916001600160a01b031661241f5760405162461bcd60e51b81526004016106109190614453565b506000838152600b602090815260408083208054825181850281018501909352808352919290919083018282801561247657602002820191906000526020600020905b815481526020019060010190808311612462575b50505050509050600081516001600160401b0381111561249857612498614665565b6040519080825280602002602001820160405280156124d157816020015b6124be6142dd565b8152602001906001900390816124b65790505b50905060005b8251811015612751576000600a0160008483815181106124f9576124f9614f4c565b60200260200101518152602001908152602001600020604051806101800160405290816000820154815260200160018201805461253590614d96565b80601f016020809104026020016040519081016040528092919081815260200182805461256190614d96565b80156125ae5780601f10612583576101008083540402835291602001916125ae565b820191906000526020600020905b81548152906001019060200180831161259157829003601f168201915b505050505081526020016002820180548060200260200160405190810160405280929190818152602001828054801561260657602002820191906000526020600020905b8154815260200190600101908083116125f2575b5050505050815260200160038201548152602001600482015481526020016005820154815260200160068201548152602001600782015481526020016008820180548060200260200160405190810160405280929190818152602001828054801561269057602002820191906000526020600020905b81548152602001906001019080831161267c575b50505050508152602001600982018054806020026020016040519081016040528092919081815260200182805480156126e857602002820191906000526020600020905b8154815260200190600101908083116126d4575b5050509183525050604080518082018252600a8401548152600b840154602082810191909152830152600c9092015460ff161515910152825183908390811061273357612733614f4c565b6020026020010181905250808061274990614f33565b9150506124d7565b509250505b50919050565b826001600160401b0316826001600160401b0316116040518060400160405280601881526020017f455243353030373a20496e76616c696420656e6454696d650000000000000000815250906127c55760405162461bcd60e51b81526004016106109190614453565b506127d4600780546001019055565b60006127df60075490565b6000818152600960205260409081902080546001600160a01b0319163317815560018082018990556003820180546001600160401b03898116600160481b0270ffffffffffffffff00000000000000000019918c166101000268ffffffffffffffffff1990931692909217909317929092169190911790559051919250907f9ce3d6db707bca4ba0eabed8fba1e2c013a1c0bc1132a764170a7854d198c73d9061288c9084908690615087565b60405180910390a16128a08260003361399d565b6128b9826000805160206153e48339815191523361399d565b6128e4827f21702c8af46127c7fa207f89d0b0a8441bb32959a0ac7df790e9ab1a25c989263361399d565b61290f827fb5a7f51d0593e853ad0aa6b718ee0bdd10c4966eb62d243b69d538e5823d04013361399d565b612928826000805160206153a48339815191523361399d565b6129323383613aa9565b61293c82846133a2565b505050505050565b6060600061295160075490565b905060008060015b8381116129c05761296c81600033610a77565b8061298b575061298b816000805160206153e483398151915233610a77565b801561299b575061299b81613be3565b156129ae57826129aa81614f33565b9350505b806129b881614f33565b915050612959565b506000826001600160401b038111156129db576129db614665565b604051908082528060200260200182016040528015612a04578160200160208202803683370190505b50905060015b84811161137557612a1d81600033610a77565b80612a3c5750612a3c816000805160206153e483398151915233610a77565b8015612a4c5750612a4c81613be3565b15612a7d5780828481518110612a6457612a64614f4c565b602090810291909101015282612a7981614f33565b9350505b80612a8781614f33565b915050612a0a565b600083815260026020908152604091829020548251808401909352601b835260008051602061533c833981519152918301919091528491906001600160a01b0316612aed5760405162461bcd60e51b81526004016106109190614453565b50612afa84600033610a77565b6040518060400160405280601d81526020016000805160206153c483398151915281525090612b3c5760405162461bcd60e51b81526004016106109190614453565b506000805160206153a48339815191528314156040518060400160405280602081526020017f4576656e743a2043616e27742072656d6f76652063617368696572206865726581525090612ba35760405162461bcd60e51b81526004016106109190614453565b50611c828484846117bd565b612bb9338361342a565b612bd55760405162461bcd60e51b815260040161061090614dca565b611c8284848484613c00565b60606000612bee836132e0565b600083815260068201602052604081208054612c0990614d96565b80601f0160208091040260200160405190810160405280929190818152602001828054612c3590614d96565b8015612c825780601f10612c5757610100808354040283529160200191612c82565b820191906000526020600020905b815481529060010190602001808311612c6557829003601f168201915b505050505090506000612ca060408051602081019091526000815290565b90508051600003612cb357509392505050565b815115612ce6578082604051602001612ccd9291906150a0565b6040516020818303038152906040529350505050919050565b6000815111612d045760405180602001604052806000815250612d1f565b80612d0e86613c33565b604051602001612ccd9291906150a0565b95945050505050565b600083815260026020908152604091829020548251808401909352601b835260008051602061533c833981519152918301919091528491906001600160a01b0316612d865760405162461bcd60e51b81526004016106109190614453565b506000838152600a6020908152604091829020548251808401909352601e835260008051602061535c83398151915291830191909152849190612ddc5760405162461bcd60e51b81526004016106109190614453565b508484816000600a01600083815260200190815260200160002060070154146040518060600160405280602981526020016152c76029913990612e325760405162461bcd60e51b81526004016106109190614453565b50612e3f87600033610a77565b80612e5e5750612e5e876000805160206153e483398151915233610a77565b6040518060600160405280602a815260200161529d602a913990612e955760405162461bcd60e51b81526004016106109190614453565b506000868152600a602052604081206004018054879290612eb79084906150cf565b909155505060408051888152602081018890529081018690527f3a50fbe2fa0bdf2022fcd8fe2132970519fcf4df5cf97d78e86c510eb0805b6a9060600161177b565b6001600160a01b03918216600090815260056020908152604080832093909416825291909152205460ff1690565b600083815260026020908152604091829020548251808401909352601b835260008051602061533c833981519152918301919091528491906001600160a01b0316612f865760405162461bcd60e51b81526004016106109190614453565b506000838152600a6020908152604091829020548251808401909352601e835260008051602061535c83398151915291830191909152849190612fdc5760405162461bcd60e51b81526004016106109190614453565b508484816000600a01600083815260200190815260200160002060070154146040518060600160405280602981526020016152c760299139906130325760405162461bcd60e51b81526004016106109190614453565b5061303f87600033610a77565b8061305e575061305e876000805160206153e483398151915233610a77565b6040518060600160405280602a815260200161529d602a9139906130955760405162461bcd60e51b81526004016106109190614453565b50846000600a0160008881526020019081526020016000206004015410156040518060600160405280602e8152602001615404602e9139906130ea5760405162461bcd60e51b81526004016106109190614453565b506000868152600a6020526040902060040154613108908690614f62565b6000878152600a6020908152604091829020600201548251606081019093526035808452931015929061543290830139906131565760405162461bcd60e51b81526004016106109190614453565b506000868152600a602052604081206004018054879290613178908490614f62565b909155505060408051888152602081018890529081018690527fb39ecd9af22a3fec10ec63455a79d572fdcfadf6a9005d5cd232b2829f958c709060600161177b565b606060006131c860075490565b905060008060015b838111613214576000818152600960205260409020546001600160a01b03161561320257826131fe81614f33565b9350505b8061320c81614f33565b9150506131d0565b506000826001600160401b0381111561322f5761322f614665565b604051908082528060200260200182016040528015613258578160200160208202803683370190505b50905060015b848111611375576000818152600960205260409020546001600160a01b0316156132ae578082848151811061329557613295614f4c565b6020908102919091010152826132aa81614f33565b9350505b806132b881614f33565b91505061325e565b826132cb848461137e565b6132d5828261371e565b6117dd85858561399d565b6132e981613be3565b6133305760405162461bcd60e51b8152602060048201526018602482015277115490cdcc8c4e881a5b9d985b1a59081d1bdad95b88125160421b6044820152606401610610565b50565b600081815260046020526040812080546001600160a01b0319166001600160a01b038516908117909155829061336882611afd565b6001600160a01b03167f8c5be1e5ebec7d5bd14f71427d1e84f3dd0314c0f7b2291e5b200ac8c7c3b92560405160405180910390a4505050565b60006133ad83613be3565b6134105760405162461bcd60e51b815260206004820152602e60248201527f45524337323155524953746f726167653a2055524920736574206f66206e6f6e60448201526d32bc34b9ba32b73a103a37b5b2b760911b6064820152608401610610565b60008381526006820160205260409020611c828382614e5e565b60008061343683611afd565b9050806001600160a01b0316846001600160a01b0316148061345d575061345d8185612efa565b80610aa65750836001600160a01b031661347684610772565b6001600160a01b031614949350505050565b6000836001600160a01b031661349d83611afd565b6001600160a01b0316146135015760405162461bcd60e51b815260206004820152602560248201527f4552433732313a207472616e736665722066726f6d20696e636f72726563742060448201526437bbb732b960d91b6064820152608401610610565b6001600160a01b0383166135635760405162461bcd60e51b8152602060048201526024808201527f4552433732313a207472616e7366657220746f20746865207a65726f206164646044820152637265737360e01b6064820152608401610610565b61356e600083613333565b6001600160a01b03841660009081526003820160205260408120805460019290613599908490614f62565b90915550506001600160a01b038316600090815260038201602052604081208054600192906135c99084906150cf565b9091555050600082815260028201602052604080822080546001600160a01b0319166001600160a01b0387811691821790925591518593918816917fddf252ad1be2c89b69c2b068fc378daa952ba7f163c4a11628f55a4df523b3ef91a4611c82565b60008061363883613be3565b61367f5760405162461bcd60e51b8152602060048201526018602482015277115490cd4c0c0dce88125b9d985b1a59081d1bdad95b925960421b6044820152606401610610565b600092835260090160205250604090206003015461010090046001600160401b031690565b6000806136b083613be3565b6136f75760405162461bcd60e51b8152602060048201526018602482015277115490cd4c0c0dce88125b9d985b1a59081d1bdad95b925960421b6044820152606401610610565b6000928352600901602052506040902060030154600160481b90046001600160401b031690565b6121ed828233613d33565b6000613736848484610a77565b15611c82576000848152601282016020908152604080832086845282528083206001600160a01b03861684528252808320805460ff19169055601484019091529020546137838582613d97565b6001600160a01b0383166000908152601483016020526040812055336001600160a01b0316836001600160a01b0316857f7b00293d63517946aeba2f56c6b4c5dec87b67393ac48520994d3d8ce776335a886040516137e491815260200190565b60405180910390a45050505050565b6000806137ff83611afd565b905061380c600084613333565b6001600160a01b03811660009081526003830160205260408120805460019290613837908490614f62565b9091555050600083815260028301602052604080822080546001600160a01b0319169055518491906001600160a01b038416907fddf252ad1be2c89b69c2b068fc378daa952ba7f163c4a11628f55a4df523b3ef908390a46000838152600683016020526040902080546138aa90614d96565b1590506108ab57600083815260068301602052604081206108ab91614229565b6000826001600160a01b0316846001600160a01b03160361392d5760405162461bcd60e51b815260206004820152601960248201527f4552433732313a20617070726f766520746f2063616c6c6572000000000000006044820152606401610610565b6001600160a01b038481166000818152600584016020908152604080832094881680845294825291829020805460ff191687151590811790915591519182527f17307eab39ab6107e8899845ad3d59bd9653f200f220920489ca2b5937696c31910160405180910390a350505050565b60006139aa848484610a77565b611c82576000848152601282016020908152604080832086845282528083206001600160a01b03868116808652918452828520805460ff19166001908117909155835180850185529283528285018981528a875260138801865293862080548083018255818852958720845160029097020180546001600160a01b03191696909316959095178255925190830155928790529054613a489190614f62565b6001600160a01b0384166000908152601484016020526040902055336001600160a01b0316836001600160a01b0316857fd9dfff7752b7a810e2b646c0c96b76bc9ed817f6c6f7848bbe68163f7e8b4378886040516137e491815260200190565b60006001600160a01b038316613b015760405162461bcd60e51b815260206004820181905260248201527f4552433732313a206d696e7420746f20746865207a65726f20616464726573736044820152606401610610565b613b0a82613be3565b15613b575760405162461bcd60e51b815260206004820152601c60248201527f4552433732313a20746f6b656e20616c7265616479206d696e746564000000006044820152606401610610565b6001600160a01b03831660009081526003820160205260408120805460019290613b829084906150cf565b9091555050600082815260028201602052604080822080546001600160a01b0319166001600160a01b03871690811790915590518492907fddf252ad1be2c89b69c2b068fc378daa952ba7f163c4a11628f55a4df523b3ef908290a4505050565b6000908152600260205260409020546001600160a01b0316151590565b613c0b848484613488565b613c1784848484613e7f565b611c825760405162461bcd60e51b8152600401610610906150e2565b606081600003613c5a5750506040805180820190915260018152600360fc1b602082015290565b8160005b8115613c845780613c6e81614f33565b9150613c7d9050600a8361514a565b9150613c5e565b6000816001600160401b03811115613c9e57613c9e614665565b6040519080825280601f01601f191660200182016040528015613cc8576020820181803683370190505b5090505b8415610aa657613cdd600183614f62565b9150613cea600a8661515e565b613cf59060306150cf565b60f81b818381518110613d0a57613d0a614f4c565b60200101906001600160f81b031916908160001a905350613d2c600a8661514a565b9450613ccc565b613d3e838383610a77565b6108ab57613d4b81613f80565b613d56836020613f92565b613d5f8561412d565b604051602001613d7193929190615172565b60408051601f198184030181529082905262461bcd60e51b825261061091600401614453565b60008281526013602052604081208054613db390600190614f62565b81548110613dc357613dc3614f4c565b90600052602060002090600202018160130160008581526020019081526020016000208381548110613df757613df7614f4c565b60009182526020808320845460029093020180546001600160a01b0319166001600160a01b0390931692909217825560019384015493909101929092558481526013830190915260409020805480613e5157613e51614f75565b60008281526020812060026000199093019283020180546001600160a01b0319168155600101559055505050565b60006001600160a01b0384163b15613f7557604051630a85bd0160e11b81526001600160a01b0385169063150b7a0290613ec3903390899088908890600401615214565b6020604051808303816000875af1925050508015613efe575060408051601f3d908101601f19168201909252613efb91810190615251565b60015b613f5b573d808015613f2c576040519150601f19603f3d011682016040523d82523d6000602084013e613f31565b606091505b508051600003613f535760405162461bcd60e51b8152600401610610906150e2565b805181602001fd5b6001600160e01b031916630a85bd0160e11b149050610aa6565b506001949350505050565b606061139c6001600160a01b03831660145b60606000613fa183600261526e565b613fac9060026150cf565b6001600160401b03811115613fc357613fc3614665565b6040519080825280601f01601f191660200182016040528015613fed576020820181803683370190505b509050600360fc1b8160008151811061400857614008614f4c565b60200101906001600160f81b031916908160001a905350600f60fb1b8160018151811061403757614037614f4c565b60200101906001600160f81b031916908160001a905350600061405b84600261526e565b6140669060016150cf565b90505b60018111156140de576f181899199a1a9b1b9c1cb0b131b232b360811b85600f166010811061409a5761409a614f4c565b1a60f81b8282815181106140b0576140b0614f4c565b60200101906001600160f81b031916908160001a90535060049490941c936140d781615285565b9050614069565b508315611b5f5760405162461bcd60e51b815260206004820181905260248201527f537472696e67733a20686578206c656e67746820696e73756666696369656e746044820152606401610610565b6060816000036141575750506040805180820190915260048152630307830360e41b602082015290565b8160005b811561417a578061416b81614f33565b915050600882901c915061415b565b610aa68482613f92565b6040518060e0016040528060006001600160a01b03168152602001600081526020016000815260200160001515815260200160006001600160401b0316815260200160006001600160401b03168152602001606081525090565b828054828255906000526020600020908101928215614219579160200282015b828111156142195782358255916020019190600101906141fe565b50614225929150614359565b5090565b50805461423590614d96565b6000825580601f10614245575050565b601f0160209004906000526020600020908101906133309190614359565b50805460008255906000526020600020908101906133309190614359565b5080546000825560020290600052602060002090810190613330919061436e565b828054828255906000526020600020908101928215614219579160200282015b828111156142195782518255916020019190600101906142c2565b6040518061018001604052806000815260200160608152602001606081526020016000815260200160008152602001600081526020016000815260200160008152602001606081526020016060815260200161434c604051806040016040528060008152602001600081525090565b8152600060209091015290565b5b80821115614225576000815560010161435a565b5b80821115614225576000815560018101805460ff1916905560020161436f565b6001600160e01b03198116811461333057600080fd5b6000602082840312156143b757600080fd5b8135611b5f8161438f565b803580151581146143d257600080fd5b919050565b600080604083850312156143ea57600080fd5b823591506143fa602084016143c2565b90509250929050565b60005b8381101561441e578181015183820152602001614406565b50506000910152565b6000815180845261443f816020860160208601614403565b601f01601f19169290920160200192915050565b602081526000611b5f6020830184614427565b60006020828403121561447857600080fd5b5035919050565b80356001600160a01b03811681146143d257600080fd5b600080604083850312156144a957600080fd5b6144b28361447f565b946020939093013593505050565b600060e0830160018060a01b038351168452602080840151818601526040808501518187015260608501511515606087015260808501516001600160401b0380821660808901528060a08801511660a0890152505060c085015160e060c0880152838151808652610100890191508483019550600092505b808310156145645785518051835285015160ff1685830152948401946001929092019190830190614538565b50979650505050505050565b602081526000611b5f60208301846144c0565b602080825282518282018190526000919060409081850190868401855b828110156145ce57815180516001600160a01b031685528601518685015292840192908501906001016145a0565b5091979650505050505050565b6000806000606084860312156145f057600080fd5b83359250602084013591506146076040850161447f565b90509250925092565b6000806000806080858703121561462657600080fd5b5050823594602084013594506040840135936060013592509050565b6000806040838503121561465557600080fd5b823591506143fa6020840161447f565b634e487b7160e01b600052604160045260246000fd5b60006001600160401b038084111561469557614695614665565b604051601f8501601f19908116603f011681019082821181831017156146bd576146bd614665565b816040528093508581528686860111156146d657600080fd5b858560208301376000602087830101525050509392505050565b600082601f83011261470157600080fd5b611b5f8383356020850161467b565b6000806040838503121561472357600080fd5b8235915060208301356001600160401b0381111561474057600080fd5b61474c858286016146f0565b9150509250929050565b60008060006060848603121561476b57600080fd5b6147748461447f565b92506147826020850161447f565b9150604084013590509250925092565b60008083601f8401126147a457600080fd5b5081356001600160401b038111156147bb57600080fd5b6020830191508360208260051b85010111156147d657600080fd5b9250929050565b60006040828403121561275657600080fd5b60008060008060008060008060006101008a8c03121561480e57600080fd5b8935985060208a0135975060408a01356001600160401b038082111561483357600080fd5b61483f8d838e016146f0565b985060608c0135975060808c013591508082111561485c57600080fd5b6148688d838e01614792565b909750955060a08c013591508082111561488157600080fd5b5061488e8c828d01614792565b90945092506148a290508b60c08c016147dd565b90509295985092959850929598565b6000602080830181845280855180835260408601915060408160051b870101925083870160005b8281101561490657603f198886030184526148f48583516144c0565b945092850192908501906001016148d8565b5092979650505050505050565b6000806040838503121561492657600080fd5b50508035926020909101359150565b60006020828403121561494757600080fd5b611b5f8261447f565b60008083601f84011261496257600080fd5b5081356001600160401b0381111561497957600080fd5b6020830191508360208285010111156147d657600080fd5b6000806000806000806000806000806000806101408d8f0312156149b457600080fd5b8c359b506001600160401b0360208e013511156149d057600080fd5b6149e08e60208f01358f01614950565b909b50995060408d0135985060608d0135975060808d0135965060a08d013595506001600160401b0360c08e01351115614a1957600080fd5b614a298e60c08f01358f01614792565b90955093506001600160401b0360e08e01351115614a4657600080fd5b614a568e60e08f01358f01614792565b9093509150614a698e6101008f016147dd565b90509295989b509295989b509295989b565b60008060408385031215614a8e57600080fd5b614a978361447f565b91506143fa602084016143c2565b600080600060608486031215614aba57600080fd5b8335925060208401359150614607604085016143c2565b600081518084526020808501945080840160005b83811015614b0157815187529582019590820190600101614ae5565b509495945050505050565b60006020808301818452808551808352604092508286019150828160051b87010184880160005b83811015614c3257603f1989840301855281516101a08151855288820151818a870152614b6282870182614427565b9150508782015185820389870152614b7a8282614ad1565b606084810151908801526080808501519088015260a0808501519088015260c0808501519088015260e0808501519088015261010080850151888303828a01529193509150614bc98382614ad1565b925050506101208083015186830382880152614be58382614ad1565b9250505061014080830151614c068288018280518252602090810151910152565b50506101608201519150614c1f61018086018315159052565b9588019593505090860190600101614b33565b509098975050505050505050565b80356001600160401b03811681146143d257600080fd5b60008060008060808587031215614c6d57600080fd5b84359350614c7d60208601614c40565b9250614c8b60408601614c40565b915060608501356001600160401b03811115614ca657600080fd5b614cb2878288016146f0565b91505092959194509250565b602081526000611b5f6020830184614ad1565b60008060008060808587031215614ce757600080fd5b614cf08561447f565b9350614cfe6020860161447f565b92506040850135915060608501356001600160401b03811115614d2057600080fd5b8501601f81018713614d3157600080fd5b614cb28782356020840161467b565b600080600060608486031215614d5557600080fd5b505081359360208301359350604090920135919050565b60008060408385031215614d7f57600080fd5b614d888361447f565b91506143fa6020840161447f565b600181811c90821680614daa57607f821691505b60208210810361275657634e487b7160e01b600052602260045260246000fd5b6020808252602e908201527f4552433732313a2063616c6c6572206973206e6f7420746f6b656e206f776e6560408201526d1c881b9bdc88185c1c1c9bdd995960921b606082015260800190565b601f8211156108ab57600081815260208120601f850160051c81016020861015614e3f5750805b601f850160051c820191505b8181101561293c57828155600101614e4b565b81516001600160401b03811115614e7757614e77614665565b614e8b81614e858454614d96565b84614e18565b602080601f831160018114614ec05760008415614ea85750858301515b600019600386901b1c1916600185901b17855561293c565b600085815260208120601f198616915b82811015614eef57888601518255948401946001909101908401614ed0565b5085821015614f0d5787850151600019600388901b60f8161c191681555b5050505050600190811b01905550565b634e487b7160e01b600052601160045260246000fd5b600060018201614f4557614f45614f1d565b5060010190565b634e487b7160e01b600052603260045260246000fd5b8181038181111561139c5761139c614f1d565b634e487b7160e01b600052603160045260246000fd5b6001600160401b03831115614fa257614fa2614665565b614fb683614fb08354614d96565b83614e18565b6000601f841160018114614fea5760008515614fd25750838201355b600019600387901b1c1916600186901b1783556117dd565b600083815260209020601f19861690835b8281101561501b5786850135825560209485019460019092019101614ffb565b50868210156150385760001960f88860031b161c19848701351681555b505060018560011b0183555050505050565b84815283602082015260606040820152816060820152818360808301376000818301608090810191909152601f909201601f191601019392505050565b828152604060208201526000610aa66040830184614427565b600083516150b2818460208801614403565b8351908301906150c6818360208801614403565b01949350505050565b8082018082111561139c5761139c614f1d565b60208082526032908201527f4552433732313a207472616e7366657220746f206e6f6e20455243373231526560408201527131b2b4bb32b91034b6b83632b6b2b73a32b960711b606082015260800190565b634e487b7160e01b600052601260045260246000fd5b60008261515957615159615134565b500490565b60008261516d5761516d615134565b500690565b7402937b632a1b7b73a3937b61d1030b1b1b7bab73a1605d1b8152600084516151a2816015850160208901614403565b7001034b99036b4b9b9b4b733903937b6329607d1b60159184019182015284516151d3816026840160208901614403565b720103337b91032bb32b73a103bb4ba341034b21606d1b602692909101918201528351615207816039840160208801614403565b0160390195945050505050565b6001600160a01b038581168252841660208201526040810183905260806060820181905260009061524790830184614427565b9695505050505050565b60006020828403121561526357600080fd5b8151611b5f8161438f565b808202811582820484141761139c5761139c614f1d565b60008161529457615294614f1d565b50600019019056fe4576656e743a2043616c6c6572206973206e6f7420616e2061646d696e206f72206d6f64657261746f724576656e743a20546869732063617465676f727920697320666f7220616e6f74686572206576656e744576656e743a2043617465676f727920656e64206461746520697320696e636f72726563744576656e743a2043617465676f7279207374617274206461746520697320696e636f72726563744576656e743a204576656e7420646f6573206e6f7420657869737400000000004576656e743a2043617465676f727920646f6573206e6f7420657869737400004576656e743a20446973636f756e7420706172616d6574657273206c656e677468206e6f74206571ff3317e1e0e8c784290b957ee9b65ea8fe96420c4819db463283b95ecbe4a3fe4576656e743a2043616c6c6572206973206e6f7420616e2061646d696e00000071f3d55856e4058ed06ee057d79ada615f65cdf5f9ee88181b914225088f834f4576656e743a2043616e2774206465637265617365207469636b65747320636f756e742062656c6f77207a65726f4576656e743a205469636b65747320616d6f756e742063616e2774206265206c657373207468616e20736f6c64207469636b657473a2646970667358221220a6408de19e32ea7d16fd25d2cf0ddda9a37b221913423b32af42d962eea3ca8f64736f6c63430008110033",
  "linkReferences": {},
  "deployedLinkReferences": {}
}