{
  "_format": "hh-sol-artifact-1",
  "contractName": "EventFacet",
  "sourceName": "contracts/EventDiamond/facets/EventFacet.sol",
  "abi": [
    {
      "inputs": [
        {
          "internalType": "string",
          "name": "_name",
          "type": "string"
        },
        {
          "internalType": "string",
          "name": "_symbol",
          "type": "string"
        },
        {
          "internalType": "address",
          "name": "_ticketContract",
          "type": "address"
        }
      ],
      "stateMutability": "nonpayable",
      "type": "constructor"
    },
    {
      "anonymous": false,
      "inputs": [
        {
          "indexed": false,
          "internalType": "uint256",
          "name": "eventId",
          "type": "uint256"
        }
      ],
      "name": "AllCategorySellStarted",
      "type": "event"
    },
    {
      "anonymous": false,
      "inputs": [
        {
          "indexed": false,
          "internalType": "uint256",
          "name": "eventId",
          "type": "uint256"
        }
      ],
      "name": "AllCategorySellStopped",
      "type": "event"
    },
    {
      "anonymous": false,
      "inputs": [
        {
          "indexed": true,
          "internalType": "address",
          "name": "owner",
          "type": "address"
        },
        {
          "indexed": true,
          "internalType": "address",
          "name": "approved",
          "type": "address"
        },
        {
          "indexed": true,
          "internalType": "uint256",
          "name": "tokenId",
          "type": "uint256"
        }
      ],
      "name": "Approval",
      "type": "event"
    },
    {
      "anonymous": false,
      "inputs": [
        {
          "indexed": true,
          "internalType": "address",
          "name": "owner",
          "type": "address"
        },
        {
          "indexed": true,
          "internalType": "address",
          "name": "operator",
          "type": "address"
        },
        {
          "indexed": false,
          "internalType": "bool",
          "name": "approved",
          "type": "bool"
        }
      ],
      "name": "ApprovalForAll",
      "type": "event"
    },
    {
      "anonymous": false,
      "inputs": [
        {
          "indexed": false,
          "internalType": "uint256",
          "name": "_fromTokenId",
          "type": "uint256"
        },
        {
          "indexed": false,
          "internalType": "uint256",
          "name": "_toTokenId",
          "type": "uint256"
        }
      ],
      "name": "BatchMetadataUpdate",
      "type": "event"
    },
    {
      "anonymous": false,
      "inputs": [
        {
          "indexed": false,
          "internalType": "uint256",
          "name": "eventId",
          "type": "uint256"
        },
        {
          "indexed": false,
          "internalType": "uint256",
          "name": "categoryId",
          "type": "uint256"
        },
        {
          "indexed": false,
          "internalType": "string",
          "name": "categoryCid",
          "type": "string"
        }
      ],
      "name": "CategoryCreated",
      "type": "event"
    },
    {
      "anonymous": false,
      "inputs": [
        {
          "indexed": false,
          "internalType": "uint256",
          "name": "eventId",
          "type": "uint256"
        },
        {
          "indexed": false,
          "internalType": "uint256",
          "name": "categoryId",
          "type": "uint256"
        }
      ],
      "name": "CategoryDeleted",
      "type": "event"
    },
    {
      "anonymous": false,
      "inputs": [
        {
          "indexed": false,
          "internalType": "uint256",
          "name": "eventId",
          "type": "uint256"
        },
        {
          "indexed": false,
          "internalType": "uint256",
          "name": "categoryId",
          "type": "uint256"
        },
        {
          "indexed": false,
          "internalType": "address",
          "name": "staffMember",
          "type": "address"
        }
      ],
      "name": "CategorySaleDatesUpdated",
      "type": "event"
    },
    {
      "anonymous": false,
      "inputs": [
        {
          "indexed": false,
          "internalType": "uint256",
          "name": "eventId",
          "type": "uint256"
        },
        {
          "indexed": false,
          "internalType": "uint256",
          "name": "categoryId",
          "type": "uint256"
        }
      ],
      "name": "CategorySellStarted",
      "type": "event"
    },
    {
      "anonymous": false,
      "inputs": [
        {
          "indexed": false,
          "internalType": "uint256",
          "name": "eventId",
          "type": "uint256"
        },
        {
          "indexed": false,
          "internalType": "uint256",
          "name": "categoryId",
          "type": "uint256"
        }
      ],
      "name": "CategorySellStopped",
      "type": "event"
    },
    {
      "anonymous": false,
      "inputs": [
        {
          "indexed": false,
          "internalType": "uint256",
          "name": "eventId",
          "type": "uint256"
        },
        {
          "indexed": false,
          "internalType": "uint256",
          "name": "categoryId",
          "type": "uint256"
        },
        {
          "indexed": false,
          "internalType": "uint256",
          "name": "ticketsCount",
          "type": "uint256"
        }
      ],
      "name": "CategoryTicketsAdded",
      "type": "event"
    },
    {
      "anonymous": false,
      "inputs": [
        {
          "indexed": false,
          "internalType": "uint256",
          "name": "eventId",
          "type": "uint256"
        },
        {
          "indexed": false,
          "internalType": "uint256",
          "name": "categoryId",
          "type": "uint256"
        },
        {
          "indexed": false,
          "internalType": "uint256",
          "name": "ticketsCount",
          "type": "uint256"
        }
      ],
      "name": "CategoryTicketsRemoved",
      "type": "event"
    },
    {
      "anonymous": false,
      "inputs": [
        {
          "indexed": false,
          "internalType": "uint256",
          "name": "eventId",
          "type": "uint256"
        },
        {
          "indexed": false,
          "internalType": "uint256",
          "name": "categoryId",
          "type": "uint256"
        }
      ],
      "name": "CategoryUpdated",
      "type": "event"
    },
    {
      "anonymous": false,
      "inputs": [
        {
          "indexed": true,
          "internalType": "uint256",
          "name": "fromTokenId",
          "type": "uint256"
        },
        {
          "indexed": false,
          "internalType": "uint256",
          "name": "toTokenId",
          "type": "uint256"
        },
        {
          "indexed": true,
          "internalType": "address",
          "name": "fromAddress",
          "type": "address"
        },
        {
          "indexed": true,
          "internalType": "address",
          "name": "toAddress",
          "type": "address"
        }
      ],
      "name": "ConsecutiveTransfer",
      "type": "event"
    },
    {
      "anonymous": false,
      "inputs": [
        {
          "indexed": false,
          "internalType": "uint256",
          "name": "eventId",
          "type": "uint256"
        },
        {
          "indexed": false,
          "internalType": "address",
          "name": "account",
          "type": "address"
        },
        {
          "indexed": false,
          "internalType": "address",
          "name": "setter",
          "type": "address"
        }
      ],
      "name": "EventCashierSet",
      "type": "event"
    },
    {
      "anonymous": false,
      "inputs": [
        {
          "indexed": false,
          "internalType": "uint256",
          "name": "eventId",
          "type": "uint256"
        },
        {
          "indexed": false,
          "internalType": "string",
          "name": "metadataUri",
          "type": "string"
        }
      ],
      "name": "EventCreated",
      "type": "event"
    },
    {
      "anonymous": false,
      "inputs": [
        {
          "indexed": false,
          "internalType": "uint256",
          "name": "_tokenId",
          "type": "uint256"
        }
      ],
      "name": "MetadataUpdate",
      "type": "event"
    },
    {
      "anonymous": false,
      "inputs": [
        {
          "indexed": false,
          "internalType": "uint256",
          "name": "eventId",
          "type": "uint256"
        },
        {
          "indexed": true,
          "internalType": "bytes32",
          "name": "role",
          "type": "bytes32"
        },
        {
          "indexed": true,
          "internalType": "bytes32",
          "name": "previousAdminRole",
          "type": "bytes32"
        },
        {
          "indexed": true,
          "internalType": "bytes32",
          "name": "newAdminRole",
          "type": "bytes32"
        }
      ],
      "name": "RoleAdminChanged",
      "type": "event"
    },
    {
      "anonymous": false,
      "inputs": [
        {
          "indexed": false,
          "internalType": "uint256",
          "name": "eventId",
          "type": "uint256"
        },
        {
          "indexed": true,
          "internalType": "bytes32",
          "name": "role",
          "type": "bytes32"
        },
        {
          "indexed": true,
          "internalType": "address",
          "name": "account",
          "type": "address"
        },
        {
          "indexed": true,
          "internalType": "address",
          "name": "sender",
          "type": "address"
        }
      ],
      "name": "RoleGranted",
      "type": "event"
    },
    {
      "anonymous": false,
      "inputs": [
        {
          "indexed": false,
          "internalType": "uint256",
          "name": "eventId",
          "type": "uint256"
        },
        {
          "indexed": true,
          "internalType": "bytes32",
          "name": "role",
          "type": "bytes32"
        },
        {
          "indexed": true,
          "internalType": "address",
          "name": "account",
          "type": "address"
        },
        {
          "indexed": true,
          "internalType": "address",
          "name": "sender",
          "type": "address"
        }
      ],
      "name": "RoleRevoked",
      "type": "event"
    },
    {
      "anonymous": false,
      "inputs": [
        {
          "indexed": false,
          "internalType": "uint256",
          "name": "eventId",
          "type": "uint256"
        },
        {
          "indexed": false,
          "internalType": "uint256",
          "name": "categoryId",
          "type": "uint256"
        },
        {
          "indexed": false,
          "internalType": "uint256",
          "name": "ticketId",
          "type": "uint256"
        },
        {
          "indexed": false,
          "internalType": "address",
          "name": "staffMember",
          "type": "address"
        }
      ],
      "name": "TicketClipped",
      "type": "event"
    },
    {
      "anonymous": false,
      "inputs": [
        {
          "indexed": false,
          "internalType": "uint256",
          "name": "eventId",
          "type": "uint256"
        },
        {
          "indexed": false,
          "internalType": "uint256",
          "name": "categoryId",
          "type": "uint256"
        },
        {
          "indexed": false,
          "internalType": "uint256",
          "name": "ticketCount",
          "type": "uint256"
        },
        {
          "indexed": false,
          "internalType": "address[]",
          "name": "accounts",
          "type": "address[]"
        },
        {
          "indexed": false,
          "internalType": "address",
          "name": "staffMember",
          "type": "address"
        }
      ],
      "name": "TicketsBooked",
      "type": "event"
    },
    {
      "anonymous": false,
      "inputs": [
        {
          "indexed": true,
          "internalType": "address",
          "name": "from",
          "type": "address"
        },
        {
          "indexed": true,
          "internalType": "address",
          "name": "to",
          "type": "address"
        },
        {
          "indexed": true,
          "internalType": "uint256",
          "name": "tokenId",
          "type": "uint256"
        }
      ],
      "name": "Transfer",
      "type": "event"
    },
    {
      "inputs": [],
      "name": "CASHIER_ROLE",
      "outputs": [
        {
          "internalType": "bytes32",
          "name": "",
          "type": "bytes32"
        }
      ],
      "stateMutability": "view",
      "type": "function"
    },
    {
      "inputs": [],
      "name": "DEFAULT_ADMIN_ROLE",
      "outputs": [
        {
          "internalType": "bytes32",
          "name": "",
          "type": "bytes32"
        }
      ],
      "stateMutability": "view",
      "type": "function"
    },
    {
      "inputs": [],
      "name": "MODERATOR_ROLE",
      "outputs": [
        {
          "internalType": "bytes32",
          "name": "",
          "type": "bytes32"
        }
      ],
      "stateMutability": "view",
      "type": "function"
    },
    {
      "inputs": [],
      "name": "RECEPTIONIST_ROLE",
      "outputs": [
        {
          "internalType": "bytes32",
          "name": "",
          "type": "bytes32"
        }
      ],
      "stateMutability": "view",
      "type": "function"
    },
    {
      "inputs": [],
      "name": "VALIDATOR_ROLE",
      "outputs": [
        {
          "internalType": "bytes32",
          "name": "",
          "type": "bytes32"
        }
      ],
      "stateMutability": "view",
      "type": "function"
    },
    {
      "inputs": [
        {
          "internalType": "uint256",
          "name": "_eventId",
          "type": "uint256"
        },
        {
          "internalType": "uint256",
          "name": "_categoryId",
          "type": "uint256"
        },
        {
          "internalType": "uint256",
          "name": "_ticketsCount",
          "type": "uint256"
        }
      ],
      "name": "addCategoryTicketsCount",
      "outputs": [],
      "stateMutability": "nonpayable",
      "type": "function"
    },
    {
      "inputs": [
        {
          "internalType": "uint256",
          "name": "_eventId",
          "type": "uint256"
        },
        {
          "internalType": "bytes32",
          "name": "_role",
          "type": "bytes32"
        },
        {
          "internalType": "address",
          "name": "_account",
          "type": "address"
        }
      ],
      "name": "addTeamMember",
      "outputs": [],
      "stateMutability": "nonpayable",
      "type": "function"
    },
    {
      "inputs": [
        {
          "internalType": "address",
          "name": "to",
          "type": "address"
        },
        {
          "internalType": "uint256",
          "name": "tokenId",
          "type": "uint256"
        }
      ],
      "name": "approve",
      "outputs": [],
      "stateMutability": "nonpayable",
      "type": "function"
    },
    {
      "inputs": [
        {
          "internalType": "address",
          "name": "owner",
          "type": "address"
        }
      ],
      "name": "balanceOf",
      "outputs": [
        {
          "internalType": "uint256",
          "name": "",
          "type": "uint256"
        }
      ],
      "stateMutability": "view",
      "type": "function"
    },
    {
      "inputs": [
        {
          "internalType": "uint256",
          "name": "_eventId",
          "type": "uint256"
        },
        {
          "internalType": "uint256",
          "name": "_categoryId",
          "type": "uint256"
        },
        {
          "internalType": "uint256",
          "name": "_ticketCount",
          "type": "uint256"
        },
        {
          "internalType": "address[]",
          "name": "_accounts",
          "type": "address[]"
        }
      ],
      "name": "bookTickets",
      "outputs": [],
      "stateMutability": "nonpayable",
      "type": "function"
    },
    {
      "inputs": [
        {
          "internalType": "uint256",
          "name": "_eventId",
          "type": "uint256"
        },
        {
          "internalType": "uint256",
          "name": "_categoryId",
          "type": "uint256"
        },
        {
          "internalType": "string",
          "name": "_ticketMetadataURI",
          "type": "string"
        },
        {
          "internalType": "uint256",
          "name": "amount",
          "type": "uint256"
        }
      ],
      "name": "buyTickets",
      "outputs": [],
      "stateMutability": "nonpayable",
      "type": "function"
    },
    {
      "inputs": [
        {
          "internalType": "uint256",
          "name": "_eventId",
          "type": "uint256"
        },
        {
          "internalType": "uint256",
          "name": "_categoryId",
          "type": "uint256"
        },
        {
          "internalType": "uint256",
          "name": "_ticketId",
          "type": "uint256"
        }
      ],
      "name": "clipTicket",
      "outputs": [],
      "stateMutability": "nonpayable",
      "type": "function"
    },
    {
      "inputs": [
        {
          "internalType": "uint256",
          "name": "_maxTicketsPerClient",
          "type": "uint256"
        },
        {
          "internalType": "uint256",
          "name": "_startDate",
          "type": "uint256"
        },
        {
          "internalType": "uint256",
          "name": "_endDate",
          "type": "uint256"
        },
        {
          "internalType": "string",
          "name": "_metadataURI",
          "type": "string"
        }
      ],
      "name": "createEvent",
      "outputs": [],
      "stateMutability": "nonpayable",
      "type": "function"
    },
    {
      "inputs": [
        {
          "internalType": "uint256",
          "name": "_eventId",
          "type": "uint256"
        },
        {
          "internalType": "string",
          "name": "_categoryCid",
          "type": "string"
        },
        {
          "internalType": "uint256",
          "name": "_saleStartDate",
          "type": "uint256"
        },
        {
          "internalType": "uint256",
          "name": "_saleEndDate",
          "type": "uint256"
        },
        {
          "internalType": "uint256",
          "name": "_ticketsCount",
          "type": "uint256"
        },
        {
          "internalType": "uint256",
          "name": "_ticketPrice",
          "type": "uint256"
        },
        {
          "internalType": "uint256[]",
          "name": "_discountsTicketsCount",
          "type": "uint256[]"
        },
        {
          "internalType": "uint256[]",
          "name": "_discountsPercentage",
          "type": "uint256[]"
        },
        {
          "components": [
            {
              "internalType": "uint256",
              "name": "price",
              "type": "uint256"
            },
            {
              "internalType": "uint256",
              "name": "finalAmountDate",
              "type": "uint256"
            }
          ],
          "internalType": "struct IEvent.DownPayment",
          "name": "_downPayment",
          "type": "tuple"
        }
      ],
      "name": "createTicketCategory",
      "outputs": [],
      "stateMutability": "nonpayable",
      "type": "function"
    },
    {
      "inputs": [],
      "name": "fetchAllEventIds",
      "outputs": [
        {
          "internalType": "uint256[]",
          "name": "",
          "type": "uint256[]"
        }
      ],
      "stateMutability": "view",
      "type": "function"
    },
    {
      "inputs": [],
      "name": "fetchAllEvents",
      "outputs": [
        {
          "components": [
            {
              "internalType": "address",
              "name": "organizer",
              "type": "address"
            },
            {
              "internalType": "uint256",
              "name": "maxTicketsPerClient",
              "type": "uint256"
            },
            {
              "internalType": "uint256",
              "name": "startDate",
              "type": "uint256"
            },
            {
              "internalType": "uint256",
              "name": "endDate",
              "type": "uint256"
            },
            {
              "internalType": "bool",
              "name": "areAllCategoryTicketsBuyable",
              "type": "bool"
            }
          ],
          "internalType": "struct IEvent.Event[]",
          "name": "",
          "type": "tuple[]"
        }
      ],
      "stateMutability": "view",
      "type": "function"
    },
    {
      "inputs": [
        {
          "internalType": "uint256",
          "name": "_eventId",
          "type": "uint256"
        }
      ],
      "name": "fetchCategoriesByEventId",
      "outputs": [
        {
          "components": [
            {
              "internalType": "uint256",
              "name": "id",
              "type": "uint256"
            },
            {
              "internalType": "string",
              "name": "cid",
              "type": "string"
            },
            {
              "internalType": "uint256[]",
              "name": "ticketIds",
              "type": "uint256[]"
            },
            {
              "internalType": "uint256",
              "name": "ticketPrice",
              "type": "uint256"
            },
            {
              "internalType": "uint256",
              "name": "ticketsCount",
              "type": "uint256"
            },
            {
              "internalType": "uint256",
              "name": "saleStartDate",
              "type": "uint256"
            },
            {
              "internalType": "uint256",
              "name": "saleEndDate",
              "type": "uint256"
            },
            {
              "internalType": "uint256",
              "name": "eventId",
              "type": "uint256"
            },
            {
              "internalType": "uint256[]",
              "name": "discountsTicketsCount",
              "type": "uint256[]"
            },
            {
              "internalType": "uint256[]",
              "name": "discountsPercentage",
              "type": "uint256[]"
            },
            {
              "components": [
                {
                  "internalType": "uint256",
                  "name": "price",
                  "type": "uint256"
                },
                {
                  "internalType": "uint256",
                  "name": "finalAmountDate",
                  "type": "uint256"
                }
              ],
              "internalType": "struct IEvent.DownPayment",
              "name": "downPayment",
              "type": "tuple"
            },
            {
              "internalType": "bool",
              "name": "areTicketsBuyable",
              "type": "bool"
            }
          ],
          "internalType": "struct IEvent.Category[]",
          "name": "",
          "type": "tuple[]"
        }
      ],
      "stateMutability": "view",
      "type": "function"
    },
    {
      "inputs": [
        {
          "internalType": "uint256",
          "name": "_eventId",
          "type": "uint256"
        }
      ],
      "name": "fetchEventById",
      "outputs": [
        {
          "components": [
            {
              "internalType": "address",
              "name": "organizer",
              "type": "address"
            },
            {
              "internalType": "uint256",
              "name": "maxTicketsPerClient",
              "type": "uint256"
            },
            {
              "internalType": "uint256",
              "name": "startDate",
              "type": "uint256"
            },
            {
              "internalType": "uint256",
              "name": "endDate",
              "type": "uint256"
            },
            {
              "internalType": "bool",
              "name": "areAllCategoryTicketsBuyable",
              "type": "bool"
            }
          ],
          "internalType": "struct IEvent.Event",
          "name": "eventObj",
          "type": "tuple"
        }
      ],
      "stateMutability": "view",
      "type": "function"
    },
    {
      "inputs": [],
      "name": "fetchOwnedEvents",
      "outputs": [
        {
          "internalType": "uint256[]",
          "name": "",
          "type": "uint256[]"
        }
      ],
      "stateMutability": "view",
      "type": "function"
    },
    {
      "inputs": [
        {
          "internalType": "uint256",
          "name": "tokenId",
          "type": "uint256"
        }
      ],
      "name": "getApproved",
      "outputs": [
        {
          "internalType": "address",
          "name": "",
          "type": "address"
        }
      ],
      "stateMutability": "view",
      "type": "function"
    },
    {
      "inputs": [
        {
          "internalType": "uint256",
          "name": "eventId",
          "type": "uint256"
        }
      ],
      "name": "getEventMembers",
      "outputs": [
        {
          "components": [
            {
              "internalType": "address",
              "name": "account",
              "type": "address"
            },
            {
              "internalType": "bytes32",
              "name": "role",
              "type": "bytes32"
            }
          ],
          "internalType": "struct RoleControl.MemberData[]",
          "name": "",
          "type": "tuple[]"
        }
      ],
      "stateMutability": "view",
      "type": "function"
    },
    {
      "inputs": [
        {
          "internalType": "uint256",
          "name": "eventId",
          "type": "uint256"
        },
        {
          "internalType": "bytes32",
          "name": "role",
          "type": "bytes32"
        }
      ],
      "name": "getRoleAdmin",
      "outputs": [
        {
          "internalType": "bytes32",
          "name": "",
          "type": "bytes32"
        }
      ],
      "stateMutability": "view",
      "type": "function"
    },
    {
      "inputs": [
        {
          "internalType": "uint256",
          "name": "eventId",
          "type": "uint256"
        },
        {
          "internalType": "bytes32",
          "name": "role",
          "type": "bytes32"
        },
        {
          "internalType": "address",
          "name": "account",
          "type": "address"
        }
      ],
      "name": "grantRole",
      "outputs": [],
      "stateMutability": "nonpayable",
      "type": "function"
    },
    {
      "inputs": [
        {
          "internalType": "uint256",
          "name": "eventId",
          "type": "uint256"
        },
        {
          "internalType": "bytes32",
          "name": "role",
          "type": "bytes32"
        },
        {
          "internalType": "address",
          "name": "account",
          "type": "address"
        }
      ],
      "name": "hasRole",
      "outputs": [
        {
          "internalType": "bool",
          "name": "",
          "type": "bool"
        }
      ],
      "stateMutability": "view",
      "type": "function"
    },
    {
      "inputs": [
        {
          "internalType": "address",
          "name": "owner",
          "type": "address"
        },
        {
          "internalType": "address",
          "name": "operator",
          "type": "address"
        }
      ],
      "name": "isApprovedForAll",
      "outputs": [
        {
          "internalType": "bool",
          "name": "",
          "type": "bool"
        }
      ],
      "stateMutability": "view",
      "type": "function"
    },
    {
      "inputs": [],
      "name": "name",
      "outputs": [
        {
          "internalType": "string",
          "name": "",
          "type": "string"
        }
      ],
      "stateMutability": "view",
      "type": "function"
    },
    {
      "inputs": [
        {
          "internalType": "uint256",
          "name": "tokenId",
          "type": "uint256"
        }
      ],
      "name": "ownerOf",
      "outputs": [
        {
          "internalType": "address",
          "name": "",
          "type": "address"
        }
      ],
      "stateMutability": "view",
      "type": "function"
    },
    {
      "inputs": [
        {
          "internalType": "uint256",
          "name": "_eventId",
          "type": "uint256"
        },
        {
          "internalType": "uint256",
          "name": "_categoryId",
          "type": "uint256"
        }
      ],
      "name": "removeCategory",
      "outputs": [],
      "stateMutability": "nonpayable",
      "type": "function"
    },
    {
      "inputs": [
        {
          "internalType": "uint256",
          "name": "_eventId",
          "type": "uint256"
        },
        {
          "internalType": "uint256",
          "name": "_categoryId",
          "type": "uint256"
        },
        {
          "internalType": "uint256",
          "name": "_ticketsCount",
          "type": "uint256"
        }
      ],
      "name": "removeCategoryTicketsCount",
      "outputs": [],
      "stateMutability": "nonpayable",
      "type": "function"
    },
    {
      "inputs": [
        {
          "internalType": "uint256",
          "name": "_eventId",
          "type": "uint256"
        }
      ],
      "name": "removeEvent",
      "outputs": [],
      "stateMutability": "nonpayable",
      "type": "function"
    },
    {
      "inputs": [
        {
          "internalType": "uint256",
          "name": "_eventId",
          "type": "uint256"
        },
        {
          "internalType": "bytes32",
          "name": "_role",
          "type": "bytes32"
        },
        {
          "internalType": "address",
          "name": "_account",
          "type": "address"
        }
      ],
      "name": "removeTeamMember",
      "outputs": [],
      "stateMutability": "nonpayable",
      "type": "function"
    },
    {
      "inputs": [
        {
          "internalType": "uint256",
          "name": "eventId",
          "type": "uint256"
        },
        {
          "internalType": "bytes32",
          "name": "role",
          "type": "bytes32"
        },
        {
          "internalType": "address",
          "name": "account",
          "type": "address"
        }
      ],
      "name": "renounceRole",
      "outputs": [],
      "stateMutability": "nonpayable",
      "type": "function"
    },
    {
      "inputs": [
        {
          "internalType": "uint256",
          "name": "eventId",
          "type": "uint256"
        },
        {
          "internalType": "bytes32",
          "name": "role",
          "type": "bytes32"
        },
        {
          "internalType": "address",
          "name": "account",
          "type": "address"
        }
      ],
      "name": "revokeRole",
      "outputs": [],
      "stateMutability": "nonpayable",
      "type": "function"
    },
    {
      "inputs": [
        {
          "internalType": "address",
          "name": "from",
          "type": "address"
        },
        {
          "internalType": "address",
          "name": "to",
          "type": "address"
        },
        {
          "internalType": "uint256",
          "name": "tokenId",
          "type": "uint256"
        }
      ],
      "name": "safeTransferFrom",
      "outputs": [],
      "stateMutability": "nonpayable",
      "type": "function"
    },
    {
      "inputs": [
        {
          "internalType": "address",
          "name": "from",
          "type": "address"
        },
        {
          "internalType": "address",
          "name": "to",
          "type": "address"
        },
        {
          "internalType": "uint256",
          "name": "tokenId",
          "type": "uint256"
        },
        {
          "internalType": "bytes",
          "name": "data",
          "type": "bytes"
        }
      ],
      "name": "safeTransferFrom",
      "outputs": [],
      "stateMutability": "nonpayable",
      "type": "function"
    },
    {
      "inputs": [
        {
          "internalType": "address",
          "name": "operator",
          "type": "address"
        },
        {
          "internalType": "bool",
          "name": "approved",
          "type": "bool"
        }
      ],
      "name": "setApprovalForAll",
      "outputs": [],
      "stateMutability": "nonpayable",
      "type": "function"
    },
    {
      "inputs": [
        {
          "internalType": "uint256",
          "name": "_eventId",
          "type": "uint256"
        },
        {
          "internalType": "address",
          "name": "_account",
          "type": "address"
        }
      ],
      "name": "setEventCashier",
      "outputs": [],
      "stateMutability": "nonpayable",
      "type": "function"
    },
    {
      "inputs": [
        {
          "internalType": "uint256",
          "name": "_eventId",
          "type": "uint256"
        }
      ],
      "name": "startAllCategorySelling",
      "outputs": [],
      "stateMutability": "nonpayable",
      "type": "function"
    },
    {
      "inputs": [
        {
          "internalType": "uint256",
          "name": "_eventId",
          "type": "uint256"
        },
        {
          "internalType": "uint256",
          "name": "_categoryId",
          "type": "uint256"
        }
      ],
      "name": "startCategorySelling",
      "outputs": [],
      "stateMutability": "nonpayable",
      "type": "function"
    },
    {
      "inputs": [
        {
          "internalType": "uint256",
          "name": "_eventId",
          "type": "uint256"
        }
      ],
      "name": "stopAllCategorySelling",
      "outputs": [],
      "stateMutability": "nonpayable",
      "type": "function"
    },
    {
      "inputs": [
        {
          "internalType": "uint256",
          "name": "_eventId",
          "type": "uint256"
        },
        {
          "internalType": "uint256",
          "name": "_categoryId",
          "type": "uint256"
        }
      ],
      "name": "stopCategorySelling",
      "outputs": [],
      "stateMutability": "nonpayable",
      "type": "function"
    },
    {
      "inputs": [
        {
          "internalType": "bytes4",
          "name": "interfaceId",
          "type": "bytes4"
        }
      ],
      "name": "supportsInterface",
      "outputs": [
        {
          "internalType": "bool",
          "name": "",
          "type": "bool"
        }
      ],
      "stateMutability": "view",
      "type": "function"
    },
    {
      "inputs": [],
      "name": "symbol",
      "outputs": [
        {
          "internalType": "string",
          "name": "",
          "type": "string"
        }
      ],
      "stateMutability": "view",
      "type": "function"
    },
    {
      "inputs": [
        {
          "internalType": "uint256",
          "name": "tokenId",
          "type": "uint256"
        }
      ],
      "name": "tokenURI",
      "outputs": [
        {
          "internalType": "string",
          "name": "",
          "type": "string"
        }
      ],
      "stateMutability": "view",
      "type": "function"
    },
    {
      "inputs": [
        {
          "internalType": "address",
          "name": "from",
          "type": "address"
        },
        {
          "internalType": "address",
          "name": "to",
          "type": "address"
        },
        {
          "internalType": "uint256",
          "name": "tokenId",
          "type": "uint256"
        }
      ],
      "name": "transferFrom",
      "outputs": [],
      "stateMutability": "nonpayable",
      "type": "function"
    },
    {
      "inputs": [
        {
          "internalType": "uint256",
          "name": "_eventId",
          "type": "uint256"
        },
        {
          "internalType": "uint256",
          "name": "_categoryId",
          "type": "uint256"
        },
        {
          "internalType": "string",
          "name": "_categoryCid",
          "type": "string"
        },
        {
          "internalType": "uint256",
          "name": "_ticketPrice",
          "type": "uint256"
        },
        {
          "internalType": "uint256[]",
          "name": "_discountsTicketsCount",
          "type": "uint256[]"
        },
        {
          "internalType": "uint256[]",
          "name": "_discountsPercentage",
          "type": "uint256[]"
        },
        {
          "components": [
            {
              "internalType": "uint256",
              "name": "price",
              "type": "uint256"
            },
            {
              "internalType": "uint256",
              "name": "finalAmountDate",
              "type": "uint256"
            }
          ],
          "internalType": "struct IEvent.DownPayment",
          "name": "_downPayment",
          "type": "tuple"
        }
      ],
      "name": "updateCategory",
      "outputs": [],
      "stateMutability": "nonpayable",
      "type": "function"
    },
    {
      "inputs": [
        {
          "internalType": "uint256",
          "name": "_eventId",
          "type": "uint256"
        },
        {
          "internalType": "uint256",
          "name": "_categoryId",
          "type": "uint256"
        },
        {
          "internalType": "uint256",
          "name": "_saleStartDate",
          "type": "uint256"
        },
        {
          "internalType": "uint256",
          "name": "_saleEndDate",
          "type": "uint256"
        }
      ],
      "name": "updateCategorySaleDates",
      "outputs": [],
      "stateMutability": "nonpayable",
      "type": "function"
    },
    {
      "inputs": [
        {
          "internalType": "uint256",
          "name": "_eventId",
          "type": "uint256"
        },
        {
          "internalType": "string",
          "name": "_newMetadataURI",
          "type": "string"
        }
      ],
      "name": "updateEventTokenUri",
      "outputs": [],
      "stateMutability": "nonpayable",
      "type": "function"
    }
  ],
  "bytecode": "0x60806040523480156200001157600080fd5b506040516200541938038062005419833981016040819052620000349162000149565b8282600062000044838262000265565b50600162000053828262000265565b5050600160105550600c80546001600160a01b0319166001600160a01b039290921691909117905550620003319050565b634e487b7160e01b600052604160045260246000fd5b600082601f830112620000ac57600080fd5b81516001600160401b0380821115620000c957620000c962000084565b604051601f8301601f19908116603f01168101908282118183101715620000f457620000f462000084565b816040528381526020925086838588010111156200011157600080fd5b600091505b8382101562000135578582018301518183018401529082019062000116565b600093810190920192909252949350505050565b6000806000606084860312156200015f57600080fd5b83516001600160401b03808211156200017757600080fd5b62000185878388016200009a565b945060208601519150808211156200019c57600080fd5b50620001ab868287016200009a565b604086015190935090506001600160a01b0381168114620001cb57600080fd5b809150509250925092565b600181811c90821680620001eb57607f821691505b6020821081036200020c57634e487b7160e01b600052602260045260246000fd5b50919050565b601f8211156200026057600081815260208120601f850160051c810160208610156200023b5750805b601f850160051c820191505b818110156200025c5782815560010162000247565b5050505b505050565b81516001600160401b0381111562000281576200028162000084565b6200029981620002928454620001d6565b8462000212565b602080601f831160018114620002d15760008415620002b85750858301515b600019600386901b1c1916600185901b1785556200025c565b600085815260208120601f198616915b828110156200030257888601518255948401946001909101908401620002e1565b5085821015620003215787850151600019600388901b60f8161c191681555b5050505050600190811b01905550565b6150d880620003416000396000f3fe608060405234801561001057600080fd5b50600436106102305760003560e01c806301ffc9a71461023557806306a5bcd21461025e57806306fdde0314610273578063081812fc14610288578063095ea7b3146102b35780630d517286146102c65780630e1b943d146102e6578063119345aa146103065780631c6f9271146103195780631cdf29c71461032c5780632053d82c1461033f57806323b872dd146103525780632761f33b1461036557806333a477bd146103785780633660ff831461038b578063397d4dbc146103a05780633d378bb0146103c157806342842e0e146103d45780634a120dd7146103e7578063558e39c4146103fa57806356164e1e1461040d5780635ba16138146104205780636352211e146104355780636a4bc7de1461044857806370a082311461045b578063724bdedf1461046e5780637283d74214610481578063754d0e5114610494578063797669c9146104a7578063959a1b58146104bc57806395d89b41146104cf578063a217fddf146104d7578063a22cb465146104df578063a3bdc7c7146104f2578063abae6af914610512578063b015554414610527578063b7fd96841461053a578063b88d4fde1461054f578063b926bd6e14610562578063c49baebe14610575578063c87b56dd1461059c578063d5533da0146105af578063e985e9c5146105c2578063f20dddf7146105d5578063f354159b146105e8578063f99c2292146105fb578063fb42204d14610603578063fc3291a614610616575b600080fd5b610249610243366004613e9c565b50600090565b60405190151581526020015b60405180910390f35b61027161026c366004613f1b565b610629565b005b61027b61074a565b6040516102559190614034565b61029b610296366004614047565b6107de565b6040516001600160a01b039091168152602001610255565b6102716102c1366004614060565b610805565b6102d96102d4366004614047565b61091a565b60405161025591906140c2565b6102f96102f4366004614047565b6109a6565b60405161025591906140d0565b610249610314366004614128565b610a2e565b61027161032736600461415d565b610a60565b61027161033a36600461418f565b610b8b565b61027161034d366004614232565b610c43565b610271610360366004614278565b610cea565b610271610373366004614311565b610d1b565b610271610386366004614047565b610edc565b610393610fa0565b60405161025591906143d3565b6103b36103ae366004614421565b611119565b604051908152602001610255565b6102716103cf366004614421565b61113d565b6102716103e2366004614278565b611491565b6102716103f5366004614128565b6114ac565b610271610408366004614443565b6114d3565b61027161041b366004614047565b611605565b6103b360008051602061504383398151915281565b61029b610443366004614047565b6118ae565b610271610456366004614128565b6118e3565b6103b361046936600461446f565b611999565b61027161047c366004614128565b611a1f565b61027161048f366004614421565b611a98565b6102716104a236600461448a565b611bc5565b6103b360008051602061506383398151915281565b6102716104ca366004614524565b611ce4565b61027b612089565b6103b3600081565b6102716104ed36600461460e565b61209b565b610505610500366004614047565b6120aa565b6040516102559190614685565b61051a61240e565b60405161025591906147b9565b610271610535366004614128565b612559565b6103b360008051602061502383398151915281565b61027161055d3660046147cc565b61260f565b610271610570366004614047565b612641565b6103b37f21702c8af46127c7fa207f89d0b0a8441bb32959a0ac7df790e9ab1a25c9892681565b61027b6105aa366004614047565b6126fc565b6102716105bd366004614443565b61283c565b6102496105d036600461483b565b612965565b6102716105e3366004614421565b612993565b6102716105f6366004614443565b612aad565b61051a612cde565b610271610611366004614128565b612de3565b610271610624366004614865565b612e03565b8361063381612fb7565b6106585760405162461bcd60e51b815260040161064f906148bc565b60405180910390fd5b6000848152600a60205260408120548591036106865760405162461bcd60e51b815260040161064f906148f2565b6000858152600a60205260409020600701548690869082146106ba5760405162461bcd60e51b815260040161064f90614929565b6106c688600033610a2e565b806106e557506106e58860008051602061506383398151915233610a2e565b6107015760405162461bcd60e51b815260040161064f90614972565b7f5f183d9cf5454d6fc91379ef5dce8b6a4543ec2c03a1d6376579c9a6949b2cb388888888336040516107389594939291906149bc565b60405180910390a15050505050505050565b606060008001805461075b90614a36565b80601f016020809104026020016040519081016040528092919081815260200182805461078790614a36565b80156107d45780601f106107a9576101008083540402835291602001916107d4565b820191906000526020600020905b8154815290600101906020018083116107b757829003601f168201915b5050505050905090565b60006107e982612fd4565b506000908152600460205260409020546001600160a01b031690565b6000610810826118ae565b9050806001600160a01b0316836001600160a01b03160361087d5760405162461bcd60e51b815260206004820152602160248201527f4552433732313a20617070726f76616c20746f2063757272656e74206f776e656044820152603960f91b606482015260840161064f565b336001600160a01b038216148061089957506108998133612965565b61090b5760405162461bcd60e51b815260206004820152603e60248201527f4552433732313a20617070726f76652063616c6c6572206973206e6f7420746f60448201527f6b656e206f776e6572206e6f7220617070726f76656420666f7220616c6c0000606482015260840161064f565b6109158383612ffc565b505050565b610922613cdd565b8161092c81612fb7565b6109485760405162461bcd60e51b815260040161064f906148bc565b5050600090815260096020908152604091829020825160a08101845281546001600160a01b031681526001820154928101929092526002810154928201929092526003820154606082015260049091015460ff161515608082015290565b6060600e6000838152602001908152602001600020805480602002602001604051908101604052809291908181526020016000905b82821015610a23576000848152602090819020604080518082019091526002850290910180546001600160a01b031682526001908101548284015290835290920191016109db565b505050509050919050565b6000928352600d602090815260408085209385529281528284206001600160a01b039290921684525290205460ff1690565b83610a6a81612fb7565b610a865760405162461bcd60e51b815260040161064f906148bc565b6000848152600a6020526040812054859103610ab45760405162461bcd60e51b815260040161064f906148f2565b6000858152600a6020526040902060070154869086908214610ae85760405162461bcd60e51b815260040161064f90614929565b610af488600033610a2e565b80610b135750610b138860008051602061506383398151915233610a2e565b610b2f5760405162461bcd60e51b815260040161064f90614972565b6000878152600a60209081526040918290206005810189905560060187905581518a815290810189905233918101919091527f4192182acd964db32b1197a6483d5694cf6e678e7202565c44cc961078eb2c8f90606001610738565b81610b9581612fb7565b610bb15760405162461bcd60e51b815260040161064f906148bc565b610bbd83600033610a2e565b610bd95760405162461bcd60e51b815260040161064f90614a6a565b610bf28360008051602061502383398151915284612de3565b604080518481526001600160a01b038416602082015233918101919091527f9f54db3c6775e8717da6972b09a7ed552d62f5fd63696a1a75e58f61bd240193906060015b60405180910390a1505050565b81610c4d81612fb7565b610c695760405162461bcd60e51b815260040161064f906148bc565b610c7583600033610a2e565b80610c945750610c948360008051602061506383398151915233610a2e565b610cb05760405162461bcd60e51b815260040161064f90614972565b610cba838361306a565b6040518381527ff8e1a15aba9398e019f0b49df1a4fde98ee17ae345cb5f6b5e2c27f5033e8ce790602001610c36565b610cf433826130ee565b610d105760405162461bcd60e51b815260040161064f90614aa1565b61091583838361314c565b88610d2581612fb7565b610d415760405162461bcd60e51b815260040161064f906148bc565b6000898152600a60205260408120548a9103610d6f5760405162461bcd60e51b815260040161064f906148f2565b60008a8152600a60205260409020600701548b908b908214610da35760405162461bcd60e51b815260040161064f90614929565b610daf8d600033610a2e565b80610dce5750610dce8d60008051602061506383398151915233610a2e565b610dea5760405162461bcd60e51b815260040161064f90614972565b878614610e095760405162461bcd60e51b815260040161064f90614aef565b60008c8152600a60205260409020600101610e248c82614b9a565b5060008c8152600a60205260409020600381018b9055610e48906008018a8a613d17565b5060008c8152600a60205260409020610e65906009018888613d17565b5060008c8152600a60208190526040909120869101610e91828281358155602082013560018201555050565b9050507f44df894581249b9c6cda25b6fe8239320be1641adde53f17479b4153cadfcc608d8d604051610ec5929190614c53565b60405180910390a150505050505050505050505050565b80610ee681612fb7565b610f025760405162461bcd60e51b815260040161064f906148bc565b610f0e82600033610a2e565b80610f2d5750610f2d8260008051602061506383398151915233610a2e565b610f495760405162461bcd60e51b815260040161064f90614972565b60008281526009602052604090819020600401805460ff19169055517fa4f54158d64aad2b971e0553dae4ee675d344a6878feb2e498aae9fed2fa5a2f90610f949084815260200190565b60405180910390a15050565b60606000610fad60075490565b905060008060015b838111610ff9576000818152600960205260409020546001600160a01b031615610fe75782610fe381614c77565b9350505b80610ff181614c77565b915050610fb5565b506000826001600160401b0381111561101457611014613eb9565b60405190808252806020026020018201604052801561104d57816020015b61103a613cdd565b8152602001906001900390816110325790505b50905060015b848111611110576000818152600960205260409020546001600160a01b0316156110fe57600081815260096020908152604091829020825160a08101845281546001600160a01b031681526001820154928101929092526002810154928201929092526003820154606082015260049091015460ff161515608082015282518390859081106110e4576110e4614c90565b602002602001018190525082806110fa90614c77565b9350505b8061110881614c77565b915050611053565b50949350505050565b6000828152600d602090815260408083208484529091529020600101545b92915050565b8161114781612fb7565b6111635760405162461bcd60e51b815260040161064f906148bc565b6000828152600a60205260408120548391036111915760405162461bcd60e51b815260040161064f906148f2565b6000838152600a60205260409020600701548490849082146111c55760405162461bcd60e51b815260040161064f90614929565b6111d186600033610a2e565b806111f057506111f08660008051602061506383398151915233610a2e565b61120c5760405162461bcd60e51b815260040161064f90614972565b6000858152600a60205260409020600201541561127f5760405162461bcd60e51b815260206004820152602b60248201527f4576656e743a2054686572652061726520626f75676874207469636b6574732060448201526a696e2063617465676f727960a81b606482015260840161064f565b6000858152600a602052604081208181559061129e6001830182613d62565b6112ac600283016000613d9c565b600382016000905560048201600090556005820160009055600682016000905560078201600090556008820160006112e49190613d9c565b6112f2600983016000613d9c565b506000600a8201819055600b808301829055600c909201805460ff1916905587815260209182526040808220805482518186028101860190935280835292939192909183018282801561136457602002820191906000526020600020905b815481526020019060010190808311611350575b5050505050905060005b815181101561144e578682828151811061138a5761138a614c90565b60200260200101510361143c576000888152600b6020526040902082516113b390600190614ca6565b815481106113c3576113c3614c90565b90600052602060002001546000600b0160008a815260200190815260200160002082815481106113f5576113f5614c90565b6000918252602080832090910192909255898152600b9091526040902080548061142157611421614cb9565b6001900381819060005260206000200160009055905561144e565b8061144681614c77565b91505061136e565b507ff67e86d3ffc2c26729aac7f4e3e07e009ad076ace7cd9e9fc184fd452ac0cc858787604051611480929190614c53565b60405180910390a150505050505050565b6109158383836040518060200160405280600081525061260f565b826114b78484611119565b6114c182826132d6565b6114cc8585856132e1565b5050505050565b826114dd81612fb7565b6114f95760405162461bcd60e51b815260040161064f906148bc565b6000838152600a60205260408120548491036115275760405162461bcd60e51b815260040161064f906148f2565b6000848152600a602052604090206007015485908590821461155b5760405162461bcd60e51b815260040161064f90614929565b61156787600033610a2e565b8061158657506115868760008051602061506383398151915233610a2e565b806115a557506115a58760008051602061504383398151915233610a2e565b6115c15760405162461bcd60e51b815260040161064f90614972565b60408051888152602081018890529081018690523360608201527f2dcc6bceb950de206af8457a1b2083cbb47b6b70918a66be78ab4d128fee79f090608001611480565b8061160f81612fb7565b61162b5760405162461bcd60e51b815260040161064f906148bc565b61163782600033610a2e565b6116535760405162461bcd60e51b815260040161064f90614a6a565b6000828152600b60209081526040808320805482518185028101850190935280835291929091908301828280156116a957602002820191906000526020600020905b815481526020019060010190808311611695575b505050505090506000805b825181101561171a576000600a0160008483815181106116d6576116d6614c90565b6020026020010151815260200190815260200160002060020180549050600003611708578161170481614c77565b9250505b8061171281614c77565b9150506116b4565b508082511461177b5760405162461bcd60e51b815260206004820152602760248201527f4576656e743a204576656e74206d757374206e6f74206861766520736f6c64206044820152667469636b65747360c81b606482015260840161064f565b600084815260096020908152604080832080546001600160a01b0319168155600181018490556002810184905560038101849055600401805460ff19169055600b90915281206117ca91613d9c565b60005b825181101561189e576000600a0160008483815181106117ef576117ef614c90565b6020026020010151815260200190815260200160002060008082016000905560018201600061181e9190613d62565b61182c600283016000613d9c565b600382016000905560048201600090556005820160009055600682016000905560078201600090556008820160006118649190613d9c565b611872600983016000613d9c565b506000600a8201819055600b820155600c01805460ff191690558061189681614c77565b9150506117cd565b506118a8846133a2565b50505050565b6000818152600260205260408120546001600160a01b0316806111375760405162461bcd60e51b815260040161064f90614ccf565b826118ed81612fb7565b6119095760405162461bcd60e51b815260040161064f906148bc565b61191584600033610a2e565b6119315760405162461bcd60e51b815260040161064f90614a6a565b600080516020615023833981519152830361198e5760405162461bcd60e51b815260206004820152601d60248201527f4576656e743a2043616e27742073657420636173686965722068657265000000604482015260640161064f565b6118a8848484612de3565b60006001600160a01b038216611a035760405162461bcd60e51b815260206004820152602960248201527f4552433732313a2061646472657373207a65726f206973206e6f7420612076616044820152683634b21037bbb732b960b91b606482015260840161064f565b506001600160a01b031660009081526003602052604090205490565b6001600160a01b0381163314611a8d5760405162461bcd60e51b815260206004820152602d60248201527f526f6c65436f6e74726f6c3a2063616e206f6e6c792072656e6f756e6365207260448201526c37b632b9903337b91039b2b63360991b606482015260840161064f565b6109158383836132e1565b81611aa281612fb7565b611abe5760405162461bcd60e51b815260040161064f906148bc565b6000828152600a6020526040812054839103611aec5760405162461bcd60e51b815260040161064f906148f2565b6000838152600a6020526040902060070154849084908214611b205760405162461bcd60e51b815260040161064f90614929565b611b2c86600033610a2e565b80611b4b5750611b4b8660008051602061506383398151915233610a2e565b611b675760405162461bcd60e51b815260040161064f90614972565b6000858152600a602052604090819020600c01805460ff19166001179055517fbaa4fa805691a368b152481f5d9c567760b5459268d3429f9892ec43b5c5953590611bb59088908890614c53565b60405180910390a1505050505050565b600260105403611c175760405162461bcd60e51b815260206004820152601f60248201527f5265656e7472616e637947756172643a207265656e7472616e742063616c6c00604482015260640161064f565b6002601055611c2a600780546001019055565b6000611c3560075490565b6000818152600960205260409081902080546001600160a01b031916331781556001808201899055600282018890556003820187905560048201805460ff191690911790559051919250907f9ce3d6db707bca4ba0eabed8fba1e2c013a1c0bc1132a764170a7854d198c73d90611caf9084908690614d01565b60405180910390a1611cc38260003361345e565b611ccd3383613469565b611cd7828461306a565b5050600160105550505050565b8b611cee81612fb7565b611d0a5760405162461bcd60e51b815260040161064f906148bc565b611d168d600033610a2e565b80611d355750611d358d60008051602061506383398151915233610a2e565b611d515760405162461bcd60e51b815260040161064f90614972565b848314611d705760405162461bcd60e51b815260040161064f90614aef565b611d7e600880546001019055565b6000611d8960085490565b6000818152600a60205260409020818155909150600101611dab8d8f83614d1a565b506040805160008082526020808301808552858352600a9091529290209051611dda9260029092019190613dba565b506000818152600a60205260409020600481018a9055600781018f905560038101899055611e0c906008018888613d17565b506000818152600a60205260409020611e29906009018686613d17565b506000818152600a60208190526040909120849101611e55828281358155602082013560018201555050565b50508a158015611e63575089155b15611e94576000818152600a60205260409020600581018c9055600681018b9055600c01805460ff19169055611fff565b8a600003611eb6576000818152600a6020526040902042600590910155611f3c565b60008e8152600960205260409020600201548b1015611f275760405162461bcd60e51b815260206004820152602760248201527f4576656e743a2043617465676f7279207374617274206461746520697320696e60448201526618dbdc9c9958dd60ca1b606482015260840161064f565b6000818152600a602052604090206005018b90555b89600003611f5e576000818152600a6020526040902042600690910155611fe2565b60008e8152600960205260409020600301548a1115611fcd5760405162461bcd60e51b815260206004820152602560248201527f4576656e743a2043617465676f727920656e64206461746520697320696e636f6044820152641c9c9958dd60da1b606482015260840161064f565b6000818152600a602052604090206006018a90555b6000818152600a60205260409020600c01805460ff191660011790555b6000600b0160008f81526020019081526020016000208190806001815401808255809150506001900390600052602060002001600090919091909150557f2a94cd6b8e4219d087c43453e983d276c11f9ba16e547f01adb19edb60ae3c7d8e828f8f6040516120719493929190614dd3565b60405180910390a15050505050505050505050505050565b60606000600101805461075b90614a36565b6120a6338383613589565b5050565b6060816120b681612fb7565b6120d25760405162461bcd60e51b815260040161064f906148bc565b6000838152600b602090815260408083208054825181850281018501909352808352919290919083018282801561212857602002820191906000526020600020905b815481526020019060010190808311612114575b50505050509050600081516001600160401b0381111561214a5761214a613eb9565b60405190808252806020026020018201604052801561218357816020015b612170613df5565b8152602001906001900390816121685790505b50905060005b8251811015612403576000600a0160008483815181106121ab576121ab614c90565b6020026020010151815260200190815260200160002060405180610180016040529081600082015481526020016001820180546121e790614a36565b80601f016020809104026020016040519081016040528092919081815260200182805461221390614a36565b80156122605780601f1061223557610100808354040283529160200191612260565b820191906000526020600020905b81548152906001019060200180831161224357829003601f168201915b50505050508152602001600282018054806020026020016040519081016040528092919081815260200182805480156122b857602002820191906000526020600020905b8154815260200190600101908083116122a4575b5050505050815260200160038201548152602001600482015481526020016005820154815260200160068201548152602001600782015481526020016008820180548060200260200160405190810160405280929190818152602001828054801561234257602002820191906000526020600020905b81548152602001906001019080831161232e575b505050505081526020016009820180548060200260200160405190810160405280929190818152602001828054801561239a57602002820191906000526020600020905b815481526020019060010190808311612386575b5050509183525050604080518082018252600a8401548152600b840154602082810191909152830152600c9092015460ff16151591015282518390839081106123e5576123e5614c90565b602002602001018190525080806123fb90614c77565b915050612189565b509250505b50919050565b6060600061241b60075490565b905060008060015b83811161248a5761243681600033610a2e565b8061245557506124558160008051602061506383398151915233610a2e565b8015612465575061246581612fb7565b15612478578261247481614c77565b9350505b8061248281614c77565b915050612423565b506000826001600160401b038111156124a5576124a5613eb9565b6040519080825280602002602001820160405280156124ce578160200160208202803683370190505b50905060015b848111611110576124e781600033610a2e565b8061250657506125068160008051602061506383398151915233610a2e565b8015612516575061251681612fb7565b15612547578082848151811061252e5761252e614c90565b60209081029190910101528261254381614c77565b9350505b8061255181614c77565b9150506124d4565b8261256381612fb7565b61257f5760405162461bcd60e51b815260040161064f906148bc565b61258b84600033610a2e565b6125a75760405162461bcd60e51b815260040161064f90614a6a565b60008051602061502383398151915283036126045760405162461bcd60e51b815260206004820181905260248201527f4576656e743a2043616e27742072656d6f766520636173686965722068657265604482015260640161064f565b6118a88484846114ac565b61261933836130ee565b6126355760405162461bcd60e51b815260040161064f90614aa1565b6118a884848484613653565b8061264b81612fb7565b6126675760405162461bcd60e51b815260040161064f906148bc565b61267382600033610a2e565b8061269257506126928260008051602061506383398151915233610a2e565b6126ae5760405162461bcd60e51b815260040161064f90614972565b60008281526009602052604090819020600401805460ff19166001179055517f5137e27888fb7f8000a76dda6b1f0c6365f53378d64dd9676d82a6888a50811090610f949084815260200190565b606061270782612fd4565b6000828152600660205260408120805461272090614a36565b80601f016020809104026020016040519081016040528092919081815260200182805461274c90614a36565b80156127995780601f1061276e57610100808354040283529160200191612799565b820191906000526020600020905b81548152906001019060200180831161277c57829003601f168201915b5050505050905060006127b760408051602081019091526000815290565b905080516000036127c9575092915050565b8151156127fb5780826040516020016127e3929190614e10565b60405160208183030381529060405292505050919050565b60008151116128195760405180602001604052806000815250612834565b8061282385613686565b6040516020016127e3929190614e10565b949350505050565b8261284681612fb7565b6128625760405162461bcd60e51b815260040161064f906148bc565b6000838152600a60205260408120548491036128905760405162461bcd60e51b815260040161064f906148f2565b6000848152600a60205260409020600701548590859082146128c45760405162461bcd60e51b815260040161064f90614929565b6128d087600033610a2e565b806128ef57506128ef8760008051602061506383398151915233610a2e565b61290b5760405162461bcd60e51b815260040161064f90614972565b6000868152600a60205260408120600401805487929061292c908490614e3f565b90915550506040517f3a50fbe2fa0bdf2022fcd8fe2132970519fcf4df5cf97d78e86c510eb0805b6a9061148090899089908990614e52565b6001600160a01b03918216600090815260056020908152604080832093909416825291909152205460ff1690565b8161299d81612fb7565b6129b95760405162461bcd60e51b815260040161064f906148bc565b6000828152600a60205260408120548391036129e75760405162461bcd60e51b815260040161064f906148f2565b6000838152600a6020526040902060070154849084908214612a1b5760405162461bcd60e51b815260040161064f90614929565b612a2786600033610a2e565b80612a465750612a468660008051602061506383398151915233610a2e565b612a625760405162461bcd60e51b815260040161064f90614972565b6000858152600a602052604090819020600c01805460ff19169055517f7e40298160ac4a60b736c63fec6ed6fe71621205604304b21bcfa9d48d660be890611bb59088908890614c53565b82612ab781612fb7565b612ad35760405162461bcd60e51b815260040161064f906148bc565b6000838152600a6020526040812054849103612b015760405162461bcd60e51b815260040161064f906148f2565b6000848152600a6020526040902060070154859085908214612b355760405162461bcd60e51b815260040161064f90614929565b612b4187600033610a2e565b80612b605750612b608760008051602061506383398151915233610a2e565b612b7c5760405162461bcd60e51b815260040161064f90614972565b6000868152600a6020526040902060040154851115612be95760405162461bcd60e51b815260206004820152602360248201527f4576656e743a20446563726561736564207469636b6574732062656c6f77207a60448201526265726f60e81b606482015260840161064f565b6000868152600a6020526040902060040154612c06908690614ca6565b6000878152600a60205260409020600201541115612c845760405162461bcd60e51b815260206004820152603560248201527f4576656e743a205469636b65747320616d6f756e742063616e2774206265206c604482015274657373207468616e20736f6c64207469636b65747360581b606482015260840161064f565b6000868152600a602052604081206004018054879290612ca5908490614ca6565b90915550506040517fb39ecd9af22a3fec10ec63455a79d572fdcfadf6a9005d5cd232b2829f958c709061148090899089908990614e52565b60606000612ceb60075490565b905060008060015b838111612d37576000818152600960205260409020546001600160a01b031615612d255782612d2181614c77565b9350505b80612d2f81614c77565b915050612cf3565b506000826001600160401b03811115612d5257612d52613eb9565b604051908082528060200260200182016040528015612d7b578160200160208202803683370190505b50905060015b848111611110576000818152600960205260409020546001600160a01b031615612dd15780828481518110612db857612db8614c90565b602090810291909101015282612dcd81614c77565b9350505b80612ddb81614c77565b915050612d81565b82612dee8484611119565b612df882826132d6565b6114cc858585613786565b83612e0d81612fb7565b612e295760405162461bcd60e51b815260040161064f906148bc565b60008581526009602052604090206004015460ff161515600114612ea95760405162461bcd60e51b815260206004820152603160248201527f4576656e743a205469636b65747320666f7220616c6c2063617465676f7269656044820152707320617265206e6f742062757961626c6560781b606482015260840161064f565b6000848152600a60205260409020600c015460ff161515600114612f285760405162461bcd60e51b815260206004820152603060248201527f4576656e743a205469636b65747320666f7220746869732063617465676f727960448201526f20617265206e6f742062757961626c6560801b606482015260840161064f565b6000848152600a60205260409020600501544211801590612f5a57506000848152600a60205260409020600601544210155b6114cc5760405162461bcd60e51b815260206004820152602860248201527f4576656e743a2053656c6c20706572696f64206e6f742072656163686564206f6044820152671c881c185cdcd95960c21b606482015260840161064f565b6000908152600260205260409020546001600160a01b0316151590565b612fdd81612fb7565b612ff95760405162461bcd60e51b815260040161064f90614ccf565b50565b600081815260046020526040902080546001600160a01b0319166001600160a01b0384169081179091558190613031826118ae565b6001600160a01b03167f8c5be1e5ebec7d5bd14f71427d1e84f3dd0314c0f7b2291e5b200ac8c7c3b92560405160405180910390a45050565b61307382612fb7565b6130d65760405162461bcd60e51b815260206004820152602e60248201527f45524337323155524953746f726167653a2055524920736574206f66206e6f6e60448201526d32bc34b9ba32b73a103a37b5b2b760911b606482015260840161064f565b60008281526006602052604090206109158282614b9a565b6000806130fa836118ae565b9050806001600160a01b0316846001600160a01b0316148061312157506131218185612965565b806128345750836001600160a01b031661313a846107de565b6001600160a01b031614949350505050565b826001600160a01b031661315f826118ae565b6001600160a01b0316146131c35760405162461bcd60e51b815260206004820152602560248201527f4552433732313a207472616e736665722066726f6d20696e636f72726563742060448201526437bbb732b960d91b606482015260840161064f565b6001600160a01b0382166132255760405162461bcd60e51b8152602060048201526024808201527f4552433732313a207472616e7366657220746f20746865207a65726f206164646044820152637265737360e01b606482015260840161064f565b613230600082612ffc565b6001600160a01b0383166000908152600360205260408120805460019290613259908490614ca6565b90915550506001600160a01b0382166000908152600360205260408120805460019290613287908490614e3f565b909155505060008181526002602052604080822080546001600160a01b0319166001600160a01b03868116918217909255915184939187169160008051602061508383398151915291a4505050565b6120a682823361388a565b6132ec838383610a2e565b15610915576000838152600d6020908152604080832085845282528083206001600160a01b03851684528252808320805460ff19169055600f90915290205461333584826138ee565b6001600160a01b0382166000908152600f6020526040812055336001600160a01b0316826001600160a01b0316847f7b00293d63517946aeba2f56c6b4c5dec87b67393ac48520994d3d8ce776335a8760405161339491815260200190565b60405180910390a450505050565b60006133ad826118ae565b90506133ba600083612ffc565b6001600160a01b03811660009081526003602052604081208054600192906133e3908490614ca6565b909155505060008281526002602052604080822080546001600160a01b0319169055518391906001600160a01b03841690600080516020615083833981519152908390a46000828152600660205260409020805461344090614a36565b1590506120a65760008281526006602052604081206120a691613d62565b610915838383613786565b6001600160a01b0382166134bf5760405162461bcd60e51b815260206004820181905260248201527f4552433732313a206d696e7420746f20746865207a65726f2061646472657373604482015260640161064f565b6134c881612fb7565b156135145760405162461bcd60e51b815260206004820152601c60248201527b115490cdcc8c4e881d1bdad95b88185b1c9958591e481b5a5b9d195960221b604482015260640161064f565b6001600160a01b038216600090815260036020526040812080546001929061353d908490614e3f565b909155505060008181526002602052604080822080546001600160a01b0319166001600160a01b0386169081179091559051839290600080516020615083833981519152908290a45050565b816001600160a01b0316836001600160a01b0316036135e65760405162461bcd60e51b815260206004820152601960248201527822a9219b99189d1030b8383937bb32903a379031b0b63632b960391b604482015260640161064f565b6001600160a01b03838116600081815260056020908152604080832094871680845294825291829020805460ff191686151590811790915591519182527f17307eab39ab6107e8899845ad3d59bd9653f200f220920489ca2b5937696c31910160405180910390a3505050565b61365e84848461314c565b61366a848484846139d1565b6118a85760405162461bcd60e51b815260040161064f90614e68565b6060816000036136ad5750506040805180820190915260018152600360fc1b602082015290565b8160005b81156136d757806136c181614c77565b91506136d09050600a83614ed0565b91506136b1565b6000816001600160401b038111156136f1576136f1613eb9565b6040519080825280601f01601f19166020018201604052801561371b576020820181803683370190505b5090505b841561283457613730600183614ca6565b915061373d600a86614ee4565b613748906030614e3f565b60f81b81838151811061375d5761375d614c90565b60200101906001600160f81b031916908160001a90535061377f600a86614ed0565b945061371f565b613791838383610a2e565b610915576000838152600d6020908152604080832085845282528083206001600160a01b03858116808652918452828520805460ff1916600190811790915583518085018552928352828501888152898752600e865293862080548083018255818852958720845160029097020180546001600160a01b0319169690931695909517825592519083015592869052905461382b9190614ca6565b6001600160a01b0383166000908152600f6020526040902055336001600160a01b0316826001600160a01b0316847fd9dfff7752b7a810e2b646c0c96b76bc9ed817f6c6f7848bbe68163f7e8b43788760405161339491815260200190565b613895838383610a2e565b610915576138a281613ad2565b6138ad836020613ae4565b6138b685613c86565b6040516020016138c893929190614ef8565b60408051601f198184030181529082905262461bcd60e51b825261064f91600401614034565b6000828152600e60205260409020805461390a90600190614ca6565b8154811061391a5761391a614c90565b9060005260206000209060020201600e6000848152602001908152602001600020828154811061394c5761394c614c90565b60009182526020808320845460029093020180546001600160a01b0319166001600160a01b039093169290921782556001938401549390910192909255838152600e909152604090208054806139a4576139a4614cb9565b60008281526020812060026000199093019283020180546001600160a01b03191681556001015590555050565b60006001600160a01b0384163b15613ac757604051630a85bd0160e11b81526001600160a01b0385169063150b7a0290613a15903390899088908890600401614f9a565b6020604051808303816000875af1925050508015613a50575060408051601f3d908101601f19168201909252613a4d91810190614fd7565b60015b613aad573d808015613a7e576040519150601f19603f3d011682016040523d82523d6000602084013e613a83565b606091505b508051600003613aa55760405162461bcd60e51b815260040161064f90614e68565b805181602001fd5b6001600160e01b031916630a85bd0160e11b149050612834565b506001949350505050565b60606111376001600160a01b03831660145b60606000613af3836002614ff4565b613afe906002614e3f565b6001600160401b03811115613b1557613b15613eb9565b6040519080825280601f01601f191660200182016040528015613b3f576020820181803683370190505b509050600360fc1b81600081518110613b5a57613b5a614c90565b60200101906001600160f81b031916908160001a905350600f60fb1b81600181518110613b8957613b89614c90565b60200101906001600160f81b031916908160001a9053506000613bad846002614ff4565b613bb8906001614e3f565b90505b6001811115613c30576f181899199a1a9b1b9c1cb0b131b232b360811b85600f1660108110613bec57613bec614c90565b1a60f81b828281518110613c0257613c02614c90565b60200101906001600160f81b031916908160001a90535060049490941c93613c298161500b565b9050613bbb565b508315613c7f5760405162461bcd60e51b815260206004820181905260248201527f537472696e67733a20686578206c656e67746820696e73756666696369656e74604482015260640161064f565b9392505050565b606081600003613cb05750506040805180820190915260048152630307830360e41b602082015290565b8160005b8115613cd35780613cc481614c77565b915050600882901c9150613cb4565b6128348482613ae4565b6040518060a0016040528060006001600160a01b031681526020016000815260200160008152602001600081526020016000151581525090565b828054828255906000526020600020908101928215613d52579160200282015b82811115613d52578235825591602001919060010190613d37565b50613d5e929150613e71565b5090565b508054613d6e90614a36565b6000825580601f10613d7e575050565b601f016020900490600052602060002090810190612ff99190613e71565b5080546000825590600052602060002090810190612ff99190613e71565b828054828255906000526020600020908101928215613d52579160200282015b82811115613d52578251825591602001919060010190613dda565b60405180610180016040528060008152602001606081526020016060815260200160008152602001600081526020016000815260200160008152602001600081526020016060815260200160608152602001613e64604051806040016040528060008152602001600081525090565b8152600060209091015290565b5b80821115613d5e5760008155600101613e72565b6001600160e01b031981168114612ff957600080fd5b600060208284031215613eae57600080fd5b8135613c7f81613e86565b634e487b7160e01b600052604160045260246000fd5b604051601f8201601f191681016001600160401b0381118282101715613ef757613ef7613eb9565b604052919050565b80356001600160a01b0381168114613f1657600080fd5b919050565b60008060008060808587031215613f3157600080fd5b8435935060208086013593506040860135925060608601356001600160401b0380821115613f5e57600080fd5b818801915088601f830112613f7257600080fd5b813581811115613f8457613f84613eb9565b8060051b9150613f95848301613ecf565b818152918301840191848101908b841115613faf57600080fd5b938501935b83851015613fd457613fc585613eff565b82529385019390850190613fb4565b989b979a50959850505050505050565b60005b83811015613fff578181015183820152602001613fe7565b50506000910152565b60008151808452614020816020860160208601613fe4565b601f01601f19169290920160200192915050565b602081526000613c7f6020830184614008565b60006020828403121561405957600080fd5b5035919050565b6000806040838503121561407357600080fd5b61407c83613eff565b946020939093013593505050565b80516001600160a01b031682526020808201519083015260408082015190830152606080820151908301526080908101511515910152565b60a08101611137828461408a565b602080825282518282018190526000919060409081850190868401855b8281101561411b57815180516001600160a01b031685528601518685015292840192908501906001016140ed565b5091979650505050505050565b60008060006060848603121561413d57600080fd5b833592506020840135915061415460408501613eff565b90509250925092565b6000806000806080858703121561417357600080fd5b5050823594602084013594506040840135936060013592509050565b600080604083850312156141a257600080fd5b823591506141b260208401613eff565b90509250929050565b60006001600160401b038311156141d4576141d4613eb9565b6141e7601f8401601f1916602001613ecf565b90508281528383830111156141fb57600080fd5b828260208301376000602084830101529392505050565b600082601f83011261422357600080fd5b613c7f838335602085016141bb565b6000806040838503121561424557600080fd5b8235915060208301356001600160401b0381111561426257600080fd5b61426e85828601614212565b9150509250929050565b60008060006060848603121561428d57600080fd5b61429684613eff565b92506142a460208501613eff565b9150604084013590509250925092565b60008083601f8401126142c657600080fd5b5081356001600160401b038111156142dd57600080fd5b6020830191508360208260051b85010111156142f857600080fd5b9250929050565b60006040828403121561240857600080fd5b60008060008060008060008060006101008a8c03121561433057600080fd5b8935985060208a0135975060408a01356001600160401b038082111561435557600080fd5b6143618d838e01614212565b985060608c0135975060808c013591508082111561437e57600080fd5b61438a8d838e016142b4565b909750955060a08c01359150808211156143a357600080fd5b506143b08c828d016142b4565b90945092506143c490508b60c08c016142ff565b90509295985092959850929598565b6020808252825182820181905260009190848201906040850190845b818110156144155761440283855161408a565b9284019260a092909201916001016143ef565b50909695505050505050565b6000806040838503121561443457600080fd5b50508035926020909101359150565b60008060006060848603121561445857600080fd5b505081359360208301359350604090920135919050565b60006020828403121561448157600080fd5b613c7f82613eff565b600080600080608085870312156144a057600080fd5b84359350602085013592506040850135915060608501356001600160401b038111156144cb57600080fd5b6144d787828801614212565b91505092959194509250565b60008083601f8401126144f557600080fd5b5081356001600160401b0381111561450c57600080fd5b6020830191508360208285010111156142f857600080fd5b6000806000806000806000806000806000806101408d8f03121561454757600080fd5b8c359b506001600160401b0360208e0135111561456357600080fd5b6145738e60208f01358f016144e3565b909b50995060408d0135985060608d0135975060808d0135965060a08d013595506001600160401b0360c08e013511156145ac57600080fd5b6145bc8e60c08f01358f016142b4565b90955093506001600160401b0360e08e013511156145d957600080fd5b6145e98e60e08f01358f016142b4565b90935091506145fc8e6101008f016142ff565b90509295989b509295989b509295989b565b6000806040838503121561462157600080fd5b61462a83613eff565b91506020830135801515811461463f57600080fd5b809150509250929050565b600081518084526020808501945080840160005b8381101561467a5781518752958201959082019060010161465e565b509495945050505050565b60006020808301818452808551808352604092508286019150828160051b87010184880160005b838110156147ab57603f1989840301855281516101a08151855288820151818a8701526146db82870182614008565b91505087820151858203898701526146f3828261464a565b606084810151908801526080808501519088015260a0808501519088015260c0808501519088015260e0808501519088015261010080850151888303828a01529193509150614742838261464a565b92505050610120808301518683038288015261475e838261464a565b925050506101408083015161477f8288018280518252602090810151910152565b5050610160820151915061479861018086018315159052565b95880195935050908601906001016146ac565b509098975050505050505050565b602081526000613c7f602083018461464a565b600080600080608085870312156147e257600080fd5b6147eb85613eff565b93506147f960208601613eff565b92506040850135915060608501356001600160401b0381111561481b57600080fd5b8501601f8101871361482c57600080fd5b6144d7878235602084016141bb565b6000806040838503121561484e57600080fd5b61485783613eff565b91506141b260208401613eff565b6000806000806080858703121561487b57600080fd5b843593506020850135925060408501356001600160401b0381111561489f57600080fd5b6148ab87828801614212565b949793965093946060013593505050565b6020808252601c908201527b4576656e743a204576656e7420646f6573206e6f742065786973742160201b604082015260600190565b6020808252601f908201527f4576656e743a2043617465676f727920646f6573206e6f742065786973742100604082015260600190565b60208082526029908201527f4576656e743a20546869732063617465676f727920697320666f7220616e6f746040820152681a195c88195d995b9d60ba1b606082015260800190565b6020808252602a908201527f4576656e743a2043616c6c6572206973206e6f7420616e2061646d696e206f726040820152691036b7b232b930ba37b960b11b606082015260800190565b600060a082018783526020878185015286604085015260a0606085015281865180845260c086019150828801935060005b81811015614a125784516001600160a01b0316835293830193918301916001016149ed565b50506001600160a01b03959095166080949094019390935250919695505050505050565b600181811c90821680614a4a57607f821691505b60208210810361240857634e487b7160e01b600052602260045260246000fd5b6020808252601d908201527f4576656e743a2043616c6c6572206973206e6f7420616e2061646d696e000000604082015260600190565b6020808252602e908201527f4552433732313a2063616c6c6572206973206e6f7420746f6b656e206f776e6560408201526d1c881b9bdc88185c1c1c9bdd995960921b606082015260800190565b60208082526028908201527f4576656e743a20446973636f756e7420706172616d6574657273206c656e677460408201526768206e6f7420657160c01b606082015260800190565b601f82111561091557600081815260208120601f850160051c81016020861015614b5e5750805b601f850160051c820191505b81811015614b7d57828155600101614b6a565b505050505050565b600019600383901b1c191660019190911b1790565b81516001600160401b03811115614bb357614bb3613eb9565b614bc781614bc18454614a36565b84614b37565b602080601f831160018114614bf65760008415614be45750858301515b614bee8582614b85565b865550614b7d565b600085815260208120601f198616915b82811015614c2557888601518255948401946001909101908401614c06565b5085821015614c435787850151600019600388901b60f8161c191681555b5050505050600190811b01905550565b918252602082015260400190565b634e487b7160e01b600052601160045260246000fd5b600060018201614c8957614c89614c61565b5060010190565b634e487b7160e01b600052603260045260246000fd5b8181038181111561113757611137614c61565b634e487b7160e01b600052603160045260246000fd5b602080825260189082015277115490cdcc8c4e881a5b9d985b1a59081d1bdad95b88125160421b604082015260600190565b8281526040602082015260006128346040830184614008565b6001600160401b03831115614d3157614d31613eb9565b614d4583614d3f8354614a36565b83614b37565b6000601f841160018114614d735760008515614d615750838201355b614d6b8682614b85565b8455506114cc565b600083815260209020601f19861690835b82811015614da45786850135825560209485019460019092019101614d84565b5086821015614dc15760001960f88860031b161c19848701351681555b505060018560011b0183555050505050565b84815283602082015260606040820152816060820152818360808301376000818301608090810191909152601f909201601f191601019392505050565b60008351614e22818460208801613fe4565b835190830190614e36818360208801613fe4565b01949350505050565b8082018082111561113757611137614c61565b9283526020830191909152604082015260600190565b60208082526032908201527f4552433732313a207472616e7366657220746f206e6f6e20455243373231526560408201527131b2b4bb32b91034b6b83632b6b2b73a32b960711b606082015260800190565b634e487b7160e01b600052601260045260246000fd5b600082614edf57614edf614eba565b500490565b600082614ef357614ef3614eba565b500690565b7402937b632a1b7b73a3937b61d1030b1b1b7bab73a1605d1b815260008451614f28816015850160208901613fe4565b7001034b99036b4b9b9b4b733903937b6329607d1b6015918401918201528451614f59816026840160208901613fe4565b720103337b91032bb32b73a103bb4ba341034b21606d1b602692909101918201528351614f8d816039840160208801613fe4565b0160390195945050505050565b6001600160a01b0385811682528416602082015260408101839052608060608201819052600090614fcd90830184614008565b9695505050505050565b600060208284031215614fe957600080fd5b8151613c7f81613e86565b808202811582820484141761113757611137614c61565b60008161501a5761501a614c61565b50600019019056feff3317e1e0e8c784290b957ee9b65ea8fe96420c4819db463283b95ecbe4a3feb5a7f51d0593e853ad0aa6b718ee0bdd10c4966eb62d243b69d538e5823d040171f3d55856e4058ed06ee057d79ada615f65cdf5f9ee88181b914225088f834fddf252ad1be2c89b69c2b068fc378daa952ba7f163c4a11628f55a4df523b3efa26469706673582212200774ce45021002e964784ddc534664daa3c4a6635821dd5bc446575759c6d01064736f6c63430008110033",
  "linkReferences": {},
  "deployedLinkReferences": {}
}