{
  "_format": "hh-sol-artifact-1",
  "contractName": "EventTicketControllerFacet",
  "sourceName": "contracts/EventDiamond/facets/EventTicketControllerFacet.sol",
  "abi": [
    {
      "anonymous": false,
      "inputs": [
        {
          "indexed": true,
          "internalType": "uint256",
          "name": "fromTokenId",
          "type": "uint256"
        },
        {
          "indexed": false,
          "internalType": "uint256",
          "name": "toTokenId",
          "type": "uint256"
        },
        {
          "indexed": true,
          "internalType": "address",
          "name": "fromAddress",
          "type": "address"
        },
        {
          "indexed": true,
          "internalType": "address",
          "name": "toAddress",
          "type": "address"
        }
      ],
      "name": "ConsecutiveTransfer",
      "type": "event"
    },
    {
      "anonymous": false,
      "inputs": [
        {
          "indexed": false,
          "internalType": "uint256",
          "name": "eventId",
          "type": "uint256"
        },
        {
          "indexed": false,
          "internalType": "uint256",
          "name": "date",
          "type": "uint256"
        },
        {
          "indexed": false,
          "internalType": "uint8",
          "name": "percentage",
          "type": "uint8"
        }
      ],
      "name": "EventRefundDateAdded",
      "type": "event"
    },
    {
      "anonymous": false,
      "inputs": [
        {
          "indexed": false,
          "internalType": "uint256",
          "name": "eventId",
          "type": "uint256"
        }
      ],
      "name": "EventWithdraw",
      "type": "event"
    },
    {
      "anonymous": false,
      "inputs": [
        {
          "indexed": false,
          "internalType": "uint256",
          "name": "eventId",
          "type": "uint256"
        },
        {
          "indexed": false,
          "internalType": "address[]",
          "name": "accounts",
          "type": "address[]"
        },
        {
          "indexed": false,
          "internalType": "address",
          "name": "staffMember",
          "type": "address"
        }
      ],
      "name": "InvitationSent",
      "type": "event"
    },
    {
      "anonymous": false,
      "inputs": [
        {
          "indexed": false,
          "internalType": "uint256",
          "name": "ticketId",
          "type": "uint256"
        },
        {
          "indexed": false,
          "internalType": "address",
          "name": "account",
          "type": "address"
        }
      ],
      "name": "RefundWithdraw",
      "type": "event"
    },
    {
      "anonymous": false,
      "inputs": [
        {
          "indexed": false,
          "internalType": "uint256",
          "name": "ticketId",
          "type": "uint256"
        },
        {
          "indexed": false,
          "internalType": "address",
          "name": "account",
          "type": "address"
        }
      ],
      "name": "TicketBought",
      "type": "event"
    },
    {
      "anonymous": false,
      "inputs": [
        {
          "indexed": false,
          "internalType": "uint256",
          "name": "eventId",
          "type": "uint256"
        },
        {
          "indexed": false,
          "internalType": "uint256",
          "name": "categoryId",
          "type": "uint256"
        },
        {
          "indexed": false,
          "internalType": "uint256",
          "name": "ticketId",
          "type": "uint256"
        },
        {
          "indexed": false,
          "internalType": "address",
          "name": "staffMember",
          "type": "address"
        }
      ],
      "name": "TicketClipped",
      "type": "event"
    },
    {
      "anonymous": false,
      "inputs": [
        {
          "indexed": false,
          "internalType": "uint256",
          "name": "eventId",
          "type": "uint256"
        },
        {
          "indexed": false,
          "internalType": "uint256",
          "name": "categoryId",
          "type": "uint256"
        },
        {
          "indexed": false,
          "internalType": "uint256",
          "name": "ticketId",
          "type": "uint256"
        },
        {
          "indexed": false,
          "internalType": "address",
          "name": "account",
          "type": "address"
        }
      ],
      "name": "TicketRefunded",
      "type": "event"
    },
    {
      "anonymous": false,
      "inputs": [
        {
          "indexed": false,
          "internalType": "uint256",
          "name": "eventId",
          "type": "uint256"
        },
        {
          "indexed": false,
          "internalType": "uint256",
          "name": "ticketCount",
          "type": "uint256"
        },
        {
          "indexed": false,
          "internalType": "address",
          "name": "staffMember",
          "type": "address"
        }
      ],
      "name": "TicketsBooked",
      "type": "event"
    },
    {
      "inputs": [
        {
          "internalType": "uint256",
          "name": "_eventId",
          "type": "uint256"
        },
        {
          "components": [
            {
              "internalType": "uint256",
              "name": "date",
              "type": "uint256"
            },
            {
              "internalType": "uint8",
              "name": "percentage",
              "type": "uint8"
            }
          ],
          "internalType": "struct RefundData",
          "name": "_refundData",
          "type": "tuple"
        }
      ],
      "name": "addRefundDeadline",
      "outputs": [],
      "stateMutability": "nonpayable",
      "type": "function"
    },
    {
      "inputs": [
        {
          "internalType": "uint256",
          "name": "_eventId",
          "type": "uint256"
        },
        {
          "components": [
            {
              "internalType": "uint256",
              "name": "categoryId",
              "type": "uint256"
            },
            {
              "internalType": "uint256",
              "name": "ticketAmount",
              "type": "uint256"
            }
          ],
          "internalType": "struct CategoryTicketAmount[]",
          "name": "_categoryTicketAmount",
          "type": "tuple[]"
        },
        {
          "components": [
            {
              "internalType": "uint256",
              "name": "row",
              "type": "uint256"
            },
            {
              "internalType": "uint256",
              "name": "seat",
              "type": "uint256"
            },
            {
              "internalType": "address",
              "name": "account",
              "type": "address"
            }
          ],
          "internalType": "struct TicketPlaceAddress[]",
          "name": "_place",
          "type": "tuple[]"
        },
        {
          "internalType": "string[]",
          "name": "_ticketMetadataUris",
          "type": "string[]"
        }
      ],
      "name": "bookTickets",
      "outputs": [],
      "stateMutability": "nonpayable",
      "type": "function"
    },
    {
      "inputs": [
        {
          "internalType": "uint256",
          "name": "_eventId",
          "type": "uint256"
        },
        {
          "internalType": "uint256",
          "name": "_categoryId",
          "type": "uint256"
        },
        {
          "components": [
            {
              "internalType": "uint256",
              "name": "amount",
              "type": "uint256"
            },
            {
              "internalType": "uint256",
              "name": "price",
              "type": "uint256"
            }
          ],
          "internalType": "struct TicketPriceData[]",
          "name": "_priceData",
          "type": "tuple[]"
        },
        {
          "components": [
            {
              "internalType": "uint256",
              "name": "row",
              "type": "uint256"
            },
            {
              "internalType": "uint256",
              "name": "seat",
              "type": "uint256"
            }
          ],
          "internalType": "struct TicketPlace[]",
          "name": "_place",
          "type": "tuple[]"
        },
        {
          "internalType": "string[]",
          "name": "_ticketMetadataUris",
          "type": "string[]"
        }
      ],
      "name": "buyTickets",
      "outputs": [],
      "stateMutability": "payable",
      "type": "function"
    },
    {
      "inputs": [
        {
          "components": [
            {
              "internalType": "uint256",
              "name": "eventId",
              "type": "uint256"
            },
            {
              "internalType": "uint256",
              "name": "categoryId",
              "type": "uint256"
            }
          ],
          "internalType": "struct EventCategoryData[]",
          "name": "_eventCategoryData",
          "type": "tuple[]"
        },
        {
          "components": [
            {
              "internalType": "uint256",
              "name": "amount",
              "type": "uint256"
            },
            {
              "internalType": "uint256",
              "name": "price",
              "type": "uint256"
            }
          ],
          "internalType": "struct TicketPriceData[]",
          "name": "_priceData",
          "type": "tuple[]"
        },
        {
          "components": [
            {
              "internalType": "uint256",
              "name": "row",
              "type": "uint256"
            },
            {
              "internalType": "uint256",
              "name": "seat",
              "type": "uint256"
            }
          ],
          "internalType": "struct TicketPlace[]",
          "name": "_place",
          "type": "tuple[]"
        },
        {
          "internalType": "string[]",
          "name": "_ticketMetadataUris",
          "type": "string[]"
        }
      ],
      "name": "buyTickets",
      "outputs": [],
      "stateMutability": "payable",
      "type": "function"
    },
    {
      "inputs": [
        {
          "internalType": "uint256",
          "name": "_eventId",
          "type": "uint256"
        },
        {
          "internalType": "uint256",
          "name": "_categoryId",
          "type": "uint256"
        },
        {
          "internalType": "uint256",
          "name": "_ticketId",
          "type": "uint256"
        }
      ],
      "name": "clipTicket",
      "outputs": [],
      "stateMutability": "nonpayable",
      "type": "function"
    },
    {
      "inputs": [
        {
          "internalType": "uint256",
          "name": "_eventId",
          "type": "uint256"
        }
      ],
      "name": "getAddressTicketIdsByEvent",
      "outputs": [
        {
          "internalType": "uint256[]",
          "name": "",
          "type": "uint256[]"
        }
      ],
      "stateMutability": "view",
      "type": "function"
    },
    {
      "inputs": [
        {
          "components": [
            {
              "internalType": "uint256",
              "name": "eventId",
              "type": "uint256"
            },
            {
              "internalType": "uint256",
              "name": "categoryId",
              "type": "uint256"
            },
            {
              "internalType": "uint256",
              "name": "ticketId",
              "type": "uint256"
            }
          ],
          "internalType": "struct ReturnTicketParams",
          "name": "_returnTicketParams",
          "type": "tuple"
        }
      ],
      "name": "returnTicket",
      "outputs": [],
      "stateMutability": "nonpayable",
      "type": "function"
    },
    {
      "inputs": [
        {
          "internalType": "uint256",
          "name": "_eventId",
          "type": "uint256"
        },
        {
          "internalType": "uint256[]",
          "name": "_ticketIds",
          "type": "uint256[]"
        },
        {
          "internalType": "address[]",
          "name": "_accounts",
          "type": "address[]"
        }
      ],
      "name": "sendInvitation",
      "outputs": [],
      "stateMutability": "nonpayable",
      "type": "function"
    },
    {
      "inputs": [
        {
          "internalType": "uint256",
          "name": "_eventId",
          "type": "uint256"
        }
      ],
      "name": "withdrawContractBalance",
      "outputs": [],
      "stateMutability": "nonpayable",
      "type": "function"
    },
    {
      "inputs": [
        {
          "internalType": "uint256",
          "name": "_eventId",
          "type": "uint256"
        },
        {
          "internalType": "uint256",
          "name": "_ticketId",
          "type": "uint256"
        }
      ],
      "name": "withdrawRefund",
      "outputs": [],
      "stateMutability": "nonpayable",
      "type": "function"
    }
  ],
  "bytecode": "0x608060405234801561001057600080fd5b50613ab5806100206000396000f3fe6080604052600436106100915760003560e01c8063ab6a8d6a11610059578063ab6a8d6a1461012b578063b5abe85a1461014b578063ddb7d5df1461016b578063e3bccc0f1461018b578063ef71b78a146101c157600080fd5b806328e13a9e146100965780632d3bf559146100b85780634f905e5d146100d8578063558e39c4146100eb5780637ce8b3411461010b575b600080fd5b3480156100a257600080fd5b506100b66100b1366004612f06565b6101d4565b005b3480156100c457600080fd5b506100b66100d3366004613095565b6107cb565b6100b66100e6366004613178565b610ab6565b3480156100f757600080fd5b506100b6610106366004613213565b610dab565b34801561011757600080fd5b506100b661012636600461323f565b610fef565b34801561013757600080fd5b506100b661014636600461329d565b611142565b34801561015757600080fd5b506100b66101663660046132f8565b611967565b34801561017757600080fd5b506100b6610186366004613311565b611c2c565b34801561019757600080fd5b506101ab6101a63660046132f8565b611d70565b6040516101b89190613333565b60405180910390f35b6100b66101cf366004613377565b611dda565b600084815260026020908152604091829020548251808401909352601b83526000805160206138b5833981519152918301919091528591906001600160a01b031661023b5760405162461bcd60e51b8152600401610232919061347e565b60405180910390fd5b5061024885600033612113565b8061026757506102678560008051602061397283398151915233612113565b6040518060600160405280602a81526020016137b5602a91399061029e5760405162461bcd60e51b8152600401610232919061347e565b50835160001415604051806060016040528060258152602001613a1260259139906102dc5760405162461bcd60e51b8152600401610232919061347e565b5081518351146040518060400160405280601f8152602001600080516020613952833981519152815250906103245760405162461bcd60e51b8152600401610232919061347e565b5060008060005b8651811015610545576000600a01600088838151811061034d5761034d613491565b602002602001015160000151815260200190815260200160002060000154600014156040518060400160405280601e8152602001600080516020613901833981519152815250906103b15760405162461bcd60e51b8152600401610232919061347e565b50876000600a0160008984815181106103cc576103cc613491565b602002602001015160000151815260200190815260200160002060070154146040518060600160405280602981526020016137df60299139906104225760405162461bcd60e51b8152600401610232919061347e565b5086818151811061043557610435613491565b6020026020010151602001518361044c91906134bd565b92506000600a01600088838151811061046757610467613491565b602002602001015160000151815260200190815260200160002060040154836000600a0160008a858151811061049f5761049f613491565b6020026020010151600001518152602001908152602001600020600201805490506104ca91906134bd565b1115604051806060016040528060238152602001613a3760239139906105035760405162461bcd60e51b8152600401610232919061347e565b506000925086818151811061051a5761051a613491565b6020026020010151602001518261053191906134bd565b91508061053d816134d0565b91505061032b565b5060008060008060005b8a5181101561077e5760005b8b828151811061056d5761056d613491565b60200260200101516020015181101561076b5760008d8152600c602052604090208b516105b7908d90899081106105a6576105a6613491565b602002602001015160000151612145565b6105dd8d89815181106105cc576105cc613491565b602002602001015160200151612145565b6040516020016105ee9291906134e9565b60408051601f198184030181529082905261060891613518565b90815260408051918290036020908101832054838301909252601583527422bb32b73a1d10283630b1b29034b9903a30b5b2b760591b9083015260ff16156106635760405162461bcd60e51b8152600401610232919061347e565b5060006001600160a01b03168b878151811061068157610681613491565b6020026020010151604001516001600160a01b0316146106c4578a86815181106106ad576106ad613491565b6020026020010151604001519350600192506106cc565b309350600092505b61074c8d8d84815181106106e2576106e2613491565b602002602001015160000151878e8a8151811061070157610701613491565b6020026020010151600001518f8b8151811061071f5761071f613491565b6020026020010151602001518f8c8151811061073d5761073d613491565b6020026020010151898b61224d565b6107576001876134bd565b955080610763816134d0565b91505061055b565b5080610776816134d0565b91505061054f565b50604080518c815260208101879052338183015290517f0bf6beb306958fd2b5107d64b133ea297e354c91e8508878a9a4abb9206d82289181900360600190a15050505050505050505050565b600083815260026020908152604091829020548251808401909352601b83526000805160206138b5833981519152918301919091528491906001600160a01b03166108295760405162461bcd60e51b8152600401610232919061347e565b5061083684600033612113565b8061085557506108558460008051602061397283398151915233612113565b6040518060600160405280602a81526020016137b5602a91399061088c5760405162461bcd60e51b8152600401610232919061347e565b5082511580159061089d5750815115155b604051806060016040528060258152602001613a1260259139906108d45760405162461bcd60e51b8152600401610232919061347e565b5081518351146040518060400160405280601f81526020016000805160206139528339815191528152509061091c5760405162461bcd60e51b8152600401610232919061347e565b5060005b8351811015610a745760115483516001600160a01b03909116906323b872dd90309086908590811061095457610954613491565b602002602001015187858151811061096e5761096e613491565b60209081029190910101516040516001600160e01b031960e086901b1681526001600160a01b0393841660048201529290911660248301526044820152606401600060405180830381600087803b1580156109c857600080fd5b505af11580156109dc573d6000803e3d6000fd5b505060115486516001600160a01b03909116925063dd4670649150869084908110610a0957610a09613491565b60200260200101516040518263ffffffff1660e01b8152600401610a2f91815260200190565b600060405180830381600087803b158015610a4957600080fd5b505af1158015610a5d573d6000803e3d6000fd5b505050508080610a6c906134d0565b915050610920565b507fc47e064bd57c3620a43c1e4ac852f9185e9582f40bdd973a20f4c1bf520f38a5848333604051610aa893929190613534565b60405180910390a150505050565b825160001415604051806060016040528060258152602001613a126025913990610af35760405162461bcd60e51b8152600401610232919061347e565b5080518251146040518060400160405280601f815260200160008051602061395283398151915281525090610b3b5760405162461bcd60e51b8152600401610232919061347e565b50610b46858561243c565b60008060005b8551811015610bba5760009150610b7d87878381518110610b6f57610b6f613491565b602002602001015184612724565b858181518110610b8f57610b8f613491565b60200260200101516020015183610ba691906134bd565b925080610bb2816134d0565b915050610b4c565b503482146040518060600160405280602381526020016137926023913990610bf55760405162461bcd60e51b8152600401610232919061347e565b506000805b8651811015610da05760005b878281518110610c1857610c18613491565b602002602001015160000151811015610d8d5760008a8152600c602052604090208751610c51908990869081106105a6576105a6613491565b610c668986815181106105cc576105cc613491565b604051602001610c779291906134e9565b60408051601f1981840301815290829052610c9191613518565b90815260408051918290036020908101832054838301909252601583527422bb32b73a1d10283630b1b29034b9903a30b5b2b760591b9083015260ff1615610cec5760405162461bcd60e51b8152600401610232919061347e565b50610d6e8a8a8a8581518110610d0457610d04613491565b6020026020010151602001518a8781518110610d2257610d22613491565b6020026020010151600001518b8881518110610d4057610d40613491565b6020026020010151602001518b8981518110610d5e57610d5e613491565b602002602001015160003361224d565b610d796001846134bd565b925080610d85816134d0565b915050610c06565b5080610d98816134d0565b915050610bfa565b505050505050505050565b600083815260026020908152604091829020548251808401909352601b83526000805160206138b5833981519152918301919091528491906001600160a01b0316610e095760405162461bcd60e51b8152600401610232919061347e565b506000838152600a6020908152604091829020548251808401909352601e835260008051602061390183398151915291830191909152849190610e5f5760405162461bcd60e51b8152600401610232919061347e565b508484816000600a01600083815260200190815260200160002060070154146040518060600160405280602981526020016137df6029913990610eb55760405162461bcd60e51b8152600401610232919061347e565b508585806000600d01600084815260200190815260200160002054146040518060600160405280602c81526020016138d5602c913990610f085760405162461bcd60e51b8152600401610232919061347e565b50610f1589600033612113565b80610f345750610f348960008051602061397283398151915233612113565b80610f655750610f65897fb5a7f51d0593e853ad0aa6b718ee0bdd10c4966eb62d243b69d538e5823d040133612113565b6040518060600160405280603881526020016139b86038913990610f9c5760405162461bcd60e51b8152600401610232919061347e565b50604080518a8152602081018a90529081018890523360608201527f2dcc6bceb950de206af8457a1b2083cbb47b6b70918a66be78ab4d128fee79f09060800160405180910390a1505050505050505050565b600082815260026020908152604091829020548251808401909352601b83526000805160206138b5833981519152918301919091528391906001600160a01b031661104d5760405162461bcd60e51b8152600401610232919061347e565b5061105a83600033612113565b8061107957506110798360008051602061397283398151915233612113565b6040518060600160405280602a81526020016137b5602a9139906110b05760405162461bcd60e51b8152600401610232919061347e565b506000838152600960209081526040808320600401805460018181018355918552938390208651600290950201848155928601519201805460ff841660ff19909116179055517f6acb6edf217693871c0a1b4dc7f139e64435ab88c84cdc94a85daf36cd06849c9261113592878352602083019190915260ff16604082015260600190565b60405180910390a1505050565b8051600081815260026020908152604091829020548251808401909352601b83526000805160206138b5833981519152918301919091526001600160a01b031661119f5760405162461bcd60e51b8152600401610232919061347e565b506020808301516000818152600a8352604090819020548151808301909252601e82526000805160206139018339815191529382019390935290916111f75760405162461bcd60e51b8152600401610232919061347e565b5082600001518360200151816000600a01600083815260200190815260200160002060070154146040518060600160405280602981526020016137df60299139906112555760405162461bcd60e51b8152600401610232919061347e565b5084602001518560400151806000600d01600084815260200190815260200160002054146040518060600160405280602c81526020016138d5602c9139906112b05760405162461bcd60e51b8152600401610232919061347e565b508651600090815260096020908152604091829020600401548251606081019093526022808452901592916139f090830139906113005760405162461bcd60e51b8152600401610232919061347e565b5060008061131689600001518a6040015161294b565b91509150816040518060400160405280601a81526020017f4576656e743a20526566756e642064617465206973206f7665720000000000008152509061136f5760405162461bcd60e51b8152600401610232919061347e565b50604089810180516000908152601060209081528382203383529052828120849055601154915192516024810193909352306044840152916001600160a01b039091169060640160408051601f198184030181529181526020820180516001600160e01b031663e64478c160e01b179052516113eb9190613518565b600060405180830381855af49150503d8060008114611426576040519150601f19603f3d011682016040523d82523d6000602084013e61142b565b606091505b50509050806040518060400160405280601d81526020017f4576656e743a20436f6e74726163742063616c6c207265766572746564000000815250906114845760405162461bcd60e51b8152600401610232919061347e565b506000805b6020808d01516000908152600a9091526040902060020154811015611501578b604001516000600a0160008e60200151815260200190815260200160002060020182815481106114db576114db613491565b9060005260206000200154036114ef578091505b806114f9816134d0565b915050611489565b506020808c0180516000908152600a909252604080832091518352909120600290810154910190611534906001906135a0565b8154811061154457611544613491565b90600052602060002001546000600a0160008d602001518152602001908152602001600020600201828154811061157d5761157d613491565b60009182526020808320909101929092558c8201518152600a909152604090206002018054806115af576115af6135b3565b6000828152602080822060001990840181018390559092019092558c518252600c90526040808220601154828f01519251633ee1bcfd60e11b815260048101939093529293509161165d916001600160a01b0390911690637dc379fa90602401600060405180830381865afa15801561162c573d6000803e3d6000fd5b505050506040513d6000823e601f3d908101601f1916820160405261165491908101906135c9565b60600151612145565b60115460408e8101519051633ee1bcfd60e11b815260048101919091526116df916001600160a01b031690637dc379fa90602401600060405180830381865afa1580156116ae573d6000803e3d6000fd5b505050506040513d6000823e601f3d908101601f191682016040526116d691908101906135c9565b60800151612145565b6040516020016116f09291906134e9565b60408051601f198184030181529082905261170a91613518565b9081526040805160209281900383019020805460ff1916931515939093179092558b516000908152600e82528281203382529091529081208054600192906117539084906135a0565b9091555060009050805b8b516000908152600f602090815260408083203384529091529020548110156117d8576040808d01518d516000908152600f60209081528382203383529052919091208054839081106117b2576117b2613491565b9060005260206000200154036117c6578091505b806117d0816134d0565b91505061175d565b506000600f0160008c6000015181526020019081526020016000206000336001600160a01b03166001600160a01b0316815260200190815260200160002060016000600f0160008e6000015181526020019081526020016000206000336001600160a01b03166001600160a01b031681526020019081526020016000208054905061186391906135a0565b8154811061187357611873613491565b60009182526020808320909101548d518352600f8252604080842033855290925291208054839081106118a8576118a8613491565b60009182526020808320909101929092558c518152600f82526040808220338352909252208054806118dc576118dc6135b3565b60019003818190600052602060002001600090559055507f87ff245f55dca5f20f12247f39f781d5710eda96984e49512daad7b675e414798a600001518b602001518c60400151336040516119539493929190938452602084019290925260408301526001600160a01b0316606082015260800190565b60405180910390a150505050505050505050565b600081815260026020908152604091829020548251808401909352601b83526000805160206138b5833981519152918301919091528291906001600160a01b03166119c55760405162461bcd60e51b8152600401610232919061347e565b506119f1827fff3317e1e0e8c784290b957ee9b65ea8fe96420c4819db463283b95ecbe4a3fe33612113565b6040518060600160405280603181526020016138386031913990611a285760405162461bcd60e51b8152600401610232919061347e565b50600082815260096020526040812060040154819081908103611a5e576000858152600960205260409020600201549250611b47565b60005b600086815260096020526040902060040154811015611b45576000868152600960205260409020600401805482908110611a9d57611a9d613491565b9060005260206000209060020201600001544211611b33576000868152600960205260409020600401805482908110611ad857611ad8613491565b600091825260208083206002928302016001015489845260099091526040909220015460ff9091169350611b0c9084612b1a565b600087815260096020526040902060020154909250611b2c9083906135a0565b9350611b45565b80611b3d816134d0565b915050611a61565b505b60008581526009602052604081206002018054859290611b689084906135a0565b9091555050604051600090339085908381818185875af1925050503d8060008114611baf576040519150601f19603f3d011682016040523d82523d6000602084013e611bb4565b606091505b50509050806040518060600160405280602981526020016138696029913990611bf05760405162461bcd60e51b8152600401610232919061347e565b506040518681527feea9f2e0c73d19e23063194ae9ba8512a252b6c0bd44e31315f611c5efaa8f0b9060200160405180910390a1505050505050565b600082815260096020908152604091829020600401548251606081019093526022808452901592916139f09083013990611c795760405162461bcd60e51b8152600401610232919061347e565b50600081815260106020908152604080832033845282528083205485845260099092528220600201805491928392611cb29084906135a0565b9091555050604051600090339083908381818185875af1925050503d8060008114611cf9576040519150601f19603f3d011682016040523d82523d6000602084013e611cfe565b606091505b50509050806040518060600160405280602381526020016138926023913990611d3a5760405162461bcd60e51b8152600401610232919061347e565b50604080518481523360208201527fa454a872564530477ec0ade23bb2eadb5f61aeb76fb1f727d3f6c3a770f83da49101610aa8565b6000818152600f60209081526040808320338452825291829020805483518184028101840190945280845260609392830182828015611dce57602002820191906000526020600020905b815481526020019060010190808311611dba575b50505050509050919050565b82518451146040518060400160405280601f815260200160008051602061395283398151915281525090611e215760405162461bcd60e51b8152600401610232919061347e565b5080518251146040518060400160405280601f815260200160008051602061395283398151915281525090611e695760405162461bcd60e51b8152600401610232919061347e565b5060008060005b8551811015611f3157611ebd878281518110611e8e57611e8e613491565b602002602001015160000151888381518110611eac57611eac613491565b60200260200101516020015161243c565b60009150611ef4878281518110611ed657611ed6613491565b602002602001015160200151878381518110610b6f57610b6f613491565b858181518110611f0657611f06613491565b60200260200101516020015183611f1d91906134bd565b925080611f29816134d0565b915050611e70565b503482146040518060600160405280602381526020016137926023913990611f6c5760405162461bcd60e51b8152600401610232919061347e565b506000805b87518110156121095760005b878281518110611f8f57611f8f613491565b6020026020010151600001518110156120f6576000600c0160008a8481518110611fbb57611fbb613491565b6020026020010151600001518152602001908152602001600020611fea8885815181106105a6576105a6613491565b611fff8986815181106105cc576105cc613491565b6040516020016120109291906134e9565b60408051601f198184030181529082905261202a91613518565b90815260408051918290036020908101832054838301909252601583527422bb32b73a1d10283630b1b29034b9903a30b5b2b760591b9083015260ff16156120855760405162461bcd60e51b8152600401610232919061347e565b506120d789838151811061209b5761209b613491565b6020026020010151600001518a84815181106120b9576120b9613491565b6020026020010151602001518a8581518110610d0457610d04613491565b6120e26001846134bd565b9250806120ee816134d0565b915050611f7d565b5080612101816134d0565b915050611f71565b5050505050505050565b60009283526012602090815260408085209385529281528284206001600160a01b039290921684525290205460ff1690565b60608160000361216c5750506040805180820190915260018152600360fc1b602082015290565b8160005b81156121965780612180816134d0565b915061218f9050600a836136b8565b9150612170565b6000816001600160401b038111156121b0576121b0612cab565b6040519080825280601f01601f1916602001820160405280156121da576020820181803683370190505b5090505b8415612245576121ef6001836135a0565b91506121fc600a866136cc565b6122079060306134bd565b60f81b81838151811061221c5761221c613491565b60200101906001600160f81b031916908160001a90535061223e600a866136b8565b94506121de565b949350505050565b6000888152600960205260408120600201805488929061226e9084906134bd565b9091555050601154604051639b69ff0960e01b81526000916001600160a01b031690639b69ff09906122b2908c908c908c908c908c908c908c908c906004016136e0565b6020604051808303816000875af11580156122d1573d6000803e3d6000fd5b505050506040513d601f19601f820116820180604052508101906122f59190613738565b6000898152600a60209081526040822060020180546001810182559083529082200182905590915061232687612145565b61232f87612145565b6040516020016123409291906134e9565b60408051601f1981840301815282825260008d8152600c602052918220909350909161236d908490613518565b9081526040805160209281900383019020805460ff19169315159390931790925560008b8152600d82528281208590558c8152600e82528281206001600160a01b03871682529091529081208054600192906123ca9084906134bd565b909155505060008a8152600f602090815260408083206001600160a01b0387168085529083528184208054600181018255908552938390209093018590558051858152918201929092527f6606e4c8a88792ed4fd5159f9be235ca78e87fc1cbdc6158ea92d3ed3be9bf729101611953565b6000828152600260205260409020546001600160a01b031615156040518060400160405280601b81526020016000805160206138b5833981519152815250906124985760405162461bcd60e51b8152600401610232919061347e565b506000818152600a6020908152604091829020548251808401909352601e8352600080516020613901833981519152918301919091526124eb5760405162461bcd60e51b8152600401610232919061347e565b50816000600a01600083815260200190815260200160002060070154146040518060600160405280602981526020016137df602991399061253f5760405162461bcd60e51b8152600401610232919061347e565b5060008281526009602090815260409182902060030154825160608101909352603180845260ff9091161515600114929161392190830139906125955760405162461bcd60e51b8152600401610232919061347e565b506000818152600a6020908152604091829020600c0154825160608101909352603080845260ff9091161515600114929161380890830139906125eb5760405162461bcd60e51b8152600401610232919061347e565b50426125f683612b97565b6001600160401b03161015801561261e57504261261283612c1d565b6001600160401b031611155b604051806060016040528060268152602001613a5a60269139906126555760405162461bcd60e51b8152600401610232919061347e565b506000818152600a6020526040902060050154421180159061268857506000818152600a60205260409020600601544210155b60405180606001604052806029815260200161376960299139906126bf5760405162461bcd60e51b8152600401610232919061347e565b50600082815260096020908152604080832060010154600e8352818420338552835292819020548151606081019092526026808352931015929091613992908301399061271f5760405162461bcd60e51b8152600401610232919061347e565b505050565b815161273090826134bd565b6000848152600a602052604090206004810154600290910154919250906127589083906134bd565b1115604051806060016040528060238152602001613a3760239139906127915760405162461bcd60e51b8152600401610232919061347e565b506000838152600a6020526040902060080154156128e35760005b6000848152600a60205260409020600801548110156128dd5782516000858152600a602052604090206008018054839081106127ea576127ea613491565b9060005260206000200154036128cb57826020015160646000600a016000878152602001908152602001600020600901838154811061282b5761282b613491565b906000526020600020015461284091906136b8565b6000868152600a602052604090206003015461285c9190613751565b6000868152600a602052604090206003015461287891906135a0565b14604051806040016040528060198152602001784576656e743a2057726f6e67207469636b657420707269636560381b815250906128c95760405162461bcd60e51b8152600401610232919061347e565b505b806128d5816134d0565b9150506127ac565b50505050565b6020808301516000858152600a835260409081902060030154815180830190925260198252784576656e743a2057726f6e67207469636b657420707269636560381b9382019390935291146128dd5760405162461bcd60e51b8152600401610232919061347e565b60008060008060005b600087815260096020526040902060040154811015612b0f57600087815260096020526040902060040180548290811061299057612990613491565b9060005260206000209060020201600001544211612afd5760115460008881526009602052604081206004018054919283926001600160a01b03909116918a91869081106129e0576129e0613491565b6000918252602090912060029091020160010154604051602481019290925260ff16604482015260640160408051601f198184030181529181526020820180516001600160e01b0316633f376ea560e11b17905251612a3f9190613518565b6000604051808303816000865af19150503d8060008114612a7c576040519150601f19603f3d011682016040523d82523d6000602084013e612a81565b606091505b5091509150816040518060400160405280601d81526020017f4576656e743a20436f6e74726163742063616c6c20726576657274656400000081525090612adb5760405162461bcd60e51b8152600401610232919061347e565b506001935080806020019051810190612af49190613738565b94505050612b0f565b80612b07816134d0565b915050612954565b509590945092505050565b6000612710612b298385613751565b1015612b775760405162461bcd60e51b815260206004820152601760248201527f50657263656e746167653a20526f756e647320746f20300000000000000000006044820152606401610232565b612710612b848385613751565b612b8e91906136b8565b90505b92915050565b60008181526002602052604081205481906001600160a01b0316612bf85760405162461bcd60e51b8152602060048201526018602482015277115490cd4c0c0dce88125b9d985b1a59081d1bdad95b925960421b6044820152606401610232565b600092835260090160205250604090206003015461010090046001600160401b031690565b60008181526002602052604081205481906001600160a01b0316612c7e5760405162461bcd60e51b8152602060048201526018602482015277115490cd4c0c0dce88125b9d985b1a59081d1bdad95b925960421b6044820152606401610232565b6000928352600901602052506040902060030154690100000000000000000090046001600160401b031690565b634e487b7160e01b600052604160045260246000fd5b604080519081016001600160401b0381118282101715612ce357612ce3612cab565b60405290565b604051606081016001600160401b0381118282101715612ce357612ce3612cab565b60405160c081016001600160401b0381118282101715612ce357612ce3612cab565b604051601f8201601f191681016001600160401b0381118282101715612d5557612d55612cab565b604052919050565b60006001600160401b03821115612d7657612d76612cab565b5060051b60200190565b6000612d93612d8e84612d5d565b612d2d565b8381529050602080820190600685901b840186811115612db257600080fd5b845b81811015612def5760408189031215612dcd5760008081fd5b612dd5612cc1565b813581528382013584820152845292820192604001612db4565b505050509392505050565b80356001600160a01b0381168114612e1157600080fd5b919050565b60006001600160401b03821115612e2f57612e2f612cab565b50601f01601f191660200190565b600082601f830112612e4e57600080fd5b81356020612e5e612d8e83612d5d565b82815260059290921b84018101918181019086841115612e7d57600080fd5b8286015b84811015612efb5780356001600160401b03811115612ea05760008081fd5b8701603f81018913612eb25760008081fd5b848101356040612ec4612d8e83612e16565b8281528b82848601011115612ed95760008081fd5b8282850189830137600092810188019290925250845250918301918301612e81565b509695505050505050565b60008060008060808587031215612f1c57600080fd5b843593506020808601356001600160401b0380821115612f3b57600080fd5b818801915088601f830112612f4f57600080fd5b612f5d898335858501612d80565b9550604091508188013581811115612f7457600080fd5b8801601f81018a13612f8557600080fd5b8035612f93612d8e82612d5d565b8181526060918202830186019186820191908d841115612fb257600080fd5b938701935b838510156130015780858f031215612fcf5760008081fd5b612fd7612ce9565b853581528886013589820152612fee888701612dfa565b8189015283529384019391870191612fb7565b9098508b013595505050508083111561301957600080fd5b505061302787828801612e3d565b91505092959194509250565b600082601f83011261304457600080fd5b81356020613054612d8e83612d5d565b82815260059290921b8401810191818101908684111561307357600080fd5b8286015b84811015612efb5761308881612dfa565b8352918301918301613077565b6000806000606084860312156130aa57600080fd5b833592506020808501356001600160401b03808211156130c957600080fd5b818701915087601f8301126130dd57600080fd5b81356130eb612d8e82612d5d565b81815260059190911b8301840190848101908a83111561310a57600080fd5b938501935b828510156131285784358252938501939085019061310f565b96505050604087013592508083111561314057600080fd5b505061314e86828701613033565b9150509250925092565b600082601f83011261316957600080fd5b612b8e83833560208501612d80565b600080600080600060a0868803121561319057600080fd5b853594506020860135935060408601356001600160401b03808211156131b557600080fd5b6131c189838a01613158565b945060608801359150808211156131d757600080fd5b6131e389838a01613158565b935060808801359150808211156131f957600080fd5b5061320688828901612e3d565b9150509295509295909350565b60008060006060848603121561322857600080fd5b505081359360208301359350604090920135919050565b600080828403606081121561325357600080fd5b833592506040601f198201121561326957600080fd5b50613272612cc1565b60208401358152604084013560ff8116811461328d57600080fd5b6020820152919491935090915050565b6000606082840312156132af57600080fd5b604051606081018181106001600160401b03821117156132d1576132d1612cab565b80604052508235815260208301356020820152604083013560408201528091505092915050565b60006020828403121561330a57600080fd5b5035919050565b6000806040838503121561332457600080fd5b50508035926020909101359150565b6020808252825182820181905260009190848201906040850190845b8181101561336b5783518352928401929184019160010161334f565b50909695505050505050565b6000806000806080858703121561338d57600080fd5b84356001600160401b03808211156133a457600080fd5b818701915087601f8301126133b857600080fd5b6133c788833560208501612d80565b955060208701359150808211156133dd57600080fd5b6133e988838901613158565b945060408701359150808211156133ff57600080fd5b61340b88838901613158565b9350606087013591508082111561342157600080fd5b5061302787828801612e3d565b60005b83811015613449578181015183820152602001613431565b50506000910152565b6000815180845261346a81602086016020860161342e565b601f01601f19169290920160200192915050565b602081526000612b8e6020830184613452565b634e487b7160e01b600052603260045260246000fd5b634e487b7160e01b600052601160045260246000fd5b80820180821115612b9157612b916134a7565b6000600182016134e2576134e26134a7565b5060010190565b600083516134fb81846020880161342e565b83519083019061350f81836020880161342e565b01949350505050565b6000825161352a81846020870161342e565b9190910192915050565b6000606082018583526020606081850152818651808452608086019150828801935060005b8181101561357e5784516001600160a01b031683529383019391830191600101613559565b50506001600160a01b0395909516604094909401939093525091949350505050565b81810381811115612b9157612b916134a7565b634e487b7160e01b600052603160045260246000fd5b600060208083850312156135dc57600080fd5b82516001600160401b03808211156135f357600080fd5b9084019060c0828703121561360757600080fd5b61360f612d0b565b82518152838301518482015260408301516040820152606083015160608201526080830151608082015260a08301518281111561364b57600080fd5b80840193505086601f84011261366057600080fd5b82519150613670612d8e83612e16565b828152878584860101111561368457600080fd5b6136938386830187870161342e565b60a08201529695505050505050565b634e487b7160e01b600052601260045260246000fd5b6000826136c7576136c76136a2565b500490565b6000826136db576136db6136a2565b500690565b60006101008a83528960208401528860408401528760608401528660808401528060a084015261371281840187613452565b94151560c084015250506001600160a01b039190911660e0909101529695505050505050565b60006020828403121561374a57600080fd5b5051919050565b8082028115828204841417612b9157612b916134a756fe4576656e743a2043616e277420627579207469636b65747320666f722063617465676f7279207965744576656e743a204d73672076616c7565206e6f7420657120746f74616c2070726963654576656e743a2043616c6c6572206973206e6f7420616e2061646d696e206f72206d6f64657261746f724576656e743a20546869732063617465676f727920697320666f7220616e6f74686572206576656e744576656e743a205469636b65747320666f7220746869732063617465676f727920617265206e6f742062757961626c654576656e743a204f6e6c7920636173686965722063616e20776974686472617720636f6e74726163742062616c616e63654576656e743a20436f6e74726163742062616c616e63652077697468647261772072657665727465644576656e743a2041636320726566756e642077697468647261772072657665727465644576656e743a204576656e7420646f6573206e6f7420657869737400000000004576656e743a205469636b657420646f65736e277420657869737420696e20746869732063617465676f72794576656e743a2043617465676f727920646f6573206e6f7420657869737400004576656e743a205469636b65747320666f7220616c6c2063617465676f7269657320617265206e6f742062757961626c654576656e743a20506172616d6574657273206c656e677468206e6f742065710071f3d55856e4058ed06ee057d79ada615f65cdf5f9ee88181b914225088f834f4576656e743a204d6178207469636b65747320666f72206163636f756e7420726561636865644576656e743a2043616c6c6572206973206e6f7420616e2061646d696e2c206d6f64657261746f72206f7220726563657074696f6e6973744576656e743a2043616e277420726566756e6420666f722074686973206576656e744576656e743a20506172616d657465722061727261792063616e277420626520656d7074794576656e743a204d6178207469636b65747320636f756e7420697320726561636865644576656e743a2043616e277420627579207469636b65747320666f72206576656e7420796574a2646970667358221220f66ebb281b743d844809859c7f21c3df70e4d52736b5f5db79fb8bcef80da5c264736f6c63430008110033",
  "linkReferences": {},
  "deployedLinkReferences": {}
}