{
  "_format": "hh-sol-artifact-1",
  "contractName": "EventFacet",
  "sourceName": "contracts/EventDiamond/facets/EventFacet.sol",
  "abi": [
    {
      "anonymous": false,
      "inputs": [
        {
          "indexed": false,
          "internalType": "uint256",
          "name": "eventId",
          "type": "uint256"
        },
        {
          "indexed": false,
          "internalType": "bool",
          "name": "value",
          "type": "bool"
        }
      ],
      "name": "AllCategorySellChanged",
      "type": "event"
    },
    {
      "anonymous": false,
      "inputs": [
        {
          "indexed": true,
          "internalType": "address",
          "name": "owner",
          "type": "address"
        },
        {
          "indexed": true,
          "internalType": "address",
          "name": "approved",
          "type": "address"
        },
        {
          "indexed": true,
          "internalType": "uint256",
          "name": "tokenId",
          "type": "uint256"
        }
      ],
      "name": "Approval",
      "type": "event"
    },
    {
      "anonymous": false,
      "inputs": [
        {
          "indexed": true,
          "internalType": "address",
          "name": "owner",
          "type": "address"
        },
        {
          "indexed": true,
          "internalType": "address",
          "name": "operator",
          "type": "address"
        },
        {
          "indexed": false,
          "internalType": "bool",
          "name": "approved",
          "type": "bool"
        }
      ],
      "name": "ApprovalForAll",
      "type": "event"
    },
    {
      "anonymous": false,
      "inputs": [
        {
          "indexed": false,
          "internalType": "uint256",
          "name": "_fromTokenId",
          "type": "uint256"
        },
        {
          "indexed": false,
          "internalType": "uint256",
          "name": "_toTokenId",
          "type": "uint256"
        }
      ],
      "name": "BatchMetadataUpdate",
      "type": "event"
    },
    {
      "anonymous": false,
      "inputs": [
        {
          "indexed": false,
          "internalType": "uint256",
          "name": "eventId",
          "type": "uint256"
        },
        {
          "indexed": false,
          "internalType": "uint256",
          "name": "categoryId",
          "type": "uint256"
        },
        {
          "indexed": false,
          "internalType": "string",
          "name": "categoryCid",
          "type": "string"
        }
      ],
      "name": "CategoryCreated",
      "type": "event"
    },
    {
      "anonymous": false,
      "inputs": [
        {
          "indexed": false,
          "internalType": "uint256",
          "name": "eventId",
          "type": "uint256"
        },
        {
          "indexed": false,
          "internalType": "uint256",
          "name": "categoryId",
          "type": "uint256"
        }
      ],
      "name": "CategoryDeleted",
      "type": "event"
    },
    {
      "anonymous": false,
      "inputs": [
        {
          "indexed": false,
          "internalType": "uint256",
          "name": "eventId",
          "type": "uint256"
        },
        {
          "indexed": false,
          "internalType": "uint256",
          "name": "categoryId",
          "type": "uint256"
        },
        {
          "indexed": false,
          "internalType": "address",
          "name": "staffMember",
          "type": "address"
        }
      ],
      "name": "CategorySaleDatesUpdated",
      "type": "event"
    },
    {
      "anonymous": false,
      "inputs": [
        {
          "indexed": false,
          "internalType": "uint256",
          "name": "eventId",
          "type": "uint256"
        },
        {
          "indexed": false,
          "internalType": "uint256",
          "name": "categoryId",
          "type": "uint256"
        },
        {
          "indexed": false,
          "internalType": "bool",
          "name": "value",
          "type": "bool"
        }
      ],
      "name": "CategorySellChanged",
      "type": "event"
    },
    {
      "anonymous": false,
      "inputs": [
        {
          "indexed": false,
          "internalType": "uint256",
          "name": "eventId",
          "type": "uint256"
        },
        {
          "indexed": false,
          "internalType": "uint256",
          "name": "categoryId",
          "type": "uint256"
        },
        {
          "indexed": false,
          "internalType": "uint256",
          "name": "ticketsCount",
          "type": "uint256"
        }
      ],
      "name": "CategoryTicketsAdded",
      "type": "event"
    },
    {
      "anonymous": false,
      "inputs": [
        {
          "indexed": false,
          "internalType": "uint256",
          "name": "eventId",
          "type": "uint256"
        },
        {
          "indexed": false,
          "internalType": "uint256",
          "name": "categoryId",
          "type": "uint256"
        },
        {
          "indexed": false,
          "internalType": "uint256",
          "name": "ticketsCount",
          "type": "uint256"
        }
      ],
      "name": "CategoryTicketsRemoved",
      "type": "event"
    },
    {
      "anonymous": false,
      "inputs": [
        {
          "indexed": false,
          "internalType": "uint256",
          "name": "eventId",
          "type": "uint256"
        },
        {
          "indexed": false,
          "internalType": "uint256",
          "name": "categoryId",
          "type": "uint256"
        }
      ],
      "name": "CategoryUpdated",
      "type": "event"
    },
    {
      "anonymous": false,
      "inputs": [
        {
          "indexed": true,
          "internalType": "uint256",
          "name": "fromTokenId",
          "type": "uint256"
        },
        {
          "indexed": false,
          "internalType": "uint256",
          "name": "toTokenId",
          "type": "uint256"
        },
        {
          "indexed": true,
          "internalType": "address",
          "name": "fromAddress",
          "type": "address"
        },
        {
          "indexed": true,
          "internalType": "address",
          "name": "toAddress",
          "type": "address"
        }
      ],
      "name": "ConsecutiveTransfer",
      "type": "event"
    },
    {
      "anonymous": false,
      "inputs": [
        {
          "indexed": false,
          "internalType": "uint256",
          "name": "eventId",
          "type": "uint256"
        },
        {
          "indexed": false,
          "internalType": "address",
          "name": "account",
          "type": "address"
        },
        {
          "indexed": false,
          "internalType": "address",
          "name": "setter",
          "type": "address"
        }
      ],
      "name": "EventCashierSet",
      "type": "event"
    },
    {
      "anonymous": false,
      "inputs": [
        {
          "indexed": false,
          "internalType": "uint256",
          "name": "eventId",
          "type": "uint256"
        },
        {
          "indexed": false,
          "internalType": "string",
          "name": "metadataUri",
          "type": "string"
        }
      ],
      "name": "EventCreated",
      "type": "event"
    },
    {
      "anonymous": false,
      "inputs": [
        {
          "indexed": false,
          "internalType": "uint256",
          "name": "eventId",
          "type": "uint256"
        },
        {
          "indexed": false,
          "internalType": "uint256",
          "name": "date",
          "type": "uint256"
        },
        {
          "indexed": false,
          "internalType": "uint8",
          "name": "percentage",
          "type": "uint8"
        }
      ],
      "name": "EventRefundDateAdded",
      "type": "event"
    },
    {
      "anonymous": false,
      "inputs": [
        {
          "indexed": false,
          "internalType": "uint256",
          "name": "_tokenId",
          "type": "uint256"
        }
      ],
      "name": "MetadataUpdate",
      "type": "event"
    },
    {
      "anonymous": false,
      "inputs": [
        {
          "indexed": false,
          "internalType": "uint256",
          "name": "eventId",
          "type": "uint256"
        },
        {
          "indexed": true,
          "internalType": "bytes32",
          "name": "role",
          "type": "bytes32"
        },
        {
          "indexed": true,
          "internalType": "bytes32",
          "name": "previousAdminRole",
          "type": "bytes32"
        },
        {
          "indexed": true,
          "internalType": "bytes32",
          "name": "newAdminRole",
          "type": "bytes32"
        }
      ],
      "name": "RoleAdminChanged",
      "type": "event"
    },
    {
      "anonymous": false,
      "inputs": [
        {
          "indexed": false,
          "internalType": "uint256",
          "name": "eventId",
          "type": "uint256"
        },
        {
          "indexed": true,
          "internalType": "bytes32",
          "name": "role",
          "type": "bytes32"
        },
        {
          "indexed": true,
          "internalType": "address",
          "name": "account",
          "type": "address"
        },
        {
          "indexed": true,
          "internalType": "address",
          "name": "sender",
          "type": "address"
        }
      ],
      "name": "RoleGranted",
      "type": "event"
    },
    {
      "anonymous": false,
      "inputs": [
        {
          "indexed": false,
          "internalType": "uint256",
          "name": "eventId",
          "type": "uint256"
        },
        {
          "indexed": true,
          "internalType": "bytes32",
          "name": "role",
          "type": "bytes32"
        },
        {
          "indexed": true,
          "internalType": "address",
          "name": "account",
          "type": "address"
        },
        {
          "indexed": true,
          "internalType": "address",
          "name": "sender",
          "type": "address"
        }
      ],
      "name": "RoleRevoked",
      "type": "event"
    },
    {
      "anonymous": false,
      "inputs": [
        {
          "indexed": false,
          "internalType": "uint256",
          "name": "eventId",
          "type": "uint256"
        },
        {
          "indexed": false,
          "internalType": "uint256",
          "name": "categoryId",
          "type": "uint256"
        },
        {
          "indexed": false,
          "internalType": "uint256",
          "name": "ticketId",
          "type": "uint256"
        },
        {
          "indexed": false,
          "internalType": "address",
          "name": "staffMember",
          "type": "address"
        }
      ],
      "name": "TicketClipped",
      "type": "event"
    },
    {
      "anonymous": false,
      "inputs": [
        {
          "indexed": false,
          "internalType": "uint256",
          "name": "eventId",
          "type": "uint256"
        },
        {
          "indexed": false,
          "internalType": "uint256",
          "name": "categoryId",
          "type": "uint256"
        },
        {
          "indexed": false,
          "internalType": "uint256",
          "name": "ticketId",
          "type": "uint256"
        },
        {
          "indexed": false,
          "internalType": "address",
          "name": "account",
          "type": "address"
        },
        {
          "indexed": false,
          "internalType": "address",
          "name": "staffMember",
          "type": "address"
        }
      ],
      "name": "TicketRefunded",
      "type": "event"
    },
    {
      "anonymous": false,
      "inputs": [
        {
          "indexed": false,
          "internalType": "uint256",
          "name": "eventId",
          "type": "uint256"
        },
        {
          "indexed": false,
          "internalType": "uint256",
          "name": "categoryId",
          "type": "uint256"
        },
        {
          "indexed": false,
          "internalType": "uint256",
          "name": "ticketCount",
          "type": "uint256"
        },
        {
          "indexed": false,
          "internalType": "address[]",
          "name": "accounts",
          "type": "address[]"
        },
        {
          "indexed": false,
          "internalType": "address",
          "name": "staffMember",
          "type": "address"
        }
      ],
      "name": "TicketsBooked",
      "type": "event"
    },
    {
      "anonymous": false,
      "inputs": [],
      "name": "TicketsBought",
      "type": "event"
    },
    {
      "anonymous": false,
      "inputs": [
        {
          "indexed": true,
          "internalType": "address",
          "name": "from",
          "type": "address"
        },
        {
          "indexed": true,
          "internalType": "address",
          "name": "to",
          "type": "address"
        },
        {
          "indexed": true,
          "internalType": "uint256",
          "name": "tokenId",
          "type": "uint256"
        }
      ],
      "name": "Transfer",
      "type": "event"
    },
    {
      "inputs": [],
      "name": "CASHIER_ROLE",
      "outputs": [
        {
          "internalType": "bytes32",
          "name": "",
          "type": "bytes32"
        }
      ],
      "stateMutability": "view",
      "type": "function"
    },
    {
      "inputs": [],
      "name": "DEFAULT_ADMIN_ROLE",
      "outputs": [
        {
          "internalType": "bytes32",
          "name": "",
          "type": "bytes32"
        }
      ],
      "stateMutability": "view",
      "type": "function"
    },
    {
      "inputs": [],
      "name": "MODERATOR_ROLE",
      "outputs": [
        {
          "internalType": "bytes32",
          "name": "",
          "type": "bytes32"
        }
      ],
      "stateMutability": "view",
      "type": "function"
    },
    {
      "inputs": [],
      "name": "RECEPTIONIST_ROLE",
      "outputs": [
        {
          "internalType": "bytes32",
          "name": "",
          "type": "bytes32"
        }
      ],
      "stateMutability": "view",
      "type": "function"
    },
    {
      "inputs": [],
      "name": "VALIDATOR_ROLE",
      "outputs": [
        {
          "internalType": "bytes32",
          "name": "",
          "type": "bytes32"
        }
      ],
      "stateMutability": "view",
      "type": "function"
    },
    {
      "inputs": [
        {
          "internalType": "uint256",
          "name": "_eventId",
          "type": "uint256"
        },
        {
          "internalType": "uint256",
          "name": "_categoryId",
          "type": "uint256"
        },
        {
          "internalType": "uint256",
          "name": "_ticketsCount",
          "type": "uint256"
        }
      ],
      "name": "addCategoryTicketsCount",
      "outputs": [],
      "stateMutability": "nonpayable",
      "type": "function"
    },
    {
      "inputs": [
        {
          "internalType": "uint256",
          "name": "_eventId",
          "type": "uint256"
        },
        {
          "components": [
            {
              "internalType": "uint256",
              "name": "date",
              "type": "uint256"
            },
            {
              "internalType": "uint8",
              "name": "percentage",
              "type": "uint8"
            }
          ],
          "internalType": "struct IEvent.RefundData[]",
          "name": "_refundData",
          "type": "tuple[]"
        }
      ],
      "name": "addRefundDeadlines",
      "outputs": [],
      "stateMutability": "nonpayable",
      "type": "function"
    },
    {
      "inputs": [
        {
          "internalType": "uint256",
          "name": "_eventId",
          "type": "uint256"
        },
        {
          "internalType": "bytes32",
          "name": "_role",
          "type": "bytes32"
        },
        {
          "internalType": "address",
          "name": "_account",
          "type": "address"
        }
      ],
      "name": "addTeamMember",
      "outputs": [],
      "stateMutability": "nonpayable",
      "type": "function"
    },
    {
      "inputs": [
        {
          "internalType": "address",
          "name": "to",
          "type": "address"
        },
        {
          "internalType": "uint256",
          "name": "tokenId",
          "type": "uint256"
        }
      ],
      "name": "approve",
      "outputs": [],
      "stateMutability": "nonpayable",
      "type": "function"
    },
    {
      "inputs": [
        {
          "internalType": "address",
          "name": "owner",
          "type": "address"
        }
      ],
      "name": "balanceOf",
      "outputs": [
        {
          "internalType": "uint256",
          "name": "",
          "type": "uint256"
        }
      ],
      "stateMutability": "view",
      "type": "function"
    },
    {
      "inputs": [
        {
          "internalType": "uint256",
          "name": "_eventId",
          "type": "uint256"
        },
        {
          "internalType": "uint256",
          "name": "_categoryId",
          "type": "uint256"
        },
        {
          "internalType": "address[]",
          "name": "_accounts",
          "type": "address[]"
        },
        {
          "components": [
            {
              "internalType": "uint256",
              "name": "row",
              "type": "uint256"
            },
            {
              "internalType": "uint256",
              "name": "seat",
              "type": "uint256"
            }
          ],
          "internalType": "struct IEvent.TicketPlace[]",
          "name": "_place",
          "type": "tuple[]"
        },
        {
          "internalType": "string[]",
          "name": "_ticketMetadataUris",
          "type": "string[]"
        }
      ],
      "name": "bookTickets",
      "outputs": [],
      "stateMutability": "nonpayable",
      "type": "function"
    },
    {
      "inputs": [
        {
          "internalType": "uint256",
          "name": "_eventId",
          "type": "uint256"
        },
        {
          "internalType": "uint256",
          "name": "_categoryId",
          "type": "uint256"
        },
        {
          "components": [
            {
              "internalType": "uint256",
              "name": "amount",
              "type": "uint256"
            },
            {
              "internalType": "uint256",
              "name": "price",
              "type": "uint256"
            }
          ],
          "internalType": "struct IEvent.TicketPriceData[]",
          "name": "_priceData",
          "type": "tuple[]"
        },
        {
          "components": [
            {
              "internalType": "uint256",
              "name": "row",
              "type": "uint256"
            },
            {
              "internalType": "uint256",
              "name": "seat",
              "type": "uint256"
            }
          ],
          "internalType": "struct IEvent.TicketPlace[]",
          "name": "_place",
          "type": "tuple[]"
        },
        {
          "internalType": "string[]",
          "name": "_ticketMetadataUris",
          "type": "string[]"
        }
      ],
      "name": "buyTickets",
      "outputs": [],
      "stateMutability": "payable",
      "type": "function"
    },
    {
      "inputs": [
        {
          "components": [
            {
              "internalType": "uint256",
              "name": "eventId",
              "type": "uint256"
            },
            {
              "internalType": "uint256",
              "name": "categoryId",
              "type": "uint256"
            }
          ],
          "internalType": "struct IEvent.EventCategoryData[]",
          "name": "_eventCategoryData",
          "type": "tuple[]"
        },
        {
          "components": [
            {
              "internalType": "uint256",
              "name": "amount",
              "type": "uint256"
            },
            {
              "internalType": "uint256",
              "name": "price",
              "type": "uint256"
            }
          ],
          "internalType": "struct IEvent.TicketPriceData[]",
          "name": "_priceData",
          "type": "tuple[]"
        },
        {
          "components": [
            {
              "internalType": "uint256",
              "name": "row",
              "type": "uint256"
            },
            {
              "internalType": "uint256",
              "name": "seat",
              "type": "uint256"
            }
          ],
          "internalType": "struct IEvent.TicketPlace[]",
          "name": "_place",
          "type": "tuple[]"
        },
        {
          "internalType": "string[]",
          "name": "_ticketMetadataUris",
          "type": "string[]"
        }
      ],
      "name": "buyTickets",
      "outputs": [],
      "stateMutability": "payable",
      "type": "function"
    },
    {
      "inputs": [
        {
          "internalType": "uint256",
          "name": "_eventId",
          "type": "uint256"
        },
        {
          "internalType": "uint256",
          "name": "_categoryId",
          "type": "uint256"
        },
        {
          "internalType": "uint256",
          "name": "_ticketId",
          "type": "uint256"
        }
      ],
      "name": "clipTicket",
      "outputs": [],
      "stateMutability": "nonpayable",
      "type": "function"
    },
    {
      "inputs": [
        {
          "internalType": "uint256",
          "name": "_maxTicketsPerClient",
          "type": "uint256"
        },
        {
          "internalType": "uint64",
          "name": "_startDate",
          "type": "uint64"
        },
        {
          "internalType": "uint64",
          "name": "_endDate",
          "type": "uint64"
        },
        {
          "internalType": "string",
          "name": "_metadataURI",
          "type": "string"
        }
      ],
      "name": "createEvent",
      "outputs": [],
      "stateMutability": "nonpayable",
      "type": "function"
    },
    {
      "inputs": [
        {
          "internalType": "uint256",
          "name": "_eventId",
          "type": "uint256"
        },
        {
          "internalType": "string",
          "name": "_categoryCid",
          "type": "string"
        },
        {
          "internalType": "uint256",
          "name": "_saleStartDate",
          "type": "uint256"
        },
        {
          "internalType": "uint256",
          "name": "_saleEndDate",
          "type": "uint256"
        },
        {
          "internalType": "uint256",
          "name": "_ticketsCount",
          "type": "uint256"
        },
        {
          "internalType": "uint256",
          "name": "_ticketPrice",
          "type": "uint256"
        },
        {
          "internalType": "uint256[]",
          "name": "_discountsTicketsCount",
          "type": "uint256[]"
        },
        {
          "internalType": "uint256[]",
          "name": "_discountsPercentage",
          "type": "uint256[]"
        },
        {
          "components": [
            {
              "internalType": "uint256",
              "name": "price",
              "type": "uint256"
            },
            {
              "internalType": "uint256",
              "name": "finalAmountDate",
              "type": "uint256"
            }
          ],
          "internalType": "struct IEvent.DownPayment",
          "name": "_downPayment",
          "type": "tuple"
        }
      ],
      "name": "createTicketCategory",
      "outputs": [],
      "stateMutability": "nonpayable",
      "type": "function"
    },
    {
      "inputs": [
        {
          "internalType": "uint256",
          "name": "tokenId",
          "type": "uint256"
        }
      ],
      "name": "endTime",
      "outputs": [
        {
          "internalType": "uint64",
          "name": "",
          "type": "uint64"
        }
      ],
      "stateMutability": "view",
      "type": "function"
    },
    {
      "inputs": [],
      "name": "fetchAllEventIds",
      "outputs": [
        {
          "internalType": "uint256[]",
          "name": "",
          "type": "uint256[]"
        }
      ],
      "stateMutability": "view",
      "type": "function"
    },
    {
      "inputs": [],
      "name": "fetchAllEvents",
      "outputs": [
        {
          "components": [
            {
              "internalType": "address",
              "name": "organizer",
              "type": "address"
            },
            {
              "internalType": "uint256",
              "name": "maxTicketsPerClient",
              "type": "uint256"
            },
            {
              "internalType": "bool",
              "name": "areAllCategoryTicketsBuyable",
              "type": "bool"
            },
            {
              "internalType": "uint64",
              "name": "startTime",
              "type": "uint64"
            },
            {
              "internalType": "uint64",
              "name": "endTime",
              "type": "uint64"
            }
          ],
          "internalType": "struct IEvent.Event[]",
          "name": "",
          "type": "tuple[]"
        }
      ],
      "stateMutability": "view",
      "type": "function"
    },
    {
      "inputs": [
        {
          "internalType": "uint256",
          "name": "_eventId",
          "type": "uint256"
        }
      ],
      "name": "fetchCategoriesByEventId",
      "outputs": [
        {
          "components": [
            {
              "internalType": "uint256",
              "name": "id",
              "type": "uint256"
            },
            {
              "internalType": "string",
              "name": "cid",
              "type": "string"
            },
            {
              "internalType": "uint256[]",
              "name": "ticketIds",
              "type": "uint256[]"
            },
            {
              "internalType": "uint256",
              "name": "ticketPrice",
              "type": "uint256"
            },
            {
              "internalType": "uint256",
              "name": "ticketsCount",
              "type": "uint256"
            },
            {
              "internalType": "uint256",
              "name": "saleStartDate",
              "type": "uint256"
            },
            {
              "internalType": "uint256",
              "name": "saleEndDate",
              "type": "uint256"
            },
            {
              "internalType": "uint256",
              "name": "eventId",
              "type": "uint256"
            },
            {
              "internalType": "uint256[]",
              "name": "discountsTicketsCount",
              "type": "uint256[]"
            },
            {
              "internalType": "uint256[]",
              "name": "discountsPercentage",
              "type": "uint256[]"
            },
            {
              "components": [
                {
                  "internalType": "uint256",
                  "name": "price",
                  "type": "uint256"
                },
                {
                  "internalType": "uint256",
                  "name": "finalAmountDate",
                  "type": "uint256"
                }
              ],
              "internalType": "struct IEvent.DownPayment",
              "name": "downPayment",
              "type": "tuple"
            },
            {
              "internalType": "bool",
              "name": "areTicketsBuyable",
              "type": "bool"
            }
          ],
          "internalType": "struct IEvent.Category[]",
          "name": "",
          "type": "tuple[]"
        }
      ],
      "stateMutability": "view",
      "type": "function"
    },
    {
      "inputs": [
        {
          "internalType": "uint256",
          "name": "_eventId",
          "type": "uint256"
        }
      ],
      "name": "fetchEventById",
      "outputs": [
        {
          "components": [
            {
              "internalType": "address",
              "name": "organizer",
              "type": "address"
            },
            {
              "internalType": "uint256",
              "name": "maxTicketsPerClient",
              "type": "uint256"
            },
            {
              "internalType": "bool",
              "name": "areAllCategoryTicketsBuyable",
              "type": "bool"
            },
            {
              "internalType": "uint64",
              "name": "startTime",
              "type": "uint64"
            },
            {
              "internalType": "uint64",
              "name": "endTime",
              "type": "uint64"
            }
          ],
          "internalType": "struct IEvent.Event",
          "name": "eventObj",
          "type": "tuple"
        }
      ],
      "stateMutability": "view",
      "type": "function"
    },
    {
      "inputs": [],
      "name": "fetchOwnedEvents",
      "outputs": [
        {
          "internalType": "uint256[]",
          "name": "",
          "type": "uint256[]"
        }
      ],
      "stateMutability": "view",
      "type": "function"
    },
    {
      "inputs": [
        {
          "internalType": "uint256",
          "name": "tokenId",
          "type": "uint256"
        }
      ],
      "name": "getApproved",
      "outputs": [
        {
          "internalType": "address",
          "name": "",
          "type": "address"
        }
      ],
      "stateMutability": "view",
      "type": "function"
    },
    {
      "inputs": [
        {
          "internalType": "uint256",
          "name": "eventId",
          "type": "uint256"
        }
      ],
      "name": "getEventMembers",
      "outputs": [
        {
          "components": [
            {
              "internalType": "address",
              "name": "account",
              "type": "address"
            },
            {
              "internalType": "bytes32",
              "name": "role",
              "type": "bytes32"
            }
          ],
          "internalType": "struct RoleControl.MemberData[]",
          "name": "",
          "type": "tuple[]"
        }
      ],
      "stateMutability": "view",
      "type": "function"
    },
    {
      "inputs": [
        {
          "internalType": "uint256",
          "name": "eventId",
          "type": "uint256"
        },
        {
          "internalType": "bytes32",
          "name": "role",
          "type": "bytes32"
        }
      ],
      "name": "getRoleAdmin",
      "outputs": [
        {
          "internalType": "bytes32",
          "name": "",
          "type": "bytes32"
        }
      ],
      "stateMutability": "view",
      "type": "function"
    },
    {
      "inputs": [
        {
          "internalType": "uint256",
          "name": "eventId",
          "type": "uint256"
        },
        {
          "internalType": "bytes32",
          "name": "role",
          "type": "bytes32"
        },
        {
          "internalType": "address",
          "name": "account",
          "type": "address"
        }
      ],
      "name": "grantRole",
      "outputs": [],
      "stateMutability": "nonpayable",
      "type": "function"
    },
    {
      "inputs": [
        {
          "internalType": "uint256",
          "name": "eventId",
          "type": "uint256"
        },
        {
          "internalType": "bytes32",
          "name": "role",
          "type": "bytes32"
        },
        {
          "internalType": "address",
          "name": "account",
          "type": "address"
        }
      ],
      "name": "hasRole",
      "outputs": [
        {
          "internalType": "bool",
          "name": "",
          "type": "bool"
        }
      ],
      "stateMutability": "view",
      "type": "function"
    },
    {
      "inputs": [
        {
          "internalType": "address",
          "name": "owner",
          "type": "address"
        },
        {
          "internalType": "address",
          "name": "operator",
          "type": "address"
        }
      ],
      "name": "isApprovedForAll",
      "outputs": [
        {
          "internalType": "bool",
          "name": "",
          "type": "bool"
        }
      ],
      "stateMutability": "view",
      "type": "function"
    },
    {
      "inputs": [
        {
          "internalType": "uint256",
          "name": "_eventId",
          "type": "uint256"
        },
        {
          "internalType": "bool",
          "name": "_value",
          "type": "bool"
        }
      ],
      "name": "manageAllCategorySelling",
      "outputs": [],
      "stateMutability": "nonpayable",
      "type": "function"
    },
    {
      "inputs": [
        {
          "internalType": "uint256",
          "name": "_eventId",
          "type": "uint256"
        },
        {
          "internalType": "uint256",
          "name": "_categoryId",
          "type": "uint256"
        },
        {
          "internalType": "bool",
          "name": "_value",
          "type": "bool"
        }
      ],
      "name": "manageCategorySelling",
      "outputs": [],
      "stateMutability": "nonpayable",
      "type": "function"
    },
    {
      "inputs": [],
      "name": "name",
      "outputs": [
        {
          "internalType": "string",
          "name": "",
          "type": "string"
        }
      ],
      "stateMutability": "view",
      "type": "function"
    },
    {
      "inputs": [
        {
          "internalType": "uint256",
          "name": "tokenId",
          "type": "uint256"
        }
      ],
      "name": "ownerOf",
      "outputs": [
        {
          "internalType": "address",
          "name": "",
          "type": "address"
        }
      ],
      "stateMutability": "view",
      "type": "function"
    },
    {
      "inputs": [
        {
          "internalType": "uint256",
          "name": "_eventId",
          "type": "uint256"
        },
        {
          "internalType": "uint256",
          "name": "_categoryId",
          "type": "uint256"
        },
        {
          "internalType": "uint256",
          "name": "_ticketId",
          "type": "uint256"
        },
        {
          "internalType": "address",
          "name": "_account",
          "type": "address"
        }
      ],
      "name": "refundTicket",
      "outputs": [],
      "stateMutability": "nonpayable",
      "type": "function"
    },
    {
      "inputs": [
        {
          "internalType": "uint256",
          "name": "_eventId",
          "type": "uint256"
        },
        {
          "internalType": "uint256",
          "name": "_categoryId",
          "type": "uint256"
        }
      ],
      "name": "removeCategory",
      "outputs": [],
      "stateMutability": "nonpayable",
      "type": "function"
    },
    {
      "inputs": [
        {
          "internalType": "uint256",
          "name": "_eventId",
          "type": "uint256"
        },
        {
          "internalType": "uint256",
          "name": "_categoryId",
          "type": "uint256"
        },
        {
          "internalType": "uint256",
          "name": "_ticketsCount",
          "type": "uint256"
        }
      ],
      "name": "removeCategoryTicketsCount",
      "outputs": [],
      "stateMutability": "nonpayable",
      "type": "function"
    },
    {
      "inputs": [
        {
          "internalType": "uint256",
          "name": "_eventId",
          "type": "uint256"
        }
      ],
      "name": "removeEvent",
      "outputs": [],
      "stateMutability": "nonpayable",
      "type": "function"
    },
    {
      "inputs": [
        {
          "internalType": "uint256",
          "name": "_eventId",
          "type": "uint256"
        },
        {
          "internalType": "bytes32",
          "name": "_role",
          "type": "bytes32"
        },
        {
          "internalType": "address",
          "name": "_account",
          "type": "address"
        }
      ],
      "name": "removeTeamMember",
      "outputs": [],
      "stateMutability": "nonpayable",
      "type": "function"
    },
    {
      "inputs": [
        {
          "internalType": "uint256",
          "name": "eventId",
          "type": "uint256"
        },
        {
          "internalType": "bytes32",
          "name": "role",
          "type": "bytes32"
        },
        {
          "internalType": "address",
          "name": "account",
          "type": "address"
        }
      ],
      "name": "renounceRole",
      "outputs": [],
      "stateMutability": "nonpayable",
      "type": "function"
    },
    {
      "inputs": [
        {
          "internalType": "uint256",
          "name": "eventId",
          "type": "uint256"
        },
        {
          "internalType": "bytes32",
          "name": "role",
          "type": "bytes32"
        },
        {
          "internalType": "address",
          "name": "account",
          "type": "address"
        }
      ],
      "name": "revokeRole",
      "outputs": [],
      "stateMutability": "nonpayable",
      "type": "function"
    },
    {
      "inputs": [
        {
          "internalType": "address",
          "name": "from",
          "type": "address"
        },
        {
          "internalType": "address",
          "name": "to",
          "type": "address"
        },
        {
          "internalType": "uint256",
          "name": "tokenId",
          "type": "uint256"
        }
      ],
      "name": "safeTransferFrom",
      "outputs": [],
      "stateMutability": "nonpayable",
      "type": "function"
    },
    {
      "inputs": [
        {
          "internalType": "address",
          "name": "from",
          "type": "address"
        },
        {
          "internalType": "address",
          "name": "to",
          "type": "address"
        },
        {
          "internalType": "uint256",
          "name": "tokenId",
          "type": "uint256"
        },
        {
          "internalType": "bytes",
          "name": "data",
          "type": "bytes"
        }
      ],
      "name": "safeTransferFrom",
      "outputs": [],
      "stateMutability": "nonpayable",
      "type": "function"
    },
    {
      "inputs": [
        {
          "internalType": "address",
          "name": "operator",
          "type": "address"
        },
        {
          "internalType": "bool",
          "name": "approved",
          "type": "bool"
        }
      ],
      "name": "setApprovalForAll",
      "outputs": [],
      "stateMutability": "nonpayable",
      "type": "function"
    },
    {
      "inputs": [
        {
          "internalType": "uint256",
          "name": "_eventId",
          "type": "uint256"
        },
        {
          "internalType": "address",
          "name": "_account",
          "type": "address"
        }
      ],
      "name": "setEventCashier",
      "outputs": [],
      "stateMutability": "nonpayable",
      "type": "function"
    },
    {
      "inputs": [
        {
          "internalType": "uint256",
          "name": "tokenId",
          "type": "uint256"
        }
      ],
      "name": "startTime",
      "outputs": [
        {
          "internalType": "uint64",
          "name": "",
          "type": "uint64"
        }
      ],
      "stateMutability": "view",
      "type": "function"
    },
    {
      "inputs": [
        {
          "internalType": "bytes4",
          "name": "interfaceId",
          "type": "bytes4"
        }
      ],
      "name": "supportsInterface",
      "outputs": [
        {
          "internalType": "bool",
          "name": "",
          "type": "bool"
        }
      ],
      "stateMutability": "view",
      "type": "function"
    },
    {
      "inputs": [],
      "name": "symbol",
      "outputs": [
        {
          "internalType": "string",
          "name": "",
          "type": "string"
        }
      ],
      "stateMutability": "view",
      "type": "function"
    },
    {
      "inputs": [
        {
          "internalType": "uint256",
          "name": "tokenId",
          "type": "uint256"
        }
      ],
      "name": "tokenURI",
      "outputs": [
        {
          "internalType": "string",
          "name": "",
          "type": "string"
        }
      ],
      "stateMutability": "view",
      "type": "function"
    },
    {
      "inputs": [
        {
          "internalType": "address",
          "name": "from",
          "type": "address"
        },
        {
          "internalType": "address",
          "name": "to",
          "type": "address"
        },
        {
          "internalType": "uint256",
          "name": "tokenId",
          "type": "uint256"
        }
      ],
      "name": "transferFrom",
      "outputs": [],
      "stateMutability": "nonpayable",
      "type": "function"
    },
    {
      "inputs": [
        {
          "internalType": "uint256",
          "name": "_eventId",
          "type": "uint256"
        },
        {
          "internalType": "uint256",
          "name": "_categoryId",
          "type": "uint256"
        },
        {
          "internalType": "string",
          "name": "_categoryCid",
          "type": "string"
        },
        {
          "internalType": "uint256",
          "name": "_ticketPrice",
          "type": "uint256"
        },
        {
          "internalType": "uint256[]",
          "name": "_discountsTicketsCount",
          "type": "uint256[]"
        },
        {
          "internalType": "uint256[]",
          "name": "_discountsPercentage",
          "type": "uint256[]"
        },
        {
          "components": [
            {
              "internalType": "uint256",
              "name": "price",
              "type": "uint256"
            },
            {
              "internalType": "uint256",
              "name": "finalAmountDate",
              "type": "uint256"
            }
          ],
          "internalType": "struct IEvent.DownPayment",
          "name": "_downPayment",
          "type": "tuple"
        }
      ],
      "name": "updateCategory",
      "outputs": [],
      "stateMutability": "nonpayable",
      "type": "function"
    },
    {
      "inputs": [
        {
          "internalType": "uint256",
          "name": "_eventId",
          "type": "uint256"
        },
        {
          "internalType": "uint256",
          "name": "_categoryId",
          "type": "uint256"
        },
        {
          "internalType": "uint256",
          "name": "_saleStartDate",
          "type": "uint256"
        },
        {
          "internalType": "uint256",
          "name": "_saleEndDate",
          "type": "uint256"
        }
      ],
      "name": "updateCategorySaleDates",
      "outputs": [],
      "stateMutability": "nonpayable",
      "type": "function"
    },
    {
      "inputs": [
        {
          "internalType": "uint256",
          "name": "_eventId",
          "type": "uint256"
        },
        {
          "internalType": "string",
          "name": "_newMetadataURI",
          "type": "string"
        }
      ],
      "name": "updateEventTokenUri",
      "outputs": [],
      "stateMutability": "nonpayable",
      "type": "function"
    },
    {
      "inputs": [
        {
          "internalType": "uint256",
          "name": "_eventId",
          "type": "uint256"
        },
        {
          "internalType": "uint256",
          "name": "_categoryId",
          "type": "uint256"
        },
        {
          "internalType": "uint256",
          "name": "_ticketId",
          "type": "uint256"
        }
      ],
      "name": "withdrawRefund",
      "outputs": [],
      "stateMutability": "nonpayable",
      "type": "function"
    }
  ],
  "bytecode": "0x608060405234801561001057600080fd5b506001601255615d8280620000266000396000f3fe60806040526004361061024f5760003560e01c806301ffc9a7146102545780630309a5391461028a57806306fdde03146102ac578063081812fc146102ce578063095ea7b3146103065780630d517286146103265780630e1b943d14610353578063119345aa146103805780631c6f9271146103a05780631cdf29c7146103c05780632053d82c146103e057806323b872dd146104005780632761f33b1461042057806327b60e6f146104405780633660ff8314610460578063397d4dbc146104825780633d378bb0146104b05780633ec4c968146104d057806342842e0e1461050857806344c816fa146105285780634a120dd7146105485780634f282bea146105685780634f905e5d14610588578063558e39c41461059b57806356164e1e146105bb5780635ba16138146105db5780636352211e146105fd5780636a4bc7de1461061d57806370a082311461063d578063724bdedf1461065d578063797669c91461067d578063959a1b581461069f57806395d89b41146106bf578063a217fddf146106d4578063a22cb465146106e9578063a310d9bf14610709578063a3bdc7c714610729578063a3cfe16014610756578063abae6af914610776578063b015554414610798578063b7fd9684146107b8578063b88d4fde146107da578063c49baebe146107fa578063c87b56dd1461081c578063c928840c1461083c578063d5533da01461085c578063e145256e1461087c578063e985e9c51461089c578063ef71b78a146108bc578063f354159b146108cf578063f99c2292146108ef578063fb42204d14610904575b600080fd5b34801561026057600080fd5b5061027561026f366004614761565b50600090565b60405190151581526020015b60405180910390f35b34801561029657600080fd5b506102aa6102a5366004614793565b610924565b005b3480156102b857600080fd5b506102c16109f8565b604051610281919061480f565b3480156102da57600080fd5b506102ee6102e9366004614822565b610a8c565b6040516001600160a01b039091168152602001610281565b34801561031257600080fd5b506102aa610321366004614852565b610ab3565b34801561033257600080fd5b50610346610341366004614822565b610bc8565b60405161028191906148c3565b34801561035f57600080fd5b5061037361036e366004614822565b610c63565b60405161028191906148d1565b34801561038c57600080fd5b5061027561039b366004614929565b610ceb565b3480156103ac57600080fd5b506102aa6103bb36600461495e565b610d1d565b3480156103cc57600080fd5b506102aa6103db366004614990565b610e51565b3480156103ec57600080fd5b506102aa6103fb366004614a70565b610f00565b34801561040c57600080fd5b506102aa61041b366004614ab6565b610fa7565b34801561042c57600080fd5b506102aa61043b366004614b4f565b610fd8565b34801561044c57600080fd5b506102aa61045b366004614cd5565b611198565b34801561046c57600080fd5b506104756112b6565b6040516102819190614d7c565b34801561048e57600080fd5b506104a261049d366004614dca565b61143e565b604051908152602001610281565b3480156104bc57600080fd5b506102aa6104cb366004614dca565b611462565b3480156104dc57600080fd5b506104f06104eb366004614822565b6117b7565b6040516001600160401b039091168152602001610281565b34801561051457600080fd5b506102aa610523366004614ab6565b611802565b34801561053457600080fd5b506104f0610543366004614822565b61181d565b34801561055457600080fd5b506102aa610563366004614929565b61186a565b34801561057457600080fd5b506102aa610583366004614dec565b611891565b6102aa610596366004614e2b565b611a53565b3480156105a757600080fd5b506102aa6105b6366004614ee3565b611a72565b3480156105c757600080fd5b506102aa6105d6366004614822565b611be3565b3480156105e757600080fd5b506104a2600080516020615ced83398151915281565b34801561060957600080fd5b506102ee610618366004614822565b611e7d565b34801561062957600080fd5b506102aa610638366004614929565b611eb2565b34801561064957600080fd5b506104a2610658366004614f0f565b611f6e565b34801561066957600080fd5b506102aa610678366004614929565b611ff4565b34801561068957600080fd5b506104a2600080516020615d0d83398151915281565b3480156106ab57600080fd5b506102aa6106ba366004614f6b565b61206d565b3480156106cb57600080fd5b506102c1612430565b3480156106e057600080fd5b506104a2600081565b3480156106f557600080fd5b506102aa610704366004615055565b612442565b34801561071557600080fd5b506102aa61072436600461507f565b612451565b34801561073557600080fd5b50610749610744366004614822565b612580565b60405161028191906150e6565b34801561076257600080fd5b506102aa610771366004615231565b6128e4565b34801561078257600080fd5b5061078b612ae7565b6040516102819190615298565b3480156107a457600080fd5b506102aa6107b3366004614929565b612c32565b3480156107c457600080fd5b506104a2600080516020615ccd83398151915281565b3480156107e657600080fd5b506102aa6107f53660046152ab565b612ce8565b34801561080657600080fd5b506104a2600080516020615c8d83398151915281565b34801561082857600080fd5b506102c1610837366004614822565b612d1a565b34801561084857600080fd5b506102aa610857366004614ee3565b612e5a565b34801561086857600080fd5b506102aa610877366004614ee3565b612f1e565b34801561088857600080fd5b506102aa61089736600461535e565b613047565b3480156108a857600080fd5b506102756108b73660046153a9565b6130b4565b6102aa6108ca3660046153d3565b6130e2565b3480156108db57600080fd5b506102aa6108ea366004614ee3565b61343d565b3480156108fb57600080fd5b5061078b61366e565b34801561091057600080fd5b506102aa61091f366004614929565b613773565b8161092e81613793565b6109535760405162461bcd60e51b815260040161094a90615496565b60405180910390fd5b61095f83600033610ceb565b8061097e575061097e83600080516020615d0d83398151915233610ceb565b61099a5760405162461bcd60e51b815260040161094a906154cc565b600083815260096020908152604091829020600201805460ff19168515159081179091558251868152918201527f578eeefe0b8083fcd939e8d547da4c0ba6b26ed213c13de65ab08a52f9f26a5291015b60405180910390a1505050565b6060600080018054610a0990615516565b80601f0160208091040260200160405190810160405280929190818152602001828054610a3590615516565b8015610a825780601f10610a5757610100808354040283529160200191610a82565b820191906000526020600020905b815481529060010190602001808311610a6557829003601f168201915b5050505050905090565b6000610a97826137b0565b506000908152600460205260409020546001600160a01b031690565b6000610abe82611e7d565b9050806001600160a01b0316836001600160a01b031603610b2b5760405162461bcd60e51b815260206004820152602160248201527f4552433732313a20617070726f76616c20746f2063757272656e74206f776e656044820152603960f91b606482015260840161094a565b336001600160a01b0382161480610b475750610b4781336130b4565b610bb95760405162461bcd60e51b815260206004820152603e60248201527f4552433732313a20617070726f76652063616c6c6572206973206e6f7420746f60448201527f6b656e206f776e6572206e6f7220617070726f76656420666f7220616c6c0000606482015260840161094a565b610bc383836137d8565b505050565b610bd06145ae565b81610bda81613793565b610bf65760405162461bcd60e51b815260040161094a90615496565b5050600090815260096020908152604091829020825160a08101845281546001600160a01b031681526001820154928101929092526002015460ff81161515928201929092526001600160401b03610100830481166060830152600160481b909204909116608082015290565b606060106000838152602001908152602001600020805480602002602001604051908101604052809291908181526020016000905b82821015610ce0576000848152602090819020604080518082019091526002850290910180546001600160a01b03168252600190810154828401529083529092019101610c98565b505050509050919050565b6000928352600f602090815260408085209385529281528284206001600160a01b039290921684525290205460ff1690565b83610d2781613793565b610d435760405162461bcd60e51b815260040161094a90615496565b6000848152600a6020526040812054859103610d715760405162461bcd60e51b815260040161094a9061554a565b6000858152600a6020526040902060070154869086908214610da55760405162461bcd60e51b815260040161094a90615581565b610db188600033610ceb565b80610dd05750610dd088600080516020615d0d83398151915233610ceb565b610dec5760405162461bcd60e51b815260040161094a906154cc565b6000878152600a60209081526040918290206005810189905560060187905581518a8152908101899052338183015290517f4192182acd964db32b1197a6483d5694cf6e678e7202565c44cc961078eb2c8f9181900360600190a15050505050505050565b81610e5b81613793565b610e775760405162461bcd60e51b815260040161094a90615496565b610e8383600033610ceb565b610e9f5760405162461bcd60e51b815260040161094a906155ca565b610eb883600080516020615ccd83398151915284613773565b604080518481526001600160a01b038416602082015233918101919091527f9f54db3c6775e8717da6972b09a7ed552d62f5fd63696a1a75e58f61bd240193906060016109eb565b81610f0a81613793565b610f265760405162461bcd60e51b815260040161094a90615496565b610f3283600033610ceb565b80610f515750610f5183600080516020615d0d83398151915233610ceb565b610f6d5760405162461bcd60e51b815260040161094a906154cc565b610f778383613846565b6040518381527ff8e1a15aba9398e019f0b49df1a4fde98ee17ae345cb5f6b5e2c27f5033e8ce7906020016109eb565b610fb133826138ca565b610fcd5760405162461bcd60e51b815260040161094a90615601565b610bc3838383613928565b88610fe281613793565b610ffe5760405162461bcd60e51b815260040161094a90615496565b6000898152600a60205260408120548a910361102c5760405162461bcd60e51b815260040161094a9061554a565b60008a8152600a60205260409020600701548b908b9082146110605760405162461bcd60e51b815260040161094a90615581565b61106c8d600033610ceb565b8061108b575061108b8d600080516020615d0d83398151915233610ceb565b6110a75760405162461bcd60e51b815260040161094a906154cc565b8786146110c65760405162461bcd60e51b815260040161094a9061564f565b60008c8152600a602052604090206001016110e18c826156fa565b5060008c8152600a60205260409020600381018b9055611105906008018a8a6145dc565b5060008c8152600a602052604090206111229060090188886145dc565b5060008c8152600a6020819052604090912086910161114e828281358155602082013560018201555050565b5050604080518e8152602081018e90527f44df894581249b9c6cda25b6fe8239320be1641adde53f17479b4153cadfcc60910160405180910390a150505050505050505050505050565b866111a281613793565b6111be5760405162461bcd60e51b815260040161094a90615496565b6000878152600a60205260408120548891036111ec5760405162461bcd60e51b815260040161094a9061554a565b6000888152600a60205260409020600701548990899082146112205760405162461bcd60e51b815260040161094a90615581565b61122c8b600033610ceb565b8061124b575061124b8b600080516020615d0d83398151915233610ceb565b6112675760405162461bcd60e51b815260040161094a906154cc565b6040517f5f183d9cf5454d6fc91379ef5dce8b6a4543ec2c03a1d6376579c9a6949b2cb3906112a1908d908d908c908e90829033906157b3565b60405180910390a15050505050505050505050565b606060006112c360075490565b905060008060015b83811161130f576000818152600960205260409020546001600160a01b0316156112fd57826112f981615846565b9350505b8061130781615846565b9150506112cb565b506000826001600160401b0381111561132a5761132a6149b3565b60405190808252806020026020018201604052801561136357816020015b6113506145ae565b8152602001906001900390816113485790505b50905060015b848111611435576000818152600960205260409020546001600160a01b03161561142357600081815260096020908152604091829020825160a08101845281546001600160a01b031681526001820154928101929092526002015460ff81161515928201929092526001600160401b03610100830481166060830152600160481b909204909116608082015282518390859081106114095761140961585f565b6020026020010181905250828061141f90615846565b9350505b8061142d81615846565b915050611369565b50949350505050565b6000828152600f602090815260408083208484529091529020600101545b92915050565b8161146c81613793565b6114885760405162461bcd60e51b815260040161094a90615496565b6000828152600a60205260408120548391036114b65760405162461bcd60e51b815260040161094a9061554a565b6000838152600a60205260409020600701548490849082146114ea5760405162461bcd60e51b815260040161094a90615581565b6114f686600033610ceb565b80611515575061151586600080516020615d0d83398151915233610ceb565b6115315760405162461bcd60e51b815260040161094a906154cc565b6000858152600a6020526040902060020154156115a45760405162461bcd60e51b815260206004820152602b60248201527f4576656e743a2054686572652061726520626f75676874207469636b6574732060448201526a696e2063617465676f727960a81b606482015260840161094a565b6000858152600a60205260408120818155906115c36001830182614627565b6115d1600283016000614661565b600382016000905560048201600090556005820160009055600682016000905560078201600090556008820160006116099190614661565b611617600983016000614661565b506000600a8201819055600b808301829055600c909201805460ff1916905587815260209182526040808220805482518186028101860190935280835292939192909183018282801561168957602002820191906000526020600020905b815481526020019060010190808311611675575b5050505050905060005b815181101561177357868282815181106116af576116af61585f565b602002602001015103611761576000888152600b6020526040902082516116d890600190615875565b815481106116e8576116e861585f565b90600052602060002001546000600b0160008a8152602001908152602001600020828154811061171a5761171a61585f565b6000918252602080832090910192909255898152600b9091526040902080548061174657611746615888565b60019003818190600052602060002001600090559055611773565b8061176b81615846565b915050611693565b5060408051888152602081018890527ff67e86d3ffc2c26729aac7f4e3e07e009ad076ace7cd9e9fc184fd452ac0cc8591015b60405180910390a150505050505050565b60006117c282613793565b6117de5760405162461bcd60e51b815260040161094a9061589e565b5060009081526009602052604090206002015461010090046001600160401b031690565b610bc383838360405180602001604052806000815250612ce8565b600061182882613793565b6118445760405162461bcd60e51b815260040161094a9061589e565b50600090815260096020526040902060020154600160481b90046001600160401b031690565b82611875848461143e565b61187f8282613ab2565b61188a858585613abd565b5050505050565b8361189b81613793565b6118b75760405162461bcd60e51b815260040161094a90615496565b6000848152600a60205260408120548591036118e55760405162461bcd60e51b815260040161094a9061554a565b6000858152600a60205260409020600701548690869082146119195760405162461bcd60e51b815260040161094a90615581565b6000868152600d602052604090205487908790821461194a5760405162461bcd60e51b815260040161094a906158d0565b6001600160a01b0387166119aa5760405162461bcd60e51b815260206004820152602160248201527f4576656e743a204163636f756e742063616e27742062652030206164647265736044820152607360f81b606482015260840161094a565b6119b68a600033610ceb565b806119d557506119d58a600080516020615d0d83398151915233610ceb565b6119f15760405162461bcd60e51b815260040161094a906154cc565b604080518b8152602081018b90529081018990526001600160a01b03881660608201523360808201527f46e932e62718185837307db095ce63393945a0c6881343f8d0956044ac2cba529060a00160405180910390a150505050505050505050565b604051600080516020615cad83398151915290600090a1505050505050565b82611a7c81613793565b611a985760405162461bcd60e51b815260040161094a90615496565b6000838152600a6020526040812054849103611ac65760405162461bcd60e51b815260040161094a9061554a565b6000848152600a6020526040902060070154859085908214611afa5760405162461bcd60e51b815260040161094a90615581565b6000858152600d6020526040902054869086908214611b2b5760405162461bcd60e51b815260040161094a906158d0565b611b3789600033610ceb565b80611b565750611b5689600080516020615d0d83398151915233610ceb565b80611b755750611b7589600080516020615ced83398151915233610ceb565b611b915760405162461bcd60e51b815260040161094a906154cc565b604080518a8152602081018a90529081018890523360608201527f2dcc6bceb950de206af8457a1b2083cbb47b6b70918a66be78ab4d128fee79f09060800160405180910390a1505050505050505050565b80611bed81613793565b611c095760405162461bcd60e51b815260040161094a90615496565b611c1582600033610ceb565b611c315760405162461bcd60e51b815260040161094a906155ca565b6000828152600b6020908152604080832080548251818502810185019093528083529192909190830182828015611c8757602002820191906000526020600020905b815481526020019060010190808311611c73575b505050505090506000805b8251811015611cf8576000600a016000848381518110611cb457611cb461585f565b6020026020010151815260200190815260200160002060020180549050600003611ce65781611ce281615846565b9250505b80611cf081615846565b915050611c92565b5080825114611d595760405162461bcd60e51b815260206004820152602760248201527f4576656e743a204576656e74206d757374206e6f74206861766520736f6c64206044820152667469636b65747360c81b606482015260840161094a565b611d6284613b7e565b600084815260096020908152604080832080546001600160a01b03191681556001810184905560020180546001600160881b0319169055600b9091528120611da991614661565b60005b825181101561188a576000600a016000848381518110611dce57611dce61585f565b60200260200101518152602001908152602001600020600080820160009055600182016000611dfd9190614627565b611e0b600283016000614661565b60038201600090556004820160009055600582016000905560068201600090556007820160009055600882016000611e439190614661565b611e51600983016000614661565b506000600a8201819055600b820155600c01805460ff1916905580611e7581615846565b915050611dac565b6000818152600260205260408120546001600160a01b03168061145c5760405162461bcd60e51b815260040161094a9061591d565b82611ebc81613793565b611ed85760405162461bcd60e51b815260040161094a90615496565b611ee484600033610ceb565b611f005760405162461bcd60e51b815260040161094a906155ca565b600080516020615ccd8339815191528303611f5d5760405162461bcd60e51b815260206004820152601d60248201527f4576656e743a2043616e27742073657420636173686965722068657265000000604482015260640161094a565b611f68848484613773565b50505050565b60006001600160a01b038216611fd85760405162461bcd60e51b815260206004820152602960248201527f4552433732313a2061646472657373207a65726f206973206e6f7420612076616044820152683634b21037bbb732b960b91b606482015260840161094a565b506001600160a01b031660009081526003602052604090205490565b6001600160a01b03811633146120625760405162461bcd60e51b815260206004820152602d60248201527f526f6c65436f6e74726f6c3a2063616e206f6e6c792072656e6f756e6365207260448201526c37b632b9903337b91039b2b63360991b606482015260840161094a565b610bc3838383613abd565b8b61207781613793565b6120935760405162461bcd60e51b815260040161094a90615496565b61209f8d600033610ceb565b806120be57506120be8d600080516020615d0d83398151915233610ceb565b6120da5760405162461bcd60e51b815260040161094a906154cc565b8483146120f95760405162461bcd60e51b815260040161094a9061564f565b612107600880546001019055565b600061211260085490565b6000818152600a602052604090208181559091506001016121348d8f8361594f565b506040805160008082526020808301808552858352600a9091529290209051612163926002909201919061467f565b506000818152600a60205260409020600481018a9055600781018f9055600381018990556121959060080188886145dc565b506000818152600a602052604090206121b29060090186866145dc565b506000818152600a602081905260409091208491016121de828281358155602082013560018201555050565b50508a1580156121ec575089155b1561221d576000818152600a60205260409020600581018c9055600681018b9055600c01805460ff191690556123a6565b8a60000361223f576000818152600a60205260409020426005909101556122d3565b60008e81526009602052604090206002015461010090046001600160401b03168b10156122be5760405162461bcd60e51b815260206004820152602760248201527f4576656e743a2043617465676f7279207374617274206461746520697320696e60448201526618dbdc9c9958dd60ca1b606482015260840161094a565b6000818152600a602052604090206005018b90555b896000036122f5576000818152600a6020526040902042600690910155612389565b60008e815260096020526040902060020154600160481b90046001600160401b03168a11156123745760405162461bcd60e51b815260206004820152602560248201527f4576656e743a2043617465676f727920656e64206461746520697320696e636f6044820152641c9c9958dd60da1b606482015260840161094a565b6000818152600a602052604090206006018a90555b6000818152600a60205260409020600c01805460ff191660011790555b6000600b0160008f81526020019081526020016000208190806001815401808255809150506001900390600052602060002001600090919091909150557f2a94cd6b8e4219d087c43453e983d276c11f9ba16e547f01adb19edb60ae3c7d8e828f8f6040516124189493929190615a08565b60405180910390a15050505050505050505050505050565b606060006001018054610a0990615516565b61244d338383613c3a565b5050565b8261245b81613793565b6124775760405162461bcd60e51b815260040161094a90615496565b6000838152600a60205260408120548491036124a55760405162461bcd60e51b815260040161094a9061554a565b6000848152600a60205260409020600701548590859082146124d95760405162461bcd60e51b815260040161094a90615581565b6124e587600033610ceb565b80612504575061250487600080516020615d0d83398151915233610ceb565b6125205760405162461bcd60e51b815260040161094a906154cc565b6000868152600a6020908152604091829020600c01805460ff191688151590811790915582518a8152918201899052918101919091527f15fa4fe87d07b2a02e02cc0fac2981a3fd8653661340b9b26feae8ffefaade8a906060016117a6565b60608161258c81613793565b6125a85760405162461bcd60e51b815260040161094a90615496565b6000838152600b60209081526040808320805482518185028101850190935280835291929091908301828280156125fe57602002820191906000526020600020905b8154815260200190600101908083116125ea575b50505050509050600081516001600160401b03811115612620576126206149b3565b60405190808252806020026020018201604052801561265957816020015b6126466146ba565b81526020019060019003908161263e5790505b50905060005b82518110156128d9576000600a0160008483815181106126815761268161585f565b6020026020010151815260200190815260200160002060405180610180016040529081600082015481526020016001820180546126bd90615516565b80601f01602080910402602001604051908101604052809291908181526020018280546126e990615516565b80156127365780601f1061270b57610100808354040283529160200191612736565b820191906000526020600020905b81548152906001019060200180831161271957829003601f168201915b505050505081526020016002820180548060200260200160405190810160405280929190818152602001828054801561278e57602002820191906000526020600020905b81548152602001906001019080831161277a575b5050505050815260200160038201548152602001600482015481526020016005820154815260200160068201548152602001600782015481526020016008820180548060200260200160405190810160405280929190818152602001828054801561281857602002820191906000526020600020905b815481526020019060010190808311612804575b505050505081526020016009820180548060200260200160405190810160405280929190818152602001828054801561287057602002820191906000526020600020905b81548152602001906001019080831161285c575b5050509183525050604080518082018252600a8401548152600b840154602082810191909152830152600c9092015460ff16151591015282518390839081106128bb576128bb61585f565b602002602001018190525080806128d190615846565b91505061265f565b509250505b50919050565b6002601254036129365760405162461bcd60e51b815260206004820152601f60248201527f5265656e7472616e637947756172643a207265656e7472616e742063616c6c00604482015260640161094a565b60026012556001600160401b03808416908316116129915760405162461bcd60e51b8152602060048201526018602482015277455243353030373a20496e76616c696420656e6454696d6560401b604482015260640161094a565b61299f600780546001019055565b60006129aa60075490565b6000818152600960205260409081902080546001600160a01b0319163317815560018082018990556002820180546001600160401b03898116600160481b02600160481b600160881b0319918c16610100026001600160481b031990931692909217909317929092169190911790559051919250907f9ce3d6db707bca4ba0eabed8fba1e2c013a1c0bc1132a764170a7854d198c73d90612a4e9084908690615a45565b60405180910390a1612a6282600033613d04565b612a7b82600080516020615d0d83398151915233613d04565b612a9482600080516020615c8d83398151915233613d04565b612aad82600080516020615ced83398151915233613d04565b612ac682600080516020615ccd83398151915233613d04565b612ad03383613e08565b612ada8284613846565b5050600160125550505050565b60606000612af460075490565b905060008060015b838111612b6357612b0f81600033610ceb565b80612b2e5750612b2e81600080516020615d0d83398151915233610ceb565b8015612b3e5750612b3e81613793565b15612b515782612b4d81615846565b9350505b80612b5b81615846565b915050612afc565b506000826001600160401b03811115612b7e57612b7e6149b3565b604051908082528060200260200182016040528015612ba7578160200160208202803683370190505b50905060015b84811161143557612bc081600033610ceb565b80612bdf5750612bdf81600080516020615d0d83398151915233610ceb565b8015612bef5750612bef81613793565b15612c205780828481518110612c0757612c0761585f565b602090810291909101015282612c1c81615846565b9350505b80612c2a81615846565b915050612bad565b82612c3c81613793565b612c585760405162461bcd60e51b815260040161094a90615496565b612c6484600033610ceb565b612c805760405162461bcd60e51b815260040161094a906155ca565b600080516020615ccd8339815191528303612cdd5760405162461bcd60e51b815260206004820181905260248201527f4576656e743a2043616e27742072656d6f766520636173686965722068657265604482015260640161094a565b611f6884848461186a565b612cf233836138ca565b612d0e5760405162461bcd60e51b815260040161094a90615601565b611f6884848484613f28565b6060612d25826137b0565b60008281526006602052604081208054612d3e90615516565b80601f0160208091040260200160405190810160405280929190818152602001828054612d6a90615516565b8015612db75780601f10612d8c57610100808354040283529160200191612db7565b820191906000526020600020905b815481529060010190602001808311612d9a57829003601f168201915b505050505090506000612dd560408051602081019091526000815290565b90508051600003612de7575092915050565b815115612e19578082604051602001612e01929190615a5e565b60405160208183030381529060405292505050919050565b6000815111612e375760405180602001604052806000815250612e52565b80612e4185613f5b565b604051602001612e01929190615a5e565b949350505050565b82612e6481613793565b612e805760405162461bcd60e51b815260040161094a90615496565b6000838152600a6020526040812054849103612eae5760405162461bcd60e51b815260040161094a9061554a565b6000848152600a6020526040902060070154859085908214612ee25760405162461bcd60e51b815260040161094a90615581565b6000858152600d6020526040902054869086908214612f135760405162461bcd60e51b815260040161094a906158d0565b505050505050505050565b82612f2881613793565b612f445760405162461bcd60e51b815260040161094a90615496565b6000838152600a6020526040812054849103612f725760405162461bcd60e51b815260040161094a9061554a565b6000848152600a6020526040902060070154859085908214612fa65760405162461bcd60e51b815260040161094a90615581565b612fb287600033610ceb565b80612fd15750612fd187600080516020615d0d83398151915233610ceb565b612fed5760405162461bcd60e51b815260040161094a906154cc565b6000868152600a60205260408120600401805487929061300e908490615a8d565b90915550506040517f3a50fbe2fa0bdf2022fcd8fe2132970519fcf4df5cf97d78e86c510eb0805b6a906117a690899089908990615aa0565b8261305181613793565b61306d5760405162461bcd60e51b815260040161094a90615496565b61307984600033610ceb565b80613098575061309884600080516020615d0d83398151915233610ceb565b611f685760405162461bcd60e51b815260040161094a906154cc565b6001600160a01b03918216600090815260056020908152604080832093909416825291909152205460ff1690565b86851480156130f057508483145b80156130fb57508281145b6131535760405162461bcd60e51b8152602060048201526024808201527f4576656e7446616365743a20506172616d6574657273206c656e677468206e6f6044820152637420657160e01b606482015260840161094a565b6000805b8881101561329f578989828181106131715761317161585f565b60400291909101359050600a60008c8c858181106131915761319161585f565b90506040020160200135815260200190815260200160002060070154146131ca5760405162461bcd60e51b815260040161094a90615581565b8787828181106131dc576131dc61585f565b905060400201602001356000600a0160008c8c858181106131ff576131ff61585f565b90506040020160200135815260200190815260200160002060030154146132645760405162461bcd60e51b81526020600482015260196024820152784576656e743a2057726f6e67207469636b657420707269636560381b604482015260640161094a565b8787828181106132765761327661585f565b905060400201602001358261328b9190615a8d565b91508061329781615846565b915050613157565b503481146132fb5760405162461bcd60e51b815260206004820152602360248201527f4576656e743a204d73672076616c7565206e6f7420657120746f74616c20707260448201526269636560e81b606482015260840161094a565b60005b8881101561341a57600061332c87878481811061331d5761331d61585f565b9050604002016000013561405b565b6133508888858181106133415761334161585f565b9050604002016020013561405b565b604051602001613361929190615a5e565b60408051601f198184030181529190529050600c60008c8c858181106133895761338961585f565b905060400201600001358152602001908152602001600020816040516133af9190615ab6565b9081526040519081900360200190205460ff16156134075760405162461bcd60e51b815260206004820152601560248201527422bb32b73a1d10283630b1b29034b9903a30b5b2b760591b604482015260640161094a565b508061341281615846565b9150506132fe565b50604051600080516020615cad83398151915290600090a1505050505050505050565b8261344781613793565b6134635760405162461bcd60e51b815260040161094a90615496565b6000838152600a60205260408120548491036134915760405162461bcd60e51b815260040161094a9061554a565b6000848152600a60205260409020600701548590859082146134c55760405162461bcd60e51b815260040161094a90615581565b6134d187600033610ceb565b806134f057506134f087600080516020615d0d83398151915233610ceb565b61350c5760405162461bcd60e51b815260040161094a906154cc565b6000868152600a60205260409020600401548511156135795760405162461bcd60e51b815260206004820152602360248201527f4576656e743a20446563726561736564207469636b6574732062656c6f77207a60448201526265726f60e81b606482015260840161094a565b6000868152600a6020526040902060040154613596908690615875565b6000878152600a602052604090206002015411156136145760405162461bcd60e51b815260206004820152603560248201527f4576656e743a205469636b65747320616d6f756e742063616e2774206265206c604482015274657373207468616e20736f6c64207469636b65747360581b606482015260840161094a565b6000868152600a602052604081206004018054879290613635908490615875565b90915550506040517fb39ecd9af22a3fec10ec63455a79d572fdcfadf6a9005d5cd232b2829f958c70906117a690899089908990615aa0565b6060600061367b60075490565b905060008060015b8381116136c7576000818152600960205260409020546001600160a01b0316156136b557826136b181615846565b9350505b806136bf81615846565b915050613683565b506000826001600160401b038111156136e2576136e26149b3565b60405190808252806020026020018201604052801561370b578160200160208202803683370190505b50905060015b848111611435576000818152600960205260409020546001600160a01b03161561376157808284815181106137485761374861585f565b60209081029190910101528261375d81615846565b9350505b8061376b81615846565b915050613711565b8261377e848461143e565b6137888282613ab2565b61188a858585613d04565b6000908152600260205260409020546001600160a01b0316151590565b6137b981613793565b6137d55760405162461bcd60e51b815260040161094a9061591d565b50565b600081815260046020526040902080546001600160a01b0319166001600160a01b038416908117909155819061380d82611e7d565b6001600160a01b03167f8c5be1e5ebec7d5bd14f71427d1e84f3dd0314c0f7b2291e5b200ac8c7c3b92560405160405180910390a45050565b61384f82613793565b6138b25760405162461bcd60e51b815260206004820152602e60248201527f45524337323155524953746f726167653a2055524920736574206f66206e6f6e60448201526d32bc34b9ba32b73a103a37b5b2b760911b606482015260840161094a565b6000828152600660205260409020610bc382826156fa565b6000806138d683611e7d565b9050806001600160a01b0316846001600160a01b031614806138fd57506138fd81856130b4565b80612e525750836001600160a01b031661391684610a8c565b6001600160a01b031614949350505050565b826001600160a01b031661393b82611e7d565b6001600160a01b03161461399f5760405162461bcd60e51b815260206004820152602560248201527f4552433732313a207472616e736665722066726f6d20696e636f72726563742060448201526437bbb732b960d91b606482015260840161094a565b6001600160a01b038216613a015760405162461bcd60e51b8152602060048201526024808201527f4552433732313a207472616e7366657220746f20746865207a65726f206164646044820152637265737360e01b606482015260840161094a565b613a0c6000826137d8565b6001600160a01b0383166000908152600360205260408120805460019290613a35908490615875565b90915550506001600160a01b0382166000908152600360205260408120805460019290613a63908490615a8d565b909155505060008181526002602052604080822080546001600160a01b0319166001600160a01b038681169182179092559151849391871691600080516020615d2d83398151915291a4505050565b61244d82823361415b565b613ac8838383610ceb565b15610bc3576000838152600f6020908152604080832085845282528083206001600160a01b03851684528252808320805460ff191690556011909152902054613b1184826141bf565b6001600160a01b038216600090815260116020526040812055336001600160a01b0316826001600160a01b0316847f7b00293d63517946aeba2f56c6b4c5dec87b67393ac48520994d3d8ce776335a87604051613b7091815260200190565b60405180910390a450505050565b6000613b8982611e7d565b9050613b966000836137d8565b6001600160a01b0381166000908152600360205260408120805460019290613bbf908490615875565b909155505060008281526002602052604080822080546001600160a01b0319169055518391906001600160a01b03841690600080516020615d2d833981519152908390a460008281526006602052604090208054613c1c90615516565b15905061244d57600082815260066020526040812061244d91614627565b816001600160a01b0316836001600160a01b031603613c975760405162461bcd60e51b815260206004820152601960248201527822a9219b99189d1030b8383937bb32903a379031b0b63632b960391b604482015260640161094a565b6001600160a01b03838116600081815260056020908152604080832094871680845294825291829020805460ff191686151590811790915591519182527f17307eab39ab6107e8899845ad3d59bd9653f200f220920489ca2b5937696c31910160405180910390a3505050565b613d0f838383610ceb565b610bc3576000838152600f6020908152604080832085845282528083206001600160a01b03858116808652918452828520805460ff19166001908117909155835180850185529283528285018881528987526010865293862080548083018255818852958720845160029097020180546001600160a01b03191696909316959095178255925190830155928690529054613da99190615875565b6001600160a01b038316600090815260116020526040902055336001600160a01b0316826001600160a01b0316847fd9dfff7752b7a810e2b646c0c96b76bc9ed817f6c6f7848bbe68163f7e8b437887604051613b7091815260200190565b6001600160a01b038216613e5e5760405162461bcd60e51b815260206004820181905260248201527f4552433732313a206d696e7420746f20746865207a65726f2061646472657373604482015260640161094a565b613e6781613793565b15613eb35760405162461bcd60e51b815260206004820152601c60248201527b115490cdcc8c4e881d1bdad95b88185b1c9958591e481b5a5b9d195960221b604482015260640161094a565b6001600160a01b0382166000908152600360205260408120805460019290613edc908490615a8d565b909155505060008181526002602052604080822080546001600160a01b0319166001600160a01b0386169081179091559051839290600080516020615d2d833981519152908290a45050565b613f33848484613928565b613f3f848484846142a2565b611f685760405162461bcd60e51b815260040161094a90615ad2565b606081600003613f825750506040805180820190915260018152600360fc1b602082015290565b8160005b8115613fac5780613f9681615846565b9150613fa59050600a83615b3a565b9150613f86565b6000816001600160401b03811115613fc657613fc66149b3565b6040519080825280601f01601f191660200182016040528015613ff0576020820181803683370190505b5090505b8415612e5257614005600183615875565b9150614012600a86615b4e565b61401d906030615a8d565b60f81b8183815181106140325761403261585f565b60200101906001600160f81b031916908160001a905350614054600a86615b3a565b9450613ff4565b6060816000036140825750506040805180820190915260018152600360fc1b602082015290565b8160005b81156140ac578061409681615846565b91506140a59050600a83615b3a565b9150614086565b6000816001600160401b038111156140c6576140c66149b3565b6040519080825280601f01601f1916602001820160405280156140f0576020820181803683370190505b5090505b8415612e5257614105600183615875565b9150614112600a86615b4e565b61411d906030615a8d565b60f81b8183815181106141325761413261585f565b60200101906001600160f81b031916908160001a905350614154600a86615b3a565b94506140f4565b614166838383610ceb565b610bc357614173816143a3565b61417e8360206143b5565b61418785614557565b60405160200161419993929190615b62565b60408051601f198184030181529082905262461bcd60e51b825261094a9160040161480f565b600082815260106020526040902080546141db90600190615875565b815481106141eb576141eb61585f565b906000526020600020906002020160106000848152602001908152602001600020828154811061421d5761421d61585f565b60009182526020808320845460029093020180546001600160a01b0319166001600160a01b03909316929092178255600193840154939091019290925583815260109091526040902080548061427557614275615888565b60008281526020812060026000199093019283020180546001600160a01b03191681556001015590555050565b60006001600160a01b0384163b1561439857604051630a85bd0160e11b81526001600160a01b0385169063150b7a02906142e6903390899088908890600401615c04565b6020604051808303816000875af1925050508015614321575060408051601f3d908101601f1916820190925261431e91810190615c41565b60015b61437e573d80801561434f576040519150601f19603f3d011682016040523d82523d6000602084013e614354565b606091505b5080516000036143765760405162461bcd60e51b815260040161094a90615ad2565b805181602001fd5b6001600160e01b031916630a85bd0160e11b149050612e52565b506001949350505050565b606061145c6001600160a01b03831660145b606060006143c4836002615c5e565b6143cf906002615a8d565b6001600160401b038111156143e6576143e66149b3565b6040519080825280601f01601f191660200182016040528015614410576020820181803683370190505b509050600360fc1b8160008151811061442b5761442b61585f565b60200101906001600160f81b031916908160001a905350600f60fb1b8160018151811061445a5761445a61585f565b60200101906001600160f81b031916908160001a905350600061447e846002615c5e565b614489906001615a8d565b90505b6001811115614501576f181899199a1a9b1b9c1cb0b131b232b360811b85600f16601081106144bd576144bd61585f565b1a60f81b8282815181106144d3576144d361585f565b60200101906001600160f81b031916908160001a90535060049490941c936144fa81615c75565b905061448c565b5083156145505760405162461bcd60e51b815260206004820181905260248201527f537472696e67733a20686578206c656e67746820696e73756666696369656e74604482015260640161094a565b9392505050565b6060816000036145815750506040805180820190915260048152630307830360e41b602082015290565b8160005b81156145a4578061459581615846565b915050600882901c9150614585565b612e5284826143b5565b6040805160a08101825260008082526020820181905291810182905260608101829052608081019190915290565b828054828255906000526020600020908101928215614617579160200282015b828111156146175782358255916020019190600101906145fc565b50614623929150614736565b5090565b50805461463390615516565b6000825580601f10614643575050565b601f0160209004906000526020600020908101906137d59190614736565b50805460008255906000526020600020908101906137d59190614736565b828054828255906000526020600020908101928215614617579160200282015b8281111561461757825182559160200191906001019061469f565b60405180610180016040528060008152602001606081526020016060815260200160008152602001600081526020016000815260200160008152602001600081526020016060815260200160608152602001614729604051806040016040528060008152602001600081525090565b8152600060209091015290565b5b808211156146235760008155600101614737565b6001600160e01b0319811681146137d557600080fd5b60006020828403121561477357600080fd5b81356145508161474b565b8035801515811461478e57600080fd5b919050565b600080604083850312156147a657600080fd5b823591506147b66020840161477e565b90509250929050565b60005b838110156147da5781810151838201526020016147c2565b50506000910152565b600081518084526147fb8160208601602086016147bf565b601f01601f19169290920160200192915050565b60208152600061455060208301846147e3565b60006020828403121561483457600080fd5b5035919050565b80356001600160a01b038116811461478e57600080fd5b6000806040838503121561486557600080fd5b61486e8361483b565b946020939093013593505050565b80516001600160a01b03168252602080820151908301526040808201511515908301526060808201516001600160401b039081169184019190915260809182015116910152565b60a0810161145c828461487c565b602080825282518282018190526000919060409081850190868401855b8281101561491c57815180516001600160a01b031685528601518685015292840192908501906001016148ee565b5091979650505050505050565b60008060006060848603121561493e57600080fd5b83359250602084013591506149556040850161483b565b90509250925092565b6000806000806080858703121561497457600080fd5b5050823594602084013594506040840135936060013592509050565b600080604083850312156149a357600080fd5b823591506147b66020840161483b565b634e487b7160e01b600052604160045260246000fd5b604051601f8201601f191681016001600160401b03811182821017156149f1576149f16149b3565b604052919050565b60006001600160401b03831115614a1257614a126149b3565b614a25601f8401601f19166020016149c9565b9050828152838383011115614a3957600080fd5b828260208301376000602084830101529392505050565b600082601f830112614a6157600080fd5b614550838335602085016149f9565b60008060408385031215614a8357600080fd5b8235915060208301356001600160401b03811115614aa057600080fd5b614aac85828601614a50565b9150509250929050565b600080600060608486031215614acb57600080fd5b614ad48461483b565b9250614ae26020850161483b565b9150604084013590509250925092565b60008083601f840112614b0457600080fd5b5081356001600160401b03811115614b1b57600080fd5b6020830191508360208260051b8501011115614b3657600080fd5b9250929050565b6000604082840312156128de57600080fd5b60008060008060008060008060006101008a8c031215614b6e57600080fd5b8935985060208a0135975060408a01356001600160401b0380821115614b9357600080fd5b614b9f8d838e01614a50565b985060608c0135975060808c0135915080821115614bbc57600080fd5b614bc88d838e01614af2565b909750955060a08c0135915080821115614be157600080fd5b50614bee8c828d01614af2565b9094509250614c0290508b60c08c01614b3d565b90509295985092959850929598565b60006001600160401b0380841115614c2b57614c2b6149b3565b6020614c3b818660051b016149c9565b8581529250808301600686901b850187811115614c5757600080fd5b855b81811015614ca957604080828b031215614c735760008081fd5b80518181018181108882111715614c8c57614c8c6149b3565b909152813581528482013585820152835291830191604001614c59565b50505050509392505050565b600082601f830112614cc657600080fd5b61455083833560208501614c11565b600080600080600080600060a0888a031215614cf057600080fd5b873596506020880135955060408801356001600160401b0380821115614d1557600080fd5b614d218b838c01614af2565b909750955060608a0135915080821115614d3a57600080fd5b614d468b838c01614cb5565b945060808a0135915080821115614d5c57600080fd5b50614d698a828b01614af2565b989b979a50959850939692959293505050565b6020808252825182820181905260009190848201906040850190845b81811015614dbe57614dab83855161487c565b9284019260a09290920191600101614d98565b50909695505050505050565b60008060408385031215614ddd57600080fd5b50508035926020909101359150565b60008060008060808587031215614e0257600080fd5b843593506020850135925060408501359150614e206060860161483b565b905092959194509250565b60008060008060008060a08789031215614e4457600080fd5b863595506020870135945060408701356001600160401b0380821115614e6957600080fd5b818901915089601f830112614e7d57600080fd5b614e8c8a833560208501614c11565b95506060890135915080821115614ea257600080fd5b614eae8a838b01614cb5565b94506080890135915080821115614ec457600080fd5b50614ed189828a01614af2565b979a9699509497509295939492505050565b600080600060608486031215614ef857600080fd5b505081359360208301359350604090920135919050565b600060208284031215614f2157600080fd5b6145508261483b565b60008083601f840112614f3c57600080fd5b5081356001600160401b03811115614f5357600080fd5b602083019150836020828501011115614b3657600080fd5b6000806000806000806000806000806000806101408d8f031215614f8e57600080fd5b8c359b506001600160401b0360208e01351115614faa57600080fd5b614fba8e60208f01358f01614f2a565b909b50995060408d0135985060608d0135975060808d0135965060a08d013595506001600160401b0360c08e01351115614ff357600080fd5b6150038e60c08f01358f01614af2565b90955093506001600160401b0360e08e0135111561502057600080fd5b6150308e60e08f01358f01614af2565b90935091506150438e6101008f01614b3d565b90509295989b509295989b509295989b565b6000806040838503121561506857600080fd5b6150718361483b565b91506147b66020840161477e565b60008060006060848603121561509457600080fd5b83359250602084013591506149556040850161477e565b600081518084526020808501945080840160005b838110156150db578151875295820195908201906001016150bf565b509495945050505050565b60006020808301818452808551808352604092508286019150828160051b87010184880160005b8381101561520c57603f1989840301855281516101a08151855288820151818a87015261513c828701826147e3565b915050878201518582038987015261515482826150ab565b606084810151908801526080808501519088015260a0808501519088015260c0808501519088015260e0808501519088015261010080850151888303828a015291935091506151a383826150ab565b9250505061012080830151868303828801526151bf83826150ab565b92505050610140808301516151e08288018280518252602090810151910152565b505061016082015191506151f961018086018315159052565b958801959350509086019060010161510d565b509098975050505050505050565b80356001600160401b038116811461478e57600080fd5b6000806000806080858703121561524757600080fd5b843593506152576020860161521a565b92506152656040860161521a565b915060608501356001600160401b0381111561528057600080fd5b61528c87828801614a50565b91505092959194509250565b60208152600061455060208301846150ab565b600080600080608085870312156152c157600080fd5b6152ca8561483b565b93506152d86020860161483b565b92506040850135915060608501356001600160401b038111156152fa57600080fd5b8501601f8101871361530b57600080fd5b61528c878235602084016149f9565b60008083601f84011261532c57600080fd5b5081356001600160401b0381111561534357600080fd5b6020830191508360208260061b8501011115614b3657600080fd5b60008060006040848603121561537357600080fd5b8335925060208401356001600160401b0381111561539057600080fd5b61539c8682870161531a565b9497909650939450505050565b600080604083850312156153bc57600080fd5b6153c58361483b565b91506147b66020840161483b565b6000806000806000806000806080898b0312156153ef57600080fd5b88356001600160401b038082111561540657600080fd5b6154128c838d0161531a565b909a50985060208b013591508082111561542b57600080fd5b6154378c838d0161531a565b909850965060408b013591508082111561545057600080fd5b61545c8c838d0161531a565b909650945060608b013591508082111561547557600080fd5b506154828b828c01614af2565b999c989b5096995094979396929594505050565b6020808252601c908201527b4576656e743a204576656e7420646f6573206e6f742065786973742160201b604082015260600190565b6020808252602a908201527f4576656e743a2043616c6c6572206973206e6f7420616e2061646d696e206f726040820152691036b7b232b930ba37b960b11b606082015260800190565b600181811c9082168061552a57607f821691505b6020821081036128de57634e487b7160e01b600052602260045260246000fd5b6020808252601f908201527f4576656e743a2043617465676f727920646f6573206e6f742065786973742100604082015260600190565b60208082526029908201527f4576656e743a20546869732063617465676f727920697320666f7220616e6f746040820152681a195c88195d995b9d60ba1b606082015260800190565b6020808252601d908201527f4576656e743a2043616c6c6572206973206e6f7420616e2061646d696e000000604082015260600190565b6020808252602e908201527f4552433732313a2063616c6c6572206973206e6f7420746f6b656e206f776e6560408201526d1c881b9bdc88185c1c1c9bdd995960921b606082015260800190565b60208082526028908201527f4576656e743a20446973636f756e7420706172616d6574657273206c656e677460408201526768206e6f7420657160c01b606082015260800190565b601f821115610bc357600081815260208120601f850160051c810160208610156156be5750805b601f850160051c820191505b818110156156dd578281556001016156ca565b505050505050565b600019600383901b1c191660019190911b1790565b81516001600160401b03811115615713576157136149b3565b615727816157218454615516565b84615697565b602080601f83116001811461575657600084156157445750858301515b61574e85826156e5565b8655506156dd565b600085815260208120601f198616915b8281101561578557888601518255948401946001909101908401615766565b50858210156157a35787850151600019600388901b60f8161c191681555b5050505050600190811b01905550565b600060a082018883526020888185015287604085015260a060608501528186835260c08501905087925060005b8781101561580c576001600160a01b036157f98561483b565b16825292820192908201906001016157e0565b506001600160a01b0395909516608094909401939093525091979650505050505050565b634e487b7160e01b600052601160045260246000fd5b60006001820161585857615858615830565b5060010190565b634e487b7160e01b600052603260045260246000fd5b8181038181111561145c5761145c615830565b634e487b7160e01b600052603160045260246000fd5b602080825260189082015277115490cd4c0c0dce88125b9d985b1a59081d1bdad95b925960421b604082015260600190565b6020808252602d908201527f4576656e743a205469636b657420646f65736e27742065786973747320696e2060408201526c746869732063617465676f727960981b606082015260800190565b602080825260189082015277115490cdcc8c4e881a5b9d985b1a59081d1bdad95b88125160421b604082015260600190565b6001600160401b03831115615966576159666149b3565b61597a836159748354615516565b83615697565b6000601f8411600181146159a857600085156159965750838201355b6159a086826156e5565b84555061188a565b600083815260209020601f19861690835b828110156159d957868501358255602094850194600190920191016159b9565b50868210156159f65760001960f88860031b161c19848701351681555b505060018560011b0183555050505050565b84815283602082015260606040820152816060820152818360808301376000818301608090810191909152601f909201601f191601019392505050565b828152604060208201526000612e5260408301846147e3565b60008351615a708184602088016147bf565b835190830190615a848183602088016147bf565b01949350505050565b8082018082111561145c5761145c615830565b9283526020830191909152604082015260600190565b60008251615ac88184602087016147bf565b9190910192915050565b60208082526032908201527f4552433732313a207472616e7366657220746f206e6f6e20455243373231526560408201527131b2b4bb32b91034b6b83632b6b2b73a32b960711b606082015260800190565b634e487b7160e01b600052601260045260246000fd5b600082615b4957615b49615b24565b500490565b600082615b5d57615b5d615b24565b500690565b7402937b632a1b7b73a3937b61d1030b1b1b7bab73a1605d1b815260008451615b928160158501602089016147bf565b7001034b99036b4b9b9b4b733903937b6329607d1b6015918401918201528451615bc38160268401602089016147bf565b720103337b91032bb32b73a103bb4ba341034b21606d1b602692909101918201528351615bf78160398401602088016147bf565b0160390195945050505050565b6001600160a01b0385811682528416602082015260408101839052608060608201819052600090615c37908301846147e3565b9695505050505050565b600060208284031215615c5357600080fd5b81516145508161474b565b808202811582820484141761145c5761145c615830565b600081615c8457615c84615830565b50600019019056fe21702c8af46127c7fa207f89d0b0a8441bb32959a0ac7df790e9ab1a25c989266443db67cd3ee076660075aeb7d4222012b3a4a713f0c3bfba2310a4c2f11737ff3317e1e0e8c784290b957ee9b65ea8fe96420c4819db463283b95ecbe4a3feb5a7f51d0593e853ad0aa6b718ee0bdd10c4966eb62d243b69d538e5823d040171f3d55856e4058ed06ee057d79ada615f65cdf5f9ee88181b914225088f834fddf252ad1be2c89b69c2b068fc378daa952ba7f163c4a11628f55a4df523b3efa264697066735822122064b261388921362bd2230a022ddb79b1bb5c6c2f67f2b1d88b05baa091afa67a64736f6c63430008110033",
  "linkReferences": {},
  "deployedLinkReferences": {}
}