{
  "_format": "hh-sol-artifact-1",
  "contractName": "EventFacet",
  "sourceName": "contracts/EventDiamond/facets/EventFacet.sol",
  "abi": [
    {
      "inputs": [
        {
          "internalType": "string",
          "name": "_name",
          "type": "string"
        },
        {
          "internalType": "string",
          "name": "_symbol",
          "type": "string"
        },
        {
          "internalType": "address",
          "name": "_ticketContract",
          "type": "address"
        }
      ],
      "stateMutability": "nonpayable",
      "type": "constructor"
    },
    {
      "anonymous": false,
      "inputs": [
        {
          "indexed": false,
          "internalType": "uint256",
          "name": "eventId",
          "type": "uint256"
        }
      ],
      "name": "AllCategorySellStarted",
      "type": "event"
    },
    {
      "anonymous": false,
      "inputs": [
        {
          "indexed": false,
          "internalType": "uint256",
          "name": "eventId",
          "type": "uint256"
        }
      ],
      "name": "AllCategorySellStopped",
      "type": "event"
    },
    {
      "anonymous": false,
      "inputs": [
        {
          "indexed": true,
          "internalType": "address",
          "name": "owner",
          "type": "address"
        },
        {
          "indexed": true,
          "internalType": "address",
          "name": "approved",
          "type": "address"
        },
        {
          "indexed": true,
          "internalType": "uint256",
          "name": "tokenId",
          "type": "uint256"
        }
      ],
      "name": "Approval",
      "type": "event"
    },
    {
      "anonymous": false,
      "inputs": [
        {
          "indexed": true,
          "internalType": "address",
          "name": "owner",
          "type": "address"
        },
        {
          "indexed": true,
          "internalType": "address",
          "name": "operator",
          "type": "address"
        },
        {
          "indexed": false,
          "internalType": "bool",
          "name": "approved",
          "type": "bool"
        }
      ],
      "name": "ApprovalForAll",
      "type": "event"
    },
    {
      "anonymous": false,
      "inputs": [
        {
          "indexed": false,
          "internalType": "uint256",
          "name": "_fromTokenId",
          "type": "uint256"
        },
        {
          "indexed": false,
          "internalType": "uint256",
          "name": "_toTokenId",
          "type": "uint256"
        }
      ],
      "name": "BatchMetadataUpdate",
      "type": "event"
    },
    {
      "anonymous": false,
      "inputs": [
        {
          "indexed": false,
          "internalType": "uint256",
          "name": "eventId",
          "type": "uint256"
        },
        {
          "indexed": false,
          "internalType": "uint256",
          "name": "categoryId",
          "type": "uint256"
        },
        {
          "indexed": false,
          "internalType": "string",
          "name": "categoryCid",
          "type": "string"
        }
      ],
      "name": "CategoryCreated",
      "type": "event"
    },
    {
      "anonymous": false,
      "inputs": [
        {
          "indexed": false,
          "internalType": "uint256",
          "name": "eventId",
          "type": "uint256"
        },
        {
          "indexed": false,
          "internalType": "uint256",
          "name": "categoryId",
          "type": "uint256"
        }
      ],
      "name": "CategoryDeleted",
      "type": "event"
    },
    {
      "anonymous": false,
      "inputs": [
        {
          "indexed": false,
          "internalType": "uint256",
          "name": "eventId",
          "type": "uint256"
        },
        {
          "indexed": false,
          "internalType": "uint256",
          "name": "categoryId",
          "type": "uint256"
        }
      ],
      "name": "CategorySellStarted",
      "type": "event"
    },
    {
      "anonymous": false,
      "inputs": [
        {
          "indexed": false,
          "internalType": "uint256",
          "name": "eventId",
          "type": "uint256"
        },
        {
          "indexed": false,
          "internalType": "uint256",
          "name": "categoryId",
          "type": "uint256"
        }
      ],
      "name": "CategorySellStopped",
      "type": "event"
    },
    {
      "anonymous": false,
      "inputs": [
        {
          "indexed": false,
          "internalType": "uint256",
          "name": "eventId",
          "type": "uint256"
        },
        {
          "indexed": false,
          "internalType": "uint256",
          "name": "categoryId",
          "type": "uint256"
        },
        {
          "indexed": false,
          "internalType": "uint256",
          "name": "ticketsCount",
          "type": "uint256"
        }
      ],
      "name": "CategoryTicketsAdded",
      "type": "event"
    },
    {
      "anonymous": false,
      "inputs": [
        {
          "indexed": false,
          "internalType": "uint256",
          "name": "eventId",
          "type": "uint256"
        },
        {
          "indexed": false,
          "internalType": "uint256",
          "name": "categoryId",
          "type": "uint256"
        },
        {
          "indexed": false,
          "internalType": "uint256",
          "name": "ticketsCount",
          "type": "uint256"
        }
      ],
      "name": "CategoryTicketsRemoved",
      "type": "event"
    },
    {
      "anonymous": false,
      "inputs": [
        {
          "indexed": false,
          "internalType": "uint256",
          "name": "eventId",
          "type": "uint256"
        },
        {
          "indexed": false,
          "internalType": "uint256",
          "name": "categoryId",
          "type": "uint256"
        }
      ],
      "name": "CategoryUpdated",
      "type": "event"
    },
    {
      "anonymous": false,
      "inputs": [
        {
          "indexed": true,
          "internalType": "uint256",
          "name": "fromTokenId",
          "type": "uint256"
        },
        {
          "indexed": false,
          "internalType": "uint256",
          "name": "toTokenId",
          "type": "uint256"
        },
        {
          "indexed": true,
          "internalType": "address",
          "name": "fromAddress",
          "type": "address"
        },
        {
          "indexed": true,
          "internalType": "address",
          "name": "toAddress",
          "type": "address"
        }
      ],
      "name": "ConsecutiveTransfer",
      "type": "event"
    },
    {
      "anonymous": false,
      "inputs": [
        {
          "indexed": false,
          "internalType": "uint256",
          "name": "eventId",
          "type": "uint256"
        },
        {
          "indexed": false,
          "internalType": "address",
          "name": "account",
          "type": "address"
        },
        {
          "indexed": false,
          "internalType": "address",
          "name": "setter",
          "type": "address"
        }
      ],
      "name": "EventCashierSet",
      "type": "event"
    },
    {
      "anonymous": false,
      "inputs": [
        {
          "indexed": false,
          "internalType": "uint256",
          "name": "eventId",
          "type": "uint256"
        },
        {
          "indexed": false,
          "internalType": "string",
          "name": "metadataUri",
          "type": "string"
        }
      ],
      "name": "EventCreated",
      "type": "event"
    },
    {
      "anonymous": false,
      "inputs": [
        {
          "indexed": false,
          "internalType": "uint256",
          "name": "_tokenId",
          "type": "uint256"
        }
      ],
      "name": "MetadataUpdate",
      "type": "event"
    },
    {
      "anonymous": false,
      "inputs": [
        {
          "indexed": false,
          "internalType": "uint256",
          "name": "eventId",
          "type": "uint256"
        },
        {
          "indexed": true,
          "internalType": "bytes32",
          "name": "role",
          "type": "bytes32"
        },
        {
          "indexed": true,
          "internalType": "bytes32",
          "name": "previousAdminRole",
          "type": "bytes32"
        },
        {
          "indexed": true,
          "internalType": "bytes32",
          "name": "newAdminRole",
          "type": "bytes32"
        }
      ],
      "name": "RoleAdminChanged",
      "type": "event"
    },
    {
      "anonymous": false,
      "inputs": [
        {
          "indexed": false,
          "internalType": "uint256",
          "name": "eventId",
          "type": "uint256"
        },
        {
          "indexed": true,
          "internalType": "bytes32",
          "name": "role",
          "type": "bytes32"
        },
        {
          "indexed": true,
          "internalType": "address",
          "name": "account",
          "type": "address"
        },
        {
          "indexed": true,
          "internalType": "address",
          "name": "sender",
          "type": "address"
        }
      ],
      "name": "RoleGranted",
      "type": "event"
    },
    {
      "anonymous": false,
      "inputs": [
        {
          "indexed": false,
          "internalType": "uint256",
          "name": "eventId",
          "type": "uint256"
        },
        {
          "indexed": true,
          "internalType": "bytes32",
          "name": "role",
          "type": "bytes32"
        },
        {
          "indexed": true,
          "internalType": "address",
          "name": "account",
          "type": "address"
        },
        {
          "indexed": true,
          "internalType": "address",
          "name": "sender",
          "type": "address"
        }
      ],
      "name": "RoleRevoked",
      "type": "event"
    },
    {
      "anonymous": false,
      "inputs": [
        {
          "indexed": false,
          "internalType": "uint256",
          "name": "eventId",
          "type": "uint256"
        },
        {
          "indexed": false,
          "internalType": "uint256",
          "name": "categoryId",
          "type": "uint256"
        },
        {
          "indexed": false,
          "internalType": "uint256",
          "name": "ticketId",
          "type": "uint256"
        },
        {
          "indexed": false,
          "internalType": "address",
          "name": "staffMember",
          "type": "address"
        }
      ],
      "name": "TicketClipped",
      "type": "event"
    },
    {
      "anonymous": false,
      "inputs": [
        {
          "indexed": false,
          "internalType": "uint256",
          "name": "eventId",
          "type": "uint256"
        },
        {
          "indexed": false,
          "internalType": "uint256",
          "name": "categoryId",
          "type": "uint256"
        },
        {
          "indexed": false,
          "internalType": "uint256",
          "name": "ticketCount",
          "type": "uint256"
        },
        {
          "indexed": false,
          "internalType": "address[]",
          "name": "accounts",
          "type": "address[]"
        },
        {
          "indexed": false,
          "internalType": "address",
          "name": "staffMember",
          "type": "address"
        }
      ],
      "name": "TicketsBooked",
      "type": "event"
    },
    {
      "anonymous": false,
      "inputs": [
        {
          "indexed": true,
          "internalType": "address",
          "name": "from",
          "type": "address"
        },
        {
          "indexed": true,
          "internalType": "address",
          "name": "to",
          "type": "address"
        },
        {
          "indexed": true,
          "internalType": "uint256",
          "name": "tokenId",
          "type": "uint256"
        }
      ],
      "name": "Transfer",
      "type": "event"
    },
    {
      "inputs": [],
      "name": "DEFAULT_ADMIN_ROLE",
      "outputs": [
        {
          "internalType": "bytes32",
          "name": "",
          "type": "bytes32"
        }
      ],
      "stateMutability": "view",
      "type": "function"
    },
    {
      "inputs": [],
      "name": "MODERATOR_ROLE",
      "outputs": [
        {
          "internalType": "bytes32",
          "name": "",
          "type": "bytes32"
        }
      ],
      "stateMutability": "view",
      "type": "function"
    },
    {
      "inputs": [],
      "name": "VALIDATOR_ROLE",
      "outputs": [
        {
          "internalType": "bytes32",
          "name": "",
          "type": "bytes32"
        }
      ],
      "stateMutability": "view",
      "type": "function"
    },
    {
      "inputs": [
        {
          "internalType": "uint256",
          "name": "_eventId",
          "type": "uint256"
        },
        {
          "internalType": "uint256",
          "name": "_categoryId",
          "type": "uint256"
        },
        {
          "internalType": "uint256",
          "name": "_ticketsCount",
          "type": "uint256"
        }
      ],
      "name": "addCategoryTicketsCount",
      "outputs": [],
      "stateMutability": "nonpayable",
      "type": "function"
    },
    {
      "inputs": [
        {
          "internalType": "uint256",
          "name": "_eventId",
          "type": "uint256"
        },
        {
          "internalType": "bytes32",
          "name": "_role",
          "type": "bytes32"
        },
        {
          "internalType": "address",
          "name": "_account",
          "type": "address"
        }
      ],
      "name": "addTeamMember",
      "outputs": [],
      "stateMutability": "nonpayable",
      "type": "function"
    },
    {
      "inputs": [
        {
          "internalType": "address",
          "name": "to",
          "type": "address"
        },
        {
          "internalType": "uint256",
          "name": "tokenId",
          "type": "uint256"
        }
      ],
      "name": "approve",
      "outputs": [],
      "stateMutability": "nonpayable",
      "type": "function"
    },
    {
      "inputs": [
        {
          "internalType": "address",
          "name": "owner",
          "type": "address"
        }
      ],
      "name": "balanceOf",
      "outputs": [
        {
          "internalType": "uint256",
          "name": "",
          "type": "uint256"
        }
      ],
      "stateMutability": "view",
      "type": "function"
    },
    {
      "inputs": [
        {
          "internalType": "uint256",
          "name": "_eventId",
          "type": "uint256"
        },
        {
          "internalType": "uint256",
          "name": "_categoryId",
          "type": "uint256"
        },
        {
          "internalType": "uint256",
          "name": "_ticketCount",
          "type": "uint256"
        },
        {
          "internalType": "address[]",
          "name": "_accounts",
          "type": "address[]"
        }
      ],
      "name": "bookTickets",
      "outputs": [],
      "stateMutability": "nonpayable",
      "type": "function"
    },
    {
      "inputs": [
        {
          "internalType": "uint256",
          "name": "_eventId",
          "type": "uint256"
        },
        {
          "internalType": "uint256",
          "name": "_categoryId",
          "type": "uint256"
        },
        {
          "internalType": "string",
          "name": "_ticketMetadataURI",
          "type": "string"
        },
        {
          "internalType": "uint256",
          "name": "amount",
          "type": "uint256"
        }
      ],
      "name": "buyTickets",
      "outputs": [],
      "stateMutability": "nonpayable",
      "type": "function"
    },
    {
      "inputs": [
        {
          "internalType": "uint256",
          "name": "_eventId",
          "type": "uint256"
        },
        {
          "internalType": "uint256",
          "name": "_categoryId",
          "type": "uint256"
        },
        {
          "internalType": "uint256",
          "name": "_ticketId",
          "type": "uint256"
        }
      ],
      "name": "clipTicket",
      "outputs": [],
      "stateMutability": "nonpayable",
      "type": "function"
    },
    {
      "inputs": [
        {
          "internalType": "uint256",
          "name": "_maxTicketsPerClient",
          "type": "uint256"
        },
        {
          "internalType": "string",
          "name": "_metadataURI",
          "type": "string"
        }
      ],
      "name": "createEvent",
      "outputs": [],
      "stateMutability": "nonpayable",
      "type": "function"
    },
    {
      "inputs": [
        {
          "internalType": "uint256",
          "name": "_eventId",
          "type": "uint256"
        },
        {
          "internalType": "string",
          "name": "_categoryCid",
          "type": "string"
        }
      ],
      "name": "createTicketCategory",
      "outputs": [],
      "stateMutability": "nonpayable",
      "type": "function"
    },
    {
      "inputs": [],
      "name": "fetchAllEventIds",
      "outputs": [
        {
          "internalType": "uint256[]",
          "name": "",
          "type": "uint256[]"
        }
      ],
      "stateMutability": "view",
      "type": "function"
    },
    {
      "inputs": [
        {
          "internalType": "uint256",
          "name": "_eventId",
          "type": "uint256"
        }
      ],
      "name": "fetchCategoriesByEventId",
      "outputs": [
        {
          "components": [
            {
              "internalType": "uint256",
              "name": "id",
              "type": "uint256"
            },
            {
              "internalType": "uint256[]",
              "name": "ticketIds",
              "type": "uint256[]"
            },
            {
              "internalType": "string",
              "name": "cid",
              "type": "string"
            }
          ],
          "internalType": "struct IEvent.Category[]",
          "name": "",
          "type": "tuple[]"
        }
      ],
      "stateMutability": "view",
      "type": "function"
    },
    {
      "inputs": [],
      "name": "fetchOwnedEvents",
      "outputs": [
        {
          "internalType": "uint256[]",
          "name": "",
          "type": "uint256[]"
        }
      ],
      "stateMutability": "view",
      "type": "function"
    },
    {
      "inputs": [
        {
          "internalType": "uint256",
          "name": "tokenId",
          "type": "uint256"
        }
      ],
      "name": "getApproved",
      "outputs": [
        {
          "internalType": "address",
          "name": "",
          "type": "address"
        }
      ],
      "stateMutability": "view",
      "type": "function"
    },
    {
      "inputs": [
        {
          "internalType": "uint256",
          "name": "eventId",
          "type": "uint256"
        }
      ],
      "name": "getEventMembers",
      "outputs": [
        {
          "components": [
            {
              "internalType": "address",
              "name": "account",
              "type": "address"
            },
            {
              "internalType": "bytes32",
              "name": "role",
              "type": "bytes32"
            }
          ],
          "internalType": "struct RoleControl.MemberData[]",
          "name": "",
          "type": "tuple[]"
        }
      ],
      "stateMutability": "view",
      "type": "function"
    },
    {
      "inputs": [
        {
          "internalType": "uint256",
          "name": "eventId",
          "type": "uint256"
        },
        {
          "internalType": "bytes32",
          "name": "role",
          "type": "bytes32"
        }
      ],
      "name": "getRoleAdmin",
      "outputs": [
        {
          "internalType": "bytes32",
          "name": "",
          "type": "bytes32"
        }
      ],
      "stateMutability": "view",
      "type": "function"
    },
    {
      "inputs": [
        {
          "internalType": "uint256",
          "name": "eventId",
          "type": "uint256"
        },
        {
          "internalType": "bytes32",
          "name": "role",
          "type": "bytes32"
        },
        {
          "internalType": "address",
          "name": "account",
          "type": "address"
        }
      ],
      "name": "grantRole",
      "outputs": [],
      "stateMutability": "nonpayable",
      "type": "function"
    },
    {
      "inputs": [
        {
          "internalType": "uint256",
          "name": "eventId",
          "type": "uint256"
        },
        {
          "internalType": "bytes32",
          "name": "role",
          "type": "bytes32"
        },
        {
          "internalType": "address",
          "name": "account",
          "type": "address"
        }
      ],
      "name": "hasRole",
      "outputs": [
        {
          "internalType": "bool",
          "name": "",
          "type": "bool"
        }
      ],
      "stateMutability": "view",
      "type": "function"
    },
    {
      "inputs": [
        {
          "internalType": "address",
          "name": "owner",
          "type": "address"
        },
        {
          "internalType": "address",
          "name": "operator",
          "type": "address"
        }
      ],
      "name": "isApprovedForAll",
      "outputs": [
        {
          "internalType": "bool",
          "name": "",
          "type": "bool"
        }
      ],
      "stateMutability": "view",
      "type": "function"
    },
    {
      "inputs": [],
      "name": "name",
      "outputs": [
        {
          "internalType": "string",
          "name": "",
          "type": "string"
        }
      ],
      "stateMutability": "view",
      "type": "function"
    },
    {
      "inputs": [
        {
          "internalType": "uint256",
          "name": "tokenId",
          "type": "uint256"
        }
      ],
      "name": "ownerOf",
      "outputs": [
        {
          "internalType": "address",
          "name": "",
          "type": "address"
        }
      ],
      "stateMutability": "view",
      "type": "function"
    },
    {
      "inputs": [
        {
          "internalType": "uint256",
          "name": "_eventId",
          "type": "uint256"
        },
        {
          "internalType": "uint256",
          "name": "_categoryId",
          "type": "uint256"
        }
      ],
      "name": "removeCategory",
      "outputs": [],
      "stateMutability": "nonpayable",
      "type": "function"
    },
    {
      "inputs": [
        {
          "internalType": "uint256",
          "name": "_eventId",
          "type": "uint256"
        },
        {
          "internalType": "uint256",
          "name": "_categoryId",
          "type": "uint256"
        },
        {
          "internalType": "uint256",
          "name": "_ticketsCount",
          "type": "uint256"
        }
      ],
      "name": "removeCategoryTicketsCount",
      "outputs": [],
      "stateMutability": "nonpayable",
      "type": "function"
    },
    {
      "inputs": [
        {
          "internalType": "uint256",
          "name": "_eventId",
          "type": "uint256"
        }
      ],
      "name": "removeEvent",
      "outputs": [],
      "stateMutability": "nonpayable",
      "type": "function"
    },
    {
      "inputs": [
        {
          "internalType": "uint256",
          "name": "_eventId",
          "type": "uint256"
        },
        {
          "internalType": "bytes32",
          "name": "_role",
          "type": "bytes32"
        },
        {
          "internalType": "address",
          "name": "_account",
          "type": "address"
        }
      ],
      "name": "removeTeamMember",
      "outputs": [],
      "stateMutability": "nonpayable",
      "type": "function"
    },
    {
      "inputs": [
        {
          "internalType": "uint256",
          "name": "eventId",
          "type": "uint256"
        },
        {
          "internalType": "bytes32",
          "name": "role",
          "type": "bytes32"
        },
        {
          "internalType": "address",
          "name": "account",
          "type": "address"
        }
      ],
      "name": "renounceRole",
      "outputs": [],
      "stateMutability": "nonpayable",
      "type": "function"
    },
    {
      "inputs": [
        {
          "internalType": "uint256",
          "name": "eventId",
          "type": "uint256"
        },
        {
          "internalType": "bytes32",
          "name": "role",
          "type": "bytes32"
        },
        {
          "internalType": "address",
          "name": "account",
          "type": "address"
        }
      ],
      "name": "revokeRole",
      "outputs": [],
      "stateMutability": "nonpayable",
      "type": "function"
    },
    {
      "inputs": [
        {
          "internalType": "address",
          "name": "from",
          "type": "address"
        },
        {
          "internalType": "address",
          "name": "to",
          "type": "address"
        },
        {
          "internalType": "uint256",
          "name": "tokenId",
          "type": "uint256"
        }
      ],
      "name": "safeTransferFrom",
      "outputs": [],
      "stateMutability": "nonpayable",
      "type": "function"
    },
    {
      "inputs": [
        {
          "internalType": "address",
          "name": "from",
          "type": "address"
        },
        {
          "internalType": "address",
          "name": "to",
          "type": "address"
        },
        {
          "internalType": "uint256",
          "name": "tokenId",
          "type": "uint256"
        },
        {
          "internalType": "bytes",
          "name": "data",
          "type": "bytes"
        }
      ],
      "name": "safeTransferFrom",
      "outputs": [],
      "stateMutability": "nonpayable",
      "type": "function"
    },
    {
      "inputs": [
        {
          "internalType": "address",
          "name": "operator",
          "type": "address"
        },
        {
          "internalType": "bool",
          "name": "approved",
          "type": "bool"
        }
      ],
      "name": "setApprovalForAll",
      "outputs": [],
      "stateMutability": "nonpayable",
      "type": "function"
    },
    {
      "inputs": [
        {
          "internalType": "uint256",
          "name": "_eventId",
          "type": "uint256"
        },
        {
          "internalType": "address",
          "name": "_account",
          "type": "address"
        }
      ],
      "name": "setEventCashier",
      "outputs": [],
      "stateMutability": "nonpayable",
      "type": "function"
    },
    {
      "inputs": [
        {
          "internalType": "uint256",
          "name": "_eventId",
          "type": "uint256"
        }
      ],
      "name": "startAllCategorySelling",
      "outputs": [],
      "stateMutability": "nonpayable",
      "type": "function"
    },
    {
      "inputs": [
        {
          "internalType": "uint256",
          "name": "_eventId",
          "type": "uint256"
        },
        {
          "internalType": "uint256",
          "name": "_categoryId",
          "type": "uint256"
        }
      ],
      "name": "startCategorySelling",
      "outputs": [],
      "stateMutability": "nonpayable",
      "type": "function"
    },
    {
      "inputs": [
        {
          "internalType": "uint256",
          "name": "_eventId",
          "type": "uint256"
        }
      ],
      "name": "stopAllCategorySelling",
      "outputs": [],
      "stateMutability": "nonpayable",
      "type": "function"
    },
    {
      "inputs": [
        {
          "internalType": "uint256",
          "name": "_eventId",
          "type": "uint256"
        },
        {
          "internalType": "uint256",
          "name": "_categoryId",
          "type": "uint256"
        }
      ],
      "name": "stopCategorySelling",
      "outputs": [],
      "stateMutability": "nonpayable",
      "type": "function"
    },
    {
      "inputs": [
        {
          "internalType": "bytes4",
          "name": "interfaceId",
          "type": "bytes4"
        }
      ],
      "name": "supportsInterface",
      "outputs": [
        {
          "internalType": "bool",
          "name": "",
          "type": "bool"
        }
      ],
      "stateMutability": "view",
      "type": "function"
    },
    {
      "inputs": [],
      "name": "symbol",
      "outputs": [
        {
          "internalType": "string",
          "name": "",
          "type": "string"
        }
      ],
      "stateMutability": "view",
      "type": "function"
    },
    {
      "inputs": [
        {
          "internalType": "uint256",
          "name": "tokenId",
          "type": "uint256"
        }
      ],
      "name": "tokenURI",
      "outputs": [
        {
          "internalType": "string",
          "name": "",
          "type": "string"
        }
      ],
      "stateMutability": "view",
      "type": "function"
    },
    {
      "inputs": [
        {
          "internalType": "address",
          "name": "from",
          "type": "address"
        },
        {
          "internalType": "address",
          "name": "to",
          "type": "address"
        },
        {
          "internalType": "uint256",
          "name": "tokenId",
          "type": "uint256"
        }
      ],
      "name": "transferFrom",
      "outputs": [],
      "stateMutability": "nonpayable",
      "type": "function"
    },
    {
      "inputs": [
        {
          "internalType": "uint256",
          "name": "_eventId",
          "type": "uint256"
        },
        {
          "internalType": "uint256",
          "name": "_categoryId",
          "type": "uint256"
        },
        {
          "internalType": "string",
          "name": "_categoryCid",
          "type": "string"
        }
      ],
      "name": "updateCategoryUri",
      "outputs": [],
      "stateMutability": "nonpayable",
      "type": "function"
    },
    {
      "inputs": [
        {
          "internalType": "uint256",
          "name": "_eventId",
          "type": "uint256"
        },
        {
          "internalType": "string",
          "name": "_newMetadataURI",
          "type": "string"
        }
      ],
      "name": "updateEventTokenUri",
      "outputs": [],
      "stateMutability": "nonpayable",
      "type": "function"
    }
  ],
  "bytecode": "0x60806040523480156200001157600080fd5b506040516200431738038062004317833981016040819052620000349162000149565b8282600062000044838262000265565b50600162000053828262000265565b50506001600f5550600b80546001600160a01b0319166001600160a01b039290921691909117905550620003319050565b634e487b7160e01b600052604160045260246000fd5b600082601f830112620000ac57600080fd5b81516001600160401b0380821115620000c957620000c962000084565b604051601f8301601f19908116603f01168101908282118183101715620000f457620000f462000084565b816040528381526020925086838588010111156200011157600080fd5b600091505b8382101562000135578582018301518183018401529082019062000116565b600093810190920192909252949350505050565b6000806000606084860312156200015f57600080fd5b83516001600160401b03808211156200017757600080fd5b62000185878388016200009a565b945060208601519150808211156200019c57600080fd5b50620001ab868287016200009a565b604086015190935090506001600160a01b0381168114620001cb57600080fd5b809150509250925092565b600181811c90821680620001eb57607f821691505b6020821081036200020c57634e487b7160e01b600052602260045260246000fd5b50919050565b601f8211156200026057600081815260208120601f850160051c810160208610156200023b5750805b601f850160051c820191505b818110156200025c5782815560010162000247565b5050505b505050565b81516001600160401b0381111562000281576200028162000084565b6200029981620002928454620001d6565b8462000212565b602080601f831160018114620002d15760008415620002b85750858301515b600019600386901b1c1916600185901b1785556200025c565b600085815260208120601f198616915b828110156200030257888601518255948401946001909101908401620002e1565b5085821015620003215787850151600019600388901b60f8161c191681555b5050505050600190811b01905550565b613fd680620003416000396000f3fe608060405234801561001057600080fd5b50600436106102695760003560e01c80637283d74211610151578063b88d4fde116100c3578063e985e9c511610087578063e985e9c514610589578063f20dddf71461059c578063f354159b146105af578063f99c2292146105c2578063fb42204d146105ca578063fc3291a6146105dd57600080fd5b8063b88d4fde14610516578063b926bd6e14610529578063c49baebe1461053c578063c87b56dd14610563578063d5533da01461057657600080fd5b8063a217fddf11610115578063a217fddf146104a0578063a22cb465146104a8578063a3bdc7c7146104bb578063a4371bd7146104db578063abae6af9146104ee578063b01555441461050357600080fd5b80637283d7421461044a57806373a639381461045d578063797669c91461047057806395d89b4114610485578063a1d255e11461048d57600080fd5b806333a477bd116101ea578063558e39c4116101ae578063558e39c4146103d857806356164e1e146103eb5780636352211e146103fe5780636a4bc7de1461041157806370a0823114610424578063724bdedf1461043757600080fd5b806333a477bd1461036b578063397d4dbc1461037e5780633d378bb01461039f57806342842e0e146103b25780634a120dd7146103c557600080fd5b80630e1b943d116102315780630e1b943d146102ff578063119345aa1461031f5780631cdf29c7146103325780632053d82c1461034557806323b872dd1461035857600080fd5b806301ffc9a71461026e57806306a5bcd21461029757806306fdde03146102ac578063081812fc146102c1578063095ea7b3146102ec575b600080fd5b61028261027c366004613261565b50600090565b60405190151581526020015b60405180910390f35b6102aa6102a53660046132d9565b6105f0565b005b6102b46106e1565b60405161028e91906133f7565b6102d46102cf36600461340a565b610775565b6040516001600160a01b03909116815260200161028e565b6102aa6102fa366004613423565b61079c565b61031261030d36600461340a565b6108b1565b60405161028e919061344f565b61028261032d3660046134a7565b610939565b6102aa6103403660046134e0565b61096b565b6102aa610353366004613587565b610a0a565b6102aa6103663660046135cd565b610ab1565b6102aa61037936600461340a565b610ae2565b61039161038c36600461360e565b610b87565b60405190815260200161028e565b6102aa6103ad36600461360e565b610bab565b6102aa6103c03660046135cd565b610d3b565b6102aa6103d33660046134a7565b610d56565b6102aa6103e6366004613630565b610d7d565b6102aa6103f936600461340a565b610e6d565b6102d461040c36600461340a565b61112f565b6102aa61041f3660046134a7565b61118f565b61039161043236600461365c565b6111c2565b6102aa6104453660046134a7565b611248565b6102aa61045836600461360e565b6112c1565b6102aa61046b366004613679565b611398565b610391600080516020613f8183398151915281565b6102b4611524565b6102aa61049b366004613587565b611536565b610391600081565b6102aa6104b63660046136f4565b611635565b6104ce6104c936600461340a565b611644565b60405161028e9190613762565b6102aa6104e93660046137f3565b61179b565b6104f66118b6565b60405161028e9190613842565b6102aa6105113660046134a7565b611a0a565b6102aa610524366004613855565b611a3d565b6102aa61053736600461340a565b611a75565b6103917f21702c8af46127c7fa207f89d0b0a8441bb32959a0ac7df790e9ab1a25c9892681565b6102b461057136600461340a565b611b12565b6102aa610584366004613630565b611c52565b6102826105973660046138d4565b611d31565b6102aa6105aa36600461360e565b611d5f565b6102aa6105bd366004613630565b611e36565b6104f6611f15565b6102aa6105d83660046134a7565b612020565b6102aa6105eb366004613902565b612040565b83836105fb826123b5565b6106205760405162461bcd60e51b815260040161061790613959565b60405180910390fd5b6000818152600a602052604090205460ff1615156001146106535760405162461bcd60e51b815260040161061790613990565b61065f86600033610939565b8061067e575061067e86600080516020613f8183398151915233610939565b61069a5760405162461bcd60e51b8152600401610617906139c7565b7f5f183d9cf5454d6fc91379ef5dce8b6a4543ec2c03a1d6376579c9a6949b2cb386868686336040516106d1959493929190613a11565b60405180910390a1505050505050565b60606000800180546106f290613a8b565b80601f016020809104026020016040519081016040528092919081815260200182805461071e90613a8b565b801561076b5780601f106107405761010080835404028352916020019161076b565b820191906000526020600020905b81548152906001019060200180831161074e57829003601f168201915b5050505050905090565b6000610780826123d2565b506000908152600460205260409020546001600160a01b031690565b60006107a78261112f565b9050806001600160a01b0316836001600160a01b0316036108145760405162461bcd60e51b815260206004820152602160248201527f4552433732313a20617070726f76616c20746f2063757272656e74206f776e656044820152603960f91b6064820152608401610617565b336001600160a01b038216148061083057506108308133611d31565b6108a25760405162461bcd60e51b815260206004820152603e60248201527f4552433732313a20617070726f76652063616c6c6572206973206e6f7420746f60448201527f6b656e206f776e6572206e6f7220617070726f76656420666f7220616c6c00006064820152608401610617565b6108ac8383612425565b505050565b6060600d6000838152602001908152602001600020805480602002602001604051908101604052809291908181526020016000905b8282101561092e576000848152602090819020604080518082019091526002850290910180546001600160a01b031682526001908101548284015290835290920191016108e6565b505050509050919050565b6000928352600c602090815260408085209385529281528284206001600160a01b039290921684525290205460ff1690565b81610975816123b5565b6109915760405162461bcd60e51b815260040161061790613959565b61099d83600033610939565b6109b95760405162461bcd60e51b815260040161061790613ac5565b604080518481526001600160a01b038416602082015233918101919091527f9f54db3c6775e8717da6972b09a7ed552d62f5fd63696a1a75e58f61bd240193906060015b60405180910390a1505050565b81610a14816123b5565b610a305760405162461bcd60e51b815260040161061790613959565b610a3c83600033610939565b80610a5b5750610a5b83600080516020613f8183398151915233610939565b610a775760405162461bcd60e51b8152600401610617906139c7565b610a818383612493565b6040518381527ff8e1a15aba9398e019f0b49df1a4fde98ee17ae345cb5f6b5e2c27f5033e8ce7906020016109fd565b610abb3382612517565b610ad75760405162461bcd60e51b815260040161061790613afc565b6108ac838383612575565b80610aec816123b5565b610b085760405162461bcd60e51b815260040161061790613959565b610b1482600033610939565b80610b335750610b3382600080516020613f8183398151915233610939565b610b4f5760405162461bcd60e51b8152600401610617906139c7565b6040518281527fa4f54158d64aad2b971e0553dae4ee675d344a6878feb2e498aae9fed2fa5a2f906020015b60405180910390a15050565b6000828152600c602090815260408083208484529091529020600101545b92915050565b8181610bb6826123b5565b610bd25760405162461bcd60e51b815260040161061790613959565b6000818152600a602052604090205460ff161515600114610c055760405162461bcd60e51b815260040161061790613990565b610c1184600033610939565b80610c305750610c3084600080516020613f8183398151915233610939565b610c4c5760405162461bcd60e51b8152600401610617906139c7565b6000848152600960205260409020600201805484908110610c6f57610c6f613b4a565b600091825260208220600160039092020101549003610ce45760405162461bcd60e51b815260206004820152602b60248201527f4576656e743a2054686572652061726520626f75676874207469636b6574732060448201526a696e2063617465676f727960a81b6064820152608401610617565b6000838152600a6020908152604091829020805460ff1916905581518681529081018590527ff67e86d3ffc2c26729aac7f4e3e07e009ad076ace7cd9e9fc184fd452ac0cc8591015b60405180910390a150505050565b6108ac83838360405180602001604052806000815250611a3d565b82610d618484610b87565b610d6b8282612711565b610d7685858561271c565b5050505050565b8282610d88826123b5565b610da45760405162461bcd60e51b815260040161061790613959565b6000818152600a602052604090205460ff161515600114610dd75760405162461bcd60e51b815260040161061790613990565b610de385600033610939565b80610e025750610e0285600080516020613f8183398151915233610939565b610e1e5760405162461bcd60e51b8152600401610617906139c7565b60408051868152602081018690529081018490523360608201527f2dcc6bceb950de206af8457a1b2083cbb47b6b70918a66be78ab4d128fee79f0906080015b60405180910390a15050505050565b80610e77816123b5565b610e935760405162461bcd60e51b815260040161061790613959565b610e9f82600033610939565b610ebb5760405162461bcd60e51b815260040161061790613ac5565b600082815260096020908152604080832081516060810183528154815260018201546001600160a01b031681850152600282018054845181870281018701865281815292959394860193879084015b8282101561103057838290600052602060002090600302016040518060600160405290816000820154815260200160018201805480602002602001604051908101604052809291908181526020018280548015610f8657602002820191906000526020600020905b815481526020019060010190808311610f72575b50505050508152602001600282018054610f9f90613a8b565b80601f0160208091040260200160405190810160405280929190818152602001828054610fcb90613a8b565b80156110185780601f10610fed57610100808354040283529160200191611018565b820191906000526020600020905b815481529060010190602001808311610ffb57829003601f168201915b50505050508152505081526020019060010190610f0a565b5050509152505060408101519091506000805b82518110156110925782818151811061105e5761105e613b4a565b60200260200101516020015151600003611080578161107c81613b76565b9250505b8061108a81613b76565b915050611043565b50808251146110f35760405162461bcd60e51b815260206004820152602760248201527f4576656e743a204576656e74206d757374206e6f74206861766520736f6c64206044820152667469636b65747360c81b6064820152608401610617565b60008581526009602052604081208181556001810180546001600160a01b0319169055906111246002830182613141565b5050610d76856127dd565b6000818152600260205260408120546001600160a01b031680610ba55760405162461bcd60e51b8152602060048201526018602482015277115490cdcc8c4e881a5b9d985b1a59081d1bdad95b88125160421b6044820152606401610617565b61119b83600033610939565b6111b75760405162461bcd60e51b815260040161061790613ac5565b6108ac838383612020565b60006001600160a01b03821661122c5760405162461bcd60e51b815260206004820152602960248201527f4552433732313a2061646472657373207a65726f206973206e6f7420612076616044820152683634b21037bbb732b960b91b6064820152608401610617565b506001600160a01b031660009081526003602052604090205490565b6001600160a01b03811633146112b65760405162461bcd60e51b815260206004820152602d60248201527f526f6c65436f6e74726f6c3a2063616e206f6e6c792072656e6f756e6365207260448201526c37b632b9903337b91039b2b63360991b6064820152608401610617565b6108ac83838361271c565b81816112cc826123b5565b6112e85760405162461bcd60e51b815260040161061790613959565b6000818152600a602052604090205460ff16151560011461131b5760405162461bcd60e51b815260040161061790613990565b61132784600033610939565b80611346575061134684600080516020613f8183398151915233610939565b6113625760405162461bcd60e51b8152600401610617906139c7565b60408051858152602081018590527fbaa4fa805691a368b152481f5d9c567760b5459268d3429f9892ec43b5c595359101610d2d565b826113a2816123b5565b6113be5760405162461bcd60e51b815260040161061790613959565b6113ca84600033610939565b806113e957506113e984600080516020613f8183398151915233610939565b6114055760405162461bcd60e51b8152600401610617906139c7565b611413600880546001019055565b600061141e60085490565b6000868152600960209081526040808320815160608101835285815282519485528484018352808401949094528151601f890184900484028101840183528881529495506002019390830191889088908190840183828082843760009201829052509390945250508354600181810186559482526020918290208451600390920201908155818401518051949591946114bd9450918501920190613162565b50604082015160028201906114d29082613bdd565b5050506000818152600a602052604090819020805460ff19166001179055517f2a94cd6b8e4219d087c43453e983d276c11f9ba16e547f01adb19edb60ae3c7d90610e5e908790849088908890613c9c565b6060600060010180546106f290613a8b565b6002600f54036115885760405162461bcd60e51b815260206004820152601f60248201527f5265656e7472616e637947756172643a207265656e7472616e742063616c6c006044820152606401610617565b6002600f5561159b600780546001019055565b60006115a660075490565b600081815260096020526040908190208581556001810180546001600160a01b031916331790559051919250907f9ce3d6db707bca4ba0eabed8fba1e2c013a1c0bc1132a764170a7854d198c73d906116029084908690613cd9565b60405180910390a1611616826000336128ab565b61162033836128b6565b61162a8284612493565b50506001600f555050565b6116403383836129e9565b5050565b6000818152600960209081526040808320600201805482518185028101850190935280835260609492939192909184015b8282101561092e578382906000526020600020906003020160405180606001604052908160008201548152602001600182018054806020026020016040519081016040528092919081815260200182805480156116f157602002820191906000526020600020905b8154815260200190600101908083116116dd575b5050505050815260200160028201805461170a90613a8b565b80601f016020809104026020016040519081016040528092919081815260200182805461173690613a8b565b80156117835780601f1061175857610100808354040283529160200191611783565b820191906000526020600020905b81548152906001019060200180831161176657829003601f168201915b50505050508152505081526020019060010190611675565b82826117a6826123b5565b6117c25760405162461bcd60e51b815260040161061790613959565b6000818152600a602052604090205460ff1615156001146117f55760405162461bcd60e51b815260040161061790613990565b61180185600033610939565b80611820575061182085600080516020613f8183398151915233610939565b61183c5760405162461bcd60e51b8152600401610617906139c7565b600085815260096020526040902060020180548491908690811061186257611862613b4a565b9060005260206000209060030201600201908161187f9190613bdd565b5060408051868152602081018690527f44df894581249b9c6cda25b6fe8239320be1641adde53f17479b4153cadfcc609101610e5e565b606060006118c360075490565b905060008060015b838111611932576118de81600033610939565b806118fd57506118fd81600080516020613f8183398151915233610939565b801561190d575061190d816123b5565b15611920578261191c81613b76565b9350505b8061192a81613b76565b9150506118cb565b506000826001600160401b0381111561194d5761194d61327e565b604051908082528060200260200182016040528015611976578160200160208202803683370190505b50905060015b848111611a015761198f81600033610939565b806119ae57506119ae81600080516020613f8183398151915233610939565b80156119be57506119be816123b5565b156119ef57808284815181106119d6576119d6613b4a565b6020908102919091010152826119eb81613b76565b9350505b806119f981613b76565b91505061197c565b50949350505050565b611a1683600033610939565b611a325760405162461bcd60e51b815260040161061790613ac5565b6108ac838383610d56565b611a473383612517565b611a635760405162461bcd60e51b815260040161061790613afc565b611a6f84848484612ab7565b50505050565b80611a7f816123b5565b611a9b5760405162461bcd60e51b815260040161061790613959565b611aa782600033610939565b80611ac65750611ac682600080516020613f8183398151915233610939565b611ae25760405162461bcd60e51b8152600401610617906139c7565b6040518281527f5137e27888fb7f8000a76dda6b1f0c6365f53378d64dd9676d82a6888a50811090602001610b7b565b6060611b1d826123d2565b60008281526006602052604081208054611b3690613a8b565b80601f0160208091040260200160405190810160405280929190818152602001828054611b6290613a8b565b8015611baf5780601f10611b8457610100808354040283529160200191611baf565b820191906000526020600020905b815481529060010190602001808311611b9257829003601f168201915b505050505090506000611bcd60408051602081019091526000815290565b90508051600003611bdf575092915050565b815115611c11578082604051602001611bf9929190613cf2565b60405160208183030381529060405292505050919050565b6000815111611c2f5760405180602001604052806000815250611c4a565b80611c3985612aea565b604051602001611bf9929190613cf2565b949350505050565b8282611c5d826123b5565b611c795760405162461bcd60e51b815260040161061790613959565b6000818152600a602052604090205460ff161515600114611cac5760405162461bcd60e51b815260040161061790613990565b611cb885600033610939565b80611cd75750611cd785600080516020613f8183398151915233610939565b611cf35760405162461bcd60e51b8152600401610617906139c7565b60408051868152602081018690529081018490527f3a50fbe2fa0bdf2022fcd8fe2132970519fcf4df5cf97d78e86c510eb0805b6a90606001610e5e565b6001600160a01b03918216600090815260056020908152604080832093909416825291909152205460ff1690565b8181611d6a826123b5565b611d865760405162461bcd60e51b815260040161061790613959565b6000818152600a602052604090205460ff161515600114611db95760405162461bcd60e51b815260040161061790613990565b611dc584600033610939565b80611de45750611de484600080516020613f8183398151915233610939565b611e005760405162461bcd60e51b8152600401610617906139c7565b60408051858152602081018590527f7e40298160ac4a60b736c63fec6ed6fe71621205604304b21bcfa9d48d660be89101610d2d565b8282611e41826123b5565b611e5d5760405162461bcd60e51b815260040161061790613959565b6000818152600a602052604090205460ff161515600114611e905760405162461bcd60e51b815260040161061790613990565b611e9c85600033610939565b80611ebb5750611ebb85600080516020613f8183398151915233610939565b611ed75760405162461bcd60e51b8152600401610617906139c7565b60408051868152602081018690529081018490527fb39ecd9af22a3fec10ec63455a79d572fdcfadf6a9005d5cd232b2829f958c7090606001610e5e565b60606000611f2260075490565b905060008060015b838111611f71576000818152600960205260409020600101546001600160a01b031615611f5f5782611f5b81613b76565b9350505b80611f6981613b76565b915050611f2a565b506000826001600160401b03811115611f8c57611f8c61327e565b604051908082528060200260200182016040528015611fb5578160200160208202803683370190505b50905060015b848111611a01576000818152600960205260409020600101546001600160a01b03161561200e5780828481518110611ff557611ff5613b4a565b60209081029190910101528261200a81613b76565b9350505b8061201881613b76565b915050611fbb565b8261202b8484610b87565b6120358282612711565b610d76858585612bea565b8361204a816123b5565b6120665760405162461bcd60e51b815260040161061790613959565b60008581526009602090815260408083208151606080820184528582529381018490529182019290925290916002830191819060005b845481101561220657898582815481106120b8576120b8613b4a565b906000526020600020906003020160000154036121f4578481815481106120e1576120e1613b4a565b9060005260206000209060030201604051806060016040529081600082015481526020016001820180548060200260200160405190810160405280929190818152602001828054801561215357602002820191906000526020600020905b81548152602001906001019080831161213f575b5050505050815260200160028201805461216c90613a8b565b80601f016020809104026020016040519081016040528092919081815260200182805461219890613a8b565b80156121e55780601f106121ba576101008083540402835291602001916121e5565b820191906000526020600020905b8154815290600101906020018083116121c857829003601f168201915b50505050508152505091508092505b806121fe81613b76565b91505061209c565b5060005b8160200151518110156122d857600b546020830151805133926001600160a01b031691636352211e918590811061224357612243613b4a565b60200260200101516040518263ffffffff1660e01b815260040161226991815260200190565b602060405180830381865afa158015612286573d6000803e3d6000fd5b505050506040513d601f19601f820116820180604052508101906122aa9190613d21565b6001600160a01b0316036122c657836122c281613b76565b9450505b806122d081613b76565b91505061220a565b50600b546040516306a2c74f60e21b81526000916001600160a01b031690631a8b1d3c9061230e908c908c903390600401613d3e565b6020604051808303816000875af115801561232d573d6000803e3d6000fd5b505050506040513d601f19601f820116820180604052508101906123519190613d71565b9050805b8881116123a75786600201848154811061237157612371613b4a565b6000918252602080832060016003909302018201805492830181558352909120018190558061239f81613b76565b915050612355565b505050505050505050505050565b6000908152600260205260409020546001600160a01b0316151590565b6123db816123b5565b6124225760405162461bcd60e51b8152602060048201526018602482015277115490cdcc8c4e881a5b9d985b1a59081d1bdad95b88125160421b6044820152606401610617565b50565b600081815260046020526040902080546001600160a01b0319166001600160a01b038416908117909155819061245a8261112f565b6001600160a01b03167f8c5be1e5ebec7d5bd14f71427d1e84f3dd0314c0f7b2291e5b200ac8c7c3b92560405160405180910390a45050565b61249c826123b5565b6124ff5760405162461bcd60e51b815260206004820152602e60248201527f45524337323155524953746f726167653a2055524920736574206f66206e6f6e60448201526d32bc34b9ba32b73a103a37b5b2b760911b6064820152608401610617565b60008281526006602052604090206108ac8282613bdd565b6000806125238361112f565b9050806001600160a01b0316846001600160a01b0316148061254a575061254a8185611d31565b80611c4a5750836001600160a01b031661256384610775565b6001600160a01b031614949350505050565b826001600160a01b03166125888261112f565b6001600160a01b0316146125ec5760405162461bcd60e51b815260206004820152602560248201527f4552433732313a207472616e736665722066726f6d20696e636f72726563742060448201526437bbb732b960d91b6064820152608401610617565b6001600160a01b03821661264e5760405162461bcd60e51b8152602060048201526024808201527f4552433732313a207472616e7366657220746f20746865207a65726f206164646044820152637265737360e01b6064820152608401610617565b612659600082612425565b6001600160a01b0383166000908152600360205260408120805460019290612682908490613d8a565b90915550506001600160a01b03821660009081526003602052604081208054600192906126b0908490613d9d565b909155505060008181526002602052604080822080546001600160a01b0319166001600160a01b0386811691821790925591518493918716917fddf252ad1be2c89b69c2b068fc378daa952ba7f163c4a11628f55a4df523b3ef91a4505050565b611640828233612cee565b612727838383610939565b156108ac576000838152600c6020908152604080832085845282528083206001600160a01b03851684528252808320805460ff19169055600e9091529020546127708482612d52565b6001600160a01b0382166000908152600e6020526040812055336001600160a01b0316826001600160a01b0316847f7b00293d63517946aeba2f56c6b4c5dec87b67393ac48520994d3d8ce776335a876040516127cf91815260200190565b60405180910390a450505050565b60006127e88261112f565b90506127f5600083612425565b6001600160a01b038116600090815260036020526040812080546001929061281e908490613d8a565b909155505060008281526002602052604080822080546001600160a01b0319169055518391906001600160a01b038416907fddf252ad1be2c89b69c2b068fc378daa952ba7f163c4a11628f55a4df523b3ef908390a46000828152600660205260409020805461288d90613a8b565b159050611640576000828152600660205260408120611640916131ad565b6108ac838383612bea565b6001600160a01b03821661290c5760405162461bcd60e51b815260206004820181905260248201527f4552433732313a206d696e7420746f20746865207a65726f20616464726573736044820152606401610617565b612915816123b5565b156129625760405162461bcd60e51b815260206004820152601c60248201527f4552433732313a20746f6b656e20616c7265616479206d696e746564000000006044820152606401610617565b6001600160a01b038216600090815260036020526040812080546001929061298b908490613d9d565b909155505060008181526002602052604080822080546001600160a01b0319166001600160a01b03861690811790915590518392907fddf252ad1be2c89b69c2b068fc378daa952ba7f163c4a11628f55a4df523b3ef908290a45050565b816001600160a01b0316836001600160a01b031603612a4a5760405162461bcd60e51b815260206004820152601960248201527f4552433732313a20617070726f766520746f2063616c6c6572000000000000006044820152606401610617565b6001600160a01b03838116600081815260056020908152604080832094871680845294825291829020805460ff191686151590811790915591519182527f17307eab39ab6107e8899845ad3d59bd9653f200f220920489ca2b5937696c31910160405180910390a3505050565b612ac2848484612575565b612ace84848484612e35565b611a6f5760405162461bcd60e51b815260040161061790613db0565b606081600003612b115750506040805180820190915260018152600360fc1b602082015290565b8160005b8115612b3b5780612b2581613b76565b9150612b349050600a83613e18565b9150612b15565b6000816001600160401b03811115612b5557612b5561327e565b6040519080825280601f01601f191660200182016040528015612b7f576020820181803683370190505b5090505b8415611c4a57612b94600183613d8a565b9150612ba1600a86613e2c565b612bac906030613d9d565b60f81b818381518110612bc157612bc1613b4a565b60200101906001600160f81b031916908160001a905350612be3600a86613e18565b9450612b83565b612bf5838383610939565b6108ac576000838152600c6020908152604080832085845282528083206001600160a01b03858116808652918452828520805460ff1916600190811790915583518085018552928352828501888152898752600d865293862080548083018255818852958720845160029097020180546001600160a01b03191696909316959095178255925190830155928690529054612c8f9190613d8a565b6001600160a01b0383166000908152600e6020526040902055336001600160a01b0316826001600160a01b0316847fd9dfff7752b7a810e2b646c0c96b76bc9ed817f6c6f7848bbe68163f7e8b4378876040516127cf91815260200190565b612cf9838383610939565b6108ac57612d0681612f36565b612d11836020612f48565b612d1a856130ea565b604051602001612d2c93929190613e40565b60408051601f198184030181529082905262461bcd60e51b8252610617916004016133f7565b6000828152600d602052604090208054612d6e90600190613d8a565b81548110612d7e57612d7e613b4a565b9060005260206000209060020201600d60008481526020019081526020016000208281548110612db057612db0613b4a565b60009182526020808320845460029093020180546001600160a01b0319166001600160a01b039093169290921782556001938401549390910192909255838152600d90915260409020805480612e0857612e08613ee2565b60008281526020812060026000199093019283020180546001600160a01b03191681556001015590555050565b60006001600160a01b0384163b15612f2b57604051630a85bd0160e11b81526001600160a01b0385169063150b7a0290612e79903390899088908890600401613ef8565b6020604051808303816000875af1925050508015612eb4575060408051601f3d908101601f19168201909252612eb191810190613f35565b60015b612f11573d808015612ee2576040519150601f19603f3d011682016040523d82523d6000602084013e612ee7565b606091505b508051600003612f095760405162461bcd60e51b815260040161061790613db0565b805181602001fd5b6001600160e01b031916630a85bd0160e11b149050611c4a565b506001949350505050565b6060610ba56001600160a01b03831660145b60606000612f57836002613f52565b612f62906002613d9d565b6001600160401b03811115612f7957612f7961327e565b6040519080825280601f01601f191660200182016040528015612fa3576020820181803683370190505b509050600360fc1b81600081518110612fbe57612fbe613b4a565b60200101906001600160f81b031916908160001a905350600f60fb1b81600181518110612fed57612fed613b4a565b60200101906001600160f81b031916908160001a9053506000613011846002613f52565b61301c906001613d9d565b90505b6001811115613094576f181899199a1a9b1b9c1cb0b131b232b360811b85600f166010811061305057613050613b4a565b1a60f81b82828151811061306657613066613b4a565b60200101906001600160f81b031916908160001a90535060049490941c9361308d81613f69565b905061301f565b5083156130e35760405162461bcd60e51b815260206004820181905260248201527f537472696e67733a20686578206c656e67746820696e73756666696369656e746044820152606401610617565b9392505050565b6060816000036131145750506040805180820190915260048152630307830360e41b602082015290565b8160005b8115613137578061312881613b76565b915050600882901c9150613118565b611c4a8482612f48565b508054600082556003029060005260206000209081019061242291906131e7565b82805482825590600052602060002090810192821561319d579160200282015b8281111561319d578251825591602001919060010190613182565b506131a9929150613218565b5090565b5080546131b990613a8b565b6000825580601f106131c9575050565b601f0160209004906000526020600020908101906124229190613218565b808211156131a9576000808255613201600183018261322d565b61320f6002830160006131ad565b506003016131e7565b5b808211156131a95760008155600101613219565b50805460008255906000526020600020908101906124229190613218565b6001600160e01b03198116811461242257600080fd5b60006020828403121561327357600080fd5b81356130e38161324b565b634e487b7160e01b600052604160045260246000fd5b604051601f8201601f191681016001600160401b03811182821017156132bc576132bc61327e565b604052919050565b6001600160a01b038116811461242257600080fd5b600080600080608085870312156132ef57600080fd5b8435935060208086013593506040860135925060608601356001600160401b038082111561331c57600080fd5b818801915088601f83011261333057600080fd5b8135818111156133425761334261327e565b8060051b9150613353848301613294565b818152918301840191848101908b84111561336d57600080fd5b938501935b838510156133975784359250613387836132c4565b8282529385019390850190613372565b989b979a50959850505050505050565b60005b838110156133c25781810151838201526020016133aa565b50506000910152565b600081518084526133e38160208601602086016133a7565b601f01601f19169290920160200192915050565b6020815260006130e360208301846133cb565b60006020828403121561341c57600080fd5b5035919050565b6000806040838503121561343657600080fd5b8235613441816132c4565b946020939093013593505050565b602080825282518282018190526000919060409081850190868401855b8281101561349a57815180516001600160a01b0316855286015186850152928401929085019060010161346c565b5091979650505050505050565b6000806000606084860312156134bc57600080fd5b833592506020840135915060408401356134d5816132c4565b809150509250925092565b600080604083850312156134f357600080fd5b823591506020830135613505816132c4565b809150509250929050565b60006001600160401b038311156135295761352961327e565b61353c601f8401601f1916602001613294565b905082815283838301111561355057600080fd5b828260208301376000602084830101529392505050565b600082601f83011261357857600080fd5b6130e383833560208501613510565b6000806040838503121561359a57600080fd5b8235915060208301356001600160401b038111156135b757600080fd5b6135c385828601613567565b9150509250929050565b6000806000606084860312156135e257600080fd5b83356135ed816132c4565b925060208401356135fd816132c4565b929592945050506040919091013590565b6000806040838503121561362157600080fd5b50508035926020909101359150565b60008060006060848603121561364557600080fd5b505081359360208301359350604090920135919050565b60006020828403121561366e57600080fd5b81356130e3816132c4565b60008060006040848603121561368e57600080fd5b8335925060208401356001600160401b03808211156136ac57600080fd5b818601915086601f8301126136c057600080fd5b8135818111156136cf57600080fd5b8760208285010111156136e157600080fd5b6020830194508093505050509250925092565b6000806040838503121561370757600080fd5b8235613712816132c4565b91506020830135801515811461350557600080fd5b600081518084526020808501945080840160005b838110156137575781518752958201959082019060010161373b565b509495945050505050565b60006020808301818452808551808352604092508286019150828160051b87010184880160005b838110156137e557603f19898403018552815160608151855288820151818a8701526137b782870182613727565b915050878201519150848103888601526137d181836133cb565b968901969450505090860190600101613789565b509098975050505050505050565b60008060006060848603121561380857600080fd5b833592506020840135915060408401356001600160401b0381111561382c57600080fd5b61383886828701613567565b9150509250925092565b6020815260006130e36020830184613727565b6000806000806080858703121561386b57600080fd5b8435613876816132c4565b93506020850135613886816132c4565b92506040850135915060608501356001600160401b038111156138a857600080fd5b8501601f810187136138b957600080fd5b6138c887823560208401613510565b91505092959194509250565b600080604083850312156138e757600080fd5b82356138f2816132c4565b91506020830135613505816132c4565b6000806000806080858703121561391857600080fd5b843593506020850135925060408501356001600160401b0381111561393c57600080fd5b61394887828801613567565b949793965093946060013593505050565b6020808252601c908201527f4576656e743a204576656e7420646f6573206e6f742065786973742100000000604082015260600190565b6020808252601f908201527f4576656e743a2043617465676f727920646f6573206e6f742065786973742100604082015260600190565b6020808252602a908201527f4576656e743a2043616c6c6572206973206e6f7420616e2061646d696e206f726040820152691036b7b232b930ba37b960b11b606082015260800190565b600060a082018783526020878185015286604085015260a0606085015281865180845260c086019150828801935060005b81811015613a675784516001600160a01b031683529383019391830191600101613a42565b50506001600160a01b03959095166080949094019390935250919695505050505050565b600181811c90821680613a9f57607f821691505b602082108103613abf57634e487b7160e01b600052602260045260246000fd5b50919050565b6020808252601d908201527f4576656e743a2043616c6c6572206973206e6f7420616e2061646d696e000000604082015260600190565b6020808252602e908201527f4552433732313a2063616c6c6572206973206e6f7420746f6b656e206f776e6560408201526d1c881b9bdc88185c1c1c9bdd995960921b606082015260800190565b634e487b7160e01b600052603260045260246000fd5b634e487b7160e01b600052601160045260246000fd5b600060018201613b8857613b88613b60565b5060010190565b601f8211156108ac57600081815260208120601f850160051c81016020861015613bb65750805b601f850160051c820191505b81811015613bd557828155600101613bc2565b505050505050565b81516001600160401b03811115613bf657613bf661327e565b613c0a81613c048454613a8b565b84613b8f565b602080601f831160018114613c3f5760008415613c275750858301515b600019600386901b1c1916600185901b178555613bd5565b600085815260208120601f198616915b82811015613c6e57888601518255948401946001909101908401613c4f565b5085821015613c8c5787850151600019600388901b60f8161c191681555b5050505050600190811b01905550565b84815283602082015260606040820152816060820152818360808301376000818301608090810191909152601f909201601f191601019392505050565b828152604060208201526000611c4a60408301846133cb565b60008351613d048184602088016133a7565b835190830190613d188183602088016133a7565b01949350505050565b600060208284031215613d3357600080fd5b81516130e3816132c4565b606081526000613d5160608301866133cb565b6020830194909452506001600160a01b0391909116604090910152919050565b600060208284031215613d8357600080fd5b5051919050565b81810381811115610ba557610ba5613b60565b80820180821115610ba557610ba5613b60565b60208082526032908201527f4552433732313a207472616e7366657220746f206e6f6e20455243373231526560408201527131b2b4bb32b91034b6b83632b6b2b73a32b960711b606082015260800190565b634e487b7160e01b600052601260045260246000fd5b600082613e2757613e27613e02565b500490565b600082613e3b57613e3b613e02565b500690565b7402937b632a1b7b73a3937b61d1030b1b1b7bab73a1605d1b815260008451613e708160158501602089016133a7565b7001034b99036b4b9b9b4b733903937b6329607d1b6015918401918201528451613ea18160268401602089016133a7565b720103337b91032bb32b73a103bb4ba341034b21606d1b602692909101918201528351613ed58160398401602088016133a7565b0160390195945050505050565b634e487b7160e01b600052603160045260246000fd5b6001600160a01b0385811682528416602082015260408101839052608060608201819052600090613f2b908301846133cb565b9695505050505050565b600060208284031215613f4757600080fd5b81516130e38161324b565b8082028115828204841417610ba557610ba5613b60565b600081613f7857613f78613b60565b50600019019056fe71f3d55856e4058ed06ee057d79ada615f65cdf5f9ee88181b914225088f834fa2646970667358221220b87bfd7ae28af7045c37ae161aebdbf2ecee20a380aef3fcc16543025e335d5564736f6c63430008110033",
  "linkReferences": {},
  "deployedLinkReferences": {}
}