{
  "_format": "hh-sol-artifact-1",
  "contractName": "EventFacet",
  "sourceName": "contracts/EventDiamond/facets/EventFacet.sol",
  "abi": [
    {
      "inputs": [
        {
          "internalType": "string",
          "name": "_name",
          "type": "string"
        },
        {
          "internalType": "string",
          "name": "_symbol",
          "type": "string"
        },
        {
          "internalType": "address",
          "name": "_ticketContract",
          "type": "address"
        }
      ],
      "stateMutability": "nonpayable",
      "type": "constructor"
    },
    {
      "anonymous": false,
      "inputs": [
        {
          "indexed": true,
          "internalType": "address",
          "name": "owner",
          "type": "address"
        },
        {
          "indexed": true,
          "internalType": "address",
          "name": "approved",
          "type": "address"
        },
        {
          "indexed": true,
          "internalType": "uint256",
          "name": "tokenId",
          "type": "uint256"
        }
      ],
      "name": "Approval",
      "type": "event"
    },
    {
      "anonymous": false,
      "inputs": [
        {
          "indexed": true,
          "internalType": "address",
          "name": "owner",
          "type": "address"
        },
        {
          "indexed": true,
          "internalType": "address",
          "name": "operator",
          "type": "address"
        },
        {
          "indexed": false,
          "internalType": "bool",
          "name": "approved",
          "type": "bool"
        }
      ],
      "name": "ApprovalForAll",
      "type": "event"
    },
    {
      "anonymous": false,
      "inputs": [
        {
          "indexed": false,
          "internalType": "uint256",
          "name": "_fromTokenId",
          "type": "uint256"
        },
        {
          "indexed": false,
          "internalType": "uint256",
          "name": "_toTokenId",
          "type": "uint256"
        }
      ],
      "name": "BatchMetadataUpdate",
      "type": "event"
    },
    {
      "anonymous": false,
      "inputs": [
        {
          "indexed": true,
          "internalType": "uint256",
          "name": "fromTokenId",
          "type": "uint256"
        },
        {
          "indexed": false,
          "internalType": "uint256",
          "name": "toTokenId",
          "type": "uint256"
        },
        {
          "indexed": true,
          "internalType": "address",
          "name": "fromAddress",
          "type": "address"
        },
        {
          "indexed": true,
          "internalType": "address",
          "name": "toAddress",
          "type": "address"
        }
      ],
      "name": "ConsecutiveTransfer",
      "type": "event"
    },
    {
      "anonymous": false,
      "inputs": [
        {
          "indexed": false,
          "internalType": "uint256",
          "name": "eventId",
          "type": "uint256"
        },
        {
          "indexed": false,
          "internalType": "string",
          "name": "metadataUri",
          "type": "string"
        }
      ],
      "name": "EventCreated",
      "type": "event"
    },
    {
      "anonymous": false,
      "inputs": [
        {
          "indexed": false,
          "internalType": "uint256",
          "name": "_tokenId",
          "type": "uint256"
        }
      ],
      "name": "MetadataUpdate",
      "type": "event"
    },
    {
      "anonymous": false,
      "inputs": [
        {
          "indexed": false,
          "internalType": "uint256",
          "name": "eventId",
          "type": "uint256"
        },
        {
          "indexed": true,
          "internalType": "bytes32",
          "name": "role",
          "type": "bytes32"
        },
        {
          "indexed": true,
          "internalType": "bytes32",
          "name": "previousAdminRole",
          "type": "bytes32"
        },
        {
          "indexed": true,
          "internalType": "bytes32",
          "name": "newAdminRole",
          "type": "bytes32"
        }
      ],
      "name": "RoleAdminChanged",
      "type": "event"
    },
    {
      "anonymous": false,
      "inputs": [
        {
          "indexed": false,
          "internalType": "uint256",
          "name": "eventId",
          "type": "uint256"
        },
        {
          "indexed": true,
          "internalType": "bytes32",
          "name": "role",
          "type": "bytes32"
        },
        {
          "indexed": true,
          "internalType": "address",
          "name": "account",
          "type": "address"
        },
        {
          "indexed": true,
          "internalType": "address",
          "name": "sender",
          "type": "address"
        }
      ],
      "name": "RoleGranted",
      "type": "event"
    },
    {
      "anonymous": false,
      "inputs": [
        {
          "indexed": false,
          "internalType": "uint256",
          "name": "eventId",
          "type": "uint256"
        },
        {
          "indexed": true,
          "internalType": "bytes32",
          "name": "role",
          "type": "bytes32"
        },
        {
          "indexed": true,
          "internalType": "address",
          "name": "account",
          "type": "address"
        },
        {
          "indexed": true,
          "internalType": "address",
          "name": "sender",
          "type": "address"
        }
      ],
      "name": "RoleRevoked",
      "type": "event"
    },
    {
      "anonymous": false,
      "inputs": [
        {
          "indexed": true,
          "internalType": "address",
          "name": "from",
          "type": "address"
        },
        {
          "indexed": true,
          "internalType": "address",
          "name": "to",
          "type": "address"
        },
        {
          "indexed": true,
          "internalType": "uint256",
          "name": "tokenId",
          "type": "uint256"
        }
      ],
      "name": "Transfer",
      "type": "event"
    },
    {
      "inputs": [],
      "name": "DEFAULT_ADMIN_ROLE",
      "outputs": [
        {
          "internalType": "bytes32",
          "name": "",
          "type": "bytes32"
        }
      ],
      "stateMutability": "view",
      "type": "function"
    },
    {
      "inputs": [],
      "name": "MODERATOR_ROLE",
      "outputs": [
        {
          "internalType": "bytes32",
          "name": "",
          "type": "bytes32"
        }
      ],
      "stateMutability": "view",
      "type": "function"
    },
    {
      "inputs": [],
      "name": "VALIDATOR_ROLE",
      "outputs": [
        {
          "internalType": "bytes32",
          "name": "",
          "type": "bytes32"
        }
      ],
      "stateMutability": "view",
      "type": "function"
    },
    {
      "inputs": [
        {
          "internalType": "uint256",
          "name": "_eventId",
          "type": "uint256"
        },
        {
          "internalType": "bytes32",
          "name": "_role",
          "type": "bytes32"
        },
        {
          "internalType": "address",
          "name": "_account",
          "type": "address"
        }
      ],
      "name": "addTeamMember",
      "outputs": [],
      "stateMutability": "nonpayable",
      "type": "function"
    },
    {
      "inputs": [
        {
          "internalType": "address",
          "name": "to",
          "type": "address"
        },
        {
          "internalType": "uint256",
          "name": "tokenId",
          "type": "uint256"
        }
      ],
      "name": "approve",
      "outputs": [],
      "stateMutability": "nonpayable",
      "type": "function"
    },
    {
      "inputs": [
        {
          "internalType": "address",
          "name": "owner",
          "type": "address"
        }
      ],
      "name": "balanceOf",
      "outputs": [
        {
          "internalType": "uint256",
          "name": "",
          "type": "uint256"
        }
      ],
      "stateMutability": "view",
      "type": "function"
    },
    {
      "inputs": [
        {
          "internalType": "uint256",
          "name": "_eventId",
          "type": "uint256"
        },
        {
          "internalType": "uint256",
          "name": "_categoryId",
          "type": "uint256"
        },
        {
          "internalType": "string",
          "name": "_ticketMetadataURI",
          "type": "string"
        },
        {
          "internalType": "uint256",
          "name": "amount",
          "type": "uint256"
        }
      ],
      "name": "buyTickets",
      "outputs": [],
      "stateMutability": "nonpayable",
      "type": "function"
    },
    {
      "inputs": [
        {
          "internalType": "uint256",
          "name": "_maxTicketsPerClient",
          "type": "uint256"
        },
        {
          "internalType": "string",
          "name": "_metadataURI",
          "type": "string"
        }
      ],
      "name": "createEvent",
      "outputs": [],
      "stateMutability": "nonpayable",
      "type": "function"
    },
    {
      "inputs": [
        {
          "internalType": "uint256",
          "name": "_eventId",
          "type": "uint256"
        },
        {
          "internalType": "string",
          "name": "_categoryCid",
          "type": "string"
        }
      ],
      "name": "createTicketCategory",
      "outputs": [],
      "stateMutability": "nonpayable",
      "type": "function"
    },
    {
      "inputs": [],
      "name": "fetchAllEventIds",
      "outputs": [
        {
          "internalType": "uint256[]",
          "name": "",
          "type": "uint256[]"
        }
      ],
      "stateMutability": "view",
      "type": "function"
    },
    {
      "inputs": [],
      "name": "fetchOwnedEvents",
      "outputs": [
        {
          "internalType": "uint256[]",
          "name": "",
          "type": "uint256[]"
        }
      ],
      "stateMutability": "view",
      "type": "function"
    },
    {
      "inputs": [
        {
          "internalType": "uint256",
          "name": "tokenId",
          "type": "uint256"
        }
      ],
      "name": "getApproved",
      "outputs": [
        {
          "internalType": "address",
          "name": "",
          "type": "address"
        }
      ],
      "stateMutability": "view",
      "type": "function"
    },
    {
      "inputs": [
        {
          "internalType": "uint256",
          "name": "_eventId",
          "type": "uint256"
        }
      ],
      "name": "getCategoriesByEventId",
      "outputs": [
        {
          "components": [
            {
              "internalType": "uint256",
              "name": "id",
              "type": "uint256"
            },
            {
              "internalType": "uint256[]",
              "name": "ticketIds",
              "type": "uint256[]"
            },
            {
              "internalType": "string",
              "name": "cid",
              "type": "string"
            }
          ],
          "internalType": "struct IEvent.Category[]",
          "name": "",
          "type": "tuple[]"
        }
      ],
      "stateMutability": "view",
      "type": "function"
    },
    {
      "inputs": [
        {
          "internalType": "uint256",
          "name": "eventId",
          "type": "uint256"
        }
      ],
      "name": "getEventMembers",
      "outputs": [
        {
          "components": [
            {
              "internalType": "address",
              "name": "account",
              "type": "address"
            },
            {
              "internalType": "bytes32",
              "name": "role",
              "type": "bytes32"
            }
          ],
          "internalType": "struct RoleControl.MemberData[]",
          "name": "",
          "type": "tuple[]"
        }
      ],
      "stateMutability": "view",
      "type": "function"
    },
    {
      "inputs": [
        {
          "internalType": "uint256",
          "name": "eventId",
          "type": "uint256"
        },
        {
          "internalType": "bytes32",
          "name": "role",
          "type": "bytes32"
        }
      ],
      "name": "getRoleAdmin",
      "outputs": [
        {
          "internalType": "bytes32",
          "name": "",
          "type": "bytes32"
        }
      ],
      "stateMutability": "view",
      "type": "function"
    },
    {
      "inputs": [
        {
          "internalType": "uint256",
          "name": "eventId",
          "type": "uint256"
        },
        {
          "internalType": "bytes32",
          "name": "role",
          "type": "bytes32"
        },
        {
          "internalType": "address",
          "name": "account",
          "type": "address"
        }
      ],
      "name": "grantRole",
      "outputs": [],
      "stateMutability": "nonpayable",
      "type": "function"
    },
    {
      "inputs": [
        {
          "internalType": "uint256",
          "name": "eventId",
          "type": "uint256"
        },
        {
          "internalType": "bytes32",
          "name": "role",
          "type": "bytes32"
        },
        {
          "internalType": "address",
          "name": "account",
          "type": "address"
        }
      ],
      "name": "hasRole",
      "outputs": [
        {
          "internalType": "bool",
          "name": "",
          "type": "bool"
        }
      ],
      "stateMutability": "view",
      "type": "function"
    },
    {
      "inputs": [
        {
          "internalType": "address",
          "name": "owner",
          "type": "address"
        },
        {
          "internalType": "address",
          "name": "operator",
          "type": "address"
        }
      ],
      "name": "isApprovedForAll",
      "outputs": [
        {
          "internalType": "bool",
          "name": "",
          "type": "bool"
        }
      ],
      "stateMutability": "view",
      "type": "function"
    },
    {
      "inputs": [],
      "name": "name",
      "outputs": [
        {
          "internalType": "string",
          "name": "",
          "type": "string"
        }
      ],
      "stateMutability": "view",
      "type": "function"
    },
    {
      "inputs": [
        {
          "internalType": "uint256",
          "name": "tokenId",
          "type": "uint256"
        }
      ],
      "name": "ownerOf",
      "outputs": [
        {
          "internalType": "address",
          "name": "",
          "type": "address"
        }
      ],
      "stateMutability": "view",
      "type": "function"
    },
    {
      "inputs": [
        {
          "internalType": "uint256",
          "name": "_eventId",
          "type": "uint256"
        }
      ],
      "name": "removeEvent",
      "outputs": [],
      "stateMutability": "nonpayable",
      "type": "function"
    },
    {
      "inputs": [
        {
          "internalType": "uint256",
          "name": "_eventId",
          "type": "uint256"
        },
        {
          "internalType": "bytes32",
          "name": "_role",
          "type": "bytes32"
        },
        {
          "internalType": "address",
          "name": "_account",
          "type": "address"
        }
      ],
      "name": "removeTeamMember",
      "outputs": [],
      "stateMutability": "nonpayable",
      "type": "function"
    },
    {
      "inputs": [
        {
          "internalType": "uint256",
          "name": "eventId",
          "type": "uint256"
        },
        {
          "internalType": "bytes32",
          "name": "role",
          "type": "bytes32"
        },
        {
          "internalType": "address",
          "name": "account",
          "type": "address"
        }
      ],
      "name": "renounceRole",
      "outputs": [],
      "stateMutability": "nonpayable",
      "type": "function"
    },
    {
      "inputs": [
        {
          "internalType": "uint256",
          "name": "eventId",
          "type": "uint256"
        },
        {
          "internalType": "bytes32",
          "name": "role",
          "type": "bytes32"
        },
        {
          "internalType": "address",
          "name": "account",
          "type": "address"
        }
      ],
      "name": "revokeRole",
      "outputs": [],
      "stateMutability": "nonpayable",
      "type": "function"
    },
    {
      "inputs": [
        {
          "internalType": "address",
          "name": "from",
          "type": "address"
        },
        {
          "internalType": "address",
          "name": "to",
          "type": "address"
        },
        {
          "internalType": "uint256",
          "name": "tokenId",
          "type": "uint256"
        }
      ],
      "name": "safeTransferFrom",
      "outputs": [],
      "stateMutability": "nonpayable",
      "type": "function"
    },
    {
      "inputs": [
        {
          "internalType": "address",
          "name": "from",
          "type": "address"
        },
        {
          "internalType": "address",
          "name": "to",
          "type": "address"
        },
        {
          "internalType": "uint256",
          "name": "tokenId",
          "type": "uint256"
        },
        {
          "internalType": "bytes",
          "name": "data",
          "type": "bytes"
        }
      ],
      "name": "safeTransferFrom",
      "outputs": [],
      "stateMutability": "nonpayable",
      "type": "function"
    },
    {
      "inputs": [
        {
          "internalType": "address",
          "name": "operator",
          "type": "address"
        },
        {
          "internalType": "bool",
          "name": "approved",
          "type": "bool"
        }
      ],
      "name": "setApprovalForAll",
      "outputs": [],
      "stateMutability": "nonpayable",
      "type": "function"
    },
    {
      "inputs": [
        {
          "internalType": "bytes4",
          "name": "interfaceId",
          "type": "bytes4"
        }
      ],
      "name": "supportsInterface",
      "outputs": [
        {
          "internalType": "bool",
          "name": "",
          "type": "bool"
        }
      ],
      "stateMutability": "view",
      "type": "function"
    },
    {
      "inputs": [],
      "name": "symbol",
      "outputs": [
        {
          "internalType": "string",
          "name": "",
          "type": "string"
        }
      ],
      "stateMutability": "view",
      "type": "function"
    },
    {
      "inputs": [
        {
          "internalType": "uint256",
          "name": "tokenId",
          "type": "uint256"
        }
      ],
      "name": "tokenURI",
      "outputs": [
        {
          "internalType": "string",
          "name": "",
          "type": "string"
        }
      ],
      "stateMutability": "view",
      "type": "function"
    },
    {
      "inputs": [
        {
          "internalType": "address",
          "name": "from",
          "type": "address"
        },
        {
          "internalType": "address",
          "name": "to",
          "type": "address"
        },
        {
          "internalType": "uint256",
          "name": "tokenId",
          "type": "uint256"
        }
      ],
      "name": "transferFrom",
      "outputs": [],
      "stateMutability": "nonpayable",
      "type": "function"
    },
    {
      "inputs": [
        {
          "internalType": "uint256",
          "name": "_eventId",
          "type": "uint256"
        },
        {
          "internalType": "string",
          "name": "_newMetadataURI",
          "type": "string"
        }
      ],
      "name": "updateEventTokenUri",
      "outputs": [],
      "stateMutability": "nonpayable",
      "type": "function"
    }
  ],
  "bytecode": "0x60806040523480156200001157600080fd5b506040516200348438038062003484833981016040819052620000349162000149565b8282600062000044838262000265565b50600162000053828262000265565b50506001600a5550600d80546001600160a01b0319166001600160a01b039290921691909117905550620003319050565b634e487b7160e01b600052604160045260246000fd5b600082601f830112620000ac57600080fd5b81516001600160401b0380821115620000c957620000c962000084565b604051601f8301601f19908116603f01168101908282118183101715620000f457620000f462000084565b816040528381526020925086838588010111156200011157600080fd5b600091505b8382101562000135578582018301518183018401529082019062000116565b600093810190920192909252949350505050565b6000806000606084860312156200015f57600080fd5b83516001600160401b03808211156200017757600080fd5b62000185878388016200009a565b945060208601519150808211156200019c57600080fd5b50620001ab868287016200009a565b604086015190935090506001600160a01b0381168114620001cb57600080fd5b809150509250925092565b600181811c90821680620001eb57607f821691505b6020821081036200020c57634e487b7160e01b600052602260045260246000fd5b50919050565b601f8211156200026057600081815260208120601f850160051c810160208610156200023b5750805b601f850160051c820191505b818110156200025c5782815560010162000247565b5050505b505050565b81516001600160401b0381111562000281576200028162000084565b6200029981620002928454620001d6565b8462000212565b602080601f831160018114620002d15760008415620002b85750858301515b600019600386901b1c1916600185901b1785556200025c565b600085815260208120601f198616915b828110156200030257888601518255948401946001909101908401620002e1565b5085821015620003215787850151600019600388901b60f8161c191681555b5050505050600190811b01905550565b61314380620003416000396000f3fe608060405234801561001057600080fd5b50600436106101f05760003560e01c806373a639381161010f578063b0155544116100a2578063e985e9c511610071578063e985e9c514610465578063f99c229214610478578063fb42204d14610480578063fc3291a61461049357600080fd5b8063b015554414610405578063b88d4fde14610418578063c49baebe1461042b578063c87b56dd1461045257600080fd5b8063a217fddf116100de578063a217fddf146103b5578063a22cb465146103bd578063a4df4106146103d0578063abae6af9146103f057600080fd5b806373a6393814610372578063797669c91461038557806395d89b411461039a578063a1d255e1146103a257600080fd5b8063397d4dbc116101875780636352211e116101565780636352211e146103265780636a4bc7de1461033957806370a082311461034c578063724bdedf1461035f57600080fd5b8063397d4dbc146102cc57806342842e0e146102ed5780634a120dd71461030057806356164e1e1461031357600080fd5b80630e1b943d116101c35780630e1b943d14610273578063119345aa146102935780632053d82c146102a657806323b872dd146102b957600080fd5b806301ffc9a7146101f557806306fdde031461021e578063081812fc14610233578063095ea7b31461025e575b600080fd5b6102096102033660046126fc565b50600090565b60405190151581526020015b60405180910390f35b6102266104a6565b6040516102159190612769565b61024661024136600461277c565b61053a565b6040516001600160a01b039091168152602001610215565b61027161026c3660046127aa565b610561565b005b61028661028136600461277c565b61067b565b60405161021591906127d6565b6102096102a136600461282e565b610703565b6102716102b4366004612913565b610735565b6102716102c736600461295a565b610827565b6102df6102da36600461299b565b610858565b604051908152602001610215565b6102716102fb36600461295a565b61087c565b61027161030e36600461282e565b610897565b61027161032136600461277c565b6108be565b61024661033436600461277c565b610b80565b61027161034736600461282e565b610be0565b6102df61035a3660046129bd565b610c13565b61027161036d36600461282e565b610c99565b610271610380366004612913565b610d12565b6102df6000805160206130ee83398151915281565b610226610e01565b6102716103b0366004612913565b610e13565b6102df600081565b6102716103cb3660046129da565b610f12565b6103e36103de36600461277c565b610f21565b6040516102159190612a53565b6103f861107f565b6040516102159190612ae4565b61027161041336600461282e565b6111d4565b610271610426366004612af7565b611207565b6102df7f21702c8af46127c7fa207f89d0b0a8441bb32959a0ac7df790e9ab1a25c9892681565b61022661046036600461277c565b61123f565b610209610473366004612b77565b61137f565b6103f86113ad565b61027161048e36600461282e565b6114b9565b6102716104a1366004612ba5565b6114d9565b60606000800180546104b790612bfd565b80601f01602080910402602001604051908101604052809291908181526020018280546104e390612bfd565b80156105305780601f1061050557610100808354040283529160200191610530565b820191906000526020600020905b81548152906001019060200180831161051357829003601f168201915b5050505050905090565b60006105458261184e565b506000908152600460205260409020546001600160a01b031690565b600061056c82610b80565b9050806001600160a01b0316836001600160a01b0316036105de5760405162461bcd60e51b815260206004820152602160248201527f4552433732313a20617070726f76616c20746f2063757272656e74206f776e656044820152603960f91b60648201526084015b60405180910390fd5b336001600160a01b03821614806105fa57506105fa813361137f565b61066c5760405162461bcd60e51b815260206004820152603e60248201527f4552433732313a20617070726f76652063616c6c6572206973206e6f7420746f60448201527f6b656e206f776e6572206e6f7220617070726f76656420666f7220616c6c000060648201526084016105d5565b61067683836118a1565b505050565b606060086000838152602001908152602001600020805480602002602001604051908101604052809291908181526020016000905b828210156106f8576000848152602090819020604080518082019091526002850290910180546001600160a01b031682526001908101548284015290835290920191016106b0565b505050509050919050565b60009283526007602090815260408085209385529281528284206001600160a01b039290921684525290205460ff1690565b8161073f8161190f565b61075b5760405162461bcd60e51b81526004016105d590612c37565b61076783600033610703565b806107865750610786836000805160206130ee83398151915233610703565b6107e55760405162461bcd60e51b815260206004820152602a60248201527f4576656e743a2043616c6c6572206973206e6f7420616e2061646d696e206f726044820152691036b7b232b930ba37b960b11b60648201526084016105d5565b6107ef838361192c565b6040518381527ff8e1a15aba9398e019f0b49df1a4fde98ee17ae345cb5f6b5e2c27f5033e8ce79060200160405180910390a1505050565b61083133826119b0565b61084d5760405162461bcd60e51b81526004016105d590612c6e565b610676838383611a0e565b60008281526007602090815260408083208484529091529020600101545b92915050565b61067683838360405180602001604052806000815250611207565b826108a28484610858565b6108ac8282611baa565b6108b7858585611bb5565b5050505050565b806108c88161190f565b6108e45760405162461bcd60e51b81526004016105d590612c37565b6108f082600033610703565b61090c5760405162461bcd60e51b81526004016105d590612cbc565b6000828152600c6020908152604080832081516060810183528154815260018201546001600160a01b031681850152600282018054845181870281018701865281815292959394860193879084015b82821015610a81578382906000526020600020906003020160405180606001604052908160008201548152602001600182018054806020026020016040519081016040528092919081815260200182805480156109d757602002820191906000526020600020905b8154815260200190600101908083116109c3575b505050505081526020016002820180546109f090612bfd565b80601f0160208091040260200160405190810160405280929190818152602001828054610a1c90612bfd565b8015610a695780601f10610a3e57610100808354040283529160200191610a69565b820191906000526020600020905b815481529060010190602001808311610a4c57829003601f168201915b5050505050815250508152602001906001019061095b565b5050509152505060408101519091506000805b8251811015610ae357828181518110610aaf57610aaf612cf3565b60200260200101516020015151600003610ad15781610acd81612d1f565b9250505b80610adb81612d1f565b915050610a94565b5080825114610b445760405162461bcd60e51b815260206004820152602760248201527f4576656e743a204576656e74206d757374206e6f74206861766520736f6c64206044820152667469636b65747360c81b60648201526084016105d5565b6000858152600c602052604081208181556001810180546001600160a01b031916905590610b7560028301826125dc565b50506108b785611c76565b6000818152600260205260408120546001600160a01b0316806108765760405162461bcd60e51b8152602060048201526018602482015277115490cdcc8c4e881a5b9d985b1a59081d1bdad95b88125160421b60448201526064016105d5565b610bec83600033610703565b610c085760405162461bcd60e51b81526004016105d590612cbc565b6106768383836114b9565b60006001600160a01b038216610c7d5760405162461bcd60e51b815260206004820152602960248201527f4552433732313a2061646472657373207a65726f206973206e6f7420612076616044820152683634b21037bbb732b960b91b60648201526084016105d5565b506001600160a01b031660009081526003602052604090205490565b6001600160a01b0381163314610d075760405162461bcd60e51b815260206004820152602d60248201527f526f6c65436f6e74726f6c3a2063616e206f6e6c792072656e6f756e6365207260448201526c37b632b9903337b91039b2b63360991b60648201526084016105d5565b610676838383611bb5565b6000828152600c602052604081206002810154909190610d33906001612d38565b9050600c60008581526020019081526020016000206002016040518060600160405280838152602001600067ffffffffffffffff811115610d7657610d76612867565b604051908082528060200260200182016040528015610d9f578160200160208202803683370190505b5081526020908101869052825460018181018555600094855293829020835160039092020190815582820151805193949193610de3939285019291909101906125fd565b5060408201516002820190610df89082612d99565b50505050505050565b6060600060010180546104b790612bfd565b6002600a5403610e655760405162461bcd60e51b815260206004820152601f60248201527f5265656e7472616e637947756172643a207265656e7472616e742063616c6c0060448201526064016105d5565b6002600a55610e78600b80546001019055565b6000610e83600b5490565b6000818152600c6020526040908190208581556001810180546001600160a01b031916331790559051919250907f9ce3d6db707bca4ba0eabed8fba1e2c013a1c0bc1132a764170a7854d198c73d90610edf9084908690612e59565b60405180910390a1610ef382600033611d44565b610efd3383611d4f565b610f07828461192c565b50506001600a555050565b610f1d338383611e82565b5050565b6060600c6000838152602001908152602001600020600201805480602002602001604051908101604052809291908181526020016000905b828210156106f857838290600052602060002090600302016040518060600160405290816000820154815260200160018201805480602002602001604051908101604052809291908181526020018280548015610fd557602002820191906000526020600020905b815481526020019060010190808311610fc1575b50505050508152602001600282018054610fee90612bfd565b80601f016020809104026020016040519081016040528092919081815260200182805461101a90612bfd565b80156110675780601f1061103c57610100808354040283529160200191611067565b820191906000526020600020905b81548152906001019060200180831161104a57829003601f168201915b50505050508152505081526020019060010190610f59565b6060600061108c600b5490565b905060008060015b8381116110fb576110a781600033610703565b806110c657506110c6816000805160206130ee83398151915233610703565b80156110d657506110d68161190f565b156110e957826110e581612d1f565b9350505b806110f381612d1f565b915050611094565b5060008267ffffffffffffffff81111561111757611117612867565b604051908082528060200260200182016040528015611140578160200160208202803683370190505b50905060015b8481116111cb5761115981600033610703565b806111785750611178816000805160206130ee83398151915233610703565b801561118857506111888161190f565b156111b957808284815181106111a0576111a0612cf3565b6020908102919091010152826111b581612d1f565b9350505b806111c381612d1f565b915050611146565b50949350505050565b6111e083600033610703565b6111fc5760405162461bcd60e51b81526004016105d590612cbc565b610676838383610897565b61121133836119b0565b61122d5760405162461bcd60e51b81526004016105d590612c6e565b61123984848484611f50565b50505050565b606061124a8261184e565b6000828152600660205260408120805461126390612bfd565b80601f016020809104026020016040519081016040528092919081815260200182805461128f90612bfd565b80156112dc5780601f106112b1576101008083540402835291602001916112dc565b820191906000526020600020905b8154815290600101906020018083116112bf57829003601f168201915b5050505050905060006112fa60408051602081019091526000815290565b9050805160000361130c575092915050565b81511561133e578082604051602001611326929190612e72565b60405160208183030381529060405292505050919050565b600081511161135c5760405180602001604052806000815250611377565b8061136685611f83565b604051602001611326929190612e72565b949350505050565b6001600160a01b03918216600090815260056020908152604080832093909416825291909152205460ff1690565b606060006113ba600b5490565b905060008060015b838111611409576000818152600c60205260409020600101546001600160a01b0316156113f757826113f381612d1f565b9350505b8061140181612d1f565b9150506113c2565b5060008267ffffffffffffffff81111561142557611425612867565b60405190808252806020026020018201604052801561144e578160200160208202803683370190505b50905060015b8481116111cb576000818152600c60205260409020600101546001600160a01b0316156114a7578082848151811061148e5761148e612cf3565b6020908102919091010152826114a381612d1f565b9350505b806114b181612d1f565b915050611454565b826114c48484610858565b6114ce8282611baa565b6108b7858585612084565b836114e38161190f565b6114ff5760405162461bcd60e51b81526004016105d590612c37565b6000858152600c602090815260408083208151606080820184528582529381018490529182019290925290916002830191819060005b845481101561169f578985828154811061155157611551612cf3565b9060005260206000209060030201600001540361168d5784818154811061157a5761157a612cf3565b906000526020600020906003020160405180606001604052908160008201548152602001600182018054806020026020016040519081016040528092919081815260200182805480156115ec57602002820191906000526020600020905b8154815260200190600101908083116115d8575b5050505050815260200160028201805461160590612bfd565b80601f016020809104026020016040519081016040528092919081815260200182805461163190612bfd565b801561167e5780601f106116535761010080835404028352916020019161167e565b820191906000526020600020905b81548152906001019060200180831161166157829003601f168201915b50505050508152505091508092505b8061169781612d1f565b915050611535565b5060005b81602001515181101561177157600d546020830151805133926001600160a01b031691636352211e91859081106116dc576116dc612cf3565b60200260200101516040518263ffffffff1660e01b815260040161170291815260200190565b602060405180830381865afa15801561171f573d6000803e3d6000fd5b505050506040513d601f19601f820116820180604052508101906117439190612ea1565b6001600160a01b03160361175f578361175b81612d1f565b9450505b8061176981612d1f565b9150506116a3565b50600d546040516306a2c74f60e21b81526000916001600160a01b031690631a8b1d3c906117a7908c908c903390600401612ebe565b6020604051808303816000875af11580156117c6573d6000803e3d6000fd5b505050506040513d601f19601f820116820180604052508101906117ea9190612ef1565b9050805b8881116118405786600201848154811061180a5761180a612cf3565b6000918252602080832060016003909302018201805492830181558352909120018190558061183881612d1f565b9150506117ee565b505050505050505050505050565b6118578161190f565b61189e5760405162461bcd60e51b8152602060048201526018602482015277115490cdcc8c4e881a5b9d985b1a59081d1bdad95b88125160421b60448201526064016105d5565b50565b600081815260046020526040902080546001600160a01b0319166001600160a01b03841690811790915581906118d682610b80565b6001600160a01b03167f8c5be1e5ebec7d5bd14f71427d1e84f3dd0314c0f7b2291e5b200ac8c7c3b92560405160405180910390a45050565b6000908152600260205260409020546001600160a01b0316151590565b6119358261190f565b6119985760405162461bcd60e51b815260206004820152602e60248201527f45524337323155524953746f726167653a2055524920736574206f66206e6f6e60448201526d32bc34b9ba32b73a103a37b5b2b760911b60648201526084016105d5565b60008281526006602052604090206106768282612d99565b6000806119bc83610b80565b9050806001600160a01b0316846001600160a01b031614806119e357506119e3818561137f565b806113775750836001600160a01b03166119fc8461053a565b6001600160a01b031614949350505050565b826001600160a01b0316611a2182610b80565b6001600160a01b031614611a855760405162461bcd60e51b815260206004820152602560248201527f4552433732313a207472616e736665722066726f6d20696e636f72726563742060448201526437bbb732b960d91b60648201526084016105d5565b6001600160a01b038216611ae75760405162461bcd60e51b8152602060048201526024808201527f4552433732313a207472616e7366657220746f20746865207a65726f206164646044820152637265737360e01b60648201526084016105d5565b611af26000826118a1565b6001600160a01b0383166000908152600360205260408120805460019290611b1b908490612f0a565b90915550506001600160a01b0382166000908152600360205260408120805460019290611b49908490612d38565b909155505060008181526002602052604080822080546001600160a01b0319166001600160a01b0386811691821790925591518493918716917fddf252ad1be2c89b69c2b068fc378daa952ba7f163c4a11628f55a4df523b3ef91a4505050565b610f1d828233612188565b611bc0838383610703565b1561067657600083815260076020908152604080832085845282528083206001600160a01b03851684528252808320805460ff191690556009909152902054611c0984826121ec565b6001600160a01b038216600090815260096020526040812055336001600160a01b0316826001600160a01b0316847f7b00293d63517946aeba2f56c6b4c5dec87b67393ac48520994d3d8ce776335a87604051611c6891815260200190565b60405180910390a450505050565b6000611c8182610b80565b9050611c8e6000836118a1565b6001600160a01b0381166000908152600360205260408120805460019290611cb7908490612f0a565b909155505060008281526002602052604080822080546001600160a01b0319169055518391906001600160a01b038416907fddf252ad1be2c89b69c2b068fc378daa952ba7f163c4a11628f55a4df523b3ef908390a460008281526006602052604090208054611d2690612bfd565b159050610f1d576000828152600660205260408120610f1d91612648565b610676838383612084565b6001600160a01b038216611da55760405162461bcd60e51b815260206004820181905260248201527f4552433732313a206d696e7420746f20746865207a65726f206164647265737360448201526064016105d5565b611dae8161190f565b15611dfb5760405162461bcd60e51b815260206004820152601c60248201527f4552433732313a20746f6b656e20616c7265616479206d696e7465640000000060448201526064016105d5565b6001600160a01b0382166000908152600360205260408120805460019290611e24908490612d38565b909155505060008181526002602052604080822080546001600160a01b0319166001600160a01b03861690811790915590518392907fddf252ad1be2c89b69c2b068fc378daa952ba7f163c4a11628f55a4df523b3ef908290a45050565b816001600160a01b0316836001600160a01b031603611ee35760405162461bcd60e51b815260206004820152601960248201527f4552433732313a20617070726f766520746f2063616c6c65720000000000000060448201526064016105d5565b6001600160a01b03838116600081815260056020908152604080832094871680845294825291829020805460ff191686151590811790915591519182527f17307eab39ab6107e8899845ad3d59bd9653f200f220920489ca2b5937696c31910160405180910390a3505050565b611f5b848484611a0e565b611f67848484846122cf565b6112395760405162461bcd60e51b81526004016105d590612f1d565b606081600003611faa5750506040805180820190915260018152600360fc1b602082015290565b8160005b8115611fd45780611fbe81612d1f565b9150611fcd9050600a83612f85565b9150611fae565b60008167ffffffffffffffff811115611fef57611fef612867565b6040519080825280601f01601f191660200182016040528015612019576020820181803683370190505b5090505b84156113775761202e600183612f0a565b915061203b600a86612f99565b612046906030612d38565b60f81b81838151811061205b5761205b612cf3565b60200101906001600160f81b031916908160001a90535061207d600a86612f85565b945061201d565b61208f838383610703565b61067657600083815260076020908152604080832085845282528083206001600160a01b03858116808652918452828520805460ff19166001908117909155835180850185529283528285018881528987526008865293862080548083018255818852958720845160029097020180546001600160a01b031916969093169590951782559251908301559286905290546121299190612f0a565b6001600160a01b038316600090815260096020526040902055336001600160a01b0316826001600160a01b0316847fd9dfff7752b7a810e2b646c0c96b76bc9ed817f6c6f7848bbe68163f7e8b437887604051611c6891815260200190565b612193838383610703565b610676576121a0816123d0565b6121ab8360206123e2565b6121b485612585565b6040516020016121c693929190612fad565b60408051601f198184030181529082905262461bcd60e51b82526105d591600401612769565b6000828152600860205260409020805461220890600190612f0a565b8154811061221857612218612cf3565b906000526020600020906002020160086000848152602001908152602001600020828154811061224a5761224a612cf3565b60009182526020808320845460029093020180546001600160a01b0319166001600160a01b0390931692909217825560019384015493909101929092558381526008909152604090208054806122a2576122a261304f565b60008281526020812060026000199093019283020180546001600160a01b03191681556001015590555050565b60006001600160a01b0384163b156123c557604051630a85bd0160e11b81526001600160a01b0385169063150b7a0290612313903390899088908890600401613065565b6020604051808303816000875af192505050801561234e575060408051601f3d908101601f1916820190925261234b918101906130a2565b60015b6123ab573d80801561237c576040519150601f19603f3d011682016040523d82523d6000602084013e612381565b606091505b5080516000036123a35760405162461bcd60e51b81526004016105d590612f1d565b805181602001fd5b6001600160e01b031916630a85bd0160e11b149050611377565b506001949350505050565b60606108766001600160a01b03831660145b606060006123f18360026130bf565b6123fc906002612d38565b67ffffffffffffffff81111561241457612414612867565b6040519080825280601f01601f19166020018201604052801561243e576020820181803683370190505b509050600360fc1b8160008151811061245957612459612cf3565b60200101906001600160f81b031916908160001a905350600f60fb1b8160018151811061248857612488612cf3565b60200101906001600160f81b031916908160001a90535060006124ac8460026130bf565b6124b7906001612d38565b90505b600181111561252f576f181899199a1a9b1b9c1cb0b131b232b360811b85600f16601081106124eb576124eb612cf3565b1a60f81b82828151811061250157612501612cf3565b60200101906001600160f81b031916908160001a90535060049490941c93612528816130d6565b90506124ba565b50831561257e5760405162461bcd60e51b815260206004820181905260248201527f537472696e67733a20686578206c656e67746820696e73756666696369656e7460448201526064016105d5565b9392505050565b6060816000036125af5750506040805180820190915260048152630307830360e41b602082015290565b8160005b81156125d257806125c381612d1f565b915050600882901c91506125b3565b61137784826123e2565b508054600082556003029060005260206000209081019061189e9190612682565b828054828255906000526020600020908101928215612638579160200282015b8281111561263857825182559160200191906001019061261d565b506126449291506126b3565b5090565b50805461265490612bfd565b6000825580601f10612664575050565b601f01602090049060005260206000209081019061189e91906126b3565b8082111561264457600080825561269c60018301826126c8565b6126aa600283016000612648565b50600301612682565b5b8082111561264457600081556001016126b4565b508054600082559060005260206000209081019061189e91906126b3565b6001600160e01b03198116811461189e57600080fd5b60006020828403121561270e57600080fd5b813561257e816126e6565b60005b8381101561273457818101518382015260200161271c565b50506000910152565b60008151808452612755816020860160208601612719565b601f01601f19169290920160200192915050565b60208152600061257e602083018461273d565b60006020828403121561278e57600080fd5b5035919050565b6001600160a01b038116811461189e57600080fd5b600080604083850312156127bd57600080fd5b82356127c881612795565b946020939093013593505050565b602080825282518282018190526000919060409081850190868401855b8281101561282157815180516001600160a01b031685528601518685015292840192908501906001016127f3565b5091979650505050505050565b60008060006060848603121561284357600080fd5b8335925060208401359150604084013561285c81612795565b809150509250925092565b634e487b7160e01b600052604160045260246000fd5b600067ffffffffffffffff8084111561289857612898612867565b604051601f8501601f19908116603f011681019082821181831017156128c0576128c0612867565b816040528093508581528686860111156128d957600080fd5b858560208301376000602087830101525050509392505050565b600082601f83011261290457600080fd5b61257e8383356020850161287d565b6000806040838503121561292657600080fd5b82359150602083013567ffffffffffffffff81111561294457600080fd5b612950858286016128f3565b9150509250929050565b60008060006060848603121561296f57600080fd5b833561297a81612795565b9250602084013561298a81612795565b929592945050506040919091013590565b600080604083850312156129ae57600080fd5b50508035926020909101359150565b6000602082840312156129cf57600080fd5b813561257e81612795565b600080604083850312156129ed57600080fd5b82356129f881612795565b915060208301358015158114612a0d57600080fd5b809150509250929050565b600081518084526020808501945080840160005b83811015612a4857815187529582019590820190600101612a2c565b509495945050505050565b60006020808301818452808551808352604092508286019150828160051b87010184880160005b83811015612ad657603f19898403018552815160608151855288820151818a870152612aa882870182612a18565b91505087820151915084810388860152612ac2818361273d565b968901969450505090860190600101612a7a565b509098975050505050505050565b60208152600061257e6020830184612a18565b60008060008060808587031215612b0d57600080fd5b8435612b1881612795565b93506020850135612b2881612795565b925060408501359150606085013567ffffffffffffffff811115612b4b57600080fd5b8501601f81018713612b5c57600080fd5b612b6b8782356020840161287d565b91505092959194509250565b60008060408385031215612b8a57600080fd5b8235612b9581612795565b91506020830135612a0d81612795565b60008060008060808587031215612bbb57600080fd5b8435935060208501359250604085013567ffffffffffffffff811115612be057600080fd5b612bec878288016128f3565b949793965093946060013593505050565b600181811c90821680612c1157607f821691505b602082108103612c3157634e487b7160e01b600052602260045260246000fd5b50919050565b6020808252601c908201527f4576656e743a204576656e7420646f6573206e6f742065786973742100000000604082015260600190565b6020808252602e908201527f4552433732313a2063616c6c6572206973206e6f7420746f6b656e206f776e6560408201526d1c881b9bdc88185c1c1c9bdd995960921b606082015260800190565b6020808252601d908201527f4576656e743a2043616c6c6572206973206e6f7420616e2061646d696e000000604082015260600190565b634e487b7160e01b600052603260045260246000fd5b634e487b7160e01b600052601160045260246000fd5b600060018201612d3157612d31612d09565b5060010190565b8082018082111561087657610876612d09565b601f82111561067657600081815260208120601f850160051c81016020861015612d725750805b601f850160051c820191505b81811015612d9157828155600101612d7e565b505050505050565b815167ffffffffffffffff811115612db357612db3612867565b612dc781612dc18454612bfd565b84612d4b565b602080601f831160018114612dfc5760008415612de45750858301515b600019600386901b1c1916600185901b178555612d91565b600085815260208120601f198616915b82811015612e2b57888601518255948401946001909101908401612e0c565b5085821015612e495787850151600019600388901b60f8161c191681555b5050505050600190811b01905550565b828152604060208201526000611377604083018461273d565b60008351612e84818460208801612719565b835190830190612e98818360208801612719565b01949350505050565b600060208284031215612eb357600080fd5b815161257e81612795565b606081526000612ed1606083018661273d565b6020830194909452506001600160a01b0391909116604090910152919050565b600060208284031215612f0357600080fd5b5051919050565b8181038181111561087657610876612d09565b60208082526032908201527f4552433732313a207472616e7366657220746f206e6f6e20455243373231526560408201527131b2b4bb32b91034b6b83632b6b2b73a32b960711b606082015260800190565b634e487b7160e01b600052601260045260246000fd5b600082612f9457612f94612f6f565b500490565b600082612fa857612fa8612f6f565b500690565b7402937b632a1b7b73a3937b61d1030b1b1b7bab73a1605d1b815260008451612fdd816015850160208901612719565b7001034b99036b4b9b9b4b733903937b6329607d1b601591840191820152845161300e816026840160208901612719565b720103337b91032bb32b73a103bb4ba341034b21606d1b602692909101918201528351613042816039840160208801612719565b0160390195945050505050565b634e487b7160e01b600052603160045260246000fd5b6001600160a01b03858116825284166020820152604081018390526080606082018190526000906130989083018461273d565b9695505050505050565b6000602082840312156130b457600080fd5b815161257e816126e6565b808202811582820484141761087657610876612d09565b6000816130e5576130e5612d09565b50600019019056fe71f3d55856e4058ed06ee057d79ada615f65cdf5f9ee88181b914225088f834fa26469706673582212208917e553da2adf03b60c1f6ae1e53dae5b5594dd329682a151604a3bf0c5766a64736f6c63430008110033",
  "linkReferences": {},
  "deployedLinkReferences": {}
}