{
  "_format": "hh-sol-artifact-1",
  "contractName": "EventFacet",
  "sourceName": "contracts/EventDiamond/facets/EventFacet.sol",
  "abi": [
    {
      "inputs": [
        {
          "internalType": "string",
          "name": "_name",
          "type": "string"
        },
        {
          "internalType": "string",
          "name": "_symbol",
          "type": "string"
        },
        {
          "internalType": "address",
          "name": "_ticketContract",
          "type": "address"
        }
      ],
      "stateMutability": "nonpayable",
      "type": "constructor"
    },
    {
      "anonymous": false,
      "inputs": [
        {
          "indexed": false,
          "internalType": "uint256",
          "name": "eventId",
          "type": "uint256"
        }
      ],
      "name": "AllCategorySellStarted",
      "type": "event"
    },
    {
      "anonymous": false,
      "inputs": [
        {
          "indexed": false,
          "internalType": "uint256",
          "name": "eventId",
          "type": "uint256"
        }
      ],
      "name": "AllCategorySellStopped",
      "type": "event"
    },
    {
      "anonymous": false,
      "inputs": [
        {
          "indexed": true,
          "internalType": "address",
          "name": "owner",
          "type": "address"
        },
        {
          "indexed": true,
          "internalType": "address",
          "name": "approved",
          "type": "address"
        },
        {
          "indexed": true,
          "internalType": "uint256",
          "name": "tokenId",
          "type": "uint256"
        }
      ],
      "name": "Approval",
      "type": "event"
    },
    {
      "anonymous": false,
      "inputs": [
        {
          "indexed": true,
          "internalType": "address",
          "name": "owner",
          "type": "address"
        },
        {
          "indexed": true,
          "internalType": "address",
          "name": "operator",
          "type": "address"
        },
        {
          "indexed": false,
          "internalType": "bool",
          "name": "approved",
          "type": "bool"
        }
      ],
      "name": "ApprovalForAll",
      "type": "event"
    },
    {
      "anonymous": false,
      "inputs": [
        {
          "indexed": false,
          "internalType": "uint256",
          "name": "_fromTokenId",
          "type": "uint256"
        },
        {
          "indexed": false,
          "internalType": "uint256",
          "name": "_toTokenId",
          "type": "uint256"
        }
      ],
      "name": "BatchMetadataUpdate",
      "type": "event"
    },
    {
      "anonymous": false,
      "inputs": [
        {
          "indexed": false,
          "internalType": "uint256",
          "name": "eventId",
          "type": "uint256"
        },
        {
          "indexed": false,
          "internalType": "uint256",
          "name": "categoryId",
          "type": "uint256"
        },
        {
          "indexed": false,
          "internalType": "string",
          "name": "categoryCid",
          "type": "string"
        }
      ],
      "name": "CategoryCreated",
      "type": "event"
    },
    {
      "anonymous": false,
      "inputs": [
        {
          "indexed": false,
          "internalType": "uint256",
          "name": "eventId",
          "type": "uint256"
        },
        {
          "indexed": false,
          "internalType": "uint256",
          "name": "categoryId",
          "type": "uint256"
        }
      ],
      "name": "CategoryDeleted",
      "type": "event"
    },
    {
      "anonymous": false,
      "inputs": [
        {
          "indexed": false,
          "internalType": "uint256",
          "name": "eventId",
          "type": "uint256"
        },
        {
          "indexed": false,
          "internalType": "uint256",
          "name": "categoryId",
          "type": "uint256"
        }
      ],
      "name": "CategorySellStarted",
      "type": "event"
    },
    {
      "anonymous": false,
      "inputs": [
        {
          "indexed": false,
          "internalType": "uint256",
          "name": "eventId",
          "type": "uint256"
        },
        {
          "indexed": false,
          "internalType": "uint256",
          "name": "categoryId",
          "type": "uint256"
        }
      ],
      "name": "CategorySellStopped",
      "type": "event"
    },
    {
      "anonymous": false,
      "inputs": [
        {
          "indexed": false,
          "internalType": "uint256",
          "name": "eventId",
          "type": "uint256"
        },
        {
          "indexed": false,
          "internalType": "uint256",
          "name": "categoryId",
          "type": "uint256"
        }
      ],
      "name": "CategoryUpdated",
      "type": "event"
    },
    {
      "anonymous": false,
      "inputs": [
        {
          "indexed": true,
          "internalType": "uint256",
          "name": "fromTokenId",
          "type": "uint256"
        },
        {
          "indexed": false,
          "internalType": "uint256",
          "name": "toTokenId",
          "type": "uint256"
        },
        {
          "indexed": true,
          "internalType": "address",
          "name": "fromAddress",
          "type": "address"
        },
        {
          "indexed": true,
          "internalType": "address",
          "name": "toAddress",
          "type": "address"
        }
      ],
      "name": "ConsecutiveTransfer",
      "type": "event"
    },
    {
      "anonymous": false,
      "inputs": [
        {
          "indexed": false,
          "internalType": "uint256",
          "name": "eventId",
          "type": "uint256"
        },
        {
          "indexed": false,
          "internalType": "address",
          "name": "account",
          "type": "address"
        },
        {
          "indexed": false,
          "internalType": "address",
          "name": "setter",
          "type": "address"
        }
      ],
      "name": "EventCashierSet",
      "type": "event"
    },
    {
      "anonymous": false,
      "inputs": [
        {
          "indexed": false,
          "internalType": "uint256",
          "name": "eventId",
          "type": "uint256"
        },
        {
          "indexed": false,
          "internalType": "string",
          "name": "metadataUri",
          "type": "string"
        }
      ],
      "name": "EventCreated",
      "type": "event"
    },
    {
      "anonymous": false,
      "inputs": [
        {
          "indexed": false,
          "internalType": "uint256",
          "name": "_tokenId",
          "type": "uint256"
        }
      ],
      "name": "MetadataUpdate",
      "type": "event"
    },
    {
      "anonymous": false,
      "inputs": [
        {
          "indexed": false,
          "internalType": "uint256",
          "name": "eventId",
          "type": "uint256"
        },
        {
          "indexed": true,
          "internalType": "bytes32",
          "name": "role",
          "type": "bytes32"
        },
        {
          "indexed": true,
          "internalType": "bytes32",
          "name": "previousAdminRole",
          "type": "bytes32"
        },
        {
          "indexed": true,
          "internalType": "bytes32",
          "name": "newAdminRole",
          "type": "bytes32"
        }
      ],
      "name": "RoleAdminChanged",
      "type": "event"
    },
    {
      "anonymous": false,
      "inputs": [
        {
          "indexed": false,
          "internalType": "uint256",
          "name": "eventId",
          "type": "uint256"
        },
        {
          "indexed": true,
          "internalType": "bytes32",
          "name": "role",
          "type": "bytes32"
        },
        {
          "indexed": true,
          "internalType": "address",
          "name": "account",
          "type": "address"
        },
        {
          "indexed": true,
          "internalType": "address",
          "name": "sender",
          "type": "address"
        }
      ],
      "name": "RoleGranted",
      "type": "event"
    },
    {
      "anonymous": false,
      "inputs": [
        {
          "indexed": false,
          "internalType": "uint256",
          "name": "eventId",
          "type": "uint256"
        },
        {
          "indexed": true,
          "internalType": "bytes32",
          "name": "role",
          "type": "bytes32"
        },
        {
          "indexed": true,
          "internalType": "address",
          "name": "account",
          "type": "address"
        },
        {
          "indexed": true,
          "internalType": "address",
          "name": "sender",
          "type": "address"
        }
      ],
      "name": "RoleRevoked",
      "type": "event"
    },
    {
      "anonymous": false,
      "inputs": [
        {
          "indexed": false,
          "internalType": "uint256",
          "name": "eventId",
          "type": "uint256"
        },
        {
          "indexed": false,
          "internalType": "uint256",
          "name": "categoryId",
          "type": "uint256"
        },
        {
          "indexed": false,
          "internalType": "uint256",
          "name": "ticketId",
          "type": "uint256"
        },
        {
          "indexed": false,
          "internalType": "address",
          "name": "staffMember",
          "type": "address"
        }
      ],
      "name": "TicketClipped",
      "type": "event"
    },
    {
      "anonymous": false,
      "inputs": [
        {
          "indexed": false,
          "internalType": "uint256",
          "name": "eventId",
          "type": "uint256"
        },
        {
          "indexed": false,
          "internalType": "uint256",
          "name": "categoryId",
          "type": "uint256"
        },
        {
          "indexed": false,
          "internalType": "uint256",
          "name": "ticketCount",
          "type": "uint256"
        },
        {
          "indexed": false,
          "internalType": "address[]",
          "name": "accounts",
          "type": "address[]"
        },
        {
          "indexed": false,
          "internalType": "address",
          "name": "staffMember",
          "type": "address"
        }
      ],
      "name": "TicketsBooked",
      "type": "event"
    },
    {
      "anonymous": false,
      "inputs": [
        {
          "indexed": true,
          "internalType": "address",
          "name": "from",
          "type": "address"
        },
        {
          "indexed": true,
          "internalType": "address",
          "name": "to",
          "type": "address"
        },
        {
          "indexed": true,
          "internalType": "uint256",
          "name": "tokenId",
          "type": "uint256"
        }
      ],
      "name": "Transfer",
      "type": "event"
    },
    {
      "inputs": [],
      "name": "DEFAULT_ADMIN_ROLE",
      "outputs": [
        {
          "internalType": "bytes32",
          "name": "",
          "type": "bytes32"
        }
      ],
      "stateMutability": "view",
      "type": "function"
    },
    {
      "inputs": [],
      "name": "MODERATOR_ROLE",
      "outputs": [
        {
          "internalType": "bytes32",
          "name": "",
          "type": "bytes32"
        }
      ],
      "stateMutability": "view",
      "type": "function"
    },
    {
      "inputs": [],
      "name": "VALIDATOR_ROLE",
      "outputs": [
        {
          "internalType": "bytes32",
          "name": "",
          "type": "bytes32"
        }
      ],
      "stateMutability": "view",
      "type": "function"
    },
    {
      "inputs": [
        {
          "internalType": "uint256",
          "name": "_eventId",
          "type": "uint256"
        },
        {
          "internalType": "bytes32",
          "name": "_role",
          "type": "bytes32"
        },
        {
          "internalType": "address",
          "name": "_account",
          "type": "address"
        }
      ],
      "name": "addTeamMember",
      "outputs": [],
      "stateMutability": "nonpayable",
      "type": "function"
    },
    {
      "inputs": [
        {
          "internalType": "address",
          "name": "to",
          "type": "address"
        },
        {
          "internalType": "uint256",
          "name": "tokenId",
          "type": "uint256"
        }
      ],
      "name": "approve",
      "outputs": [],
      "stateMutability": "nonpayable",
      "type": "function"
    },
    {
      "inputs": [
        {
          "internalType": "address",
          "name": "owner",
          "type": "address"
        }
      ],
      "name": "balanceOf",
      "outputs": [
        {
          "internalType": "uint256",
          "name": "",
          "type": "uint256"
        }
      ],
      "stateMutability": "view",
      "type": "function"
    },
    {
      "inputs": [
        {
          "internalType": "uint256",
          "name": "_eventId",
          "type": "uint256"
        },
        {
          "internalType": "uint256",
          "name": "_categoryId",
          "type": "uint256"
        },
        {
          "internalType": "uint256",
          "name": "_ticketCount",
          "type": "uint256"
        },
        {
          "internalType": "address[]",
          "name": "_accounts",
          "type": "address[]"
        }
      ],
      "name": "bookTickets",
      "outputs": [],
      "stateMutability": "nonpayable",
      "type": "function"
    },
    {
      "inputs": [
        {
          "internalType": "uint256",
          "name": "_eventId",
          "type": "uint256"
        },
        {
          "internalType": "uint256",
          "name": "_categoryId",
          "type": "uint256"
        },
        {
          "internalType": "string",
          "name": "_ticketMetadataURI",
          "type": "string"
        },
        {
          "internalType": "uint256",
          "name": "amount",
          "type": "uint256"
        }
      ],
      "name": "buyTickets",
      "outputs": [],
      "stateMutability": "nonpayable",
      "type": "function"
    },
    {
      "inputs": [
        {
          "internalType": "uint256",
          "name": "_eventId",
          "type": "uint256"
        },
        {
          "internalType": "uint256",
          "name": "_categoryId",
          "type": "uint256"
        },
        {
          "internalType": "uint256",
          "name": "_ticketId",
          "type": "uint256"
        }
      ],
      "name": "clipTicket",
      "outputs": [],
      "stateMutability": "nonpayable",
      "type": "function"
    },
    {
      "inputs": [
        {
          "internalType": "uint256",
          "name": "_maxTicketsPerClient",
          "type": "uint256"
        },
        {
          "internalType": "string",
          "name": "_metadataURI",
          "type": "string"
        }
      ],
      "name": "createEvent",
      "outputs": [],
      "stateMutability": "nonpayable",
      "type": "function"
    },
    {
      "inputs": [
        {
          "internalType": "uint256",
          "name": "_eventId",
          "type": "uint256"
        },
        {
          "internalType": "string",
          "name": "_categoryCid",
          "type": "string"
        }
      ],
      "name": "createTicketCategory",
      "outputs": [],
      "stateMutability": "nonpayable",
      "type": "function"
    },
    {
      "inputs": [],
      "name": "fetchAllEventIds",
      "outputs": [
        {
          "internalType": "uint256[]",
          "name": "",
          "type": "uint256[]"
        }
      ],
      "stateMutability": "view",
      "type": "function"
    },
    {
      "inputs": [
        {
          "internalType": "uint256",
          "name": "_eventId",
          "type": "uint256"
        }
      ],
      "name": "fetchCategoriesByEventId",
      "outputs": [
        {
          "components": [
            {
              "internalType": "uint256",
              "name": "id",
              "type": "uint256"
            },
            {
              "internalType": "uint256[]",
              "name": "ticketIds",
              "type": "uint256[]"
            },
            {
              "internalType": "string",
              "name": "cid",
              "type": "string"
            }
          ],
          "internalType": "struct IEvent.Category[]",
          "name": "",
          "type": "tuple[]"
        }
      ],
      "stateMutability": "view",
      "type": "function"
    },
    {
      "inputs": [],
      "name": "fetchOwnedEvents",
      "outputs": [
        {
          "internalType": "uint256[]",
          "name": "",
          "type": "uint256[]"
        }
      ],
      "stateMutability": "view",
      "type": "function"
    },
    {
      "inputs": [
        {
          "internalType": "uint256",
          "name": "tokenId",
          "type": "uint256"
        }
      ],
      "name": "getApproved",
      "outputs": [
        {
          "internalType": "address",
          "name": "",
          "type": "address"
        }
      ],
      "stateMutability": "view",
      "type": "function"
    },
    {
      "inputs": [
        {
          "internalType": "uint256",
          "name": "eventId",
          "type": "uint256"
        }
      ],
      "name": "getEventMembers",
      "outputs": [
        {
          "components": [
            {
              "internalType": "address",
              "name": "account",
              "type": "address"
            },
            {
              "internalType": "bytes32",
              "name": "role",
              "type": "bytes32"
            }
          ],
          "internalType": "struct RoleControl.MemberData[]",
          "name": "",
          "type": "tuple[]"
        }
      ],
      "stateMutability": "view",
      "type": "function"
    },
    {
      "inputs": [
        {
          "internalType": "uint256",
          "name": "eventId",
          "type": "uint256"
        },
        {
          "internalType": "bytes32",
          "name": "role",
          "type": "bytes32"
        }
      ],
      "name": "getRoleAdmin",
      "outputs": [
        {
          "internalType": "bytes32",
          "name": "",
          "type": "bytes32"
        }
      ],
      "stateMutability": "view",
      "type": "function"
    },
    {
      "inputs": [
        {
          "internalType": "uint256",
          "name": "eventId",
          "type": "uint256"
        },
        {
          "internalType": "bytes32",
          "name": "role",
          "type": "bytes32"
        },
        {
          "internalType": "address",
          "name": "account",
          "type": "address"
        }
      ],
      "name": "grantRole",
      "outputs": [],
      "stateMutability": "nonpayable",
      "type": "function"
    },
    {
      "inputs": [
        {
          "internalType": "uint256",
          "name": "eventId",
          "type": "uint256"
        },
        {
          "internalType": "bytes32",
          "name": "role",
          "type": "bytes32"
        },
        {
          "internalType": "address",
          "name": "account",
          "type": "address"
        }
      ],
      "name": "hasRole",
      "outputs": [
        {
          "internalType": "bool",
          "name": "",
          "type": "bool"
        }
      ],
      "stateMutability": "view",
      "type": "function"
    },
    {
      "inputs": [
        {
          "internalType": "address",
          "name": "owner",
          "type": "address"
        },
        {
          "internalType": "address",
          "name": "operator",
          "type": "address"
        }
      ],
      "name": "isApprovedForAll",
      "outputs": [
        {
          "internalType": "bool",
          "name": "",
          "type": "bool"
        }
      ],
      "stateMutability": "view",
      "type": "function"
    },
    {
      "inputs": [],
      "name": "name",
      "outputs": [
        {
          "internalType": "string",
          "name": "",
          "type": "string"
        }
      ],
      "stateMutability": "view",
      "type": "function"
    },
    {
      "inputs": [
        {
          "internalType": "uint256",
          "name": "tokenId",
          "type": "uint256"
        }
      ],
      "name": "ownerOf",
      "outputs": [
        {
          "internalType": "address",
          "name": "",
          "type": "address"
        }
      ],
      "stateMutability": "view",
      "type": "function"
    },
    {
      "inputs": [
        {
          "internalType": "uint256",
          "name": "_eventId",
          "type": "uint256"
        },
        {
          "internalType": "uint256",
          "name": "_categoryId",
          "type": "uint256"
        }
      ],
      "name": "removeCategory",
      "outputs": [],
      "stateMutability": "nonpayable",
      "type": "function"
    },
    {
      "inputs": [
        {
          "internalType": "uint256",
          "name": "_eventId",
          "type": "uint256"
        }
      ],
      "name": "removeEvent",
      "outputs": [],
      "stateMutability": "nonpayable",
      "type": "function"
    },
    {
      "inputs": [
        {
          "internalType": "uint256",
          "name": "_eventId",
          "type": "uint256"
        },
        {
          "internalType": "bytes32",
          "name": "_role",
          "type": "bytes32"
        },
        {
          "internalType": "address",
          "name": "_account",
          "type": "address"
        }
      ],
      "name": "removeTeamMember",
      "outputs": [],
      "stateMutability": "nonpayable",
      "type": "function"
    },
    {
      "inputs": [
        {
          "internalType": "uint256",
          "name": "eventId",
          "type": "uint256"
        },
        {
          "internalType": "bytes32",
          "name": "role",
          "type": "bytes32"
        },
        {
          "internalType": "address",
          "name": "account",
          "type": "address"
        }
      ],
      "name": "renounceRole",
      "outputs": [],
      "stateMutability": "nonpayable",
      "type": "function"
    },
    {
      "inputs": [
        {
          "internalType": "uint256",
          "name": "eventId",
          "type": "uint256"
        },
        {
          "internalType": "bytes32",
          "name": "role",
          "type": "bytes32"
        },
        {
          "internalType": "address",
          "name": "account",
          "type": "address"
        }
      ],
      "name": "revokeRole",
      "outputs": [],
      "stateMutability": "nonpayable",
      "type": "function"
    },
    {
      "inputs": [
        {
          "internalType": "address",
          "name": "from",
          "type": "address"
        },
        {
          "internalType": "address",
          "name": "to",
          "type": "address"
        },
        {
          "internalType": "uint256",
          "name": "tokenId",
          "type": "uint256"
        }
      ],
      "name": "safeTransferFrom",
      "outputs": [],
      "stateMutability": "nonpayable",
      "type": "function"
    },
    {
      "inputs": [
        {
          "internalType": "address",
          "name": "from",
          "type": "address"
        },
        {
          "internalType": "address",
          "name": "to",
          "type": "address"
        },
        {
          "internalType": "uint256",
          "name": "tokenId",
          "type": "uint256"
        },
        {
          "internalType": "bytes",
          "name": "data",
          "type": "bytes"
        }
      ],
      "name": "safeTransferFrom",
      "outputs": [],
      "stateMutability": "nonpayable",
      "type": "function"
    },
    {
      "inputs": [
        {
          "internalType": "address",
          "name": "operator",
          "type": "address"
        },
        {
          "internalType": "bool",
          "name": "approved",
          "type": "bool"
        }
      ],
      "name": "setApprovalForAll",
      "outputs": [],
      "stateMutability": "nonpayable",
      "type": "function"
    },
    {
      "inputs": [
        {
          "internalType": "uint256",
          "name": "_eventId",
          "type": "uint256"
        },
        {
          "internalType": "address",
          "name": "_account",
          "type": "address"
        }
      ],
      "name": "setEventCashier",
      "outputs": [],
      "stateMutability": "nonpayable",
      "type": "function"
    },
    {
      "inputs": [
        {
          "internalType": "uint256",
          "name": "_eventId",
          "type": "uint256"
        }
      ],
      "name": "startAllCategorySelling",
      "outputs": [],
      "stateMutability": "nonpayable",
      "type": "function"
    },
    {
      "inputs": [
        {
          "internalType": "uint256",
          "name": "_eventId",
          "type": "uint256"
        },
        {
          "internalType": "uint256",
          "name": "_categoryId",
          "type": "uint256"
        }
      ],
      "name": "startCategorySelling",
      "outputs": [],
      "stateMutability": "nonpayable",
      "type": "function"
    },
    {
      "inputs": [
        {
          "internalType": "uint256",
          "name": "_eventId",
          "type": "uint256"
        }
      ],
      "name": "stopAllCategorySelling",
      "outputs": [],
      "stateMutability": "nonpayable",
      "type": "function"
    },
    {
      "inputs": [
        {
          "internalType": "uint256",
          "name": "_eventId",
          "type": "uint256"
        },
        {
          "internalType": "uint256",
          "name": "_categoryId",
          "type": "uint256"
        }
      ],
      "name": "stopCategorySelling",
      "outputs": [],
      "stateMutability": "nonpayable",
      "type": "function"
    },
    {
      "inputs": [
        {
          "internalType": "bytes4",
          "name": "interfaceId",
          "type": "bytes4"
        }
      ],
      "name": "supportsInterface",
      "outputs": [
        {
          "internalType": "bool",
          "name": "",
          "type": "bool"
        }
      ],
      "stateMutability": "view",
      "type": "function"
    },
    {
      "inputs": [],
      "name": "symbol",
      "outputs": [
        {
          "internalType": "string",
          "name": "",
          "type": "string"
        }
      ],
      "stateMutability": "view",
      "type": "function"
    },
    {
      "inputs": [
        {
          "internalType": "uint256",
          "name": "tokenId",
          "type": "uint256"
        }
      ],
      "name": "tokenURI",
      "outputs": [
        {
          "internalType": "string",
          "name": "",
          "type": "string"
        }
      ],
      "stateMutability": "view",
      "type": "function"
    },
    {
      "inputs": [
        {
          "internalType": "address",
          "name": "from",
          "type": "address"
        },
        {
          "internalType": "address",
          "name": "to",
          "type": "address"
        },
        {
          "internalType": "uint256",
          "name": "tokenId",
          "type": "uint256"
        }
      ],
      "name": "transferFrom",
      "outputs": [],
      "stateMutability": "nonpayable",
      "type": "function"
    },
    {
      "inputs": [
        {
          "internalType": "uint256",
          "name": "_eventId",
          "type": "uint256"
        },
        {
          "internalType": "uint256",
          "name": "_categoryId",
          "type": "uint256"
        },
        {
          "internalType": "string",
          "name": "_categoryCid",
          "type": "string"
        }
      ],
      "name": "updateCategoryUri",
      "outputs": [],
      "stateMutability": "nonpayable",
      "type": "function"
    },
    {
      "inputs": [
        {
          "internalType": "uint256",
          "name": "_eventId",
          "type": "uint256"
        },
        {
          "internalType": "string",
          "name": "_newMetadataURI",
          "type": "string"
        }
      ],
      "name": "updateEventTokenUri",
      "outputs": [],
      "stateMutability": "nonpayable",
      "type": "function"
    }
  ],
  "bytecode": "0x60806040523480156200001157600080fd5b5060405162003e5e38038062003e5e833981016040819052620000349162000149565b8282600062000044838262000265565b50600162000053828262000265565b50506001600a5550600e80546001600160a01b0319166001600160a01b039290921691909117905550620003319050565b634e487b7160e01b600052604160045260246000fd5b600082601f830112620000ac57600080fd5b81516001600160401b0380821115620000c957620000c962000084565b604051601f8301601f19908116603f01168101908282118183101715620000f457620000f462000084565b816040528381526020925086838588010111156200011157600080fd5b600091505b8382101562000135578582018301518183018401529082019062000116565b600093810190920192909252949350505050565b6000806000606084860312156200015f57600080fd5b83516001600160401b03808211156200017757600080fd5b62000185878388016200009a565b945060208601519150808211156200019c57600080fd5b50620001ab868287016200009a565b604086015190935090506001600160a01b0381168114620001cb57600080fd5b809150509250925092565b600181811c90821680620001eb57607f821691505b6020821081036200020c57634e487b7160e01b600052602260045260246000fd5b50919050565b601f8211156200026057600081815260208120601f850160051c810160208610156200023b5750805b601f850160051c820191505b818110156200025c5782815560010162000247565b5050505b505050565b81516001600160401b0381111562000281576200028162000084565b6200029981620002928454620001d6565b8462000212565b602080601f831160018114620002d15760008415620002b85750858301515b600019600386901b1c1916600185901b1785556200025c565b600085815260208120601f198616915b828110156200030257888601518255948401946001909101908401620002e1565b5085821015620003215787850151600019600388901b60f8161c191681555b5050505050600190811b01905550565b613b1d80620003416000396000f3fe608060405234801561001057600080fd5b50600436106102535760003560e01c8063724bdedf11610146578063abae6af9116100c3578063c87b56dd11610087578063c87b56dd1461054d578063e985e9c514610560578063f20dddf714610573578063f99c229214610586578063fb42204d1461058e578063fc3291a6146105a157600080fd5b8063abae6af9146104d8578063b0155544146104ed578063b88d4fde14610500578063b926bd6e14610513578063c49baebe1461052657600080fd5b8063a1d255e11161010a578063a1d255e114610477578063a217fddf1461048a578063a22cb46514610492578063a3bdc7c7146104a5578063a4371bd7146104c557600080fd5b8063724bdedf146104215780637283d7421461043457806373a6393814610447578063797669c91461045a57806395d89b411461046f57600080fd5b806333a477bd116101d4578063558e39c411610198578063558e39c4146103c257806356164e1e146103d55780636352211e146103e85780636a4bc7de146103fb57806370a082311461040e57600080fd5b806333a477bd14610355578063397d4dbc146103685780633d378bb01461038957806342842e0e1461039c5780634a120dd7146103af57600080fd5b80630e1b943d1161021b5780630e1b943d146102e9578063119345aa146103095780631cdf29c71461031c5780632053d82c1461032f57806323b872dd1461034257600080fd5b806301ffc9a71461025857806306a5bcd21461028157806306fdde0314610296578063081812fc146102ab578063095ea7b3146102d6575b600080fd5b61026c610266366004612e6f565b50600090565b60405190151581526020015b60405180910390f35b61029461028f366004612ee7565b6105b4565b005b61029e610670565b6040516102789190613005565b6102be6102b9366004613018565b610704565b6040516001600160a01b039091168152602001610278565b6102946102e4366004613031565b61072b565b6102fc6102f7366004613018565b610840565b604051610278919061305d565b61026c6103173660046130b5565b6108c8565b61029461032a3660046130ee565b6108fa565b61029461033d366004613195565b610999565b6102946103503660046131db565b610a40565b610294610363366004613018565b610a71565b61037b61037636600461321c565b610b16565b604051908152602001610278565b61029461039736600461321c565b610b3a565b6102946103aa3660046131db565b610bdd565b6102946103bd3660046130b5565b610bf8565b6102946103d036600461323e565b610c1f565b6102946103e3366004613018565b610cda565b6102be6103f6366004613018565b610f9c565b6102946104093660046130b5565b610ffc565b61037b61041c36600461326a565b61102f565b61029461042f3660046130b5565b6110b5565b61029461044236600461321c565b61112e565b610294610455366004613195565b6111d1565b61037b600080516020613ac883398151915281565b61029e611351565b610294610485366004613195565b611363565b61037b600081565b6102946104a0366004613287565b611462565b6104b86104b3366004613018565b611471565b60405161027891906132f5565b6102946104d3366004613386565b6115cf565b6104e06116b6565b60405161027891906133d5565b6102946104fb3660046130b5565b61180a565b61029461050e3660046133e8565b61183d565b610294610521366004613018565b611875565b61037b7f21702c8af46127c7fa207f89d0b0a8441bb32959a0ac7df790e9ab1a25c9892681565b61029e61055b366004613018565b611912565b61026c61056e366004613467565b611a52565b61029461058136600461321c565b611a80565b6104e0611b23565b61029461059c3660046130b5565b611c2e565b6102946105af366004613495565b611c4e565b836105be81611fc3565b6105e35760405162461bcd60e51b81526004016105da906134ec565b60405180910390fd5b6105ef856000336108c8565b8061060e575061060e85600080516020613ac8833981519152336108c8565b61062a5760405162461bcd60e51b81526004016105da90613523565b7f5f183d9cf5454d6fc91379ef5dce8b6a4543ec2c03a1d6376579c9a6949b2cb3858585853360405161066195949392919061356d565b60405180910390a15050505050565b6060600080018054610681906135e7565b80601f01602080910402602001604051908101604052809291908181526020018280546106ad906135e7565b80156106fa5780601f106106cf576101008083540402835291602001916106fa565b820191906000526020600020905b8154815290600101906020018083116106dd57829003601f168201915b5050505050905090565b600061070f82611fe0565b506000908152600460205260409020546001600160a01b031690565b600061073682610f9c565b9050806001600160a01b0316836001600160a01b0316036107a35760405162461bcd60e51b815260206004820152602160248201527f4552433732313a20617070726f76616c20746f2063757272656e74206f776e656044820152603960f91b60648201526084016105da565b336001600160a01b03821614806107bf57506107bf8133611a52565b6108315760405162461bcd60e51b815260206004820152603e60248201527f4552433732313a20617070726f76652063616c6c6572206973206e6f7420746f60448201527f6b656e206f776e6572206e6f7220617070726f76656420666f7220616c6c000060648201526084016105da565b61083b8383612033565b505050565b606060086000838152602001908152602001600020805480602002602001604051908101604052809291908181526020016000905b828210156108bd576000848152602090819020604080518082019091526002850290910180546001600160a01b03168252600190810154828401529083529092019101610875565b505050509050919050565b60009283526007602090815260408085209385529281528284206001600160a01b039290921684525290205460ff1690565b8161090481611fc3565b6109205760405162461bcd60e51b81526004016105da906134ec565b61092c836000336108c8565b6109485760405162461bcd60e51b81526004016105da90613621565b604080518481526001600160a01b038416602082015233918101919091527f9f54db3c6775e8717da6972b09a7ed552d62f5fd63696a1a75e58f61bd240193906060015b60405180910390a1505050565b816109a381611fc3565b6109bf5760405162461bcd60e51b81526004016105da906134ec565b6109cb836000336108c8565b806109ea57506109ea83600080516020613ac8833981519152336108c8565b610a065760405162461bcd60e51b81526004016105da90613523565b610a1083836120a1565b6040518381527ff8e1a15aba9398e019f0b49df1a4fde98ee17ae345cb5f6b5e2c27f5033e8ce79060200161098c565b610a4a3382612125565b610a665760405162461bcd60e51b81526004016105da90613658565b61083b838383612183565b80610a7b81611fc3565b610a975760405162461bcd60e51b81526004016105da906134ec565b610aa3826000336108c8565b80610ac25750610ac282600080516020613ac8833981519152336108c8565b610ade5760405162461bcd60e51b81526004016105da90613523565b6040518281527fa4f54158d64aad2b971e0553dae4ee675d344a6878feb2e498aae9fed2fa5a2f906020015b60405180910390a15050565b60008281526007602090815260408083208484529091529020600101545b92915050565b81610b4481611fc3565b610b605760405162461bcd60e51b81526004016105da906134ec565b610b6c836000336108c8565b80610b8b5750610b8b83600080516020613ac8833981519152336108c8565b610ba75760405162461bcd60e51b81526004016105da90613523565b60408051848152602081018490527ff67e86d3ffc2c26729aac7f4e3e07e009ad076ace7cd9e9fc184fd452ac0cc85910161098c565b61083b8383836040518060200160405280600081525061183d565b82610c038484610b16565b610c0d828261231f565b610c1885858561232a565b5050505050565b82610c2981611fc3565b610c455760405162461bcd60e51b81526004016105da906134ec565b610c51846000336108c8565b80610c705750610c7084600080516020613ac8833981519152336108c8565b610c8c5760405162461bcd60e51b81526004016105da90613523565b60408051858152602081018590529081018390523360608201527f2dcc6bceb950de206af8457a1b2083cbb47b6b70918a66be78ab4d128fee79f0906080015b60405180910390a150505050565b80610ce481611fc3565b610d005760405162461bcd60e51b81526004016105da906134ec565b610d0c826000336108c8565b610d285760405162461bcd60e51b81526004016105da90613621565b6000828152600d6020908152604080832081516060810183528154815260018201546001600160a01b031681850152600282018054845181870281018701865281815292959394860193879084015b82821015610e9d57838290600052602060002090600302016040518060600160405290816000820154815260200160018201805480602002602001604051908101604052809291908181526020018280548015610df357602002820191906000526020600020905b815481526020019060010190808311610ddf575b50505050508152602001600282018054610e0c906135e7565b80601f0160208091040260200160405190810160405280929190818152602001828054610e38906135e7565b8015610e855780601f10610e5a57610100808354040283529160200191610e85565b820191906000526020600020905b815481529060010190602001808311610e6857829003601f168201915b50505050508152505081526020019060010190610d77565b5050509152505060408101519091506000805b8251811015610eff57828181518110610ecb57610ecb6136a6565b60200260200101516020015151600003610eed5781610ee9816136d2565b9250505b80610ef7816136d2565b915050610eb0565b5080825114610f605760405162461bcd60e51b815260206004820152602760248201527f4576656e743a204576656e74206d757374206e6f74206861766520736f6c64206044820152667469636b65747360c81b60648201526084016105da565b6000858152600d602052604081208181556001810180546001600160a01b031916905590610f916002830182612d4f565b5050610c18856123eb565b6000818152600260205260408120546001600160a01b031680610b345760405162461bcd60e51b8152602060048201526018602482015277115490cdcc8c4e881a5b9d985b1a59081d1bdad95b88125160421b60448201526064016105da565b611008836000336108c8565b6110245760405162461bcd60e51b81526004016105da90613621565b61083b838383611c2e565b60006001600160a01b0382166110995760405162461bcd60e51b815260206004820152602960248201527f4552433732313a2061646472657373207a65726f206973206e6f7420612076616044820152683634b21037bbb732b960b91b60648201526084016105da565b506001600160a01b031660009081526003602052604090205490565b6001600160a01b03811633146111235760405162461bcd60e51b815260206004820152602d60248201527f526f6c65436f6e74726f6c3a2063616e206f6e6c792072656e6f756e6365207260448201526c37b632b9903337b91039b2b63360991b60648201526084016105da565b61083b83838361232a565b8161113881611fc3565b6111545760405162461bcd60e51b81526004016105da906134ec565b611160836000336108c8565b8061117f575061117f83600080516020613ac8833981519152336108c8565b61119b5760405162461bcd60e51b81526004016105da90613523565b60408051848152602081018490527fbaa4fa805691a368b152481f5d9c567760b5459268d3429f9892ec43b5c59535910161098c565b816111db81611fc3565b6111f75760405162461bcd60e51b81526004016105da906134ec565b611203836000336108c8565b80611222575061122283600080516020613ac8833981519152336108c8565b61123e5760405162461bcd60e51b81526004016105da90613523565b61124c600c80546001019055565b6000611257600c5490565b9050600d6000858152602001908152602001600020600201604051806060016040528083815260200160006001600160401b0381111561129957611299612e8c565b6040519080825280602002602001820160405280156112c2578160200160208202803683370190505b508152602090810186905282546001818101855560009485529382902083516003909202019081558282015180519394919361130693928501929190910190612d70565b506040820151600282019061131b9082613739565b5050507f2a94cd6b8e4219d087c43453e983d276c11f9ba16e547f01adb19edb60ae3c7d848285604051610ccc939291906137f8565b606060006001018054610681906135e7565b6002600a54036113b55760405162461bcd60e51b815260206004820152601f60248201527f5265656e7472616e637947756172643a207265656e7472616e742063616c6c0060448201526064016105da565b6002600a556113c8600b80546001019055565b60006113d3600b5490565b6000818152600d6020526040908190208581556001810180546001600160a01b031916331790559051919250907f9ce3d6db707bca4ba0eabed8fba1e2c013a1c0bc1132a764170a7854d198c73d9061142f9084908690613820565b60405180910390a1611443826000336124b9565b61144d33836124c4565b61145782846120a1565b50506001600a555050565b61146d3383836125f7565b5050565b6060600d6000838152602001908152602001600020600201805480602002602001604051908101604052809291908181526020016000905b828210156108bd5783829060005260206000209060030201604051806060016040529081600082015481526020016001820180548060200260200160405190810160405280929190818152602001828054801561152557602002820191906000526020600020905b815481526020019060010190808311611511575b5050505050815260200160028201805461153e906135e7565b80601f016020809104026020016040519081016040528092919081815260200182805461156a906135e7565b80156115b75780601f1061158c576101008083540402835291602001916115b7565b820191906000526020600020905b81548152906001019060200180831161159a57829003601f168201915b505050505081525050815260200190600101906114a9565b826115d981611fc3565b6115f55760405162461bcd60e51b81526004016105da906134ec565b611601846000336108c8565b80611620575061162084600080516020613ac8833981519152336108c8565b61163c5760405162461bcd60e51b81526004016105da90613523565b6000848152600d60205260409020600201805483919085908110611662576116626136a6565b9060005260206000209060030201600201908161167f9190613739565b5060408051858152602081018590527f44df894581249b9c6cda25b6fe8239320be1641adde53f17479b4153cadfcc609101610ccc565b606060006116c3600b5490565b905060008060015b838111611732576116de816000336108c8565b806116fd57506116fd81600080516020613ac8833981519152336108c8565b801561170d575061170d81611fc3565b15611720578261171c816136d2565b9350505b8061172a816136d2565b9150506116cb565b506000826001600160401b0381111561174d5761174d612e8c565b604051908082528060200260200182016040528015611776578160200160208202803683370190505b50905060015b8481116118015761178f816000336108c8565b806117ae57506117ae81600080516020613ac8833981519152336108c8565b80156117be57506117be81611fc3565b156117ef57808284815181106117d6576117d66136a6565b6020908102919091010152826117eb816136d2565b9350505b806117f9816136d2565b91505061177c565b50949350505050565b611816836000336108c8565b6118325760405162461bcd60e51b81526004016105da90613621565b61083b838383610bf8565b6118473383612125565b6118635760405162461bcd60e51b81526004016105da90613658565b61186f848484846126c5565b50505050565b8061187f81611fc3565b61189b5760405162461bcd60e51b81526004016105da906134ec565b6118a7826000336108c8565b806118c657506118c682600080516020613ac8833981519152336108c8565b6118e25760405162461bcd60e51b81526004016105da90613523565b6040518281527f5137e27888fb7f8000a76dda6b1f0c6365f53378d64dd9676d82a6888a50811090602001610b0a565b606061191d82611fe0565b60008281526006602052604081208054611936906135e7565b80601f0160208091040260200160405190810160405280929190818152602001828054611962906135e7565b80156119af5780601f10611984576101008083540402835291602001916119af565b820191906000526020600020905b81548152906001019060200180831161199257829003601f168201915b5050505050905060006119cd60408051602081019091526000815290565b905080516000036119df575092915050565b815115611a115780826040516020016119f9929190613839565b60405160208183030381529060405292505050919050565b6000815111611a2f5760405180602001604052806000815250611a4a565b80611a39856126f8565b6040516020016119f9929190613839565b949350505050565b6001600160a01b03918216600090815260056020908152604080832093909416825291909152205460ff1690565b81611a8a81611fc3565b611aa65760405162461bcd60e51b81526004016105da906134ec565b611ab2836000336108c8565b80611ad15750611ad183600080516020613ac8833981519152336108c8565b611aed5760405162461bcd60e51b81526004016105da90613523565b60408051848152602081018490527f7e40298160ac4a60b736c63fec6ed6fe71621205604304b21bcfa9d48d660be8910161098c565b60606000611b30600b5490565b905060008060015b838111611b7f576000818152600d60205260409020600101546001600160a01b031615611b6d5782611b69816136d2565b9350505b80611b77816136d2565b915050611b38565b506000826001600160401b03811115611b9a57611b9a612e8c565b604051908082528060200260200182016040528015611bc3578160200160208202803683370190505b50905060015b848111611801576000818152600d60205260409020600101546001600160a01b031615611c1c5780828481518110611c0357611c036136a6565b602090810291909101015282611c18816136d2565b9350505b80611c26816136d2565b915050611bc9565b82611c398484610b16565b611c43828261231f565b610c188585856127f8565b83611c5881611fc3565b611c745760405162461bcd60e51b81526004016105da906134ec565b6000858152600d602090815260408083208151606080820184528582529381018490529182019290925290916002830191819060005b8454811015611e145789858281548110611cc657611cc66136a6565b90600052602060002090600302016000015403611e0257848181548110611cef57611cef6136a6565b90600052602060002090600302016040518060600160405290816000820154815260200160018201805480602002602001604051908101604052809291908181526020018280548015611d6157602002820191906000526020600020905b815481526020019060010190808311611d4d575b50505050508152602001600282018054611d7a906135e7565b80601f0160208091040260200160405190810160405280929190818152602001828054611da6906135e7565b8015611df35780601f10611dc857610100808354040283529160200191611df3565b820191906000526020600020905b815481529060010190602001808311611dd657829003601f168201915b50505050508152505091508092505b80611e0c816136d2565b915050611caa565b5060005b816020015151811015611ee657600e546020830151805133926001600160a01b031691636352211e9185908110611e5157611e516136a6565b60200260200101516040518263ffffffff1660e01b8152600401611e7791815260200190565b602060405180830381865afa158015611e94573d6000803e3d6000fd5b505050506040513d601f19601f82011682018060405250810190611eb89190613868565b6001600160a01b031603611ed45783611ed0816136d2565b9450505b80611ede816136d2565b915050611e18565b50600e546040516306a2c74f60e21b81526000916001600160a01b031690631a8b1d3c90611f1c908c908c903390600401613885565b6020604051808303816000875af1158015611f3b573d6000803e3d6000fd5b505050506040513d601f19601f82011682018060405250810190611f5f91906138b8565b9050805b888111611fb557866002018481548110611f7f57611f7f6136a6565b60009182526020808320600160039093020182018054928301815583529091200181905580611fad816136d2565b915050611f63565b505050505050505050505050565b6000908152600260205260409020546001600160a01b0316151590565b611fe981611fc3565b6120305760405162461bcd60e51b8152602060048201526018602482015277115490cdcc8c4e881a5b9d985b1a59081d1bdad95b88125160421b60448201526064016105da565b50565b600081815260046020526040902080546001600160a01b0319166001600160a01b038416908117909155819061206882610f9c565b6001600160a01b03167f8c5be1e5ebec7d5bd14f71427d1e84f3dd0314c0f7b2291e5b200ac8c7c3b92560405160405180910390a45050565b6120aa82611fc3565b61210d5760405162461bcd60e51b815260206004820152602e60248201527f45524337323155524953746f726167653a2055524920736574206f66206e6f6e60448201526d32bc34b9ba32b73a103a37b5b2b760911b60648201526084016105da565b600082815260066020526040902061083b8282613739565b60008061213183610f9c565b9050806001600160a01b0316846001600160a01b0316148061215857506121588185611a52565b80611a4a5750836001600160a01b031661217184610704565b6001600160a01b031614949350505050565b826001600160a01b031661219682610f9c565b6001600160a01b0316146121fa5760405162461bcd60e51b815260206004820152602560248201527f4552433732313a207472616e736665722066726f6d20696e636f72726563742060448201526437bbb732b960d91b60648201526084016105da565b6001600160a01b03821661225c5760405162461bcd60e51b8152602060048201526024808201527f4552433732313a207472616e7366657220746f20746865207a65726f206164646044820152637265737360e01b60648201526084016105da565b612267600082612033565b6001600160a01b03831660009081526003602052604081208054600192906122909084906138d1565b90915550506001600160a01b03821660009081526003602052604081208054600192906122be9084906138e4565b909155505060008181526002602052604080822080546001600160a01b0319166001600160a01b0386811691821790925591518493918716917fddf252ad1be2c89b69c2b068fc378daa952ba7f163c4a11628f55a4df523b3ef91a4505050565b61146d8282336128fc565b6123358383836108c8565b1561083b57600083815260076020908152604080832085845282528083206001600160a01b03851684528252808320805460ff19169055600990915290205461237e8482612960565b6001600160a01b038216600090815260096020526040812055336001600160a01b0316826001600160a01b0316847f7b00293d63517946aeba2f56c6b4c5dec87b67393ac48520994d3d8ce776335a876040516123dd91815260200190565b60405180910390a450505050565b60006123f682610f9c565b9050612403600083612033565b6001600160a01b038116600090815260036020526040812080546001929061242c9084906138d1565b909155505060008281526002602052604080822080546001600160a01b0319169055518391906001600160a01b038416907fddf252ad1be2c89b69c2b068fc378daa952ba7f163c4a11628f55a4df523b3ef908390a46000828152600660205260409020805461249b906135e7565b15905061146d57600082815260066020526040812061146d91612dbb565b61083b8383836127f8565b6001600160a01b03821661251a5760405162461bcd60e51b815260206004820181905260248201527f4552433732313a206d696e7420746f20746865207a65726f206164647265737360448201526064016105da565b61252381611fc3565b156125705760405162461bcd60e51b815260206004820152601c60248201527f4552433732313a20746f6b656e20616c7265616479206d696e7465640000000060448201526064016105da565b6001600160a01b03821660009081526003602052604081208054600192906125999084906138e4565b909155505060008181526002602052604080822080546001600160a01b0319166001600160a01b03861690811790915590518392907fddf252ad1be2c89b69c2b068fc378daa952ba7f163c4a11628f55a4df523b3ef908290a45050565b816001600160a01b0316836001600160a01b0316036126585760405162461bcd60e51b815260206004820152601960248201527f4552433732313a20617070726f766520746f2063616c6c65720000000000000060448201526064016105da565b6001600160a01b03838116600081815260056020908152604080832094871680845294825291829020805460ff191686151590811790915591519182527f17307eab39ab6107e8899845ad3d59bd9653f200f220920489ca2b5937696c31910160405180910390a3505050565b6126d0848484612183565b6126dc84848484612a43565b61186f5760405162461bcd60e51b81526004016105da906138f7565b60608160000361271f5750506040805180820190915260018152600360fc1b602082015290565b8160005b81156127495780612733816136d2565b91506127429050600a8361395f565b9150612723565b6000816001600160401b0381111561276357612763612e8c565b6040519080825280601f01601f19166020018201604052801561278d576020820181803683370190505b5090505b8415611a4a576127a26001836138d1565b91506127af600a86613973565b6127ba9060306138e4565b60f81b8183815181106127cf576127cf6136a6565b60200101906001600160f81b031916908160001a9053506127f1600a8661395f565b9450612791565b6128038383836108c8565b61083b57600083815260076020908152604080832085845282528083206001600160a01b03858116808652918452828520805460ff19166001908117909155835180850185529283528285018881528987526008865293862080548083018255818852958720845160029097020180546001600160a01b0319169690931695909517825592519083015592869052905461289d91906138d1565b6001600160a01b038316600090815260096020526040902055336001600160a01b0316826001600160a01b0316847fd9dfff7752b7a810e2b646c0c96b76bc9ed817f6c6f7848bbe68163f7e8b4378876040516123dd91815260200190565b6129078383836108c8565b61083b5761291481612b44565b61291f836020612b56565b61292885612cf8565b60405160200161293a93929190613987565b60408051601f198184030181529082905262461bcd60e51b82526105da91600401613005565b6000828152600860205260409020805461297c906001906138d1565b8154811061298c5761298c6136a6565b90600052602060002090600202016008600084815260200190815260200160002082815481106129be576129be6136a6565b60009182526020808320845460029093020180546001600160a01b0319166001600160a01b039093169290921782556001938401549390910192909255838152600890915260409020805480612a1657612a16613a29565b60008281526020812060026000199093019283020180546001600160a01b03191681556001015590555050565b60006001600160a01b0384163b15612b3957604051630a85bd0160e11b81526001600160a01b0385169063150b7a0290612a87903390899088908890600401613a3f565b6020604051808303816000875af1925050508015612ac2575060408051601f3d908101601f19168201909252612abf91810190613a7c565b60015b612b1f573d808015612af0576040519150601f19603f3d011682016040523d82523d6000602084013e612af5565b606091505b508051600003612b175760405162461bcd60e51b81526004016105da906138f7565b805181602001fd5b6001600160e01b031916630a85bd0160e11b149050611a4a565b506001949350505050565b6060610b346001600160a01b03831660145b60606000612b65836002613a99565b612b709060026138e4565b6001600160401b03811115612b8757612b87612e8c565b6040519080825280601f01601f191660200182016040528015612bb1576020820181803683370190505b509050600360fc1b81600081518110612bcc57612bcc6136a6565b60200101906001600160f81b031916908160001a905350600f60fb1b81600181518110612bfb57612bfb6136a6565b60200101906001600160f81b031916908160001a9053506000612c1f846002613a99565b612c2a9060016138e4565b90505b6001811115612ca2576f181899199a1a9b1b9c1cb0b131b232b360811b85600f1660108110612c5e57612c5e6136a6565b1a60f81b828281518110612c7457612c746136a6565b60200101906001600160f81b031916908160001a90535060049490941c93612c9b81613ab0565b9050612c2d565b508315612cf15760405162461bcd60e51b815260206004820181905260248201527f537472696e67733a20686578206c656e67746820696e73756666696369656e7460448201526064016105da565b9392505050565b606081600003612d225750506040805180820190915260048152630307830360e41b602082015290565b8160005b8115612d455780612d36816136d2565b915050600882901c9150612d26565b611a4a8482612b56565b50805460008255600302906000526020600020908101906120309190612df5565b828054828255906000526020600020908101928215612dab579160200282015b82811115612dab578251825591602001919060010190612d90565b50612db7929150612e26565b5090565b508054612dc7906135e7565b6000825580601f10612dd7575050565b601f0160209004906000526020600020908101906120309190612e26565b80821115612db7576000808255612e0f6001830182612e3b565b612e1d600283016000612dbb565b50600301612df5565b5b80821115612db75760008155600101612e27565b50805460008255906000526020600020908101906120309190612e26565b6001600160e01b03198116811461203057600080fd5b600060208284031215612e8157600080fd5b8135612cf181612e59565b634e487b7160e01b600052604160045260246000fd5b604051601f8201601f191681016001600160401b0381118282101715612eca57612eca612e8c565b604052919050565b6001600160a01b038116811461203057600080fd5b60008060008060808587031215612efd57600080fd5b8435935060208086013593506040860135925060608601356001600160401b0380821115612f2a57600080fd5b818801915088601f830112612f3e57600080fd5b813581811115612f5057612f50612e8c565b8060051b9150612f61848301612ea2565b818152918301840191848101908b841115612f7b57600080fd5b938501935b83851015612fa55784359250612f9583612ed2565b8282529385019390850190612f80565b989b979a50959850505050505050565b60005b83811015612fd0578181015183820152602001612fb8565b50506000910152565b60008151808452612ff1816020860160208601612fb5565b601f01601f19169290920160200192915050565b602081526000612cf16020830184612fd9565b60006020828403121561302a57600080fd5b5035919050565b6000806040838503121561304457600080fd5b823561304f81612ed2565b946020939093013593505050565b602080825282518282018190526000919060409081850190868401855b828110156130a857815180516001600160a01b0316855286015186850152928401929085019060010161307a565b5091979650505050505050565b6000806000606084860312156130ca57600080fd5b833592506020840135915060408401356130e381612ed2565b809150509250925092565b6000806040838503121561310157600080fd5b82359150602083013561311381612ed2565b809150509250929050565b60006001600160401b0383111561313757613137612e8c565b61314a601f8401601f1916602001612ea2565b905082815283838301111561315e57600080fd5b828260208301376000602084830101529392505050565b600082601f83011261318657600080fd5b612cf18383356020850161311e565b600080604083850312156131a857600080fd5b8235915060208301356001600160401b038111156131c557600080fd5b6131d185828601613175565b9150509250929050565b6000806000606084860312156131f057600080fd5b83356131fb81612ed2565b9250602084013561320b81612ed2565b929592945050506040919091013590565b6000806040838503121561322f57600080fd5b50508035926020909101359150565b60008060006060848603121561325357600080fd5b505081359360208301359350604090920135919050565b60006020828403121561327c57600080fd5b8135612cf181612ed2565b6000806040838503121561329a57600080fd5b82356132a581612ed2565b91506020830135801515811461311357600080fd5b600081518084526020808501945080840160005b838110156132ea578151875295820195908201906001016132ce565b509495945050505050565b60006020808301818452808551808352604092508286019150828160051b87010184880160005b8381101561337857603f19898403018552815160608151855288820151818a87015261334a828701826132ba565b915050878201519150848103888601526133648183612fd9565b96890196945050509086019060010161331c565b509098975050505050505050565b60008060006060848603121561339b57600080fd5b833592506020840135915060408401356001600160401b038111156133bf57600080fd5b6133cb86828701613175565b9150509250925092565b602081526000612cf160208301846132ba565b600080600080608085870312156133fe57600080fd5b843561340981612ed2565b9350602085013561341981612ed2565b92506040850135915060608501356001600160401b0381111561343b57600080fd5b8501601f8101871361344c57600080fd5b61345b8782356020840161311e565b91505092959194509250565b6000806040838503121561347a57600080fd5b823561348581612ed2565b9150602083013561311381612ed2565b600080600080608085870312156134ab57600080fd5b843593506020850135925060408501356001600160401b038111156134cf57600080fd5b6134db87828801613175565b949793965093946060013593505050565b6020808252601c908201527f4576656e743a204576656e7420646f6573206e6f742065786973742100000000604082015260600190565b6020808252602a908201527f4576656e743a2043616c6c6572206973206e6f7420616e2061646d696e206f726040820152691036b7b232b930ba37b960b11b606082015260800190565b600060a082018783526020878185015286604085015260a0606085015281865180845260c086019150828801935060005b818110156135c35784516001600160a01b03168352938301939183019160010161359e565b50506001600160a01b03959095166080949094019390935250919695505050505050565b600181811c908216806135fb57607f821691505b60208210810361361b57634e487b7160e01b600052602260045260246000fd5b50919050565b6020808252601d908201527f4576656e743a2043616c6c6572206973206e6f7420616e2061646d696e000000604082015260600190565b6020808252602e908201527f4552433732313a2063616c6c6572206973206e6f7420746f6b656e206f776e6560408201526d1c881b9bdc88185c1c1c9bdd995960921b606082015260800190565b634e487b7160e01b600052603260045260246000fd5b634e487b7160e01b600052601160045260246000fd5b6000600182016136e4576136e46136bc565b5060010190565b601f82111561083b57600081815260208120601f850160051c810160208610156137125750805b601f850160051c820191505b818110156137315782815560010161371e565b505050505050565b81516001600160401b0381111561375257613752612e8c565b6137668161376084546135e7565b846136eb565b602080601f83116001811461379b57600084156137835750858301515b600019600386901b1c1916600185901b178555613731565b600085815260208120601f198616915b828110156137ca578886015182559484019460019091019084016137ab565b50858210156137e85787850151600019600388901b60f8161c191681555b5050505050600190811b01905550565b8381528260208201526060604082015260006138176060830184612fd9565b95945050505050565b828152604060208201526000611a4a6040830184612fd9565b6000835161384b818460208801612fb5565b83519083019061385f818360208801612fb5565b01949350505050565b60006020828403121561387a57600080fd5b8151612cf181612ed2565b6060815260006138986060830186612fd9565b6020830194909452506001600160a01b0391909116604090910152919050565b6000602082840312156138ca57600080fd5b5051919050565b81810381811115610b3457610b346136bc565b80820180821115610b3457610b346136bc565b60208082526032908201527f4552433732313a207472616e7366657220746f206e6f6e20455243373231526560408201527131b2b4bb32b91034b6b83632b6b2b73a32b960711b606082015260800190565b634e487b7160e01b600052601260045260246000fd5b60008261396e5761396e613949565b500490565b60008261398257613982613949565b500690565b7402937b632a1b7b73a3937b61d1030b1b1b7bab73a1605d1b8152600084516139b7816015850160208901612fb5565b7001034b99036b4b9b9b4b733903937b6329607d1b60159184019182015284516139e8816026840160208901612fb5565b720103337b91032bb32b73a103bb4ba341034b21606d1b602692909101918201528351613a1c816039840160208801612fb5565b0160390195945050505050565b634e487b7160e01b600052603160045260246000fd5b6001600160a01b0385811682528416602082015260408101839052608060608201819052600090613a7290830184612fd9565b9695505050505050565b600060208284031215613a8e57600080fd5b8151612cf181612e59565b8082028115828204841417610b3457610b346136bc565b600081613abf57613abf6136bc565b50600019019056fe71f3d55856e4058ed06ee057d79ada615f65cdf5f9ee88181b914225088f834fa2646970667358221220d3eed14001fc3028e3886c99d8b8ddefa6dce88c131ac6e3c18222991ead65dc64736f6c63430008110033",
  "linkReferences": {},
  "deployedLinkReferences": {}
}