{
  "_format": "hh-sol-artifact-1",
  "contractName": "EventFacet",
  "sourceName": "contracts/EventDiamond/facets/EventFacet.sol",
  "abi": [
    {
      "anonymous": false,
      "inputs": [
        {
          "indexed": false,
          "internalType": "uint256",
          "name": "eventId",
          "type": "uint256"
        },
        {
          "indexed": false,
          "internalType": "bool",
          "name": "value",
          "type": "bool"
        }
      ],
      "name": "AllCategorySellChanged",
      "type": "event"
    },
    {
      "anonymous": false,
      "inputs": [
        {
          "indexed": true,
          "internalType": "address",
          "name": "owner",
          "type": "address"
        },
        {
          "indexed": true,
          "internalType": "address",
          "name": "approved",
          "type": "address"
        },
        {
          "indexed": true,
          "internalType": "uint256",
          "name": "tokenId",
          "type": "uint256"
        }
      ],
      "name": "Approval",
      "type": "event"
    },
    {
      "anonymous": false,
      "inputs": [
        {
          "indexed": true,
          "internalType": "address",
          "name": "owner",
          "type": "address"
        },
        {
          "indexed": true,
          "internalType": "address",
          "name": "operator",
          "type": "address"
        },
        {
          "indexed": false,
          "internalType": "bool",
          "name": "approved",
          "type": "bool"
        }
      ],
      "name": "ApprovalForAll",
      "type": "event"
    },
    {
      "anonymous": false,
      "inputs": [
        {
          "indexed": false,
          "internalType": "uint256",
          "name": "_fromTokenId",
          "type": "uint256"
        },
        {
          "indexed": false,
          "internalType": "uint256",
          "name": "_toTokenId",
          "type": "uint256"
        }
      ],
      "name": "BatchMetadataUpdate",
      "type": "event"
    },
    {
      "anonymous": false,
      "inputs": [
        {
          "indexed": false,
          "internalType": "uint256",
          "name": "eventId",
          "type": "uint256"
        },
        {
          "indexed": false,
          "internalType": "uint256",
          "name": "categoryId",
          "type": "uint256"
        },
        {
          "indexed": false,
          "internalType": "string",
          "name": "categoryCid",
          "type": "string"
        }
      ],
      "name": "CategoryCreated",
      "type": "event"
    },
    {
      "anonymous": false,
      "inputs": [
        {
          "indexed": false,
          "internalType": "uint256",
          "name": "eventId",
          "type": "uint256"
        },
        {
          "indexed": false,
          "internalType": "uint256",
          "name": "categoryId",
          "type": "uint256"
        }
      ],
      "name": "CategoryDeleted",
      "type": "event"
    },
    {
      "anonymous": false,
      "inputs": [
        {
          "indexed": false,
          "internalType": "uint256",
          "name": "eventId",
          "type": "uint256"
        },
        {
          "indexed": false,
          "internalType": "uint256",
          "name": "categoryId",
          "type": "uint256"
        },
        {
          "indexed": false,
          "internalType": "address",
          "name": "staffMember",
          "type": "address"
        }
      ],
      "name": "CategorySaleDatesUpdated",
      "type": "event"
    },
    {
      "anonymous": false,
      "inputs": [
        {
          "indexed": false,
          "internalType": "uint256",
          "name": "eventId",
          "type": "uint256"
        },
        {
          "indexed": false,
          "internalType": "uint256",
          "name": "categoryId",
          "type": "uint256"
        },
        {
          "indexed": false,
          "internalType": "bool",
          "name": "value",
          "type": "bool"
        }
      ],
      "name": "CategorySellChanged",
      "type": "event"
    },
    {
      "anonymous": false,
      "inputs": [
        {
          "indexed": false,
          "internalType": "uint256",
          "name": "eventId",
          "type": "uint256"
        },
        {
          "indexed": false,
          "internalType": "uint256",
          "name": "categoryId",
          "type": "uint256"
        },
        {
          "indexed": false,
          "internalType": "uint256",
          "name": "ticketsCount",
          "type": "uint256"
        }
      ],
      "name": "CategoryTicketsAdded",
      "type": "event"
    },
    {
      "anonymous": false,
      "inputs": [
        {
          "indexed": false,
          "internalType": "uint256",
          "name": "eventId",
          "type": "uint256"
        },
        {
          "indexed": false,
          "internalType": "uint256",
          "name": "categoryId",
          "type": "uint256"
        },
        {
          "indexed": false,
          "internalType": "uint256",
          "name": "ticketsCount",
          "type": "uint256"
        }
      ],
      "name": "CategoryTicketsRemoved",
      "type": "event"
    },
    {
      "anonymous": false,
      "inputs": [
        {
          "indexed": false,
          "internalType": "uint256",
          "name": "eventId",
          "type": "uint256"
        },
        {
          "indexed": false,
          "internalType": "uint256",
          "name": "categoryId",
          "type": "uint256"
        }
      ],
      "name": "CategoryUpdated",
      "type": "event"
    },
    {
      "anonymous": false,
      "inputs": [
        {
          "indexed": true,
          "internalType": "uint256",
          "name": "fromTokenId",
          "type": "uint256"
        },
        {
          "indexed": false,
          "internalType": "uint256",
          "name": "toTokenId",
          "type": "uint256"
        },
        {
          "indexed": true,
          "internalType": "address",
          "name": "fromAddress",
          "type": "address"
        },
        {
          "indexed": true,
          "internalType": "address",
          "name": "toAddress",
          "type": "address"
        }
      ],
      "name": "ConsecutiveTransfer",
      "type": "event"
    },
    {
      "anonymous": false,
      "inputs": [
        {
          "indexed": false,
          "internalType": "uint256",
          "name": "eventId",
          "type": "uint256"
        },
        {
          "indexed": false,
          "internalType": "address",
          "name": "account",
          "type": "address"
        },
        {
          "indexed": false,
          "internalType": "address",
          "name": "setter",
          "type": "address"
        }
      ],
      "name": "EventCashierSet",
      "type": "event"
    },
    {
      "anonymous": false,
      "inputs": [
        {
          "indexed": false,
          "internalType": "uint256",
          "name": "eventId",
          "type": "uint256"
        },
        {
          "indexed": false,
          "internalType": "string",
          "name": "metadataUri",
          "type": "string"
        }
      ],
      "name": "EventCreated",
      "type": "event"
    },
    {
      "anonymous": false,
      "inputs": [
        {
          "indexed": false,
          "internalType": "uint256",
          "name": "eventId",
          "type": "uint256"
        },
        {
          "indexed": false,
          "internalType": "uint256",
          "name": "date",
          "type": "uint256"
        },
        {
          "indexed": false,
          "internalType": "uint8",
          "name": "percentage",
          "type": "uint8"
        }
      ],
      "name": "EventRefundDateAdded",
      "type": "event"
    },
    {
      "anonymous": false,
      "inputs": [
        {
          "indexed": false,
          "internalType": "uint256",
          "name": "_tokenId",
          "type": "uint256"
        }
      ],
      "name": "MetadataUpdate",
      "type": "event"
    },
    {
      "anonymous": false,
      "inputs": [
        {
          "indexed": false,
          "internalType": "uint256",
          "name": "eventId",
          "type": "uint256"
        },
        {
          "indexed": true,
          "internalType": "bytes32",
          "name": "role",
          "type": "bytes32"
        },
        {
          "indexed": true,
          "internalType": "bytes32",
          "name": "previousAdminRole",
          "type": "bytes32"
        },
        {
          "indexed": true,
          "internalType": "bytes32",
          "name": "newAdminRole",
          "type": "bytes32"
        }
      ],
      "name": "RoleAdminChanged",
      "type": "event"
    },
    {
      "anonymous": false,
      "inputs": [
        {
          "indexed": false,
          "internalType": "uint256",
          "name": "eventId",
          "type": "uint256"
        },
        {
          "indexed": true,
          "internalType": "bytes32",
          "name": "role",
          "type": "bytes32"
        },
        {
          "indexed": true,
          "internalType": "address",
          "name": "account",
          "type": "address"
        },
        {
          "indexed": true,
          "internalType": "address",
          "name": "sender",
          "type": "address"
        }
      ],
      "name": "RoleGranted",
      "type": "event"
    },
    {
      "anonymous": false,
      "inputs": [
        {
          "indexed": false,
          "internalType": "uint256",
          "name": "eventId",
          "type": "uint256"
        },
        {
          "indexed": true,
          "internalType": "bytes32",
          "name": "role",
          "type": "bytes32"
        },
        {
          "indexed": true,
          "internalType": "address",
          "name": "account",
          "type": "address"
        },
        {
          "indexed": true,
          "internalType": "address",
          "name": "sender",
          "type": "address"
        }
      ],
      "name": "RoleRevoked",
      "type": "event"
    },
    {
      "anonymous": false,
      "inputs": [
        {
          "indexed": false,
          "internalType": "uint256",
          "name": "eventId",
          "type": "uint256"
        },
        {
          "indexed": false,
          "internalType": "uint256",
          "name": "categoryId",
          "type": "uint256"
        },
        {
          "indexed": false,
          "internalType": "uint256",
          "name": "ticketId",
          "type": "uint256"
        },
        {
          "indexed": false,
          "internalType": "address",
          "name": "staffMember",
          "type": "address"
        }
      ],
      "name": "TicketClipped",
      "type": "event"
    },
    {
      "anonymous": false,
      "inputs": [
        {
          "indexed": false,
          "internalType": "uint256",
          "name": "eventId",
          "type": "uint256"
        },
        {
          "indexed": false,
          "internalType": "uint256",
          "name": "categoryId",
          "type": "uint256"
        },
        {
          "indexed": false,
          "internalType": "uint256",
          "name": "ticketId",
          "type": "uint256"
        },
        {
          "indexed": false,
          "internalType": "address",
          "name": "account",
          "type": "address"
        },
        {
          "indexed": false,
          "internalType": "address",
          "name": "staffMember",
          "type": "address"
        }
      ],
      "name": "TicketRefunded",
      "type": "event"
    },
    {
      "anonymous": false,
      "inputs": [
        {
          "indexed": false,
          "internalType": "uint256",
          "name": "eventId",
          "type": "uint256"
        },
        {
          "indexed": false,
          "internalType": "uint256",
          "name": "categoryId",
          "type": "uint256"
        },
        {
          "indexed": false,
          "internalType": "uint256",
          "name": "ticketCount",
          "type": "uint256"
        },
        {
          "indexed": false,
          "internalType": "address[]",
          "name": "accounts",
          "type": "address[]"
        },
        {
          "indexed": false,
          "internalType": "address",
          "name": "staffMember",
          "type": "address"
        }
      ],
      "name": "TicketsBooked",
      "type": "event"
    },
    {
      "anonymous": false,
      "inputs": [],
      "name": "TicketsBought",
      "type": "event"
    },
    {
      "anonymous": false,
      "inputs": [
        {
          "indexed": true,
          "internalType": "address",
          "name": "from",
          "type": "address"
        },
        {
          "indexed": true,
          "internalType": "address",
          "name": "to",
          "type": "address"
        },
        {
          "indexed": true,
          "internalType": "uint256",
          "name": "tokenId",
          "type": "uint256"
        }
      ],
      "name": "Transfer",
      "type": "event"
    },
    {
      "inputs": [],
      "name": "CASHIER_ROLE",
      "outputs": [
        {
          "internalType": "bytes32",
          "name": "",
          "type": "bytes32"
        }
      ],
      "stateMutability": "view",
      "type": "function"
    },
    {
      "inputs": [],
      "name": "DEFAULT_ADMIN_ROLE",
      "outputs": [
        {
          "internalType": "bytes32",
          "name": "",
          "type": "bytes32"
        }
      ],
      "stateMutability": "view",
      "type": "function"
    },
    {
      "inputs": [],
      "name": "MODERATOR_ROLE",
      "outputs": [
        {
          "internalType": "bytes32",
          "name": "",
          "type": "bytes32"
        }
      ],
      "stateMutability": "view",
      "type": "function"
    },
    {
      "inputs": [],
      "name": "RECEPTIONIST_ROLE",
      "outputs": [
        {
          "internalType": "bytes32",
          "name": "",
          "type": "bytes32"
        }
      ],
      "stateMutability": "view",
      "type": "function"
    },
    {
      "inputs": [],
      "name": "VALIDATOR_ROLE",
      "outputs": [
        {
          "internalType": "bytes32",
          "name": "",
          "type": "bytes32"
        }
      ],
      "stateMutability": "view",
      "type": "function"
    },
    {
      "inputs": [
        {
          "internalType": "uint256",
          "name": "_eventId",
          "type": "uint256"
        },
        {
          "internalType": "uint256",
          "name": "_categoryId",
          "type": "uint256"
        },
        {
          "internalType": "uint256",
          "name": "_ticketsCount",
          "type": "uint256"
        }
      ],
      "name": "addCategoryTicketsCount",
      "outputs": [],
      "stateMutability": "nonpayable",
      "type": "function"
    },
    {
      "inputs": [
        {
          "internalType": "uint256",
          "name": "_eventId",
          "type": "uint256"
        },
        {
          "components": [
            {
              "internalType": "uint256",
              "name": "date",
              "type": "uint256"
            },
            {
              "internalType": "uint8",
              "name": "percentage",
              "type": "uint8"
            }
          ],
          "internalType": "struct IEvent.RefundData[]",
          "name": "_refundData",
          "type": "tuple[]"
        }
      ],
      "name": "addRefundDeadlines",
      "outputs": [],
      "stateMutability": "nonpayable",
      "type": "function"
    },
    {
      "inputs": [
        {
          "internalType": "uint256",
          "name": "_eventId",
          "type": "uint256"
        },
        {
          "internalType": "bytes32",
          "name": "_role",
          "type": "bytes32"
        },
        {
          "internalType": "address",
          "name": "_account",
          "type": "address"
        }
      ],
      "name": "addTeamMember",
      "outputs": [],
      "stateMutability": "nonpayable",
      "type": "function"
    },
    {
      "inputs": [
        {
          "internalType": "address",
          "name": "to",
          "type": "address"
        },
        {
          "internalType": "uint256",
          "name": "tokenId",
          "type": "uint256"
        }
      ],
      "name": "approve",
      "outputs": [],
      "stateMutability": "nonpayable",
      "type": "function"
    },
    {
      "inputs": [
        {
          "internalType": "address",
          "name": "owner",
          "type": "address"
        }
      ],
      "name": "balanceOf",
      "outputs": [
        {
          "internalType": "uint256",
          "name": "",
          "type": "uint256"
        }
      ],
      "stateMutability": "view",
      "type": "function"
    },
    {
      "inputs": [
        {
          "internalType": "uint256",
          "name": "_eventId",
          "type": "uint256"
        },
        {
          "internalType": "uint256",
          "name": "_categoryId",
          "type": "uint256"
        },
        {
          "internalType": "address[]",
          "name": "_accounts",
          "type": "address[]"
        },
        {
          "components": [
            {
              "internalType": "uint256",
              "name": "row",
              "type": "uint256"
            },
            {
              "internalType": "uint256",
              "name": "seat",
              "type": "uint256"
            }
          ],
          "internalType": "struct IEvent.TicketPlace[]",
          "name": "_place",
          "type": "tuple[]"
        },
        {
          "internalType": "string[]",
          "name": "_ticketMetadataUris",
          "type": "string[]"
        }
      ],
      "name": "bookTickets",
      "outputs": [],
      "stateMutability": "nonpayable",
      "type": "function"
    },
    {
      "inputs": [
        {
          "internalType": "uint256",
          "name": "_eventId",
          "type": "uint256"
        },
        {
          "internalType": "uint256",
          "name": "_categoryId",
          "type": "uint256"
        },
        {
          "components": [
            {
              "internalType": "uint256",
              "name": "amount",
              "type": "uint256"
            },
            {
              "internalType": "uint256",
              "name": "price",
              "type": "uint256"
            }
          ],
          "internalType": "struct IEvent.TicketPriceData[]",
          "name": "_priceData",
          "type": "tuple[]"
        },
        {
          "components": [
            {
              "internalType": "uint256",
              "name": "row",
              "type": "uint256"
            },
            {
              "internalType": "uint256",
              "name": "seat",
              "type": "uint256"
            }
          ],
          "internalType": "struct IEvent.TicketPlace[]",
          "name": "_place",
          "type": "tuple[]"
        },
        {
          "internalType": "string[]",
          "name": "_ticketMetadataUris",
          "type": "string[]"
        }
      ],
      "name": "buyTickets",
      "outputs": [],
      "stateMutability": "payable",
      "type": "function"
    },
    {
      "inputs": [
        {
          "components": [
            {
              "internalType": "uint256",
              "name": "eventId",
              "type": "uint256"
            },
            {
              "internalType": "uint256",
              "name": "categoryId",
              "type": "uint256"
            }
          ],
          "internalType": "struct IEvent.EventCategoryData[]",
          "name": "_eventCategoryData",
          "type": "tuple[]"
        },
        {
          "components": [
            {
              "internalType": "uint256",
              "name": "amount",
              "type": "uint256"
            },
            {
              "internalType": "uint256",
              "name": "price",
              "type": "uint256"
            }
          ],
          "internalType": "struct IEvent.TicketPriceData[]",
          "name": "_priceData",
          "type": "tuple[]"
        },
        {
          "components": [
            {
              "internalType": "uint256",
              "name": "row",
              "type": "uint256"
            },
            {
              "internalType": "uint256",
              "name": "seat",
              "type": "uint256"
            }
          ],
          "internalType": "struct IEvent.TicketPlace[]",
          "name": "_place",
          "type": "tuple[]"
        },
        {
          "internalType": "string[]",
          "name": "_ticketMetadataUris",
          "type": "string[]"
        }
      ],
      "name": "buyTickets",
      "outputs": [],
      "stateMutability": "payable",
      "type": "function"
    },
    {
      "inputs": [
        {
          "internalType": "uint256",
          "name": "_eventId",
          "type": "uint256"
        },
        {
          "internalType": "uint256",
          "name": "_categoryId",
          "type": "uint256"
        },
        {
          "internalType": "uint256",
          "name": "_ticketId",
          "type": "uint256"
        }
      ],
      "name": "clipTicket",
      "outputs": [],
      "stateMutability": "nonpayable",
      "type": "function"
    },
    {
      "inputs": [
        {
          "internalType": "uint256",
          "name": "_maxTicketsPerClient",
          "type": "uint256"
        },
        {
          "internalType": "uint64",
          "name": "_startDate",
          "type": "uint64"
        },
        {
          "internalType": "uint64",
          "name": "_endDate",
          "type": "uint64"
        },
        {
          "internalType": "string",
          "name": "_metadataURI",
          "type": "string"
        }
      ],
      "name": "createEvent",
      "outputs": [],
      "stateMutability": "nonpayable",
      "type": "function"
    },
    {
      "inputs": [
        {
          "internalType": "uint256",
          "name": "_eventId",
          "type": "uint256"
        },
        {
          "internalType": "string",
          "name": "_categoryCid",
          "type": "string"
        },
        {
          "internalType": "uint256",
          "name": "_saleStartDate",
          "type": "uint256"
        },
        {
          "internalType": "uint256",
          "name": "_saleEndDate",
          "type": "uint256"
        },
        {
          "internalType": "uint256",
          "name": "_ticketsCount",
          "type": "uint256"
        },
        {
          "internalType": "uint256",
          "name": "_ticketPrice",
          "type": "uint256"
        },
        {
          "internalType": "uint256[]",
          "name": "_discountsTicketsCount",
          "type": "uint256[]"
        },
        {
          "internalType": "uint256[]",
          "name": "_discountsPercentage",
          "type": "uint256[]"
        },
        {
          "components": [
            {
              "internalType": "uint256",
              "name": "price",
              "type": "uint256"
            },
            {
              "internalType": "uint256",
              "name": "finalAmountDate",
              "type": "uint256"
            }
          ],
          "internalType": "struct IEvent.DownPayment",
          "name": "_downPayment",
          "type": "tuple"
        }
      ],
      "name": "createTicketCategory",
      "outputs": [],
      "stateMutability": "nonpayable",
      "type": "function"
    },
    {
      "inputs": [
        {
          "internalType": "uint256",
          "name": "tokenId",
          "type": "uint256"
        }
      ],
      "name": "endTime",
      "outputs": [
        {
          "internalType": "uint64",
          "name": "",
          "type": "uint64"
        }
      ],
      "stateMutability": "view",
      "type": "function"
    },
    {
      "inputs": [],
      "name": "fetchAllEventIds",
      "outputs": [
        {
          "internalType": "uint256[]",
          "name": "",
          "type": "uint256[]"
        }
      ],
      "stateMutability": "view",
      "type": "function"
    },
    {
      "inputs": [],
      "name": "fetchAllEvents",
      "outputs": [
        {
          "components": [
            {
              "internalType": "address",
              "name": "organizer",
              "type": "address"
            },
            {
              "internalType": "uint256",
              "name": "maxTicketsPerClient",
              "type": "uint256"
            },
            {
              "internalType": "bool",
              "name": "areAllCategoryTicketsBuyable",
              "type": "bool"
            }
          ],
          "internalType": "struct IEvent.Event[]",
          "name": "",
          "type": "tuple[]"
        }
      ],
      "stateMutability": "view",
      "type": "function"
    },
    {
      "inputs": [
        {
          "internalType": "uint256",
          "name": "_eventId",
          "type": "uint256"
        }
      ],
      "name": "fetchCategoriesByEventId",
      "outputs": [
        {
          "components": [
            {
              "internalType": "uint256",
              "name": "id",
              "type": "uint256"
            },
            {
              "internalType": "string",
              "name": "cid",
              "type": "string"
            },
            {
              "internalType": "uint256[]",
              "name": "ticketIds",
              "type": "uint256[]"
            },
            {
              "internalType": "uint256",
              "name": "ticketPrice",
              "type": "uint256"
            },
            {
              "internalType": "uint256",
              "name": "ticketsCount",
              "type": "uint256"
            },
            {
              "internalType": "uint256",
              "name": "saleStartDate",
              "type": "uint256"
            },
            {
              "internalType": "uint256",
              "name": "saleEndDate",
              "type": "uint256"
            },
            {
              "internalType": "uint256",
              "name": "eventId",
              "type": "uint256"
            },
            {
              "internalType": "uint256[]",
              "name": "discountsTicketsCount",
              "type": "uint256[]"
            },
            {
              "internalType": "uint256[]",
              "name": "discountsPercentage",
              "type": "uint256[]"
            },
            {
              "components": [
                {
                  "internalType": "uint256",
                  "name": "price",
                  "type": "uint256"
                },
                {
                  "internalType": "uint256",
                  "name": "finalAmountDate",
                  "type": "uint256"
                }
              ],
              "internalType": "struct IEvent.DownPayment",
              "name": "downPayment",
              "type": "tuple"
            },
            {
              "internalType": "bool",
              "name": "areTicketsBuyable",
              "type": "bool"
            }
          ],
          "internalType": "struct IEvent.Category[]",
          "name": "",
          "type": "tuple[]"
        }
      ],
      "stateMutability": "view",
      "type": "function"
    },
    {
      "inputs": [
        {
          "internalType": "uint256",
          "name": "_eventId",
          "type": "uint256"
        }
      ],
      "name": "fetchEventById",
      "outputs": [
        {
          "components": [
            {
              "internalType": "address",
              "name": "organizer",
              "type": "address"
            },
            {
              "internalType": "uint256",
              "name": "maxTicketsPerClient",
              "type": "uint256"
            },
            {
              "internalType": "bool",
              "name": "areAllCategoryTicketsBuyable",
              "type": "bool"
            }
          ],
          "internalType": "struct IEvent.Event",
          "name": "eventObj",
          "type": "tuple"
        }
      ],
      "stateMutability": "view",
      "type": "function"
    },
    {
      "inputs": [],
      "name": "fetchOwnedEvents",
      "outputs": [
        {
          "internalType": "uint256[]",
          "name": "",
          "type": "uint256[]"
        }
      ],
      "stateMutability": "view",
      "type": "function"
    },
    {
      "inputs": [
        {
          "internalType": "uint256",
          "name": "tokenId",
          "type": "uint256"
        }
      ],
      "name": "getApproved",
      "outputs": [
        {
          "internalType": "address",
          "name": "",
          "type": "address"
        }
      ],
      "stateMutability": "view",
      "type": "function"
    },
    {
      "inputs": [
        {
          "internalType": "uint256",
          "name": "eventId",
          "type": "uint256"
        }
      ],
      "name": "getEventMembers",
      "outputs": [
        {
          "components": [
            {
              "internalType": "address",
              "name": "account",
              "type": "address"
            },
            {
              "internalType": "bytes32",
              "name": "role",
              "type": "bytes32"
            }
          ],
          "internalType": "struct RoleControl.MemberData[]",
          "name": "",
          "type": "tuple[]"
        }
      ],
      "stateMutability": "view",
      "type": "function"
    },
    {
      "inputs": [
        {
          "internalType": "uint256",
          "name": "eventId",
          "type": "uint256"
        },
        {
          "internalType": "bytes32",
          "name": "role",
          "type": "bytes32"
        }
      ],
      "name": "getRoleAdmin",
      "outputs": [
        {
          "internalType": "bytes32",
          "name": "",
          "type": "bytes32"
        }
      ],
      "stateMutability": "view",
      "type": "function"
    },
    {
      "inputs": [
        {
          "internalType": "uint256",
          "name": "eventId",
          "type": "uint256"
        },
        {
          "internalType": "bytes32",
          "name": "role",
          "type": "bytes32"
        },
        {
          "internalType": "address",
          "name": "account",
          "type": "address"
        }
      ],
      "name": "grantRole",
      "outputs": [],
      "stateMutability": "nonpayable",
      "type": "function"
    },
    {
      "inputs": [
        {
          "internalType": "uint256",
          "name": "eventId",
          "type": "uint256"
        },
        {
          "internalType": "bytes32",
          "name": "role",
          "type": "bytes32"
        },
        {
          "internalType": "address",
          "name": "account",
          "type": "address"
        }
      ],
      "name": "hasRole",
      "outputs": [
        {
          "internalType": "bool",
          "name": "",
          "type": "bool"
        }
      ],
      "stateMutability": "view",
      "type": "function"
    },
    {
      "inputs": [
        {
          "internalType": "address",
          "name": "owner",
          "type": "address"
        },
        {
          "internalType": "address",
          "name": "operator",
          "type": "address"
        }
      ],
      "name": "isApprovedForAll",
      "outputs": [
        {
          "internalType": "bool",
          "name": "",
          "type": "bool"
        }
      ],
      "stateMutability": "view",
      "type": "function"
    },
    {
      "inputs": [
        {
          "internalType": "uint256",
          "name": "_eventId",
          "type": "uint256"
        },
        {
          "internalType": "bool",
          "name": "_value",
          "type": "bool"
        }
      ],
      "name": "manageAllCategorySelling",
      "outputs": [],
      "stateMutability": "nonpayable",
      "type": "function"
    },
    {
      "inputs": [
        {
          "internalType": "uint256",
          "name": "_eventId",
          "type": "uint256"
        },
        {
          "internalType": "uint256",
          "name": "_categoryId",
          "type": "uint256"
        },
        {
          "internalType": "bool",
          "name": "_value",
          "type": "bool"
        }
      ],
      "name": "manageCategorySelling",
      "outputs": [],
      "stateMutability": "nonpayable",
      "type": "function"
    },
    {
      "inputs": [],
      "name": "name",
      "outputs": [
        {
          "internalType": "string",
          "name": "",
          "type": "string"
        }
      ],
      "stateMutability": "view",
      "type": "function"
    },
    {
      "inputs": [
        {
          "internalType": "uint256",
          "name": "tokenId",
          "type": "uint256"
        }
      ],
      "name": "ownerOf",
      "outputs": [
        {
          "internalType": "address",
          "name": "",
          "type": "address"
        }
      ],
      "stateMutability": "view",
      "type": "function"
    },
    {
      "inputs": [
        {
          "internalType": "uint256",
          "name": "_eventId",
          "type": "uint256"
        },
        {
          "internalType": "uint256",
          "name": "_categoryId",
          "type": "uint256"
        },
        {
          "internalType": "uint256",
          "name": "_ticketId",
          "type": "uint256"
        },
        {
          "internalType": "address",
          "name": "_account",
          "type": "address"
        }
      ],
      "name": "refundTicket",
      "outputs": [],
      "stateMutability": "nonpayable",
      "type": "function"
    },
    {
      "inputs": [
        {
          "internalType": "uint256",
          "name": "_eventId",
          "type": "uint256"
        },
        {
          "internalType": "uint256",
          "name": "_categoryId",
          "type": "uint256"
        }
      ],
      "name": "removeCategory",
      "outputs": [],
      "stateMutability": "nonpayable",
      "type": "function"
    },
    {
      "inputs": [
        {
          "internalType": "uint256",
          "name": "_eventId",
          "type": "uint256"
        },
        {
          "internalType": "uint256",
          "name": "_categoryId",
          "type": "uint256"
        },
        {
          "internalType": "uint256",
          "name": "_ticketsCount",
          "type": "uint256"
        }
      ],
      "name": "removeCategoryTicketsCount",
      "outputs": [],
      "stateMutability": "nonpayable",
      "type": "function"
    },
    {
      "inputs": [
        {
          "internalType": "uint256",
          "name": "_eventId",
          "type": "uint256"
        }
      ],
      "name": "removeEvent",
      "outputs": [],
      "stateMutability": "nonpayable",
      "type": "function"
    },
    {
      "inputs": [
        {
          "internalType": "uint256",
          "name": "_eventId",
          "type": "uint256"
        },
        {
          "internalType": "bytes32",
          "name": "_role",
          "type": "bytes32"
        },
        {
          "internalType": "address",
          "name": "_account",
          "type": "address"
        }
      ],
      "name": "removeTeamMember",
      "outputs": [],
      "stateMutability": "nonpayable",
      "type": "function"
    },
    {
      "inputs": [
        {
          "internalType": "uint256",
          "name": "eventId",
          "type": "uint256"
        },
        {
          "internalType": "bytes32",
          "name": "role",
          "type": "bytes32"
        },
        {
          "internalType": "address",
          "name": "account",
          "type": "address"
        }
      ],
      "name": "renounceRole",
      "outputs": [],
      "stateMutability": "nonpayable",
      "type": "function"
    },
    {
      "inputs": [
        {
          "internalType": "uint256",
          "name": "eventId",
          "type": "uint256"
        },
        {
          "internalType": "bytes32",
          "name": "role",
          "type": "bytes32"
        },
        {
          "internalType": "address",
          "name": "account",
          "type": "address"
        }
      ],
      "name": "revokeRole",
      "outputs": [],
      "stateMutability": "nonpayable",
      "type": "function"
    },
    {
      "inputs": [
        {
          "internalType": "address",
          "name": "from",
          "type": "address"
        },
        {
          "internalType": "address",
          "name": "to",
          "type": "address"
        },
        {
          "internalType": "uint256",
          "name": "tokenId",
          "type": "uint256"
        }
      ],
      "name": "safeTransferFrom",
      "outputs": [],
      "stateMutability": "nonpayable",
      "type": "function"
    },
    {
      "inputs": [
        {
          "internalType": "address",
          "name": "from",
          "type": "address"
        },
        {
          "internalType": "address",
          "name": "to",
          "type": "address"
        },
        {
          "internalType": "uint256",
          "name": "tokenId",
          "type": "uint256"
        },
        {
          "internalType": "bytes",
          "name": "data",
          "type": "bytes"
        }
      ],
      "name": "safeTransferFrom",
      "outputs": [],
      "stateMutability": "nonpayable",
      "type": "function"
    },
    {
      "inputs": [
        {
          "internalType": "address",
          "name": "operator",
          "type": "address"
        },
        {
          "internalType": "bool",
          "name": "approved",
          "type": "bool"
        }
      ],
      "name": "setApprovalForAll",
      "outputs": [],
      "stateMutability": "nonpayable",
      "type": "function"
    },
    {
      "inputs": [
        {
          "internalType": "uint256",
          "name": "_eventId",
          "type": "uint256"
        },
        {
          "internalType": "address",
          "name": "_account",
          "type": "address"
        }
      ],
      "name": "setEventCashier",
      "outputs": [],
      "stateMutability": "nonpayable",
      "type": "function"
    },
    {
      "inputs": [
        {
          "internalType": "uint256",
          "name": "tokenId",
          "type": "uint256"
        }
      ],
      "name": "startTime",
      "outputs": [
        {
          "internalType": "uint64",
          "name": "",
          "type": "uint64"
        }
      ],
      "stateMutability": "view",
      "type": "function"
    },
    {
      "inputs": [
        {
          "internalType": "bytes4",
          "name": "interfaceId",
          "type": "bytes4"
        }
      ],
      "name": "supportsInterface",
      "outputs": [
        {
          "internalType": "bool",
          "name": "",
          "type": "bool"
        }
      ],
      "stateMutability": "view",
      "type": "function"
    },
    {
      "inputs": [],
      "name": "symbol",
      "outputs": [
        {
          "internalType": "string",
          "name": "",
          "type": "string"
        }
      ],
      "stateMutability": "view",
      "type": "function"
    },
    {
      "inputs": [
        {
          "internalType": "uint256",
          "name": "tokenId",
          "type": "uint256"
        }
      ],
      "name": "tokenURI",
      "outputs": [
        {
          "internalType": "string",
          "name": "",
          "type": "string"
        }
      ],
      "stateMutability": "view",
      "type": "function"
    },
    {
      "inputs": [
        {
          "internalType": "address",
          "name": "from",
          "type": "address"
        },
        {
          "internalType": "address",
          "name": "to",
          "type": "address"
        },
        {
          "internalType": "uint256",
          "name": "tokenId",
          "type": "uint256"
        }
      ],
      "name": "transferFrom",
      "outputs": [],
      "stateMutability": "nonpayable",
      "type": "function"
    },
    {
      "inputs": [
        {
          "internalType": "uint256",
          "name": "_eventId",
          "type": "uint256"
        },
        {
          "internalType": "uint256",
          "name": "_categoryId",
          "type": "uint256"
        },
        {
          "internalType": "string",
          "name": "_categoryCid",
          "type": "string"
        },
        {
          "internalType": "uint256",
          "name": "_ticketPrice",
          "type": "uint256"
        },
        {
          "internalType": "uint256[]",
          "name": "_discountsTicketsCount",
          "type": "uint256[]"
        },
        {
          "internalType": "uint256[]",
          "name": "_discountsPercentage",
          "type": "uint256[]"
        },
        {
          "components": [
            {
              "internalType": "uint256",
              "name": "price",
              "type": "uint256"
            },
            {
              "internalType": "uint256",
              "name": "finalAmountDate",
              "type": "uint256"
            }
          ],
          "internalType": "struct IEvent.DownPayment",
          "name": "_downPayment",
          "type": "tuple"
        }
      ],
      "name": "updateCategory",
      "outputs": [],
      "stateMutability": "nonpayable",
      "type": "function"
    },
    {
      "inputs": [
        {
          "internalType": "uint256",
          "name": "_eventId",
          "type": "uint256"
        },
        {
          "internalType": "uint256",
          "name": "_categoryId",
          "type": "uint256"
        },
        {
          "internalType": "uint256",
          "name": "_saleStartDate",
          "type": "uint256"
        },
        {
          "internalType": "uint256",
          "name": "_saleEndDate",
          "type": "uint256"
        }
      ],
      "name": "updateCategorySaleDates",
      "outputs": [],
      "stateMutability": "nonpayable",
      "type": "function"
    },
    {
      "inputs": [
        {
          "internalType": "uint256",
          "name": "_eventId",
          "type": "uint256"
        },
        {
          "internalType": "string",
          "name": "_newMetadataURI",
          "type": "string"
        }
      ],
      "name": "updateEventTokenUri",
      "outputs": [],
      "stateMutability": "nonpayable",
      "type": "function"
    },
    {
      "inputs": [
        {
          "internalType": "uint256",
          "name": "_eventId",
          "type": "uint256"
        },
        {
          "internalType": "uint256",
          "name": "_categoryId",
          "type": "uint256"
        },
        {
          "internalType": "uint256",
          "name": "_ticketId",
          "type": "uint256"
        }
      ],
      "name": "withdrawRefund",
      "outputs": [],
      "stateMutability": "nonpayable",
      "type": "function"
    }
  ],
  "bytecode": "0x608060405234801561001057600080fd5b506001601255615c2a80620000266000396000f3fe60806040526004361061024f5760003560e01c806301ffc9a7146102545780630309a5391461028a57806306fdde03146102ac578063081812fc146102ce578063095ea7b3146103065780630d517286146103265780630e1b943d14610353578063119345aa146103805780631c6f9271146103a05780631cdf29c7146103c05780632053d82c146103e057806323b872dd146104005780632761f33b1461042057806327b60e6f146104405780633660ff8314610460578063397d4dbc146104825780633d378bb0146104b05780633ec4c968146104d057806342842e0e1461050857806344c816fa146105285780634a120dd7146105485780634f282bea146105685780634f905e5d14610588578063558e39c41461059b57806356164e1e146105bb5780635ba16138146105db5780636352211e146105fd5780636a4bc7de1461061d57806370a082311461063d578063724bdedf1461065d578063797669c91461067d578063959a1b581461069f57806395d89b41146106bf578063a217fddf146106d4578063a22cb465146106e9578063a310d9bf14610709578063a3bdc7c714610729578063a3cfe16014610756578063abae6af914610776578063b015554414610798578063b7fd9684146107b8578063b88d4fde146107da578063c49baebe146107fa578063c87b56dd1461081c578063c928840c1461083c578063d5533da01461085c578063e145256e1461087c578063e985e9c51461089c578063ef71b78a146108bc578063f354159b146108cf578063f99c2292146108ef578063fb42204d14610904575b600080fd5b34801561026057600080fd5b5061027561026f366004614679565b50600090565b60405190151581526020015b60405180910390f35b34801561029657600080fd5b506102aa6102a53660046146ab565b610924565b005b3480156102b857600080fd5b506102c16109f8565b6040516102819190614727565b3480156102da57600080fd5b506102ee6102e936600461473a565b610a8c565b6040516001600160a01b039091168152602001610281565b34801561031257600080fd5b506102aa61032136600461476a565b610ab3565b34801561033257600080fd5b5061034661034136600461473a565b610bc8565b60405161028191906147b8565b34801561035f57600080fd5b5061037361036e36600461473a565b610c3e565b60405161028191906147c6565b34801561038c57600080fd5b5061027561039b36600461481e565b610cc6565b3480156103ac57600080fd5b506102aa6103bb366004614853565b610cf8565b3480156103cc57600080fd5b506102aa6103db366004614885565b610e31565b3480156103ec57600080fd5b506102aa6103fb366004614965565b610ee0565b34801561040c57600080fd5b506102aa61041b3660046149ab565b610f87565b34801561042c57600080fd5b506102aa61043b366004614a44565b610fb8565b34801561044c57600080fd5b506102aa61045b366004614bca565b611178565b34801561046c57600080fd5b50610475611296565b6040516102819190614c71565b34801561048e57600080fd5b506104a261049d366004614cbf565b6113f9565b604051908152602001610281565b3480156104bc57600080fd5b506102aa6104cb366004614cbf565b61141d565b3480156104dc57600080fd5b506104f06104eb36600461473a565b611772565b6040516001600160401b039091168152602001610281565b34801561051457600080fd5b506102aa6105233660046149ab565b6117b5565b34801561053457600080fd5b506104f061054336600461473a565b6117d0565b34801561055457600080fd5b506102aa61056336600461481e565b61181a565b34801561057457600080fd5b506102aa610583366004614ce1565b611841565b6102aa610596366004614d20565b6119c3565b3480156105a757600080fd5b506102aa6105b6366004614dd8565b6119e2565b3480156105c757600080fd5b506102aa6105d636600461473a565b611b14565b3480156105e757600080fd5b506104a2600080516020615b9583398151915281565b34801561060957600080fd5b506102ee61061836600461473a565b611dca565b34801561062957600080fd5b506102aa61063836600461481e565b611dff565b34801561064957600080fd5b506104a2610658366004614e04565b611ebb565b34801561066957600080fd5b506102aa61067836600461481e565b611f41565b34801561068957600080fd5b506104a2600080516020615bb583398151915281565b3480156106ab57600080fd5b506102aa6106ba366004614e60565b611fba565b3480156106cb57600080fd5b506102c1612372565b3480156106e057600080fd5b506104a2600081565b3480156106f557600080fd5b506102aa610704366004614f4a565b612384565b34801561071557600080fd5b506102aa610724366004614f74565b612393565b34801561073557600080fd5b5061074961074436600461473a565b6124c2565b6040516102819190614fdb565b34801561076257600080fd5b506102aa610771366004615126565b612826565b34801561078257600080fd5b5061078b61299d565b604051610281919061518d565b3480156107a457600080fd5b506102aa6107b336600461481e565b612ae8565b3480156107c457600080fd5b506104a2600080516020615b7583398151915281565b3480156107e657600080fd5b506102aa6107f53660046151a0565b612b9e565b34801561080657600080fd5b506104a2600080516020615b3583398151915281565b34801561082857600080fd5b506102c161083736600461473a565b612bd0565b34801561084857600080fd5b506102aa610857366004614dd8565b612d10565b34801561086857600080fd5b506102aa610877366004614dd8565b612da1565b34801561088857600080fd5b506102aa610897366004615253565b612eca565b3480156108a857600080fd5b506102756108b736600461529e565b612f37565b6102aa6108ca3660046152c8565b612f65565b3480156108db57600080fd5b506102aa6108ea366004614dd8565b6132c0565b3480156108fb57600080fd5b5061078b6134f1565b34801561091057600080fd5b506102aa61091f36600461481e565b6135f6565b8161092e81613616565b6109535760405162461bcd60e51b815260040161094a9061538b565b60405180910390fd5b61095f83600033610cc6565b8061097e575061097e83600080516020615bb583398151915233610cc6565b61099a5760405162461bcd60e51b815260040161094a906153c1565b600083815260096020908152604091829020600201805460ff19168515159081179091558251868152918201527f578eeefe0b8083fcd939e8d547da4c0ba6b26ed213c13de65ab08a52f9f26a5291015b60405180910390a1505050565b6060600080018054610a099061540b565b80601f0160208091040260200160405190810160405280929190818152602001828054610a359061540b565b8015610a825780601f10610a5757610100808354040283529160200191610a82565b820191906000526020600020905b815481529060010190602001808311610a6557829003601f168201915b5050505050905090565b6000610a9782613633565b506000908152600460205260409020546001600160a01b031690565b6000610abe82611dca565b9050806001600160a01b0316836001600160a01b031603610b2b5760405162461bcd60e51b815260206004820152602160248201527f4552433732313a20617070726f76616c20746f2063757272656e74206f776e656044820152603960f91b606482015260840161094a565b336001600160a01b0382161480610b475750610b478133612f37565b610bb95760405162461bcd60e51b815260206004820152603e60248201527f4552433732313a20617070726f76652063616c6c6572206973206e6f7420746f60448201527f6b656e206f776e6572206e6f7220617070726f76656420666f7220616c6c0000606482015260840161094a565b610bc3838361365b565b505050565b610bd06144d4565b81610bda81613616565b610bf65760405162461bcd60e51b815260040161094a9061538b565b5050600090815260096020908152604091829020825160608101845281546001600160a01b031681526001820154928101929092526002015460ff1615159181019190915290565b606060106000838152602001908152602001600020805480602002602001604051908101604052809291908181526020016000905b82821015610cbb576000848152602090819020604080518082019091526002850290910180546001600160a01b03168252600190810154828401529083529092019101610c73565b505050509050919050565b6000928352600f602090815260408085209385529281528284206001600160a01b039290921684525290205460ff1690565b83610d0281613616565b610d1e5760405162461bcd60e51b815260040161094a9061538b565b6000848152600a6020526040812054859103610d4c5760405162461bcd60e51b815260040161094a9061543f565b6000858152600a6020526040902060070154869086908214610d805760405162461bcd60e51b815260040161094a90615476565b610d8c88600033610cc6565b80610dab5750610dab88600080516020615bb583398151915233610cc6565b610dc75760405162461bcd60e51b815260040161094a906153c1565b6000878152600a60209081526040918290206005810189905560060187905581518a815290810189905233918101919091527f4192182acd964db32b1197a6483d5694cf6e678e7202565c44cc961078eb2c8f906060015b60405180910390a15050505050505050565b81610e3b81613616565b610e575760405162461bcd60e51b815260040161094a9061538b565b610e6383600033610cc6565b610e7f5760405162461bcd60e51b815260040161094a906154bf565b610e9883600080516020615b75833981519152846135f6565b604080518481526001600160a01b038416602082015233918101919091527f9f54db3c6775e8717da6972b09a7ed552d62f5fd63696a1a75e58f61bd240193906060016109eb565b81610eea81613616565b610f065760405162461bcd60e51b815260040161094a9061538b565b610f1283600033610cc6565b80610f315750610f3183600080516020615bb583398151915233610cc6565b610f4d5760405162461bcd60e51b815260040161094a906153c1565b610f5783836136c9565b6040518381527ff8e1a15aba9398e019f0b49df1a4fde98ee17ae345cb5f6b5e2c27f5033e8ce7906020016109eb565b610f91338261374d565b610fad5760405162461bcd60e51b815260040161094a906154f6565b610bc38383836137ab565b88610fc281613616565b610fde5760405162461bcd60e51b815260040161094a9061538b565b6000898152600a60205260408120548a910361100c5760405162461bcd60e51b815260040161094a9061543f565b60008a8152600a60205260409020600701548b908b9082146110405760405162461bcd60e51b815260040161094a90615476565b61104c8d600033610cc6565b8061106b575061106b8d600080516020615bb583398151915233610cc6565b6110875760405162461bcd60e51b815260040161094a906153c1565b8786146110a65760405162461bcd60e51b815260040161094a90615544565b60008c8152600a602052604090206001016110c18c826155ef565b5060008c8152600a60205260409020600381018b90556110e5906008018a8a6144f4565b5060008c8152600a602052604090206111029060090188886144f4565b5060008c8152600a6020819052604090912086910161112e828281358155602082013560018201555050565b5050604080518e8152602081018e90527f44df894581249b9c6cda25b6fe8239320be1641adde53f17479b4153cadfcc60910160405180910390a150505050505050505050505050565b8661118281613616565b61119e5760405162461bcd60e51b815260040161094a9061538b565b6000878152600a60205260408120548891036111cc5760405162461bcd60e51b815260040161094a9061543f565b6000888152600a60205260409020600701548990899082146112005760405162461bcd60e51b815260040161094a90615476565b61120c8b600033610cc6565b8061122b575061122b8b600080516020615bb583398151915233610cc6565b6112475760405162461bcd60e51b815260040161094a906153c1565b6040517f5f183d9cf5454d6fc91379ef5dce8b6a4543ec2c03a1d6376579c9a6949b2cb390611281908d908d908c908e90829033906156a8565b60405180910390a15050505050505050505050565b606060006112a360075490565b905060008060015b8381116112ef576000818152600960205260409020546001600160a01b0316156112dd57826112d98161573b565b9350505b806112e78161573b565b9150506112ab565b506000826001600160401b0381111561130a5761130a6148a8565b60405190808252806020026020018201604052801561134357816020015b6113306144d4565b8152602001906001900390816113285790505b50905060015b8481116113f0576000818152600960205260409020546001600160a01b0316156113de57600081815260096020908152604091829020825160608101845281546001600160a01b031681526001820154928101929092526002015460ff1615159181019190915282518390859081106113c4576113c4615754565b602002602001018190525082806113da9061573b565b9350505b806113e88161573b565b915050611349565b50949350505050565b6000828152600f602090815260408083208484529091529020600101545b92915050565b8161142781613616565b6114435760405162461bcd60e51b815260040161094a9061538b565b6000828152600a60205260408120548391036114715760405162461bcd60e51b815260040161094a9061543f565b6000838152600a60205260409020600701548490849082146114a55760405162461bcd60e51b815260040161094a90615476565b6114b186600033610cc6565b806114d057506114d086600080516020615bb583398151915233610cc6565b6114ec5760405162461bcd60e51b815260040161094a906153c1565b6000858152600a60205260409020600201541561155f5760405162461bcd60e51b815260206004820152602b60248201527f4576656e743a2054686572652061726520626f75676874207469636b6574732060448201526a696e2063617465676f727960a81b606482015260840161094a565b6000858152600a602052604081208181559061157e600183018261453f565b61158c600283016000614579565b600382016000905560048201600090556005820160009055600682016000905560078201600090556008820160006115c49190614579565b6115d2600983016000614579565b506000600a8201819055600b808301829055600c909201805460ff1916905587815260209182526040808220805482518186028101860190935280835292939192909183018282801561164457602002820191906000526020600020905b815481526020019060010190808311611630575b5050505050905060005b815181101561172e578682828151811061166a5761166a615754565b60200260200101510361171c576000888152600b6020526040902082516116939060019061576a565b815481106116a3576116a3615754565b90600052602060002001546000600b0160008a815260200190815260200160002082815481106116d5576116d5615754565b6000918252602080832090910192909255898152600b909152604090208054806117015761170161577d565b6001900381819060005260206000200160009055905561172e565b806117268161573b565b91505061164e565b5060408051888152602081018890527ff67e86d3ffc2c26729aac7f4e3e07e009ad076ace7cd9e9fc184fd452ac0cc8591015b60405180910390a150505050505050565b600061177d82613616565b6117995760405162461bcd60e51b815260040161094a90615793565b506000908152600c60205260409020546001600160401b031690565b610bc383838360405180602001604052806000815250612b9e565b60006117db82613616565b6117f75760405162461bcd60e51b815260040161094a90615793565b506000908152600c6020526040902054600160401b90046001600160401b031690565b8261182584846113f9565b61182f8282613935565b61183a858585613940565b5050505050565b8361184b81613616565b6118675760405162461bcd60e51b815260040161094a9061538b565b6000848152600a60205260408120548591036118955760405162461bcd60e51b815260040161094a9061543f565b6000858152600a60205260409020600701548690869082146118c95760405162461bcd60e51b815260040161094a90615476565b6001600160a01b0385166119295760405162461bcd60e51b815260206004820152602160248201527f4576656e743a204163636f756e742063616e27742062652030206164647265736044820152607360f81b606482015260840161094a565b61193588600033610cc6565b80611954575061195488600080516020615bb583398151915233610cc6565b6119705760405162461bcd60e51b815260040161094a906153c1565b60408051898152602081018990529081018790526001600160a01b03861660608201523360808201527f46e932e62718185837307db095ce63393945a0c6881343f8d0956044ac2cba529060a001610e1f565b604051600080516020615b5583398151915290600090a1505050505050565b826119ec81613616565b611a085760405162461bcd60e51b815260040161094a9061538b565b6000838152600a6020526040812054849103611a365760405162461bcd60e51b815260040161094a9061543f565b6000848152600a6020526040902060070154859085908214611a6a5760405162461bcd60e51b815260040161094a90615476565b611a7687600033610cc6565b80611a955750611a9587600080516020615bb583398151915233610cc6565b80611ab45750611ab487600080516020615b9583398151915233610cc6565b611ad05760405162461bcd60e51b815260040161094a906153c1565b60408051888152602081018890529081018690523360608201527f2dcc6bceb950de206af8457a1b2083cbb47b6b70918a66be78ab4d128fee79f090608001611761565b80611b1e81613616565b611b3a5760405162461bcd60e51b815260040161094a9061538b565b611b4682600033610cc6565b611b625760405162461bcd60e51b815260040161094a906154bf565b6000828152600b6020908152604080832080548251818502810185019093528083529192909190830182828015611bb857602002820191906000526020600020905b815481526020019060010190808311611ba4575b505050505090506000805b8251811015611c29576000600a016000848381518110611be557611be5615754565b6020026020010151815260200190815260200160002060020180549050600003611c175781611c138161573b565b9250505b80611c218161573b565b915050611bc3565b5080825114611c8a5760405162461bcd60e51b815260206004820152602760248201527f4576656e743a204576656e74206d757374206e6f74206861766520736f6c64206044820152667469636b65747360c81b606482015260840161094a565b611c9384613a01565b600084815260096020908152604080832080546001600160a01b031916815560018101849055600201805460ff19169055600b9091528120611cd491614579565b60005b8251811015611da8576000600a016000848381518110611cf957611cf9615754565b60200260200101518152602001908152602001600020600080820160009055600182016000611d28919061453f565b611d36600283016000614579565b60038201600090556004820160009055600582016000905560068201600090556007820160009055600882016000611d6e9190614579565b611d7c600983016000614579565b506000600a8201819055600b820155600c01805460ff1916905580611da08161573b565b915050611cd7565b505050600091825250600c6020526040902080546001600160801b0319169055565b6000818152600260205260408120546001600160a01b0316806114175760405162461bcd60e51b815260040161094a906157c5565b82611e0981613616565b611e255760405162461bcd60e51b815260040161094a9061538b565b611e3184600033610cc6565b611e4d5760405162461bcd60e51b815260040161094a906154bf565b600080516020615b758339815191528303611eaa5760405162461bcd60e51b815260206004820152601d60248201527f4576656e743a2043616e27742073657420636173686965722068657265000000604482015260640161094a565b611eb58484846135f6565b50505050565b60006001600160a01b038216611f255760405162461bcd60e51b815260206004820152602960248201527f4552433732313a2061646472657373207a65726f206973206e6f7420612076616044820152683634b21037bbb732b960b91b606482015260840161094a565b506001600160a01b031660009081526003602052604090205490565b6001600160a01b0381163314611faf5760405162461bcd60e51b815260206004820152602d60248201527f526f6c65436f6e74726f6c3a2063616e206f6e6c792072656e6f756e6365207260448201526c37b632b9903337b91039b2b63360991b606482015260840161094a565b610bc3838383613940565b8b611fc481613616565b611fe05760405162461bcd60e51b815260040161094a9061538b565b611fec8d600033610cc6565b8061200b575061200b8d600080516020615bb583398151915233610cc6565b6120275760405162461bcd60e51b815260040161094a906153c1565b8483146120465760405162461bcd60e51b815260040161094a90615544565b612054600880546001019055565b600061205f60085490565b6000818152600a602052604090208181559091506001016120818d8f836157f7565b506040805160008082526020808301808552858352600a90915292902090516120b09260029092019190614597565b506000818152600a60205260409020600481018a9055600781018f9055600381018990556120e29060080188886144f4565b506000818152600a602052604090206120ff9060090186866144f4565b506000818152600a6020819052604090912084910161212b828281358155602082013560018201555050565b50508a158015612139575089155b1561216a576000818152600a60205260409020600581018c9055600681018b9055600c01805460ff191690556122e8565b8a60000361218c576000818152600a6020526040902042600590910155612218565b60008e8152600c60205260409020546001600160401b03168b10156122035760405162461bcd60e51b815260206004820152602760248201527f4576656e743a2043617465676f7279207374617274206461746520697320696e60448201526618dbdc9c9958dd60ca1b606482015260840161094a565b6000818152600a602052604090206005018b90555b8960000361223a576000818152600a60205260409020426006909101556122cb565b60008e8152600c6020526040902054600160401b90046001600160401b03168a11156122b65760405162461bcd60e51b815260206004820152602560248201527f4576656e743a2043617465676f727920656e64206461746520697320696e636f6044820152641c9c9958dd60da1b606482015260840161094a565b6000818152600a602052604090206006018a90555b6000818152600a60205260409020600c01805460ff191660011790555b6000600b0160008f81526020019081526020016000208190806001815401808255809150506001900390600052602060002001600090919091909150557f2a94cd6b8e4219d087c43453e983d276c11f9ba16e547f01adb19edb60ae3c7d8e828f8f60405161235a94939291906158b0565b60405180910390a15050505050505050505050505050565b606060006001018054610a099061540b565b61238f338383613abd565b5050565b8261239d81613616565b6123b95760405162461bcd60e51b815260040161094a9061538b565b6000838152600a60205260408120548491036123e75760405162461bcd60e51b815260040161094a9061543f565b6000848152600a602052604090206007015485908590821461241b5760405162461bcd60e51b815260040161094a90615476565b61242787600033610cc6565b80612446575061244687600080516020615bb583398151915233610cc6565b6124625760405162461bcd60e51b815260040161094a906153c1565b6000868152600a6020908152604091829020600c01805460ff191688151590811790915582518a8152918201899052918101919091527f15fa4fe87d07b2a02e02cc0fac2981a3fd8653661340b9b26feae8ffefaade8a90606001611761565b6060816124ce81613616565b6124ea5760405162461bcd60e51b815260040161094a9061538b565b6000838152600b602090815260408083208054825181850281018501909352808352919290919083018282801561254057602002820191906000526020600020905b81548152602001906001019080831161252c575b50505050509050600081516001600160401b03811115612562576125626148a8565b60405190808252806020026020018201604052801561259b57816020015b6125886145d2565b8152602001906001900390816125805790505b50905060005b825181101561281b576000600a0160008483815181106125c3576125c3615754565b6020026020010151815260200190815260200160002060405180610180016040529081600082015481526020016001820180546125ff9061540b565b80601f016020809104026020016040519081016040528092919081815260200182805461262b9061540b565b80156126785780601f1061264d57610100808354040283529160200191612678565b820191906000526020600020905b81548152906001019060200180831161265b57829003601f168201915b50505050508152602001600282018054806020026020016040519081016040528092919081815260200182805480156126d057602002820191906000526020600020905b8154815260200190600101908083116126bc575b5050505050815260200160038201548152602001600482015481526020016005820154815260200160068201548152602001600782015481526020016008820180548060200260200160405190810160405280929190818152602001828054801561275a57602002820191906000526020600020905b815481526020019060010190808311612746575b50505050508152602001600982018054806020026020016040519081016040528092919081815260200182805480156127b257602002820191906000526020600020905b81548152602001906001019080831161279e575b5050509183525050604080518082018252600a8401548152600b840154602082810191909152830152600c9092015460ff16151591015282518390839081106127fd576127fd615754565b602002602001018190525080806128139061573b565b9150506125a1565b509250505b50919050565b6002601254036128785760405162461bcd60e51b815260206004820152601f60248201527f5265656e7472616e637947756172643a207265656e7472616e742063616c6c00604482015260640161094a565b600260125561288b600780546001019055565b600061289660075490565b6000818152600960205260409081902080546001600160a01b03191633178155600180820189905560028201805460ff191690911790559051919250907f9ce3d6db707bca4ba0eabed8fba1e2c013a1c0bc1132a764170a7854d198c73d9061290290849086906158ed565b60405180910390a161291682600033613b87565b61292f82600080516020615bb583398151915233613b87565b61294882600080516020615b3583398151915233613b87565b61296182600080516020615b9583398151915233613b87565b61297a82600080516020615b7583398151915233613b87565b61298633838787613c8b565b61299082846136c9565b5050600160125550505050565b606060006129aa60075490565b905060008060015b838111612a19576129c581600033610cc6565b806129e457506129e481600080516020615bb583398151915233610cc6565b80156129f457506129f481613616565b15612a075782612a038161573b565b9350505b80612a118161573b565b9150506129b2565b506000826001600160401b03811115612a3457612a346148a8565b604051908082528060200260200182016040528015612a5d578160200160208202803683370190505b50905060015b8481116113f057612a7681600033610cc6565b80612a955750612a9581600080516020615bb583398151915233610cc6565b8015612aa55750612aa581613616565b15612ad65780828481518110612abd57612abd615754565b602090810291909101015282612ad28161573b565b9350505b80612ae08161573b565b915050612a63565b82612af281613616565b612b0e5760405162461bcd60e51b815260040161094a9061538b565b612b1a84600033610cc6565b612b365760405162461bcd60e51b815260040161094a906154bf565b600080516020615b758339815191528303612b935760405162461bcd60e51b815260206004820181905260248201527f4576656e743a2043616e27742072656d6f766520636173686965722068657265604482015260640161094a565b611eb584848461181a565b612ba8338361374d565b612bc45760405162461bcd60e51b815260040161094a906154f6565b611eb584848484613d2e565b6060612bdb82613633565b60008281526006602052604081208054612bf49061540b565b80601f0160208091040260200160405190810160405280929190818152602001828054612c209061540b565b8015612c6d5780601f10612c4257610100808354040283529160200191612c6d565b820191906000526020600020905b815481529060010190602001808311612c5057829003601f168201915b505050505090506000612c8b60408051602081019091526000815290565b90508051600003612c9d575092915050565b815115612ccf578082604051602001612cb7929190615906565b60405160208183030381529060405292505050919050565b6000815111612ced5760405180602001604052806000815250612d08565b80612cf785613d61565b604051602001612cb7929190615906565b949350505050565b82612d1a81613616565b612d365760405162461bcd60e51b815260040161094a9061538b565b6000838152600a6020526040812054849103612d645760405162461bcd60e51b815260040161094a9061543f565b6000848152600a6020526040902060070154859085908214612d985760405162461bcd60e51b815260040161094a90615476565b50505050505050565b82612dab81613616565b612dc75760405162461bcd60e51b815260040161094a9061538b565b6000838152600a6020526040812054849103612df55760405162461bcd60e51b815260040161094a9061543f565b6000848152600a6020526040902060070154859085908214612e295760405162461bcd60e51b815260040161094a90615476565b612e3587600033610cc6565b80612e545750612e5487600080516020615bb583398151915233610cc6565b612e705760405162461bcd60e51b815260040161094a906153c1565b6000868152600a602052604081206004018054879290612e91908490615935565b90915550506040517f3a50fbe2fa0bdf2022fcd8fe2132970519fcf4df5cf97d78e86c510eb0805b6a9061176190899089908990615948565b82612ed481613616565b612ef05760405162461bcd60e51b815260040161094a9061538b565b612efc84600033610cc6565b80612f1b5750612f1b84600080516020615bb583398151915233610cc6565b611eb55760405162461bcd60e51b815260040161094a906153c1565b6001600160a01b03918216600090815260056020908152604080832093909416825291909152205460ff1690565b8685148015612f7357508483145b8015612f7e57508281145b612fd65760405162461bcd60e51b8152602060048201526024808201527f4576656e7446616365743a20506172616d6574657273206c656e677468206e6f6044820152637420657160e01b606482015260840161094a565b6000805b8881101561312257898982818110612ff457612ff4615754565b60400291909101359050600a60008c8c8581811061301457613014615754565b905060400201602001358152602001908152602001600020600701541461304d5760405162461bcd60e51b815260040161094a90615476565b87878281811061305f5761305f615754565b905060400201602001356000600a0160008c8c8581811061308257613082615754565b90506040020160200135815260200190815260200160002060030154146130e75760405162461bcd60e51b81526020600482015260196024820152784576656e743a2057726f6e67207469636b657420707269636560381b604482015260640161094a565b8787828181106130f9576130f9615754565b905060400201602001358261310e9190615935565b91508061311a8161573b565b915050612fda565b5034811461317e5760405162461bcd60e51b815260206004820152602360248201527f4576656e743a204d73672076616c7565206e6f7420657120746f74616c20707260448201526269636560e81b606482015260840161094a565b60005b8881101561329d5760006131af8787848181106131a0576131a0615754565b90506040020160000135613e61565b6131d38888858181106131c4576131c4615754565b90506040020160200135613e61565b6040516020016131e4929190615906565b60408051601f198184030181529190529050600d60008c8c8581811061320c5761320c615754565b90506040020160000135815260200190815260200160002081604051613232919061595e565b9081526040519081900360200190205460ff161561328a5760405162461bcd60e51b815260206004820152601560248201527422bb32b73a1d10283630b1b29034b9903a30b5b2b760591b604482015260640161094a565b50806132958161573b565b915050613181565b50604051600080516020615b5583398151915290600090a1505050505050505050565b826132ca81613616565b6132e65760405162461bcd60e51b815260040161094a9061538b565b6000838152600a60205260408120548491036133145760405162461bcd60e51b815260040161094a9061543f565b6000848152600a60205260409020600701548590859082146133485760405162461bcd60e51b815260040161094a90615476565b61335487600033610cc6565b80613373575061337387600080516020615bb583398151915233610cc6565b61338f5760405162461bcd60e51b815260040161094a906153c1565b6000868152600a60205260409020600401548511156133fc5760405162461bcd60e51b815260206004820152602360248201527f4576656e743a20446563726561736564207469636b6574732062656c6f77207a60448201526265726f60e81b606482015260840161094a565b6000868152600a602052604090206004015461341990869061576a565b6000878152600a602052604090206002015411156134975760405162461bcd60e51b815260206004820152603560248201527f4576656e743a205469636b65747320616d6f756e742063616e2774206265206c604482015274657373207468616e20736f6c64207469636b65747360581b606482015260840161094a565b6000868152600a6020526040812060040180548792906134b890849061576a565b90915550506040517fb39ecd9af22a3fec10ec63455a79d572fdcfadf6a9005d5cd232b2829f958c709061176190899089908990615948565b606060006134fe60075490565b905060008060015b83811161354a576000818152600960205260409020546001600160a01b03161561353857826135348161573b565b9350505b806135428161573b565b915050613506565b506000826001600160401b03811115613565576135656148a8565b60405190808252806020026020018201604052801561358e578160200160208202803683370190505b50905060015b8481116113f0576000818152600960205260409020546001600160a01b0316156135e457808284815181106135cb576135cb615754565b6020908102919091010152826135e08161573b565b9350505b806135ee8161573b565b915050613594565b8261360184846113f9565b61360b8282613935565b61183a858585613b87565b6000908152600260205260409020546001600160a01b0316151590565b61363c81613616565b6136585760405162461bcd60e51b815260040161094a906157c5565b50565b600081815260046020526040902080546001600160a01b0319166001600160a01b038416908117909155819061369082611dca565b6001600160a01b03167f8c5be1e5ebec7d5bd14f71427d1e84f3dd0314c0f7b2291e5b200ac8c7c3b92560405160405180910390a45050565b6136d282613616565b6137355760405162461bcd60e51b815260206004820152602e60248201527f45524337323155524953746f726167653a2055524920736574206f66206e6f6e60448201526d32bc34b9ba32b73a103a37b5b2b760911b606482015260840161094a565b6000828152600660205260409020610bc382826155ef565b60008061375983611dca565b9050806001600160a01b0316846001600160a01b0316148061378057506137808185612f37565b80612d085750836001600160a01b031661379984610a8c565b6001600160a01b031614949350505050565b826001600160a01b03166137be82611dca565b6001600160a01b0316146138225760405162461bcd60e51b815260206004820152602560248201527f4552433732313a207472616e736665722066726f6d20696e636f72726563742060448201526437bbb732b960d91b606482015260840161094a565b6001600160a01b0382166138845760405162461bcd60e51b8152602060048201526024808201527f4552433732313a207472616e7366657220746f20746865207a65726f206164646044820152637265737360e01b606482015260840161094a565b61388f60008261365b565b6001600160a01b03831660009081526003602052604081208054600192906138b890849061576a565b90915550506001600160a01b03821660009081526003602052604081208054600192906138e6908490615935565b909155505060008181526002602052604080822080546001600160a01b0319166001600160a01b038681169182179092559151849391871691600080516020615bd583398151915291a4505050565b61238f828233613f61565b61394b838383610cc6565b15610bc3576000838152600f6020908152604080832085845282528083206001600160a01b03851684528252808320805460ff1916905560119091529020546139948482613fc5565b6001600160a01b038216600090815260116020526040812055336001600160a01b0316826001600160a01b0316847f7b00293d63517946aeba2f56c6b4c5dec87b67393ac48520994d3d8ce776335a876040516139f391815260200190565b60405180910390a450505050565b6000613a0c82611dca565b9050613a1960008361365b565b6001600160a01b0381166000908152600360205260408120805460019290613a4290849061576a565b909155505060008281526002602052604080822080546001600160a01b0319169055518391906001600160a01b03841690600080516020615bd5833981519152908390a460008281526006602052604090208054613a9f9061540b565b15905061238f57600082815260066020526040812061238f9161453f565b816001600160a01b0316836001600160a01b031603613b1a5760405162461bcd60e51b815260206004820152601960248201527822a9219b99189d1030b8383937bb32903a379031b0b63632b960391b604482015260640161094a565b6001600160a01b03838116600081815260056020908152604080832094871680845294825291829020805460ff191686151590811790915591519182527f17307eab39ab6107e8899845ad3d59bd9653f200f220920489ca2b5937696c31910160405180910390a3505050565b613b92838383610cc6565b610bc3576000838152600f6020908152604080832085845282528083206001600160a01b03858116808652918452828520805460ff19166001908117909155835180850185529283528285018881528987526010865293862080548083018255818852958720845160029097020180546001600160a01b03191696909316959095178255925190830155928690529054613c2c919061576a565b6001600160a01b038316600090815260116020526040902055336001600160a01b0316826001600160a01b0316847fd9dfff7752b7a810e2b646c0c96b76bc9ed817f6c6f7848bbe68163f7e8b4378876040516139f391815260200190565b816001600160401b0316816001600160401b03161015613ce85760405162461bcd60e51b8152602060048201526018602482015277455243353030373a20496e76616c696420656e6454696d6560401b604482015260640161094a565b613cf284846140a8565b6000928352600c602052604090922080546001600160401b03938416600160401b026001600160801b0319909116939092169290921717905550565b613d398484846137ab565b613d45848484846141c8565b611eb55760405162461bcd60e51b815260040161094a9061597a565b606081600003613d885750506040805180820190915260018152600360fc1b602082015290565b8160005b8115613db25780613d9c8161573b565b9150613dab9050600a836159e2565b9150613d8c565b6000816001600160401b03811115613dcc57613dcc6148a8565b6040519080825280601f01601f191660200182016040528015613df6576020820181803683370190505b5090505b8415612d0857613e0b60018361576a565b9150613e18600a866159f6565b613e23906030615935565b60f81b818381518110613e3857613e38615754565b60200101906001600160f81b031916908160001a905350613e5a600a866159e2565b9450613dfa565b606081600003613e885750506040805180820190915260018152600360fc1b602082015290565b8160005b8115613eb25780613e9c8161573b565b9150613eab9050600a836159e2565b9150613e8c565b6000816001600160401b03811115613ecc57613ecc6148a8565b6040519080825280601f01601f191660200182016040528015613ef6576020820181803683370190505b5090505b8415612d0857613f0b60018361576a565b9150613f18600a866159f6565b613f23906030615935565b60f81b818381518110613f3857613f38615754565b60200101906001600160f81b031916908160001a905350613f5a600a866159e2565b9450613efa565b613f6c838383610cc6565b610bc357613f79816142c9565b613f848360206142db565b613f8d8561447d565b604051602001613f9f93929190615a0a565b60408051601f198184030181529082905262461bcd60e51b825261094a91600401614727565b60008281526010602052604090208054613fe19060019061576a565b81548110613ff157613ff1615754565b906000526020600020906002020160106000848152602001908152602001600020828154811061402357614023615754565b60009182526020808320845460029093020180546001600160a01b0319166001600160a01b03909316929092178255600193840154939091019290925583815260109091526040902080548061407b5761407b61577d565b60008281526020812060026000199093019283020180546001600160a01b03191681556001015590555050565b6001600160a01b0382166140fe5760405162461bcd60e51b815260206004820181905260248201527f4552433732313a206d696e7420746f20746865207a65726f2061646472657373604482015260640161094a565b61410781613616565b156141535760405162461bcd60e51b815260206004820152601c60248201527b115490cdcc8c4e881d1bdad95b88185b1c9958591e481b5a5b9d195960221b604482015260640161094a565b6001600160a01b038216600090815260036020526040812080546001929061417c908490615935565b909155505060008181526002602052604080822080546001600160a01b0319166001600160a01b0386169081179091559051839290600080516020615bd5833981519152908290a45050565b60006001600160a01b0384163b156142be57604051630a85bd0160e11b81526001600160a01b0385169063150b7a029061420c903390899088908890600401615aac565b6020604051808303816000875af1925050508015614247575060408051601f3d908101601f1916820190925261424491810190615ae9565b60015b6142a4573d808015614275576040519150601f19603f3d011682016040523d82523d6000602084013e61427a565b606091505b50805160000361429c5760405162461bcd60e51b815260040161094a9061597a565b805181602001fd5b6001600160e01b031916630a85bd0160e11b149050612d08565b506001949350505050565b60606114176001600160a01b03831660145b606060006142ea836002615b06565b6142f5906002615935565b6001600160401b0381111561430c5761430c6148a8565b6040519080825280601f01601f191660200182016040528015614336576020820181803683370190505b509050600360fc1b8160008151811061435157614351615754565b60200101906001600160f81b031916908160001a905350600f60fb1b8160018151811061438057614380615754565b60200101906001600160f81b031916908160001a90535060006143a4846002615b06565b6143af906001615935565b90505b6001811115614427576f181899199a1a9b1b9c1cb0b131b232b360811b85600f16601081106143e3576143e3615754565b1a60f81b8282815181106143f9576143f9615754565b60200101906001600160f81b031916908160001a90535060049490941c9361442081615b1d565b90506143b2565b5083156144765760405162461bcd60e51b815260206004820181905260248201527f537472696e67733a20686578206c656e67746820696e73756666696369656e74604482015260640161094a565b9392505050565b6060816000036144a75750506040805180820190915260048152630307830360e41b602082015290565b8160005b81156144ca57806144bb8161573b565b915050600882901c91506144ab565b612d0884826142db565b604080516060810182526000808252602082018190529181019190915290565b82805482825590600052602060002090810192821561452f579160200282015b8281111561452f578235825591602001919060010190614514565b5061453b92915061464e565b5090565b50805461454b9061540b565b6000825580601f1061455b575050565b601f016020900490600052602060002090810190613658919061464e565b5080546000825590600052602060002090810190613658919061464e565b82805482825590600052602060002090810192821561452f579160200282015b8281111561452f5782518255916020019190600101906145b7565b60405180610180016040528060008152602001606081526020016060815260200160008152602001600081526020016000815260200160008152602001600081526020016060815260200160608152602001614641604051806040016040528060008152602001600081525090565b8152600060209091015290565b5b8082111561453b576000815560010161464f565b6001600160e01b03198116811461365857600080fd5b60006020828403121561468b57600080fd5b813561447681614663565b803580151581146146a657600080fd5b919050565b600080604083850312156146be57600080fd5b823591506146ce60208401614696565b90509250929050565b60005b838110156146f25781810151838201526020016146da565b50506000910152565b600081518084526147138160208601602086016146d7565b601f01601f19169290920160200192915050565b60208152600061447660208301846146fb565b60006020828403121561474c57600080fd5b5035919050565b80356001600160a01b03811681146146a657600080fd5b6000806040838503121561477d57600080fd5b61478683614753565b946020939093013593505050565b80516001600160a01b03168252602080820151908301526040908101511515910152565b606081016114178284614794565b602080825282518282018190526000919060409081850190868401855b8281101561481157815180516001600160a01b031685528601518685015292840192908501906001016147e3565b5091979650505050505050565b60008060006060848603121561483357600080fd5b833592506020840135915061484a60408501614753565b90509250925092565b6000806000806080858703121561486957600080fd5b5050823594602084013594506040840135936060013592509050565b6000806040838503121561489857600080fd5b823591506146ce60208401614753565b634e487b7160e01b600052604160045260246000fd5b604051601f8201601f191681016001600160401b03811182821017156148e6576148e66148a8565b604052919050565b60006001600160401b03831115614907576149076148a8565b61491a601f8401601f19166020016148be565b905082815283838301111561492e57600080fd5b828260208301376000602084830101529392505050565b600082601f83011261495657600080fd5b614476838335602085016148ee565b6000806040838503121561497857600080fd5b8235915060208301356001600160401b0381111561499557600080fd5b6149a185828601614945565b9150509250929050565b6000806000606084860312156149c057600080fd5b6149c984614753565b92506149d760208501614753565b9150604084013590509250925092565b60008083601f8401126149f957600080fd5b5081356001600160401b03811115614a1057600080fd5b6020830191508360208260051b8501011115614a2b57600080fd5b9250929050565b60006040828403121561282057600080fd5b60008060008060008060008060006101008a8c031215614a6357600080fd5b8935985060208a0135975060408a01356001600160401b0380821115614a8857600080fd5b614a948d838e01614945565b985060608c0135975060808c0135915080821115614ab157600080fd5b614abd8d838e016149e7565b909750955060a08c0135915080821115614ad657600080fd5b50614ae38c828d016149e7565b9094509250614af790508b60c08c01614a32565b90509295985092959850929598565b60006001600160401b0380841115614b2057614b206148a8565b6020614b30818660051b016148be565b8581529250808301600686901b850187811115614b4c57600080fd5b855b81811015614b9e57604080828b031215614b685760008081fd5b80518181018181108882111715614b8157614b816148a8565b909152813581528482013585820152835291830191604001614b4e565b50505050509392505050565b600082601f830112614bbb57600080fd5b61447683833560208501614b06565b600080600080600080600060a0888a031215614be557600080fd5b873596506020880135955060408801356001600160401b0380821115614c0a57600080fd5b614c168b838c016149e7565b909750955060608a0135915080821115614c2f57600080fd5b614c3b8b838c01614baa565b945060808a0135915080821115614c5157600080fd5b50614c5e8a828b016149e7565b989b979a50959850939692959293505050565b6020808252825182820181905260009190848201906040850190845b81811015614cb357614ca0838551614794565b9284019260609290920191600101614c8d565b50909695505050505050565b60008060408385031215614cd257600080fd5b50508035926020909101359150565b60008060008060808587031215614cf757600080fd5b843593506020850135925060408501359150614d1560608601614753565b905092959194509250565b60008060008060008060a08789031215614d3957600080fd5b863595506020870135945060408701356001600160401b0380821115614d5e57600080fd5b818901915089601f830112614d7257600080fd5b614d818a833560208501614b06565b95506060890135915080821115614d9757600080fd5b614da38a838b01614baa565b94506080890135915080821115614db957600080fd5b50614dc689828a016149e7565b979a9699509497509295939492505050565b600080600060608486031215614ded57600080fd5b505081359360208301359350604090920135919050565b600060208284031215614e1657600080fd5b61447682614753565b60008083601f840112614e3157600080fd5b5081356001600160401b03811115614e4857600080fd5b602083019150836020828501011115614a2b57600080fd5b6000806000806000806000806000806000806101408d8f031215614e8357600080fd5b8c359b506001600160401b0360208e01351115614e9f57600080fd5b614eaf8e60208f01358f01614e1f565b909b50995060408d0135985060608d0135975060808d0135965060a08d013595506001600160401b0360c08e01351115614ee857600080fd5b614ef88e60c08f01358f016149e7565b90955093506001600160401b0360e08e01351115614f1557600080fd5b614f258e60e08f01358f016149e7565b9093509150614f388e6101008f01614a32565b90509295989b509295989b509295989b565b60008060408385031215614f5d57600080fd5b614f6683614753565b91506146ce60208401614696565b600080600060608486031215614f8957600080fd5b833592506020840135915061484a60408501614696565b600081518084526020808501945080840160005b83811015614fd057815187529582019590820190600101614fb4565b509495945050505050565b60006020808301818452808551808352604092508286019150828160051b87010184880160005b8381101561510157603f1989840301855281516101a08151855288820151818a870152615031828701826146fb565b91505087820151858203898701526150498282614fa0565b606084810151908801526080808501519088015260a0808501519088015260c0808501519088015260e0808501519088015261010080850151888303828a015291935091506150988382614fa0565b9250505061012080830151868303828801526150b48382614fa0565b92505050610140808301516150d58288018280518252602090810151910152565b505061016082015191506150ee61018086018315159052565b9588019593505090860190600101615002565b509098975050505050505050565b80356001600160401b03811681146146a657600080fd5b6000806000806080858703121561513c57600080fd5b8435935061514c6020860161510f565b925061515a6040860161510f565b915060608501356001600160401b0381111561517557600080fd5b61518187828801614945565b91505092959194509250565b6020815260006144766020830184614fa0565b600080600080608085870312156151b657600080fd5b6151bf85614753565b93506151cd60208601614753565b92506040850135915060608501356001600160401b038111156151ef57600080fd5b8501601f8101871361520057600080fd5b615181878235602084016148ee565b60008083601f84011261522157600080fd5b5081356001600160401b0381111561523857600080fd5b6020830191508360208260061b8501011115614a2b57600080fd5b60008060006040848603121561526857600080fd5b8335925060208401356001600160401b0381111561528557600080fd5b6152918682870161520f565b9497909650939450505050565b600080604083850312156152b157600080fd5b6152ba83614753565b91506146ce60208401614753565b6000806000806000806000806080898b0312156152e457600080fd5b88356001600160401b03808211156152fb57600080fd5b6153078c838d0161520f565b909a50985060208b013591508082111561532057600080fd5b61532c8c838d0161520f565b909850965060408b013591508082111561534557600080fd5b6153518c838d0161520f565b909650945060608b013591508082111561536a57600080fd5b506153778b828c016149e7565b999c989b5096995094979396929594505050565b6020808252601c908201527b4576656e743a204576656e7420646f6573206e6f742065786973742160201b604082015260600190565b6020808252602a908201527f4576656e743a2043616c6c6572206973206e6f7420616e2061646d696e206f726040820152691036b7b232b930ba37b960b11b606082015260800190565b600181811c9082168061541f57607f821691505b60208210810361282057634e487b7160e01b600052602260045260246000fd5b6020808252601f908201527f4576656e743a2043617465676f727920646f6573206e6f742065786973742100604082015260600190565b60208082526029908201527f4576656e743a20546869732063617465676f727920697320666f7220616e6f746040820152681a195c88195d995b9d60ba1b606082015260800190565b6020808252601d908201527f4576656e743a2043616c6c6572206973206e6f7420616e2061646d696e000000604082015260600190565b6020808252602e908201527f4552433732313a2063616c6c6572206973206e6f7420746f6b656e206f776e6560408201526d1c881b9bdc88185c1c1c9bdd995960921b606082015260800190565b60208082526028908201527f4576656e743a20446973636f756e7420706172616d6574657273206c656e677460408201526768206e6f7420657160c01b606082015260800190565b601f821115610bc357600081815260208120601f850160051c810160208610156155b35750805b601f850160051c820191505b818110156155d2578281556001016155bf565b505050505050565b600019600383901b1c191660019190911b1790565b81516001600160401b03811115615608576156086148a8565b61561c81615616845461540b565b8461558c565b602080601f83116001811461564b57600084156156395750858301515b61564385826155da565b8655506155d2565b600085815260208120601f198616915b8281101561567a5788860151825594840194600190910190840161565b565b50858210156156985787850151600019600388901b60f8161c191681555b5050505050600190811b01905550565b600060a082018883526020888185015287604085015260a060608501528186835260c08501905087925060005b87811015615701576001600160a01b036156ee85614753565b16825292820192908201906001016156d5565b506001600160a01b0395909516608094909401939093525091979650505050505050565b634e487b7160e01b600052601160045260246000fd5b60006001820161574d5761574d615725565b5060010190565b634e487b7160e01b600052603260045260246000fd5b8181038181111561141757611417615725565b634e487b7160e01b600052603160045260246000fd5b602080825260189082015277115490cd4c0c0dce88125b9d985b1a59081d1bdad95b925960421b604082015260600190565b602080825260189082015277115490cdcc8c4e881a5b9d985b1a59081d1bdad95b88125160421b604082015260600190565b6001600160401b0383111561580e5761580e6148a8565b6158228361581c835461540b565b8361558c565b6000601f841160018114615850576000851561583e5750838201355b61584886826155da565b84555061183a565b600083815260209020601f19861690835b828110156158815786850135825560209485019460019092019101615861565b508682101561589e5760001960f88860031b161c19848701351681555b505060018560011b0183555050505050565b84815283602082015260606040820152816060820152818360808301376000818301608090810191909152601f909201601f191601019392505050565b828152604060208201526000612d0860408301846146fb565b600083516159188184602088016146d7565b83519083019061592c8183602088016146d7565b01949350505050565b8082018082111561141757611417615725565b9283526020830191909152604082015260600190565b600082516159708184602087016146d7565b9190910192915050565b60208082526032908201527f4552433732313a207472616e7366657220746f206e6f6e20455243373231526560408201527131b2b4bb32b91034b6b83632b6b2b73a32b960711b606082015260800190565b634e487b7160e01b600052601260045260246000fd5b6000826159f1576159f16159cc565b500490565b600082615a0557615a056159cc565b500690565b7402937b632a1b7b73a3937b61d1030b1b1b7bab73a1605d1b815260008451615a3a8160158501602089016146d7565b7001034b99036b4b9b9b4b733903937b6329607d1b6015918401918201528451615a6b8160268401602089016146d7565b720103337b91032bb32b73a103bb4ba341034b21606d1b602692909101918201528351615a9f8160398401602088016146d7565b0160390195945050505050565b6001600160a01b0385811682528416602082015260408101839052608060608201819052600090615adf908301846146fb565b9695505050505050565b600060208284031215615afb57600080fd5b815161447681614663565b808202811582820484141761141757611417615725565b600081615b2c57615b2c615725565b50600019019056fe21702c8af46127c7fa207f89d0b0a8441bb32959a0ac7df790e9ab1a25c989266443db67cd3ee076660075aeb7d4222012b3a4a713f0c3bfba2310a4c2f11737ff3317e1e0e8c784290b957ee9b65ea8fe96420c4819db463283b95ecbe4a3feb5a7f51d0593e853ad0aa6b718ee0bdd10c4966eb62d243b69d538e5823d040171f3d55856e4058ed06ee057d79ada615f65cdf5f9ee88181b914225088f834fddf252ad1be2c89b69c2b068fc378daa952ba7f163c4a11628f55a4df523b3efa26469706673582212207261707c78c3380ae79aec1ad772bd1ad9eb7e5bdf963cc52f658241ed048fff64736f6c63430008110033",
  "linkReferences": {},
  "deployedLinkReferences": {}
}