{
  "_format": "hh-sol-artifact-1",
  "contractName": "TicketFacet",
  "sourceName": "contracts/TicketDiamond/facets/TicketFacet.sol",
  "abi": [
    {
      "inputs": [],
      "name": "ApprovalCallerNotOwnerNorApproved",
      "type": "error"
    },
    {
      "inputs": [],
      "name": "ApprovalQueryForNonexistentToken",
      "type": "error"
    },
    {
      "inputs": [],
      "name": "BalanceQueryForZeroAddress",
      "type": "error"
    },
    {
      "inputs": [],
      "name": "MintERC2309QuantityExceedsLimit",
      "type": "error"
    },
    {
      "inputs": [],
      "name": "MintToZeroAddress",
      "type": "error"
    },
    {
      "inputs": [],
      "name": "MintZeroQuantity",
      "type": "error"
    },
    {
      "inputs": [],
      "name": "OwnerQueryForNonexistentToken",
      "type": "error"
    },
    {
      "inputs": [],
      "name": "OwnershipNotInitializedForExtraData",
      "type": "error"
    },
    {
      "inputs": [],
      "name": "TransferCallerNotOwnerNorApproved",
      "type": "error"
    },
    {
      "inputs": [],
      "name": "TransferFromIncorrectOwner",
      "type": "error"
    },
    {
      "inputs": [],
      "name": "TransferToNonERC721ReceiverImplementer",
      "type": "error"
    },
    {
      "inputs": [],
      "name": "TransferToZeroAddress",
      "type": "error"
    },
    {
      "inputs": [],
      "name": "URIQueryForNonexistentToken",
      "type": "error"
    },
    {
      "anonymous": false,
      "inputs": [
        {
          "indexed": true,
          "internalType": "address",
          "name": "owner",
          "type": "address"
        },
        {
          "indexed": true,
          "internalType": "address",
          "name": "approved",
          "type": "address"
        },
        {
          "indexed": true,
          "internalType": "uint256",
          "name": "tokenId",
          "type": "uint256"
        }
      ],
      "name": "Approval",
      "type": "event"
    },
    {
      "anonymous": false,
      "inputs": [
        {
          "indexed": true,
          "internalType": "address",
          "name": "owner",
          "type": "address"
        },
        {
          "indexed": true,
          "internalType": "address",
          "name": "operator",
          "type": "address"
        },
        {
          "indexed": false,
          "internalType": "bool",
          "name": "approved",
          "type": "bool"
        }
      ],
      "name": "ApprovalForAll",
      "type": "event"
    },
    {
      "anonymous": false,
      "inputs": [
        {
          "indexed": true,
          "internalType": "uint256",
          "name": "fromTokenId",
          "type": "uint256"
        },
        {
          "indexed": false,
          "internalType": "uint256",
          "name": "toTokenId",
          "type": "uint256"
        },
        {
          "indexed": true,
          "internalType": "address",
          "name": "from",
          "type": "address"
        },
        {
          "indexed": true,
          "internalType": "address",
          "name": "to",
          "type": "address"
        }
      ],
      "name": "ConsecutiveTransfer",
      "type": "event"
    },
    {
      "anonymous": false,
      "inputs": [
        {
          "indexed": true,
          "internalType": "address",
          "name": "from",
          "type": "address"
        },
        {
          "indexed": true,
          "internalType": "address",
          "name": "to",
          "type": "address"
        },
        {
          "indexed": true,
          "internalType": "uint256",
          "name": "tokenId",
          "type": "uint256"
        }
      ],
      "name": "Transfer",
      "type": "event"
    },
    {
      "inputs": [
        {
          "internalType": "address",
          "name": "to",
          "type": "address"
        },
        {
          "internalType": "uint256",
          "name": "tokenId",
          "type": "uint256"
        }
      ],
      "name": "approve",
      "outputs": [],
      "stateMutability": "payable",
      "type": "function"
    },
    {
      "inputs": [
        {
          "internalType": "address",
          "name": "owner",
          "type": "address"
        }
      ],
      "name": "balanceOf",
      "outputs": [
        {
          "internalType": "uint256",
          "name": "",
          "type": "uint256"
        }
      ],
      "stateMutability": "view",
      "type": "function"
    },
    {
      "inputs": [
        {
          "internalType": "uint256",
          "name": "tokenId",
          "type": "uint256"
        }
      ],
      "name": "getApproved",
      "outputs": [
        {
          "internalType": "address",
          "name": "",
          "type": "address"
        }
      ],
      "stateMutability": "view",
      "type": "function"
    },
    {
      "inputs": [
        {
          "internalType": "address",
          "name": "owner",
          "type": "address"
        },
        {
          "internalType": "address",
          "name": "operator",
          "type": "address"
        }
      ],
      "name": "isApprovedForAll",
      "outputs": [
        {
          "internalType": "bool",
          "name": "",
          "type": "bool"
        }
      ],
      "stateMutability": "view",
      "type": "function"
    },
    {
      "inputs": [
        {
          "internalType": "uint256",
          "name": "_price",
          "type": "uint256"
        },
        {
          "internalType": "uint256",
          "name": "_row",
          "type": "uint256"
        },
        {
          "internalType": "uint256",
          "name": "_seat",
          "type": "uint256"
        },
        {
          "internalType": "string",
          "name": "_ticketMetadataURI",
          "type": "string"
        },
        {
          "internalType": "address",
          "name": "_to",
          "type": "address"
        }
      ],
      "name": "mintTicket",
      "outputs": [
        {
          "internalType": "uint256",
          "name": "",
          "type": "uint256"
        }
      ],
      "stateMutability": "nonpayable",
      "type": "function"
    },
    {
      "inputs": [],
      "name": "name",
      "outputs": [
        {
          "internalType": "string",
          "name": "",
          "type": "string"
        }
      ],
      "stateMutability": "view",
      "type": "function"
    },
    {
      "inputs": [
        {
          "internalType": "uint256",
          "name": "tokenId",
          "type": "uint256"
        }
      ],
      "name": "ownerOf",
      "outputs": [
        {
          "internalType": "address",
          "name": "",
          "type": "address"
        }
      ],
      "stateMutability": "view",
      "type": "function"
    },
    {
      "inputs": [
        {
          "internalType": "address",
          "name": "from",
          "type": "address"
        },
        {
          "internalType": "address",
          "name": "to",
          "type": "address"
        },
        {
          "internalType": "uint256",
          "name": "tokenId",
          "type": "uint256"
        }
      ],
      "name": "safeTransferFrom",
      "outputs": [],
      "stateMutability": "payable",
      "type": "function"
    },
    {
      "inputs": [
        {
          "internalType": "address",
          "name": "from",
          "type": "address"
        },
        {
          "internalType": "address",
          "name": "to",
          "type": "address"
        },
        {
          "internalType": "uint256",
          "name": "tokenId",
          "type": "uint256"
        },
        {
          "internalType": "bytes",
          "name": "_data",
          "type": "bytes"
        }
      ],
      "name": "safeTransferFrom",
      "outputs": [],
      "stateMutability": "payable",
      "type": "function"
    },
    {
      "inputs": [
        {
          "internalType": "address",
          "name": "operator",
          "type": "address"
        },
        {
          "internalType": "bool",
          "name": "approved",
          "type": "bool"
        }
      ],
      "name": "setApprovalForAll",
      "outputs": [],
      "stateMutability": "nonpayable",
      "type": "function"
    },
    {
      "inputs": [
        {
          "internalType": "address",
          "name": "_contractAddress",
          "type": "address"
        }
      ],
      "name": "setEventFacetAddress",
      "outputs": [],
      "stateMutability": "nonpayable",
      "type": "function"
    },
    {
      "inputs": [],
      "name": "symbol",
      "outputs": [
        {
          "internalType": "string",
          "name": "",
          "type": "string"
        }
      ],
      "stateMutability": "view",
      "type": "function"
    },
    {
      "inputs": [
        {
          "internalType": "uint256",
          "name": "tokenId",
          "type": "uint256"
        }
      ],
      "name": "tokenURI",
      "outputs": [
        {
          "internalType": "string",
          "name": "",
          "type": "string"
        }
      ],
      "stateMutability": "view",
      "type": "function"
    },
    {
      "inputs": [],
      "name": "totalSupply",
      "outputs": [
        {
          "internalType": "uint256",
          "name": "",
          "type": "uint256"
        }
      ],
      "stateMutability": "view",
      "type": "function"
    },
    {
      "inputs": [
        {
          "internalType": "address",
          "name": "from",
          "type": "address"
        },
        {
          "internalType": "address",
          "name": "to",
          "type": "address"
        },
        {
          "internalType": "uint256",
          "name": "tokenId",
          "type": "uint256"
        }
      ],
      "name": "transferFrom",
      "outputs": [],
      "stateMutability": "payable",
      "type": "function"
    }
  ],
  "bytecode": "0x608060405234801561001057600080fd5b506112f6806100206000396000f3fe6080604052600436106100e85760003560e01c80636352211e1161008a578063a22cb46511610059578063a22cb46514610243578063b88d4fde14610263578063c87b56dd14610276578063e985e9c51461029657600080fd5b80636352211e146101ce57806370a08231146101ee5780638f79c6271461020e57806395d89b411461022e57600080fd5b806318160ddd116100c657806318160ddd1461016557806323b872dd1461018857806328a2e01f1461019b57806342842e0e146101bb57600080fd5b806306fdde03146100ed578063081812fc14610118578063095ea7b314610150575b600080fd5b3480156100f957600080fd5b506101026102c6565b60405161010f9190610e14565b60405180910390f35b34801561012457600080fd5b50610138610133366004610e27565b61035b565b6040516001600160a01b03909116815260200161010f565b61016361015e366004610e5c565b61039f565b005b34801561017157600080fd5b50600154600054035b60405190815260200161010f565b610163610196366004610e86565b61043f565b3480156101a757600080fd5b5061017a6101b6366004610f4e565b6105d8565b6101636101c9366004610e86565b61063c565b3480156101da57600080fd5b506101386101e9366004610e27565b61065c565b3480156101fa57600080fd5b5061017a610209366004610fcd565b61066d565b34801561021a57600080fd5b50610163610229366004610fcd565b6106bc565b34801561023a57600080fd5b50610102610705565b34801561024f57600080fd5b5061016361025e366004610fe8565b610717565b610163610271366004611024565b610783565b34801561028257600080fd5b50610102610291366004610e27565b6107cd565b3480156102a257600080fd5b506102b66102b13660046110a0565b61092d565b604051901515815260200161010f565b6060600060020180546102d8906110d3565b80601f0160208091040260200160405190810160405280929190818152602001828054610304906110d3565b80156103515780601f1061032657610100808354040283529160200191610351565b820191906000526020600020905b81548152906001019060200180831161033457829003601f168201915b5050505050905090565b60006103668261095b565b610383576040516333d1c03960e21b815260040160405180910390fd5b506000908152600660205260409020546001600160a01b031690565b60006103aa8261065c565b9050336001600160a01b038216146103e3576103c6813361092d565b6103e3576040516367d9dca160e11b815260040160405180910390fd5b60008281526006602052604080822080546001600160a01b0319166001600160a01b0387811691821790925591518593918516917f8c5be1e5ebec7d5bd14f71427d1e84f3dd0314c0f7b2291e5b200ac8c7c3b92591a4505050565b600061044a82610982565b9050836001600160a01b0316816001600160a01b03161461047d5760405162a1148160e81b815260040160405180910390fd5b60008281526006602052604090208054338082146001600160a01b038816909114176104ca576104ad863361092d565b6104ca57604051632ce44b5f60e11b815260040160405180910390fd5b6001600160a01b0385166104f157604051633a954ecd60e21b815260040160405180910390fd5b80156104fc57600082555b6001600160a01b038681166000908152600560205260408082208054600019019055918716808252919020805460010190554260a01b17600160e11b17600085815260046020526040812091909155600160e11b8416900361058e5760018401600081815260046020526040812054900361058c57600054811461058c5760008181526004602052604090208490555b505b83856001600160a01b0316876001600160a01b03167fddf252ad1be2c89b69c2b068fc378daa952ba7f163c4a11628f55a4df523b3ef60405160405180910390a45b505050505050565b60006105e26109f0565b600060016105ef60005490565b6105f9919061110d565b600081815260086020526040902088815560018082018990556002909101879055909150610628908490610a81565b6106328185610b7f565b9695505050505050565b61065783838360405180602001604052806000815250610783565b505050565b600061066782610982565b92915050565b60006001600160a01b038216610696576040516323d3ad8160e21b815260040160405180910390fd5b506001600160a01b031660009081526005602052604090205467ffffffffffffffff1690565b6106c4610c08565b7fc8fcad8db84d3cc18b4c41d551ea0ee66dd599cde068d998e57d5e09332c132180546001600160a01b0319166001600160a01b0392909216919091179055565b6060600060030180546102d8906110d3565b3360008181526007602090815260408083206001600160a01b03871680855290835292819020805460ff191686151590811790915590519081529192917f17307eab39ab6107e8899845ad3d59bd9653f200f220920489ca2b5937696c31910160405180910390a35050565b61078e84848461043f565b6001600160a01b0383163b156107c7576107aa84848484610c95565b6107c7576040516368d2bf6b60e11b815260040160405180910390fd5b50505050565b60606107d88261095b565b6107f557604051630a14c4b560e41b815260040160405180910390fd5b60008281526008602052604081206003018054610811906110d3565b80601f016020809104026020016040519081016040528092919081815260200182805461083d906110d3565b801561088a5780601f1061085f5761010080835404028352916020019161088a565b820191906000526020600020905b81548152906001019060200180831161086d57829003601f168201915b5050505050905060006108a860408051602081019091526000815290565b905080516000036108ba575092915050565b8151156108ec5780826040516020016108d492919061112e565b60405160208183030381529060405292505050919050565b805160000361090a5760405180602001604052806000815250610925565b8061091485610d80565b6040516020016108d492919061112e565b949350505050565b6001600160a01b03918216600090815260076020908152604080832093909416825291909152205460ff1690565b6000805482108015610667575050600090815260046020526040902054600160e01b161590565b6000816000548110156109d75760008181526004602052604081205490600160e01b821690036109d5575b806000036109ce5750600019016000818152600460205260409020546109ad565b9392505050565b505b604051636f96cda160e11b815260040160405180910390fd5b7fc8fcad8db84d3cc18b4c41d551ea0ee66dd599cde068d998e57d5e09332c131c600501546001600160a01b03163314610a7f5760405162461bcd60e51b815260206004820152602560248201527f4c69625469636b65744469616d6f6e643a204d757374206265206576656e7420604482015264199858d95d60da1b60648201526084015b60405180910390fd5b565b6000805490829003610aa65760405163b562e8dd60e01b815260040160405180910390fd5b6001600160a01b03831660008181526005602090815260408083208054680100000000000000018802019055848352600490915281206001851460e11b4260a01b178317905582840190839083907fddf252ad1be2c89b69c2b068fc378daa952ba7f163c4a11628f55a4df523b3ef8180a4600183015b818114610b5557808360007fddf252ad1be2c89b69c2b068fc378daa952ba7f163c4a11628f55a4df523b3ef600080a4600101610b1d565b5081600003610b7657604051622e076360e81b815260040160405180910390fd5b60005550505050565b610b888261095b565b610bed5760405162461bcd60e51b815260206004820152603060248201527f5469636b65744552433732314146616365743a2055524920736574206f66206e60448201526f37b732bc34b9ba32b73a103a37b5b2b760811b6064820152608401610a76565b600082815260086020526040902060030161065782826111a3565b7fc8fcad8db84d3cc18b4c41d551ea0ee66dd599cde068d998e57d5e09332c131c600401546001600160a01b03163314610a7f5760405162461bcd60e51b815260206004820152602860248201527f4c69625469636b65744469616d6f6e643a204d75737420626520636f6e74726160448201526731ba1037bbb732b960c11b6064820152608401610a76565b604051630a85bd0160e11b81526000906001600160a01b0385169063150b7a0290610cca903390899088908890600401611263565b6020604051808303816000875af1925050508015610d05575060408051601f3d908101601f19168201909252610d0291810190611296565b60015b610d63573d808015610d33576040519150601f19603f3d011682016040523d82523d6000602084013e610d38565b606091505b508051600003610d5b576040516368d2bf6b60e11b815260040160405180910390fd5b805181602001fd5b6001600160e01b031916630a85bd0160e11b149050949350505050565b606060a06040510180604052602081039150506000815280825b600183039250600a81066030018353600a900480610d9a5750819003601f19909101908152919050565b60005b83811015610ddf578181015183820152602001610dc7565b50506000910152565b60008151808452610e00816020860160208601610dc4565b601f01601f19169290920160200192915050565b6020815260006109ce6020830184610de8565b600060208284031215610e3957600080fd5b5035919050565b80356001600160a01b0381168114610e5757600080fd5b919050565b60008060408385031215610e6f57600080fd5b610e7883610e40565b946020939093013593505050565b600080600060608486031215610e9b57600080fd5b610ea484610e40565b9250610eb260208501610e40565b9150604084013590509250925092565b634e487b7160e01b600052604160045260246000fd5b600067ffffffffffffffff80841115610ef357610ef3610ec2565b604051601f8501601f19908116603f01168101908282118183101715610f1b57610f1b610ec2565b81604052809350858152868686011115610f3457600080fd5b858560208301376000602087830101525050509392505050565b600080600080600060a08688031215610f6657600080fd5b853594506020860135935060408601359250606086013567ffffffffffffffff811115610f9257600080fd5b8601601f81018813610fa357600080fd5b610fb288823560208401610ed8565b925050610fc160808701610e40565b90509295509295909350565b600060208284031215610fdf57600080fd5b6109ce82610e40565b60008060408385031215610ffb57600080fd5b61100483610e40565b91506020830135801515811461101957600080fd5b809150509250929050565b6000806000806080858703121561103a57600080fd5b61104385610e40565b935061105160208601610e40565b925060408501359150606085013567ffffffffffffffff81111561107457600080fd5b8501601f8101871361108557600080fd5b61109487823560208401610ed8565b91505092959194509250565b600080604083850312156110b357600080fd5b6110bc83610e40565b91506110ca60208401610e40565b90509250929050565b600181811c908216806110e757607f821691505b60208210810361110757634e487b7160e01b600052602260045260246000fd5b50919050565b8181038181111561066757634e487b7160e01b600052601160045260246000fd5b60008351611140818460208801610dc4565b835190830190611154818360208801610dc4565b01949350505050565b601f82111561065757600081815260208120601f850160051c810160208610156111845750805b601f850160051c820191505b818110156105d057828155600101611190565b815167ffffffffffffffff8111156111bd576111bd610ec2565b6111d1816111cb84546110d3565b8461115d565b602080601f83116001811461120657600084156111ee5750858301515b600019600386901b1c1916600185901b1785556105d0565b600085815260208120601f198616915b8281101561123557888601518255948401946001909101908401611216565b50858210156112535787850151600019600388901b60f8161c191681555b5050505050600190811b01905550565b6001600160a01b038581168252841660208201526040810183905260806060820181905260009061063290830184610de8565b6000602082840312156112a857600080fd5b81516001600160e01b0319811681146109ce57600080fdfea26469706673582212203e49a69ba553ee7524d03f2a7af072932ee60fe4f2174c9cc6a7deebcdcdcca264736f6c63430008110033",
  "linkReferences": {},
  "deployedLinkReferences": {}
}