{
  "_format": "hh-sol-artifact-1",
  "contractName": "TicketFacet",
  "sourceName": "contracts/TicketDiamond/facets/TicketFacet.sol",
  "abi": [
    {
      "inputs": [],
      "name": "ApprovalCallerNotOwnerNorApproved",
      "type": "error"
    },
    {
      "inputs": [],
      "name": "ApprovalQueryForNonexistentToken",
      "type": "error"
    },
    {
      "inputs": [],
      "name": "BalanceQueryForZeroAddress",
      "type": "error"
    },
    {
      "inputs": [],
      "name": "MintERC2309QuantityExceedsLimit",
      "type": "error"
    },
    {
      "inputs": [],
      "name": "MintToZeroAddress",
      "type": "error"
    },
    {
      "inputs": [],
      "name": "MintZeroQuantity",
      "type": "error"
    },
    {
      "inputs": [],
      "name": "OwnerQueryForNonexistentToken",
      "type": "error"
    },
    {
      "inputs": [],
      "name": "OwnershipNotInitializedForExtraData",
      "type": "error"
    },
    {
      "inputs": [],
      "name": "TransferCallerNotOwnerNorApproved",
      "type": "error"
    },
    {
      "inputs": [],
      "name": "TransferFromIncorrectOwner",
      "type": "error"
    },
    {
      "inputs": [],
      "name": "TransferToNonERC721ReceiverImplementer",
      "type": "error"
    },
    {
      "inputs": [],
      "name": "TransferToZeroAddress",
      "type": "error"
    },
    {
      "inputs": [],
      "name": "URIQueryForNonexistentToken",
      "type": "error"
    },
    {
      "anonymous": false,
      "inputs": [
        {
          "indexed": true,
          "internalType": "address",
          "name": "owner",
          "type": "address"
        },
        {
          "indexed": true,
          "internalType": "address",
          "name": "approved",
          "type": "address"
        },
        {
          "indexed": true,
          "internalType": "uint256",
          "name": "tokenId",
          "type": "uint256"
        }
      ],
      "name": "Approval",
      "type": "event"
    },
    {
      "anonymous": false,
      "inputs": [
        {
          "indexed": true,
          "internalType": "address",
          "name": "owner",
          "type": "address"
        },
        {
          "indexed": true,
          "internalType": "address",
          "name": "operator",
          "type": "address"
        },
        {
          "indexed": false,
          "internalType": "bool",
          "name": "approved",
          "type": "bool"
        }
      ],
      "name": "ApprovalForAll",
      "type": "event"
    },
    {
      "anonymous": false,
      "inputs": [
        {
          "indexed": true,
          "internalType": "uint256",
          "name": "fromTokenId",
          "type": "uint256"
        },
        {
          "indexed": false,
          "internalType": "uint256",
          "name": "toTokenId",
          "type": "uint256"
        },
        {
          "indexed": true,
          "internalType": "address",
          "name": "from",
          "type": "address"
        },
        {
          "indexed": true,
          "internalType": "address",
          "name": "to",
          "type": "address"
        }
      ],
      "name": "ConsecutiveTransfer",
      "type": "event"
    },
    {
      "anonymous": false,
      "inputs": [
        {
          "indexed": true,
          "internalType": "address",
          "name": "from",
          "type": "address"
        },
        {
          "indexed": true,
          "internalType": "address",
          "name": "to",
          "type": "address"
        },
        {
          "indexed": true,
          "internalType": "uint256",
          "name": "tokenId",
          "type": "uint256"
        }
      ],
      "name": "Transfer",
      "type": "event"
    },
    {
      "inputs": [
        {
          "internalType": "address",
          "name": "to",
          "type": "address"
        },
        {
          "internalType": "uint256",
          "name": "tokenId",
          "type": "uint256"
        }
      ],
      "name": "approve",
      "outputs": [],
      "stateMutability": "payable",
      "type": "function"
    },
    {
      "inputs": [
        {
          "internalType": "address",
          "name": "owner",
          "type": "address"
        }
      ],
      "name": "balanceOf",
      "outputs": [
        {
          "internalType": "uint256",
          "name": "",
          "type": "uint256"
        }
      ],
      "stateMutability": "view",
      "type": "function"
    },
    {
      "inputs": [
        {
          "internalType": "uint256",
          "name": "tokenId",
          "type": "uint256"
        }
      ],
      "name": "getApproved",
      "outputs": [
        {
          "internalType": "address",
          "name": "",
          "type": "address"
        }
      ],
      "stateMutability": "view",
      "type": "function"
    },
    {
      "inputs": [
        {
          "internalType": "address",
          "name": "owner",
          "type": "address"
        },
        {
          "internalType": "address",
          "name": "operator",
          "type": "address"
        }
      ],
      "name": "isApprovedForAll",
      "outputs": [
        {
          "internalType": "bool",
          "name": "",
          "type": "bool"
        }
      ],
      "stateMutability": "view",
      "type": "function"
    },
    {
      "inputs": [
        {
          "internalType": "uint256",
          "name": "_price",
          "type": "uint256"
        },
        {
          "internalType": "uint256",
          "name": "_row",
          "type": "uint256"
        },
        {
          "internalType": "uint256",
          "name": "_seat",
          "type": "uint256"
        },
        {
          "internalType": "string",
          "name": "_ticketMetadataURI",
          "type": "string"
        },
        {
          "internalType": "address",
          "name": "_to",
          "type": "address"
        }
      ],
      "name": "mintTicket",
      "outputs": [
        {
          "internalType": "uint256",
          "name": "",
          "type": "uint256"
        }
      ],
      "stateMutability": "nonpayable",
      "type": "function"
    },
    {
      "inputs": [],
      "name": "name",
      "outputs": [
        {
          "internalType": "string",
          "name": "",
          "type": "string"
        }
      ],
      "stateMutability": "view",
      "type": "function"
    },
    {
      "inputs": [
        {
          "internalType": "uint256",
          "name": "tokenId",
          "type": "uint256"
        }
      ],
      "name": "ownerOf",
      "outputs": [
        {
          "internalType": "address",
          "name": "",
          "type": "address"
        }
      ],
      "stateMutability": "view",
      "type": "function"
    },
    {
      "inputs": [
        {
          "internalType": "address",
          "name": "from",
          "type": "address"
        },
        {
          "internalType": "address",
          "name": "to",
          "type": "address"
        },
        {
          "internalType": "uint256",
          "name": "tokenId",
          "type": "uint256"
        }
      ],
      "name": "safeTransferFrom",
      "outputs": [],
      "stateMutability": "payable",
      "type": "function"
    },
    {
      "inputs": [
        {
          "internalType": "address",
          "name": "from",
          "type": "address"
        },
        {
          "internalType": "address",
          "name": "to",
          "type": "address"
        },
        {
          "internalType": "uint256",
          "name": "tokenId",
          "type": "uint256"
        },
        {
          "internalType": "bytes",
          "name": "_data",
          "type": "bytes"
        }
      ],
      "name": "safeTransferFrom",
      "outputs": [],
      "stateMutability": "payable",
      "type": "function"
    },
    {
      "inputs": [
        {
          "internalType": "address",
          "name": "operator",
          "type": "address"
        },
        {
          "internalType": "bool",
          "name": "approved",
          "type": "bool"
        }
      ],
      "name": "setApprovalForAll",
      "outputs": [],
      "stateMutability": "nonpayable",
      "type": "function"
    },
    {
      "inputs": [
        {
          "internalType": "address",
          "name": "_contractAddress",
          "type": "address"
        }
      ],
      "name": "setEventFacetAddress",
      "outputs": [],
      "stateMutability": "nonpayable",
      "type": "function"
    },
    {
      "inputs": [],
      "name": "symbol",
      "outputs": [
        {
          "internalType": "string",
          "name": "",
          "type": "string"
        }
      ],
      "stateMutability": "view",
      "type": "function"
    },
    {
      "inputs": [
        {
          "internalType": "uint256",
          "name": "tokenId",
          "type": "uint256"
        }
      ],
      "name": "tokenURI",
      "outputs": [
        {
          "internalType": "string",
          "name": "",
          "type": "string"
        }
      ],
      "stateMutability": "view",
      "type": "function"
    },
    {
      "inputs": [],
      "name": "totalSupply",
      "outputs": [
        {
          "internalType": "uint256",
          "name": "",
          "type": "uint256"
        }
      ],
      "stateMutability": "view",
      "type": "function"
    },
    {
      "inputs": [
        {
          "internalType": "address",
          "name": "from",
          "type": "address"
        },
        {
          "internalType": "address",
          "name": "to",
          "type": "address"
        },
        {
          "internalType": "uint256",
          "name": "tokenId",
          "type": "uint256"
        }
      ],
      "name": "transferFrom",
      "outputs": [],
      "stateMutability": "payable",
      "type": "function"
    }
  ],
  "bytecode": "0x608060405234801561001057600080fd5b506112ae806100206000396000f3fe6080604052600436106100b85760003560e01c806306fdde03146100bd578063081812fc146100e8578063095ea7b31461012057806318160ddd1461013557806323b872dd1461015857806328a2e01f1461016b57806342842e0e1461018b5780636352211e1461019e57806370a08231146101be5780638f79c627146101de57806395d89b41146101fe578063a22cb46514610213578063b88d4fde14610233578063c87b56dd14610246578063e985e9c514610266575b600080fd5b3480156100c957600080fd5b506100d2610296565b6040516100df9190610db0565b60405180910390f35b3480156100f457600080fd5b50610108610103366004610dc3565b61032b565b6040516001600160a01b0390911681526020016100df565b61013361012e366004610df8565b61036f565b005b34801561014157600080fd5b50600154600054035b6040519081526020016100df565b610133610166366004610e22565b61040f565b34801561017757600080fd5b5061014a610186366004610ee9565b610596565b610133610199366004610e22565b6105fa565b3480156101aa57600080fd5b506101086101b9366004610dc3565b61061a565b3480156101ca57600080fd5b5061014a6101d9366004610f67565b61062b565b3480156101ea57600080fd5b506101336101f9366004610f67565b610679565b34801561020a57600080fd5b506100d26106b0565b34801561021f57600080fd5b5061013361022e366004610f82565b6106c2565b610133610241366004610fbe565b61072e565b34801561025257600080fd5b506100d2610261366004610dc3565b610778565b34801561027257600080fd5b50610286610281366004611039565b6108d8565b60405190151581526020016100df565b6060600060020180546102a89061106c565b80601f01602080910402602001604051908101604052809291908181526020018280546102d49061106c565b80156103215780601f106102f657610100808354040283529160200191610321565b820191906000526020600020905b81548152906001019060200180831161030457829003601f168201915b5050505050905090565b600061033682610906565b610353576040516333d1c03960e21b815260040160405180910390fd5b506000908152600660205260409020546001600160a01b031690565b600061037a8261061a565b9050336001600160a01b038216146103b35761039681336108d8565b6103b3576040516367d9dca160e11b815260040160405180910390fd5b60008281526006602052604080822080546001600160a01b0319166001600160a01b0387811691821790925591518593918516917f8c5be1e5ebec7d5bd14f71427d1e84f3dd0314c0f7b2291e5b200ac8c7c3b92591a4505050565b600061041a8261092d565b9050836001600160a01b0316816001600160a01b03161461044d5760405162a1148160e81b815260040160405180910390fd5b60008281526006602052604090208054338082146001600160a01b0388169091141761049a5761047d86336108d8565b61049a57604051632ce44b5f60e11b815260040160405180910390fd5b6001600160a01b0385166104c157604051633a954ecd60e21b815260040160405180910390fd5b80156104cc57600082555b6001600160a01b0386811660009081526005602052604080822080546000190190559187168152208054600101905561050985600160e11b61099b565b600085815260046020526040812091909155600160e11b8416900361055e5760018401600081815260046020526040812054900361055c57600054811461055c5760008181526004602052604090208490555b505b83856001600160a01b0316876001600160a01b031660008051602061125983398151915260405160405180910390a45b505050505050565b60006105a06109b0565b600060016105ad60005490565b6105b791906110a6565b6000818152600860205260409020888155600180820189905560029091018790559091506105e6908490610a28565b6105f08185610b10565b9695505050505050565b6106158383836040518060200160405280600081525061072e565b505050565b60006106258261092d565b92915050565b60006001600160a01b038216610654576040516323d3ad8160e21b815260040160405180910390fd5b506001600160a01b03166000908152600560205260409020546001600160401b031690565b610681610b99565b600061068b610c0d565b60050180546001600160a01b0319166001600160a01b03939093169290921790915550565b6060600060030180546102a89061106c565b3360008181526007602090815260408083206001600160a01b03871680855290835292819020805460ff191686151590811790915590519081529192917f17307eab39ab6107e8899845ad3d59bd9653f200f220920489ca2b5937696c31910160405180910390a35050565b61073984848461040f565b6001600160a01b0383163b156107725761075584848484610c31565b610772576040516368d2bf6b60e11b815260040160405180910390fd5b50505050565b606061078382610906565b6107a057604051630a14c4b560e41b815260040160405180910390fd5b600082815260086020526040812060030180546107bc9061106c565b80601f01602080910402602001604051908101604052809291908181526020018280546107e89061106c565b80156108355780601f1061080a57610100808354040283529160200191610835565b820191906000526020600020905b81548152906001019060200180831161081857829003601f168201915b50505050509050600061085360408051602081019091526000815290565b90508051600003610865575092915050565b81511561089757808260405160200161087f9291906110c7565b60405160208183030381529060405292505050919050565b80516000036108b557604051806020016040528060008152506108d0565b806108bf85610d1c565b60405160200161087f9291906110c7565b949350505050565b6001600160a01b03918216600090815260076020908152604080832093909416825291909152205460ff1690565b6000805482108015610625575050600090815260046020526040902054600160e01b161590565b6000816000548110156109825760008181526004602052604081205490600160e01b82169003610980575b80600003610979575060001901600081815260046020526040902054610958565b9392505050565b505b604051636f96cda160e11b815260040160405180910390fd5b4260a01b176001600160a01b03919091161790565b6109b8610c0d565b600501546001600160a01b03163314610a265760405162461bcd60e51b815260206004820152602560248201527f4c69625469636b65744469616d6f6e643a204d757374206265206576656e7420604482015264199858d95d60da1b60648201526084015b60405180910390fd5b565b6000805490829003610a4d5760405163b562e8dd60e01b815260040160405180910390fd5b6001600160a01b038316600090815260056020526040902080546001600160401b018402019055610a84836001841460e11b61099b565b6000828152600460205260408120919091556001600160a01b0384169083830190839083906000805160206112598339815191528180a4600183015b818114610ae65780836000600080516020611259833981519152600080a4600101610ac0565b5081600003610b0757604051622e076360e81b815260040160405180910390fd5b60005550505050565b610b1982610906565b610b7e5760405162461bcd60e51b815260206004820152603060248201527f5469636b65744552433732314146616365743a2055524920736574206f66206e60448201526f37b732bc34b9ba32b73a103a37b5b2b760811b6064820152608401610a1d565b6000828152600860205260409020600301610615828261113c565b610ba1610c0d565b600401546001600160a01b03163314610a265760405162461bcd60e51b815260206004820152602860248201527f4c69625469636b65744469616d6f6e643a204d75737420626520636f6e74726160448201526731ba1037bbb732b960c11b6064820152608401610a1d565b7fc8fcad8db84d3cc18b4c41d551ea0ee66dd599cde068d998e57d5e09332c131c90565b604051630a85bd0160e11b81526000906001600160a01b0385169063150b7a0290610c669033908990889088906004016111fb565b6020604051808303816000875af1925050508015610ca1575060408051601f3d908101601f19168201909252610c9e9181019061122e565b60015b610cff573d808015610ccf576040519150601f19603f3d011682016040523d82523d6000602084013e610cd4565b606091505b508051600003610cf7576040516368d2bf6b60e11b815260040160405180910390fd5b805181602001fd5b6001600160e01b031916630a85bd0160e11b149050949350505050565b606060a06040510180604052602081039150506000815280825b600183039250600a81066030018353600a900480610d365750819003601f19909101908152919050565b60005b83811015610d7b578181015183820152602001610d63565b50506000910152565b60008151808452610d9c816020860160208601610d60565b601f01601f19169290920160200192915050565b6020815260006109796020830184610d84565b600060208284031215610dd557600080fd5b5035919050565b80356001600160a01b0381168114610df357600080fd5b919050565b60008060408385031215610e0b57600080fd5b610e1483610ddc565b946020939093013593505050565b600080600060608486031215610e3757600080fd5b610e4084610ddc565b9250610e4e60208501610ddc565b9150604084013590509250925092565b634e487b7160e01b600052604160045260246000fd5b60006001600160401b0380841115610e8e57610e8e610e5e565b604051601f8501601f19908116603f01168101908282118183101715610eb657610eb6610e5e565b81604052809350858152868686011115610ecf57600080fd5b858560208301376000602087830101525050509392505050565b600080600080600060a08688031215610f0157600080fd5b85359450602086013593506040860135925060608601356001600160401b03811115610f2c57600080fd5b8601601f81018813610f3d57600080fd5b610f4c88823560208401610e74565b925050610f5b60808701610ddc565b90509295509295909350565b600060208284031215610f7957600080fd5b61097982610ddc565b60008060408385031215610f9557600080fd5b610f9e83610ddc565b915060208301358015158114610fb357600080fd5b809150509250929050565b60008060008060808587031215610fd457600080fd5b610fdd85610ddc565b9350610feb60208601610ddc565b92506040850135915060608501356001600160401b0381111561100d57600080fd5b8501601f8101871361101e57600080fd5b61102d87823560208401610e74565b91505092959194509250565b6000806040838503121561104c57600080fd5b61105583610ddc565b915061106360208401610ddc565b90509250929050565b600181811c9082168061108057607f821691505b6020821081036110a057634e487b7160e01b600052602260045260246000fd5b50919050565b8181038181111561062557634e487b7160e01b600052601160045260246000fd5b600083516110d9818460208801610d60565b8351908301906110ed818360208801610d60565b01949350505050565b601f82111561061557600081815260208120601f850160051c8101602086101561111d5750805b601f850160051c820191505b8181101561058e57828155600101611129565b81516001600160401b0381111561115557611155610e5e565b61116981611163845461106c565b846110f6565b602080601f83116001811461119e57600084156111865750858301515b600019600386901b1c1916600185901b17855561058e565b600085815260208120601f198616915b828110156111cd578886015182559484019460019091019084016111ae565b50858210156111eb5787850151600019600388901b60f8161c191681555b5050505050600190811b01905550565b6001600160a01b03858116825284166020820152604081018390526080606082018190526000906105f090830184610d84565b60006020828403121561124057600080fd5b81516001600160e01b03198116811461097957600080fdfeddf252ad1be2c89b69c2b068fc378daa952ba7f163c4a11628f55a4df523b3efa264697066735822122075a8050818403f8c550dc25e234ce3b3dd72c1b3ee17090dbb7be1d669bdf32b64736f6c63430008110033",
  "linkReferences": {},
  "deployedLinkReferences": {}
}