{
  "_format": "hh-sol-artifact-1",
  "contractName": "TicketFacet",
  "sourceName": "contracts/TicketDiamond/facets/TicketFacet.sol",
  "abi": [
    {
      "inputs": [],
      "name": "ApprovalCallerNotOwnerNorApproved",
      "type": "error"
    },
    {
      "inputs": [],
      "name": "ApprovalQueryForNonexistentToken",
      "type": "error"
    },
    {
      "inputs": [],
      "name": "BalanceQueryForZeroAddress",
      "type": "error"
    },
    {
      "inputs": [],
      "name": "MintERC2309QuantityExceedsLimit",
      "type": "error"
    },
    {
      "inputs": [],
      "name": "MintToZeroAddress",
      "type": "error"
    },
    {
      "inputs": [],
      "name": "MintZeroQuantity",
      "type": "error"
    },
    {
      "inputs": [],
      "name": "OwnerQueryForNonexistentToken",
      "type": "error"
    },
    {
      "inputs": [],
      "name": "OwnershipNotInitializedForExtraData",
      "type": "error"
    },
    {
      "inputs": [],
      "name": "TransferCallerNotOwnerNorApproved",
      "type": "error"
    },
    {
      "inputs": [],
      "name": "TransferFromIncorrectOwner",
      "type": "error"
    },
    {
      "inputs": [],
      "name": "TransferToNonERC721ReceiverImplementer",
      "type": "error"
    },
    {
      "inputs": [],
      "name": "TransferToZeroAddress",
      "type": "error"
    },
    {
      "inputs": [],
      "name": "URIQueryForNonexistentToken",
      "type": "error"
    },
    {
      "anonymous": false,
      "inputs": [
        {
          "indexed": true,
          "internalType": "address",
          "name": "owner",
          "type": "address"
        },
        {
          "indexed": true,
          "internalType": "address",
          "name": "approved",
          "type": "address"
        },
        {
          "indexed": true,
          "internalType": "uint256",
          "name": "tokenId",
          "type": "uint256"
        }
      ],
      "name": "Approval",
      "type": "event"
    },
    {
      "anonymous": false,
      "inputs": [
        {
          "indexed": true,
          "internalType": "address",
          "name": "owner",
          "type": "address"
        },
        {
          "indexed": true,
          "internalType": "address",
          "name": "operator",
          "type": "address"
        },
        {
          "indexed": false,
          "internalType": "bool",
          "name": "approved",
          "type": "bool"
        }
      ],
      "name": "ApprovalForAll",
      "type": "event"
    },
    {
      "anonymous": false,
      "inputs": [
        {
          "indexed": true,
          "internalType": "uint256",
          "name": "fromTokenId",
          "type": "uint256"
        },
        {
          "indexed": false,
          "internalType": "uint256",
          "name": "toTokenId",
          "type": "uint256"
        },
        {
          "indexed": true,
          "internalType": "address",
          "name": "from",
          "type": "address"
        },
        {
          "indexed": true,
          "internalType": "address",
          "name": "to",
          "type": "address"
        }
      ],
      "name": "ConsecutiveTransfer",
      "type": "event"
    },
    {
      "anonymous": false,
      "inputs": [
        {
          "indexed": false,
          "internalType": "uint256",
          "name": "tokenId",
          "type": "uint256"
        }
      ],
      "name": "Locked",
      "type": "event"
    },
    {
      "anonymous": false,
      "inputs": [
        {
          "indexed": true,
          "internalType": "address",
          "name": "_sender",
          "type": "address"
        },
        {
          "indexed": true,
          "internalType": "uint256",
          "name": "_tokenId",
          "type": "uint256"
        }
      ],
      "name": "Refund",
      "type": "event"
    },
    {
      "anonymous": false,
      "inputs": [
        {
          "indexed": true,
          "internalType": "address",
          "name": "from",
          "type": "address"
        },
        {
          "indexed": true,
          "internalType": "address",
          "name": "to",
          "type": "address"
        },
        {
          "indexed": true,
          "internalType": "uint256",
          "name": "tokenId",
          "type": "uint256"
        }
      ],
      "name": "Transfer",
      "type": "event"
    },
    {
      "anonymous": false,
      "inputs": [
        {
          "indexed": false,
          "internalType": "uint256",
          "name": "tokenId",
          "type": "uint256"
        }
      ],
      "name": "Unlocked",
      "type": "event"
    },
    {
      "inputs": [
        {
          "internalType": "address",
          "name": "to",
          "type": "address"
        },
        {
          "internalType": "uint256",
          "name": "tokenId",
          "type": "uint256"
        }
      ],
      "name": "approve",
      "outputs": [],
      "stateMutability": "payable",
      "type": "function"
    },
    {
      "inputs": [
        {
          "internalType": "address",
          "name": "owner",
          "type": "address"
        }
      ],
      "name": "balanceOf",
      "outputs": [
        {
          "internalType": "uint256",
          "name": "",
          "type": "uint256"
        }
      ],
      "stateMutability": "view",
      "type": "function"
    },
    {
      "inputs": [
        {
          "internalType": "uint256",
          "name": "_ticketId",
          "type": "uint256"
        }
      ],
      "name": "burnTicket",
      "outputs": [],
      "stateMutability": "nonpayable",
      "type": "function"
    },
    {
      "inputs": [
        {
          "internalType": "uint256",
          "name": "tokenId",
          "type": "uint256"
        }
      ],
      "name": "getApproved",
      "outputs": [
        {
          "internalType": "address",
          "name": "",
          "type": "address"
        }
      ],
      "stateMutability": "view",
      "type": "function"
    },
    {
      "inputs": [
        {
          "internalType": "uint256",
          "name": "_ticketId",
          "type": "uint256"
        }
      ],
      "name": "getTicket",
      "outputs": [
        {
          "components": [
            {
              "internalType": "uint256",
              "name": "eventId",
              "type": "uint256"
            },
            {
              "internalType": "uint256",
              "name": "categoryId",
              "type": "uint256"
            },
            {
              "internalType": "uint256",
              "name": "price",
              "type": "uint256"
            },
            {
              "internalType": "uint256",
              "name": "row",
              "type": "uint256"
            },
            {
              "internalType": "uint256",
              "name": "seat",
              "type": "uint256"
            },
            {
              "internalType": "string",
              "name": "tokenUri",
              "type": "string"
            }
          ],
          "internalType": "struct ITicket.Ticket",
          "name": "",
          "type": "tuple"
        }
      ],
      "stateMutability": "view",
      "type": "function"
    },
    {
      "inputs": [
        {
          "internalType": "address",
          "name": "owner",
          "type": "address"
        },
        {
          "internalType": "address",
          "name": "operator",
          "type": "address"
        }
      ],
      "name": "isApprovedForAll",
      "outputs": [
        {
          "internalType": "bool",
          "name": "",
          "type": "bool"
        }
      ],
      "stateMutability": "view",
      "type": "function"
    },
    {
      "inputs": [
        {
          "internalType": "uint256",
          "name": "_ticketId",
          "type": "uint256"
        }
      ],
      "name": "lock",
      "outputs": [],
      "stateMutability": "nonpayable",
      "type": "function"
    },
    {
      "inputs": [
        {
          "internalType": "uint256",
          "name": "tokenId",
          "type": "uint256"
        }
      ],
      "name": "locked",
      "outputs": [
        {
          "internalType": "bool",
          "name": "",
          "type": "bool"
        }
      ],
      "stateMutability": "view",
      "type": "function"
    },
    {
      "inputs": [
        {
          "internalType": "uint256",
          "name": "_eventId",
          "type": "uint256"
        },
        {
          "internalType": "uint256",
          "name": "_categoryId",
          "type": "uint256"
        },
        {
          "internalType": "uint256",
          "name": "_price",
          "type": "uint256"
        },
        {
          "internalType": "uint256",
          "name": "_row",
          "type": "uint256"
        },
        {
          "internalType": "uint256",
          "name": "_seat",
          "type": "uint256"
        },
        {
          "internalType": "string",
          "name": "_ticketMetadataURI",
          "type": "string"
        },
        {
          "internalType": "bool",
          "name": "_soulbound",
          "type": "bool"
        },
        {
          "internalType": "address",
          "name": "_to",
          "type": "address"
        }
      ],
      "name": "mintTicket",
      "outputs": [
        {
          "internalType": "uint256",
          "name": "",
          "type": "uint256"
        }
      ],
      "stateMutability": "nonpayable",
      "type": "function"
    },
    {
      "inputs": [],
      "name": "name",
      "outputs": [
        {
          "internalType": "string",
          "name": "",
          "type": "string"
        }
      ],
      "stateMutability": "view",
      "type": "function"
    },
    {
      "inputs": [
        {
          "internalType": "uint256",
          "name": "tokenId",
          "type": "uint256"
        }
      ],
      "name": "ownerOf",
      "outputs": [
        {
          "internalType": "address",
          "name": "",
          "type": "address"
        }
      ],
      "stateMutability": "view",
      "type": "function"
    },
    {
      "inputs": [
        {
          "internalType": "uint256",
          "name": "tokenId",
          "type": "uint256"
        },
        {
          "internalType": "address",
          "name": "_to",
          "type": "address"
        }
      ],
      "name": "refund",
      "outputs": [],
      "stateMutability": "nonpayable",
      "type": "function"
    },
    {
      "inputs": [
        {
          "internalType": "uint256",
          "name": "tokenId",
          "type": "uint256"
        }
      ],
      "name": "refundDeadlineOf",
      "outputs": [
        {
          "internalType": "uint256",
          "name": "",
          "type": "uint256"
        }
      ],
      "stateMutability": "pure",
      "type": "function"
    },
    {
      "inputs": [
        {
          "internalType": "uint256",
          "name": "tokenId",
          "type": "uint256"
        },
        {
          "internalType": "uint8",
          "name": "percentage",
          "type": "uint8"
        }
      ],
      "name": "refundOf",
      "outputs": [
        {
          "internalType": "uint256",
          "name": "",
          "type": "uint256"
        }
      ],
      "stateMutability": "view",
      "type": "function"
    },
    {
      "inputs": [
        {
          "internalType": "address",
          "name": "from",
          "type": "address"
        },
        {
          "internalType": "address",
          "name": "to",
          "type": "address"
        },
        {
          "internalType": "uint256",
          "name": "tokenId",
          "type": "uint256"
        }
      ],
      "name": "safeTransferFrom",
      "outputs": [],
      "stateMutability": "payable",
      "type": "function"
    },
    {
      "inputs": [
        {
          "internalType": "address",
          "name": "from",
          "type": "address"
        },
        {
          "internalType": "address",
          "name": "to",
          "type": "address"
        },
        {
          "internalType": "uint256",
          "name": "tokenId",
          "type": "uint256"
        },
        {
          "internalType": "bytes",
          "name": "_data",
          "type": "bytes"
        }
      ],
      "name": "safeTransferFrom",
      "outputs": [],
      "stateMutability": "payable",
      "type": "function"
    },
    {
      "inputs": [
        {
          "internalType": "address",
          "name": "operator",
          "type": "address"
        },
        {
          "internalType": "bool",
          "name": "approved",
          "type": "bool"
        }
      ],
      "name": "setApprovalForAll",
      "outputs": [],
      "stateMutability": "nonpayable",
      "type": "function"
    },
    {
      "inputs": [
        {
          "internalType": "address",
          "name": "_contractAddress",
          "type": "address"
        }
      ],
      "name": "setEventFacetAddress",
      "outputs": [],
      "stateMutability": "nonpayable",
      "type": "function"
    },
    {
      "inputs": [],
      "name": "symbol",
      "outputs": [
        {
          "internalType": "string",
          "name": "",
          "type": "string"
        }
      ],
      "stateMutability": "view",
      "type": "function"
    },
    {
      "inputs": [
        {
          "internalType": "uint256",
          "name": "tokenId",
          "type": "uint256"
        }
      ],
      "name": "tokenURI",
      "outputs": [
        {
          "internalType": "string",
          "name": "",
          "type": "string"
        }
      ],
      "stateMutability": "view",
      "type": "function"
    },
    {
      "inputs": [],
      "name": "totalSupply",
      "outputs": [
        {
          "internalType": "uint256",
          "name": "",
          "type": "uint256"
        }
      ],
      "stateMutability": "view",
      "type": "function"
    },
    {
      "inputs": [
        {
          "internalType": "address",
          "name": "from",
          "type": "address"
        },
        {
          "internalType": "address",
          "name": "to",
          "type": "address"
        },
        {
          "internalType": "uint256",
          "name": "tokenId",
          "type": "uint256"
        }
      ],
      "name": "transferFrom",
      "outputs": [],
      "stateMutability": "payable",
      "type": "function"
    },
    {
      "inputs": [
        {
          "internalType": "uint256",
          "name": "_ticketId",
          "type": "uint256"
        }
      ],
      "name": "unlock",
      "outputs": [],
      "stateMutability": "nonpayable",
      "type": "function"
    }
  ],
  "bytecode": "0x608060405234801561001057600080fd5b50611d32806100206000396000f3fe6080604052600436106101405760003560e01c80637dc379fa116100b6578063b45a3c0e1161006f578063b45a3c0e14610369578063b88d4fde146103a9578063c87b56dd146103bc578063dd467064146103dc578063e985e9c5146103fc578063eb91937a1461041c57600080fd5b80637dc379fa146102a75780638f79c627146102d457806395d89b41146102f45780639b69ff0914610309578063a22cb46514610329578063a476b73d1461034957600080fd5b806342842e0e1161010857806342842e0e146101f35780634f556016146102065780636198e339146102275780636352211e1461024757806370a08231146102675780637ad226dc1461028757600080fd5b806306fdde0314610145578063081812fc14610170578063095ea7b3146101a857806318160ddd146101bd57806323b872dd146101e0575b600080fd5b34801561015157600080fd5b5061015a61043c565b60405161016791906116c3565b60405180910390f35b34801561017c57600080fd5b5061019061018b3660046116d6565b6104d1565b6040516001600160a01b039091168152602001610167565b6101bb6101b636600461170b565b610515565b005b3480156101c957600080fd5b50600154600054035b604051908152602001610167565b6101bb6101ee366004611735565b6105ed565b6101bb610201366004611735565b6107ad565b34801561021257600080fd5b506101d26102213660046116d6565b50600090565b34801561023357600080fd5b506101bb6102423660046116d6565b6107fc565b34801561025357600080fd5b506101906102623660046116d6565b610857565b34801561027357600080fd5b506101d2610282366004611771565b610868565b34801561029357600080fd5b506101bb6102a236600461178c565b6108b7565b3480156102b357600080fd5b506102c76102c23660046116d6565b610a82565b60405161016791906117b8565b3480156102e057600080fd5b506101bb6102ef366004611771565b610ba7565b34801561030057600080fd5b5061015a610bf0565b34801561031557600080fd5b506101d26103243660046118a1565b610c02565b34801561033557600080fd5b506101bb610344366004611944565b610d00565b34801561035557600080fd5b506101bb6103643660046116d6565b610d6c565b34801561037557600080fd5b506103996103843660046116d6565b60009081526009602052604090205460ff1690565b6040519015158152602001610167565b6101bb6103b736600461196e565b610d95565b3480156103c857600080fd5b5061015a6103d73660046116d6565b610e0e565b3480156103e857600080fd5b506101bb6103f73660046116d6565b610f6e565b34801561040857600080fd5b506103996104173660046119ea565b610fc1565b34801561042857600080fd5b506101d2610437366004611a14565b610fef565b60606000600201805461044e90611a4a565b80601f016020809104026020016040519081016040528092919081815260200182805461047a90611a4a565b80156104c75780601f1061049c576101008083540402835291602001916104c7565b820191906000526020600020905b8154815290600101906020018083116104aa57829003601f168201915b5050505050905090565b60006104dc8261102b565b6104f9576040516333d1c03960e21b815260040160405180910390fd5b506000908152600660205260409020546001600160a01b031690565b60008181526009602052604090205460ff161561054d5760405162461bcd60e51b815260040161054490611a84565b60405180910390fd5b600061055882610857565b9050336001600160a01b03821614610591576105748133610fc1565b610591576040516367d9dca160e11b815260040160405180910390fd5b60008281526006602052604080822080546001600160a01b0319166001600160a01b0387811691821790925591518593918516917f8c5be1e5ebec7d5bd14f71427d1e84f3dd0314c0f7b2291e5b200ac8c7c3b92591a4505050565b60008181526009602052604090205460ff161561061c5760405162461bcd60e51b815260040161054490611a84565b600061062782611052565b9050836001600160a01b0316816001600160a01b03161461065a5760405162a1148160e81b815260040160405180910390fd5b600082815260066020526040902080546106868187335b6001600160a01b039081169116811491141790565b6106b1576106948633610fc1565b6106b157604051632ce44b5f60e11b815260040160405180910390fd5b6001600160a01b0385166106d857604051633a954ecd60e21b815260040160405180910390fd5b80156106e357600082555b6001600160a01b038681166000908152600560205260408082208054600019019055918716808252919020805460010190554260a01b17600160e11b17600085815260046020526040812091909155600160e11b84169003610775576001840160008181526004602052604081205490036107735760005481146107735760008181526004602052604090208490555b505b83856001600160a01b0316876001600160a01b0316600080516020611cdd83398151915260405160405180910390a45b505050505050565b60008181526009602052604090205460ff16156107dc5760405162461bcd60e51b815260040161054490611a84565b6107f783838360405180602001604052806000815250610d95565b505050565b6108046110c0565b60008181526009602052604090819020805460ff19169055517ff27b6ce5b2f5e68ddb2fd95a8a909d4ecf1daaac270935fff052feacb24f18429061084c9083815260200190565b60405180910390a150565b600061086282611052565b92915050565b60006001600160a01b038216610891576040516323d3ad8160e21b815260040160405180910390fd5b506001600160a01b031660009081526005602052604090205467ffffffffffffffff1690565b6108c082610857565b6001600160a01b0316336001600160a01b0316146040518060400160405280601881526020017f455243353530373a204e6f7420746f6b656e206f776e65720000000000000000815250906109285760405162461bcd60e51b815260040161054491906116c3565b506000828152600a60209081526040918290205482518084019093528183527f455243353530373a205469636b657420616c726561647920726566756e6465649183019190915260ff16156109905760405162461bcd60e51b815260040161054491906116c3565b506000828152600a60209081526040808320805460ff1916600190811790915560099092529091205460ff1615159003610a235760008281526009602052604090819020805460ff19169055517ff27b6ce5b2f5e68ddb2fd95a8a909d4ecf1daaac270935fff052feacb24f184290610a0c9084815260200190565b60405180910390a1610a1f3382846105ed565b5050565b610a2c8261114c565b60008281526008602052604081208181556001810182905560028101829055600381018290556004810182905590610a676005830182611625565b5050506000908152600960205260409020805460ff19169055565b610abb6040518060c001604052806000815260200160008152602001600081526020016000815260200160008152602001606081525090565b600060080160008381526020019081526020016000206040518060c00160405290816000820154815260200160018201548152602001600282015481526020016003820154815260200160048201548152602001600582018054610b1e90611a4a565b80601f0160208091040260200160405190810160405280929190818152602001828054610b4a90611a4a565b8015610b975780601f10610b6c57610100808354040283529160200191610b97565b820191906000526020600020905b815481529060010190602001808311610b7a57829003601f168201915b5050505050815250509050919050565b610baf61115a565b7fc8fcad8db84d3cc18b4c41d551ea0ee66dd599cde068d998e57d5e09332c132180546001600160a01b0319166001600160a01b0392909216919091179055565b60606000600301805461044e90611a4a565b6000610c0c6110c0565b60006001610c1960005490565b610c239190611ad1565b60008181526008602090815260408083208e815560018082018f9055600282018e9055600382018d905560049091018b90556009909252909120805460ff1916871515179055909150610c779084906111e7565b610c8181866112c1565b8315610cbf576040518181527f032bc66be43dbccb7487781d168eb7bda224628a3b2c3388bdf69b532a3a16119060200160405180910390a1610cf3565b6040518181527ff27b6ce5b2f5e68ddb2fd95a8a909d4ecf1daaac270935fff052feacb24f18429060200160405180910390a15b9998505050505050505050565b3360008181526007602090815260408083206001600160a01b03871680855290835292819020805460ff191686151590811790915590519081529192917f17307eab39ab6107e8899845ad3d59bd9653f200f220920489ca2b5937696c31910160405180910390a35050565b610d746110c0565b610d7d8161114c565b6000908152600960205260409020805460ff19169055565b60008281526009602052604090205460ff1615610dc45760405162461bcd60e51b815260040161054490611a84565b610dcf8484846105ed565b6001600160a01b0383163b15610e0857610deb8484848461134a565b610e08576040516368d2bf6b60e11b815260040160405180910390fd5b50505050565b6060610e198261102b565b610e3657604051630a14c4b560e41b815260040160405180910390fd5b60008281526008602052604081206005018054610e5290611a4a565b80601f0160208091040260200160405190810160405280929190818152602001828054610e7e90611a4a565b8015610ecb5780601f10610ea057610100808354040283529160200191610ecb565b820191906000526020600020905b815481529060010190602001808311610eae57829003601f168201915b505050505090506000610ee960408051602081019091526000815290565b90508051600003610efb575092915050565b815115610f2d578082604051602001610f15929190611ae4565b60405160208183030381529060405292505050919050565b8051600003610f4b5760405180602001604052806000815250610f66565b80610f5585611435565b604051602001610f15929190611ae4565b949350505050565b610f766110c0565b60008181526009602052604090819020805460ff19166001179055517f032bc66be43dbccb7487781d168eb7bda224628a3b2c3388bdf69b532a3a16119061084c9083815260200190565b6001600160a01b03918216600090815260076020908152604080832093909416825291909152205460ff1690565b600080610ffd836064611b13565b60008581526008602052604081206002015460ff929092169250906110229083611479565b95945050505050565b6000805482108015610862575050600090815260046020526040902054600160e01b161590565b6000816000548110156110a75760008181526004602052604081205490600160e01b821690036110a5575b8060000361109e57506000190160008181526004602052604090205461107d565b9392505050565b505b604051636f96cda160e11b815260040160405180910390fd5b7fc8fcad8db84d3cc18b4c41d551ea0ee66dd599cde068d998e57d5e09332c131c600501546001600160a01b0316331461114a5760405162461bcd60e51b815260206004820152602560248201527f4c69625469636b65744469616d6f6e643a204d757374206265206576656e7420604482015264199858d95d60da1b6064820152608401610544565b565b6111578160006114ed565b50565b7fc8fcad8db84d3cc18b4c41d551ea0ee66dd599cde068d998e57d5e09332c131c600401546001600160a01b0316331461114a5760405162461bcd60e51b815260206004820152602860248201527f4c69625469636b65744469616d6f6e643a204d75737420626520636f6e74726160448201526731ba1037bbb732b960c11b6064820152608401610544565b600080549082900361120c5760405163b562e8dd60e01b815260040160405180910390fd5b6001600160a01b03831660008181526005602090815260408083208054680100000000000000018802019055848352600490915281206001851460e11b4260a01b17831790558284019083908390600080516020611cdd8339815191528180a4600183015b8181146112975780836000600080516020611cdd833981519152600080a4600101611271565b50816000036112b857604051622e076360e81b815260040160405180910390fd5b60005550505050565b6112ca8261102b565b61132f5760405162461bcd60e51b815260206004820152603060248201527f5469636b65744552433732314146616365743a2055524920736574206f66206e60448201526f37b732bc34b9ba32b73a103a37b5b2b760811b6064820152608401610544565b60008281526008602052604090206005016107f78282611b7c565b604051630a85bd0160e11b81526000906001600160a01b0385169063150b7a029061137f903390899088908890600401611c3c565b6020604051808303816000875af19250505080156113ba575060408051601f3d908101601f191682019092526113b791810190611c79565b60015b611418573d8080156113e8576040519150601f19603f3d011682016040523d82523d6000602084013e6113ed565b606091505b508051600003611410576040516368d2bf6b60e11b815260040160405180910390fd5b805181602001fd5b6001600160e01b031916630a85bd0160e11b149050949350505050565b606060a06040510180604052602081039150506000815280825b600183039250600a81066030018353600a90048061144f5750819003601f19909101908152919050565b60006127106114888385611ca3565b10156114d65760405162461bcd60e51b815260206004820152601760248201527f50657263656e746167653a20526f756e647320746f20300000000000000000006044820152606401610544565b6127106114e38385611ca3565b61109e9190611cba565b60006114f883611052565b90508060008061151686600090815260066020526040902080549091565b9150915084156115565761152b818433610671565b611556576115398333610fc1565b61155657604051632ce44b5f60e11b815260040160405180910390fd5b801561156157600082555b6001600160a01b038316600081815260056020526040902080546fffffffffffffffffffffffffffffffff0190554260a01b17600360e01b17600087815260046020526040812091909155600160e11b851690036115ef576001860160008181526004602052604081205490036115ed5760005481146115ed5760008181526004602052604090208590555b505b60405186906000906001600160a01b03861690600080516020611cdd833981519152908390a45050600180548101905550505050565b50805461163190611a4a565b6000825580601f10611641575050565b601f01602090049060005260206000209081019061115791905b8082111561166f576000815560010161165b565b5090565b60005b8381101561168e578181015183820152602001611676565b50506000910152565b600081518084526116af816020860160208601611673565b601f01601f19169290920160200192915050565b60208152600061109e6020830184611697565b6000602082840312156116e857600080fd5b5035919050565b80356001600160a01b038116811461170657600080fd5b919050565b6000806040838503121561171e57600080fd5b611727836116ef565b946020939093013593505050565b60008060006060848603121561174a57600080fd5b611753846116ef565b9250611761602085016116ef565b9150604084013590509250925092565b60006020828403121561178357600080fd5b61109e826116ef565b6000806040838503121561179f57600080fd5b823591506117af602084016116ef565b90509250929050565b6020815281516020820152602082015160408201526040820151606082015260608201516080820152608082015160a0820152600060a083015160c080840152610f6660e0840182611697565b634e487b7160e01b600052604160045260246000fd5b600067ffffffffffffffff8084111561183657611836611805565b604051601f8501601f19908116603f0116810190828211818310171561185e5761185e611805565b8160405280935085815286868601111561187757600080fd5b858560208301376000602087830101525050509392505050565b8035801515811461170657600080fd5b600080600080600080600080610100898b0312156118be57600080fd5b883597506020890135965060408901359550606089013594506080890135935060a089013567ffffffffffffffff8111156118f857600080fd5b8901601f81018b1361190957600080fd5b6119188b82356020840161181b565b93505061192760c08a01611891565b915061193560e08a016116ef565b90509295985092959890939650565b6000806040838503121561195757600080fd5b611960836116ef565b91506117af60208401611891565b6000806000806080858703121561198457600080fd5b61198d856116ef565b935061199b602086016116ef565b925060408501359150606085013567ffffffffffffffff8111156119be57600080fd5b8501601f810187136119cf57600080fd5b6119de8782356020840161181b565b91505092959194509250565b600080604083850312156119fd57600080fd5b611a06836116ef565b91506117af602084016116ef565b60008060408385031215611a2757600080fd5b82359150602083013560ff81168114611a3f57600080fd5b809150509250929050565b600181811c90821680611a5e57607f821691505b602082108103611a7e57634e487b7160e01b600052602260045260246000fd5b50919050565b6020808252601c908201527f455243353139323a205469636b657420697320736f756c626f756e6400000000604082015260600190565b634e487b7160e01b600052601160045260246000fd5b8181038181111561086257610862611abb565b60008351611af6818460208801611673565b835190830190611b0a818360208801611673565b01949350505050565b60ff8181168382160290811690818114611b2f57611b2f611abb565b5092915050565b601f8211156107f757600081815260208120601f850160051c81016020861015611b5d5750805b601f850160051c820191505b818110156107a557828155600101611b69565b815167ffffffffffffffff811115611b9657611b96611805565b611baa81611ba48454611a4a565b84611b36565b602080601f831160018114611bdf5760008415611bc75750858301515b600019600386901b1c1916600185901b1785556107a5565b600085815260208120601f198616915b82811015611c0e57888601518255948401946001909101908401611bef565b5085821015611c2c5787850151600019600388901b60f8161c191681555b5050505050600190811b01905550565b6001600160a01b0385811682528416602082015260408101839052608060608201819052600090611c6f90830184611697565b9695505050505050565b600060208284031215611c8b57600080fd5b81516001600160e01b03198116811461109e57600080fd5b808202811582820484141761086257610862611abb565b600082611cd757634e487b7160e01b600052601260045260246000fd5b50049056feddf252ad1be2c89b69c2b068fc378daa952ba7f163c4a11628f55a4df523b3efa2646970667358221220fd8d81bab78561f49bef9017d753b2271c2f44daee07ce41c825f2f5a78b0ebc64736f6c63430008110033",
  "linkReferences": {},
  "deployedLinkReferences": {}
}