{
  "_format": "hh-sol-artifact-1",
  "contractName": "TicketFacet",
  "sourceName": "contracts/TicketDiamond/facets/TicketFacet.sol",
  "abi": [
    {
      "inputs": [],
      "name": "ApprovalCallerNotOwnerNorApproved",
      "type": "error"
    },
    {
      "inputs": [],
      "name": "ApprovalQueryForNonexistentToken",
      "type": "error"
    },
    {
      "inputs": [],
      "name": "BalanceQueryForZeroAddress",
      "type": "error"
    },
    {
      "inputs": [],
      "name": "MintERC2309QuantityExceedsLimit",
      "type": "error"
    },
    {
      "inputs": [],
      "name": "MintToZeroAddress",
      "type": "error"
    },
    {
      "inputs": [],
      "name": "MintZeroQuantity",
      "type": "error"
    },
    {
      "inputs": [],
      "name": "OwnerQueryForNonexistentToken",
      "type": "error"
    },
    {
      "inputs": [],
      "name": "OwnershipNotInitializedForExtraData",
      "type": "error"
    },
    {
      "inputs": [],
      "name": "TransferCallerNotOwnerNorApproved",
      "type": "error"
    },
    {
      "inputs": [],
      "name": "TransferFromIncorrectOwner",
      "type": "error"
    },
    {
      "inputs": [],
      "name": "TransferToNonERC721ReceiverImplementer",
      "type": "error"
    },
    {
      "inputs": [],
      "name": "TransferToZeroAddress",
      "type": "error"
    },
    {
      "inputs": [],
      "name": "URIQueryForNonexistentToken",
      "type": "error"
    },
    {
      "anonymous": false,
      "inputs": [
        {
          "indexed": true,
          "internalType": "address",
          "name": "owner",
          "type": "address"
        },
        {
          "indexed": true,
          "internalType": "address",
          "name": "approved",
          "type": "address"
        },
        {
          "indexed": true,
          "internalType": "uint256",
          "name": "tokenId",
          "type": "uint256"
        }
      ],
      "name": "Approval",
      "type": "event"
    },
    {
      "anonymous": false,
      "inputs": [
        {
          "indexed": true,
          "internalType": "address",
          "name": "owner",
          "type": "address"
        },
        {
          "indexed": true,
          "internalType": "address",
          "name": "operator",
          "type": "address"
        },
        {
          "indexed": false,
          "internalType": "bool",
          "name": "approved",
          "type": "bool"
        }
      ],
      "name": "ApprovalForAll",
      "type": "event"
    },
    {
      "anonymous": false,
      "inputs": [
        {
          "indexed": true,
          "internalType": "uint256",
          "name": "fromTokenId",
          "type": "uint256"
        },
        {
          "indexed": false,
          "internalType": "uint256",
          "name": "toTokenId",
          "type": "uint256"
        },
        {
          "indexed": true,
          "internalType": "address",
          "name": "from",
          "type": "address"
        },
        {
          "indexed": true,
          "internalType": "address",
          "name": "to",
          "type": "address"
        }
      ],
      "name": "ConsecutiveTransfer",
      "type": "event"
    },
    {
      "anonymous": false,
      "inputs": [
        {
          "indexed": false,
          "internalType": "uint256",
          "name": "tokenId",
          "type": "uint256"
        }
      ],
      "name": "Locked",
      "type": "event"
    },
    {
      "anonymous": false,
      "inputs": [
        {
          "indexed": true,
          "internalType": "address",
          "name": "consumer",
          "type": "address"
        },
        {
          "indexed": true,
          "internalType": "uint256",
          "name": "assetId",
          "type": "uint256"
        },
        {
          "indexed": false,
          "internalType": "uint256",
          "name": "amount",
          "type": "uint256"
        },
        {
          "indexed": false,
          "internalType": "bytes",
          "name": "data",
          "type": "bytes"
        }
      ],
      "name": "OnConsumption",
      "type": "event"
    },
    {
      "anonymous": false,
      "inputs": [
        {
          "indexed": true,
          "internalType": "address",
          "name": "_sender",
          "type": "address"
        },
        {
          "indexed": true,
          "internalType": "uint256",
          "name": "_tokenId",
          "type": "uint256"
        }
      ],
      "name": "Refund",
      "type": "event"
    },
    {
      "anonymous": false,
      "inputs": [
        {
          "indexed": true,
          "internalType": "address",
          "name": "from",
          "type": "address"
        },
        {
          "indexed": true,
          "internalType": "address",
          "name": "to",
          "type": "address"
        },
        {
          "indexed": true,
          "internalType": "uint256",
          "name": "tokenId",
          "type": "uint256"
        }
      ],
      "name": "Transfer",
      "type": "event"
    },
    {
      "anonymous": false,
      "inputs": [
        {
          "indexed": false,
          "internalType": "uint256",
          "name": "tokenId",
          "type": "uint256"
        }
      ],
      "name": "Unlocked",
      "type": "event"
    },
    {
      "inputs": [
        {
          "internalType": "address",
          "name": "to",
          "type": "address"
        },
        {
          "internalType": "uint256",
          "name": "tokenId",
          "type": "uint256"
        }
      ],
      "name": "approve",
      "outputs": [],
      "stateMutability": "payable",
      "type": "function"
    },
    {
      "inputs": [
        {
          "internalType": "address",
          "name": "owner",
          "type": "address"
        }
      ],
      "name": "balanceOf",
      "outputs": [
        {
          "internalType": "uint256",
          "name": "",
          "type": "uint256"
        }
      ],
      "stateMutability": "view",
      "type": "function"
    },
    {
      "inputs": [
        {
          "internalType": "uint256",
          "name": "_ticketId",
          "type": "uint256"
        }
      ],
      "name": "burnTicket",
      "outputs": [],
      "stateMutability": "nonpayable",
      "type": "function"
    },
    {
      "inputs": [
        {
          "internalType": "address",
          "name": "_consumer",
          "type": "address"
        },
        {
          "internalType": "uint256",
          "name": "_assetId",
          "type": "uint256"
        },
        {
          "internalType": "uint256",
          "name": "_amount",
          "type": "uint256"
        },
        {
          "internalType": "bytes",
          "name": "_data",
          "type": "bytes"
        }
      ],
      "name": "consume",
      "outputs": [
        {
          "internalType": "bool",
          "name": "_success",
          "type": "bool"
        }
      ],
      "stateMutability": "nonpayable",
      "type": "function"
    },
    {
      "inputs": [
        {
          "internalType": "uint256",
          "name": "tokenId",
          "type": "uint256"
        }
      ],
      "name": "getApproved",
      "outputs": [
        {
          "internalType": "address",
          "name": "",
          "type": "address"
        }
      ],
      "stateMutability": "view",
      "type": "function"
    },
    {
      "inputs": [
        {
          "internalType": "uint256",
          "name": "_ticketId",
          "type": "uint256"
        }
      ],
      "name": "getTicket",
      "outputs": [
        {
          "components": [
            {
              "internalType": "uint256",
              "name": "eventId",
              "type": "uint256"
            },
            {
              "internalType": "uint256",
              "name": "categoryId",
              "type": "uint256"
            },
            {
              "internalType": "uint256",
              "name": "price",
              "type": "uint256"
            },
            {
              "internalType": "uint256",
              "name": "row",
              "type": "uint256"
            },
            {
              "internalType": "uint256",
              "name": "seat",
              "type": "uint256"
            },
            {
              "internalType": "string",
              "name": "tokenUri",
              "type": "string"
            }
          ],
          "internalType": "struct ITicket.Ticket",
          "name": "",
          "type": "tuple"
        }
      ],
      "stateMutability": "view",
      "type": "function"
    },
    {
      "inputs": [
        {
          "internalType": "address",
          "name": "owner",
          "type": "address"
        },
        {
          "internalType": "address",
          "name": "operator",
          "type": "address"
        }
      ],
      "name": "isApprovedForAll",
      "outputs": [
        {
          "internalType": "bool",
          "name": "",
          "type": "bool"
        }
      ],
      "stateMutability": "view",
      "type": "function"
    },
    {
      "inputs": [
        {
          "internalType": "address",
          "name": "_consumer",
          "type": "address"
        },
        {
          "internalType": "uint256",
          "name": "_assetId",
          "type": "uint256"
        },
        {
          "internalType": "uint256",
          "name": "_amount",
          "type": "uint256"
        }
      ],
      "name": "isConsumableBy",
      "outputs": [
        {
          "internalType": "bool",
          "name": "_consumable",
          "type": "bool"
        }
      ],
      "stateMutability": "view",
      "type": "function"
    },
    {
      "inputs": [
        {
          "internalType": "uint256",
          "name": "_ticketId",
          "type": "uint256"
        }
      ],
      "name": "lock",
      "outputs": [],
      "stateMutability": "nonpayable",
      "type": "function"
    },
    {
      "inputs": [
        {
          "internalType": "uint256",
          "name": "tokenId",
          "type": "uint256"
        }
      ],
      "name": "locked",
      "outputs": [
        {
          "internalType": "bool",
          "name": "",
          "type": "bool"
        }
      ],
      "stateMutability": "view",
      "type": "function"
    },
    {
      "inputs": [
        {
          "internalType": "uint256",
          "name": "_eventId",
          "type": "uint256"
        },
        {
          "internalType": "uint256",
          "name": "_categoryId",
          "type": "uint256"
        },
        {
          "internalType": "uint256",
          "name": "_price",
          "type": "uint256"
        },
        {
          "internalType": "uint256",
          "name": "_row",
          "type": "uint256"
        },
        {
          "internalType": "uint256",
          "name": "_seat",
          "type": "uint256"
        },
        {
          "internalType": "string",
          "name": "_ticketMetadataURI",
          "type": "string"
        },
        {
          "internalType": "bool",
          "name": "_soulbound",
          "type": "bool"
        },
        {
          "internalType": "address",
          "name": "_to",
          "type": "address"
        }
      ],
      "name": "mintTicket",
      "outputs": [
        {
          "internalType": "uint256",
          "name": "",
          "type": "uint256"
        }
      ],
      "stateMutability": "nonpayable",
      "type": "function"
    },
    {
      "inputs": [],
      "name": "name",
      "outputs": [
        {
          "internalType": "string",
          "name": "",
          "type": "string"
        }
      ],
      "stateMutability": "view",
      "type": "function"
    },
    {
      "inputs": [
        {
          "internalType": "uint256",
          "name": "tokenId",
          "type": "uint256"
        }
      ],
      "name": "ownerOf",
      "outputs": [
        {
          "internalType": "address",
          "name": "",
          "type": "address"
        }
      ],
      "stateMutability": "view",
      "type": "function"
    },
    {
      "inputs": [
        {
          "internalType": "uint256",
          "name": "tokenId",
          "type": "uint256"
        },
        {
          "internalType": "address",
          "name": "_from",
          "type": "address"
        },
        {
          "internalType": "address",
          "name": "_to",
          "type": "address"
        }
      ],
      "name": "refund",
      "outputs": [],
      "stateMutability": "nonpayable",
      "type": "function"
    },
    {
      "inputs": [
        {
          "internalType": "uint256",
          "name": "tokenId",
          "type": "uint256"
        }
      ],
      "name": "refundDeadlineOf",
      "outputs": [
        {
          "internalType": "uint256",
          "name": "",
          "type": "uint256"
        }
      ],
      "stateMutability": "pure",
      "type": "function"
    },
    {
      "inputs": [
        {
          "internalType": "uint256",
          "name": "tokenId",
          "type": "uint256"
        },
        {
          "internalType": "uint8",
          "name": "percentage",
          "type": "uint8"
        }
      ],
      "name": "refundOf",
      "outputs": [
        {
          "internalType": "uint256",
          "name": "",
          "type": "uint256"
        }
      ],
      "stateMutability": "view",
      "type": "function"
    },
    {
      "inputs": [
        {
          "internalType": "address",
          "name": "from",
          "type": "address"
        },
        {
          "internalType": "address",
          "name": "to",
          "type": "address"
        },
        {
          "internalType": "uint256",
          "name": "tokenId",
          "type": "uint256"
        }
      ],
      "name": "safeTransferFrom",
      "outputs": [],
      "stateMutability": "payable",
      "type": "function"
    },
    {
      "inputs": [
        {
          "internalType": "address",
          "name": "from",
          "type": "address"
        },
        {
          "internalType": "address",
          "name": "to",
          "type": "address"
        },
        {
          "internalType": "uint256",
          "name": "tokenId",
          "type": "uint256"
        },
        {
          "internalType": "bytes",
          "name": "_data",
          "type": "bytes"
        }
      ],
      "name": "safeTransferFrom",
      "outputs": [],
      "stateMutability": "payable",
      "type": "function"
    },
    {
      "inputs": [
        {
          "internalType": "address",
          "name": "operator",
          "type": "address"
        },
        {
          "internalType": "bool",
          "name": "approved",
          "type": "bool"
        }
      ],
      "name": "setApprovalForAll",
      "outputs": [],
      "stateMutability": "nonpayable",
      "type": "function"
    },
    {
      "inputs": [
        {
          "internalType": "address",
          "name": "_contractAddress",
          "type": "address"
        }
      ],
      "name": "setEventDiamondAddress",
      "outputs": [],
      "stateMutability": "nonpayable",
      "type": "function"
    },
    {
      "inputs": [],
      "name": "symbol",
      "outputs": [
        {
          "internalType": "string",
          "name": "",
          "type": "string"
        }
      ],
      "stateMutability": "view",
      "type": "function"
    },
    {
      "inputs": [
        {
          "internalType": "uint256",
          "name": "tokenId",
          "type": "uint256"
        }
      ],
      "name": "tokenURI",
      "outputs": [
        {
          "internalType": "string",
          "name": "",
          "type": "string"
        }
      ],
      "stateMutability": "view",
      "type": "function"
    },
    {
      "inputs": [],
      "name": "totalSupply",
      "outputs": [
        {
          "internalType": "uint256",
          "name": "",
          "type": "uint256"
        }
      ],
      "stateMutability": "view",
      "type": "function"
    },
    {
      "inputs": [
        {
          "internalType": "address",
          "name": "from",
          "type": "address"
        },
        {
          "internalType": "address",
          "name": "to",
          "type": "address"
        },
        {
          "internalType": "uint256",
          "name": "tokenId",
          "type": "uint256"
        }
      ],
      "name": "transferFrom",
      "outputs": [],
      "stateMutability": "payable",
      "type": "function"
    },
    {
      "inputs": [
        {
          "internalType": "uint256",
          "name": "_ticketId",
          "type": "uint256"
        }
      ],
      "name": "unlock",
      "outputs": [],
      "stateMutability": "nonpayable",
      "type": "function"
    }
  ],
  "bytecode": "0x608060405234801561001057600080fd5b50612248806100206000396000f3fe6080604052600436106101665760003560e01c80637dc379fa116100d1578063b45a3c0e1161008a578063c87b56dd11610064578063c87b56dd14610422578063dd46706414610442578063e985e9c514610462578063eb91937a1461048257600080fd5b8063b45a3c0e146103bf578063b88d4fde146103ef578063c34e0d431461040257600080fd5b80637dc379fa146102fd57806395d89b411461032a57806396e83a401461033f5780639b69ff091461035f578063a22cb4651461037f578063a476b73d1461039f57600080fd5b80633ddbc679116101235780633ddbc6791461024957806342842e0e146102695780634f5560161461027c5780636198e3391461029d5780636352211e146102bd57806370a08231146102dd57600080fd5b806306fdde031461016b578063081812fc14610196578063095ea7b3146101ce57806318160ddd146101e35780631e2714051461020657806323b872dd14610236575b600080fd5b34801561017757600080fd5b506101806104a2565b60405161018d91906119b9565b60405180910390f35b3480156101a257600080fd5b506101b66101b13660046119cc565b610537565b6040516001600160a01b03909116815260200161018d565b6101e16101dc366004611a01565b61057b565b005b3480156101ef57600080fd5b50600154600054035b60405190815260200161018d565b34801561021257600080fd5b50610226610221366004611a2b565b610653565b604051901515815260200161018d565b6101e1610244366004611abf565b610712565b34801561025557600080fd5b506101e1610264366004611afb565b6108e8565b6101e1610277366004611abf565b610931565b34801561028857600080fd5b506101f86102973660046119cc565b50600090565b3480156102a957600080fd5b506101e16102b83660046119cc565b610980565b3480156102c957600080fd5b506101b66102d83660046119cc565b6109db565b3480156102e957600080fd5b506101f86102f8366004611afb565b6109ec565b34801561030957600080fd5b5061031d6103183660046119cc565b610a3b565b60405161018d9190611b16565b34801561033657600080fd5b50610180610b60565b34801561034b57600080fd5b506101e161035a366004611b63565b610b72565b34801561036b57600080fd5b506101f861037a366004611c3b565b610cd0565b34801561038b57600080fd5b506101e161039a366004611cde565b610db7565b3480156103ab57600080fd5b506101e16103ba3660046119cc565b610e23565b3480156103cb57600080fd5b506102266103da3660046119cc565b60009081526009602052604090205460ff1690565b6101e16103fd366004611d11565b610e4c565b34801561040e57600080fd5b5061022661041d366004611d8d565b610ec5565b34801561042e57600080fd5b5061018061043d3660046119cc565b610fd3565b34801561044e57600080fd5b506101e161045d3660046119cc565b611133565b34801561046e57600080fd5b5061022661047d366004611dc0565b611186565b34801561048e57600080fd5b506101f861049d366004611dea565b6111b4565b6060600060020180546104b490611e20565b80601f01602080910402602001604051908101604052809291908181526020018280546104e090611e20565b801561052d5780601f106105025761010080835404028352916020019161052d565b820191906000526020600020905b81548152906001019060200180831161051057829003601f168201915b5050505050905090565b60006105428261120d565b61055f576040516333d1c03960e21b815260040160405180910390fd5b506000908152600660205260409020546001600160a01b031690565b60008181526009602052604090205460ff16156105b35760405162461bcd60e51b81526004016105aa90611e5a565b60405180910390fd5b60006105be826109db565b9050336001600160a01b038216146105f7576105da8133611186565b6105f7576040516367d9dca160e11b815260040160405180910390fd5b60008281526006602052604080822080546001600160a01b0319166001600160a01b0387811691821790925591518593918516917f8c5be1e5ebec7d5bd14f71427d1e84f3dd0314c0f7b2291e5b200ac8c7c3b92591a4505050565b600061065d611234565b610668868686610ec5565b6040518060600160405280603281526020016121b6603291399061069f5760405162461bcd60e51b81526004016105aa91906119b9565b506000858152600b602052604090208481556001016106bf838583611ed7565b5084866001600160a01b03167fe980346e48104399bbc0129fadcf85d695e39e759b84d22826b37a0f84ec9c928686866040516106fe93929190611f98565b60405180910390a350600195945050505050565b60008181526009602052604090205460ff16156107415760405162461bcd60e51b81526004016105aa90611e5a565b600061074c826112d8565b9050836001600160a01b0316816001600160a01b03161461077f5760405162a1148160e81b815260040160405180910390fd5b600082815260066020526040902080546107ab8187335b6001600160a01b039081169116811491141790565b6107d6576107b98633611186565b6107d657604051632ce44b5f60e11b815260040160405180910390fd5b6001600160a01b0385166107fd57604051633a954ecd60e21b815260040160405180910390fd5b801561080857600082555b6001600160a01b03868116600090815260056020526040808220805460001901905591871681529081208054600101905561085b9086905b600160e11b174260a01b176001600160a01b03919091161790565b600085815260046020526040812091909155600160e11b841690036108b0576001840160008181526004602052604081205490036108ae5760005481146108ae5760008181526004602052604090208490555b505b83856001600160a01b0316876001600160a01b031660008051602061219683398151915260405160405180910390a45b505050505050565b6108f061133f565b7fc8fcad8db84d3cc18b4c41d551ea0ee66dd599cde068d998e57d5e09332c132180546001600160a01b0319166001600160a01b0392909216919091179055565b60008181526009602052604090205460ff16156109605760405162461bcd60e51b81526004016105aa90611e5a565b61097b83838360405180602001604052806000815250610e4c565b505050565b610988611234565b60008181526009602052604090819020805460ff19169055517ff27b6ce5b2f5e68ddb2fd95a8a909d4ecf1daaac270935fff052feacb24f1842906109d09083815260200190565b60405180910390a150565b60006109e6826112d8565b92915050565b60006001600160a01b038216610a15576040516323d3ad8160e21b815260040160405180910390fd5b506001600160a01b031660009081526005602052604090205467ffffffffffffffff1690565b610a746040518060c001604052806000815260200160008152602001600081526020016000815260200160008152602001606081525090565b600060080160008381526020019081526020016000206040518060c00160405290816000820154815260200160018201548152602001600282015481526020016003820154815260200160048201548152602001600582018054610ad790611e20565b80601f0160208091040260200160405190810160405280929190818152602001828054610b0390611e20565b8015610b505780601f10610b2557610100808354040283529160200191610b50565b820191906000526020600020905b815481529060010190602001808311610b3357829003601f168201915b5050505050815250509050919050565b6060600060030180546104b490611e20565b610b7a611234565b6000838152600a60209081526040918290205482518084019093528183527f455243353530373a205469636b657420616c726561647920726566756e6465649183019190915260ff1615610be15760405162461bcd60e51b81526004016105aa91906119b9565b506000838152600a60209081526040808320805460ff1916600190811790915560099092529091205460ff1615159003610c705760008381526009602052604090819020805460ff19169055517ff27b6ce5b2f5e68ddb2fd95a8a909d4ecf1daaac270935fff052feacb24f184290610c5d9085815260200190565b60405180910390a161097b8282856113cc565b610c79836114cf565b60008381526008602052604081208181556001810182905560028101829055600381018290556004810182905590610cb4600583018261191b565b505050600091825250600960205260409020805460ff19169055565b6000610cda611234565b600080548082526008602090815260408084208d815560018082018e9055600282018d9055600382018c905560049091018a90556009909252909220805460ff191686151517905590610d2e9084906114dd565b610d3881866115b7565b8315610d76576040518181527f032bc66be43dbccb7487781d168eb7bda224628a3b2c3388bdf69b532a3a16119060200160405180910390a1610daa565b6040518181527ff27b6ce5b2f5e68ddb2fd95a8a909d4ecf1daaac270935fff052feacb24f18429060200160405180910390a15b9998505050505050505050565b3360008181526007602090815260408083206001600160a01b03871680855290835292819020805460ff191686151590811790915590519081529192917f17307eab39ab6107e8899845ad3d59bd9653f200f220920489ca2b5937696c31910160405180910390a35050565b610e2b611234565b610e34816114cf565b6000908152600960205260409020805460ff19169055565b60008281526009602052604090205460ff1615610e7b5760405162461bcd60e51b81526004016105aa90611e5a565b610e86848484610712565b6001600160a01b0383163b15610ebf57610ea284848484611640565b610ebf576040516368d2bf6b60e11b815260040160405180910390fd5b50505050565b6000610ed08361120d565b6040518060600160405280602b81526020016121e8602b913990610f075760405162461bcd60e51b81526004016105aa91906119b9565b50336001600160a01b0316846001600160a01b0316146040518060600160405280602a815260200161216c602a913990610f545760405162461bcd60e51b81526004016105aa91906119b9565b5060408051808201909152601b81527f455243323133353a20416d6f756e742073686f756c6420626520310000000000602082015260018314610faa5760405162461bcd60e51b81526004016105aa91906119b9565b506000838152600b60205260408120549003610fc857506001610fcc565b5060005b9392505050565b6060610fde8261120d565b610ffb57604051630a14c4b560e41b815260040160405180910390fd5b6000828152600860205260408120600501805461101790611e20565b80601f016020809104026020016040519081016040528092919081815260200182805461104390611e20565b80156110905780601f1061106557610100808354040283529160200191611090565b820191906000526020600020905b81548152906001019060200180831161107357829003601f168201915b5050505050905060006110ae60408051602081019091526000815290565b905080516000036110c0575092915050565b8151156110f25780826040516020016110da929190611fce565b60405160208183030381529060405292505050919050565b8051600003611110576040518060200160405280600081525061112b565b8061111a8561172b565b6040516020016110da929190611fce565b949350505050565b61113b611234565b60008181526009602052604090819020805460ff19166001179055517f032bc66be43dbccb7487781d168eb7bda224628a3b2c3388bdf69b532a3a1611906109d09083815260200190565b6001600160a01b03918216600090815260076020908152604080832093909416825291909152205460ff1690565b60008281526008602052604081206002015481036111d4575060006109e6565b60006111e460ff84166064611ffd565b60008581526008602052604081206002015491925090611204908361176f565b95945050505050565b60008054821080156109e6575050600090815260046020526040902054600160e01b161590565b7fc8fcad8db84d3cc18b4c41d551ea0ee66dd599cde068d998e57d5e09332c131c600501546001600160a01b031633146112d65760405162461bcd60e51b815260206004820152603760248201527f4c69625469636b65744469616d6f6e643a204d757374206265206576656e742060448201527f7469636b657420636f6e74726f6c6c657220666163657400000000000000000060648201526084016105aa565b565b6000816000548110156113265760008181526004602052604081205490600160e01b82169003611324575b80600003610fcc575060001901600081815260046020526040902054611303565b505b604051636f96cda160e11b815260040160405180910390fd5b7fc8fcad8db84d3cc18b4c41d551ea0ee66dd599cde068d998e57d5e09332c131c600401546001600160a01b031633146112d65760405162461bcd60e51b815260206004820152602860248201527f4c69625469636b65744469616d6f6e643a204d75737420626520636f6e74726160448201526731ba1037bbb732b960c11b60648201526084016105aa565b60006113d7826112d8565b9050836001600160a01b0316816001600160a01b03161461140a5760405162a1148160e81b815260040160405180910390fd5b6001600160a01b038481166000908152600560205260408082208054600019019055918516815290812080546001019055611446908490610840565b600083815260046020526040812091909155600160e11b8216900361149b576001820160008181526004602052604081205490036114995760005481146114995760008181526004602052604090208290555b505b81836001600160a01b0316856001600160a01b031660008051602061219683398151915260405160405180910390a4610ebf565b6114da8160006117e3565b50565b60008054908290036115025760405163b562e8dd60e01b815260040160405180910390fd5b6001600160a01b03831660008181526005602090815260408083208054680100000000000000018802019055848352600490915281206001851460e11b4260a01b178317905582840190839083906000805160206121968339815191528180a4600183015b81811461158d5780836000600080516020612196833981519152600080a4600101611567565b50816000036115ae57604051622e076360e81b815260040160405180910390fd5b60005550505050565b6115c08261120d565b6116255760405162461bcd60e51b815260206004820152603060248201527f5469636b65744552433732314146616365743a2055524920736574206f66206e60448201526f37b732bc34b9ba32b73a103a37b5b2b760811b60648201526084016105aa565b600082815260086020526040902060050161097b8282612022565b604051630a85bd0160e11b81526000906001600160a01b0385169063150b7a02906116759033908990889088906004016120e2565b6020604051808303816000875af19250505080156116b0575060408051601f3d908101601f191682019092526116ad9181019061211f565b60015b61170e573d8080156116de576040519150601f19603f3d011682016040523d82523d6000602084013e6116e3565b606091505b508051600003611706576040516368d2bf6b60e11b815260040160405180910390fd5b805181602001fd5b6001600160e01b031916630a85bd0160e11b149050949350505050565b606060a06040510180604052602081039150506000815280825b600183039250600a81066030018353600a9004806117455750819003601f19909101908152919050565b600061271061177e8385611ffd565b10156117cc5760405162461bcd60e51b815260206004820152601760248201527f50657263656e746167653a20526f756e647320746f203000000000000000000060448201526064016105aa565b6127106117d98385611ffd565b610fcc9190612149565b60006117ee836112d8565b90508060008061180c86600090815260066020526040902080549091565b91509150841561184c57611821818433610796565b61184c5761182f8333611186565b61184c57604051632ce44b5f60e11b815260040160405180910390fd5b801561185757600082555b6001600160a01b038316600081815260056020526040902080546fffffffffffffffffffffffffffffffff0190554260a01b17600360e01b17600087815260046020526040812091909155600160e11b851690036118e5576001860160008181526004602052604081205490036118e35760005481146118e35760008181526004602052604090208590555b505b60405186906000906001600160a01b03861690600080516020612196833981519152908390a45050600180548101905550505050565b50805461192790611e20565b6000825580601f10611937575050565b601f0160209004906000526020600020908101906114da91905b808211156119655760008155600101611951565b5090565b60005b8381101561198457818101518382015260200161196c565b50506000910152565b600081518084526119a5816020860160208601611969565b601f01601f19169290920160200192915050565b602081526000610fcc602083018461198d565b6000602082840312156119de57600080fd5b5035919050565b80356001600160a01b03811681146119fc57600080fd5b919050565b60008060408385031215611a1457600080fd5b611a1d836119e5565b946020939093013593505050565b600080600080600060808688031215611a4357600080fd5b611a4c866119e5565b94506020860135935060408601359250606086013567ffffffffffffffff80821115611a7757600080fd5b818801915088601f830112611a8b57600080fd5b813581811115611a9a57600080fd5b896020828501011115611aac57600080fd5b9699959850939650602001949392505050565b600080600060608486031215611ad457600080fd5b611add846119e5565b9250611aeb602085016119e5565b9150604084013590509250925092565b600060208284031215611b0d57600080fd5b610fcc826119e5565b6020815281516020820152602082015160408201526040820151606082015260608201516080820152608082015160a0820152600060a083015160c08084015261112b60e084018261198d565b600080600060608486031215611b7857600080fd5b83359250611b88602085016119e5565b9150611b96604085016119e5565b90509250925092565b634e487b7160e01b600052604160045260246000fd5b600067ffffffffffffffff80841115611bd057611bd0611b9f565b604051601f8501601f19908116603f01168101908282118183101715611bf857611bf8611b9f565b81604052809350858152868686011115611c1157600080fd5b858560208301376000602087830101525050509392505050565b803580151581146119fc57600080fd5b600080600080600080600080610100898b031215611c5857600080fd5b883597506020890135965060408901359550606089013594506080890135935060a089013567ffffffffffffffff811115611c9257600080fd5b8901601f81018b13611ca357600080fd5b611cb28b823560208401611bb5565b935050611cc160c08a01611c2b565b9150611ccf60e08a016119e5565b90509295985092959890939650565b60008060408385031215611cf157600080fd5b611cfa836119e5565b9150611d0860208401611c2b565b90509250929050565b60008060008060808587031215611d2757600080fd5b611d30856119e5565b9350611d3e602086016119e5565b925060408501359150606085013567ffffffffffffffff811115611d6157600080fd5b8501601f81018713611d7257600080fd5b611d8187823560208401611bb5565b91505092959194509250565b600080600060608486031215611da257600080fd5b611dab846119e5565b95602085013595506040909401359392505050565b60008060408385031215611dd357600080fd5b611ddc836119e5565b9150611d08602084016119e5565b60008060408385031215611dfd57600080fd5b82359150602083013560ff81168114611e1557600080fd5b809150509250929050565b600181811c90821680611e3457607f821691505b602082108103611e5457634e487b7160e01b600052602260045260246000fd5b50919050565b6020808252601c908201527f455243353139323a205469636b657420697320736f756c626f756e6400000000604082015260600190565b601f82111561097b57600081815260208120601f850160051c81016020861015611eb85750805b601f850160051c820191505b818110156108e057828155600101611ec4565b67ffffffffffffffff831115611eef57611eef611b9f565b611f0383611efd8354611e20565b83611e91565b6000601f841160018114611f375760008515611f1f5750838201355b600019600387901b1c1916600186901b178355611f91565b600083815260209020601f19861690835b82811015611f685786850135825560209485019460019092019101611f48565b5086821015611f855760001960f88860031b161c19848701351681555b505060018560011b0183555b5050505050565b83815260406020820152816040820152818360608301376000818301606090810191909152601f909201601f1916010192915050565b60008351611fe0818460208801611969565b835190830190611ff4818360208801611969565b01949350505050565b80820281158282048414176109e657634e487b7160e01b600052601160045260246000fd5b815167ffffffffffffffff81111561203c5761203c611b9f565b6120508161204a8454611e20565b84611e91565b602080601f831160018114612085576000841561206d5750858301515b600019600386901b1c1916600185901b1785556108e0565b600085815260208120601f198616915b828110156120b457888601518255948401946001909101908401612095565b50858210156120d25787850151600019600388901b60f8161c191681555b5050505050600190811b01905550565b6001600160a01b03858116825284166020820152604081018390526080606082018190526000906121159083018461198d565b9695505050505050565b60006020828403121561213157600080fd5b81516001600160e01b031981168114610fcc57600080fd5b60008261216657634e487b7160e01b600052601260045260246000fd5b50049056fe455243323133353a20436f6e73756d65722073686f756c6420626520746865206d73672073656e646572ddf252ad1be2c89b69c2b068fc378daa952ba7f163c4a11628f55a4df523b3ef455243323133353a205469636b6574206e6f7420636f6e73756d61626c65206f7220616c726561647920636f6e73756d65645469636b657446616365743a2043616e277420636c6970206e6f74206578697374696e67207469636b6574a264697066735822122075978d8f4c2696d1cffbf9ae5855907a8bfa0719f31bb13ff5a0254240b2590764736f6c63430008110033",
  "linkReferences": {},
  "deployedLinkReferences": {}
}