{
  "_format": "hh-sol-artifact-1",
  "contractName": "TicketFacet",
  "sourceName": "contracts/TicketDiamond/facets/TicketFacet.sol",
  "abi": [
    {
      "inputs": [],
      "stateMutability": "nonpayable",
      "type": "constructor"
    },
    {
      "anonymous": false,
      "inputs": [
        {
          "indexed": true,
          "internalType": "address",
          "name": "owner",
          "type": "address"
        },
        {
          "indexed": true,
          "internalType": "address",
          "name": "approved",
          "type": "address"
        },
        {
          "indexed": true,
          "internalType": "uint256",
          "name": "tokenId",
          "type": "uint256"
        }
      ],
      "name": "Approval",
      "type": "event"
    },
    {
      "anonymous": false,
      "inputs": [
        {
          "indexed": true,
          "internalType": "address",
          "name": "owner",
          "type": "address"
        },
        {
          "indexed": true,
          "internalType": "address",
          "name": "operator",
          "type": "address"
        },
        {
          "indexed": false,
          "internalType": "bool",
          "name": "approved",
          "type": "bool"
        }
      ],
      "name": "ApprovalForAll",
      "type": "event"
    },
    {
      "anonymous": false,
      "inputs": [
        {
          "indexed": true,
          "internalType": "address",
          "name": "from",
          "type": "address"
        },
        {
          "indexed": true,
          "internalType": "address",
          "name": "to",
          "type": "address"
        },
        {
          "indexed": true,
          "internalType": "uint256",
          "name": "tokenId",
          "type": "uint256"
        }
      ],
      "name": "Transfer",
      "type": "event"
    },
    {
      "inputs": [
        {
          "internalType": "address",
          "name": "to",
          "type": "address"
        },
        {
          "internalType": "uint256",
          "name": "tokenId",
          "type": "uint256"
        }
      ],
      "name": "approve",
      "outputs": [],
      "stateMutability": "nonpayable",
      "type": "function"
    },
    {
      "inputs": [
        {
          "internalType": "address",
          "name": "owner",
          "type": "address"
        }
      ],
      "name": "balanceOf",
      "outputs": [
        {
          "internalType": "uint256",
          "name": "",
          "type": "uint256"
        }
      ],
      "stateMutability": "view",
      "type": "function"
    },
    {
      "inputs": [
        {
          "internalType": "uint256",
          "name": "tokenId",
          "type": "uint256"
        }
      ],
      "name": "getApproved",
      "outputs": [
        {
          "internalType": "address",
          "name": "",
          "type": "address"
        }
      ],
      "stateMutability": "view",
      "type": "function"
    },
    {
      "inputs": [
        {
          "internalType": "address",
          "name": "owner",
          "type": "address"
        },
        {
          "internalType": "address",
          "name": "operator",
          "type": "address"
        }
      ],
      "name": "isApprovedForAll",
      "outputs": [
        {
          "internalType": "bool",
          "name": "",
          "type": "bool"
        }
      ],
      "stateMutability": "view",
      "type": "function"
    },
    {
      "inputs": [
        {
          "internalType": "string",
          "name": "_ticketMetadataURI",
          "type": "string"
        },
        {
          "internalType": "uint256",
          "name": "amount",
          "type": "uint256"
        },
        {
          "internalType": "address",
          "name": "to",
          "type": "address"
        }
      ],
      "name": "mintTickets",
      "outputs": [
        {
          "internalType": "uint256",
          "name": "",
          "type": "uint256"
        }
      ],
      "stateMutability": "nonpayable",
      "type": "function"
    },
    {
      "inputs": [],
      "name": "name",
      "outputs": [
        {
          "internalType": "string",
          "name": "",
          "type": "string"
        }
      ],
      "stateMutability": "view",
      "type": "function"
    },
    {
      "inputs": [
        {
          "internalType": "uint256",
          "name": "tokenId",
          "type": "uint256"
        }
      ],
      "name": "ownerOf",
      "outputs": [
        {
          "internalType": "address",
          "name": "",
          "type": "address"
        }
      ],
      "stateMutability": "view",
      "type": "function"
    },
    {
      "inputs": [
        {
          "internalType": "address",
          "name": "from",
          "type": "address"
        },
        {
          "internalType": "address",
          "name": "to",
          "type": "address"
        },
        {
          "internalType": "uint256",
          "name": "tokenId",
          "type": "uint256"
        }
      ],
      "name": "safeTransferFrom",
      "outputs": [],
      "stateMutability": "nonpayable",
      "type": "function"
    },
    {
      "inputs": [
        {
          "internalType": "address",
          "name": "from",
          "type": "address"
        },
        {
          "internalType": "address",
          "name": "to",
          "type": "address"
        },
        {
          "internalType": "uint256",
          "name": "tokenId",
          "type": "uint256"
        },
        {
          "internalType": "bytes",
          "name": "data",
          "type": "bytes"
        }
      ],
      "name": "safeTransferFrom",
      "outputs": [],
      "stateMutability": "nonpayable",
      "type": "function"
    },
    {
      "inputs": [
        {
          "internalType": "address",
          "name": "operator",
          "type": "address"
        },
        {
          "internalType": "bool",
          "name": "approved",
          "type": "bool"
        }
      ],
      "name": "setApprovalForAll",
      "outputs": [],
      "stateMutability": "nonpayable",
      "type": "function"
    },
    {
      "inputs": [
        {
          "internalType": "address",
          "name": "_contractAddress",
          "type": "address"
        }
      ],
      "name": "setEventFacetAddress",
      "outputs": [],
      "stateMutability": "nonpayable",
      "type": "function"
    },
    {
      "inputs": [
        {
          "internalType": "bytes4",
          "name": "interfaceId",
          "type": "bytes4"
        }
      ],
      "name": "supportsInterface",
      "outputs": [
        {
          "internalType": "bool",
          "name": "",
          "type": "bool"
        }
      ],
      "stateMutability": "view",
      "type": "function"
    },
    {
      "inputs": [],
      "name": "symbol",
      "outputs": [
        {
          "internalType": "string",
          "name": "",
          "type": "string"
        }
      ],
      "stateMutability": "view",
      "type": "function"
    },
    {
      "inputs": [
        {
          "internalType": "uint256",
          "name": "tokenId",
          "type": "uint256"
        }
      ],
      "name": "tokenURI",
      "outputs": [
        {
          "internalType": "string",
          "name": "",
          "type": "string"
        }
      ],
      "stateMutability": "view",
      "type": "function"
    },
    {
      "inputs": [
        {
          "internalType": "address",
          "name": "from",
          "type": "address"
        },
        {
          "internalType": "address",
          "name": "to",
          "type": "address"
        },
        {
          "internalType": "uint256",
          "name": "tokenId",
          "type": "uint256"
        }
      ],
      "name": "transferFrom",
      "outputs": [],
      "stateMutability": "nonpayable",
      "type": "function"
    }
  ],
  "bytecode": "0x60806040523480156200001157600080fd5b506040518060400160405280600c81526020017f4576656e745469636b65747300000000000000000000000000000000000000008152506040518060400160405280600281526020017f4554000000000000000000000000000000000000000000000000000000000000815250620000b27f135315a6cf2603b6e31e918e9d57ea3cc5cafcb06da60dbe54d55267c558876260001b6200026660201b60201c565b620000e67f1e728bd344b93c0c5ead2105996792522197001925a7eff91c57884548a5d76860001b6200026660201b60201c565b6200011a7f5ad2f0dfe49b5fb8c16c404f5039d694e9649cddec9f40cceb17e8a3ceb3a93f60001b6200026660201b60201c565b816000800190816200012d9190620004fc565b50620001627fc1e8f5f5f84663bee1f31433460335af7006b0f390af97363811db751b9b275660001b6200026660201b60201c565b620001967ff8beab203bf8082bcf027f35f7d4c22e93bc5758ac2fecb35f033db37128433560001b6200026660201b60201c565b8060006001019081620001aa9190620004fc565b505050620001e17f2a2d14de51d92bbd42ed0d746d79c794469b24909976e2808553b38ba97fdd7d60001b6200026960201b60201c565b620002157f7b99f0ed2e65ef5189566061ce01bfbdd5cf007a2e30478697e9372fc7dd17b660001b6200026960201b60201c565b620002497f1296142f6cdfa797d28895ff0d51c9e6c14b84087f55548101d5dc9dd740aed560001b6200026960201b60201c565b6200026060076200026c60201b62001d721760201c565b620005e3565b50565b50565b6001816000016000828254019250508190555050565b600081519050919050565b7f4e487b7100000000000000000000000000000000000000000000000000000000600052604160045260246000fd5b7f4e487b7100000000000000000000000000000000000000000000000000000000600052602260045260246000fd5b600060028204905060018216806200030457607f821691505b6020821081036200031a5762000319620002bc565b5b50919050565b60008190508160005260206000209050919050565b60006020601f8301049050919050565b600082821b905092915050565b600060088302620003847fffffffffffffffffffffffffffffffffffffffffffffffffffffffffffffffff8262000345565b62000390868362000345565b95508019841693508086168417925050509392505050565b6000819050919050565b6000819050919050565b6000620003dd620003d7620003d184620003a8565b620003b2565b620003a8565b9050919050565b6000819050919050565b620003f983620003bc565b620004116200040882620003e4565b84845462000352565b825550505050565b600090565b6200042862000419565b62000435818484620003ee565b505050565b5b818110156200045d57620004516000826200041e565b6001810190506200043b565b5050565b601f821115620004ac57620004768162000320565b620004818462000335565b8101602085101562000491578190505b620004a9620004a08562000335565b8301826200043a565b50505b505050565b600082821c905092915050565b6000620004d160001984600802620004b1565b1980831691505092915050565b6000620004ec8383620004be565b9150826002028217905092915050565b620005078262000282565b67ffffffffffffffff8111156200052357620005226200028d565b5b6200052f8254620002eb565b6200053c82828562000461565b600060209050601f8311600181146200057457600084156200055f578287015190505b6200056b8582620004de565b865550620005db565b601f198416620005848662000320565b60005b82811015620005ae5784890151825560018201915060208501945060208101905062000587565b86831015620005ce5784890151620005ca601f891682620004be565b8355505b6001600288020188555050505b505050505050565b6158da80620005f36000396000f3fe608060405234801561001057600080fd5b50600436106100f55760003560e01c80636352211e11610097578063a22cb46511610066578063a22cb46514610296578063b88d4fde146102b2578063c87b56dd146102ce578063e985e9c5146102fe576100f5565b80636352211e146101fc57806370a082311461022c5780638f79c6271461025c57806395d89b4114610278576100f5565b8063095ea7b3116100d3578063095ea7b3146101785780631a8b1d3c1461019457806323b872dd146101c457806342842e0e146101e0576100f5565b806301ffc9a7146100fa57806306fdde031461012a578063081812fc14610148575b600080fd5b610114600480360381019061010f9190614522565b61032e565b604051610121919061456a565b60405180910390f35b610132610361565b60405161013f9190614615565b60405180910390f35b610162600480360381019061015d919061466d565b610479565b60405161016f91906146db565b60405180910390f35b610192600480360381019061018d9190614722565b61059e565b005b6101ae60048036038101906101a99190614897565b6108e3565b6040516101bb9190614915565b60405180910390f35b6101de60048036038101906101d99190614930565b610c3e565b005b6101fa60048036038101906101f59190614930565b610dcb565b005b6102166004803603810190610211919061466d565b610e6f565b60405161022391906146db565b60405180910390f35b61024660048036038101906102419190614983565b6110af565b6040516102539190614915565b60405180910390f35b61027660048036038101906102719190614983565b61129e565b005b61028061142d565b60405161028d9190614615565b60405180910390f35b6102b060048036038101906102ab91906149dc565b611546565b005b6102cc60048036038101906102c79190614abd565b6115d9565b005b6102e860048036038101906102e3919061466d565b611768565b6040516102f59190614615565b60405180910390f35b61031860048036038101906103139190614b40565b611c58565b604051610325919061456a565b60405180910390f35b600061035c7f63102ad91b3c7150ab77816c93eb0e56061431733a82bd28b44254f4ec66f4ab60001b611d88565b919050565b606061038f7f6359072aba0ca5d3e7cbdf6444895f46cfd056d01eda5bf0b6d03ca293f8dd4c60001b611d88565b6103bb7f688a15bf71ecabd740a557df3664fdcb92420a91b6be29a6583fa3e1a3fad4a460001b611d88565b6103e77fcafa9b57f080db5b2ff379ba25e3a8a334f1bd99d7f559746a1e9baaa69f84ce60001b611d88565b6000800180546103f690614baf565b80601f016020809104026020016040519081016040528092919081815260200182805461042290614baf565b801561046f5780601f106104445761010080835404028352916020019161046f565b820191906000526020600020905b81548152906001019060200180831161045257829003601f168201915b5050505050905090565b60006104a77f9a8aaeda5943312eaff59074dec297a46fb80a22156bf6a3bafa27b43da60bd560001b611d88565b6104d37f738c7501f6e5fd262b8da66880b1370e926ad16feb6bdde22f0bd06286fdbc4460001b611d88565b6104ff7f63d663b0b79c468b04b7189ecd4ff6f2833ceb81130f5a7a1fdf9c922904665c60001b611d88565b61050882611d8b565b6105347f10f8145c0e86783504cba802df07b0c0bfe5dcd780e42b612c810f000e5e8ffd60001b611d88565b6105607f82ce863eea96c02df87baf006707599e9f46265fa3285e2d843cb06f690d54ce60001b611d88565b6000600401600083815260200190815260200160002060009054906101000a900473ffffffffffffffffffffffffffffffffffffffff169050919050565b6105ca7f3cf341ae0e44528b1b9be21c89fda0f4e8901ea3d428542c4b1ed4cea7c50b9660001b611d88565b6105f67f08fb259973d63240cb42840cbf656499b03f99ee2b40ef1284817d0770dafdf760001b611d88565b6106227f115739d141079913cd8c6b690cdd82b58aa0f86fae474a03b27a51befcb1f85760001b611d88565b600061062d82610e6f565b905061065b7fa9515301ddff1a9ad20d2ffbf8a0ae70194da26a971143b180526eb75af6db4260001b611d88565b6106877fb0ea0d40be46672d7275071d5b5f649e3ecda19eaac08ad8941f1ba10bd4411360001b611d88565b6106b37f1f3cf29083e1c1c657ed7b548bb2c1430861342a1c8885a1f3cc32b08f6f79cf60001b611d88565b8073ffffffffffffffffffffffffffffffffffffffff168373ffffffffffffffffffffffffffffffffffffffff1603610721576040517f08c379a000000000000000000000000000000000000000000000000000000000815260040161071890614c52565b60405180910390fd5b61074d7f95a04b184c3ceecaead7ae05d839045dd85ad90adefb1c17c170af98d0772a5660001b611d88565b6107797f0cb405ceaec2b8d64a223f9b1abeb194299c905088f66c8c1a72070b779762ca60001b611d88565b6107a57fe5a5afc241eb3fe31769645503cee5a9ae8cf51a6471a47bea655869f3ea2bfb60001b611d88565b6107d17f0ffd141b590f94bc24fef0b47351290e5adc7e739f2d0e193b3d8e8dd837bb9860001b611d88565b8073ffffffffffffffffffffffffffffffffffffffff163373ffffffffffffffffffffffffffffffffffffffff16148061081157506108108133611c58565b5b610850576040517f08c379a000000000000000000000000000000000000000000000000000000000815260040161084790614ce4565b60405180910390fd5b61087c7f70f7c6bf2db6646332d21ac71a773a3f7d7deb4a9b89e23a79af1e620e3cabd060001b611d88565b6108a87fce0392d83ac632e8ce79c4a6b0b58378d3193380e32e953d8e07afe05c73658c60001b611d88565b6108d47feb76afb90f33b94757aab19ec61f7c5f05d9f3d6c7d3965ec554a1e3dc1dd81560001b611d88565b6108de8383611eb2565b505050565b60006109117f87d24b8970297a8a37a7484ea5e080538538516942cacf23ffe7d68cbef2df8c60001b61204a565b61093d7f221c235bfbbaf8e171fcd5ff550ac6d8481c96a6b2625f1b09c93d8756c308c060001b61204a565b6109697f77d1be10d0a6a791251cbee2d1f5c2f5c758f8f69fe8dbd5c8189840708b01e460001b61204a565b61097161204d565b61099d7f583d3ace4c81a710ba3dd5d0a0638448b4ae61f774c8cb9ff89b97dfd6ae4da160001b61204a565b6109c97f4a64245bf69b7ef2bd69e818763b5bc4ae8250ff5e30e10d132320544afab0db60001b61204a565b60006109d560076121c4565b9050610a037fd30c0e99453e34a308395eda5197011d04388bcdf1c71aa73a18b28ade2ca9ad60001b61204a565b610a2f7fa1fbb2c7627158d44a61bf6166e3697383462df27fe486e3fda216197194c53b60001b61204a565b60005b84811015610bda57610a667f87ff38b4eeb5cecb2eef0f2384e3a95561a3311fb5d5d90418adeb5051e2d6d960001b61204a565b610a927f0667577a9fe028ab4801a48fcb14d81c774ad56cf171a67ba918bac15c8c529a60001b61204a565b6000610a9e60076121c4565b9050610acc7fa527a6743b40d0e3c59952326cf52cfff60bf0a55dc86727590352255dedbcc760001b61204a565b610af87f445e39b1140d1fd3a058f3e26dc44db2d564e15201860ae20abe78cb636e299b60001b61204a565b610b0285826121d2565b610b2e7f58848bfe4a6c98d5f6927c1cd57f8a56a047e6349b819303b701bcb66987c16a60001b61204a565b610b5a7f28c9b9d2be2485fb041dc769ad0c96ef51b7197350fc8b526b75407bf12c641960001b61204a565b610b6481886126f5565b610b907fb8d999cf299ed91739045ac33f2c9b223142b5f8f156bc819bbc101832caf47760001b61204a565b610bbc7f93e5566efb440f7e608304bd6c9cc5ea75a1832f521c8de451e3d7e64b51e70b60001b61204a565b610bc66007611d72565b508080610bd290614d33565b915050610a32565b50610c077f4c6a62a36d7df8352eef1ce1c114e6c3bd0d519853760782992e4e154813dcb660001b61204a565b610c337f839bb6ee6d9bf6a411645a1a97993dd9364d38fce6fed5709cc2aa16561d25a760001b61204a565b809150509392505050565b610c6a7fc18d1a997e28d7240dc5aa1ed03fca0e814f177ef3d743b8c6471bbcda9f0ada60001b611d88565b610c967f6222b9d21bf177350fd2550ed43761b7b23a57986b70701f7b481a5551d8f8cb60001b611d88565b610cc27fb640f0d24156afe78c7bf2833583e48e6271ff5337c7748713525e49513051d260001b611d88565b610cee7ff512fa30e746959f8950bc72958792237e988cc439591897d928c914aa6f564b60001b611d88565b610cf83382612899565b610d37576040517f08c379a0000000000000000000000000000000000000000000000000000000008152600401610d2e90614ded565b60405180910390fd5b610d637f63d28af3ec36d82886dd597ffb9439d4adff99abfad3e808cccd73270ce1441260001b611d88565b610d8f7fa5e95d6d3835847a4969e379c72ed64a0b03772690a7132a7e9c701d0939315960001b611d88565b610dbb7fb66de9c60a749a0789053e8900bbeb008b50fbb44e4fabdd1d319833923fec2d60001b611d88565b610dc6838383612a0b565b505050565b610df77f3188cd5e34e06ef6cab688bb61eb3e79fe2abe9dd1e6b2a42003b084f0647ee860001b611d88565b610e237fd743ba52a8e6b3cd5201a09228dd9a9069e934740be3fff88cba95fe3a49206960001b611d88565b610e4f7f9cfae53200aaca6e6b8d1e035fa3948dbf1d3834a183c369db94f5c94290a61060001b611d88565b610e6a838383604051806020016040528060008152506115d9565b505050565b6000610e9d7f32d6d88750e1f97a993831bb4acd5ad4f3c984056948fc3d88f017e78ae8041e60001b611d88565b610ec97f2aa9160f8f2b5dd447b13121ad65059c7be0dabba7ad2836a8451a406dc254d460001b611d88565b610ef57fc2ffa12edbcd49d6a794c702c5ab8c337b7d153d26cfdf58e63cb4b42fa7fd4a60001b611d88565b600080600201600084815260200190815260200160002060009054906101000a900473ffffffffffffffffffffffffffffffffffffffff169050610f5b7fa5bfc9398b72a71633b3f8ec5c851ed13c84a850f3e8033e631c14fc7bc71cfe60001b611d88565b610f877fd52893035f1d060593a00201bce05fa36a404b8663c286ccc7883bca380b5aff60001b611d88565b610fb37f59d035dadb34b94cfb91be074c9701a6bb61a7218864fe8d2a351d41fdfcfe0060001b611d88565b600073ffffffffffffffffffffffffffffffffffffffff168173ffffffffffffffffffffffffffffffffffffffff1603611022576040517f08c379a000000000000000000000000000000000000000000000000000000000815260040161101990614e59565b60405180910390fd5b61104e7fc57cc14678ac540a641775de1c9f50a45deb6fcbc08ea3277069171a8fa4118e60001b611d88565b61107a7fccbf3d06c5dbb0ba3eff1c14ccc596238ad6ecc77e21dbbf23c925f1c841d03a60001b611d88565b6110a67f95b81abbeb7f211dbd98022b7f651740f68ae08c9eff7e40c363f6588b5d853760001b611d88565b80915050919050565b60006110dd7f8274261faa8d62cb0b0f719b0c0269f2508ef45724814cb1c69b74723ffdac5660001b611d88565b6111097f8e30ea18cf9bdc560dfafa55eaf92507a1fa4105d3adf5dabad48aca49961a7960001b611d88565b6111357fe12cbbf7ca66186f4359c60ee8c8e3fa16b3c6257d43ae14a43efb8c16ba7a0160001b611d88565b6111617fd1734869987dc0b5de94115b40aa63d0a81a1ddc7034a23200285f5b0e89949560001b611d88565b600073ffffffffffffffffffffffffffffffffffffffff168273ffffffffffffffffffffffffffffffffffffffff16036111d0576040517f08c379a00000000000000000000000000000000000000000000000000000000081526004016111c790614eeb565b60405180910390fd5b6111fc7f366d81f7f99cc5e97861aa30560186af046f4bd6e686447bbfb5541cbcbd263560001b611d88565b6112287f9935e19f7bcc0a90d0926f801bd5f9f4efe6666042e266ca9319c60d7b1ad4ee60001b611d88565b6112547fca6ed1a8e33b33b5a7a7a6f8ec55a0b2dd73e73c5b7f84db74a319338c21160a60001b611d88565b600060030160008373ffffffffffffffffffffffffffffffffffffffff1673ffffffffffffffffffffffffffffffffffffffff168152602001908152602001600020549050919050565b6112ca7f823028e41e6e5828d10ba2786507eafa8f34b3421546b27d65e558e4f28c63e560001b61204a565b6112f67f33623d142cfc159b9f1554c67afef7f344f336f780f88722b8e20ef438d1fcac60001b61204a565b6113227f114adca3f159fbd64f8c6bbd7cd23df30b375254300c6f699fa8beb4309ebd8d60001b61204a565b61132a61306e565b6113567f1ebc86f3e50760e0a88634b160ef0682b52c5327934206deee8356ac39fb387360001b61204a565b6113827fe44d8f1de76d35e9a0c2954078bf539a3a9c9cae3428fc4f76631618b4a3051960001b61204a565b600061138c6131e5565b90506113ba7f0cefb081d349e0b4f59f89af21cddaffb05bcd3a8ccb04f47ab2969de238ca4860001b61204a565b6113e67fe638d90f76282b4c92c23720a77059185817bd2457a9c7dfb21d62b221510ed760001b61204a565b818160050160006101000a81548173ffffffffffffffffffffffffffffffffffffffff021916908373ffffffffffffffffffffffffffffffffffffffff1602179055505050565b606061145b7ffccf383c7dadd11d928148a0b2849e090730669894b9b3a5ae8503f964d7bd5360001b611d88565b6114877f6fe839c2ecd5e5c4e3bd466bf071f89227c623216924f9b4d37309c2a71e512860001b611d88565b6114b37f9802e23e4756033a6bbb392bcea80d7998361dde35b76629955e96c875fda7fa60001b611d88565b600060010180546114c390614baf565b80601f01602080910402602001604051908101604052809291908181526020018280546114ef90614baf565b801561153c5780601f106115115761010080835404028352916020019161153c565b820191906000526020600020905b81548152906001019060200180831161151f57829003601f168201915b5050505050905090565b6115727fa98477aa3b20ccfaec9654fc943157aa69de3e9e182fe29096c8fc6b06e1aaa960001b611d88565b61159e7fce3ac994cba18f7c77760a986220fd12c2cb8c80a58a7c87a6a19f6b23c31ec660001b611d88565b6115ca7f6b1bdfb5b451df8ec4460920b9d2caf9eb789f3847fb62187e3036056534814460001b611d88565b6115d53383836132c3565b5050565b6116057fcf437a3a46a924dbf02176f1ae0a7ec9251fd9584509dbd30e494b5691ef1c3760001b611d88565b6116317fc0d4d6b7c4b8ebf0e1edd02ef93bf1f891136f54fc4a89f12939042ab208070060001b611d88565b61165d7fa8dbe372cd5c1569527bc0a8e4f6978db8a3880f793a07a06a000b002d77bff260001b611d88565b6116897fd8470cfc3125cbc97a15cb3bf628e37cdecba7ba0c6e6b1b37ec0aa4e15fb71360001b611d88565b6116933383612899565b6116d2576040517f08c379a00000000000000000000000000000000000000000000000000000000081526004016116c990614ded565b60405180910390fd5b6116fe7f8399fdf2152ffa7d764c92e7c659f6fc0fee8d536c2c3c8dfb4de9b75f5c87d060001b611d88565b61172a7f21ac1e748341625486f79095343d1019d8d74476d2a420f63d65b0cee6393e2160001b611d88565b6117567f3c12efdd52d8a972c5876493551e1d121c39f653a5ba66906351450b68a006c760001b611d88565b611762848484846135be565b50505050565b60606117967f44c8e71eba5862d1b9777c59c2a384ffd688fa3209c12371dbec18fcffc1e63260001b611d88565b6117c27fc1f5956debb782798d9407113de4fd8b09517ba7fa47cd940dd3abff15cf732a60001b611d88565b6117ee7f3ca7570264cb75143cdf1cbf52ce5445bd4c2779137ad9200de3cd5e834cb60660001b611d88565b6117f782611d8b565b6118237fcb2602468262beb9111918f48a2afc58b467bf2cd1b05a8c3bf27b62f3c6ef3b60001b611d88565b61184f7f019715a8a77d2e51515b55b61e6693e8f1a4350fc2ca30878dbeafa440c5721760001b611d88565b6000806006016000848152602001908152602001600020805461187190614baf565b80601f016020809104026020016040519081016040528092919081815260200182805461189d90614baf565b80156118ea5780601f106118bf576101008083540402835291602001916118ea565b820191906000526020600020905b8154815290600101906020018083116118cd57829003601f168201915b5050505050905061191d7ff60172c279c12c531f77fd049b183d6c16da7e11b6cf190cdb0a3f84a8452edb60001b611d88565b6119497f19b9d3b99fb1e0d1af848e86ab97216e5d6732442eb087ed810baf93b048971c60001b611d88565b600061195361374e565b90506119817f9e06bb872e2d73df2415d04486a4fce33b30eee59ef7a756760fb51541833c7a60001b611d88565b6119ad7faa934435c3adb7bb2dd8938ec4334df02aab08734847c815b791ff6ae4d8412160001b611d88565b6000815103611a44576119e27f1389c4ef999124686bfad66789ab0edc43e7fc6b2cd8de04ff37bb6b51d0d6a960001b611d88565b611a0e7f8056630036cf07f715db317fc790c760a1967b9d75963b9ea551f47b691c7ffe60001b611d88565b611a3a7f31724c96de8fba88378b7bdbf3443fbe6b8253c40746c69ebaee63f93f1def7260001b611d88565b8192505050611c53565b611a707faba7d3e655d535981513f7ecd18dbb0c647d7787a4362334d2e8d25cc319391160001b611d88565b611a9c7fd1dc753185ddcd549c90ac3ae8845c70c41e09e3b1bcddd344500153c04a643e60001b611d88565b611ac87fd70093ffdd3273fc287bf1c1735b802f68d7f7381b3b2c114f6067fb20dc622e60001b611d88565b600082511115611b8157611afe7f94bf0f05e9d07c14ce0a5eaf8fa5b900a2e0c9baa33e98de0ee2e07cbeaa686160001b611d88565b611b2a7f6211e90e44f10d8ff8b19a6319c0314b5d3cde1ce7ac59acb6cef98474f3c5c160001b611d88565b611b567fbe2cfbf70428e1dc0b8aedff8d886d8c36d150702dea6fd603535ef34885ae6b60001b611d88565b8082604051602001611b69929190614f47565b60405160208183030381529060405292505050611c53565b611bad7fe588d93dea7ff8665bf3cf8e69ddfb4534fba1c7d391c44940187c4a433cac8160001b611d88565b611bd97f352e90af6c37d69349a76256e87f1d87889c6c40f05968d8160d6d965281118760001b611d88565b611c057f2c957a217a1874f998b5510b16101aa358ec6534f70f553ff209165acfa9d7fc60001b611d88565b6000815111611c235760405180602001604052806000815250611c4e565b80611c2d856137e9565b604051602001611c3e929190614f47565b6040516020818303038152906040525b925050505b919050565b6000611c857e892d3cfd27173cbc91fe4cb62b6530de0572568c64baca810b615fbbc41f2d60001b611d88565b611cb17f39e1d77c5429f785c36ff14ad4e182a66789aacea4528736e46966eb2632b7b660001b611d88565b611cdd7fba7fc787906d6266bb1ada59e2eec90763d08d85cc37b7f7f1b8e72202df38c560001b611d88565b600060050160008473ffffffffffffffffffffffffffffffffffffffff1673ffffffffffffffffffffffffffffffffffffffff16815260200190815260200160002060008373ffffffffffffffffffffffffffffffffffffffff1673ffffffffffffffffffffffffffffffffffffffff16815260200190815260200160002060009054906101000a900460ff16905092915050565b6001816000016000828254019250508190555050565b50565b611db77f8eff8da3d5e35be3c91b5fd1cd21aa6433a3f475300e5e49343f49b9a195f85860001b611d88565b611de37ff4252bd25d3e62d42cde1e866ba0ac2e6f1aa1ac7267e241df711d5427ef3a1e60001b611d88565b611e0f7f7bcd8dad019d929288c48a2599b0d63e09bb866fdc850fc8a164f18f1a0573db60001b611d88565b611e3b7fdd1081b6f163c2c81533c2efe2799096fee6f3903965845b3dd0b2d019e9e1a360001b611d88565b611e4481613e17565b611e83576040517f08c379a0000000000000000000000000000000000000000000000000000000008152600401611e7a90614e59565b60405180910390fd5b611eaf7fc72d41bfa0ec7900881e1d59ed1f829b1310a24cf9820b821718ef674885218a60001b611d88565b50565b611ede7f05ea0a66a8fce562ef4fa938279cf711cf675297cc458a9391b49a63adf5d90060001b611d88565b611f0a7fbcefe5ae93d689ab247ae19bdafe5f0f8189b817114b87c7d1e843c67a72501e60001b611d88565b611f367f44d0cdd575d3725fdf6fb7d529dd10a624f2af5a722cf4974b70dfb97569650c60001b611d88565b816000600401600083815260200190815260200160002060006101000a81548173ffffffffffffffffffffffffffffffffffffffff021916908373ffffffffffffffffffffffffffffffffffffffff160217905550611fb77f76af44fb1c6e4e0e56f082b77ec21d878b0943c44e91b5a40551fbc4ac5df37260001b611d88565b611fe37f79c38ccee3bfa157323fae4110a90d50b44c949d45e57098878402d53766626d60001b611d88565b808273ffffffffffffffffffffffffffffffffffffffff1661200483610e6f565b73ffffffffffffffffffffffffffffffffffffffff167f8c5be1e5ebec7d5bd14f71427d1e84f3dd0314c0f7b2291e5b200ac8c7c3b92560405160405180910390a45050565b50565b6120797faf4da25ec792db9539aa90865beb3d8fdb8617e9521d145ed8fa4276d1e5e4bb60001b613f0b565b6120a57f942bd75063c08880cd40c6e4c5c60263e74f24313894ad3730a062c07d96590a60001b613f0b565b6120d17f9b75b461bad5633b41a5463cf226531b70248ac48ccf20d0d7206be16b20f73760001b613f0b565b6120fd7f56e213ece67aef1729ae0ee34542d57f936bc0066b429c6c9c414b522ed6983960001b613f0b565b6121056131e5565b60050160009054906101000a900473ffffffffffffffffffffffffffffffffffffffff1673ffffffffffffffffffffffffffffffffffffffff163373ffffffffffffffffffffffffffffffffffffffff1614612196576040517f08c379a000000000000000000000000000000000000000000000000000000000815260040161218d90614fdd565b60405180910390fd5b6121c27fd7cc1c6ffb20ceed2b3cb167d0b0710eb5a80cc2be1ea95929338b809284e17c60001b613f0b565b565b600081600001549050919050565b6121fe7f3178ee88bfac8b83676ff6418b077aa5e6d7e36f29bb5a87c5f89d66d54e859960001b611d88565b61222a7ffad3dec0969fffa3b3b01364549f8d94d774f44e7a4e7aa044c796ac7a2fe89160001b611d88565b6122567f30edfa1ca20e1b4e98215174b3b643d9d0118c965ab55d8c319ed3d9b390566b60001b611d88565b6122827f35c04c7d28878410619841347b4e9c7045330fe77e7bd8efb6578d5aae6d7c6b60001b611d88565b600073ffffffffffffffffffffffffffffffffffffffff168273ffffffffffffffffffffffffffffffffffffffff16036122f1576040517f08c379a00000000000000000000000000000000000000000000000000000000081526004016122e890615049565b60405180910390fd5b61231d7fb894007f25c2ac3666832fe67361f2a51c7b8ebe6335bbfa4f4a7e65a883d4e060001b611d88565b6123497f9ff06ca999f30e9c0688013966a6e3eb14423c44b44d64e180c0fdb62e1e984b60001b611d88565b6123757f50ad0132e8576be8eb785fa110eb0b7a6bf53ff84e03e1788ec4620bc118321660001b611d88565b6123a17fe8dd713b48131f3f3a8bef6f7579487ad358a5d511af03186f1cf389e834ad8860001b611d88565b6123aa81613e17565b156123ea576040517f08c379a00000000000000000000000000000000000000000000000000000000081526004016123e1906150b5565b60405180910390fd5b6124167f122dca194dc432be6ba100b824992ee3ffac3b7cef86709de98feee50f3503ba60001b611d88565b6124427f107fcba1cf338a361ee65b1cdd917adb9be7edee4ff24c5fa664ccdf711c8b8a60001b611d88565b61246e7f3750583e5d63e45cdb2549832088868970ca905ee55d61810b7ea630f38b9b2060001b611d88565b61247a60008383613f0e565b6124a67f040b7c8fe96f1e868e944888ab3f9ee7f294b71522afcf3258bf40e1d36aef8b60001b611d88565b6124d27f0452f13996f910692c0d2ecfcb6894fa44b8f18f512fe34d2e98f4e09a773f4560001b611d88565b6001600060030160008473ffffffffffffffffffffffffffffffffffffffff1673ffffffffffffffffffffffffffffffffffffffff168152602001908152602001600020600082825461252591906150d5565b925050819055506125587fb4cc7fd61955aa008bcb2aca11818f72a09176ecccc526f36fdf2a938d4761b060001b611d88565b6125847f8190a487c4cd7cb1cb525ba8bd0883dad73c20090af23f3be8b0ac452dad35b760001b611d88565b816000600201600083815260200190815260200160002060006101000a81548173ffffffffffffffffffffffffffffffffffffffff021916908373ffffffffffffffffffffffffffffffffffffffff1602179055506126057f196a977e854373268699488a16e66f08b5110603ab212d9e008a57fc7193071660001b611d88565b6126317fa334504e67531acebb7fc69b2accfb8905d2021c69d5b7287f2b2e628e8759ee60001b611d88565b808273ffffffffffffffffffffffffffffffffffffffff16600073ffffffffffffffffffffffffffffffffffffffff167fddf252ad1be2c89b69c2b068fc378daa952ba7f163c4a11628f55a4df523b3ef60405160405180910390a46126b97f1a11e3fe87e8217d4c0d51c97ae605da53c53dcf68430bab719e68e5f410c19260001b611d88565b6126e57f8195b0a858ff51d443f2e43dc838c4c11500ff9a7c7c69789032858eaf16790060001b611d88565b6126f160008383613f3f565b5050565b6127217f955592ce37874d9a2897d6cfcbef08353539be24fb0a643a31d692bff2ace08c60001b611d88565b61274d7f7a620d3e9fdf732d57b5c91ecc545a5b1e55e369bdb5c122e35fb62ca4e09fe560001b611d88565b6127797f85ef3b8ff809a39f221b1c777b12eb2d3a1268e142071997d3cee6c78b0d488160001b611d88565b6127a57f35be2cc8894e40dea82574b52ab301c6f157e09ebe83e3cb26406f98e27da05160001b611d88565b6127ae82613e17565b6127ed576040517f08c379a00000000000000000000000000000000000000000000000000000000081526004016127e49061517b565b60405180910390fd5b6128197f74b9b3ed43e38bd72cf755c2b5a4628e4764d9bdf2b749859009a6f9cad5d38560001b611d88565b6128457fd6da8e85b6e2d2631be65ad988c257b61697ba197c5cd21b1d9f8117ffc5671a60001b611d88565b6128717feafa94b0811af612a83f63bee8c5ec5142009fd2783fbc7194b414b44e48b63260001b611d88565b806000600601600084815260200190815260200160002090816128949190615347565b505050565b60006128c77f30e53384042004636da9246f20e1d790c714d36ac27d835a10a3ecfe238c1aec60001b611d88565b6128f37f840ad50dc4de9c2e35d547acda4193b919a3441b44a039d4451bbb52f05d297560001b611d88565b61291f7f9bbbcdfa78bb43bb4d2dc32dbbc66b5756c5d34673b68f57e849bbf11d04332760001b611d88565b600061292a83610e6f565b90506129587f82a417a2d8f5802d4bf60cd3b84049f7d5287ee71f581c75787622c0e99a734360001b611d88565b6129847f6165dd76f89dcdfcd88b0e3638a02782fb59f1d8e8437619dff60bb1d1e6bbc560001b611d88565b8073ffffffffffffffffffffffffffffffffffffffff168473ffffffffffffffffffffffffffffffffffffffff1614806129c457506129c38185611c58565b5b80612a0257508373ffffffffffffffffffffffffffffffffffffffff166129ea84610479565b73ffffffffffffffffffffffffffffffffffffffff16145b91505092915050565b612a377fcc63c978bad3f05cf8d9347c459961eebc3814658af0c5c82eb677165848a5d860001b611d88565b612a637fe81e34816415d9a4fa7fbfb9e3fb571c8d4b9c9cc147df2bf49a7e35f3e8433f60001b611d88565b612a8f7f1b92670614cfc982a2a434c97eb4a3e94f75f62cee4468bb87c39a2069697cc760001b611d88565b612abb7fd2501e79711a5df818adab1fbf497f868d459ee823dc338df371e83e7239bca860001b611d88565b8273ffffffffffffffffffffffffffffffffffffffff16612adb82610e6f565b73ffffffffffffffffffffffffffffffffffffffff1614612b31576040517f08c379a0000000000000000000000000000000000000000000000000000000008152600401612b289061548b565b60405180910390fd5b612b5d7fefe0888340e0847ceda5bb870cfdb1afc0930f2b0e603b6d26eff6f75683e16f60001b611d88565b612b897f9728ade8f2923bcf07c5baeb3df7afc8ed690b70654768f04fe571645145b92760001b611d88565b612bb57f67c94d439bcc3b9327a139f431877c60e8c6a20fca8c972489bb099f658def9660001b611d88565b612be17f6fd0ef8f05d7ef4046ed17725522ec0554ef2c59cd9aacc8de94d1a52acb357960001b611d88565b600073ffffffffffffffffffffffffffffffffffffffff168273ffffffffffffffffffffffffffffffffffffffff1603612c50576040517f08c379a0000000000000000000000000000000000000000000000000000000008152600401612c479061551d565b60405180910390fd5b612c7c7f802c93e8c46f1cf437d87ceca833a9a5c03d5ebad852fc2ae8cb8699d4504e0960001b611d88565b612ca87f25ed71d7b8f4307bf8eed497e62cbea23f057aa8031314d383f67caeeeb7489060001b611d88565b612cd47fb43a21e00a6a07c286e4e4074ddbd49e06d80613b0eb451283fd5ff6b81b30c960001b611d88565b612cdf838383613f0e565b612d0b7f8d7aa57c417b015f071da2fcca639ea01806d531f7483c9f187d3edb0be7d44960001b611d88565b612d377fa5b6c20ffcc0815eaea9fa3b4d4431dff55b1b8bd327d9027abde31d704f4acb60001b611d88565b612d42600082611eb2565b612d6e7f7353244d66d5a983f89a5137ac778b115f2ca3368631286c46c081e797b46cd660001b611d88565b612d9a7ffa56ed430243f93af0605a3d10841d605fa4f6b37c04cae6f3b483efc56a41c060001b611d88565b6001600060030160008573ffffffffffffffffffffffffffffffffffffffff1673ffffffffffffffffffffffffffffffffffffffff1681526020019081526020016000206000828254612ded919061553d565b92505081905550612e207fe664837bc9ceb6c9e250910727da77ce98af9070ee3265334db27ec08119096160001b611d88565b612e4c7f4e82db6fdc1f42073915427cd07977a6add73a0d0dc2eb68d201f2874f8e5d5360001b611d88565b6001600060030160008473ffffffffffffffffffffffffffffffffffffffff1673ffffffffffffffffffffffffffffffffffffffff1681526020019081526020016000206000828254612e9f91906150d5565b92505081905550612ed27fdbcc51c0818d19e635af7347ce7c78674ce0278f9154c6f8c08282563c68e71f60001b611d88565b612efe7ffbdac27ffa16d9069a58f81fd4f1ab5b116cd60f355fb6ef5414e63c4a180ed260001b611d88565b816000600201600083815260200190815260200160002060006101000a81548173ffffffffffffffffffffffffffffffffffffffff021916908373ffffffffffffffffffffffffffffffffffffffff160217905550612f7f7fc9d5ab0dd642cc4951fb557c329c7f149abad52703b1c130137be138edce90d060001b611d88565b612fab7f16de3722f38ed692051a26b221af618b6b8f3b2b9cb0b6bc68b5e0a0200ec72860001b611d88565b808273ffffffffffffffffffffffffffffffffffffffff168473ffffffffffffffffffffffffffffffffffffffff167fddf252ad1be2c89b69c2b068fc378daa952ba7f163c4a11628f55a4df523b3ef60405160405180910390a46130327fcee520f5a9663b06ef9db9fbae3a8466bca9bc4d97c38c9b805a6ab37944eab060001b611d88565b61305e7fd7544ab1bc62db55c5f069e2097d6f8f0bf5b0fd80ae803113bff07ce0cb8f9b60001b611d88565b613069838383613f3f565b505050565b61309a7f6225c9016c4b541568201e91037c5b47cc1f2a51c6a91f36427af23238cd3ac160001b613f0b565b6130c67fe00bc025de356433098f1c959be9035a014f118b034a708e4bda0b6f40066cac60001b613f0b565b6130f27f73fab5cec4a35587a5b534a78b2f1555a257c91dcbb34665e1fc8710ddcbbc5260001b613f0b565b61311e7f5b45eebacaf27ee8f25ce72d3264b22e933496f55817056f6cd299583181392d60001b613f0b565b6131266131e5565b60040160009054906101000a900473ffffffffffffffffffffffffffffffffffffffff1673ffffffffffffffffffffffffffffffffffffffff163373ffffffffffffffffffffffffffffffffffffffff16146131b7576040517f08c379a00000000000000000000000000000000000000000000000000000000081526004016131ae906155e3565b60405180910390fd5b6131e37f604799915714b0b91935d9a87d8e1d189dd2be82f35fc6f6aa25909e6cf35e9e60001b613f0b565b565b60006132137fdeaf71103e113779bab021cfb3d64937437a997df28002a8076663d6a54d47e760001b613f0b565b61323f7f31433ff1649a7521ac9ae0227ec4f034b6d53686355fbf24e298356d552ebb3f60001b613f0b565b61326b7f29ad29240d94a964e7c0730165f2b25f0668ded02349fcbb3dacfbcc1c23f7e760001b613f0b565b60007fc8fcad8db84d3cc18b4c41d551ea0ee66dd599cde068d998e57d5e09332c131c90506132bc7f22eb1df6b25cccfa8dc671ec83f8d8008964e0f75884deebfeff18f6d825ef5660001b613f0b565b8091505090565b6132ef7fb7ac5d0cfe1c2253b15713cdf37435894d167570e1e21a072946b124768dacf160001b611d88565b61331b7f3c1936397c585e0e4f382a2281e077b8ea12120e2d2c7250dd91347a1367698260001b611d88565b6133477f4882542ae3b27c03635acb94d77d36cd9415ecc26b35cfef9114f55e5bbf56e360001b611d88565b6133737fd8ba4241cd7277df2f4b4d217536efd458617c09e3434234d4f849f5c51a0cfe60001b611d88565b8173ffffffffffffffffffffffffffffffffffffffff168373ffffffffffffffffffffffffffffffffffffffff16036133e1576040517f08c379a00000000000000000000000000000000000000000000000000000000081526004016133d89061564f565b60405180910390fd5b61340d7fa2b0ea8b9aa1936f3abfde5c98cdca9e62bd577bcaaf0ce956ebb0ffce29c69a60001b611d88565b6134397f124d1e14d692f4278bb536ca5e69bd8d6613bb1115084d0265f4ba83e46b162060001b611d88565b6134657fbecfdb327f7b5eb60a20ed2b201fb7f4657e4187f61d685a90019a223bcb09b960001b611d88565b80600060050160008573ffffffffffffffffffffffffffffffffffffffff1673ffffffffffffffffffffffffffffffffffffffff16815260200190815260200160002060008473ffffffffffffffffffffffffffffffffffffffff1673ffffffffffffffffffffffffffffffffffffffff16815260200190815260200160002060006101000a81548160ff0219169083151502179055506135287f67d8d0f8ff52f86e3abeef4cb7b6c52e50805bbc1af6d2be4637902c8b079e4160001b611d88565b6135547f9c5fd80f90a45e68a293292544dd08d424e6d178a7cc572f78b41406c175876560001b611d88565b8173ffffffffffffffffffffffffffffffffffffffff168373ffffffffffffffffffffffffffffffffffffffff167f17307eab39ab6107e8899845ad3d59bd9653f200f220920489ca2b5937696c31836040516135b1919061456a565b60405180910390a3505050565b6135ea7fb7068625df9a3aa684b4106355d2b88912826858af6701449cfae7a1e19af18960001b611d88565b6136167f5dd2d2a88cd72f3c192e2d8853115dd0a56f2f7264cc92a31229f0e82fb6254460001b611d88565b6136427f6f8809bfa9996af8f9ba2be177ed053a5f02e1a0ecad5054490f581fafe1720c60001b611d88565b61364d848484612a0b565b6136797fab2dbe42612ec354af7c61600086289c523252e0f182f2f7ec3281eaafdd86c560001b611d88565b6136a57fcf8af8339706cf216a3b55d56a9ef638f7836440f57d400947f7758f7ba86cec60001b611d88565b6136d17f5f0310d8c134c4a1241cb30a6584672c3b234d262f3ca633aa24de27cf862f0f60001b611d88565b6136dd84848484613f70565b61371c576040517f08c379a0000000000000000000000000000000000000000000000000000000008152600401613713906156e1565b60405180910390fd5b6137487f12deca2c0f4f4c0eb62bd784d8c70e9843d659caf37ab74a5edf59b5df982a1960001b611d88565b50505050565b606061377c7f062e0bc2f8ab3430fecfa69d8be5cdf73f67f380da61ed49e68ac9680387852460001b611d88565b6137a87ffd97048ffa77ab7443480be471cd546ca067e26668e6ffb4d4ef374e23be61c360001b611d88565b6137d47f7f808e46cc878a39b467de46a23fc41dfcb56e38482f10d7eed93241ec31fb3560001b611d88565b60405180602001604052806000815250905090565b60606138177f4ee8b8128f85ede8543238bc58e182b2d35a031f084b5eca904b5a92e359657b60001b614408565b6138437fdceb92a1aae7aba5f909145cb3c5cf0c6a268893d4ca20e5f4d896a3dc4d164260001b614408565b61386f7f8c7dab18dd27545751c52ebd9fafba65d8ff905dcf9e4773d440eff1c305682760001b614408565b60008203613938576138a37f0f297717727228551beb6bb73ad2ae4a4321f4dd74e8135142ed36b5eebbc58760001b614408565b6138cf7f12a4a94fd2b9ff9eafdb6fe3a3f19e64bcde3283cc8bd0013ea28b3d78504ad160001b614408565b6138fb7f1366bf295298cc1936c157dc455de28ea299e9b85a7475e7e6fb262865d684f860001b614408565b6040518060400160405280600181526020017f30000000000000000000000000000000000000000000000000000000000000008152509050613e12565b6139647f7f5a70766ca3538ce4acb4fc1e0a6e2c18be5ba8b7bebf823ed740bd10cfe5a860001b614408565b6139907f35fa17a485f7d4728674c5a5a4e4fb789ed6edaa83bb9e5e643a82b3c129a45c60001b614408565b6139bc7ff9e65ad871e4e73b19fcf72724f236a185d0e64d53e14db5255d77adc6d584b860001b614408565b60008290506139ed7f82127ab3aa8a8f4340791bd43f68a2bae27c8019140a337b21d23f1f9192e2f260001b614408565b613a197fad6e9d67c8aac0c73e097d8df19339620fb7a122b702dca3e7fe70799cbb488e60001b614408565b6000613a477fdc5526a5b25a5c203c436d999f266f453c819810c4bff9b896a76382fd892e7360001b614408565b613a737fe1c91a7f460f9b33a40ece0298b00c3c50e1e4b730245e7f98174feaf98957d060001b614408565b5b60008214613b2257613aa87f4812d5eb217e92475a64f21509826622e7a08d3467e37044d34c487219f9f1ae60001b614408565b8080613ab390614d33565b915050613ae27fb55a9157d74eb5571af51856d8be763419450978e7d11ca2ba51a99828278eca60001b614408565b613b0e7f1db233f9bc97bf3988c781b621bdfe9190ad4ef8f3cdbd52a965b3859f68482960001b614408565b600a82613b1b9190615730565b9150613a74565b613b4e7f7efd4421362afb940833720a345a3af86a008d4bb5d72d59ab89375a9cf36b8860001b614408565b613b7a7f1d58514f438e32e8d42f3c14702fb9366d22d34d49819134017b32e464f8349b60001b614408565b60008167ffffffffffffffff811115613b9657613b9561476c565b5b6040519080825280601f01601f191660200182016040528015613bc85781602001600182028036833780820191505090505b509050613bf77f8d14862c1b745bbb98be9a8d03c7da08807c123f88764df4d54614a8b9df8a8260001b614408565b613c237fe804ae8c505709c1637cd7809362b986cb9c96107a579d51df35a499e33e608360001b614408565b5b60008514613db457613c577e74e909472792ca232f973b8c778a89a0e2b65fbb54dcf16bd2a2c120e2c4fd60001b614408565b613c837f9b1218629e2db769bf4e45ac6c060228e0d2b28d6b363bd28a52e92858b32f2a60001b614408565b600182613c90919061553d565b9150613cbe7f8d24c602bd85c7a6f8c8eb02fca6c85bbd30aeaded9071ef16694271ffccca6760001b614408565b613cea7fbb1c3066d49b10604c301dc30b4e313eeaa869c4e260c5a75f57660c515aa06460001b614408565b600a85613cf79190615761565b6030613d0391906150d5565b60f81b818381518110613d1957613d18615792565b5b60200101907effffffffffffffffffffffffffffffffffffffffffffffffffffffffffffff1916908160001a905350613d747f917452db3c6fbf882027e7126d76e3873a540dc690efa2cb9a08882437a4b5a160001b614408565b613da07f83a8d5390d87aac4a4de4e3da8ae958bc7fab6638bfe0e9a2bb043a41bf37ad560001b614408565b600a85613dad9190615730565b9450613c24565b613ddf7e4c47237d96b1e9826722d3f692b736cbfa5a7e0a56ffd1c38387e29b1f5cd760001b614408565b613e0b7f27b64e2fe05109e0b00a23558ae4e175bdfa2850b968bc85effdafde6b0b572860001b614408565b8093505050505b919050565b6000613e457fabaaf1c3f7b7c5896476133a3cdf4bc8c431ff4d70e0169384f54904e089658560001b611d88565b613e717f2ed0aae5e449f1126ef1a3956c0c280000eddc8d78cbf61c1ba277257638ac9860001b611d88565b613e9d7f4cdc3e8fd7fb819fe8084fb6ce47a60fd9e15a0fd4491fa3fab6089d91a9dde060001b611d88565b600073ffffffffffffffffffffffffffffffffffffffff166000600201600084815260200190815260200160002060009054906101000a900473ffffffffffffffffffffffffffffffffffffffff1673ffffffffffffffffffffffffffffffffffffffff1614159050919050565b50565b613f3a7fe90fc13d681964a712a3e79bf674be56a30fc282e12f57dc867431e07158249860001b611d88565b505050565b613f6b7fa5fe846c7ec442fb754f76da7bdde1e341fb2ba334705f1ce82250d08350826060001b611d88565b505050565b6000613f9e7fd6cf4b3d16477fd09ea4f02c1a52bcb14d0d532a00fdda44f53c5850dc8060f660001b611d88565b613fca7fc96cd1c9c50554d79856400e6c15b9cb81f5f74db5f2d445361fd93c1fada72660001b611d88565b613ff67fe0adc19dfd6023b594c1031375420bea34c5d00aa82f2e6d8af7c9c7bb5f723160001b611d88565b6140158473ffffffffffffffffffffffffffffffffffffffff1661440b565b15614377576140467f5671628c577f8f27c913477e4e328f2b128a92ded1e258af86e16b0ee9c2bef960001b611d88565b6140727ff9e09fd380ea5dac5f32762db2e94938d8c110aca6e6badce59e0a232d6e5ef660001b611d88565b61409e7f64b5321bfa9f3f2a59d52796727a067b9d10ff2f218ce084f62cdcb7fa4b8fc960001b611d88565b8373ffffffffffffffffffffffffffffffffffffffff1663150b7a02338786866040518563ffffffff1660e01b81526004016140dd9493929190615816565b6020604051808303816000875af192505050801561411957506040513d601f19601f820116820180604052508101906141169190615877565b60015b6142cf573d8060008114614149576040519150601f19603f3d011682016040523d82523d6000602084013e61414e565b606091505b5061417b7fa059108b58ef59f26007dba2f846f1f130683a978416b6189661928b1b2f01a560001b611d88565b6141a77f2c6ff31621201cc994f02c18c4829f08d6196dd160945fa7892a79d8af3a957160001b611d88565b600081510361426f576141dc7f2b6e10a4842a594a571613a57fa9a2f9704fb660e0323d92aa6aeaeff3dde18560001b611d88565b6142087fcbbc06965f40c5aad41bc0c15aba8c1a088e4d7f7b424a7c0c958dd011f6e75060001b611d88565b6142347f09bb48295a939b30446146304d0871b0a78e67a39746ae44668f175f1d9fda6d60001b611d88565b6040517f08c379a0000000000000000000000000000000000000000000000000000000008152600401614266906156e1565b60405180910390fd5b61429b7f418527efd695e82b6143da387797e25776dc5fb455848f9e0ebf3c392b490efc60001b611d88565b6142c77f78a504a8948dafdc7638fcd6824f5ff6d32a8338fd894116e5dcb9a45f738fa560001b611d88565b805181602001fd5b6142fb7f3a86f126bf75da6f333efbebf434b6452a06a324161a9503724066ea29b256a860001b611d88565b6143277ff346a0dfd3a4d696c79ce9ef73e65b726abfc5590a8e2470cdaad6d8f376dfa360001b611d88565b63150b7a0260e01b7bffffffffffffffffffffffffffffffffffffffffffffffffffffffff1916817bffffffffffffffffffffffffffffffffffffffffffffffffffffffff191614915050614400565b6143a37f72a9f5128eef897ee92e3662a295d916fcf227edfe473323a3191940b7fe516c60001b611d88565b6143cf7f70858d959d5b8950a7999bb841664cadcbeeeb282e5ec35f005d20e1e72906c560001b611d88565b6143fb7fcf95d945e6130f9e8dc6e611192ff99eb4af4f830199caccc4265889a0e3057d60001b611d88565b600190505b949350505050565b50565b60006144397f1cb11cf209a7b9820cff6e9ef14af12d208ae925f1604cad35e088c07341acfb60001b6144b3565b6144657f62b27b8899bba9e8b8cce97970036659dcd0ff202f24b0edb9171e7e56f8ac5d60001b6144b3565b6144917febb0604bb8cc63cbf61656baccf4b60b706b7fd24be2247e7692c25a5118eb6b60001b6144b3565b60008273ffffffffffffffffffffffffffffffffffffffff163b119050919050565b50565b6000604051905090565b600080fd5b600080fd5b60007fffffffff0000000000000000000000000000000000000000000000000000000082169050919050565b6144ff816144ca565b811461450a57600080fd5b50565b60008135905061451c816144f6565b92915050565b600060208284031215614538576145376144c0565b5b60006145468482850161450d565b91505092915050565b60008115159050919050565b6145648161454f565b82525050565b600060208201905061457f600083018461455b565b92915050565b600081519050919050565b600082825260208201905092915050565b60005b838110156145bf5780820151818401526020810190506145a4565b60008484015250505050565b6000601f19601f8301169050919050565b60006145e782614585565b6145f18185614590565b93506146018185602086016145a1565b61460a816145cb565b840191505092915050565b6000602082019050818103600083015261462f81846145dc565b905092915050565b6000819050919050565b61464a81614637565b811461465557600080fd5b50565b60008135905061466781614641565b92915050565b600060208284031215614683576146826144c0565b5b600061469184828501614658565b91505092915050565b600073ffffffffffffffffffffffffffffffffffffffff82169050919050565b60006146c58261469a565b9050919050565b6146d5816146ba565b82525050565b60006020820190506146f060008301846146cc565b92915050565b6146ff816146ba565b811461470a57600080fd5b50565b60008135905061471c816146f6565b92915050565b60008060408385031215614739576147386144c0565b5b60006147478582860161470d565b925050602061475885828601614658565b9150509250929050565b600080fd5b600080fd5b7f4e487b7100000000000000000000000000000000000000000000000000000000600052604160045260246000fd5b6147a4826145cb565b810181811067ffffffffffffffff821117156147c3576147c261476c565b5b80604052505050565b60006147d66144b6565b90506147e2828261479b565b919050565b600067ffffffffffffffff8211156148025761480161476c565b5b61480b826145cb565b9050602081019050919050565b82818337600083830152505050565b600061483a614835846147e7565b6147cc565b90508281526020810184848401111561485657614855614767565b5b614861848285614818565b509392505050565b600082601f83011261487e5761487d614762565b5b813561488e848260208601614827565b91505092915050565b6000806000606084860312156148b0576148af6144c0565b5b600084013567ffffffffffffffff8111156148ce576148cd6144c5565b5b6148da86828701614869565b93505060206148eb86828701614658565b92505060406148fc8682870161470d565b9150509250925092565b61490f81614637565b82525050565b600060208201905061492a6000830184614906565b92915050565b600080600060608486031215614949576149486144c0565b5b60006149578682870161470d565b93505060206149688682870161470d565b925050604061497986828701614658565b9150509250925092565b600060208284031215614999576149986144c0565b5b60006149a78482850161470d565b91505092915050565b6149b98161454f565b81146149c457600080fd5b50565b6000813590506149d6816149b0565b92915050565b600080604083850312156149f3576149f26144c0565b5b6000614a018582860161470d565b9250506020614a12858286016149c7565b9150509250929050565b600067ffffffffffffffff821115614a3757614a3661476c565b5b614a40826145cb565b9050602081019050919050565b6000614a60614a5b84614a1c565b6147cc565b905082815260208101848484011115614a7c57614a7b614767565b5b614a87848285614818565b509392505050565b600082601f830112614aa457614aa3614762565b5b8135614ab4848260208601614a4d565b91505092915050565b60008060008060808587031215614ad757614ad66144c0565b5b6000614ae58782880161470d565b9450506020614af68782880161470d565b9350506040614b0787828801614658565b925050606085013567ffffffffffffffff811115614b2857614b276144c5565b5b614b3487828801614a8f565b91505092959194509250565b60008060408385031215614b5757614b566144c0565b5b6000614b658582860161470d565b9250506020614b768582860161470d565b9150509250929050565b7f4e487b7100000000000000000000000000000000000000000000000000000000600052602260045260246000fd5b60006002820490506001821680614bc757607f821691505b602082108103614bda57614bd9614b80565b5b50919050565b7f4552433732313a20617070726f76616c20746f2063757272656e74206f776e6560008201527f7200000000000000000000000000000000000000000000000000000000000000602082015250565b6000614c3c602183614590565b9150614c4782614be0565b604082019050919050565b60006020820190508181036000830152614c6b81614c2f565b9050919050565b7f4552433732313a20617070726f76652063616c6c6572206973206e6f7420746f60008201527f6b656e206f776e6572206e6f7220617070726f76656420666f7220616c6c0000602082015250565b6000614cce603e83614590565b9150614cd982614c72565b604082019050919050565b60006020820190508181036000830152614cfd81614cc1565b9050919050565b7f4e487b7100000000000000000000000000000000000000000000000000000000600052601160045260246000fd5b6000614d3e82614637565b91507fffffffffffffffffffffffffffffffffffffffffffffffffffffffffffffffff8203614d7057614d6f614d04565b5b600182019050919050565b7f4552433732313a2063616c6c6572206973206e6f7420746f6b656e206f776e6560008201527f72206e6f7220617070726f766564000000000000000000000000000000000000602082015250565b6000614dd7602e83614590565b9150614de282614d7b565b604082019050919050565b60006020820190508181036000830152614e0681614dca565b9050919050565b7f4552433732313a20696e76616c696420746f6b656e2049440000000000000000600082015250565b6000614e43601883614590565b9150614e4e82614e0d565b602082019050919050565b60006020820190508181036000830152614e7281614e36565b9050919050565b7f4552433732313a2061646472657373207a65726f206973206e6f74206120766160008201527f6c6964206f776e65720000000000000000000000000000000000000000000000602082015250565b6000614ed5602983614590565b9150614ee082614e79565b604082019050919050565b60006020820190508181036000830152614f0481614ec8565b9050919050565b600081905092915050565b6000614f2182614585565b614f2b8185614f0b565b9350614f3b8185602086016145a1565b80840191505092915050565b6000614f538285614f16565b9150614f5f8284614f16565b91508190509392505050565b7f4c69625469636b65744469616d6f6e643a204d757374206265206576656e742060008201527f6661636574000000000000000000000000000000000000000000000000000000602082015250565b6000614fc7602583614590565b9150614fd282614f6b565b604082019050919050565b60006020820190508181036000830152614ff681614fba565b9050919050565b7f4552433732313a206d696e7420746f20746865207a65726f2061646472657373600082015250565b6000615033602083614590565b915061503e82614ffd565b602082019050919050565b6000602082019050818103600083015261506281615026565b9050919050565b7f4552433732313a20746f6b656e20616c7265616479206d696e74656400000000600082015250565b600061509f601c83614590565b91506150aa82615069565b602082019050919050565b600060208201905081810360008301526150ce81615092565b9050919050565b60006150e082614637565b91506150eb83614637565b925082820190508082111561510357615102614d04565b5b92915050565b7f45524337323155524953746f726167653a2055524920736574206f66206e6f6e60008201527f6578697374656e7420746f6b656e000000000000000000000000000000000000602082015250565b6000615165602e83614590565b915061517082615109565b604082019050919050565b6000602082019050818103600083015261519481615158565b9050919050565b60008190508160005260206000209050919050565b60006020601f8301049050919050565b600082821b905092915050565b6000600883026151fd7fffffffffffffffffffffffffffffffffffffffffffffffffffffffffffffffff826151c0565b61520786836151c0565b95508019841693508086168417925050509392505050565b6000819050919050565b600061524461523f61523a84614637565b61521f565b614637565b9050919050565b6000819050919050565b61525e83615229565b61527261526a8261524b565b8484546151cd565b825550505050565b600090565b61528761527a565b615292818484615255565b505050565b5b818110156152b6576152ab60008261527f565b600181019050615298565b5050565b601f8211156152fb576152cc8161519b565b6152d5846151b0565b810160208510156152e4578190505b6152f86152f0856151b0565b830182615297565b50505b505050565b600082821c905092915050565b600061531e60001984600802615300565b1980831691505092915050565b6000615337838361530d565b9150826002028217905092915050565b61535082614585565b67ffffffffffffffff8111156153695761536861476c565b5b6153738254614baf565b61537e8282856152ba565b600060209050601f8311600181146153b1576000841561539f578287015190505b6153a9858261532b565b865550615411565b601f1984166153bf8661519b565b60005b828110156153e7578489015182556001820191506020850194506020810190506153c2565b868310156154045784890151615400601f89168261530d565b8355505b6001600288020188555050505b505050505050565b7f4552433732313a207472616e736665722066726f6d20696e636f72726563742060008201527f6f776e6572000000000000000000000000000000000000000000000000000000602082015250565b6000615475602583614590565b915061548082615419565b604082019050919050565b600060208201905081810360008301526154a481615468565b9050919050565b7f4552433732313a207472616e7366657220746f20746865207a65726f2061646460008201527f7265737300000000000000000000000000000000000000000000000000000000602082015250565b6000615507602483614590565b9150615512826154ab565b604082019050919050565b60006020820190508181036000830152615536816154fa565b9050919050565b600061554882614637565b915061555383614637565b925082820390508181111561556b5761556a614d04565b5b92915050565b7f4c69625469636b65744469616d6f6e643a204d75737420626520636f6e74726160008201527f6374206f776e6572000000000000000000000000000000000000000000000000602082015250565b60006155cd602883614590565b91506155d882615571565b604082019050919050565b600060208201905081810360008301526155fc816155c0565b9050919050565b7f4552433732313a20617070726f766520746f2063616c6c657200000000000000600082015250565b6000615639601983614590565b915061564482615603565b602082019050919050565b600060208201905081810360008301526156688161562c565b9050919050565b7f4552433732313a207472616e7366657220746f206e6f6e20455243373231526560008201527f63656976657220696d706c656d656e7465720000000000000000000000000000602082015250565b60006156cb603283614590565b91506156d68261566f565b604082019050919050565b600060208201905081810360008301526156fa816156be565b9050919050565b7f4e487b7100000000000000000000000000000000000000000000000000000000600052601260045260246000fd5b600061573b82614637565b915061574683614637565b92508261575657615755615701565b5b828204905092915050565b600061576c82614637565b915061577783614637565b92508261578757615786615701565b5b828206905092915050565b7f4e487b7100000000000000000000000000000000000000000000000000000000600052603260045260246000fd5b600081519050919050565b600082825260208201905092915050565b60006157e8826157c1565b6157f281856157cc565b93506158028185602086016145a1565b61580b816145cb565b840191505092915050565b600060808201905061582b60008301876146cc565b61583860208301866146cc565b6158456040830185614906565b818103606083015261585781846157dd565b905095945050505050565b600081519050615871816144f6565b92915050565b60006020828403121561588d5761588c6144c0565b5b600061589b84828501615862565b9150509291505056fea2646970667358221220fc1f1658508694485ef0633cdf3edba3d03bb3bd4af7a71660c39346847314a164736f6c63430008110033",
  "linkReferences": {},
  "deployedLinkReferences": {}
}