{
  "_format": "hh-sol-artifact-1",
  "contractName": "TicketDiamondInit",
  "sourceName": "contracts/TicketDiamond/upgradeInitializers/TicketDiamondInit.sol",
  "abi": [
    {
      "inputs": [],
      "name": "init",
      "outputs": [],
      "stateMutability": "nonpayable",
      "type": "function"
    }
  ],
  "bytecode": "0x608060405234801561001057600080fd5b506101c4806100206000396000f3fe608060405234801561001057600080fd5b506004361061002b5760003560e01c8063e1c7392a14610030575b600080fd5b61018c7fc8fcad8db84d3cc18b4c41d551ea0ee66dd599cde068d998e57d5e09332c131f6020527f699d9daa71b280d05a152715774afa0a81a312594b2d731d6b0b2552b7d6f69f8054600160ff1991821681179092557ff97e938d8af42f52387bb74b8b526fda8f184cc2aa534340a8d75a88fbecc77580548216831790557f65d510a5d8f7ef134ec444f7f34ee808c8eeb5177cdfd16be0c40fe1ab43369580548216831790557f5622121b47b8cd0120c4efe45dd5483242f54a3d49bd7679be565d47694918c380548216831790557f50f895a7460f47f300a6e8c818b2fb3dd83bf1808ec28eb8aee60a3431e018f780548216831790557fb0f299ecb5b93181be17d5e233721498930c5361f367b1d41c5b827d4fe4d3808054821683179055635b5e139f60e01b6000527f806e5513950c43892aa01780f899fe3e3229f9425b66a2610b01231f5799f44e80549091169091179055565b00fea2646970667358221220503e6871d014b9a6ea8d32254322fe2f6712f0358ecc7d1c5bcca2fe2125ec3264736f6c63430008110033",
  "linkReferences": {},
  "deployedLinkReferences": {}
}