{
  "_format": "hh-sol-artifact-1",
  "contractName": "TicketFacet",
  "sourceName": "contracts/TicketDiamond/facets/TicketFacet.sol",
  "abi": [
    {
      "inputs": [],
      "name": "ApprovalCallerNotOwnerNorApproved",
      "type": "error"
    },
    {
      "inputs": [],
      "name": "ApprovalQueryForNonexistentToken",
      "type": "error"
    },
    {
      "inputs": [],
      "name": "BalanceQueryForZeroAddress",
      "type": "error"
    },
    {
      "inputs": [],
      "name": "MintERC2309QuantityExceedsLimit",
      "type": "error"
    },
    {
      "inputs": [],
      "name": "MintToZeroAddress",
      "type": "error"
    },
    {
      "inputs": [],
      "name": "MintZeroQuantity",
      "type": "error"
    },
    {
      "inputs": [],
      "name": "OwnerQueryForNonexistentToken",
      "type": "error"
    },
    {
      "inputs": [],
      "name": "OwnershipNotInitializedForExtraData",
      "type": "error"
    },
    {
      "inputs": [],
      "name": "TransferCallerNotOwnerNorApproved",
      "type": "error"
    },
    {
      "inputs": [],
      "name": "TransferFromIncorrectOwner",
      "type": "error"
    },
    {
      "inputs": [],
      "name": "TransferToNonERC721ReceiverImplementer",
      "type": "error"
    },
    {
      "inputs": [],
      "name": "TransferToZeroAddress",
      "type": "error"
    },
    {
      "inputs": [],
      "name": "URIQueryForNonexistentToken",
      "type": "error"
    },
    {
      "anonymous": false,
      "inputs": [
        {
          "indexed": true,
          "internalType": "address",
          "name": "owner",
          "type": "address"
        },
        {
          "indexed": true,
          "internalType": "address",
          "name": "approved",
          "type": "address"
        },
        {
          "indexed": true,
          "internalType": "uint256",
          "name": "tokenId",
          "type": "uint256"
        }
      ],
      "name": "Approval",
      "type": "event"
    },
    {
      "anonymous": false,
      "inputs": [
        {
          "indexed": true,
          "internalType": "address",
          "name": "owner",
          "type": "address"
        },
        {
          "indexed": true,
          "internalType": "address",
          "name": "operator",
          "type": "address"
        },
        {
          "indexed": false,
          "internalType": "bool",
          "name": "approved",
          "type": "bool"
        }
      ],
      "name": "ApprovalForAll",
      "type": "event"
    },
    {
      "anonymous": false,
      "inputs": [
        {
          "indexed": true,
          "internalType": "uint256",
          "name": "fromTokenId",
          "type": "uint256"
        },
        {
          "indexed": false,
          "internalType": "uint256",
          "name": "toTokenId",
          "type": "uint256"
        },
        {
          "indexed": true,
          "internalType": "address",
          "name": "from",
          "type": "address"
        },
        {
          "indexed": true,
          "internalType": "address",
          "name": "to",
          "type": "address"
        }
      ],
      "name": "ConsecutiveTransfer",
      "type": "event"
    },
    {
      "anonymous": false,
      "inputs": [
        {
          "indexed": false,
          "internalType": "uint256",
          "name": "tokenId",
          "type": "uint256"
        }
      ],
      "name": "Locked",
      "type": "event"
    },
    {
      "anonymous": false,
      "inputs": [
        {
          "indexed": true,
          "internalType": "address",
          "name": "consumer",
          "type": "address"
        },
        {
          "indexed": true,
          "internalType": "uint256",
          "name": "assetId",
          "type": "uint256"
        },
        {
          "indexed": false,
          "internalType": "uint256",
          "name": "amount",
          "type": "uint256"
        },
        {
          "indexed": false,
          "internalType": "bytes",
          "name": "data",
          "type": "bytes"
        }
      ],
      "name": "OnConsumption",
      "type": "event"
    },
    {
      "anonymous": false,
      "inputs": [
        {
          "indexed": true,
          "internalType": "address",
          "name": "_sender",
          "type": "address"
        },
        {
          "indexed": true,
          "internalType": "uint256",
          "name": "_tokenId",
          "type": "uint256"
        }
      ],
      "name": "Refund",
      "type": "event"
    },
    {
      "anonymous": false,
      "inputs": [
        {
          "indexed": true,
          "internalType": "address",
          "name": "from",
          "type": "address"
        },
        {
          "indexed": true,
          "internalType": "address",
          "name": "to",
          "type": "address"
        },
        {
          "indexed": true,
          "internalType": "uint256",
          "name": "tokenId",
          "type": "uint256"
        }
      ],
      "name": "Transfer",
      "type": "event"
    },
    {
      "anonymous": false,
      "inputs": [
        {
          "indexed": false,
          "internalType": "uint256",
          "name": "tokenId",
          "type": "uint256"
        }
      ],
      "name": "Unlocked",
      "type": "event"
    },
    {
      "inputs": [
        {
          "internalType": "address",
          "name": "to",
          "type": "address"
        },
        {
          "internalType": "uint256",
          "name": "tokenId",
          "type": "uint256"
        }
      ],
      "name": "approve",
      "outputs": [],
      "stateMutability": "payable",
      "type": "function"
    },
    {
      "inputs": [
        {
          "internalType": "address",
          "name": "owner",
          "type": "address"
        }
      ],
      "name": "balanceOf",
      "outputs": [
        {
          "internalType": "uint256",
          "name": "",
          "type": "uint256"
        }
      ],
      "stateMutability": "view",
      "type": "function"
    },
    {
      "inputs": [
        {
          "internalType": "uint256",
          "name": "_ticketId",
          "type": "uint256"
        }
      ],
      "name": "burnTicket",
      "outputs": [],
      "stateMutability": "nonpayable",
      "type": "function"
    },
    {
      "inputs": [
        {
          "internalType": "address",
          "name": "_consumer",
          "type": "address"
        },
        {
          "internalType": "uint256",
          "name": "_assetId",
          "type": "uint256"
        },
        {
          "internalType": "uint256",
          "name": "_amount",
          "type": "uint256"
        },
        {
          "internalType": "bytes",
          "name": "_data",
          "type": "bytes"
        }
      ],
      "name": "consume",
      "outputs": [
        {
          "internalType": "bool",
          "name": "_success",
          "type": "bool"
        }
      ],
      "stateMutability": "nonpayable",
      "type": "function"
    },
    {
      "inputs": [
        {
          "internalType": "uint256",
          "name": "tokenId",
          "type": "uint256"
        }
      ],
      "name": "getApproved",
      "outputs": [
        {
          "internalType": "address",
          "name": "",
          "type": "address"
        }
      ],
      "stateMutability": "view",
      "type": "function"
    },
    {
      "inputs": [
        {
          "internalType": "uint256",
          "name": "_ticketId",
          "type": "uint256"
        }
      ],
      "name": "getTicket",
      "outputs": [
        {
          "components": [
            {
              "internalType": "uint256",
              "name": "eventId",
              "type": "uint256"
            },
            {
              "internalType": "uint256",
              "name": "categoryId",
              "type": "uint256"
            },
            {
              "internalType": "uint256",
              "name": "price",
              "type": "uint256"
            },
            {
              "internalType": "uint256",
              "name": "row",
              "type": "uint256"
            },
            {
              "internalType": "uint256",
              "name": "seat",
              "type": "uint256"
            },
            {
              "internalType": "string",
              "name": "tokenUri",
              "type": "string"
            }
          ],
          "internalType": "struct ITicket.Ticket",
          "name": "",
          "type": "tuple"
        }
      ],
      "stateMutability": "view",
      "type": "function"
    },
    {
      "inputs": [
        {
          "internalType": "address",
          "name": "owner",
          "type": "address"
        },
        {
          "internalType": "address",
          "name": "operator",
          "type": "address"
        }
      ],
      "name": "isApprovedForAll",
      "outputs": [
        {
          "internalType": "bool",
          "name": "",
          "type": "bool"
        }
      ],
      "stateMutability": "view",
      "type": "function"
    },
    {
      "inputs": [
        {
          "internalType": "address",
          "name": "_consumer",
          "type": "address"
        },
        {
          "internalType": "uint256",
          "name": "_assetId",
          "type": "uint256"
        },
        {
          "internalType": "uint256",
          "name": "_amount",
          "type": "uint256"
        }
      ],
      "name": "isConsumableBy",
      "outputs": [
        {
          "internalType": "bool",
          "name": "_consumable",
          "type": "bool"
        }
      ],
      "stateMutability": "view",
      "type": "function"
    },
    {
      "inputs": [
        {
          "internalType": "uint256",
          "name": "_ticketId",
          "type": "uint256"
        }
      ],
      "name": "lock",
      "outputs": [],
      "stateMutability": "nonpayable",
      "type": "function"
    },
    {
      "inputs": [
        {
          "internalType": "uint256",
          "name": "tokenId",
          "type": "uint256"
        }
      ],
      "name": "locked",
      "outputs": [
        {
          "internalType": "bool",
          "name": "",
          "type": "bool"
        }
      ],
      "stateMutability": "view",
      "type": "function"
    },
    {
      "inputs": [
        {
          "internalType": "uint256",
          "name": "_eventId",
          "type": "uint256"
        },
        {
          "internalType": "uint256",
          "name": "_categoryId",
          "type": "uint256"
        },
        {
          "internalType": "uint256",
          "name": "_price",
          "type": "uint256"
        },
        {
          "internalType": "uint256",
          "name": "_row",
          "type": "uint256"
        },
        {
          "internalType": "uint256",
          "name": "_seat",
          "type": "uint256"
        },
        {
          "internalType": "string",
          "name": "_ticketMetadataURI",
          "type": "string"
        },
        {
          "internalType": "bool",
          "name": "_soulbound",
          "type": "bool"
        },
        {
          "internalType": "address",
          "name": "_to",
          "type": "address"
        }
      ],
      "name": "mintTicket",
      "outputs": [
        {
          "internalType": "uint256",
          "name": "",
          "type": "uint256"
        }
      ],
      "stateMutability": "nonpayable",
      "type": "function"
    },
    {
      "inputs": [],
      "name": "name",
      "outputs": [
        {
          "internalType": "string",
          "name": "",
          "type": "string"
        }
      ],
      "stateMutability": "view",
      "type": "function"
    },
    {
      "inputs": [
        {
          "internalType": "uint256",
          "name": "tokenId",
          "type": "uint256"
        }
      ],
      "name": "ownerOf",
      "outputs": [
        {
          "internalType": "address",
          "name": "",
          "type": "address"
        }
      ],
      "stateMutability": "view",
      "type": "function"
    },
    {
      "inputs": [
        {
          "internalType": "uint256",
          "name": "tokenId",
          "type": "uint256"
        },
        {
          "internalType": "address",
          "name": "_to",
          "type": "address"
        }
      ],
      "name": "refund",
      "outputs": [],
      "stateMutability": "nonpayable",
      "type": "function"
    },
    {
      "inputs": [
        {
          "internalType": "uint256",
          "name": "tokenId",
          "type": "uint256"
        }
      ],
      "name": "refundDeadlineOf",
      "outputs": [
        {
          "internalType": "uint256",
          "name": "",
          "type": "uint256"
        }
      ],
      "stateMutability": "pure",
      "type": "function"
    },
    {
      "inputs": [
        {
          "internalType": "uint256",
          "name": "tokenId",
          "type": "uint256"
        },
        {
          "internalType": "uint8",
          "name": "percentage",
          "type": "uint8"
        }
      ],
      "name": "refundOf",
      "outputs": [
        {
          "internalType": "uint256",
          "name": "",
          "type": "uint256"
        }
      ],
      "stateMutability": "view",
      "type": "function"
    },
    {
      "inputs": [
        {
          "internalType": "address",
          "name": "from",
          "type": "address"
        },
        {
          "internalType": "address",
          "name": "to",
          "type": "address"
        },
        {
          "internalType": "uint256",
          "name": "tokenId",
          "type": "uint256"
        }
      ],
      "name": "safeTransferFrom",
      "outputs": [],
      "stateMutability": "payable",
      "type": "function"
    },
    {
      "inputs": [
        {
          "internalType": "address",
          "name": "from",
          "type": "address"
        },
        {
          "internalType": "address",
          "name": "to",
          "type": "address"
        },
        {
          "internalType": "uint256",
          "name": "tokenId",
          "type": "uint256"
        },
        {
          "internalType": "bytes",
          "name": "_data",
          "type": "bytes"
        }
      ],
      "name": "safeTransferFrom",
      "outputs": [],
      "stateMutability": "payable",
      "type": "function"
    },
    {
      "inputs": [
        {
          "internalType": "address",
          "name": "operator",
          "type": "address"
        },
        {
          "internalType": "bool",
          "name": "approved",
          "type": "bool"
        }
      ],
      "name": "setApprovalForAll",
      "outputs": [],
      "stateMutability": "nonpayable",
      "type": "function"
    },
    {
      "inputs": [
        {
          "internalType": "address",
          "name": "_contractAddress",
          "type": "address"
        }
      ],
      "name": "setEventDiamondAddress",
      "outputs": [],
      "stateMutability": "nonpayable",
      "type": "function"
    },
    {
      "inputs": [],
      "name": "symbol",
      "outputs": [
        {
          "internalType": "string",
          "name": "",
          "type": "string"
        }
      ],
      "stateMutability": "view",
      "type": "function"
    },
    {
      "inputs": [
        {
          "internalType": "uint256",
          "name": "tokenId",
          "type": "uint256"
        }
      ],
      "name": "tokenURI",
      "outputs": [
        {
          "internalType": "string",
          "name": "",
          "type": "string"
        }
      ],
      "stateMutability": "view",
      "type": "function"
    },
    {
      "inputs": [],
      "name": "totalSupply",
      "outputs": [
        {
          "internalType": "uint256",
          "name": "",
          "type": "uint256"
        }
      ],
      "stateMutability": "view",
      "type": "function"
    },
    {
      "inputs": [
        {
          "internalType": "address",
          "name": "from",
          "type": "address"
        },
        {
          "internalType": "address",
          "name": "to",
          "type": "address"
        },
        {
          "internalType": "uint256",
          "name": "tokenId",
          "type": "uint256"
        }
      ],
      "name": "transferFrom",
      "outputs": [],
      "stateMutability": "payable",
      "type": "function"
    },
    {
      "inputs": [
        {
          "internalType": "uint256",
          "name": "_ticketId",
          "type": "uint256"
        }
      ],
      "name": "unlock",
      "outputs": [],
      "stateMutability": "nonpayable",
      "type": "function"
    }
  ],
  "bytecode": "0x608060405234801561001057600080fd5b50612125806100206000396000f3fe6080604052600436106101665760003560e01c80637ad226dc116100d1578063b45a3c0e1161008a578063c87b56dd11610064578063c87b56dd14610422578063dd46706414610442578063e985e9c514610462578063eb91937a1461048257600080fd5b8063b45a3c0e146103bf578063b88d4fde146103ef578063c34e0d431461040257600080fd5b80637ad226dc146102fd5780637dc379fa1461031d57806395d89b411461034a5780639b69ff091461035f578063a22cb4651461037f578063a476b73d1461039f57600080fd5b80633ddbc679116101235780633ddbc6791461024957806342842e0e146102695780634f5560161461027c5780636198e3391461029d5780636352211e146102bd57806370a08231146102dd57600080fd5b806306fdde031461016b578063081812fc14610196578063095ea7b3146101ce57806318160ddd146101e35780631e2714051461020657806323b872dd14610236575b600080fd5b34801561017757600080fd5b506101806104a2565b60405161018d91906118af565b60405180910390f35b3480156101a257600080fd5b506101b66101b13660046118c2565b610537565b6040516001600160a01b03909116815260200161018d565b6101e16101dc3660046118f7565b61057b565b005b3480156101ef57600080fd5b50600154600054035b60405190815260200161018d565b34801561021257600080fd5b50610226610221366004611921565b610653565b604051901515815260200161018d565b6101e16102443660046119b5565b610712565b34801561025557600080fd5b506101e16102643660046119f1565b6108d2565b6101e16102773660046119b5565b61091b565b34801561028857600080fd5b506101f86102973660046118c2565b50600090565b3480156102a957600080fd5b506101e16102b83660046118c2565b61096a565b3480156102c957600080fd5b506101b66102d83660046118c2565b6109c5565b3480156102e957600080fd5b506101f86102f83660046119f1565b6109d6565b34801561030957600080fd5b506101e1610318366004611a0c565b610a25565b34801561032957600080fd5b5061033d6103383660046118c2565b610bf0565b60405161018d9190611a38565b34801561035657600080fd5b50610180610d15565b34801561036b57600080fd5b506101f861037a366004611b21565b610d27565b34801561038b57600080fd5b506101e161039a366004611bc4565b610e0e565b3480156103ab57600080fd5b506101e16103ba3660046118c2565b610e7a565b3480156103cb57600080fd5b506102266103da3660046118c2565b60009081526009602052604090205460ff1690565b6101e16103fd366004611bee565b610ea3565b34801561040e57600080fd5b5061022661041d366004611c6a565b610f1c565b34801561042e57600080fd5b5061018061043d3660046118c2565b610fe9565b34801561044e57600080fd5b506101e161045d3660046118c2565b611149565b34801561046e57600080fd5b5061022661047d366004611c9d565b61119c565b34801561048e57600080fd5b506101f861049d366004611cc7565b6111ca565b6060600060020180546104b490611cfd565b80601f01602080910402602001604051908101604052809291908181526020018280546104e090611cfd565b801561052d5780601f106105025761010080835404028352916020019161052d565b820191906000526020600020905b81548152906001019060200180831161051057829003601f168201915b5050505050905090565b600061054282611206565b61055f576040516333d1c03960e21b815260040160405180910390fd5b506000908152600660205260409020546001600160a01b031690565b60008181526009602052604090205460ff16156105b35760405162461bcd60e51b81526004016105aa90611d37565b60405180910390fd5b60006105be826109c5565b9050336001600160a01b038216146105f7576105da813361119c565b6105f7576040516367d9dca160e11b815260040160405180910390fd5b60008281526006602052604080822080546001600160a01b0319166001600160a01b0387811691821790925591518593918516917f8c5be1e5ebec7d5bd14f71427d1e84f3dd0314c0f7b2291e5b200ac8c7c3b92591a4505050565b600061065d61122d565b610668868686610f1c565b6040518060600160405280603281526020016120be603291399061069f5760405162461bcd60e51b81526004016105aa91906118af565b506000858152600b602052604090208481556001016106bf838583611db4565b5084866001600160a01b03167fe980346e48104399bbc0129fadcf85d695e39e759b84d22826b37a0f84ec9c928686866040516106fe93929190611e75565b60405180910390a350600195945050505050565b60008181526009602052604090205460ff16156107415760405162461bcd60e51b81526004016105aa90611d37565b600061074c826112d1565b9050836001600160a01b0316816001600160a01b03161461077f5760405162a1148160e81b815260040160405180910390fd5b600082815260066020526040902080546107ab8187335b6001600160a01b039081169116811491141790565b6107d6576107b9863361119c565b6107d657604051632ce44b5f60e11b815260040160405180910390fd5b6001600160a01b0385166107fd57604051633a954ecd60e21b815260040160405180910390fd5b801561080857600082555b6001600160a01b038681166000908152600560205260408082208054600019019055918716808252919020805460010190554260a01b17600160e11b17600085815260046020526040812091909155600160e11b8416900361089a576001840160008181526004602052604081205490036108985760005481146108985760008181526004602052604090208490555b505b83856001600160a01b0316876001600160a01b031660008051602061209e83398151915260405160405180910390a45b505050505050565b6108da611338565b7fc8fcad8db84d3cc18b4c41d551ea0ee66dd599cde068d998e57d5e09332c132180546001600160a01b0319166001600160a01b0392909216919091179055565b60008181526009602052604090205460ff161561094a5760405162461bcd60e51b81526004016105aa90611d37565b61096583838360405180602001604052806000815250610ea3565b505050565b61097261122d565b60008181526009602052604090819020805460ff19169055517ff27b6ce5b2f5e68ddb2fd95a8a909d4ecf1daaac270935fff052feacb24f1842906109ba9083815260200190565b60405180910390a150565b60006109d0826112d1565b92915050565b60006001600160a01b0382166109ff576040516323d3ad8160e21b815260040160405180910390fd5b506001600160a01b031660009081526005602052604090205467ffffffffffffffff1690565b610a2e826109c5565b6001600160a01b0316336001600160a01b0316146040518060400160405280601881526020017f455243353530373a204e6f7420746f6b656e206f776e6572000000000000000081525090610a965760405162461bcd60e51b81526004016105aa91906118af565b506000828152600a60209081526040918290205482518084019093528183527f455243353530373a205469636b657420616c726561647920726566756e6465649183019190915260ff1615610afe5760405162461bcd60e51b81526004016105aa91906118af565b506000828152600a60209081526040808320805460ff1916600190811790915560099092529091205460ff1615159003610b915760008281526009602052604090819020805460ff19169055517ff27b6ce5b2f5e68ddb2fd95a8a909d4ecf1daaac270935fff052feacb24f184290610b7a9084815260200190565b60405180910390a1610b8d338284610712565b5050565b610b9a826113c5565b60008281526008602052604081208181556001810182905560028101829055600381018290556004810182905590610bd56005830182611811565b5050506000908152600960205260409020805460ff19169055565b610c296040518060c001604052806000815260200160008152602001600081526020016000815260200160008152602001606081525090565b600060080160008381526020019081526020016000206040518060c00160405290816000820154815260200160018201548152602001600282015481526020016003820154815260200160048201548152602001600582018054610c8c90611cfd565b80601f0160208091040260200160405190810160405280929190818152602001828054610cb890611cfd565b8015610d055780601f10610cda57610100808354040283529160200191610d05565b820191906000526020600020905b815481529060010190602001808311610ce857829003601f168201915b5050505050815250509050919050565b6060600060030180546104b490611cfd565b6000610d3161122d565b600080548082526008602090815260408084208d815560018082018e9055600282018d9055600382018c905560049091018a90556009909252909220805460ff191686151517905590610d859084906113d3565b610d8f81866114ad565b8315610dcd576040518181527f032bc66be43dbccb7487781d168eb7bda224628a3b2c3388bdf69b532a3a16119060200160405180910390a1610e01565b6040518181527ff27b6ce5b2f5e68ddb2fd95a8a909d4ecf1daaac270935fff052feacb24f18429060200160405180910390a15b9998505050505050505050565b3360008181526007602090815260408083206001600160a01b03871680855290835292819020805460ff191686151590811790915590519081529192917f17307eab39ab6107e8899845ad3d59bd9653f200f220920489ca2b5937696c31910160405180910390a35050565b610e8261122d565b610e8b816113c5565b6000908152600960205260409020805460ff19169055565b60008281526009602052604090205460ff1615610ed25760405162461bcd60e51b81526004016105aa90611d37565b610edd848484610712565b6001600160a01b0383163b15610f1657610ef984848484611536565b610f16576040516368d2bf6b60e11b815260040160405180910390fd5b50505050565b6000336001600160a01b0316846001600160a01b0316146040518060600160405280602a8152602001612074602a913990610f6a5760405162461bcd60e51b81526004016105aa91906118af565b5060408051808201909152601b81527f455243323133353a20416d6f756e742073686f756c6420626520310000000000602082015260018314610fc05760405162461bcd60e51b81526004016105aa91906118af565b506000838152600b60205260408120549003610fde57506001610fe2565b5060005b9392505050565b6060610ff482611206565b61101157604051630a14c4b560e41b815260040160405180910390fd5b6000828152600860205260408120600501805461102d90611cfd565b80601f016020809104026020016040519081016040528092919081815260200182805461105990611cfd565b80156110a65780601f1061107b576101008083540402835291602001916110a6565b820191906000526020600020905b81548152906001019060200180831161108957829003601f168201915b5050505050905060006110c460408051602081019091526000815290565b905080516000036110d6575092915050565b8151156111085780826040516020016110f0929190611eab565b60405160208183030381529060405292505050919050565b80516000036111265760405180602001604052806000815250611141565b8061113085611621565b6040516020016110f0929190611eab565b949350505050565b61115161122d565b60008181526009602052604090819020805460ff19166001179055517f032bc66be43dbccb7487781d168eb7bda224628a3b2c3388bdf69b532a3a1611906109ba9083815260200190565b6001600160a01b03918216600090815260076020908152604080832093909416825291909152205460ff1690565b6000806111d8836064611ef0565b60008581526008602052604081206002015460ff929092169250906111fd9083611665565b95945050505050565b60008054821080156109d0575050600090815260046020526040902054600160e01b161590565b7fc8fcad8db84d3cc18b4c41d551ea0ee66dd599cde068d998e57d5e09332c131c600501546001600160a01b031633146112cf5760405162461bcd60e51b815260206004820152603760248201527f4c69625469636b65744469616d6f6e643a204d757374206265206576656e742060448201527f7469636b657420636f6e74726f6c6c657220666163657400000000000000000060648201526084016105aa565b565b60008160005481101561131f5760008181526004602052604081205490600160e01b8216900361131d575b80600003610fe25750600019016000818152600460205260409020546112fc565b505b604051636f96cda160e11b815260040160405180910390fd5b7fc8fcad8db84d3cc18b4c41d551ea0ee66dd599cde068d998e57d5e09332c131c600401546001600160a01b031633146112cf5760405162461bcd60e51b815260206004820152602860248201527f4c69625469636b65744469616d6f6e643a204d75737420626520636f6e74726160448201526731ba1037bbb732b960c11b60648201526084016105aa565b6113d08160006116d9565b50565b60008054908290036113f85760405163b562e8dd60e01b815260040160405180910390fd5b6001600160a01b03831660008181526005602090815260408083208054680100000000000000018802019055848352600490915281206001851460e11b4260a01b1783179055828401908390839060008051602061209e8339815191528180a4600183015b818114611483578083600060008051602061209e833981519152600080a460010161145d565b50816000036114a457604051622e076360e81b815260040160405180910390fd5b60005550505050565b6114b682611206565b61151b5760405162461bcd60e51b815260206004820152603060248201527f5469636b65744552433732314146616365743a2055524920736574206f66206e60448201526f37b732bc34b9ba32b73a103a37b5b2b760811b60648201526084016105aa565b60008281526008602052604090206005016109658282611f13565b604051630a85bd0160e11b81526000906001600160a01b0385169063150b7a029061156b903390899088908890600401611fd3565b6020604051808303816000875af19250505080156115a6575060408051601f3d908101601f191682019092526115a391810190612010565b60015b611604573d8080156115d4576040519150601f19603f3d011682016040523d82523d6000602084013e6115d9565b606091505b5080516000036115fc576040516368d2bf6b60e11b815260040160405180910390fd5b805181602001fd5b6001600160e01b031916630a85bd0160e11b149050949350505050565b606060a06040510180604052602081039150506000815280825b600183039250600a81066030018353600a90048061163b5750819003601f19909101908152919050565b6000612710611674838561203a565b10156116c25760405162461bcd60e51b815260206004820152601760248201527f50657263656e746167653a20526f756e647320746f203000000000000000000060448201526064016105aa565b6127106116cf838561203a565b610fe29190612051565b60006116e4836112d1565b90508060008061170286600090815260066020526040902080549091565b91509150841561174257611717818433610796565b61174257611725833361119c565b61174257604051632ce44b5f60e11b815260040160405180910390fd5b801561174d57600082555b6001600160a01b038316600081815260056020526040902080546fffffffffffffffffffffffffffffffff0190554260a01b17600360e01b17600087815260046020526040812091909155600160e11b851690036117db576001860160008181526004602052604081205490036117d95760005481146117d95760008181526004602052604090208590555b505b60405186906000906001600160a01b0386169060008051602061209e833981519152908390a45050600180548101905550505050565b50805461181d90611cfd565b6000825580601f1061182d575050565b601f0160209004906000526020600020908101906113d091905b8082111561185b5760008155600101611847565b5090565b60005b8381101561187a578181015183820152602001611862565b50506000910152565b6000815180845261189b81602086016020860161185f565b601f01601f19169290920160200192915050565b602081526000610fe26020830184611883565b6000602082840312156118d457600080fd5b5035919050565b80356001600160a01b03811681146118f257600080fd5b919050565b6000806040838503121561190a57600080fd5b611913836118db565b946020939093013593505050565b60008060008060006080868803121561193957600080fd5b611942866118db565b94506020860135935060408601359250606086013567ffffffffffffffff8082111561196d57600080fd5b818801915088601f83011261198157600080fd5b81358181111561199057600080fd5b8960208285010111156119a257600080fd5b9699959850939650602001949392505050565b6000806000606084860312156119ca57600080fd5b6119d3846118db565b92506119e1602085016118db565b9150604084013590509250925092565b600060208284031215611a0357600080fd5b610fe2826118db565b60008060408385031215611a1f57600080fd5b82359150611a2f602084016118db565b90509250929050565b6020815281516020820152602082015160408201526040820151606082015260608201516080820152608082015160a0820152600060a083015160c08084015261114160e0840182611883565b634e487b7160e01b600052604160045260246000fd5b600067ffffffffffffffff80841115611ab657611ab6611a85565b604051601f8501601f19908116603f01168101908282118183101715611ade57611ade611a85565b81604052809350858152868686011115611af757600080fd5b858560208301376000602087830101525050509392505050565b803580151581146118f257600080fd5b600080600080600080600080610100898b031215611b3e57600080fd5b883597506020890135965060408901359550606089013594506080890135935060a089013567ffffffffffffffff811115611b7857600080fd5b8901601f81018b13611b8957600080fd5b611b988b823560208401611a9b565b935050611ba760c08a01611b11565b9150611bb560e08a016118db565b90509295985092959890939650565b60008060408385031215611bd757600080fd5b611be0836118db565b9150611a2f60208401611b11565b60008060008060808587031215611c0457600080fd5b611c0d856118db565b9350611c1b602086016118db565b925060408501359150606085013567ffffffffffffffff811115611c3e57600080fd5b8501601f81018713611c4f57600080fd5b611c5e87823560208401611a9b565b91505092959194509250565b600080600060608486031215611c7f57600080fd5b611c88846118db565b95602085013595506040909401359392505050565b60008060408385031215611cb057600080fd5b611cb9836118db565b9150611a2f602084016118db565b60008060408385031215611cda57600080fd5b82359150602083013560ff81168114611cf257600080fd5b809150509250929050565b600181811c90821680611d1157607f821691505b602082108103611d3157634e487b7160e01b600052602260045260246000fd5b50919050565b6020808252601c908201527f455243353139323a205469636b657420697320736f756c626f756e6400000000604082015260600190565b601f82111561096557600081815260208120601f850160051c81016020861015611d955750805b601f850160051c820191505b818110156108ca57828155600101611da1565b67ffffffffffffffff831115611dcc57611dcc611a85565b611de083611dda8354611cfd565b83611d6e565b6000601f841160018114611e145760008515611dfc5750838201355b600019600387901b1c1916600186901b178355611e6e565b600083815260209020601f19861690835b82811015611e455786850135825560209485019460019092019101611e25565b5086821015611e625760001960f88860031b161c19848701351681555b505060018560011b0183555b5050505050565b83815260406020820152816040820152818360608301376000818301606090810191909152601f909201601f1916010192915050565b60008351611ebd81846020880161185f565b835190830190611ed181836020880161185f565b01949350505050565b634e487b7160e01b600052601160045260246000fd5b60ff8181168382160290811690818114611f0c57611f0c611eda565b5092915050565b815167ffffffffffffffff811115611f2d57611f2d611a85565b611f4181611f3b8454611cfd565b84611d6e565b602080601f831160018114611f765760008415611f5e5750858301515b600019600386901b1c1916600185901b1785556108ca565b600085815260208120601f198616915b82811015611fa557888601518255948401946001909101908401611f86565b5085821015611fc35787850151600019600388901b60f8161c191681555b5050505050600190811b01905550565b6001600160a01b038581168252841660208201526040810183905260806060820181905260009061200690830184611883565b9695505050505050565b60006020828403121561202257600080fd5b81516001600160e01b031981168114610fe257600080fd5b80820281158282048414176109d0576109d0611eda565b60008261206e57634e487b7160e01b600052601260045260246000fd5b50049056fe455243323133353a20436f6e73756d65722073686f756c6420626520746865206d73672073656e646572ddf252ad1be2c89b69c2b068fc378daa952ba7f163c4a11628f55a4df523b3ef455243323133353a205469636b6574206e6f7420636f6e73756d61626c65206f7220616c726561647920636f6e73756d6564a2646970667358221220c4ef2df7271ef2989ec614952a41741585d761215e495bf4462e4d680f0ab30164736f6c63430008110033",
  "linkReferences": {},
  "deployedLinkReferences": {}
}