{
  "_format": "hh-sol-artifact-1",
  "contractName": "TicketFacet",
  "sourceName": "contracts/TicketDiamond/facets/TicketFacet.sol",
  "abi": [
    {
      "inputs": [],
      "stateMutability": "nonpayable",
      "type": "constructor"
    },
    {
      "anonymous": false,
      "inputs": [
        {
          "indexed": true,
          "internalType": "address",
          "name": "owner",
          "type": "address"
        },
        {
          "indexed": true,
          "internalType": "address",
          "name": "approved",
          "type": "address"
        },
        {
          "indexed": true,
          "internalType": "uint256",
          "name": "tokenId",
          "type": "uint256"
        }
      ],
      "name": "Approval",
      "type": "event"
    },
    {
      "anonymous": false,
      "inputs": [
        {
          "indexed": true,
          "internalType": "address",
          "name": "owner",
          "type": "address"
        },
        {
          "indexed": true,
          "internalType": "address",
          "name": "operator",
          "type": "address"
        },
        {
          "indexed": false,
          "internalType": "bool",
          "name": "approved",
          "type": "bool"
        }
      ],
      "name": "ApprovalForAll",
      "type": "event"
    },
    {
      "anonymous": false,
      "inputs": [
        {
          "indexed": true,
          "internalType": "address",
          "name": "from",
          "type": "address"
        },
        {
          "indexed": true,
          "internalType": "address",
          "name": "to",
          "type": "address"
        },
        {
          "indexed": true,
          "internalType": "uint256",
          "name": "tokenId",
          "type": "uint256"
        }
      ],
      "name": "Transfer",
      "type": "event"
    },
    {
      "inputs": [
        {
          "internalType": "address",
          "name": "to",
          "type": "address"
        },
        {
          "internalType": "uint256",
          "name": "tokenId",
          "type": "uint256"
        }
      ],
      "name": "approve",
      "outputs": [],
      "stateMutability": "nonpayable",
      "type": "function"
    },
    {
      "inputs": [
        {
          "internalType": "address",
          "name": "owner",
          "type": "address"
        }
      ],
      "name": "balanceOf",
      "outputs": [
        {
          "internalType": "uint256",
          "name": "",
          "type": "uint256"
        }
      ],
      "stateMutability": "view",
      "type": "function"
    },
    {
      "inputs": [
        {
          "internalType": "uint256",
          "name": "tokenId",
          "type": "uint256"
        }
      ],
      "name": "getApproved",
      "outputs": [
        {
          "internalType": "address",
          "name": "",
          "type": "address"
        }
      ],
      "stateMutability": "view",
      "type": "function"
    },
    {
      "inputs": [
        {
          "internalType": "address",
          "name": "owner",
          "type": "address"
        },
        {
          "internalType": "address",
          "name": "operator",
          "type": "address"
        }
      ],
      "name": "isApprovedForAll",
      "outputs": [
        {
          "internalType": "bool",
          "name": "",
          "type": "bool"
        }
      ],
      "stateMutability": "view",
      "type": "function"
    },
    {
      "inputs": [
        {
          "internalType": "string",
          "name": "_ticketMetadataURI",
          "type": "string"
        },
        {
          "internalType": "uint256",
          "name": "amount",
          "type": "uint256"
        },
        {
          "internalType": "address",
          "name": "to",
          "type": "address"
        }
      ],
      "name": "mintTickets",
      "outputs": [
        {
          "internalType": "uint256",
          "name": "",
          "type": "uint256"
        }
      ],
      "stateMutability": "nonpayable",
      "type": "function"
    },
    {
      "inputs": [],
      "name": "name",
      "outputs": [
        {
          "internalType": "string",
          "name": "",
          "type": "string"
        }
      ],
      "stateMutability": "view",
      "type": "function"
    },
    {
      "inputs": [
        {
          "internalType": "uint256",
          "name": "tokenId",
          "type": "uint256"
        }
      ],
      "name": "ownerOf",
      "outputs": [
        {
          "internalType": "address",
          "name": "",
          "type": "address"
        }
      ],
      "stateMutability": "view",
      "type": "function"
    },
    {
      "inputs": [
        {
          "internalType": "address",
          "name": "from",
          "type": "address"
        },
        {
          "internalType": "address",
          "name": "to",
          "type": "address"
        },
        {
          "internalType": "uint256",
          "name": "tokenId",
          "type": "uint256"
        }
      ],
      "name": "safeTransferFrom",
      "outputs": [],
      "stateMutability": "nonpayable",
      "type": "function"
    },
    {
      "inputs": [
        {
          "internalType": "address",
          "name": "from",
          "type": "address"
        },
        {
          "internalType": "address",
          "name": "to",
          "type": "address"
        },
        {
          "internalType": "uint256",
          "name": "tokenId",
          "type": "uint256"
        },
        {
          "internalType": "bytes",
          "name": "data",
          "type": "bytes"
        }
      ],
      "name": "safeTransferFrom",
      "outputs": [],
      "stateMutability": "nonpayable",
      "type": "function"
    },
    {
      "inputs": [
        {
          "internalType": "address",
          "name": "operator",
          "type": "address"
        },
        {
          "internalType": "bool",
          "name": "approved",
          "type": "bool"
        }
      ],
      "name": "setApprovalForAll",
      "outputs": [],
      "stateMutability": "nonpayable",
      "type": "function"
    },
    {
      "inputs": [
        {
          "internalType": "address",
          "name": "_contractAddress",
          "type": "address"
        }
      ],
      "name": "setEventFacetAddress",
      "outputs": [],
      "stateMutability": "nonpayable",
      "type": "function"
    },
    {
      "inputs": [
        {
          "internalType": "bytes4",
          "name": "interfaceId",
          "type": "bytes4"
        }
      ],
      "name": "supportsInterface",
      "outputs": [
        {
          "internalType": "bool",
          "name": "",
          "type": "bool"
        }
      ],
      "stateMutability": "view",
      "type": "function"
    },
    {
      "inputs": [],
      "name": "symbol",
      "outputs": [
        {
          "internalType": "string",
          "name": "",
          "type": "string"
        }
      ],
      "stateMutability": "view",
      "type": "function"
    },
    {
      "inputs": [
        {
          "internalType": "uint256",
          "name": "tokenId",
          "type": "uint256"
        }
      ],
      "name": "tokenURI",
      "outputs": [
        {
          "internalType": "string",
          "name": "",
          "type": "string"
        }
      ],
      "stateMutability": "view",
      "type": "function"
    },
    {
      "inputs": [
        {
          "internalType": "address",
          "name": "from",
          "type": "address"
        },
        {
          "internalType": "address",
          "name": "to",
          "type": "address"
        },
        {
          "internalType": "uint256",
          "name": "tokenId",
          "type": "uint256"
        }
      ],
      "name": "transferFrom",
      "outputs": [],
      "stateMutability": "nonpayable",
      "type": "function"
    }
  ],
  "bytecode": "0x608060405234801561001057600080fd5b50610025600761002a60201b6107691760201c565b610033565b80546001019055565b61168d806100426000396000f3fe608060405234801561001057600080fd5b50600436106100c55760003560e01c806301ffc9a7146100ca57806306fdde03146100f3578063081812fc14610108578063095ea7b3146101335780631a8b1d3c1461014857806323b872dd1461016957806342842e0e1461017c5780636352211e1461018f57806370a08231146101a25780638f79c627146101b557806395d89b41146101c8578063a22cb465146101d0578063b88d4fde146101e3578063c87b56dd146101f6578063e985e9c514610209575b600080fd5b6100de6100d8366004610fd0565b50600090565b60405190151581526020015b60405180910390f35b6100fb61021c565b6040516100ea9190611044565b61011b610116366004611057565b6102b0565b6040516001600160a01b0390911681526020016100ea565b61014661014136600461108c565b6102d7565b005b61015b610156366004611141565b6103f1565b6040519081526020016100ea565b6101466101773660046111ab565b61045e565b61014661018a3660046111ab565b61048f565b61011b61019d366004611057565b6104aa565b61015b6101b03660046111e7565b6104e5565b6101466101c33660046111e7565b61056b565b6100fb6105a2565b6101466101de366004611202565b6105b4565b6101466101f136600461123e565b6105c3565b6100fb610204366004611057565b6105fb565b6100de6102173660046112b9565b61073b565b606060008001805461022d906112ec565b80601f0160208091040260200160405190810160405280929190818152602001828054610259906112ec565b80156102a65780601f1061027b576101008083540402835291602001916102a6565b820191906000526020600020905b81548152906001019060200180831161028957829003601f168201915b5050505050905090565b60006102bb82610772565b506000908152600460205260409020546001600160a01b031690565b60006102e2826104aa565b9050806001600160a01b0316836001600160a01b0316036103545760405162461bcd60e51b815260206004820152602160248201527f4552433732313a20617070726f76616c20746f2063757272656e74206f776e656044820152603960f91b60648201526084015b60405180910390fd5b336001600160a01b03821614806103705750610370813361073b565b6103e25760405162461bcd60e51b815260206004820152603e60248201527f4552433732313a20617070726f76652063616c6c6572206973206e6f7420746f60448201527f6b656e206f776e6572206e6f7220617070726f76656420666f7220616c6c0000606482015260840161034b565b6103ec838361079a565b505050565b60006103fb610808565b600061040660075490565b905060005b8481101561045557600061041e60075490565b905061042a858261087b565b610434818861099b565b610442600780546001019055565b508061044d8161133c565b91505061040b565b50949350505050565b6104683382610a1f565b6104845760405162461bcd60e51b815260040161034b90611355565b6103ec838383610a7d565b6103ec838383604051806020016040528060008152506105c3565b6000818152600260205260408120546001600160a01b0316806104df5760405162461bcd60e51b815260040161034b906113a3565b92915050565b60006001600160a01b03821661054f5760405162461bcd60e51b815260206004820152602960248201527f4552433732313a2061646472657373207a65726f206973206e6f7420612076616044820152683634b21037bbb732b960b91b606482015260840161034b565b506001600160a01b031660009081526003602052604090205490565b610573610c07565b600061057d610c7b565b60050180546001600160a01b0319166001600160a01b03939093169290921790915550565b60606000600101805461022d906112ec565b6105bf338383610c9f565b5050565b6105cd3383610a1f565b6105e95760405162461bcd60e51b815260040161034b90611355565b6105f584848484610d69565b50505050565b606061060682610772565b6000828152600660205260408120805461061f906112ec565b80601f016020809104026020016040519081016040528092919081815260200182805461064b906112ec565b80156106985780601f1061066d57610100808354040283529160200191610698565b820191906000526020600020905b81548152906001019060200180831161067b57829003601f168201915b5050505050905060006106b660408051602081019091526000815290565b905080516000036106c8575092915050565b8151156106fa5780826040516020016106e29291906113d5565b60405160208183030381529060405292505050919050565b60008151116107185760405180602001604052806000815250610733565b8061072285610d9c565b6040516020016106e29291906113d5565b949350505050565b6001600160a01b03918216600090815260056020908152604080832093909416825291909152205460ff1690565b80546001019055565b61077b81610e9c565b6107975760405162461bcd60e51b815260040161034b906113a3565b50565b600081815260046020526040902080546001600160a01b0319166001600160a01b03841690811790915581906107cf826104aa565b6001600160a01b03167f8c5be1e5ebec7d5bd14f71427d1e84f3dd0314c0f7b2291e5b200ac8c7c3b92560405160405180910390a45050565b610810610c7b565b600501546001600160a01b031633146108795760405162461bcd60e51b815260206004820152602560248201527f4c69625469636b65744469616d6f6e643a204d757374206265206576656e7420604482015264199858d95d60da1b606482015260840161034b565b565b6001600160a01b0382166108d15760405162461bcd60e51b815260206004820181905260248201527f4552433732313a206d696e7420746f20746865207a65726f2061646472657373604482015260640161034b565b6108da81610e9c565b156109265760405162461bcd60e51b815260206004820152601c60248201527b115490cdcc8c4e881d1bdad95b88185b1c9958591e481b5a5b9d195960221b604482015260640161034b565b6001600160a01b038216600090815260036020526040812080546001929061094f908490611404565b909155505060008181526002602052604080822080546001600160a01b0319166001600160a01b0386169081179091559051839290600080516020611638833981519152908290a45050565b6109a482610e9c565b610a075760405162461bcd60e51b815260206004820152602e60248201527f45524337323155524953746f726167653a2055524920736574206f66206e6f6e60448201526d32bc34b9ba32b73a103a37b5b2b760911b606482015260840161034b565b60008281526006602052604090206103ec8282611465565b600080610a2b836104aa565b9050806001600160a01b0316846001600160a01b03161480610a525750610a52818561073b565b806107335750836001600160a01b0316610a6b846102b0565b6001600160a01b031614949350505050565b826001600160a01b0316610a90826104aa565b6001600160a01b031614610af45760405162461bcd60e51b815260206004820152602560248201527f4552433732313a207472616e736665722066726f6d20696e636f72726563742060448201526437bbb732b960d91b606482015260840161034b565b6001600160a01b038216610b565760405162461bcd60e51b8152602060048201526024808201527f4552433732313a207472616e7366657220746f20746865207a65726f206164646044820152637265737360e01b606482015260840161034b565b610b6160008261079a565b6001600160a01b0383166000908152600360205260408120805460019290610b8a908490611524565b90915550506001600160a01b0382166000908152600360205260408120805460019290610bb8908490611404565b909155505060008181526002602052604080822080546001600160a01b0319166001600160a01b03868116918217909255915184939187169160008051602061163883398151915291a4505050565b610c0f610c7b565b600401546001600160a01b031633146108795760405162461bcd60e51b815260206004820152602860248201527f4c69625469636b65744469616d6f6e643a204d75737420626520636f6e74726160448201526731ba1037bbb732b960c11b606482015260840161034b565b7fc8fcad8db84d3cc18b4c41d551ea0ee66dd599cde068d998e57d5e09332c131c90565b816001600160a01b0316836001600160a01b031603610cfc5760405162461bcd60e51b815260206004820152601960248201527822a9219b99189d1030b8383937bb32903a379031b0b63632b960391b604482015260640161034b565b6001600160a01b03838116600081815260056020908152604080832094871680845294825291829020805460ff191686151590811790915591519182527f17307eab39ab6107e8899845ad3d59bd9653f200f220920489ca2b5937696c31910160405180910390a3505050565b610d74848484610a7d565b610d8084848484610eb9565b6105f55760405162461bcd60e51b815260040161034b90611537565b606081600003610dc35750506040805180820190915260018152600360fc1b602082015290565b8160005b8115610ded5780610dd78161133c565b9150610de69050600a8361159f565b9150610dc7565b6000816001600160401b03811115610e0757610e076110b6565b6040519080825280601f01601f191660200182016040528015610e31576020820181803683370190505b5090505b841561073357610e46600183611524565b9150610e53600a866115b3565b610e5e906030611404565b60f81b818381518110610e7357610e736115c7565b60200101906001600160f81b031916908160001a905350610e95600a8661159f565b9450610e35565b6000908152600260205260409020546001600160a01b0316151590565b60006001600160a01b0384163b15610faf57604051630a85bd0160e11b81526001600160a01b0385169063150b7a0290610efd9033908990889088906004016115dd565b6020604051808303816000875af1925050508015610f38575060408051601f3d908101601f19168201909252610f359181019061161a565b60015b610f95573d808015610f66576040519150601f19603f3d011682016040523d82523d6000602084013e610f6b565b606091505b508051600003610f8d5760405162461bcd60e51b815260040161034b90611537565b805181602001fd5b6001600160e01b031916630a85bd0160e11b149050610733565b506001949350505050565b6001600160e01b03198116811461079757600080fd5b600060208284031215610fe257600080fd5b8135610fed81610fba565b9392505050565b60005b8381101561100f578181015183820152602001610ff7565b50506000910152565b60008151808452611030816020860160208601610ff4565b601f01601f19169290920160200192915050565b602081526000610fed6020830184611018565b60006020828403121561106957600080fd5b5035919050565b80356001600160a01b038116811461108757600080fd5b919050565b6000806040838503121561109f57600080fd5b6110a883611070565b946020939093013593505050565b634e487b7160e01b600052604160045260246000fd5b60006001600160401b03808411156110e6576110e66110b6565b604051601f8501601f19908116603f0116810190828211818310171561110e5761110e6110b6565b8160405280935085815286868601111561112757600080fd5b858560208301376000602087830101525050509392505050565b60008060006060848603121561115657600080fd5b83356001600160401b0381111561116c57600080fd5b8401601f8101861361117d57600080fd5b61118c868235602084016110cc565b935050602084013591506111a260408501611070565b90509250925092565b6000806000606084860312156111c057600080fd5b6111c984611070565b92506111d760208501611070565b9150604084013590509250925092565b6000602082840312156111f957600080fd5b610fed82611070565b6000806040838503121561121557600080fd5b61121e83611070565b91506020830135801515811461123357600080fd5b809150509250929050565b6000806000806080858703121561125457600080fd5b61125d85611070565b935061126b60208601611070565b92506040850135915060608501356001600160401b0381111561128d57600080fd5b8501601f8101871361129e57600080fd5b6112ad878235602084016110cc565b91505092959194509250565b600080604083850312156112cc57600080fd5b6112d583611070565b91506112e360208401611070565b90509250929050565b600181811c9082168061130057607f821691505b60208210810361132057634e487b7160e01b600052602260045260246000fd5b50919050565b634e487b7160e01b600052601160045260246000fd5b60006001820161134e5761134e611326565b5060010190565b6020808252602e908201527f4552433732313a2063616c6c6572206973206e6f7420746f6b656e206f776e6560408201526d1c881b9bdc88185c1c1c9bdd995960921b606082015260800190565b602080825260189082015277115490cdcc8c4e881a5b9d985b1a59081d1bdad95b88125160421b604082015260600190565b600083516113e7818460208801610ff4565b8351908301906113fb818360208801610ff4565b01949350505050565b808201808211156104df576104df611326565b601f8211156103ec57600081815260208120601f850160051c8101602086101561143e5750805b601f850160051c820191505b8181101561145d5782815560010161144a565b505050505050565b81516001600160401b0381111561147e5761147e6110b6565b6114928161148c84546112ec565b84611417565b602080601f8311600181146114c757600084156114af5750858301515b600019600386901b1c1916600185901b17855561145d565b600085815260208120601f198616915b828110156114f6578886015182559484019460019091019084016114d7565b50858210156115145787850151600019600388901b60f8161c191681555b5050505050600190811b01905550565b818103818111156104df576104df611326565b60208082526032908201527f4552433732313a207472616e7366657220746f206e6f6e20455243373231526560408201527131b2b4bb32b91034b6b83632b6b2b73a32b960711b606082015260800190565b634e487b7160e01b600052601260045260246000fd5b6000826115ae576115ae611589565b500490565b6000826115c2576115c2611589565b500690565b634e487b7160e01b600052603260045260246000fd5b6001600160a01b038581168252841660208201526040810183905260806060820181905260009061161090830184611018565b9695505050505050565b60006020828403121561162c57600080fd5b8151610fed81610fba56feddf252ad1be2c89b69c2b068fc378daa952ba7f163c4a11628f55a4df523b3efa26469706673582212208ca279ddf9fccf90cb2feb9ca7f211c5044dcc93cea88781bf33f70b8681665f64736f6c63430008110033",
  "linkReferences": {},
  "deployedLinkReferences": {}
}