{
  "_format": "hh-sol-artifact-1",
  "contractName": "TicketDiamondLoupeFacet",
  "sourceName": "contracts/TicketDiamond/facets/TicketDiamondLoupeFacet.sol",
  "abi": [
    {
      "inputs": [
        {
          "internalType": "bytes4",
          "name": "_functionSelector",
          "type": "bytes4"
        }
      ],
      "name": "facetAddress",
      "outputs": [
        {
          "internalType": "address",
          "name": "facetAddress_",
          "type": "address"
        }
      ],
      "stateMutability": "view",
      "type": "function"
    },
    {
      "inputs": [],
      "name": "facetAddresses",
      "outputs": [
        {
          "internalType": "address[]",
          "name": "facetAddresses_",
          "type": "address[]"
        }
      ],
      "stateMutability": "view",
      "type": "function"
    },
    {
      "inputs": [
        {
          "internalType": "address",
          "name": "_facet",
          "type": "address"
        }
      ],
      "name": "facetFunctionSelectors",
      "outputs": [
        {
          "internalType": "bytes4[]",
          "name": "facetFunctionSelectors_",
          "type": "bytes4[]"
        }
      ],
      "stateMutability": "view",
      "type": "function"
    },
    {
      "inputs": [],
      "name": "facets",
      "outputs": [
        {
          "components": [
            {
              "internalType": "address",
              "name": "facetAddress",
              "type": "address"
            },
            {
              "internalType": "bytes4[]",
              "name": "functionSelectors",
              "type": "bytes4[]"
            }
          ],
          "internalType": "struct IDiamondLoupe.Facet[]",
          "name": "facets_",
          "type": "tuple[]"
        }
      ],
      "stateMutability": "view",
      "type": "function"
    },
    {
      "inputs": [
        {
          "internalType": "bytes4",
          "name": "_interfaceId",
          "type": "bytes4"
        }
      ],
      "name": "supportsInterface",
      "outputs": [
        {
          "internalType": "bool",
          "name": "",
          "type": "bool"
        }
      ],
      "stateMutability": "view",
      "type": "function"
    }
  ],
  "bytecode": "0x608060405234801561001057600080fd5b50610f4d806100206000396000f3fe608060405234801561001057600080fd5b50600436106100575760003560e01c806301ffc9a71461005c57806352ef6b2c1461008c5780637a0ed627146100aa578063adfca15e146100c8578063cdffacc6146100f8575b600080fd5b61007660048036038101906100719190610cef565b610128565b6040516100839190610d22565b60405180910390f35b61009461027b565b6040516100a19190610d35565b60405180910390f35b6100b26103f4565b6040516100bf9190610dd5565b60405180910390f35b6100e260048036038101906100dd9190610e5a565b6108ab565b6040516100ef9190610e8c565b60405180910390f35b610112600480360381019061010d9190610cef565b610a72565b60405161011f9190610ea7565b60405180910390f35b60006101567f5e25f6f7ad4371e93c8a97dd40b96a546baf3e9a92a7a8aff70d72fadc91183760001b610bdb565b6101827f68f46af01cc8577ad962969f418f7084ba82232ca6f2aece60effd7d2c6a2f9760001b610bdb565b6101ae7f3b86e08e2f9c4e2b0b22d6f0ccb74eb8ca2a239d061c4b1cf3f35a45e27dd18c60001b610bdb565b60006101b8610bde565b90506101e67fdaa0a79841fa8481bd72eb72a8f44c75c0a2fea1b88e9aec236148d3f1c6caa260001b610bdb565b6102127f7b5a967b5efb5e1bf089ebc5f416e443555528e58f14bf1883add7ba9244458b60001b610bdb565b806003016000847bffffffffffffffffffffffffffffffffffffffffffffffffffffffff19167bffffffffffffffffffffffffffffffffffffffffffffffffffffffff1916815260200190815260200160002060009054906101000a900460ff16915050919050565b60606102a97f8a3dbdf7ddb3a1f7cb72f487210cbd14b8e06ce18d54146198408bc03ddb148c60001b610bdb565b6102d57fe44bb7e29a0f9e188f28b40110854db7d0339f63099d22e1a9c1d7a4750684d860001b610bdb565b6103017f16d5daabea4b0a4522302cceb81229e22b6e87c30b36558aee5688135211aa1e60001b610bdb565b600061030b610bde565b90506103397facc273ed8b37b525f26ed71a15ac874abc66e6f1ec4afc315c84cf354c6f44c360001b610bdb565b6103657fb8fdf12606d63b20a2924033793bebd85cbe84cbf24426ca7ada4e1b6c7af04a60001b610bdb565b806002018054806020026020016040519081016040528092919081815260200182805480156103e957602002820191906000526020600020905b8160009054906101000a900473ffffffffffffffffffffffffffffffffffffffff1673ffffffffffffffffffffffffffffffffffffffff168152602001906001019080831161039f575b505050505091505090565b60606104227fe7bf9a1b1077211a63ff67a78621ec3a7664af8249b913009db9637193c33e0060001b610bdb565b61044e7f34940dd2847d68e89ef082a7d18dbbe20e8a96b7ca4fc99faa4c29ed89cb46aa60001b610bdb565b61047a7f66736605d713b6fd2a786163569aa34626402471cb0ace84d2e6189f03648c8560001b610bdb565b6000610484610bde565b90506104b27f49d7359735511c43d82ddee8f083f37378aff84a076effdfb7b0dec685927f5f60001b610bdb565b6104de7f3facd152dea7998fbf92273c58a6e1f66d272c1ce84e47383351b43cdac3410d60001b610bdb565b6000816002018054905090506105167f255a3af848b6f86165962817cb311c10a7884551dc258568b520f0b8061745f160001b610bdb565b6105427f915559ca3c983561a1df1fce664bcee04efa799aff3932048108011dd539520360001b610bdb565b8067ffffffffffffffff81111561055c5761055b610ec0565b5b60405190808252806020026020018201604052801561059557816020015b610582610cbf565b81526020019060019003908161057a5790505b5092506105c47fff011d30d5cf4ec08fe456298ac7853f34bc5f3b8fc861f885a2b11f14c837d760001b610bdb565b6105f07fdac1a34341028f1b94a6b8c47ea58eb567f0e16446c4800b359f2f46add7e38c60001b610bdb565b60005b818110156108a5576106277f74431c93765b9b35cda9bf95799338800d7206539febae1bfeeb59f4c1c6d2f560001b610bdb565b6106537f9ca44bcb50ea7210bb42eb858f2da401084cc01b2df072427195c2dd3ade480460001b610bdb565b600083600201828154811061066b5761066a610ed6565b5b9060005260206000200160009054906101000a900473ffffffffffffffffffffffffffffffffffffffff1690506106c47f491562a43be162c409053cee4aceb9e2ca57a8adc142ea1ff2d2c0d435bff66d60001b610bdb565b6106f07fee34948868e4e5b2164c07f7a9db132c6335e19d480fb2ff23fd98da0509aaa160001b610bdb565b8085838151811061070457610703610ed6565b5b60200260200101516000019073ffffffffffffffffffffffffffffffffffffffff16908173ffffffffffffffffffffffffffffffffffffffff168152505061076e7f648eba67adce4600207bfcc19cad627543806aa0473f064f549ad8a01141376860001b610bdb565b61079a7f1733af03d799db232cbe36534bfe190bfff01ea7952261a117ffe051dfb924eb60001b610bdb565b8360010160008273ffffffffffffffffffffffffffffffffffffffff1673ffffffffffffffffffffffffffffffffffffffff16815260200190815260200160002060000180548060200260200160405190810160405280929190818152602001828054801561086a57602002820191906000526020600020906000905b82829054906101000a900460e01b7bffffffffffffffffffffffffffffffffffffffffffffffffffffffff1916815260200190600401906020826003010492830192600103820291508084116108175790505b505050505085838151811061088257610881610ed6565b5b60200260200101516020018190525050808061089d90610eec565b9150506105f3565b50505090565b60606108d97f55e3ed46e4952e9b5d00300c64dc94b0dd09bf283eabaea4e78c0302fd5845e960001b610bdb565b6109057ffbe71a59c6d54fb5f436d0a42a820256c160ca8f6e41f0893e7d6a1e12ca639760001b610bdb565b6109317fdf79b6eb766ac97e8c8be2a4891ad64d14a93943ff8cc5ea7c061b64f87f301560001b610bdb565b600061093b610bde565b90506109697f483d07a582d72357d46fe5e8b3d550b53ea33dbdaef65f7edc180ff5a2fdad9260001b610bdb565b6109957f8753ae269ba9892122b2ebfa7134d12e60984dc74f6e4e55be3421a8f433af8560001b610bdb565b8060010160008473ffffffffffffffffffffffffffffffffffffffff1673ffffffffffffffffffffffffffffffffffffffff168152602001908152602001600020600001805480602002602001604051908101604052809291908181526020018280548015610a6557602002820191906000526020600020906000905b82829054906101000a900460e01b7bffffffffffffffffffffffffffffffffffffffffffffffffffffffff191681526020019060040190602082600301049283019260010382029150808411610a125790505b5050505050915050919050565b6000610aa07f26040ddbc16b0d1b1f619f02abc6c4318f5a8d5333a0285f654513841d52697760001b610bdb565b610acc7fecc2ee2cb603a0f10179992e4de7b2dc5158c993c2d52fc41b5953b6702a7bf260001b610bdb565b610af87f11208dc3e60243d3ae8b6def45f45432b1b6a0bf51c712beffacac193d28f05060001b610bdb565b6000610b02610bde565b9050610b307fb3e370e0d252028a6dea1c3c96be8c532136477b7a62c3df00bc55f718c3668a60001b610bdb565b610b5c7f1c98b28a93860b84dad8df200c42c36f1e7442be6e40d67dd84dee6c2f86337560001b610bdb565b806000016000847bffffffffffffffffffffffffffffffffffffffffffffffffffffffff19167bffffffffffffffffffffffffffffffffffffffffffffffffffffffff1916815260200190815260200160002060000160009054906101000a900473ffffffffffffffffffffffffffffffffffffffff16915050919050565b50565b6000610c0c7fe254b6f350aca440d50686bcd5b549670f9e994453d4d14fc71d286637ec138060001b610cbc565b610c387f557f3e12dfdf73b2da4b01bbb64773ea8d96fbd7a6af926da02c129133ae5d1f60001b610cbc565b610c647f97540394a17f702b0e8537ce8628877660003735e1d3eaf844332d20a4ab5dfd60001b610cbc565b60007fc8fcad8db84d3cc18b4c41d551ea0ee66dd599cde068d998e57d5e09332c131c9050610cb57febd7a14fc62162f8da2269b73aa5790e434c367ae23888e70930fe6b4e88967a60001b610cbc565b8091505090565b50565b6040518060400160405280600073ffffffffffffffffffffffffffffffffffffffff168152602001606081525090565b600060208284031215610d0157600080fd5b813563ffffffff60e01b81168114610d1857600080fd5b8091505092915050565b6000602082019050821515825292915050565b60006020808301818452808551808352604086019150838701925060005b81811015610d7c5760018060a01b03845116835284830192508484019350600181019050610d53565b505080935050505092915050565b600081518084526020808501945080840160005b83811015610dc85763ffffffff60e01b825116875282870196508282019150600181019050610d9e565b5050505082905092915050565b60006020808301818452808551808352604092508286019150828160051b87010184880160005b83811015610e4a57603f19898403018552815160018060a01b0381511684528781015190508688850152610e3287850182610d8a565b93505086820191508685019450600181019050610dfc565b5050809550505050505092915050565b600060208284031215610e6c57600080fd5b813560018060a01b0381168114610e8257600080fd5b8091505092915050565b602081526000610e9f6020830184610d8a565b905092915050565b600060208201905060018060a01b038316825292915050565b634e487b7160e01b600052604160045260246000fd5b634e487b7160e01b600052603260045260246000fd5b600080198203610f0c57634e487b7160e01b600052601160045260246000fd5b60018201905091905056fea2646970667358221220acb6fd4c2639ff3a6c5e3ce03790bc1589db04e48927f46886641336814b07fe64736f6c63430008110033",
  "linkReferences": {},
  "deployedLinkReferences": {}
}